:1000000046C000006BC0000069C0000067C000006F
:1000100065C0000063C0000061C000005FC0000058
:100020005DC000005BC0000059C0000057C0000068
:1000300055C0000053C0000051C000004FC0000078
:100040004DC000004BC0000049C0000047C0000088
:1000500045C0000043C0000041C000003FC0000098
:100060003DC000003BC0000039C0000037C00000A8
:1000700035C0000033C0000031C000002FC00000B8
:100080002DC000002BC0000029C000005602112422
:100090001FBECFEFD0E4DEBFCDBF11E0A0E0B1E0E6
:1000A000E0E3F6E000E00BBF02C007900D92A8313C
:1000B000B107D9F711E0A8E1B1E001C01D92A53266
:1000C000B107E1F710E0CEE8D0E003C02297FE01CF
:1000D00066D2CC38D107D1F70ED2A8C291CF442333
:1000E00059F024B181E090E002C0880F991F6A9511
:1000F000E2F7282B24B9089524B181E090E002C0F2
:10010000880F991F6A95E2F78095822384B9089534
:10011000442361F425B181E090E002C0880F991F6B
:100120006A95E2F78095822385B9089525B181E02B
:1001300090E002C0880F991F6A95E2F7282B25B935
:1001400008950F931F938C0163E041E0E1DF8AEF94
:1001500090E00197F1F7C80163E040E0D9DF1F911B
:100160000F910895CF92DF92EF92FF920F931F931A
:10017000CF93DF93F82EE92E282F392FC9018C0158
:10018000C0E0D0E0C62EDD248F2D9E2DF8016381C6
:1001900041E0A5DFA6010C2E02C0559547950A94B3
:1001A000E2F741708F2D9E2DF8016381B1DF21961A
:1001B0000F5F1F4FC430D10539F78AEF90E00197E8
:1001C000F1F78F2D9E2DBDDFDF91CF911F910F9104
:1001D000FF90EF90DF90CF900895FF920F931F93C1
:1001E0008C01F62E61E094DFC80162E041E077DF28
:1001F000C80162E040E08CDF6F2D70E084E075950F
:1002000067958A95E1F7C801ADDFC8016F2DAADFB8
:100210001F910F91FF9008950F931F93CF93DF933A
:10022000EC0167E040E05BDFCE0161E040E070DFC1
:10023000CE0162E041E06CDF02E4CE0163E040E029
:1002400067DFCE0163E041E063DF802F8A95F1F73D
:1002500013B1CE0163E040E05BDFCE0172DF17FD3A
:10026000ECCFCE0167E041E03ADFCE0162E040E052
:100270004FDFDF91CF911F910F9108950F931F933F
:100280008C0141E0AADFC801C7DF1F910F910895DB
:100290000F931F938C0140E0A0DFC801BDDF1F91C9
:1002A0000F910895DF93CF9300D000D0CDB7DEB784
:1002B000DC011C968C911C97481708F040E01982CD
:1002C00080E48A8384E18B8384E58C83FE01E40FE0
:1002D000F11D8181680F6068CD01DADF0F900F900A
:1002E0000F900F90CF91DF91089561E0D1CFEF9201
:1002F000FF920F931F93CF93DF93EC014C871B86E4
:1003000061E041E0ECDECE0162E041E0E8DECE01FA
:1003100063E041E0E4DECE0161E040E0F9DECE01E1
:1003200063E040E0F5DECE0162E040E0F1DE84EF24
:1003300091E024EF31E0F9013197F1F70197D9F716
:100340008E0194E0E92EF12CEC0EFD1ECE01F80199
:10035000638141E0C4DECE01F801638140E0D8DE74
:100360000F5F1F4F0E151F0589F7CE0163E0FADE00
:1003700008EA11E6C8010197F1F78A81823031F469
:10038000CE0168E0EFDEC8010197F1F7CE0162E02F
:10039000E9DE08EA11E6C8010197F1F7CE0162E053
:1003A000E1DEC8010197F1F7CE0168E0DBDEC801AC
:1003B0000197F1F7CE0168E06BDFC8010197F1F713
:1003C000CE0161E065DFC8010197F1F7CE0166E07B
:1003D0005FDFC8010197F1F7CE0162E059DFC80184
:1003E0000197F1F7CE016CE053DFC8010197F1F7F7
:1003F000DF91CF911F910F91FF90EF900895CF93D0
:10040000DF93EC016A836150623010F082E08A83EE
:1004100084E08B8385E08C8386E08D8387E08E8308
:10042000CE0161E041E05BDECE0162E041E057DEFB
:10043000CE0163E041E053DE88E28F83CE0160E1CC
:1004400042E055DFDF91CF910895FC0185E191E015
:1004500091838083CF01D3CFCF92DF92EF92FF922F
:100460000F931F93CF93DF937C016B018A01C0E050
:10047000D0E00FC0D6016D916D01D701ED91FC91D7
:100480000190F081E02DC7010995C80FD91F0150D7
:1004900010400115110571F7CE01DF91CF911F9129
:1004A0000F91FF90EF90DF90CF90089588E191E059
:1004B00062E0CBCF6115710519F420E030E00AC08D
:1004C000DB010D900020E9F71197A61BB70BAD01DA
:1004D000C3DF9C01C90108950F931F9308E111E048
:1004E000C80160E142E003DFC80160E071E0E2DFE3
:1004F0001F910F910895CF92DF92EF92FF921F9379
:10050000DF93CF93CDB7DEB760970FB6F894DEBF19
:100510000FBECDBF80E29EE424EF31E0F9013197B8
:10052000F1F70197D9F7F894D7DF789410E07E01BE
:100530000894E11CF11C24EFC22E21E0D22E88E1A8
:1005400091E060E040E0AEDE88E191E060E071E0E3
:10055000B1DF88E191E060E041E0A4DE88E191E074
:10056000612F8CDE88E191E068E041E09BDE812F25
:1005700090E0B7014AE050E016D088E191E0B70181
:1005800099DF1F5F80E197E2F6013197F1F701975C
:10059000D9F788E191E0A9DED2CFEE0FFF1F0590D9
:1005A000F491E02D0994FB019F01E8944230BCF0E6
:1005B0004532ACF44A3029F497FB1EF490958195AE
:1005C0009F4F642F77271ED0805D8A330CF0895DA2
:1005D0008193CB010097A9F716F45DE25193108245
:1005E000C90100C0DC01FC01672F71917723E1F79D
:1005F000329704C07C916D9370836291AE17BF07F0
:10060000C8F30895AA1BBB1B51E107C0AA1FBB1F5B
:10061000A617B70710F0A61BB70B881F991F5A958E
:10062000A9F780959095BC01CD010895F894FFCF6E
:1006300068656C6C6F204F4C454420576F726C643A
:0806400000000000003E010073
:00000001FF
