:100000000C94B8020C94D5020C94D5020C94D50231
:100010000C94D5020C94D5020C94D5020C94D50204
:100020000C94D5020C948E1E0C94D5020C94D5021F
:100030000C94D5020C94D5020C94D5020C94D502E4
:100040000C94301E0C94D5020C94D5020C94D5025D
:100050000C94E61D0C94D5020C94D5020C94D50298
:100060000C94D5020C94D5020C94D5020C94D502B4
:10007000710CA60CF30C3F0DBD0DFE0D7C0D3A0E60
:10008000570B510ED50B2D0C6B133F131313461248
:100090003212811227121013DC129F1313143A2507
:1000A00077265F26522645263A262F2621261D260C
:1000B00019260D260126F525E925DD25D125C5259D
:1000C000B925AD25A125952589257B2538256525CB
:1000D00057253E2588266E616E00696E66001D02FA
:1000E0000302EE01D401BC01A3018A016B014F019F
:1000F0002E010F01F600F9000B52756E20696E7427
:1001000065726E616C0A70726F6772616D000012C9
:10011000010A53657420636F6E7374616E740A61B3
:100120006E67756C617220737065656400003101E3
:1001300009446566696E65206F70746963616C0A55
:100140007A65726F20706F736974696F6E00005208
:1001500001084C6F6164206C6173740A636F6E6692
:10016000696775726174696F6E00006E0107536193
:1001700076652063757272656E740A636F6E666968
:100180006775726174696F6E00008D010643686166
:100190006E6765206D6F746F720A73756273746534
:1001A000700000A6010552756E207A65726F0A63B1
:1001B000616C6962726174696F6E0000BF01045303
:1001C000657420737465700A6D756C7469706C6900
:1001D00065720000D701034368616E676520737420
:1001E00065700A776169742074696D650000F101BA
:1001F000024368616E676520737465700A756E6985
:100200007400000602014368616E6765206D6F74BB
:100210006F720A706F736974696F6E00002002005C
:100220004D6F746F72204472697665720A20000007
:1002300015040B040004F603E903DC03CF03C30336
:10024000B703A9039B038D037E036B035803460387
:100250003403240314030303F202E102D002BD02BB
:10026000AB029E028D027B026A026E02069C53451F
:100270005450524F475354455000007F02029B4553
:100280004E4142464F52425A4F4E450000910203A2
:100290009A534554464F52425A4F4E450000A202CF
:1002A000009953544F50414C4C0000AF0200984607
:1002B0004143544F525952455345540000C1020323
:1002C00097534554434F4E535453504545440000B3
:1002D000D40202965345545741495454494D450060
:1002E00000E50201954745545741495454494D454D
:1002F0000000F6020294534554535542535445505E
:100300005300000703019347455453554253544546
:10031000505300001803029253455446554C4C521A
:100320004F5400002803019147455446554C4C5208
:100330004F540000380302905345544745415252F0
:100340004154494F00004A03018F474554474541F6
:1003500052524154494F00005C03028E5345544FA2
:1003600050545A45524F504F5300006F03018D4770
:1003700045544F50545A45524F504F53000082033A
:10038000018C474554414E414C4F470000910301B9
:100390008B49534D4F56494E4700009F03008A4CEE
:1003A0004F4144434F4E460000AD03008953415630
:1003B00045434F4E460000BB030288474554504F0B
:1003C000530000C7030287454E41424C450000D30D
:1003D0000301865A45524F52554E0000E0030385F3
:1003E0004D4F564552454C0000ED0303844D4F568A
:1003F000454142530000FA0301832A49444E00005C
:10040000040400822A49444E3F00000F0400812A60
:10041000525354000019040080000000000000FF47
:10042000FF000000000000000001000100000000CB
:100430000000000000FFFF0000000000407A10F301
:100440005A00A0724E18090010A5D4E80000E87602
:1004500048170000E40B54020000CA9A3B00000059
:10046000E1F505000080969800000040420F000072
:1004700000A08601000000102700000000E8030033
:100480000000006400000000000A000000000001FD
:1004900000000000002C76D888DC674F0823DFC1FD
:1004A000DFAE59E1B1B796E5E3E453C63AE65199B8
:1004B0007696E8E6C28426EB898C9B62ED407C6FE1
:1004C000FCEFBC9C9F40F2BAA56FA5F490055A2A98
:1004D000F75C936B6CF9676DC11BFCE0E40D47FEA4
:1004E000F520E6B500D0ED902E0300943577050099
:1004F00080841E080000204E0A000000C80C333320
:1005000033330F986E12831141EF8D2114893BE62E
:100510005516CFFEE6DB18D1844B381BF77C1D90B7
:100520001DA4BBE424203284725E228100C9F12420
:10053000ECA1E53D274E414E494E495459494E469E
:10054000CDCCCC3D0AD7233C17B7D13877CC2B3252
:100550009595E6241FB14F0A000020410000C842D3
:1005600000401C4620BCBE4CCA1B0E5AAEC59D7432
:1005700011241FBECFEFD0E1DEBFCDBF12E0A0E05F
:10058000B1E0ECEAFFE502C005900D92A637B10795
:10059000D9F713E0A6E7B2E001C01D92AA3CB1076B
:1005A000E1F70E942A240C94D42F0C9400009BB1F4
:1005B0009F709BB99BB1807F892B8BB95B9A85E833
:1005C0008A95F1F700005B980895CF93DF93E8B127
:1005D00090E0AC01440F551F4F5F5F4F21E030E0CA
:1005E000042E01C0220F0A94EAF777FD42C020953D
:1005F0002E2328B977FD41C061157105B9F1AC0111
:10060000440F551F21E030E001C0220F4A95EAF760
:10061000B22FA22FA09540E050E023E2289FF001E6
:10062000299FF00D1124E05BFC4F88B18B2B88B91A
:100630008DE08A95F1F7000088B18A2388B980811E
:100640009181892B71F080E090E0C7E8D3E1219798
:10065000F1F700C0000001962081318182179307D5
:10066000A0F34F5F5F4F46175707F9F6DF91CF9121
:100670000895E22BE8B977FFBFCF719561957109B5
:10068000BBCF80917C02809587FD04C086FF04C0AB
:1006900086E0089587E0089585FF02C085E008950B
:1006A00084FF02C084E0089583FF02C083E00895C0
:1006B00080FD02C08AE2089580E008956F927F92E3
:1006C0008F929F92AF92BF92CF92DF92EF92FF9262
:1006D0000F931F93CF93DF9320E030E063E2662E09
:1006E00075E5872E982CA82C70E4B72EC12CD12C40
:1006F000E8ECEE2EE3E4FE2E40E050E060E870E42B
:1007000080E090E0A0E8BFE37724739403E010E07A
:10071000629EF001639EF00D1124EE5CFC4F11828D
:10072000108213821282158214821682178210861A
:10073000118612861386148685869686A786B08AC9
:10074000C18AD28AE38AF48A458B568B678B708F75
:10075000828F938FA48FB58F718E178F068FC68D62
:10076000D78DD1A3C0A312A22F5F3F4F24303105F4
:1007700079F6109291021092900210922F0310922B
:100780002E031092C2031092C3031092130310920F
:10079000120388E08093140310927F028AE2809310
:1007A000800292E090938102109282021092830262
:1007B000809384021092850210927C0210927D0236
:1007C00010927E02109215031092160310921703D6
:1007D00080E090E0FC01EE0FFF1FEE0FFF1FE80F1F
:1007E000F91FE85EFC4F148211821082138212827C
:1007F00001968430910571F780E090E031E0FC01D2
:10080000EE0FFF1FEE0FFF1FEE0FFF1FEE56FD4F07
:10081000108221E0378312821182148213821682A1
:1008200015821086178201968031910541F7209339
:10083000920220939902DF91CF911F910F91FF9027
:10084000EF90DF90CF90BF90AF909F908F907F9070
:100850006F9008951092C50085E18093C400E1EC8B
:10086000F0E0808188698083089580E480937C0033
:1008700083E880937A0080917A00806480937A0084
:1008800080917A0086FDFCCF80917800909179006C
:10089000089520E030E080E090E0E0917602F09171
:1008A00077020190F081E02DE80FF91F1082019688
:1008B0008431910591F780E090E0E0918602F0911B
:1008C0008702E20FF31F0190F081E02DE80FF91F7E
:1008D0001082E0918802F0918902E20FF31F0190EB
:1008E000F081E02DE80FF91F108201968930910503
:1008F00021F780E090E0E0918A02F0918B02E20F14
:10090000F31F0190F081E02DE80FF91F1082E091B4
:100910008C02F0918D02E20FF31F0190F081E02D27
:10092000E80FF91F108201968131910521F7E091BE
:100930008E02F0918F0280E4DF01982F1D929A952C
:10094000E9F7E0912C03F0912D03DF01982F1D9220
:100950009A95E9F7E091BE03F091BF03DF011D9284
:100960008A95E9F7E0913003F091310388E2DF01E5
:100970001D928A95E9F708959091C00095FFFCCFEC
:100980008093C6000895DC012C91222359F0FC01CC
:1009900031968091C00085FFFCCF2093C600219145
:1009A0002111F7CF8091C00085FFFCCF8AE08093B2
:1009B000C600E0912C03F0912D0380E4DF011D922D
:1009C0008A95E9F7089591B1A82FB0E09D012C5FB9
:1009D0003F4F41E050E0FA0102C0EE0FFF1F2A95A1
:1009E000E2F79F019E2B91B96130C9F092B19E2B25
:1009F00092B993E29A9FF0019B9FF00D1124EE5C57
:100A0000FC4F138697B101C0440F8A95EAF74095D1
:100A1000492347B987B12095282327B9089532B1D2
:100A2000922F9095932392B993E29A9FF0019B9F06
:100A3000F00D1124EE5CFC4F638797B101C0440FA9
:100A40008A95EAF7942B97B987B1822B87B90895D5
:100A500060E080E00E94E30460E081E00E94E30443
:100A600060E082E00E94E30460E083E00E94E3042F
:100A700015BC1092B1000895E0EBF0E08081826037
:100A8000808383E78093B300E0E7F0E080818260B9
:100A900080831092B200E1EBF0E08081856080837A
:100AA00008956115710511F00C94E502089593E223
:100AB000899FF0011124EE5CFC4F80819181860FAB
:100AC000911D67FD9A95938382838281938195839B
:100AD0008483089590917C008F71907E892B809300
:100AE0007C00109213031092120380911403882348
:100AF000F9F040E080917A00806480937A008091E0
:100B00007A0086FDFCCF8091780050917900209189
:100B100012033091130390E0952B820F931F909353
:100B20001303809312034F5F80911403481710F34F
:100B300080911203909113036091140370E00E945E
:100B40009B26CB0108956F927F929F92AF92BF92A6
:100B5000CF92DF92EF92FF920F931F93CF93DF9389
:100B6000982EC82FD0E0FE01EE0FFF1FEE0FFF1FE3
:100B7000EC0FFD1FE85EFC4F84818111B8C08091AD
:100B8000B100887F8093B10083E28C9F50018D9FDC
:100B9000B00C1124C5018E5C9C4F5C01FC01068DDC
:100BA000178D618972898389948925853685478562
:100BB0005089C588D688E788F08C0E94B828A7019C
:100BC00096010E94B8286B017C0181E090E0F5015C
:100BD000978F868F05C068E37FEF892D0E94E5021D
:100BE000892D0E946A05C297B0F3C701B6010E9421
:100BF0001B290E94D6275B01612C712C0DC061E07E
:100C000070E0892D0E94E502892D0E946A05C29735
:100C100030F0FFEF6F1A7F0A6A147B0481F720E03F
:100C200030E040E85EE3C701B6010E94B8280E94A8
:100C30001B290E94D1276115710509F06AC020E0C7
:100C400030E040E45FE3C701B6010E94B8280E948B
:100C50001B290E94D127685C71096115710509F093
:100C60005CC083E28C9FF0018D9FF00D1124EE5C3F
:100C7000FC4F85E090E0978F868F05C061E070E0C3
:100C8000892D0E94E502892D0E946A05C397B0F75D
:100C900083E28C9FF0018D9FF00D1124EE5CFC4FE0
:100CA000178F068F648175816115710571F583E277
:100CB0008C9FF0018D9FF00D1124EE5CFC4F118292
:100CC0001082138212828091B00082608093B00003
:100CD00083E78093B30080917000826080937000FE
:100CE0001092B2008091B10085608093B100DF91D5
:100CF000CF911F910F91FF90EF90DF90CF90BF9019
:100D0000AF909F907F906F900895892D0E94E5028B
:100D1000CECF892D0E94E50292CF892D0E94E50257
:100D2000A0CFAF92BF92CF92DF92EF92FF920F933C
:100D30001F93CF93DF93F894C2E3D3E0B8E1AB2ED7
:100D4000B0E0BB2E18E1C12E13E0D12EE12CF12C26
:100D500000E010E0B801645A7F4F42E050E0CE015D
:100D600004960E94E42DB701645B7F4F44E050E09D
:100D7000CE010D960E94E42DB701645C7F4F44E0E4
:100D800050E0CE0141960E94E42DB701645D7F4F93
:100D900044E050E0CE0145960E94E42DB701645E28
:100DA0007F4F44E050E0CE014A960E94E42D41E09E
:100DB00050E0B501CE0149960E94E42DB801605F74
:100DC0007F4F42E050E0CE014E960E94E42DB801E4
:100DD000685F7F4F42E050E0C6010E94E42DB801F9
:100DE0006050704042E050E0C60102960E94E42D3F
:100DF000A3960E5F1F4F84E0E80EF11C8FEFA81A38
:100E0000B80A85E0C80ED11C0830110509F0A2CF40
:100E10007894DF91CF911F910F91FF90EF90DF9029
:100E2000CF90BF90AF9008959F92AF92BF92CF9214
:100E3000DF92EF92FF920F931F93CF93DF93F8947B
:100E4000C2E3D3E098E1A92E93E0B92EE12CF12C76
:100E500000E010E0C12CD12C9924939442E050E0A2
:100E6000B801645A7F4FCE0104960E94D42D44E00D
:100E700050E0B701645B7F4FCE010D960E94D42DE8
:100E800044E050E0B701645C7F4FCE0141960E9480
:100E9000D42D44E050E0B701645D7F4FCE0145960C
:100EA0000E94D42D44E050E0B701645E7F4FCE0134
:100EB0004A960E94D42D41E050E0B601685E7F4F13
:100EC000CE0149960E94D42D42E050E0B801605F07
:100ED0007F4FCE014E960E94D42D42E050E0B801E3
:100EE000685F7F4FC5010E94D42D42E050E0B801F9
:100EF00060507040C50102960E94D42DF601EE0F9D
:100F0000FF1FEE0FFF1FEC0DFD1DE85EFC4F208163
:100F10003181828193812817390709F094828FEFFC
:100F2000C81AD80AA3960E5F1F4F84E0E80EF11C82
:100F300085E0A80EB11C84E0C816D10409F08ECF5C
:100F40007894DF91CF911F910F91FF90EF90DF90F8
:100F5000CF90BF90AF909F900895CF93C82F5A9A8B
:100F60000E94D7028C2F8295807F0E94D70285EE47
:100F700090E00197F1F700C00000CF910895CF9362
:100F8000C82F5A980E94D7028C2F8295807F0E948A
:100F9000D70281ED90E00197F1F700C00000CF91FA
:100FA00008958AB18C6F8AB98BB183708BB92FE5A4
:100FB0008AEE90E0215080409040E1F700C00000B0
:100FC00080E30E94D70287EA91E60197F1F700C01B
:100FD00000005B9A95E89A95F1F700005B9887E826
:100FE00093E10197F1F700C000005B9A95E89A95AC
:100FF000F1F700005B9887E893E10197F1F700C0F3
:10100000000080E20E94D70287EA91E60197F1F79B
:1010100000C0000088E20E94BF078CE00E94BF076A
:1010200086E00E94BF0781E00E94BF078FE097E241
:101030000197F1F700C00000089581E00E94BF070A
:101040008FE097E20197F1F700C00000089582E079
:101050000E94BF078FE097E20197F1F700C0000000
:101060000895623081F050F0633029F0643071F4FB
:1010700080530C94BF0780570C94BF07613039F43C
:1010800080580C94BF0780540C94BF0708950895AE
:10109000CF93DF93EC018881882331F021960E9461
:1010A000AD0789918111FBCFDF91CF910895EF9228
:1010B000FF921F93CF93DF9300D0CDB7DEB728E028
:1010C000829FC0011124806469837A830E94BF07D4
:1010D0006981E62E7A81F72E18E0F70181917F0170
:1010E0000E94AD071150C9F70F900F90DF91CF917B
:1010F0001F91FF90EF9008954F925F926F927F92B1
:101100008F929F92AF92BF92CF92DF92EF92FF9217
:101110000F931F93CF93DF9300D000D0CDB7DEB7EE
:10112000F82ECB01BA01A90198010E94B8284B0101
:101130005C0183E2F89E800111240E5C1C4FD801F3
:1011400051966D917D918D919C9154971D962D9105
:101150003D914D915C9150975596CD90DD90ED90DD
:10116000FC9058970E94B828A70196010E94B828C1
:1011700020E030E044EB53E40E9469279B01AC017E
:10118000C501B4010E94B8280E941B296B017C0193
:10119000F801628073800E94D127660D771DD80107
:1011A00013967C936E93129716968D919D910D9048
:1011B000BC91A02D89839A83AB83BC83F80161899C
:1011C0007289838994892585368547855089458824
:1011D00056886788708C0E94B828A30192010E94EB
:1011E000B82820E030E044EB53E40E9469279B01DB
:1011F000AC01C501B4010E94B828A70196010E9464
:1012000000279B01AC0169817A818B819C810E94BE
:101210000127D80116966D937D938D939C93199712
:101220000F900F900F900F90DF91CF911F910F9122
:10123000FF90EF90DF90CF90BF90AF909F908F90F6
:101240007F906F905F904F9008954F925F926F9252
:101250007F928F929F92AF92BF92CF92DF92EF9246
:10126000FF92CF93DF9300D000D0CDB7DEB793E2EB
:10127000899FF0011124EE5CFC4F458456846784FD
:101280007088258936894789508D81889288A388FE
:10129000B488882777FD8095982F29833A834B83DC
:1012A0005C830E9404286B017C0129813A814B8177
:1012B0005C81C301B2010E94B828A50194010E947B
:1012C000B8289B01AC0160E070E084EB93E40E94DD
:1012D00069279B01AC01C701B6010E94B8280F9095
:1012E0000F900F900F90DF91CF91FF90EF90DF90D4
:1012F000CF90BF90AF909F908F907F906F905F90B6
:101300004F9008954F925F926F927F928F929F922B
:10131000AF92BF92CF92DF92EF92FF920F931F9303
:10132000CF93DF9300D000D0CDB7DEB7F82ECB013E
:10133000BA01A90198010E94B8284B015C0183E21F
:10134000F89E800111240E5C1C4FD80151966D91BE
:101350007D918D919C9154971D962D913D914D912C
:101360005C9150975596CD90DD90ED90FC905897FC
:101370000E94B828A70196010E94B82820E030E01A
:1013800040E05FE30E94B8289B01AC01C501B401B5
:101390000E94B8280E941B296B017C01F801628021
:1013A00073800E94D127660D771DD80113967C9318
:1013B0006E93129716968D919D910D90BC91A02DD4
:1013C00089839A83AB83BC83F8016189728983899D
:1013D000948925853685478550894588568867884C
:1013E000708C0E94B828A30192010E94B82820E0C6
:1013F00030E040E05FE30E94B8289B01AC01C501EA
:10140000B4010E94B828A70196010E9400279B0101
:10141000AC0169817A818B819C810E940127D8016E
:1014200016966D937D938D939C9319970F900F90C3
:101430000F900F90DF91CF911F910F91FF90EF9040
:10144000DF90CF90BF90AF909F908F907F906F90E4
:101450005F904F9008954F925F926F927F928F921C
:101460009F92AF92BF92CF92DF92EF92FF92CF9373
:10147000DF9300D000D0CDB7DEB793E2899FF001B3
:101480001124EE5CFC4F458456846784708825895E
:1014900036894789508D81889288A388B4888827A7
:1014A00077FD8095982F29833A834B835C830E9434
:1014B00004286B017C0129813A814B815C81C30145
:1014C000B2010E94B828A50194010E94B8289B018E
:1014D000AC0160E070E080E090E40E9469279B012D
:1014E000AC01C701B6010E94B8280F900F900F9071
:1014F0000F90DF91CF91FF90EF90DF90CF90BF9052
:10150000AF909F908F907F906F905F904F900895D5
:10151000F894613011F1A0F0623081F493E2899F78
:10152000F0011124EE5CFC4F6487808191819383EC
:101530008283828193810197938382837894089533
:1015400093E2899FF0011124EE5CFC4F14868081A8
:101550009181938382837894089593E2899FF00127
:101560001124EE5CFC4F6487808191819383828398
:1015700082819381019693838283E0CFE82FF0E00C
:10158000EE0FFF1FE252FF4F85919491FC01659190
:10159000749180913003909131030E94C12C68E0D6
:1015A00071E080913003909131030E94D32C90938D
:1015B000310380933003E0918C02F0918D02BC01E5
:1015C000808191810E94E12C66E071E080E090E0F2
:1015D0000E94D32C9093310380933003E0918C02CE
:1015E000F0918D02BC01828193810E94E12C80E008
:1015F00090E030E2E0918C02F0918D02E80FF91F4B
:10160000A081B181FD0101900020E9F731972E2FD3
:101610002A1B203178F4E0918C02F0918D02E80FC2
:10162000F91F0190F081E02DE20FF11D30832F5F53
:10163000203189F7E0918C02F0918D02E80FF91FBB
:101640000190F081E02D108A02968430910591F688
:1016500008952F923F924F925F926F927F928F9256
:101660009F92AF92BF92CF92DF92EF92FF920F9331
:101670001F93CF93DF93CDB7DEB727970FB6F894BC
:10168000DEBF0FBECDBFE82FF0E0EE0FFF1FE2522E
:10169000FF4F859194910296FC01849190E08C30EB
:1016A0009105C8F5FC01E85CFF4F0C94FA26E09127
:1016B0008802F0918902A081B18189E0E7EAF1E036
:1016C00001900D928A95E1F7E0918802F0918902EC
:1016D000A281B38189E0E0EBF1E001900D928A955F
:1016E000E1F7E0918802F0918902A481B58189E057
:1016F000E5E9F1E001900D928A95E1F7E091880229
:10170000F0918902A681B78189E0EEE9F1E00190CC
:101710000D928A95E1F780E090E030E2E091880256
:10172000F0918902E80FF91FA081B181FD010190BC
:101730000020E9F731972E2F2A1B283078F4E0910A
:101740008802F0918902E80FF91F0190F081E02DE5
:10175000E20FF11D30832F5F283089F7E091880276
:10176000F0918902E80FF91F0190F081E02D1086B9
:1017700002968830910591F627960FB6F894DEBF51
:101780000FBECDBFDF91CF911F910F91FF90EF90D2
:10179000DF90CF90BF90AF909F908F907F906F9091
:1017A0005F904F903F902F900895A12CB12C412C29
:1017B000512C43E2842E55ECC52E51E0D52E60EC21
:1017C000E62E61E0F62E09EB11E079E0972E380164
:1017D0008091850290E0042C02C0959587950A942B
:1017E000E2F780FF9EC21EE7F201EE0FFF1FEE0F31
:1017F000FF1FE40DF51DE85EFC4F84818111CDC211
:10180000849CF001859CF00D1124EE5CFC4F82A1BC
:10181000882309F474C3849CF001859CF00D112485
:10182000EE5CFC4F82A1813009F4C9C3849CF001B5
:10183000859CF00D1124EE5CFC4F82A1823009F4EE
:10184000A7C3AFEF4A1A5A0AB2E0AB0EB11CE4E0EC
:101850004E16510409F0BCCF5ECFE0918802F091A2
:101860008902A081B18189E0EBECF1E001900D9259
:101870008A95E1F7E0918802F0918902A281B38113
:1018800089E0E4EDF1E001900D928A95E1F7209175
:101890008302E0918802F0918902822F992787FDC7
:1018A00090959F932F938DED91E09F938F938581DA
:1018B0008F9384818F930E94542DE0918802F09140
:1018C0008902A681B78189E0E5EEF1E001900D92F1
:1018D0008A95E1F70F900F900F900F900F900F9057
:1018E0001ACFE0918802F0918902A081B18189E04C
:1018F000EAE0F1E001900D928A95E1F7E09188022B
:10190000F0918902A281B38189E0E3E1F1E00190E5
:101910000D928A95E1F7E0918802F0918902A48105
:10192000B58188E0ECE1F1E001900D928A95E1F754
:10193000E0918802F0918902A681B78185E0E4E216
:10194000F1E001900D928A95E1F7E5CE00E010E01C
:10195000212C312C8091850290E0022C02C09595BB
:1019600087950A94E2F780FFD9C1809182028111A4
:1019700024C2FEE7FF8393E2929DF001939DF00D58
:101980001124EE5CFC4F818D813009F419C2823044
:1019900009F46EC281111CC080819181E09188029E
:1019A000F09189029F938F931F92AF81AF93A9E229
:1019B000B1E0BF93AF93E00FF11F81818F938081DE
:1019C0008F930E94542D0FB6F894DEBF0FBECDBF8B
:1019D0009FEF291A390A0E5F1F4FA4E02A1631041F
:1019E00009F0B8CF98CE812C912C412C512C13E2C8
:1019F000712E02E4E02E01E0F02E07E411E08CE409
:101A0000A82E81E0B82E93E5C92E91E0D92E8091C1
:101A1000850290E0042C02C0959587950A94E2F720
:101A200080FF9FC12EE7749CF001759CF00D11247E
:101A3000EE5CFC4F818D882309F495C1749CF00104
:101A4000759CF00D1124EE5CFC4F818D813009F402
:101A50006DC2749CF001759CF00D1124EE5CFC4F7E
:101A6000818D823009F47CC2BFEF4B1A5B0AE2E041
:101A70008E0E911CF4E04F16510449F64CCEC12C49
:101A8000D12CB3E2FB2E0AE511E08091850290E0B3
:101A90000C2C02C0959587950A94E2F780FF45C10A
:101AA0002EE7FC9CF001FD9CF00D1124EE5CFC4F38
:101AB000868D978DE0918802F09189029F938F9394
:101AC0001F922F931F930F93C601880F991FE80F42
:101AD000F91F81818F9380818F930E94542D2FEF66
:101AE000C21AD20A0FB6F894DEBF0FBECDBF94E083
:101AF000C916D10451F60FCEC12CD12C33E2F32EEE
:101B00000CE711E08091850290E00C2C02C09595C5
:101B100087950A94E2F780FF22C12EE7FC9CF00132
:101B2000FD9CF00D1124EE5CFC4F85899689A789F8
:101B3000B08DE0918802F0918902BF93AF939F939B
:101B40008F931F922F931F930F93C601880F991F96
:101B5000E80FF91F81818F9380818F930E94542D0C
:101B6000BFEFCB1ADB0A0FB6F894DEBF0FBECDBFB6
:101B7000F4E0CF16D10431F6CECDC12CD12CE3E266
:101B8000FE2E02E611E08091850290E00C2C02C04E
:101B9000959587950A94E2F780FFC9C02EE7FC9CD3
:101BA000F001FD9CF00D1124EE5CFC4F828D938DB5
:101BB000A48DB58DE0918802F0918902BF93AF9317
:101BC0009F938F931F922F931F930F93C601880F9C
:101BD000991FE80FF91F81818F9380818F930E9455
:101BE000542DAFEFCA1ADA0A0FB6F894DEBF0FBE53
:101BF000CDBFF4E0CF16D10431F68DCD00E010E07A
:101C0000A12CB12C53E7E52E51E0F52E69E0D62E3C
:101C10008091850290E00A2C02C0959587950A94E0
:101C2000E2F780FF9AC09EE7F501EE0FFF1FEE0F6F
:101C3000FF1FEA0DFB1DE85EFC4F8481E0918802E6
:101C4000F0918902882309F474C0E00FF11FA0818C
:101C5000B181EAE6F1E08D2D01900D928A95E1F7D0
:101C60009FEFA91AB90A0E5F1F4FA4E0AA16B1048C
:101C700079F651CDE0918802F0918902A081B1817D
:101C800089E0E3E8F1E001900D928A95E1F7E091B7
:101C90008802F0918902A281B38189E0ECE8F1E049
:101CA0001CCDC12CD12CB3E2FB2E09E211E08091B6
:101CB000850290E00C2C02C0959587950A94E2F776
:101CC00080FF31C02EE7FC9CF001FD9CF00D11243B
:101CD000EE5CFC4F84819581E0918802F09189024D
:101CE0009F938F931F922F931F930F93C601880F7B
:101CF000991FE80FF91F81818F9380818F930E9434
:101D0000542D2FEFC21AD20A0FB6F894DEBF0FBEC1
:101D1000CDBF94E0C916D10451F6FDCC20E22F834B
:101D20002ACE10E261CD20E2CECF20E2BACE20E270
:101D300036CFBF92AF921F929F93FF92EF92E00F28
:101D4000F11F81818F9380818F930E94542D0FB654
:101D5000F894DEBF0FBECDBF83CF90E265CF20E207
:101D6000DDCE20E260CEE0918802F0918902FF9200
:101D7000EF921F922F931F930F93E80DF91D81810E
:101D80008F9380818F932E830E94542D0FB6F894E9
:101D9000DEBF0FBECDBF2E8151CEE0918802F09103
:101DA0008902EA0DFB1DA081B181EAE6F1E0892DEF
:101DB00001900D928A95E1F744CD8EE38F83DBCDC0
:101DC000608171814584568467847088258936894D
:101DD0004789508D81889288A388B488A091880211
:101DE000B0918902BA83A9831F92BFEDBF93882760
:101DF00077FD8095982F2E833B834C835D830E94D3
:101E000004286B017C012E813B814C815D81C301E3
:101E1000B2010E94B828A50194010E94B8289B0134
:101E2000AC0160E070E084EB93E40E9469279B01C1
:101E3000AC01C701B6010E94B8289F938F937F938E
:101E40006F931F92EF81EF93A0E3B1E0BF93AF9345
:101E5000E981FA81E00FF11F81818F9380818F9357
:101E60000E94542D0FB6F894DEBF0FBECDBFB0CD8B
:101E7000608171814584568467847088258936899C
:101E80004789508D81889288A388B488A091880260
:101E9000B0918902BA83A9831F92B7EFBF938827B5
:101EA00077FD8095982F2E833B834C835D830E9422
:101EB00004286B017C012E813B814C815D81C30133
:101EC000B2010E94B828A50194010E94B8289B0184
:101ED000AC0160E070E080E090E40E9469279B0123
:101EE000AC01C701B6010E94B8289F938F937F93DE
:101EF0006F931F92EF81EF93A9E3B1E0A7CFE09139
:101F00008802F09189021F921F937F926F92EA0DCF
:101F1000FB1D81818F9380818F930E94542D0F90A0
:101F20000F900F900F900F900F9075CCE09188025A
:101F3000F0918902BF92AF921F922F931F930F933C
:101F4000E80DF91D81818F9380818F932E830E94EC
:101F5000542D0FB6F894DEBF0FBECDBF2E8179CDC4
:101F6000E0918802F0918902DF92CF921F922F9325
:101F70001F930F93E80DF91D81818F9380818F93BB
:101F80000E94542D0FB6F894DEBF0FBECDBF6CCDAE
:101F9000E0918802F09189021F921F93DF92CF9205
:101FA000EA0DFB1D81818F9380818F930E94542DB8
:101FB0000F900F900F900F900F900F9042CCE091E8
:101FC0008802F09189021F921F93FF92EF92EA0D0F
:101FD000FB1D81818F9380818F930E94542D0F90E0
:101FE0000F900F900F900F900F9020CCCF93DF9316
:101FF00080918402823009F482C0833049F08130BC
:1020000039F08091810280938402DF91CF9108950D
:10201000809180020E94290BA0918802B0918902D0
:10202000E0918602F09187026D917C91808191818F
:102030000E94D82C892B09F016C1A0918802B0917A
:102040008902E0918602F091870212966D917C914F
:102050001397828193810E94D82C892B09F0E0C0CC
:10206000A0918802B0918902E0918602F0918702E6
:1020700014966D917C911597848195810E94D82C3E
:10208000892B09F0AAC0A0918802B0918902E09141
:102090008602F091870216966D917C911797868142
:1020A00097810E94D82C892B09F4ABCF88EC0E9431
:1020B000BF07E0918802F0918902C681D7818881AB
:1020C000882331F021960E94AD0789918111FBCFC1
:1020D000A0918802B0918902E0918602F091870276
:1020E00016966D917C911797868197810E94E12CBD
:1020F0008091810280938402DF91CF910895909125
:10210000800280917F02981709F47BCF80917F0233
:102110000E94BE0A80E80E94BF07E0918C02F09105
:102120008D02C081D1818881882331F021960E945F
:10213000AD0789918111FBCFA0918C02B0918D02E6
:10214000E0918A02F0918B026D917C918081918166
:102150000E94E12C80EC0E94BF07E0918C02F0917C
:102160008D02C281D3818881882331F021960E941B
:10217000AD0789918111FBCFA0918C02B0918D02A6
:10218000E0918A02F0918B0212966D917C911397E7
:10219000828193810E94E12C80917F028093800252
:1021A00080E090E028E0E0918602F0918702E80F5D
:1021B000F91FA081B181EEEEF1E0322F01900D9276
:1021C0003A95E1F702968A30910569F7809181028C
:1021D00080938402DF91CF91089580EC0E94BF0725
:1021E000E0918802F0918902C481D5818881882399
:1021F00031F021960E94AD0789918111FBCFA0910A
:102200008802B0918902E0918602F09187021496CB
:102210006D917C911597848195810E94E12C33CF3B
:1022200088E80E94BF07E0918802F0918902C2818C
:10223000D3818881882331F021960E94AD0789914E
:102240008111FBCFA0918802B0918902E0918602B2
:10225000F091870212966D917C9113978281938100
:102260000E94E12CFDCE80E80E94BF07E091880229
:10227000F0918902C081D1818881882331F0219633
:102280000E94AD0789918111FBCFA0918802B09186
:102290008902E0918602F09187026D917C918081A4
:1022A00091810E94E12CC9CE2F923F924F925F9272
:1022B0006F927F928F929F92AF92BF92CF92DF9256
:1022C000EF92FF920F931F93CF93DF9380917E0243
:1022D000811104C080911703882379F02091800236
:1022E000C0918402C23009F445C0DC2FDD7FD130BB
:1022F000B9F010927E0210921703DF91CF911F91D7
:102300000F91FF90EF90DF90CF90BF90AF909F9094
:102310008F907F906F905F904F903F902F90089597
:1023200080917E02811164C0C33019F7F8948091C6
:102330001703882309F489C0D0901603109216035E
:102340007894DD20B1F2E0918002F0E0EE0FFF1F03
:10235000E252FF4F859194910296FC01849190E0A6
:10236000FC013197EB30F10508F0C3CFEC5BFF4F78
:102370000C94FA26F89480911703882309F462C01C
:102380008091160310921603992787FD90957894F3
:10239000820F911D27FD9A956CE070E00E94AF2698
:1023A00087FD24C080937F0280917E02811112C03C
:1023B00080917E02882309F49CCF0E944103811101
:1023C00098CF80918502882309F493CF83E080938E
:1023D00081028FCF0E9441038111EACF8091850253
:1023E0008111E6CF81E080938102E2CF8BE0DACFEA
:1023F0000E9441038430E1F008F4EEC1863071F0B0
:1024000008F4E0C1873009F08FCF809185028D27D5
:102410008093850283E08093810286CF809185023C
:1024200092E089278093850283E0809381027CCFAC
:102430008091850298E089278093850283E08093CC
:10244000810272CF80E090E0A2CFD12C79CF0E94A0
:10245000910682E080938102809180028F5F809359
:10246000800247CFC0E0D0E001E010E0809185021B
:1024700090E00C2E02C0959587950A94E2F780FDB6
:10248000C1C12196C430D10589F7E3CFC0E0D0E0C7
:1024900073E2772E8D2C992487FC9094A92CB92C6B
:1024A0008091850290E00C2E02C0959587950A9444
:1024B000E2F780FF21C07C9E80017D9E100D1124DB
:1024C0000E5C1C4FF801C28CD38CE48CF58CC501DA
:1024D000B4010E94042820E030E040E251E40E9470
:1024E00069279B01AC01C701B6010E940127F801D1
:1024F000628F738F848F958F2196C430D10581F6BA
:10250000F8CEE12CF12C13E28091850290E00E2CA4
:1025100002C0959587950A94E2F780FF44C01E9DFE
:10252000E0011F9DD00D1124CE5CDC4F6D897E89AA
:102530008F89988D1D140CF0CDC19B01AC010E94B8
:1025400001276D8B7E8B8F8B988F1E9DE0011F9DC9
:10255000D00D1124CE5CDC4F6D897E898F89988DDA
:1025600020E030E040E85FE30E94652787FDA9C1D5
:102570001E9DE0011F9DD00D1124CE5CDC4F6D89A6
:102580007E898F89988D20E030E040E051E40E9400
:10259000B428181644F480E090E0A0E0B1E48D8BFC
:1025A0009E8BAF8BB88F5FEFE51AF50A84E0E816D3
:1025B000F10409F0A9CF9DCE64E6D69E602D1124CA
:1025C000772767FD709580E090E0A3E24D2D5527B9
:1025D00047FD50952091850230E0082E02C03595C8
:1025E00027950A94E2F720FF16C020918202A89F47
:1025F000F001A99FF00D1124EE5CFC4F222309F499
:1026000055C120813181260F371F338322832281D8
:10261000338135832483019684309105D9F669CEC0
:102620000E94140716CF80E090E0A3E24D2D5527BD
:1026300047FD509561E070E02091850230E0082E62
:1026400002C0359527950A94E2F720FF13C0A89F92
:10265000F001A99FF00D1124EE5CFC4F268D378D03
:10266000240F351F378F268F268D378D232B11F49E
:10267000778F668F019684309105F1F63ACE80E02F
:1026800090E043E252E02091850230E0082E02C043
:10269000359527950A94E2F720FF18C0489FF0016E
:1026A000499FF00D1124EE5CFC4F218D2D0D218FE3
:1026B000218D27FD1AC1489FF001499FF00D11247B
:1026C000EE5CFC4F218D23300CF0118E019684308E
:1026D0009105C9F60ECE2D2C332427FC3094FD2D08
:1026E00024E6F20270011124C0E0D0E0E3E2CE2E35
:1026F0004D2C552447FC5094652C752C80918502F7
:1027000090E00C2E02C0959587950A94E2F780FF21
:1027100011C0CC9EF001CD9EF00D1124EE5CFC4F5B
:10272000818D813009F439C1823009F420C18823B8
:1027300009F411C12196C430D10501F7DACDC0E00A
:10274000D0E013E202E08C2F2091850230E00C2EC5
:1027500002C0359527950A94E2F720FF2EC0FE01AE
:10276000EE0FFF1FEE0FFF1FEC0FFD1FE85EFC4F8B
:1027700094819111BECD1C9FF0011D9FF00D11247D
:10278000EE5CFC4F92A19D0D92A392A197FDE1C03A
:102790001C9FF0011D9FF00D1124EE5CFC4F92A1D7
:1027A00093300CF012A21C9FF0011D9FF00D11241C
:1027B000EE5CFC4F62A10E94880A2196C430D105CC
:1027C00011F697CD8091850294E089278093850248
:1027D00083E080938102A8CD882371F0833009F0D3
:1027E000A3CD82E080938102809180028F5F8093ED
:1027F00080021092820298CD809182028D27809370
:10280000820292CD8C2F0E94A30520918502C801DF
:102810000C2E01C0880F0A94EAF72827209385021E
:102820000E94F60F2ECE1D140CF0D1C080918302B1
:102830008F5F8093830280918302803114F0109225
:102840008302E091830228E0E202F0011124EE56B7
:10285000FD4F8081882351F3E091830238E0E30249
:10286000F0011124EE56FD4F8781811140C080E0B8
:1028700090E043E220918302FC0134E02302E00D6A
:10288000F11D1124EE0FFF1FEE56FD4F2181328105
:10289000489FF001499FF00D1124EE5CFC4F3383FB
:1028A000228301968430910529F723CD208131813F
:1028B000240F351F33832283228133813583248380
:1028C000AACE80E090E0A0E8BFE38D8B9E8BAF8B1B
:1028D000B88F4ECE20E030E040E05FE30E94B828A1
:1028E0006D8B7E8B8F8B988F30CE518FE4CEE091A5
:1028F000830258E0E502F0011124EE56FD4F878176
:10290000813009F0F6CC80E090E063E2689FD0016E
:10291000699FB00D1124AE5CBC4F2D913C91119775
:1029200040918302FC0154E04502E00DF11D1124A9
:10293000EE0FFF1FEE56FD4F41815281240F351FD0
:1029400013963C932E931297019684309105F1F6DD
:10295000D0CC02A31DCF80918202882309F450C0FD
:10296000828193818E0D9F1D93838283E3CE828C1F
:10297000938CA48CB58CC301B2010E94042820E082
:1029800030E040E05EE30E94B828AB01BC01950155
:1029900084018C2F0E948209CDCE80918202828C8C
:1029A000938CA48CB58C882391F1C301B2010E9451
:1029B000042820E030E040E251E40E94B828AB0156
:1029C000BC01950184018C2F0E947C08B3CE9FE04E
:1029D0000BC0E091830258E0E502F0011124EE56AD
:1029E000FD4F8081811138CF809183028150809387
:1029F00083028091830287FFECCF90938302E9CF1B
:102A000082819381820D931D9383828393CEC30130
:102A1000B2010E940428AB01BC01950184018C2FF6
:102A20000E947C0887CE14B88FEF85B984B5826088
:102A300084BD88EC87BDEEE6F0E080818260808313
:102A400016BC85B5856085BD089580917E02811193
:102A500002C08AE208950C944103F8948091170310
:102A6000882331F08091160310921603789408950C
:102A700080E078940895CF93DF93F894CEE8D2E085
:102A8000E881F981A091BE03B091BF0380E4019079
:102A90000D928A95E1F781E08093C003E881F98186
:102AA00080E4DF011D928A95E9F71092910210925D
:102AB00090027894DF91CF910895AF92BF92CF9218
:102AC000DF92EF92FF920F931F93CF93DF93F894CF
:102AD0008091C003882309F467C08091BE03909160
:102AE000BF0366EF71E00E94D32C6C01E091760287
:102AF000F091770200811181C0E3D2E0B12C80E82F
:102B0000A82EFE01E590F490F70165917491C8013B
:102B10000E94C12CA0917602B09177020D911C9178
:102B2000B801C6010E94D82C892B31F4F7013396E5
:102B3000A490F7013296B490229682E0CA36D80764
:102B400001F7BB20C9F0C1E066EF71E080E090E0E2
:102B50000E94D32C2C2F30E0220F331FE0917602FD
:102B6000F0917702E20FF31FBC01808191810E94F6
:102B7000E12CCF5FBC1640F7E091BE03F091BF039C
:102B800080E4DF011D928A95E9F71092C0037894E2
:102B90008A2DDF91CF911F910F91FF90EF90DF90E1
:102BA000CF90BF90AF900895B0E8AB2EF0CF3F929A
:102BB0004F925F926F927F928F929F92AF92BF924D
:102BC000CF92DF92EF92FF920F931F93CF93DF93F9
:102BD00000D000D0CDB7DEB78B017A014AE050E0DB
:102BE00060E070E00E948B2A362E83E0831508F4A3
:102BF00082C06BEF71E0C7010E94D82C892B09F4C9
:102C000090C061E072E0C7010E94D82C892B09F1C5
:102C100065E072E0C7010E94D82C892B09F495C0A9
:102C200088E092E00F900F900F900F90DF91CF917E
:102C30001F910F91FF90EF90DF90CF90BF90AF90DA
:102C40009F908F907F906F905F904F903F900C94EB
:102C5000C30483E2389EF0011124EE5CFC4F6081D6
:102C600071814584568467847088258936894789AF
:102C7000508D81889288A388B488882777FD8095B5
:102C8000982F29833A834B835C830E9404286B012D
:102C90007C0129813A814B815C81C301B2010E9490
:102CA000B828A50194010E94B8289B01AC0160E0FE
:102CB00070E084EB93E40E9469279B01AC01C7019B
:102CC000B6010E94B8289B01AC01C80129833A8350
:102CD0004B835C830E94BF2B29813A814B815C81AD
:102CE0000E940027AB01BC0100E010E020E83FE3B8
:102CF000832D0E947C080F900F900F900F90DF9112
:102D0000CF911F910F91FF90EF90DF90CF90BF90E8
:102D1000AF909F908F907F906F905F904F903F907B
:102D20000895E32CF12C4AE050E060E070E0C80127
:102D30000E948B2A23E22E9DF0012F9DF00D11247D
:102D4000EE5CFC4F73836283D6CF83E2389EF00142
:102D50001124EE5CFC4F6081718145845684678448
:102D60007088258936894789508D81889288A38803
:102D7000B488882777FD8095982F29833A834B83E1
:102D80005C830E9404286B017C0129813A814B817C
:102D90005C81C301B2010E94B828A50194010E9480
:102DA000B8289B01AC0160E070E080E090E40E94F4
:102DB00069279B01AC01C701B6010E94B8289B019D
:102DC000AC01C80129833A834B835C830E94BF2BEB
:102DD00029813A814B815C810E940027AB01BC01B3
:102DE00000E010E020E83FE3832D0E94820983CFBA
:102DF000AF92BF92DF92EF92FF920F931F93CF9308
:102E0000DF937B01EA014AE050E060E070E00E945D
:102E10008B2AD62E83E08D15A8F06BEF71E0CE01E2
:102E20000E94D82C892BC9F161E072E0CE010E948A
:102E3000D82C892BF1F065E072E0CE010E94D82CED
:102E4000892B51F0DF91CF911F910F91FF90EF905F
:102E5000DF90BF90AF900895C7010E94BF2BAB01D8
:102E6000BC0100E010E020E83FE38D2D0E948209C4
:102E7000E9CFC7010E94BF2BAB01BC0100E010E00D
:102E800020E83FE38D2D0E947C0865E072E0CE01D2
:102E90000E94D82C892BB1F6DFCFE3E2DE9E8001C1
:102EA00011240E5C1C4FF801A280B3804AE050E070
:102EB00060E070E0C7010E948B2A6A0D7B1DF8015B
:102EC0007383628361E072E0CE010E94D82C892B6B
:102ED00009F0B1CFCECF1F93CF93DF93EB014AE040
:102EE00050E060E070E00E948B2A162F4AE050E02C
:102EF00060E070E0CE010E948B2A143080F46111F2
:102F000007C060E0812FDF91CF911F910C94E30403
:102F100061E0812FDF91CF911F910C94E304DF9149
:102F2000CF911F9108954F925F926F927F928F92EF
:102F30009F92AF92BF92CF92DF92EF92FF920F9348
:102F40001F93CF93DF9300D000D0CDB7DEB77B01C6
:102F50004AE050E060E070E00E948B2A162F643057
:102F600008F080C06BEF71E0C7010E94D82C892B5C
:102F700009F4C9C061E072E0C7010E94D82C892B16
:102F800009F485C065E072E0C7010E94D82C892B46
:102F900009F482C083E2189FF0011124EE5CFC4F1B
:102FA000608171814584568467847088258936895B
:102FB0004789508D81889288A388B48800912C031A
:102FC00010912D03882777FD8095982F29833A83C8
:102FD0004B835C830E9404286B017C0129813A8128
:102FE0004B815C81C301B2010E94B828A501940104
:102FF0000E94B8289B01AC0160E070E084EB93E490
:103000000E9469279B01AC01C701B6010E94B82844
:103010009F938F937F936F938BE292E09F938F9315
:103020001F930F930E94542D0FB6F894DEBF0FBE6E
:10303000CDBF80912C0390912D030F900F900F9096
:103040000F90DF91CF911F910F91FF90EF90DF9044
:10305000CF90BF90AF909F908F907F906F905F9038
:103060004F90089580912C0390912D031F921F93F0
:1030700024E132E03F932F939F938F930E94542D2E
:103080000F900F900F900F900F900F90D2CF93E270
:10309000199FF001112482CF83E2189FF0011124BF
:1030A000EE5CFC4F60817181458456846784708832
:1030B000258936894789508D81889288A388B4886C
:1030C00000912C0310912D03882777FD8095982F70
:1030D00029833A834B835C830E9404286B017C0123
:1030E00029813A814B815C81C301B2010E94B828D9
:1030F000A50194010E94B8289B01AC0160E070E03A
:1031000080E090E47DCF83E2189FF0011124EE5C13
:10311000FC4F2081318180912C0390912D033F93AE
:103120002F9328E232E0A6CF4AE050E060E070E062
:103130000E948B2A643018F583E2689FF001112405
:10314000EE5CFC4F2281338180819181E0912C03E0
:10315000F0912D032817390749F081E390E091831E
:10316000808380912C0390912D03089580E390E05B
:103170009183808380912C0390912D0308958091F9
:103180002C0390912D031F926F9324E132E03F9323
:103190002F939F938F930E94542D0F900F900F9019
:1031A0000F900F900F9080912C0390912D03089514
:1031B0004AE050E060E070E00E948B2A6430E0F466
:1031C000862F0E946A0520912C0330912D039F9336
:1031D0008F9388E292E09F938F933F932F930E9467
:1031E000542D0F900F900F900F900F900F90809193
:1031F0002C0390912D03089520912C0330912D03E1
:103200001F926F9384E192E0E6CF4AE050E060E0E5
:1032100070E00E948B2A643008F583E2689FF00119
:103220001124EE5CFC4F2481358180912C03909118
:103230002D033F932F9328E232E03F932F939F93E8
:103240008F930E94542D0F900F900F900F900F901E
:103250000F9080912C0390912D03089580912C0361
:1032600090912D031F926F9324E132E0E6CF1F93DC
:10327000CF93DF93EB014AE050E060E070E00E9402
:103280008B2A162F643098F44AE050E060E070E03A
:10329000CE010E948B2A23E2129FF0011124EE5CE2
:1032A000FC4F75836483DF91CF911F9108958091C6
:1032B0002C0390912D031F921F9324E132E03F9342
:1032C0002F939F938F930E94542D80912C03909164
:1032D0002D030F900F900F900F900F900F90DF9194
:1032E000CF911F910C94C3044AE050E060E070E07D
:1032F0000E948B2A643038F583E2689FF001112424
:10330000EE5CFC4F85859685A785B08920912C03BE
:1033100030912D03BF93AF939F938F938BE292E0F5
:103320009F938F933F932F930E94542D8DB79EB7F9
:1033300008960FB6F8949EBF0FBE8DBF80912C03E8
:1033400090912D03089580912C0390912D031F924D
:103350006F9324E132E03F932F939F938F930E94CA
:10336000542D0F900F900F900F900F900F90809111
:103370002C0390912D0308951F93CF93DF93EB01BE
:103380004AE050E060E070E00E948B2A162F643023
:1033900088F4CE010E94BF2B23E2129FF00111247A
:1033A000EE5CFC4F658776878787908BDF91CF91A6
:1033B0001F91089580912C0390912D031F921F93CC
:1033C00024E132E03F932F939F938F930E94542DDB
:1033D00080912C0390912D030F900F900F900F90E0
:1033E0000F900F90DF91CF911F910C94C3044AE08E
:1033F00050E060E070E00E948B2A643038F583E290
:10340000689FF0011124EE5CFC4F81899289A389A9
:10341000B48920912C0330912D03BF93AF939F93D8
:103420008F938EE791E09F938F933F932F930E940A
:10343000542D8DB79EB708960FB6F8949EBF0FBE59
:103440008DBF80912C0390912D03089580912C03C2
:1034500090912D031F926F9324E132E03F932F93BD
:103460009F938F930E94542D0F900F900F900F9069
:103470000F900F9080912C0390912D0308951F932E
:10348000CF93DF93EB014AE050E060E070E00E94F0
:103490008B2A162F643088F4CE010E94BF2B23E2C2
:1034A000129FF0011124EE5CFC4F618B728B838BB9
:1034B000948BDF91CF911F91089580912C0390916F
:1034C0002D031F921F9324E132E03F932F939F938C
:1034D0008F930E94542D80912C0390912D030F9077
:1034E0000F900F900F900F900F90DF91CF911F9141
:1034F0000C94C3044AE050E060E070E00E948B2A24
:10350000643038F583E2689FF0011124EE5CFC4FD3
:1035100085899689A789B08D20912C0330912D0340
:10352000BF93AF939F938F938EE791E09F938F9379
:103530003F932F930E94542D8DB79EB708960FB6D8
:10354000F8949EBF0FBE8DBF80912C0390912D03E8
:10355000089580912C0390912D031F926F9324E185
:1035600032E03F932F939F938F930E94542D0F909F
:103570000F900F900F900F900F9080912C039091CF
:103580002D0308951F93CF93DF93EB014AE050E0A2
:1035900060E070E00E948B2A162F643088F4CE0120
:1035A0000E94BF2B23E2129FF0011124EE5CFC4F1E
:1035B000658B768B878B908FDF91CF911F910895CC
:1035C00080912C0390912D031F921F9324E132E0F0
:1035D0003F932F939F938F930E94542D80912C03A0
:1035E00090912D030F900F900F900F900F900F90D0
:1035F000DF91CF911F910C94C3044AE050E060E04A
:1036000070E00E948B2A643008F583E2689FF00125
:103610001124EE5CFC4F268D378D80912C03909108
:103620002D033F932F9328E232E03F932F939F93F4
:103630008F930E94542D0F900F900F900F900F902A
:103640000F9080912C0390912D03089580912C036D
:1036500090912D031F926F9324E132E0E6CF0F93F8
:103660001F93CF93DF931F92CDB7DEB78B014AE054
:1036700050E060E070E00E948B2A643098F4C8014A
:1036800069830E94C32B698123E2629FF0011124A8
:10369000EE5CFC4F978F868F0F90DF91CF911F913B
:1036A0000F910895A0912C03B0912D0383E1EEE2D8
:1036B000F2E001900D928A95E1F780912C039091B0
:1036C0002D030F90DF91CF911F910F910C94C304A4
:1036D0002F923F924F925F926F927F928F929F9222
:1036E000AF92BF92CF92DF92EF92FF920F931F9310
:1036F000CF93DF9300D000D0CDB7DEB78B017A0136
:103700004AE050E060E070E00E948B2A643008F0EC
:10371000B7C0262E312CF101EE0FFF1FEE0FFF1F59
:10372000E20DF31DE85EFC4F84818823B9F00F9011
:103730000F900F900F90DF91CF911F910F91FF90FD
:10374000EF90DF90CF90BF90AF909F908F907F9041
:103750006F905F904F903F902F900895C7010E9407
:10376000BF2B6B017C016BEB71E0C8010E94D82C70
:10377000892B09F4D7C083E2829D9001839D300D8F
:1037800011242E5C3C4FD9011D968D909D90AD90DB
:10379000BC90509751964D905D906D907C90549751
:1037A00055968D919D910D90BC91A02D89839A8302
:1037B000AB83BC83C701B6019F7720E030E04AE7C6
:1037C00054E40E94B8286B017C01A3019201C50159
:1037D000B4010E94B82829813A814B815C810E9402
:1037E000B8289B01AC01C701B6010E9469270E945D
:1037F0001B290E94D6276B017C01CB01009709F49D
:1038000078C06031B7E27B0708F061C068EC71E016
:10381000C8010E94D82C892BA9F483E2829DF00173
:10382000839DF00D1124EE5CFC4F81E08487D78EE0
:10383000C68E808191819383828382819381019658
:103840009383828367EC71E0C8010E94D82C892B96
:1038500009F06DCF83E2829DF001839DF00D11246C
:10386000EE5CFC4F82E08487D78EC68E808191818A
:10387000938382838281938101979383828357CF3D
:10388000A0912C03B0912D0383E1EEE2F2E00190D0
:103890000D928A95E1F780912C0390912D030F9062
:1038A0000F900F900F90DF91CF911F910F91FF908C
:1038B000EF90DF90CF90BF90AF909F908F907F90D0
:1038C0006F905F904F903F902F900C94C304A09105
:1038D0002C03B0912D0383E1E5E5F2E001900D9218
:1038E0008A95E1F780912C0390912D030E94C304E7
:1038F0008DCF80912C0390912D031F921F9221E474
:1039000032E03F932F939F938F930E94542D809189
:103910002C0390912D030F900F900F900F900F900C
:103920000F90BDCFF89483E2829DF001839DF00D4E
:103930001124EE5CFC4F148683E090E0978F868F15
:1039400080819181938382837894F1CEF8940E9450
:103950005E030E94910678940895EF92FF920F9370
:103960001F93CF93DF931F92CDB7DEB77B018A0100
:103970004AE050E060E070E00E948B2A643068F515
:10398000C70169830E94C32B7C01C8010E94C32B1D
:103990006981E816F906C9F18E159F05C4F470E037
:1039A000FB01EE0FFF1FEE0FFF1FE60FF71FE85E94
:1039B000FC4F91838083F382E28281E084830F90C5
:1039C000DF91CF911F910F91FF90EF900895382FC5
:1039D000292FC701E32EF22EE2CFA0912C03B09144
:1039E0002D0383E1EEE2F2E001900D928A95E1F77A
:1039F00080912C0390912D030F90DF91CF911F9117
:103A00000F91FF90EF900C94C30470E0FB01EE0F58
:103A1000FF1FEE0FFF1FE60FF71FE85EFC4F11823E
:103A200010821382128214820F90DF91CF911F9126
:103A30000F91FF90EF9008951F93CF93DF93EB01C9
:103A40004AE050E060E070E00E948B2A162F64305C
:103A5000B8F44AE050E060E070E0CE010E948B2AAA
:103A6000812F90E0FC01EE0FFF1FEE0FFF1FE80F0C
:103A7000F91FE85EFC4F6483DF91CF911F91089599
:103A8000A0912C03B0912D0383E1EEE2F2E00190CE
:103A90000D928A95E1F780912C0390912D03DF918F
:103AA000CF911F910C94C3046F927F928F929F923B
:103AB000AF92BF92CF92DF92EF92FF920F931F933C
:103AC000CF93DF936B01EA0159014AE050E060E0D7
:103AD00070E00E948B2A662E8FE08615E0F068E683
:103AE00072E0C7010E94D82C892B21F5E62DF0E069
:103AF000EE0FFF1FEE0FFF1FEE0FFF1FEE56FD4FE5
:103B0000108281E0878312821182148213821682CE
:103B1000158210861782DF91CF911F910F91FF9030
:103B2000EF90DF90CF90BF90AF909F908F907F905D
:103B30006F900895712C660C771C660C771C660CD0
:103B4000771CF301EE56FD4F4F0181E080834AE080
:103B500050E060E070E0C6010E948B2AF40172839D
:103B600061834AE050E060E070E0CE010E948B2A61
:103B7000F401748363834AE050E060E070E0C501C3
:103B80000E948B2AF401768365834AE050E060E06E
:103B900070E0C8010E948B2AF401708767836DE68C
:103BA00072E0C7010E94D82C892B11F4F40117820E
:103BB00061E772E0C7010E94D82C892B09F0ABCFD6
:103BC000F301EE56FD4F81E08783A5CF1F920F9240
:103BD0000FB60F9211248F939F93EF93FF938091D1
:103BE000C6009091900291111CC08D3009F18A306D
:103BF00021F090919102903420F1E0918E02F091A9
:103C00008F0280919102E80FF11D108281E0809374
:103C100090028091C00085FFFCCF86E08093C600B3
:103C200007C08091C00085FFFCCF85E18093C6006E
:103C3000FF91EF919F918F910F900FBE0F901F906A
:103C40001895E0918E02F0918F0290919102E90F08
:103C5000F11D8083809191028F5F80939102E8CF64
:103C60001F920F920FB60F9211248F939F93EF9391
:103C7000FF9393B180917E02811139C080917D02C2
:103C8000882309F43DC080917C02891709F442C061
:103C900010927C0210927D02E0917802F0917902FC
:103CA000EE0FFF1FEE0FFF1FEF70FF27F09379025B
:103CB000E0937802199B05C0E260F0937902E093EB
:103CC00078021A9B05C0E160F0937902E0937802D4
:103CD000EE0FFF1FE55EFB4FE491EE2341F0809174
:103CE00016038E0F8093160381E080931703FF91D4
:103CF000EF919F918F910F900FBE0F901F9018958D
:103D000080917C02891741F290937C0281E080933C
:103D10007D02C2CF81E080937E02BCCF1F920F92C2
:103D20000FB60F9211242F923F924F925F926F9293
:103D30007F928F929F92AF92BF92CF92DF92EF923B
:103D4000FF920F931F932F933F934F935F936F9324
:103D50007F938F939F93AF93BF93EF93FF93CF93F3
:103D6000DF93CDB7DEB76A97DEBFCDBF9E012F5F71
:103D70003F4F4901CE0141961C01A12CB12CE12CF1
:103D8000F12C198E1A8E93E29E9D80019F9D100D3D
:103D900011240E5C1C4FD8011296CD90DC90139725
:103DA0008D919C911197C81AD90AF101C192D192B3
:103DB0001F011D966D917D918D919C91509751960B
:103DC0002D913D914D915C91549755964D905D90FC
:103DD0006D907C9058970E94B828A30192010E9490
:103DE000B828D4016D937D938D939D934D01C1149B
:103DF000D10409F449C0F80180A191A1892B09F4EB
:103E0000F8C080A191A1019791A380A366817781D9
:103E10008085918520E030E040E85FE30E94B4288F
:103E20001816DCF4D80112968D919C911397019687
:103E300013969C938E93129716966D917D918D910A
:103E40009C91199720E030E040E85FE30E94002752
:103E5000F8016683778380879187F3E2FE9D800176
:103E6000FF9D100D11240E5C1C4FD80116966D910C
:103E70007D918D919C91199720E030E040E85FEBB7
:103E80000E94652787FD36C13FEFE31AF30A82E0FF
:103E9000A80EB11C94E0E916F10409F074CF88B1C2
:103EA000AA8D8A2B88B9B1E2BA95F1F7000088B1E2
:103EB000E98D8E2B88B9FDE0FA95F1F7000018B86E
:103EC0009E012F5E3F4F6901CE0101965C0100E02B
:103ED00010E023E2922E909E7001919EF00C11242E
:103EE000D701AE5CBC4F7D011A968C911A9788233E
:103EF00009F44AC0F60180819181181619060CF068
:103F0000A0C06D917C91D5014D905D906D907C909D
:103F10006F5F7F4F882777FD8095982F0E94042838
:103F2000A30192010E94B428181694F4F70111829B
:103F3000108222803380C301B2010E941B290E949B
:103F4000D127261A370AD70113963C922E92129740
:103F5000909EF001919EF00D1124EE5CFC4F80814B
:103F600091810196918380838485882329F08281C1
:103F70009381019693838283909EF001919EF00D30
:103F80001124EE5CFC4F12860F5F1F4FF4E0AF0E62
:103F9000B11C22E0C20ED11C0430110509F09BCFE8
:103FA0006A960FB6F894DEBF0FBECDBFDF91CF91FA
:103FB000FF91EF91BF91AF919F918F917F916F9101
:103FC0005F914F913F912F911F910F91FF90EF9033
:103FD000DF90CF90BF90AF909F908F907F906F9029
:103FE0005F904F903F902F900F900FBE0F901F90BB
:103FF000189521E0F8012287F701EE0FFF1FEE0F61
:10400000FF1FEE0DFF1DE85EFC4F8481D7FC4EC004
:10401000811137C081E090E00A2C01C0880F0A941A
:10402000EAF7B98DB82BB98F23E22E9DF0012F9DB1
:10403000F00D1124EE5CFC4F868D978D91A380A32B
:1040400023CF892B09F498CFFD0180819181181627
:1040500019060CF071C0909EF001919EF00D112494
:10406000EE5CFC4F808191810197918380838485F0
:10407000882309F481CF828193810197938382837E
:104080007BCFD8018D919C91119720813181019630
:104090008217930709F0BECF8D919C9111971396CB
:1040A0009C938E9312971A961C92B4CF882351F04A
:1040B000D8018D919C9111972281338101968217AD
:1040C000930781F1C5010196E1E0F0E002C0EE0F37
:1040D000FF1F8A95E2F7CF01FA8DF82BFA8F81E066
:1040E00090E00A2C01C0880F0A94EAF7298D282B4A
:1040F000298F9ACFF80182819381019793838283DC
:10410000668177818085918520E030E040E85FE33B
:104110000E940127D80116966D937D938D939C93F1
:104120001997B2CE8D919C91119713969C938E9373
:1041300012971A961C92C6CFD5016D917D918D91E3
:104140009C910E941B290E94D127F70171836083F3
:1041500022813381260F371F338322837CCFA3E153
:10416000B0E0E5EBF0E20C94C3267C011B016A0190
:10417000FC0117821682838181FF66C3BE016F5FD7
:104180007F4F4B01F7019381F10193FD859193FFDF
:1041900081911F01882309F453C3853239F493FDBB
:1041A000859193FF81911F01853239F4B70190E029
:1041B0000E94222D56016501E5CF10E0512C20E030
:1041C0002032A0F48B3269F030F4803259F083321F
:1041D00069F420612CC08D3239F0803339F42160CC
:1041E00026C02260246023C0286021C027FD27C08C
:1041F00030ED380F3A3078F426FF06C0FAE01F9F02
:10420000300D1124132F13C06AE0569E300D112477
:10421000532E20620CC08E3221F426FD11C320647F
:1042200006C08C3611F4206802C0883641F4F101D2
:1042300093FD859193FF81911F018111C1CF9BEB6C
:10424000980F933018F42061805E06C09BE9980FA8
:10425000933008F0AAC12F7E26FF16E02F73722E2E
:10426000853621F4F22FF0647F2E08C0863621F4C3
:10427000622F6068762E02C01111115077FE07C0C0
:104280001C3348F444244394410E27E00BC01830FB
:1042900030F4212F06C027E04CE3442E03C027E072
:1042A00017E0412C560174E0A70EB11CF6016081A5
:1042B000718182819381042DA4010E94E12B6C0104
:1042C000098100FF02C003FF06C071FC07C072FC39
:1042D00008C0612C08C03DE2632E05C02BE2622EAF
:1042E00002C090E2692E802F8C7099F1662011F047
:1042F00084E001C083E0851510F0512C0BC0581AE2
:1043000073FC08C0B70180E290E00E94222D5A940D
:10431000C9F7F3CF662029F0B701862D90E00E94FF
:10432000222D03FD03C00AED10E002C006ED10E0EF
:10433000F72DF0717F2EF8018491882309F476C25D
:1043400071108052B70190E00E94222D0F5F1F4F25
:10435000F2CF77FE0FC04C0C04FF04C08A8181337A
:1043600009F44A94141474F5F8E0F41578F588E02B
:10437000482E2CC076FC2AC0812F90E08C159D051C
:104380009CF06CEFC6166FEFD60674F0772D706850
:10439000772E0AC0E2E0F0E0EC0FFD1FE10FF11D07
:1043A0008081803319F411501111F4CF77FE0EC0C3
:1043B00044244394410E812F90E0C816D9062CF472
:1043C0001C1904C04424439401C010E077FE07C0C8
:1043D0001C141D043CF496012F5F3F4F05C025E0DF
:1043E00030E002C021E030E0662011F02F5F3F4F47
:1043F000112331F0412F50E04F5F5F4F240F351FE5
:10440000452D50E02417350714F4521A01C0512CE1
:10441000872D897049F4552039F0B70180E290E08A
:104420000E94222D5A94F7CF662029F0B701862DDD
:1044300090E00E94222D73FC09C0552039F0B7018D
:1044400080E390E00E94222D5A94F7CF77FE5FC060
:104450009C2D8D2DD7FE02C090E080E0692E782E35
:1044600040E050E0C601841991099D878C87960130
:1044700026193709280D391D812F90E0EE27FF27D7
:10448000E81BF90BFF87EE87FFEF6F167F0669F4D5
:10449000B7018EE290E02B8B3A8B488B598B0E94B0
:1044A000222D598948893A892B89C614D70454F09A
:1044B0006C857D85661577052CF4F901E40FF51FF1
:1044C000818101C080E371E0671A71084F5F5F4F1F
:1044D000EE85FF856E167F066CF0B70190E02B8BA2
:1044E0003A8B488B598B0E94222D2B893A89488917
:1044F0005989CACF6C147D0439F49A81963318F423
:10450000953311F404FF81E3B70190E04BC08A8139
:10451000813309F00F7EB70190E00E94222D111126
:1045200005C074FE18C085E490E017C0B7018EE2A4
:1045300090E00E94222D82E066246394680EF401CC
:10454000E80FF11D8081B70190E00E94222D1150EB
:1045500041F3862DF1CF85E690E0B7010E94222D30
:10456000D7FC05C0C114D10439F404FF05C0D194AF
:10457000C194D1088DE201C08BE2B70190E00E94A6
:10458000222D80E36AE0C616D1042CF08F5FFAE09A
:10459000CF1AD108F7CFB70190E00E94222DB701C2
:1045A000C601C0960E94222D41C1833631F0833767
:1045B00079F0833509F058C021C0560172E0A70E8A
:1045C000B11CF6018081898301E010E0640114C010
:1045D0005601F2E0AF0EB11CF601C080D18026FF7B
:1045E00003C0612F70E002C06FEF7FEFC6012B8B1D
:1045F0000E94E82C8C012B892F7715C05601F2E020
:10460000AF0EB11CF601C080D18026FF03C0612F20
:1046100070E002C06FEF7FEFC6012B8B0E94C82CA9
:104620008C012B892068722E23FD1AC0852D90E005
:1046300008171907A8F4B70180E290E00E94222D24
:104640005A94F4CFF60177FC859177FE81916F0142
:10465000B70190E00E94222D51105A940150110987
:104660000115110579F7E2C0843611F0893651F54C
:10467000560127FF09C0F4E0AF0EB11CF6016081BE
:104680007181828193810AC0F2E0AF0EB11CF60104
:1046900060817181882777FD8095982F022F0F7692
:1046A00097FF08C090958095709561957F4F8F4FCB
:1046B0009F4F00682AE030E0A4010E94762DC82EAA
:1046C000C8183EC0022F853721F40F7E2AE030E063
:1046D0001DC0097F8F3691F018F4883559F0B0C0AD
:1046E000803719F0883711F0ABC0006104FF09C0B2
:1046F000046007C024FF08C0066006C028E030E060
:1047000005C020E130E002C020E132E0560107FFA1
:1047100009C0F4E0AF0EB11CF601608171818281A5
:10472000938108C0F2E0AF0EB11CF6016081718187
:1047300080E090E0A4010E94762DC82EC8180F7763
:1047400006FF0BC0202F2E7FC11650F404FF0AC0B5
:1047500002FD08C0202F2E7E05C0DC2C202F03C0B8
:10476000DC2C01C0D12E24FF0DC0FE01EC0DF11D8B
:104770008081803311F4297E09C022FF06C0D394C2
:10478000D39404C0822F867809F0D39423FD13C0FC
:1047900020FF06C01C2DD51418F4150D1D19D52C9D
:1047A000D51468F4B70180E290E02B8B0E94222D93
:1047B000D3942B89F5CFD51410F45D1801C0512C7A
:1047C00024FF12C0B70180E390E02B8B0E94222DC2
:1047D0002B8922FF17C021FF03C088E590E002C0AB
:1047E00088E790E0B7010CC0822F867859F021FD50
:1047F00002C080E201C08BE227FD8DE2B70190E0AC
:104800000E94222DC11638F4B70180E390E00E9487
:10481000222D1150F7CFCA94F401EC0DF11D8081C7
:10482000B70190E00E94222DC110F5CF552009F468
:10483000C2CCB70180E290E00E94222D5A94F6CFBC
:10484000F7018681978102C08FEF9FEF6396E2E1C7
:104850000C94DF2684E190E00E9464298093760224
:1048600090937702EC01E12CF12C84E190E00E941E
:104870006429CE0DDF1D9983888382E0E80EF11C48
:1048800094E1E916F10429F0C0917602D091770203
:10489000ECCF88E090E00E94642990938702809397
:1048A000860288E090E00E946429909389028093B8
:1048B0008802C0E0D0E0E0908602F090870289E0B4
:1048C00090E00E946429F701EC0FFD1F9183808323
:1048D000E0908802F090890289E090E00E946429CB
:1048E000F701EC0FFD1F918380832296C830D1051C
:1048F00011F784E090E00E94642990938B028093EA
:104900008A0284E090E00E94642990938D02809353
:104910008C02C0918A02D0918B0281E190E00E94CA
:10492000642999838883C0918C02D0918D0281E1A2
:1049300090E00E94642999838883C0918A02D09173
:104940008B0281E190E00E9464299B838A83C0915D
:104950008C02D0918D0281E190E00E9464299B83BA
:104960008A8380E490E00E94642990938F02809370
:104970008E0280E490E00E94642990932D0380933E
:104980002C0380E490E00E9464299093BF038093FD
:10499000BE0388E290E00E946429909331038093E3
:1049A00030030E94D10782E00E94BF078FE097E2A8
:1049B0000197F1F700C0000040E4B42E53E8C52E83
:1049C00063E7D62ED5E1C3E20E945E030E9449044C
:1049D000B0927C00C0927A0080917A0080648093CB
:1049E0007A0080917A0086FDFCCF2091780030918A
:1049F00079008091B00082608093B000D092B300C3
:104A0000809170008260809370001092B20080915B
:104A1000B10085608093B1000E9413151092C5000B
:104A2000D093C4008091C10088698093C10000E0E8
:104A300061E0802F0E94E3040F5F0430C9F70E94F9
:104A400014070E94F60F78940E9454110E94F60FEA
:104A500080919002811125C0412F50E0FA01E15868
:104A6000F109EC31F105A0F4E15BFF4F0C94FA265B
:104A70000E94A61CF8940E942805A6CFE091760219
:104A8000F091770264817581828193810E941C1D5F
:104A900010E80E9454110E94F60F80919002882322
:104AA000D9F20E943B150E945D15182FD5CFE091D9
:104AB0007602F09177024681578164817581828107
:104AC00093810E94AD1C10E8E4CFF89480E090E060
:104AD000C89FF001C99FF00D1124EE5CFC4F2081AE
:104AE000318133832283148601968430910581F7C6
:104AF000789410E8CECFE0917602F091770246816B
:104B0000578164817581828193810E94681B10E8BE
:104B1000C0CFE0917602F091770264817581828145
:104B200093810E942F1B10E8B4CFE0917602F091A0
:104B30007702828193810E94FD1A0E94C30410E8CB
:104B4000A8CFE0917602F09177026481758182812D
:104B500093810E94C21A10E89CCFE0917602F091F6
:104B60007702828193810E947A1A0E94C30410E81E
:104B700090CFE0917602F091770264817581828115
:104B800093810E943F1A10E884CFE0917602F09161
:104B90007702828193810E94F7190E94C30410E872
:104BA00078CFE0917602F0917702648175818281FD
:104BB00093810E94BC1910E86CCFE0917602F091CD
:104BC0007702828193810E9474190E94C30410E8C5
:104BD00060CFE0917602F0917702648175818281E5
:104BE00093810E94371910E854CFE0917602F0913A
:104BF0007702828193810E9405190E94C30410E804
:104C000048CFE0917602F0917702828193810E94F1
:104C1000D8180E94C30410E83CCFE0917602F091CE
:104C20007702828193810E9494180E94C30410E845
:104C300030CF0E94140710E82CCF0E94910610E894
:104C400028CFE0917602F0917702648175818281AC
:104C500093810E9493170E94C30410E81ACFE09139
:104C60007602F091770264817581828193810E943E
:104C70006B170ECFE0917602F091770282819381DB
:104C80000E94C32B0E94A30503CFE0917602F0910E
:104C900077024681578164817581828193810E9468
:104CA000F816F6CEE0917602F091770246815781B0
:104CB00064817581828193810E94D715E9CEE0914C
:104CC0007602F0917702A281B381FD01019000206C
:104CD000E9F73197EA1BFB0B759708F0D9CE45E150
:104CE00050E064E670E0CD010E94E42DD1CE8091C9
:104CF0002C0390912D0345E150E064E670E00E94A2
:104D0000D42D80912C0390912D030E94C304C0CE1A
:104D1000E0917602F0917702E484F58402851385B0
:104D20002085318546815781648175818281938197
:104D30000E94541DADCEAA1BBB1B51E107C0AA1F88
:104D4000BB1FA617B70710F0A61BB70B881F991F2C
:104D50005A95A9F780959095BC01CD01089597FBD0
:104D6000072E16F4009407D077FD09D00E949B26E9
:104D700007FC05D03EF4909581959F4F089570955E
:104D800061957F4F08952F923F924F925F926F925D
:104D90007F928F929F92AF92BF92CF92DF92EF92CB
:104DA000FF920F931F93CF93DF93CDB7DEB7CA1B4C
:104DB000DB0B0FB6F894DEBF0FBECDBF09942A8877
:104DC000398848885F846E847D848C849B84AA841F
:104DD000B984C884DF80EE80FD800C811B81AA81AC
:104DE000B981CE0FD11D0FB6F894DEBF0FBECDBF77
:104DF000ED010895EE0FFF1F0590F491E02D099449
:104E00005058BB27AA270ED075C166D130F06BD1A0
:104E100020F031F49F3F11F41EF45BC10EF4E095D5
:104E2000E7FB51C1E92F77D180F3BA176207730707
:104E30008407950718F071F49EF58FC10EF4E09584
:104E40000B2EBA2FA02D0B01B90190010C01CA0144
:104E5000A0011124FF27591B99F0593F50F4503EEF
:104E600068F11A16F040A22F232F342F4427585FE1
:104E7000F3CF469537952795A795F0405395C9F7F9
:104E80007EF41F16BA0B620B730B840BBAF09150B1
:104E9000A1F0FF0FBB1F661F771F881FC2F70EC050
:104EA000BA0F621F731F841F48F487957795679523
:104EB000B795F7959E3F08F0B3CF9395880F08F00C
:104EC0009927EE0F979587950895D9D008F481E03A
:104ED00008950CD00FC107D140F0FED030F021F47E
:104EE0005F3F19F0F0C0511139C1F3C014D198F3EC
:104EF0009923C9F35523B1F3951B550BBB27AA275B
:104F000062177307840738F09F5F5F4F220F331FCC
:104F1000441FAA1FA9F333D00E2E3AF0E0E830D098
:104F200091505040E695001CCAF729D0FE2F27D09B
:104F3000660F771F881FBB1F261737074807AB0769
:104F4000B0E809F0BB0B802DBF01FF2793585F4FDE
:104F50002AF09E3F510568F0B6C000C15F3FECF3F8
:104F6000983EDCF3869577956795B795F7959F5FA3
:104F7000C9F7880F911D9695879597F90895E1E0F7
:104F8000660F771F881FBB1F621773078407BA0756
:104F900020F0621B730B840BBA0BEE1F88F7E095B1
:104FA000089504D06894B111D9C00895BCD088F098
:104FB0009F5790F0B92F9927B751A0F0D1F0660F05
:104FC000771F881F991F1AF0BA95C9F712C0B13020
:104FD00081F0C3D0B1E00895C0C0672F782F882733
:104FE000B85F39F0B93FCCF3869577956795B3955F
:104FF000D9F73EF490958095709561957F4F8F4FCE
:105000009F4F0895E89409C097FB3EF490958095D2
:10501000709561957F4F8F4F9F4F9923A9F0F92F7E
:1050200096E9BB279395F695879577956795B795FC
:10503000F111F8CFFAF4BB0F11F460FF1BC06F5FE2
:105040007F4F8F4F9F4F16C0882311F096E911C0F4
:10505000772321F09EE8872F762F05C0662371F015
:1050600096E8862F70E060E02AF09A95660F771F29
:10507000881FDAF7880F9695879597F90895990F05
:105080000008550FAA0BE0E8FEEF16161706E80712
:10509000F907C0F012161306E407F50798F0621B33
:1050A000730B840B950B39F40A2661F0232B242B08
:1050B000252B21F408950A2609F4A140A6958FEF27
:1050C000811D811D089597F99F6780E870E060E079
:1050D00008959FEF80EC089500240A941616170691
:1050E00018060906089500240A94121613061406D9
:1050F00005060895092E0394000C11F4882352F03C
:10510000BB0F40F4BF2B11F460FF04C06F5F7F4FF3
:105110008F4F9F4F089557FD9058440F551F59F0DA
:105120005F3F71F04795880F97FB991F61F09F3F94
:1051300079F087950895121613061406551FF2CFBD
:105140004695F1DF08C0161617061806991FF1CF0D
:1051500086957105610508940895E894BB27662734
:105160007727CB0197F908958ADF08F48FEF089528
:105170000BD0C0CFB1DF28F0B6DF18F0952309F0CF
:10518000A2CFA7CF1124EACFC6DFA0F3959FD1F31A
:10519000950F50E0551F629FF001729FBB27F00DE5
:1051A000B11D639FAA27F00DB11DAA1F649F66273A
:1051B000B00DA11D661F829F2227B00DA11D621F89
:1051C000739FB00DA11D621F839FA00D611D221F43
:1051D000749F3327A00D611D231F849F600D211D27
:1051E000822F762F6A2F11249F5750408AF0E1F0CA
:1051F00088234AF0EE0FFF1FBB1F661F771F881F13
:1052000091505040A9F79E3F510570F05CCFA6CF5A
:105210005F3FECF3983EDCF3869577956795B795FD
:10522000F795E7959F5FC1F7FE2B880F911D969527
:10523000879597F9089577DFE0F09E37D8F0963993
:10524000B8F49E3848F4672F782F8827985FF9CFF5
:1052500086957795679593959539D0F3B62FB1706C
:105260006B0F711D811D20F4879577956795939538
:1052700002C01CC073CF882371F4772321F09850AB
:10528000872B762F07C0662311F499270DC0905104
:10529000862B70E060E02AF09A95660F771F881FD2
:1052A000DAF7880F9695879597F908959F3F31F023
:1052B000915020F4879577956795B795880F911D44
:1052C0009695879597F90895CF93DF93823091054E
:1052D00010F482E090E0E091C603F091C70320E073
:1052E00030E0A0E0B0E0309739F1408151814817BB
:1052F0005907B8F04817590771F4828193811097C4
:1053000029F013969C938E9312972CC09093C70309
:105310008093C60327C02115310531F0421753078A
:1053200018F0A901DB0101C0EF019A01BD01DF0105
:105330000280F381E02DD7CF21153105F9F0281B2C
:10534000390B2430310580F48A819B816115710508
:1053500021F0FB019383828304C09093C703809361
:10536000C603FE01329644C0FE01E20FF31F819393
:10537000919322503109398328833AC02091C40384
:105380003091C503232B41F4209102013091030198
:105390003093C5032093C403209100013091010193
:1053A0002115310541F42DB73EB7409104015091CC
:1053B0000501241B350BE091C403F091C503E217EE
:1053C000F307A0F42E1B3F0B2817390778F0AC0128
:1053D0004E5F5F4F2417350748F04E0F5F1F509305
:1053E000C5034093C4038193919302C0E0E0F0E0D1
:1053F000CF01DF91CF910895CF93DF93009709F408
:1054000087C0FC01329713821282C091C603D091EB
:10541000C703209781F420813181280F391F8091A3
:10542000C4039091C5038217930779F5F093C503E0
:10543000E093C4036DC0DE0120E030E0AE17BF078B
:1054400050F412964D915C9113979D0141155105B1
:1054500009F1DA01F3CFB383A28340815181840F34
:10546000951F8A179B0771F48D919C911197840F5A
:10547000951F02969183808312968D919C9113972C
:10548000938382832115310529F4F093C703E093B8
:10549000C6033EC0D9011396FC93EE9312974D912B
:1054A0005D91A40FB51FEA17FB0779F48081918104
:1054B000840F951F0296D90111969C938E93828139
:1054C000938113969C938E931297E0E0F0E08A818B
:1054D0009B81009719F0FE01EC01F9CFCE010296F5
:1054E00028813981820F931F2091C4033091C50315
:1054F0002817390769F4309729F41092C7031092DE
:10550000C60302C013821282D093C503C093C403A2
:10551000DF91CF9108952F923F925F926F927F9289
:105520008F929F92AF92BF92CF92DF92EF92FF92B3
:105530000F931F93CF93DF938B01EA0161157105E0
:1055400021F0DB018C9311969C93209739F09E01FA
:10555000225031092332310508F0FBC07C0167017C
:10556000BFEFCB1ADB0A5601F7016080862D90E071
:105570000E94B92C892B11F07601F1CFFDE26F1258
:105580000AC0570182E0A80EB11CD70111966C9099
:10559000772473940BC0BBE26B1207C05701E2E0A3
:1055A000AE0EB11CD70111966C90712CCE018F7E7E
:1055B000892B89F4B0E36B1222C0F50180818F7DC5
:1055C000883541F56180F2E0AF0EB11C872D826015
:1055D000782EC0E1D0E0C830D105F1F04CF4C230F3
:1055E000D10511F5C12CD12CE12CB0E4FB2E2FC03C
:1055F000CA30D10531F0C031D10521F115C0209755
:1056000051F7CAE0D0E0ACECCA2EDC2CEC2CACE0BC
:10561000FA2E1DC02097F9F6C8E0D0E0C12CD12C9D
:10562000E12CF0E1FF2E13C060E070E080E090E834
:105630009E01442737FD4095542F0E94A32F6901F6
:105640007A0105C0C12CD12CE12CE8E0FE2EF50139
:1056500060E020E030E0A9014E01AA2497FCA0946C
:10566000BA2C1F0170ED572E560CA9E0A51570F449
:105670008FEB860D8A3118F499EC592E06C08FE90C
:10568000860D8A3130F589EA582E560C852D90E02A
:105690008C179D07F4F467FD18C0C216D306E40604
:1056A000F50680F0C501B4010E94932F9B01AC0167
:1056B000250D311D411D511D213031054105B0E839
:1056C0005B0710F06FEF01C061E03196D1016C9083
:1056D000C8CF872D81700115110571F0662329F05F
:1056E0003197D801ED93FC9307C071FE19C0329732
:1056F000D801ED93FC9314C067FF12C0882329F0F2
:1057000020E030E040E050E804C02FEF3FEF4FEFE3
:105710005FE782E290E09093C9038093C80316C0CC
:10572000882341F050954095309521953F4F4F4F3C
:105730005F4F0CC057FF0AC082E290E09093C9030C
:105740008093C8032FEF3FEF4FEF5FE7B901CA0126
:1057500004C060E070E080E090E0DF91CF911F91A5
:105760000F91FF90EF90DF90CF90BF90AF909F9000
:105770008F907F906F905F903F902F900895662755
:1057800077270C94062EFC0188279927E89421910D
:105790002032E9F3293010F02E30C8F32B3241F0DB
:1057A0002D3239F4689404C00E941A2D820F911D85
:1057B000219120532A30C0F31EF4909581959F4F7C
:1057C0000895283008F027E03327DA01990F311DBA
:1057D00087FD916000966105710539F432602E5F96
:1057E0003D9330E32A95E1F708959F3F30F08038EC
:1057F0007105610509F03C5F3C5F3D93913008F015
:105800008068911DDF93CF931F930F93FF92EF92C8
:10581000192F987F9695E92F96959695E90FFF2772
:10582000EB56FB4F99273327EE24FF24A701E7010E
:1058300005900894079428F4360FE71EF81E491FB8
:10584000511D660F771F881F991F0694A1F70590B9
:10585000079428F4E70EF81E491F561FC11D770F45
:10586000881F991F661F0694A1F70590079428F4D6
:10587000F80E491F561FC71FD11D880F991F661F9D
:10588000771F0694A1F70590079420F4490F561F3F
:10589000C71FD81F990F661F771F881F0694A9F787
:1058A00084911095177041F0D695C79557954795F7
:1058B000F794E7941A95C1F7EBE3F4E06894159038
:1058C000159135916591959105907FE27395E11859
:1058D000F10A430B560BC90BD009C0F7E10CF11EBE
:1058E000431F561FC91FD01D7EF4703311F48A95D3
:1058F000E6CFE894015030F0080F0AF400270217B1
:1059000008F4202F2395022F7A3328F079E37D9332
:105910002A95E9F710C07D932A9589F60694979504
:105920006795379517951794E118F10A430B560BB5
:10593000C90BD00998F023957E9173957A3308F0BE
:1059400070E37C932013B8F77E9170617D9330F003
:10595000839571E37D9370E32A95E1F71124EF902D
:10596000FF900F911F91CF91DF91992787FD90951F
:1059700008959111B2C2803219F089508550D0F744
:105980000895FB01DC0105900D920020E1F70895D8
:10599000FC010590615070400110D8F780959095FA
:1059A0008E0F9F1F08954AE752E00E94F32C08953E
:1059B000FB01DC018D91019080190110D9F3990B45
:1059C0000895FB01DC0101900D920020E1F708959C
:1059D000FC016150704001900110D8F780959095BE
:1059E0008E0F9F1F0895FA01A191B081009719F4BD
:1059F0001097E1F0CD01DC01CD010D90002011F4F4
:105A0000C00113C0FB012191222319F02015D9F701
:105A1000F3CFFB012191201519F41E92119606C0B7
:105A20002223C1F70D900020A1F7D001FA01A19324
:105A3000B08308957AE0979F902D879F802D910DD8
:105A4000112408950F931F93CF93DF93182F092FDD
:105A5000EB018B8181FD03C08FEF9FEF20C082FFA0
:105A600010C04E815F812C813D81421753077CF429
:105A7000E881F9819F012F5F3F4F3983288310838D
:105A800006C0E885F985812F0995892B29F72E8194
:105A90003F812F5F3F4F3F832E83812F902FDF91D8
:105AA000CF911F910F910895AEE0B0E0EAE5FDE2DD
:105AB0000C94D1260D891E8986E08C831A83098374
:105AC0008FEF9FE79E838D83AE01475E5F4F6F89A7
:105AD000788DCE0101960E94AF20EF81F885E00F0E
