:100000000C94B6020C94D3020C94D3020C94D30239
:100010000C94D3020C94D3020C94D3020C94D3020C
:100020000C94D3020C940D1B0C94D3020C94D302A9
:100030000C94D3020C94D3020C94D3020C94D302EC
:100040000C94AF1A0C94D3020C94D3020C94D302E8
:100050000C94581A0C94D3020C94D3020C94D3022F
:100060000C94D3020C94D3020C94D3020C94D302BC
:10007000300B650BE90B350C720CB30C1B0DE60C49
:100080005C0DAA0AE70ABC1016101610B110A710D2
:100090009D109310891016101610161016101610B9
:1000A0001610161016101610161016101610161020
:1000B0001610161016101610161016101610161010
:1000C0001610161016101610161016101610161000
:1000D000161016101610161016101610FC0FF1112F
:1000E0007C114811B611A211FD10FA10F710C310BF
:1000F0003A12B621C221C522AD22A0229322882223
:100100007D2270226D226A225F22542249223E22E1
:10011000332228221D2212220722FC21F121E6216E
:10012000D921BC21C6216E616E00696E6600520243
:10013000380223020902F101D801BF01A0018401A4
:100140006301440147010A53657420636F6E737441
:10015000616E740A616E67756C617220737065659B
:10016000640000660109446566696E65206F7074FD
:100170006963616C0A7A65726F20706F7369746964
:100180006F6E00008701084C6F6164206C617374AE
:100190000A636F6E66696775726174696F6E0000DD
:1001A000A30107536176652063757272656E740AE8
:1001B000636F6E66696775726174696F6E0000C205
:1001C00001064368616E6765206D6F746F720A7314
:1001D0007562737465700000DB010552756E207ADC
:1001E00065726F0A63616C6962726174696F6E0037
:1001F00000F4010453657420737465700A6D756CA6
:100200007469706C69657200000C02034368616E6A
:10021000676520737465700A776169742074696D0D
:100220006500002602024368616E6765207374658D
:10023000700A756E697400003B02014368616E6765
:1002400065206D6F746F720A706F736974696F6E79
:1002500000005502004D6F746F722044726976651C
:10026000720A20000010040604FB03F103E403D724
:1002700003CA03BE03B203A403960388037903668B
:1002800003530341032F031F030F03FE02ED02DCA0
:1002900002CB02B802A60299029D02009953544F64
:1002A00050414C4C0000AA020098464143544F5222
:1002B0005952455345540000BC02039753455443DB
:1002C0004F4E535453504545440000CF02029653BD
:1002D00045545741495454494D450000E0020195A9
:1002E0004745545741495454494D450000F10202D5
:1002F0009453455453554253544550530000020300
:1003000001934745545355425354455053000013ED
:1003100003029253455446554C4C524F540000230F
:1003200003019147455446554C4C524F54000033FD
:1003300003029053455447454152524154494F009E
:10034000004503018F4745544745415252415449A6
:100350004F00005703028E5345544F50545A455294
:100360004F504F5300006A03018D4745544F50547E
:100370005A45524F504F5300007D03018C4745545E
:10038000414E414C4F4700008C03018B49534D4F68
:1003900056494E4700009A03008A4C4F4144434F50
:1003A0004E460000A803008953415645434F4E4630
:1003B0000000B6030288474554504F530000C20363
:1003C0000287454E41424C450000CE0301865A4506
:1003D000524F52554E0000DB0303854D4F56455298
:1003E000454C0000E80303844D4F564541425300FD
:1003F00000F50301832A49444E0000FF0300822ACE
:1004000049444E3F00000A0400812A525354000020
:1004100014040080000000000000FFFF0000000046
:1004200000000000010001000000000000000000CA
:10043000FFFF0000000000407A10F35A00A0724E47
:1004400018090010A5D4E80000E87648170000E479
:100450000B54020000CA9A3B000000E1F5050000C1
:1004600080969800000040420F000000A086010026
:100470000000102700000000E803000000006400F6
:10048000000000000A000000000001000000000061
:100490002C76D888DC674F0823DFC1DFAE59E1B185
:1004A000B796E5E3E453C63AE651997696E8E6C294
:1004B0008426EB898C9B62ED407C6FFCEFBC9C9F9B
:1004C00040F2BAA56FA5F490055A2AF75C936B6CBD
:1004D000F9676DC11BFCE0E40D47FEF520E6B500B1
:1004E000D0ED902E0300943577050080841E08001F
:1004F00000204E0A000000C80C333333330F986ECF
:1005000012831141EF8D2114893BE65516CFFEE68B
:10051000DB18D1844B381BF77C1D901DA4BBE42451
:10052000203284725E228100C9F124ECA1E53D27CE
:100530004E414E494E495459494E46CDCCCC3D0AC8
:10054000D7233C17B7D13877CC2B329595E6241FAB
:10055000B14F0A000020410000C84200401C462064
:10056000BCBE4CCA1B0E5AAEC59D740011241FBEE2
:10057000CFEFD0E1DEBFCDBF12E0A0E0B1E0E4E319
:10058000F8E502C005900D92A034B107D9F712E04A
:10059000A0E4B2E001C01D92AB3FB107E1F70E94B9
:1005A00070200C94182C0C9400009BB19F709BB988
:1005B0009BB1807F892B8BB95B9A85E88A95F1F78F
:1005C00000005B980895CF93DF93E8B190E0AC0111
:1005D000440F551F4F5F5F4F21E030E0042E01C0F4
:1005E000220F0A94EAF777FD42C020952E2328B9FE
:1005F00077FD41C061157105B9F1AC01440F551F7C
:1006000021E030E001C0220F4A95EAF7B22FA22F75
:10061000A09540E050E023E2289FF001299FF00DD3
:100620001124EB57FD4F88B18B2B88B98DE08A954B
:10063000F1F7000088B18A2388B980819181892BE4
:1006400071F080E090E0C7E8D3E12197F1F700C0B6
:10065000000001962081318182179307A0F34F5F3C
:100660005F4F46175707F9F6DF91CF910895E22BB8
:10067000E8B977FFBFCF719561957109BBCF8091C4
:100680004602809587FD04C086FF04C086E0089579
:1006900087E0089585FF02C085E0089584FF02C0C9
:1006A00084E0089583FF02C083E0089580FD02C0C6
:1006B0008AE2089580E008956F927F928F929F92D0
:1006C000AF92BF92CF92DF92EF92FF920F931F9360
:1006D000CF93DF9320E030E043E2642E55E5852E92
:1006E000982CA82C50E4B52EC12CD12C68ECE62E09
:1006F00063E4F62E40E050E060E870E480E090E0D3
:10070000A0E8BFE37724739403E010E0629EF00159
:10071000639EF00D1124E959FD4F1182108213825E
:100720001282158214821682178210861186128612
:100730001386148685869686A786B08AC18AD28A51
:10074000E38AF48A458B568B678B708F828F938FE9
:10075000A48FB58F718E178F068FC68DD78DD1A3BD
:10076000C0A312A22F5F3F4F2430310579F6E091EC
:100770005702F091580280E390E0918380831092B9
:100780005A0210925902E0916102F0916202918343
:10079000808310926402109263021092F30210920E
:1007A000F40210925C0210925B0288E080935D027A
:1007B000109249028AE280934A0292E090934B029F
:1007C00010924C0280934D0210924E0210924602FB
:1007D000109247021092480210925E0210925F023D
:1007E00010926002DF91CF911F910F91FF90EF90D7
:1007F000DF90CF90BF90AF909F908F907F906F9041
:1008000008951092C50085E18093C400E1ECF0E00A
:10081000808188698083089580E480937C0083E8E8
:1008200080937A0080917A00806480937A0080912E
:100830007A0086FDFCCF8091780090917900089530
:100840009091C00095FFFCCF8093C6000895FC01F5
:100850002081222351F031968091C00085FFFCCF8A
:100860002093C60021912111F7CF8091C00085FF10
:10087000FCCF8AE08093C600089591B1482F50E0E4
:10088000FA01349621E030E00E2E01C0220F0A94C6
:10089000EAF7922B91B900006130D9F092B1922B16
:1008A00092B993E2949FF001959FF00D1124E959BC
:1008B000FD4F138697B141E050E001C0440F8A9587
:1008C000EAF74095492347B987B12095282327B9EE
:1008D000089532B1922F9095932392B993E2949F09
:1008E000F001959FF00D1124E959FD4F638797B1F1
:1008F00041E050E001C0440F8A95EAF7942B97B984
:1009000087B1822B87B9089560E080E00E943D04A2
:1009100060E081E00E943D0460E082E00E943D04CE
:1009200060E083E00E943D0415BC1092B100089580
:10093000E0EBF0E080818260808383E78093B30006
:10094000E0E7F0E08081826080831092B200E1EB0A
:10095000F0E080818560808308956115710511F054
:100960000C94E302089593E2899FF0011124E95960
:10097000FD4F80819181860F911D67FD9A9593832C
:1009800082838281938195838483089590917C00F2
:100990008F71907E892B80937C0010925C02109264
:1009A0005B0280915D02882321F140E080917A0012
:1009B000806480937A0080917A0086FF05C00000F1
:1009C00080917A0086FDFBCF80917800509179006C
:1009D00020915B0230915C0290E0952B820F931F77
:1009E00090935C0280935B024F5F80915D02481799
:1009F000E8F280915B0290915C0260915D0270E090
:100A00000E94D622CB0108956F927F929F92AF925F
:100A1000BF92CF92DF92EF92FF920F931F93CF93EB
:100A2000DF93982E8091B100887F8093B100C92D0B
:100A3000D0E083E2989E50011124F501E959FD4F61
:100A40005F01068D178D6189728983899489258557
:100A5000368547855089C588D688E788F08C0E94FE
:100A6000F324A70196010E94F3246B017C0181E02D
:100A700090E0F501978F868F05C068E37FEF892DA1
:100A80000E94E302892D0E94C604C297B0F3C701F9
:100A9000B6010E9456250E9411245B01612C712C25
:100AA0000DC061E070E0892D0E94E302892D0E9453
:100AB000C604C29730F0FFEF6F1A7F0A6A147B04F6
:100AC00081F720E030E040E85EE3C701B6010E9414
:100AD000F3240E9456250E940C246115710509F02B
:100AE0006DC020E030E040E45FE3C701B6010E9442
:100AF000F3240E9456250E940C24685C710961153C
:100B0000710509F057C083E28C9FF0018D9FF00DB5
:100B10001124E959FD4F85E090E0978F868F05C03D
:100B200061E070E0892D0E94E302892D0E94C604D5
:100B3000C397B0F783E28C9FF0018D9FF00D1124D5
:100B4000E959FD4F178F068F648175816115710515
:100B500019F0892D0E94E30283E28C9FF0018D9FA2
:100B6000F00D1124E959FD4F118210821382128277
:100B70008091B00082608093B00083E78093B300DF
:100B8000809170008260809370001092B20080911A
:100B9000B10085608093B100DF91CF911F910F91DB
:100BA000FF90EF90DF90CF90BF90AF909F907F909D
:100BB0006F900895892D0E94E302A5CF892D0E9490
:100BC000E3028FCFCF92DF92EF92FF920F931F93AA
:100BD000CF93DF93F894CBE6D2E078E0C72E70E0B5
:100BE000D72E00E010E0E12CF12CB701645B7F4FC1
:100BF00042E050E0CE010E94282AB801645C7F4F99
:100C000044E050E0CE0109960E94282AB801645DB4
:100C10007F4F44E050E0CE010D960E94282AB80193
:100C2000645E7F4F44E050E0CE0141960E94282A46
:100C3000B801645F7F4F44E050E0CE0146960E94C9
:100C4000282A41E050E0B601CE0145960E94282AAC
:100C5000B7016050704042E050E0CE014A960E94D9
:100C6000282AA39682E0E80EF11C0C5F1F4F8FEF3D
:100C7000C81AD80A88E0E816F10409F0B6CF7894CB
:100C8000DF91CF911F910F91FF90EF90DF90CF9068
:100C90000895CF92DF92EF92FF920F931F93CF931D
:100CA000DF93F894CBE6D2E0E8E0CE2EE0E0DE2E53
:100CB00000E010E0E12CF12CB701645B7F4F42E0D3
:100CC00050E0CE010E94182AB801645C7F4F44E0D6
:100CD00050E0CE0109960E94182AB801645D7F4F4A
:100CE00044E050E0CE010D960E94182AB801645EDF
:100CF0007F4F44E050E0CE0141960E94182AB8018F
:100D0000645F7F4F44E050E0CE0146960E94182A6F
:100D100041E050E0B601CE0145960E94182AB70185
:100D20006050704042E050E0CE014A960E94182A7E
:100D3000A39682E0E80EF11C0C5F1F4F8FEFC81ADC
:100D4000D80A88E0E816F10409F0B6CF7894DF916C
:100D5000CF911F910F91FF90EF90DF90CF9008956A
:100D6000CF93C82F5A9A0E94D5028C2F8295807FEC
:100D70000E94D50285EE90E00197F1F700C00000D7
:100D8000CF910895CF93C82F5A980E94D5028C2FE7
:100D90008295807F0E94D50281ED90E00197F1F766
:100DA00000C00000CF9108958AB18C6F8AB98BB1D1
:100DB00083708BB92FE58AEE90E0215080409040FF
:100DC000E1F700C0000080E30E94D50287EA91E6C7
:100DD0000197F1F700C000005B9A95E89A95F1F74A
:100DE00000005B9887E893E10197F1F700C00000ED
:100DF0005B9A95E89A95F1F700005B9887E893E194
:100E00000197F1F700C0000080E20E94D50287EA56
:100E100091E60197F1F700C0000088E20E94C20647
:100E20008CE00E94C20686E00E94C20681E00E9419
:100E3000C2068FE097E20197F1F700C00000089525
:100E400081E00E94C2068FE097E20197F1F700C0AF
:100E50000000089582E00E94C2068FE097E20197A9
:100E6000F1F700C000000895623081F050F0633067
:100E700029F0643071F480530C94C20680570C94AE
:100E8000C206613039F480580C94C20680540C9428
:100E9000C20608950895CF93DF93EC0188818823DB
:100EA00031F021960E94B00689918111FBCFDF912C
:100EB000CF910895EF92FF921F93CF93DF9300D0CD
:100EC000CDB7DEB728E0829FC0011124806469831A
:100ED0007A830E94C2066981E62E7A81F72E18E095
:100EE000F70181917F010E94B0061150C9F70F9060
:100EF0000F90DF91CF911F91FF90EF9008954F9247
:100F00005F926F927F928F929F92AF92BF92CF9299
:100F1000DF92EF92FF920F931F93CF93DF9300D056
:100F200000D0CDB7DEB7F82ECB01BA01A9019801E8
:100F30000E94F3244B015C0183E2F89E800111249E
:100F400009591D4FD80151966D917D918D919C91BC
:100F500054971D962D913D914D915C9150975596CA
:100F6000CD90DD90ED90FC9058970E94F324A7015E
:100F700096010E94F32420E030E044EB53E40E9409
:100F8000A4239B01AC01C501B4010E94F3240E947B
:100F900056256B017C01F801628073800E940C244D
:100FA000660D771DD80113967C936E931297169653
:100FB0008D919D910D90BC91A02D89839A83AB83D7
:100FC000BC83F80161897289838994892585368576
:100FD00047855089458856886788708C0E94F3241D
:100FE000A30192010E94F32420E030E044EB53E49B
:100FF0000E94A4239B01AC01C501B4010E94F3240B
:10100000A70196010E943B239B01AC0169817A8173
:101010008B819C810E943C23D80116966D937D9311
:101020008D939C9319970F900F900F900F90DF91D5
:10103000CF911F910F91FF90EF90DF90CF90BF90D5
:10104000AF909F908F907F906F905F904F9008959A
:101050004F925F926F927F928F929F92AF92BF92C8
:10106000CF92DF92EF92FF92CF93DF9300D000D028
:10107000CDB7DEB793E2899FF0011124E959FD4F06
:101080004584568467847088258936894789508DC0
:1010900081889288A388B488882777FD8095982FC7
:1010A00029833A834B835C830E943F246B017C013C
:1010B00029813A814B815C81C301B2010E94F324F2
:1010C000A50194010E94F3249B01AC0160E070E053
:1010D00084EB93E40E94A4239B01AC01C701B601F9
:1010E0000E94F3240F900F900F900F90DF91CF91FB
:1010F000FF90EF90DF90CF90BF90AF909F908F9038
:101100007F906F905F904F9008954F925F926F9293
:101110007F928F929F92AF92BF92CF92DF92EF9287
:10112000FF920F931F93CF93DF9300D000D0CDB7E2
:10113000DEB7F82ECB01BA01A90198010E94F32471
:101140004B015C0183E2F89E8001112409591D4F77
:10115000D80151966D917D918D919C9154971D96DA
:101160002D913D914D915C9150975596CD90DD908C
:10117000ED90FC9058970E94F324A70196010E94DD
:10118000F32420E030E040E05FE30E94F3249B0181
:10119000AC01C501B4010E94F3240E9456256B01E5
:1011A0007C01F801628073800E940C24660D771D1B
:1011B000D80113967C936E93129716968D919D91FC
:1011C0000D90BC91A02D89839A83AB83BC83F801D9
:1011D00061897289838994892585368547855089F7
:1011E000458856886788708C0E94F324A301920179
:1011F0000E94F32420E030E040E05FE30E94F3240B
:101200009B01AC01C501B4010E94F324A701960122
:101210000E943B239B01AC0169817A818B819C8177
:101220000E943C23D80116966D937D938D939C93D9
:1012300019970F900F900F900F90DF91CF911F9102
:101240000F91FF90EF90DF90CF90BF90AF909F9065
:101250008F907F906F905F904F9008954F925F9224
:101260006F927F928F929F92AF92BF92CF92DF92B6
:10127000EF92FF92CF93DF9300D000D0CDB7DEB7CF
:1012800093E2899FF0011124E959FD4F458456846A
:1012900067847088258936894789508D818892882E
:1012A000A388B488882777FD8095982F29833A836F
:1012B0004B835C830E943F246B017C0129813A812E
:1012C0004B815C81C301B2010E94F324A50194010A
:1012D0000E94F3249B01AC0160E070E080E090E4A8
:1012E0000E94A4239B01AC01C701B6010E94F32414
:1012F0000F900F900F900F90DF91CF91FF90EF9094
:10130000DF90CF90BF90AF909F908F907F906F9025
:101310005F904F900895F894613029F1B8F06230F1
:1013200019F000007894089593E2899FF001112448
:10133000E959FD4F64878081918193838283828103
:1013400093810197938382837894089593E2899F90
:10135000F0011124E959FD4F148680819181938316
:1013600082837894089593E2899FF0011124E959CA
:10137000FD4F6487808191819383828382819381F1
:1013800001969383828378940895E82FF0E0EE0F1E
:10139000FF1FE25DFE4F85919491FC016591749170
:1013A00080916502909166020E94052968E071E0D3
:1013B00080916502909166020E94172990936602BF
:1013C00080936502E0915502F0915602BC01808144
:1013D00091810E94252966E071E080E090E00E9402
:1013E00017299093660280936502E0915502F0916F
:1013F0005602BC01828193810E94252980E090E001
:1014000030E2E0915502F0915602E80FF91FA081F9
:10141000B181FD0101900020E9F731972E2F2A1BA1
:10142000203178F4E0915502F0915602E80FF91F4F
:101430000190F081E02DE20FF11D30832F5F20310C
:1014400089F7E0915502F0915602E80FF91F0190DB
:10145000F081E02D108A02968430910591F608956E
:101460002F923F924F925F926F927F928F929F92B4
:10147000AF92BF92CF92DF92EF92FF920F931F93A2
:10148000CF93DF93CDB7DEB727970FB6F894DEBFC3
:101490000FBECDBFE82FF0E0EE0FFF1FE25DFE4F65
:1014A000859194910296FC01849190E08B30910596
:1014B00008F44BC0000080E090E030E2E09151027F
:1014C000F0915202E80FF91FA081B181FD01019056
:1014D0000020E9F731972E2F2A1B283078F4E0916D
:1014E0005102F0915202E80FF91F0190F081E02DB6
:1014F000E20FF11D30832F5F283089F7E091510210
:10150000F0915202E80FF91F0190F081E02D108652
:1015100002968830910591F627960FB6F894DEBFB3
:101520000FBECDBFDF91CF911F910F91FF90EF9034
:10153000DF90CF90BF90AF909F908F907F906F90F3
:101540005F904F903F902F900895FC01E85CFF4F13
:101550000C943523C12CD12C33E2F32E00EB11E097
:1015600080914E0290E00C2C02C0959587950A94CC
:10157000E2F780FFBDC22EE7FC9CF001FD9CF00D60
:101580001124E959FD4F84819581E0915102F09138
:1015900052029F938F931F922F931F930F93C60115
:1015A000880F991FE80FF91F81818F9380818F9396
:1015B0000E9498292FEFC21AD20A0FB6F894DEBF04
:1015C0000FBECDBF94E0C916D10451F674CFA12C43
:1015D000B12C412C512CB3E29B2E06EB11E08DEB8C
:1015E000C82E81E0D82E92ECE92E91E0F92E380138
:1015F00080914E0290E0042C02C0959587950A9444
:10160000E2F780FF73C21EE7949CF001959CF00DF9
:101610001124E959FD4F82A1882309F48FC2949CBB
:10162000F001959CF00D1124E959FD4F82A1813004
:1016300009F4FFC2949CF001959CF00D1124E95926
:10164000FD4F82A1823009F43DC3AFEF4A1A5A0A16
:10165000B2E0AB0EB11CE4E04E16510449F62BCFBC
:10166000E0915102F0915202A081B18189E0EAE05B
:10167000F1E001900D928A95E1F7E0915102F0912D
:101680005202A281B38189E0E3E1F1E001900D9281
:101690008A95E1F7E0915102F0915202A481B5815F
:1016A00088E0ECE1F1E001900D928A95E1F7E0919C
:1016B0005102F0915202A681B78185E0E4E2F1E0A7
:1016C00001900D928A95E1F7F6CE00E010E0212C12
:1016D000312C80914E0290E0022C02C095958795A6
:1016E0000A94E2F780FFFFC1FEE7FF8343E2429DD9
:1016F000F001439DF00D1124E959FD4F818D81309A
:1017000009F450C208F431C2823009F057C0608138
:101710007181458456846784708825893689478914
:10172000508D81889288A388B488A0915102B0918D
:101730005202BA83A9831F92B7EFBF93882777FD20
:101740008095982F2E833B834C835D830E943F249A
:101750006B017C012E813B814C815D81C301B20113
:101760000E94F324A50194010E94F3249B01AC0183
:1017700060E070E080E090E40E94A4239B01AC0153
:10178000C701B6010E94F3249F938F937F936F93B9
:101790001F92EF81EF93A9E3B1E0BF93AF93E9818B
:1017A000FA81E00FF11F81818F9380818F930E94D6
:1017B00098290FB6F894DEBF0FBECDBF9FEF291A50
:1017C000390A0E5F1F4FA4E02A16310409F081CFB9
:1017D00072CE812C912C412C512C13E2712E02E4FB
:1017E000E02E01E0F02E07E411E08CE4A82E81E069
:1017F000B82E93E5C92E91E0D92E80914E0290E04B
:10180000042C02C0959587950A94E2F780FF72C177
:101810002EE7749CF001759CF00D1124E959FD4FE1
:10182000818D882309F470C1749CF001759CF00DC2
:101830001124E959FD4F818D813009F429C2749C2E
:10184000F001759CF00D1124E959FD4F818D823016
:1018500009F406C2BFEF4B1A5B0AE2E08E0E911C40
:10186000F4E04F16510449F626CEC12CD12CB3E238
:10187000FB2E0AE511E080914E0290E00C2C02C094
:10188000959587950A94E2F780FF36C12EE7FC9C78
:10189000F001FD9CF00D1124E959FD4F868D978DC7
:1018A000E0915102F09152029F938F931F922F93D8
:1018B0001F930F93C601880F991FE80FF91F8181AD
:1018C0008F9380818F930E9498292FEFC21AD20A9A
:1018D0000FB6F894DEBF0FBECDBF94E0C916D10499
:1018E00051F6E9CDC12CD12CE3E2FE2E02E611E047
:1018F00080914E0290E00C2C02C0959587950A9439
:10190000E2F780FFFBC02EE7FC9CF001FD9CF00D90
:101910001124E959FD4F828D938DA48DB58DE091F1
:101920005102F0915202BF93AF939F938F931F92F6
:101930002F931F930F93C601880F991FE80FF91F6C
:1019400081818F9380818F930E949829AFEFCA1A6B
:10195000DA0A0FB6F894DEBF0FBECDBFF4E0CF16A3
:10196000D10431F6A8CDE12CF12C0AE611E08091EA
:101970004E02970190E00E2C02C0959587950A942F
:10198000E2F780FFBDC08EE7E0915102F091520274
:101990003F932F931F928F931F930F93C701880F2D
:1019A000991FE80FF91F81818F9380818F930E9487
:1019B00098292FEFE21AF20A0FB6F894DEBF0FBE95
:1019C000CDBF94E0E916F10491F675CDE091510296
:1019D000F0915202A081B18189E0EAE7F1E0019043
:1019E0000D928A95E1F7E0915102F0915202A281A5
:1019F000B38189E0E3E8F1E001900D928A95E1F787
:101A0000E0915102F0915202A481B58189E0ECE8A5
:101A1000F1E001900D928A95E1F7E0915102F09189
:101A20005202A681B78189E0E5E9F1E001900D92CB
:101A30008A95E1F740CDC12CD12C53E2F52E03E776
:101A400011E080914E0290E00C2C02C09595879594
:101A50000A94E2F780FF56C02EE7FC9CF001FD9C43
:101A6000F00D1124E959FD4F85899689A789B08D1C
:101A7000E0915102F0915202BF93AF939F938F93E5
:101A80001F922F931F930F93C601880F991FE80F82
:101A9000F91F81818F9380818F930E949829AFEFE6
:101AA000CA1ADA0A0FB6F894DEBF0FBECDBFF4E053
:101AB000CF16D10431F6FFCCE0915102F0915202E1
:101AC000A081B18189E0EEE9F1E001900D928A9563
:101AD000E1F7E0915102F0915202A281B38189E0D5
:101AE000E7EAF1E089CF20E22F8300CE10E28CCD2F
:101AF00020E242CD20E28DCE20E2C9CE20E204CF0A
:101B000080E242CF20E2A9CFE0915102F09152024F
:101B1000FF92EF921F922F931F930F93E80DF91DE1
:101B200081818F9380818F932E830E9498290FB695
:101B3000F894DEBF0FBECDBF2E8176CEE09151026C
:101B4000F09152021F921F937F926F92EA0DFB1D3C
:101B500081818F9380818F930E9498290F900F909D
:101B60000F900F900F900F905ACD80819181E0914E
:101B70005102F09152029F938F931F928F818F9306
:101B8000A9E2B1E0BF93AF93E00FF11F81818F9382
:101B900080818F930E9498290FB6F894DEBF0FBE04
:101BA000CDBF0CCE60817181458456846784708876
:101BB000258936894789508D81889288A388B48881
:101BC000A0915102B0915202BA83A9831F92BFED36
:101BD000BF93882777FD8095982F2E833B834C8376
:101BE0005D830E943F246B017C012E813B814C81EF
:101BF0005D81C301B2010E94F324A50194010E94FA
:101C0000F3249B01AC0160E070E084EB93E40E945C
:101C1000A4239B01AC01C701B6010E94F3249F934A
:101C20008F937F936F931F92EF81EF93A0E3B1E0C7
:101C3000B4CDE0915102F09152021F921F93DF92B6
:101C4000CF92EA0DFB1D81818F9380818F930E943B
:101C500098290F900F900F900F900F900F90EACC53
:101C6000E0915102F0915202DF92CF921F922F9396
:101C70001F930F93E80DF91D81818F9380818F93BE
:101C80000E9498290FB6F894DEBF0FBECDBFE2CDFB
:101C9000E0915102F0915202BF92AF921F922F93A6
:101CA0001F930F93E80DF91D81818F9380818F938E
:101CB0002E830E9498290FB6F894DEBF0FBECDBFC9
:101CC0002E81BDCDE0915102F09152021F921F93DF
:101CD000FF92EF92EA0DFB1D81818F9380818F939C
:101CE0000E9498290F900F900F900F900F900F90D7
:101CF000ACCCCF93DF9380914D02823009F483C046
:101D0000833051F0813041F0000080914B0280938C
:101D10004D02DF91CF91089580914A020E94300ACE
:101D2000A0915102B0915202E0914F02F091500205
:101D30006D917C91808191810E941C29892B09F0F1
:101D400016C1A0915102B0915202E0914F02F09160
:101D5000500212966D917C911397828193810E941B
:101D60001C29892B09F0E0C0A0915102B0915202C8
:101D7000E0914F02F091500214966D917C9115976D
:101D8000848195810E941C29892B09F0AAC0A09109
:101D90005102B0915202E0914F02F091500216961A
:101DA0006D917C911797868197810E941C29892BC0
:101DB00009F4ABCF88EC0E94C206E0915102F09189
:101DC0005202C681D7818881882331F021960E94F2
:101DD000B00689918111FBCFA0915102B0915202BE
:101DE000E0914F02F091500216966D917C911797F9
:101DF000868197810E94252980914B0280934D0214
:101E0000DF91CF91089590914A02809149029817ED
:101E100009F47BCF809149020E94C50980E80E94A5
:101E2000C206E0915502F0915602C081D1818881AD
:101E3000882331F021960E94B00689918111FBCF51
:101E4000A0915502B0915602E0915302F0915402D4
:101E50006D917C91808191810E94252980EC0E9466
:101E6000C206E0915502F0915602C281D381888169
:101E7000882331F021960E94B00689918111FBCF11
:101E8000A0915502B0915602E0915302F091540294
:101E900012966D917C911397828193810E942529DE
:101EA0008091490280934A0280E090E028E0E0912E
:101EB0004F02F0915002E80FF91FA081B181E8ECC8
:101EC000F1E0322F01900D923A95E1F702968A30B7
:101ED000910569F780914B0280934D02DF91CF917C
:101EE000089580EC0E94C206E0915102F0915202E6
:101EF000C481D5818881882331F021960E94B00663
:101F000089918111FBCFA0915102B0915202E091D1
:101F10004F02F091500214966D917C911597848137
:101F200095810E94252933CF88E80E94C206E0915E
:101F30005102F0915202C281D3818881882331F00D
:101F400021960E94B00689918111FBCFA091510288
:101F5000B0915202E0914F02F091500212966D91B1
:101F60007C911397828193810E942529FDCE80E880
:101F70000E94C206E0915102F0915202C081D181CB
:101F80008881882331F021960E94B00689918111C1
:101F9000FBCFA0915102B0915202E0914F02F0911B
:101FA00050026D917C91808191810E942529C9CE3A
:101FB0003F924F925F926F927F928F929F92AF92D9
:101FC000BF92CF92DF92EF92FF920F931F93CF9326
:101FD000DF9380914802811104C0809160028823C0
:101FE00079F020914A02C0914D02C23009F440C0FC
:101FF0008C2F8D7F8130B1F01092480210926002D8
:10200000DF91CF911F910F91FF90EF90DF90CF90D4
:10201000BF90AF909F908F907F906F905F904F9008
:102020003F90089580914802811154C00000C33050
:1020300019F7809160028823F9F2F89420915F02E9
:1020400010925F0278942223B9F2E0914A02F0E004
:10205000EE0FFF1FE25DFE4F859194910296FC0109
:10206000849190E08B30910508F44EC00000C4CFFD
:1020700080916002811124C080E090E0820F911D68
:1020800027FD9A956BE070E00E94EA2287FD3AC036
:102090008093490280914802811128C080914802B2
:1020A000882309F4A9CF0E943F038111A5CF809115
:1020B0004E02882309F4A0CF83E080934B029CCF8B
:1020C000F89480915F0210925F027894992787FDBF
:1020D0009095D4CF0E943F0390E08B32910508F099
:1020E000A5CFFC01ED5BFF4F0C9435230E943F030D
:1020F0008111D4CF80914E028111D0CF81E08093A5
:102100004B02CCCF8AE0C4CFFC01E259FF4F0C94C4
:10211000352380914E0291E0892780934E0283E01F
:1021200080934B0284CF80914E0292E08927809366
:102130004E0283E080934B027ACF80914E0294E06E
:10214000892780934E0283E080934B0270CF809169
:102150004E0298E0892780934E0283E080934B02E1
:1021600066CF82E080934B0280914A028F5F80931A
:102170004A0210924C025BCF80914C0291E0892779
:1021800080934C0254CF44E6249F402D11245527C0
:1021900047FD509580E090E063E2822E992487FC11
:1021A000909420914E0230E0082E02C0359527957C
:1021B0000A94E2F720FF16C020914C02689FF001BC
:1021C000699FF00D1124E959FD4F222309F492C1B2
:1021D00020813181240F351F338322832281338173
:1021E00035832483019684309105D9F605CF0E946A
:1021F000490602CF0E94E205FFCEC0E0D0E043E2F4
:10220000742E822E992487FC9094A92CB92C80914D
:102210004E0290E00C2E02C0959587950A94E2F745
:1022200080FF30C07C9E80017D9E100D11240959D5
:102230001D4FF801C588D688E788F08CC501B40128
:102240000E943F249B01AC01C701B6010E943C23C0
:10225000F801658B768B878B908F00007C9E8001C8
:102260007D9E100D112409591D4FF801658976894D
:102270008789908D20E030E040E85FE30E94A02352
:1022800087FD43C12196C430D10509F0C0CFB4CE3B
:1022900080E090E063E2822E992487FC909441E0F4
:1022A00050E020914E0230E0082E02C0359527956F
:1022B0000A94E2F720FF1BC0689FF001699FF00DB0
:1022C0001124E959FD4F268D378D280D391D378F83
:1022D000268F0000689FF001699FF00D1124E959D5
:1022E000FD4F268D378D232B11F4578F468F019686
:1022F00084309105B1F680CE80E090E043E262E068
:1023000051E020914E0230E0082E02C0359527950D
:102310000A94E2F720FF11C0489FF001499FF00D99
:102320001124E959FD4F218D213009F402C108F42F
:10233000FEC0223009F0F9C0118E0196843091055B
:1023400001F75ACEC0E0D0E001E010E080914E02EB
:1023500090E00C2E02C0959587950A94E2F780FDD7
:10236000B8C02196C430D10589F746CEC0E0D0E090
:1023700053E2752E822E992487FC9094A92CB92CB7
:1023800080914E0290E00C2E02C0959587950A949C
:10239000E2F780FF21C07C9E80017D9E100D1124FC
:1023A00009591D4FF801C28CD38CE48CF58CC50102
:1023B000B4010E943F2420E030E040E251E40E945A
:1023C000A4239B01AC01C701B6010E943C23F80184
:1023D000628F738F848F958F2196C430D10581F6DB
:1023E0000BCEE22EFF24E7FCF094F4E62F02E0018E
:1023F0001124C12CD12C63E2362E822E992487FC25
:102400009094A92CB92C80914E0290E00C2C02C023
:10241000959587950A94E2F780FF24C03C9CF001D3
:102420003D9CF00D1124E959FD4F818D813009F457
:102430008DC008F480C08230A9F4428C538C648C27
:10244000758CC501B4010E943F2420E030E040E0DB
:102450005EE30E94F324AB01BC01930182018C2D49
:102460000E9485082FEFC21AD20A34E0C316D104A5
:1024700051F6C2CDC0E0D0E013E232E0F32E01E02D
:102480008C2F20914E0230E00C2E02C035952795FE
:102490000A94E2F720FF18C01C9FF0011D9FF00D69
:1024A0001124E959FD4F92A19130D9F1C0F1923038
:1024B000D1F512A21C9FF0011D9FF00D1124E959C6
:1024C000FD4F62A10E948B092196C430D105C1F64F
:1024D00093CD8C2F0E94040520914E02C8010C2E32
:1024E00001C0880F0A94EAF7282720934E020E9421
:1024F000790E37CF20813181280D391D3383228316
:1025000022813381358324836DCE80E090E0A0E882
:10251000BFE3F801858B968BA78BB08FB3CE02A358
:10252000C9CFF2A2C7CF0000C5CF000006CF518FA0
:1025300004CF618F02CF80914C02882309F1828100
:1025400093818C0F9D1F938382838CCF80914C024B
:10255000428C538C648C758C8823C9F0C501B401FE
:102560000E943F2420E030E040E251E40E94F32446
:10257000AB01BC01930182018C2D0E947F0772CFB9
:10258000828193818E0D9F1D938382836BCFC501C2
:10259000B4010E943F24AB01BC01930182018C2D48
:1025A0000E947F075FCF14B88FEF85B984B5826032
:1025B00084BD88EC87BDEEE6F0E080818260808398
:1025C00016BC85B5856085BD08958091480281114E
:1025D00002C08AE208950C943F0380916002882330
:1025E00039F0F89480915F0210925F027894089518
:1025F00080E00895EF92FF920F931F93CF93DF93A4
:1026000020E030E080E090E0E0914002F091410273
:10261000E20FF31F0190F081E02DE80FF91F108207
:1026200001968431910581F72E5F3F4F2C303105A3
:1026300049F78091590281110AC0E0E8FE2E8F2DE2
:10264000DF91CF911F910F91FF90EF9008958091AE
:1026500057029091580260ED71E00E941729909303
:10266000580280935702C5E6D2E0E12CA0E8FA2E8A
:10267000FE0105911491F8016591749180915702C2
:10268000909158020E94FC28892B31F4F80133966E
:10269000F490F8013296E490229682E0C939D80786
:1026A00039F71E1424F5C1E060ED71E080E090E0A0
:1026B0000E94172990935802809357026091570205
:1026C000709158022C2F332727FD30952150304828
:1026D000220F331FA0914002B0914102A20FB31FFD
:1026E0008D919C910E942529CF5FEC16ECF6E0912C
:1026F0005702F091580280E390E09183808310921A
:102700005A02109259028F2DDF91CF911F910F9194
:10271000FF90EF9008952F923F924F925F926F92A9
:102720007F928F929F92AF92BF92CF92DF92EF9261
:10273000FF920F931F93CF93DF93CDB7DEB7279709
:102740000FB6F894DEBF0FBECDBF1B015F834E8373
:102750004AE050E060E070E00E94C6266983643081
:10276000D0F46FEE71E08E819F810E941C29892B2D
:1027700009F4DCC068EF71E08E819F810E941C2902
:10278000892B09F475C06FEF71E08E819F810E94E3
:102790001C29892BC9F027960FB6F894DEBF0FBE0F
:1027A000CDBFDF91CF911F910F91FF90EF90DF9000
:1027B000CF90BF90AF909F908F907F906F905F90E1
:1027C0004F903F902F9008958981B3E28B9FF00145
:1027D0001124E959FD4F60817181458456846784D5
:1027E0007088258936894789508D81889288A38889
:1027F000B488882777FD8095982F2A833B834C8364
:102800005D830E943F246B017C012A813B814C81C6
:102810005D81C301B2010E94F324A50194010E94CD
:10282000F3249B01AC0160E070E080E090E40E9442
:10283000A4239B01AC01C701B6010E94F3249B01B4
:10284000AC01C1012A833B834C835D830E94FA273C
:102850002A813B814C815D810E943B23AB01BC01FD
:1028600000E010E020E83FE389810E94850893CFD3
:10287000A98193E2A99FF0011124E959FD4F8081BC
:102880009181458456846784708825893689478973
:10289000508D81889288A388B488BC01882777FDF1
:1028A0008095982F2A833B834C835D830E943F242D
:1028B0006B017C012A813B814C815D81C301B201A6
:1028C0000E94F324A50194010E94F3249B01AC0112
:1028D00060E070E084EB93E40E94A4239B01AC01D0
:1028E000C701B6010E94F3249B01AC01C1012A83F8
:1028F0003B834C835D830E94FA272A813B814C8174
:102900005D810E943B23AB01BC0100E010E020E8A8
:102910003FE389810E947F076FEF71E08E819F8185
:102920000E941C29892B09F036CF4ECF8981E82ED1
:10293000F12C4AE050E060E070E0C1010E94C62640
:1029400023E22E9DF0012F9DF00D1124E959FD4F3A
:102950007383628368EF71E08E819F810E941C29DE
:10296000892B09F010CF84CFAF92BF92CF92DF9224
:10297000FF920F931F93CF93DF935B01EA014AE02D
:1029800050E060E070E00E94C626F62E83E08F15CE
:10299000B0F06FEE71E0CE010E941C29892B09F482
:1029A00043C068EF71E0CE010E941C29892B19F108
:1029B0006FEF71E0CE010E941C29892B51F0DF914D
:1029C000CF911F910F91FF90DF90CF90BF90AF906C
:1029D0000895E0914002F0914102828193810E942A
:1029E000FA27AB01BC0100E010E020E83FE38F2DA7
:1029F0000E948508E4CFE0914002F091410282817B
:102A000093810E94FA27AB01BC0100E010E020E8AE
:102A10003FE38F2D0E947F076FEF71E0CE010E9490
:102A20001C29892B61F6D5CFE3E2FE9E800111249B
:102A300009591D4FF801C280D3804AE050E060E0A0
:102A400070E0C5010E94C6266C0D7D1DF8017383E0
:102A5000628368EF71E0CE010E941C29892B09F086
:102A6000A7CFC9CF1F93CF93DF93EB014AE050E08C
:102A700060E070E00E94C626162F4AE050E060E059
:102A800070E0CE010E94C626143080F4611107C0A8
:102A900060E0812FDF91CF911F910C943D0461E0A4
:102AA000812FDF91CF911F910C943D04DF91CF9145
:102AB0001F9108954F925F926F927F928F929F9293
:102AC000AF92BF92CF92DF92EF92FF920F931F933C
:102AD000CF93DF9300D000D0CDB7DEB77B014AE0C3
:102AE00050E060E070E00E94C626162F643008F0C7
:102AF00080C06FEE71E0C7010E941C29892B09F488
:102B0000D7C068EF71E0C7010E941C29892B09F426
:102B100085C06FEF71E0C7010E941C29892B09F461
:102B200082C083E2189FF0011124E959FD4F6081B2
:102B300071814584568467847088258936894789E0
:102B4000508D81889288A388B48800916102109189
:102B50006202882777FD8095982F29833A834B83DB
:102B60005C830E943F246B017C0129813A814B8167
:102B70005C81C301B2010E94F324A50194010E946B
:102B8000F3249B01AC0160E070E084EB93E40E94CD
:102B9000A4239B01AC01C701B6010E94F3249F93BB
:102BA0008F937F936F9385EF91E09F938F931F9304
:102BB0000F930E9498290FB6F894DEBF0FBECDBFC9
:102BC00080916102909162020F900F900F900F9090
:102BD000DF91CF911F910F91FF90EF90DF90CF90F9
:102BE000BF90AF909F908F907F906F905F904F902D
:102BF000089580916102909162021F921F9325EDCA
:102C000031E03F932F939F938F930E9498290F90C9
:102C10000F900F900F900F900F90D2CF93E2199FCB
:102C2000F001112482CF83E2189FF0011124E959A9
:102C3000FD4F608171814584568467847088258941
:102C400036894789508D81889288A388B4880091FD
:102C5000610210916202882777FD8095982F298361
:102C60003A834B835C830E943F246B017C01298162
:102C70003A814B815C81C301B2010E94F324A5011A
:102C800094010E94F3249B01AC0160E070E080E0BD
:102C900090E40E94A4239B01AC01C701B6010E94ED
:102CA000F3249F938F937F936F938CEF91E07DCF6D
:102CB00083E2189FF0011124E959FD4F20813181F1
:102CC00080916102909162023F932F932CEE31E04C
:102CD00098CF4AE050E060E070E00E94C626643081
:102CE00018F583E2689FF0011124E959FD4F228114
:102CF000338180819181E0916102F0916202281715
:102D0000390749F081E390E09183808380916102EB
:102D100090916202089580E390E091838083809196
:102D20006102909162020895809161029091620225
:102D30001F926F9325ED31E03F932F939F938F93D5
:102D40000E9498290F900F900F900F900F900F9066
:102D5000809161029091620208954AE050E060E043
:102D600070E00E94C6266430E0F4862F0E94C604FC
:102D700020916102309162029F938F9389EE91E0DE
:102D80009F938F933F932F930E9498290F900F90BA
:102D90000F900F900F900F908091610290916202BE
:102DA000089520916102309162021F926F9385ED28
:102DB00091E0E6CF4AE050E060E070E00E94C62675
:102DC000643008F583E2689FF0011124E959FD4F52
:102DD0002481358180916102909162023F932F930B
:102DE0002CEE31E03F932F939F938F930E9498296D
:102DF0000F900F900F900F900F900F9080916102A5
:102E000090916202089580916102909162021F92F6
:102E10006F9325ED31E0E6CF1F93CF93DF93EB0166
:102E20004AE050E060E070E00E94C626162F643051
:102E300098F44AE050E060E070E0CE010E94C626BF
:102E400023E2129FF0011124E959FD4F7583648339
:102E5000DF91CF911F91089580916102909162025C
:102E60001F921F9325ED31E03F932F939F938F93F4
:102E70000E94982980916102909162020F900F90B8
:102E80000F900F900F900F90DF91CF911F910C94A6
:102E900027044AE050E060E070E00E94C6266430FB
:102EA00038F583E2689FF0011124E959FD4F8585CB
:102EB0009685A785B0892091610230916202BF9307
:102EC000AF939F938F9382E092E09F938F933F9372
:102ED0002F930E9498298DB79EB708960FB6F89445
:102EE0009EBF0FBE8DBF80916102909162020895D6
:102EF00080916102909162021F926F9325ED31E003
:102F00003F932F939F938F930E9498290F900F9038
:102F10000F900F900F900F9080916102909162023C
:102F200008950F931F93CF93DF938B014AE050E0F6
:102F300060E070E00E94C626C62F6430A8F4C80185
:102F40000E94FA27D0E00E940C2423E22C9FF0017B
:102F50002D9FF00D1124E959FD4F75836483DF9196
:102F6000CF911F910F91089580916102909162021B
:102F70001F92CF9325ED31E03F932F939F938F9333
:102F80000E94982980916102909162020F900F90A7
:102F90000F900F900F900F90DF91CF911F910F9195
:102FA0000C9427044AE050E060E070E00E94C626DE
:102FB000643038F583E2689FF0011124E959FD4F30
:102FC00081899289A389B48920916102309162023A
:102FD000BF93AF939F938F9385E791E09F938F93D8
:102FE0003F932F930E9498298DB79EB708960FB6EE
:102FF000F8949EBF0FBE8DBF8091610290916202D6
:10300000089580916102909162021F926F9325ED65
:1030100031E03F932F939F938F930E9498290F90B5
:103020000F900F900F900F900F90809161029091F0
:10303000620208951F93CF93DF93EB014AE050E0C3
:1030400060E070E00E94C626162F643088F4CE013E
:103050000E94FA2723E2129FF0011124E959FD4F43
:10306000618B728B838B948BDF91CF911F9108952D
:1030700080916102909162021F921F9325ED31E0D1
:103080003F932F939F938F930E9498298091610281
:10309000909162020F900F900F900F900F900F90F1
:1030A000DF91CF911F910C9427044AE050E060E03B
:1030B00070E00E94C626643038F583E2689FF00114
:1030C0001124E959FD4F85899689A789B08D2091F2
:1030D000610230916202BF93AF939F938F9385E714
:1030E00091E09F938F933F932F930E9498298DB7E0
:1030F0009EB708960FB6F8949EBF0FBE8DBF809105
:103100006102909162020895809161029091620241
:103110001F926F9325ED31E03F932F939F938F93F1
:103120000E9498290F900F900F900F900F900F9082
:10313000809161029091620208951F93CF93DF9373
:10314000EB014AE050E060E070E00E94C626162FD6
:10315000643088F4CE010E94FA2723E2129FF00126
:103160001124E959FD4F658B768B878B908FDF910A
:10317000CF911F91089580916102909162021F92F8
:103180001F9325ED31E03F932F939F938F930E94E0
:10319000982980916102909162020F900F900F9098
:1031A0000F900F900F90DF91CF911F910C942704F7
:1031B0004AE050E060E070E00E94C626643008F506
:1031C00083E2689FF0011124E959FD4F268D378D68
:1031D00080916102909162023F932F9329EE31E03A
:1031E0003F932F939F938F930E9498290F900F9056
:1031F0000F900F900F900F9080916102909162025A
:10320000089580916102909162021F926F9325ED63
:1032100031E0E6CF1F93CF93DF93EB014AE050E01C
:1032200060E070E00E94C626162F643088F4CE015C
:103230000E94FA270E94112423E2129FF001112418
:10324000E959FD4F778F668FDF91CF911F910895D8
:10325000A0916102B091620283E1E5E0F2E00190A9
:103260000D928A95E1F78091610290916202DF915F
:10327000CF911F910C9427042F923F924F925F920F
:103280006F927F928F929F92AF92BF92CF92DF9276
:10329000EF92FF920F931F93CF93DF9300D000D054
:1032A000CDB7DEB71B018A014AE050E060E070E074
:1032B0000E94C626B62E23E0261708F4B1C0C80126
:1032C0000E94FA276B017C0168EB71E0C1010E944A
:1032D0001C29892B09F47CC00B2D10E093E2B99EC8
:1032E0009001112429593D4FD9011D968D909D9033
:1032F000AD90BC90509751964D905D906D907C90A4
:10330000549755968D919D910D90BC91A02D8983D8
:103310009A83AB83BC83C701B6019F7720E030E07E
:103320004AE754E40E94F3246B017C01A30192015B
:10333000C501B4010E94F32429813A814B815C814B
:103340000E94F3249B01AC01C701B6010E94A42393
:103350000E9456250E9411246B017C01CB0100972D
:1033600009F497C06031B7E27B0708F080C065ECD4
:1033700071E0C1010E941C29892B89F483E2809F9E
:10338000F001819FF00D1124E959FD4F81E0848700
:10339000D78EC68E8281938101969383828364EC5B
:1033A00071E0C1010E941C29892B19F583E2809FDD
:1033B000F001819FF00D1124E959FD4F82E08487CF
:1033C000D78EC68E8281938101979383828311C0A9
:1033D000F89483E2B89EF0011124E959FD4F148658
:1033E00083E090E0978F868F8081918193838283A1
:1033F00078940F900F900F900F90DF91CF911F91C5
:103400000F91FF90EF90DF90CF90BF90AF909F9083
:103410008F907F906F905F904F903F902F90089586
:10342000A0916102B091620283E1E5E0F2E00190D7
:103430000D928A95E1F780916102909162020F905E
:103440000F900F900F90DF91CF911F910F91FF90F0
:10345000EF90DF90CF90BF90AF909F908F907F9034
:103460006F905F904F903F902F900C942704A09105
:103470006102B091620283E1ECE2F2E001900D9210
:103480008A95E1F780916102909162020E9427047F
:103490006ECFA0916102B091620284E1E8E1F2E0B6
:1034A000C6CFF8940E945C030E94E20578940895C8
:1034B0001F920F920FB60F9211248F939F93EF9349
:1034C000FF938091C6009091590291112DC08D30CB
:1034D00011F18A3021F090915A02903488F1E091F4
:1034E0005702F091580280915A02E80FF11D1082A4
:1034F00081E08093590210925A028091C00085FFAA
:10350000FCCF86E08093C6008091C00085FFFCCF91
:103510008AE08093C600FF91EF919F918F910F9069
:103520000FBE0F901F9018958091C00085FFFCCFB3
:1035300085E18093C6008091C00085FFFCCFE8CF75
:10354000E0915702F091580290915A02E90FF11D53
:10355000808380915A028F5F80935A02DCCF1F9242
:103560000F920FB60F9211248F939F93EF93FF93B7
:1035700093B180914802811139C08091470288231C
:1035800009F43DC080914602891709F442C01092A7
:10359000460210924702E0914202F0914302EE0F80
:1035A000FF1FEE0FFF1FEF70FF27F0934302E09322
:1035B0004202199B05C0E260F0934302E09342028D
:1035C0001A9B05C0E160F0934302E0934202EE0FC4
:1035D000FF1FEA5EFB4FE491EE2341F080915F0212
:1035E0008E0F80935F0281E080936002FF91EF91E4
:1035F0009F918F910F900FBE0F901F901895809103
:103600004602891741F29093460281E08093470277
:10361000C2CF81E080934802BCCF1F920F920FB6B9
:103620000F9211242F923F924F925F926F927F924E
:103630008F929F92AF92BF92CF92DF92EF92FF92C2
:103640000F931F932F933F934F935F936F937F93AA
:103650008F939F93AF93BF93EF93FF93CF93DF939A
:10366000CDB7DEB76A97DEBFCDBF9E012F5F3F4F5C
:103670004901CE0141961C01A12CB12CC12CD12CA9
:10368000198E1A8E93E29C9D80019D9D100D112430
:1036900009591D4FF801E280F38080819181E81A79
:1036A000F90AF101E192F1921F01F8016585768531
:1036B000878590892189328943895489458856882C
:1036C0006788708C0E94F324A30192010E94F32466
:1036D000F40161937193819391934F01E114F1048B
:1036E00009F441C0F80180A191A1892B09F4F1C02E
:1036F00080A191A1019791A380A3668177818085A4
:10370000918520E030E040E85FE30E94EF24181646
:10371000ACF4F80182819381019693838283668160
:1037200077818085918520E030E040E85FE30E946A
:103730003B23F8016683778380879187F3E2FC9DC2
:103740008001FD9D100D112409591D4FF80166815E
:1037500077818085918520E030E040E85FEB0E9432
:10376000A02387FD19C19FEFC91AD90AE2E0AE0E66
:10377000B11CF4E0CF16D10409F084CF88B12A8DB2
:10378000822B88B931E23A95F1F7000088B1998D22
:10379000892B88B9EDE0EA95F1F7000018B89E0191
:1037A0002F5E3F4F6901CE0101965C0100E010E001
:1037B00023E2922E909E7001919EF00C1124F7014D
:1037C000E959FD4F7F018285882309F44DC0F60138
:1037D00080819181181619060CF097C0F70160815D
:1037E0007181F5014080518062807380882777FD68
:1037F0008095982F0E943F2420E030E040E85FE36E
:103800000E943C23A30192010E94EF24181684F425
:10381000F7011182108222803380C301B2010E941D
:1038200056250E940C24261A370AF7013382228279
:10383000909EF001919EF00D1124E959FD4F808179
:1038400091810196918380838485882329F08281E8
:103850009381019693838283909EF001919EF00D57
:103860001124E959FD4F12860F5F1F4FF4E0AF0E90
:10387000B11C22E0C20ED11C0430110509F09ACF10
:103880006A960FB6F894DEBF0FBECDBFDF91CF9121
:10389000FF91EF91BF91AF919F918F917F916F9128
:1038A0005F914F913F912F911F910F91FF90EF905A
:1038B000DF90CF90BF90AF909F908F907F906F9050
:1038C0005F904F903F902F900F900FBE0F901F90E2
:1038D000189521E0F8012287F7FC46C081E090E0CE
:1038E0000A2C01C0880F0A94EAF7398D382B398FDA
:1038F00083E28C9DF0018D9DF00D1124E959FD4F5F
:10390000868D978D91A380A32ECF892B09F4A4CF08
:10391000F70160817181882777FD8095982F0E943B
:103920003F2420E030E040E85FE30E943B2320E0BA
:1039300030E0A9010E94A02387FD44C0909EF001C1
:10394000919EF00D1124E959FD4F808191810197DD
:10395000918380838485882309F47ECF828193813B
:1039600001979383828378CFC5010196E1E0F0E06F
:1039700002C0EE0FFF1F8A95E2F7CF01FA8DF82BF8
:10398000FA8F81E090E00A2C01C0880F0A94EAF7D0
:10399000298D282B298FACCFF80182819381019743
:1039A00093838283668177818085918520E030E0F2
:1039B00040E85FE30E943C23F801668377838087B9
:1039C0009187D1CEF50160817181828193810E94BE
:1039D00056250E940C24F701718360832281338174
:1039E000260F371F33832283A9CFA3E1B0E0EBEF8B
:1039F000FCE10C94FE227C011B016A01FC01178290
:103A00001682838181FF66C3BE016F5F7F4F4B01CA
:103A1000F7019381F10193FD859193FF81911F013E
:103A2000882309F453C3853239F493FD859193FFBC
:103A300081911F01853239F4B70190E00E94662917
:103A400056016501E5CF10E0512C20E02032A0F4B2
:103A50008B3269F030F4803259F0833269F420619E
:103A60002CC08D3239F0803339F4216026C02260B9
:103A7000246023C0286021C027FD27C030ED380F07
:103A80003A3078F426FF06C0FAE01F9F300D11246B
:103A9000132F13C06AE0569E300D1124532E20625E
:103AA0000CC08E3221F426FD11C3206406C08C3672
:103AB00011F4206802C0883641F4F10193FD85912C
:103AC00093FF81911F018111C1CF9BEB980F933020
:103AD00018F42061805E06C09BE9980F933008F0CF
:103AE000AAC12F7E26FF16E02F73722E853621F491
:103AF000F22FF0647F2E08C0863621F4622F6068B2
:103B0000762E02C01111115077FE07C01C3348F405
:103B100044244394410E27E00BC0183030F4212F89
:103B200006C027E04CE3442E03C027E017E0412CF9
:103B3000560174E0A70EB11CF6016081718182818B
:103B40009381042DA4010E941C286C01098100FFAF
:103B500002C003FF06C071FC07C072FC08C0612CE4
:103B600008C03DE2632E05C02BE2622E02C090E247
:103B7000692E802F8C7099F1662011F084E001C0CD
:103B800083E0851510F0512C0BC0581A73FC08C047
:103B9000B70180E290E00E9466295A94C9F7F3CFFA
:103BA000662029F0B701862D90E00E94662903FD6A
:103BB00003C00AE211E002C006E211E0F72DF07145
:103BC0007F2EF8018491882309F476C27110805207
:103BD000B70190E00E9466290F5F1F4FF2CF77FE7A
:103BE0000FC04C0C04FF04C08A81813309F44A944D
:103BF000141474F5F8E0F41578F588E0482E2CC01C
:103C000076FC2AC0812F90E08C159D059CF06CEF0E
:103C1000C6166FEFD60674F0772D7068772E0AC03F
:103C2000E2E0F0E0EC0FFD1FE10FF11D8081803339
:103C300019F411501111F4CF77FE0EC044244394AF
:103C4000410E812F90E0C816D9062CF41C1904C02F
:103C50004424439401C010E077FE07C01C141D04E7
:103C60003CF496012F5F3F4F05C025E030E002C0D5
:103C700021E030E0662011F02F5F3F4F112331F03B
:103C8000412F50E04F5F5F4F240F351F452D50E00F
:103C90002417350714F4521A01C0512C872D89704E
:103CA00049F4552039F0B70180E290E00E9466297E
:103CB0005A94F7CF662029F0B701862D90E00E9434
:103CC000662973FC09C0552039F0B70180E390E004
:103CD0000E9466295A94F7CF77FE5FC09C2D8D2DE8
:103CE000D7FE02C090E080E0692E782E40E050E0E0
:103CF000C601841991099D878C8796012619370979
:103D0000280D391D812F90E0EE27FF27E81BF90BC6
:103D1000FF87EE87FFEF6F167F0669F4B7018EE22B
:103D200090E02B8B3A8B488B598B0E9466295989DE
:103D300048893A892B89C614D70454F06C857D854F
:103D4000661577052CF4F901E40FF51F818101C098
:103D500080E371E0671A71084F5F5F4FEE85FF8562
:103D60006E167F066CF0B70190E02B8B3A8B488B78
:103D7000598B0E9466292B893A8948895989CACF6B
:103D80006C147D0439F49A81963318F4953311F448
:103D900004FF81E3B70190E04BC08A81813309F0D1
:103DA0000F7EB70190E00E946629111105C074FED4
:103DB00018C085E490E017C0B7018EE290E00E9441
:103DC000662982E066246394680EF401E80FF11D11
:103DD0008081B70190E00E946629115041F3862D41
:103DE000F1CF85E690E0B7010E946629D7FC05C0B7
:103DF000C114D10439F404FF05C0D194C194D10891
:103E00008DE201C08BE2B70190E00E94662980E359
:103E10006AE0C616D1042CF08F5FFAE0CF1AD10801
:103E2000F7CFB70190E00E946629B701C601C0969E
:103E30000E94662941C1833631F0833779F083359A
:103E400009F058C021C0560172E0A70EB11CF6015E
:103E50008081898301E010E0640114C05601F2E022
:103E6000AF0EB11CF601C080D18026FF03C0612FC8
:103E700070E002C06FEF7FEFC6012B8B0E942C29F0
:103E80008C012B892F7715C05601F2E0AF0EB11CC3
:103E9000F601C080D18026FF03C0612F70E002C010
:103EA0006FEF7FEFC6012B8B0E940C298C012B89B1
:103EB0002068722E23FD1AC0852D90E0081719077F
:103EC000A8F4B70180E290E00E9466295A94F4CFEA
:103ED000F60177FC859177FE81916F01B70190E043
:103EE0000E94662951105A940150110901151105BB
:103EF00079F7E2C0843611F0893651F5560127FF73
:103F000009C0F4E0AF0EB11CF601608171818281BD
:103F100093810AC0F2E0AF0EB11CF601608171819D
:103F2000882777FD8095982F022F0F7697FF08C07E
:103F300090958095709561957F4F8F4F9F4F00684A
:103F40002AE030E0A4010E94BA29C82EC8183EC059
:103F5000022F853721F40F7E2AE030E01DC0097F53
:103F60008F3691F018F4883559F0B0C0803719F0C9
:103F7000883711F0ABC0006104FF09C0046007C0BE
:103F800024FF08C0066006C028E030E005C020E13C
:103F900030E002C020E132E0560107FF09C0F4E042
:103FA000AF0EB11CF601608171818281938108C0DE
:103FB000F2E0AF0EB11CF6016081718180E090E00B
:103FC000A4010E94BA29C82EC8180F7706FF0BC09B
:103FD000202F2E7FC11650F404FF0AC002FD08C036
:103FE000202F2E7E05C0DC2C202F03C0DC2C01C02E
:103FF000D12E24FF0DC0FE01EC0DF11D8081803318
:1040000011F4297E09C022FF06C0D394D39404C0C2
:10401000822F867809F0D39423FD13C020FF06C0B9
:104020001C2DD51418F4150D1D19D52CD51468F4B4
:10403000B70180E290E02B8B0E946629D3942B89F4
:10404000F5CFD51410F45D1801C0512C24FF12C017
:10405000B70180E390E02B8B0E9466292B8922FF19
:1040600017C021FF03C088E590E002C088E790E018
:10407000B7010CC0822F867859F021FD02C080E282
:1040800001C08BE227FD8DE2B70190E00E94662916
:10409000C11638F4B70180E390E00E946629115000
:1040A000F7CFCA94F401EC0DF11D8081B70190E0C7
:1040B0000E946629C110F5CF552009F4C2CCB70182
:1040C00080E290E00E9466295A94F6CFF70186813B
:1040D000978102C08FEF9FEF6396E2E10C941A2361
:1040E0008CE090E00E949F258093400290934102D3
:1040F0008C01C0E0D0E084E190E00E949F25F801AF
:10410000EC0FFD1F9183808380E090E0E0914002FE
:10411000F0914102EC0FFD1F0190F081E02DE80FBE
:10412000F91F108201968431910581F72296CC30D7
:10413000D10529F00091400210914102DCCF88E0C6
:1041400090E00E949F259093500280934F0288E058
:1041500090E00E949F259093520280935102C0E00C
:10416000D0E000914F021091500289E090E00E944F
:104170009F25F801EC0FFD1F918380830091510270
:104180001091520289E090E00E949F25F801EC0F07
:10419000FD1F9183808380E090E0E0914F02F091D9
:1041A0005002EC0FFD1F0190F081E02DE80FF91F88
:1041B0001082E0915102F0915202EC0FFD1F01902C
:1041C000F081E02DE80FF91F1082019689309105EA
:1041D00021F72296C830D10521F684E090E00E94B4
:1041E0009F25909354028093530284E090E00E94B4
:1041F0009F259093560280935502C0E0D0E0009135
:1042000053021091540281E190E00E949F25F80131
:10421000EC0FFD1F9183808300915502109156028F
:1042200081E190E00E949F25F801EC0FFD1F918332
:10423000808380E090E0E0915302F0915402EC0F13
:10424000FD1F0190F081E02DE80FF91F1082E09131
:104250005502F0915602EC0FFD1F0190F081E02D08
:10426000E80FF91F108201968131910521F72296FE
:10427000C430D10521F680E490E00E949F25909300
:1042800058028093570280E490E00E949F2590930B
:104290006202809361021092C50085E18093C400A0
:1042A0008091C10088698093C10088E290E00E94FB
:1042B0009F2580936502909366029C0180E090E0C8
:1042C00004C02091650230916602F901E80FF91FE0
:1042D0001082019688329105A1F700E413E833E7D4
:1042E000F32EC3E20E945C030E94D40600937C007C
:1042F00010937A0080917A00806480937A00809194
:104300007A0086FDFCCF80917800909179008091B1
:10431000B00082608093B000F092B3008091700092
:104320008260809370001092B2008091B10085602D
:104330008093B1000E94D312D0E061E08D2F0E94E3
:104340003D04DF5FD430C9F70E9449060E94790E10
:1043500078940E94D80F0E94790E0E94FA1290E081
:10436000FC01E058F109EA31F10510F00000F1CF4D
:10437000E758FF4F0C943523F8940E945C030E9489
:10438000E2057894F8940E948404ACCF80E090E039
:10439000C89FF001C99FF00D1124E959FD4F2081FC
:1043A000318133832283148601968430910581F70D
:1043B000D0CFE0914002F091410244815581628169
:1043C0007381808191810E943C19C3CFE0914002AA
:1043D000F091410262817381808191810E940A196A
:1043E000B8CFE0914002F0914102808191810E941A
:1043F000D8180E942704ADCFE0914002F09141020D
:1044000062817381808191810E949D18A2CFE09189
:104410004002F0914102808191810E9455180E94D2
:10442000270497CFE0914002F091410262817381AD
:10443000808191810E941A188CCFE0914002F09106
:104440004102808191810E94D2170E94270481CF6E
:10445000E0914002F09141026281738180819181FB
:104460000E94911776CFE0914002F0914102808145
:1044700091810E9449170E9427046BCFE09140026E
:10448000F091410262817381808191810E940C17B9
:1044900060CFE0914002F0914102808191810E94C1
:1044A000DA160E94270455CFE0914002F0914102B4
:1044B000808191810E94AD160E9427044ACFE0912D
:1044C0004002F0914102808191810E9469160E9410
:1044D00027043FCF0E9449063CCF0E94E20539CF16
:1044E000E0914002F091410262817381808191816B
:1044F0000E945A150E9427042CCFE0914002F091AF
:10450000410262817381808191810E94321521CFA5
:10451000E0914002F0914102808191810E94FE274A
:104520000E94040516CFE0914002F09141024481BF
:10453000558162817381808191810E94B41409CF79
:10454000E0914002F0914102448155816281738182
:10455000808191810E948B13FCCEE0914002F0910A
:104560004102A081B181FD0101900020E9F731975E
:10457000EA1BFB0B759708F0ECCE45E150E064E5D3
:1045800070E0CD010E94282AE4CE809161029091D2
:10459000620245E150E064E570E00E94182A8091D3
:1045A0006102909162020E942704D3CEAA1BBB1B1A
:1045B00051E107C0AA1FBB1FA617B70710F0A61B23
:1045C000B70B881F991F5A95A9F780959095BC0144
:1045D000CD01089597FB072E16F4009407D077FDC0
:1045E00009D00E94D62207FC05D03EF49095819513
:1045F0009F4F0895709561957F4F08952F923F9238
:104600004F925F926F927F928F929F92AF92BF92E2
:10461000CF92DF92EF92FF920F931F93CF93DF938E
:10462000CDB7DEB7CA1BDB0B0FB6F894DEBF0FBEEB
:10463000CDBF09942A88398848885F846E847D8438
:104640008C849B84AA84B984C884DF80EE80FD803A
:104650000C811B81AA81B981CE0FD11D0FB6F894B0
:10466000DEBF0FBECDBFED010895EE0FFF1F059019
:10467000F491E02D09945058BB27AA270ED075C19C
:1046800066D130F06BD120F031F49F3F11F41EF46D
:104690005BC10EF4E095E7FB51C1E92F77D180F3C0
:1046A000BA17620773078407950718F071F49EF52F
:1046B0008FC10EF4E0950B2EBA2FA02D0B01B9017E
:1046C00090010C01CA01A0011124FF27591B99F088
:1046D000593F50F4503E68F11A16F040A22F232F94
:1046E000342F4427585FF3CF469537952795A795E4
:1046F000F0405395C9F77EF41F16BA0B620B730B8B
:10470000840BBAF09150A1F0FF0FBB1F661F771FFB
:10471000881FC2F70EC0BA0F621F731F841F48F4B0
:10472000879577956795B795F7959E3F08F0B3CF36
:104730009395880F08F09927EE0F97958795089520
:10474000D9D008F481E008950CD00FC107D140F012
:10475000FED030F021F45F3F19F0F0C0511139C1A3
:10476000F3C014D198F39923C9F35523B1F3951BE2
:10477000550BBB27AA2762177307840738F09F5F82
:104780005F4F220F331F441FAA1FA9F333D00E2EF1
:104790003AF0E0E830D091505040E695001CCAF75E
:1047A00029D0FE2F27D0660F771F881FBB1F261723
:1047B00037074807AB07B0E809F0BB0B802DBF01F6
:1047C000FF2793585F4F2AF09E3F510568F0B6C00F
:1047D00000C15F3FECF3983EDCF3869577956795D3
:1047E000B795F7959F5FC9F7880F911D96958795A7
:1047F00097F90895E1E0660F771F881FBB1F6217C6
:1048000073078407BA0720F0621B730B840BBA0B83
:10481000EE1F88F7E095089504D06894B111D9C0CF
:104820000895BCD088F09F5790F0B92F9927B751C1
:10483000A0F0D1F0660F771F881F991F1AF0BA9564
:10484000C9F712C0B13081F0C3D0B1E00895C0C043
:10485000672F782F8827B85F39F0B93FCCF386955A
:1048600077956795B395D9F73EF4909580957095B7
:1048700061957F4F8F4F9F4F0895E89409C097FB34
:104880003EF490958095709561957F4F8F4F9F4F27
:104890009923A9F0F92F96E9BB279395F69587956B
:1048A00077956795B795F111F8CFFAF4BB0F11F42E
:1048B00060FF1BC06F5F7F4F8F4F9F4F16C08823D5
:1048C00011F096E911C0772321F09EE8872F762F0B
:1048D00005C0662371F096E8862F70E060E02AF04C
:1048E0009A95660F771F881FDAF7880F9695879538
:1048F00097F90895990F0008550FAA0BE0E8FEEF0D
:1049000016161706E807F907C0F012161306E40793
:10491000F50798F0621B730B840B950B39F40A268C
:1049200061F0232B242B252B21F408950A2609F46A
:10493000A140A6958FEF811D811D089597F99F676E
:1049400080E870E060E008959FEF80EC0895002417
:104950000A941616170618060906089500240A94E4
:1049600012161306140605060895092E0394000C6A
:1049700011F4882352F0BB0F40F4BF2B11F460FFF9
:1049800004C06F5F7F4F8F4F9F4F089557FD905822
:10499000440F551F59F05F3F71F04795880F97FB03
:1049A000991F61F09F3F79F08795089512161306BD
:1049B0001406551FF2CF4695F1DF08C016161706EC
:1049C0001806991FF1CF8695710561050894089521
:1049D000E894BB2766277727CB0197F908958ADFEC
:1049E00008F48FEF08950BD0C0CFB1DF28F0B6DF09
:1049F00018F0952309F0A2CFA7CF1124EACFC6DF84
:104A0000A0F3959FD1F3950F50E0551F629FF001E1
:104A1000729FBB27F00DB11D639FAA27F00DB11D3A
:104A2000AA1F649F6627B00DA11D661F829F2227C3
:104A3000B00DA11D621F739FB00DA11D621F839F4A
:104A4000A00D611D221F749F3327A00D611D231F20
:104A5000849F600D211D822F762F6A2F11249F576E
:104A600050408AF0E1F088234AF0EE0FFF1FBB1F91
:104A7000661F771F881F91505040A9F79E3F510530
:104A800070F05CCFA6CF5F3FECF3983EDCF38695E9
:104A900077956795B795F795E7959F5FC1F7FE2BDB
:104AA000880F911D9695879597F9089577DFE0F027
:104AB0009E37D8F09639B8F49E3848F4672F782F8F
:104AC0008827985FF9CF869577956795939595395F
:104AD000D0F3B62FB1706B0F711D811D20F4879537
:104AE00077956795939502C01CC073CF882371F4A6
:104AF000772321F09850872B762F07C0662311F477
:104B000099270DC09051862B70E060E02AF09A95AD
:104B1000660F771F881FDAF7880F9695879597F9A4
:104B200008959F3F31F0915020F4879577956795D0
:104B3000B795880F911D9695879597F90895CF930E
:104B4000DF938230910510F482E090E0E091F7026B
:104B5000F091F80220E030E0A0E0B0E0309739F1C9
:104B60004081518148175907B8F04817590771F427
:104B700082819381109729F013969C938E931297BC
:104B80002CC09093F8028093F70227C021153105BD
:104B900031F04217530718F0A901DB0101C0EF0102
:104BA0009A01BD01DF010280F381E02DD7CF2115ED
:104BB0003105F9F0281B390B2430310580F48A8146
:104BC0009B816115710521F0FB019383828304C0F1
:104BD0009093F8028093F702FE01329644C0FE01E2
:104BE000E20FF31F81939193225031093983288377
:104BF0003AC02091F5023091F602232B41F4209126
:104C00000201309103013093F6022093F5022091C6
:104C10000001309101012115310541F42DB73EB756
:104C20004091040150910501241B350BE091F502E0
:104C3000F091F602E217F307A0F42E1B3F0B2817A2
:104C4000390778F0AC014E5F5F4F2417350748F005
:104C50004E0F5F1F5093F6024093F502819391939C
:104C600002C0E0E0F0E0CF01DF91CF910895CF9353
:104C7000DF93009709F487C0FC01329713821282F8
:104C8000C091F702D091F802209781F42081318100
:104C9000280F391F8091F5029091F6028217930731
:104CA00079F5F093F602E093F5026DC0DE0120E0A5
:104CB00030E0AE17BF0750F412964D915C911397F8
:104CC0009D014115510509F1DA01F3CFB383A283A8
:104CD00040815181840F951F8A179B0771F48D9134
:104CE0009C911197840F951F029691838083129651
:104CF0008D919C911397938382832115310529F41B
:104D0000F093F802E093F7023EC0D9011396FC93AA
:104D1000EE9312974D915D91A40FB51FEA17FB0713
:104D200079F480819181840F951F0296D9011196A3
:104D30009C938E938281938113969C938E9312976A
:104D4000E0E0F0E08A819B81009719F0FE01EC0120
:104D5000F9CFCE01029628813981820F931F2091CD
:104D6000F5023091F6022817390769F4309729F4D3
:104D70001092F8021092F70202C013821282D093AE
:104D8000F602C093F502DF91CF9108952F923F92E2
:104D90005F926F927F928F929F92AF92BF92CF92CB
:104DA000DF92EF92FF920F931F93CF93DF938B01CC
:104DB000EA016115710521F0DB018C9311969C933A
:104DC000209739F09E01225031092332310508F035
:104DD000FBC07C016701BFEFCB1ADB0A5601F7016C
:104DE0006080862D90E00E94F428892B11F07601D6
:104DF000F1CFFDE26F120AC0570182E0A80EB11C8C
:104E0000D70111966C90772473940BC0BBE26B12A0
:104E100007C05701E2E0AE0EB11CD70111966C90AD
:104E2000712CCE018F7E892B89F4B0E36B1222C0E6
:104E3000F50180818F7D883541F56180F2E0AF0E0C
:104E4000B11C872D8260782EC0E1D0E0C830D1053A
:104E5000F1F04CF4C230D10511F5C12CD12CE12C6C
:104E6000B0E4FB2E2FC0CA30D10531F0C031D105DE
:104E700021F115C0209751F7CAE0D0E0ACECCA2E62
:104E8000DC2CEC2CACE0FA2E1DC02097F9F6C8E023
:104E9000D0E0C12CD12CE12CF0E1FF2E13C060E05A
:104EA00070E080E090E89E01442737FD4095542F44
:104EB0000E94E72B69017A0105C0C12CD12CE12C9D
:104EC000E8E0FE2EF50160E020E030E0A9014E01AF
:104ED000AA2497FCA094BA2C1F0170ED572E560CF3
:104EE000A9E0A51570F48FEB860D8A3118F499ECC2
:104EF000592E06C08FE9860D8A3130F589EA582E81
:104F0000560C852D90E08C179D07F4F467FD18C0B2
:104F1000C216D306E406F50680F0C501B4010E946E
:104F2000D72B9B01AC01250D311D411D511D213099
:104F300031054105B0E85B0710F06FEF01C061E09B
:104F40003196D1016C90C8CF872D81700115110564
:104F500071F0662329F03197D801ED93FC9307C0D7
:104F600071FE19C03297D801ED93FC9314C067FF0E
:104F700012C0882329F020E030E040E050E804C06F
:104F80002FEF3FEF4FEF5FE782E290E09093FA025E
:104F90008093F90216C0882341F0509540953095D2
:104FA00021953F4F4F4F5F4F0CC057FF0AC082E221
:104FB00090E09093FA028093F9022FEF3FEF4FEFCA
:104FC0005FE7B901CA0104C060E070E080E090E0F2
:104FD000DF91CF911F910F91FF90EF90DF90CF90D5
:104FE000BF90AF909F908F907F906F905F903F9019
:104FF0002F900895662777270C944A2AFC0188276A
:105000009927E89421912032E9F3293010F02E30CD
:10501000C8F32B3241F02D3239F4689404C00E9459
:105020005E29820F911D219120532A30C0F31EF476
:10503000909581959F4F0895283008F027E03327F9
:10504000DA01990F311D87FD9160009661057105A8
:1050500039F432602E5F3D9330E32A95E1F70895ED
:105060009F3F30F080387105610509F03C5F3C5F7F
:105070003D93913008F08068911DDF93CF931F938B
:105080000F93FF92EF92192F987F9695E92F96959F
:105090009695E90FFF27E057FB4F99273327EE241A
:1050A000FF24A701E70105900894079428F4360F20
:1050B000E71EF81E491F511D660F771F881F991F95
:1050C0000694A1F70590079428F4E70EF81E491FEF
:1050D000561FC11D770F881F991F661F0694A1F7E1
:1050E0000590079428F4F80E491F561FC71FD11DBD
:1050F000880F991F661F771F0694A1F705900794E4
:1051000020F4490F561FC71FD81F990F661F771F1E
:10511000881F0694A9F784911095177041F0D695D1
:10512000C79557954795F794E7941A95C1F7E6E325
:10513000F4E06894159015913591659195910590DD
:105140007FE27395E118F10A430B560BC90BD009A6
:10515000C0F7E10CF11E431F561FC91FD01D7EF47E
:10516000703311F48A95E6CFE894015030F0080FBF
:105170000AF40027021708F4202F2395022F7A3310
:1051800028F079E37D932A95E9F710C07D932A955D
:1051900089F6069497956795379517951794E118B2
:1051A000F10A430B560BC90BD00998F023957E9159
:1051B00073957A3308F070E37C932013B8F77E91EF
:1051C00070617D9330F0839571E37D9370E32A9550
:1051D000E1F71124EF90FF900F911F91CF91DF9194
:1051E000992787FD909508959111BBC2803219F0DF
:1051F00089508550D0F70895FB01DC018D91059011
:1052000080190110D9F3990B0895FB01DC01059079
:105210000D920020E1F70895FC0105906150704067
:105220000110D8F7809590958E0F9F1F089544E444
:1052300052E00E9437290895FB01DC018D91019015
:1052400080190110D9F3990B0895FB01DC0101903D
:105250000D920020E1F70895FC016150704001902B
:105260000110D8F7809590958E0F9F1F0895FA0131
:10527000A191B081009719F41097E1F0CD01DC0104
:10528000CD010D90002011F4C00113C0FB0121914C
:10529000222319F02015D9F7F3CFFB012191201516
:1052A00019F41E92119606C02223C1F70D9000201A
:1052B000A1F7D001FA01A193B08308957AE0979FF6
:1052C000902D879F802D910D112408950F931F938A
:1052D000CF93DF93182F092FEB018B8181FD03C042
:1052E0008FEF9FEF20C082FF10C04E815F812C8125
:1052F0003D81421753077CF4E881F9819F012F5FBC
:105300003F4F39832883108306C0E885F985812FB4
:105310000995892B29F72E813F812F5F3F4F3F83CE
:105320002E83812F902FDF91CF911F910F910895A0
:10533000AEE0B0E0EEE9F9E20C940C230D891E8991
:1053400086E08C831A8309838FEF9FE79E838D838A
:10535000AE01475E5F4F6F89788DCE0101960E9446
:10536000F51CEF81F885E00FF11F10822E96E4E026
:105370000C942823FA01AA27283051F1203181F119
:10538000E8946F936E7F6E5F7F4F8F4F9F4FAF4F4D
:10539000B1E03ED0B4E03CD0670F781F891F9A1F60
:1053A000A11D680F791F8A1F911DA11D6A0F711D14
:1053B000811D911DA11D20D009F468943F912AE020
:1053C000269F11243019305D3193DEF6CF01089508
:1053D000462F4770405D4193B3E00FD0C9F7F6CF39
:1053E000462F4F70405D4A3318F0495D31FD405201
:1053F000419302D0A9F7EACFB4E0A6959795879597
:1054000077956795BA95C9F7009761057105089575
:105410009B01AC010A2E0694579547953795279521
:10542000BA95C9F7620F731F841F951FA01D0895B9
:10543000DC01CB01FC01F999FECF06C0F2BDE1BD54
:10544000F89A319600B40D9241505040B8F7089543
:10545000DC01A40FB51F4150504048F0CB01840F30
:10546000951F2E910E94392A41505040D0F708953F
:10547000262FF999FECF92BD81BDF89A019700B40D
:10548000021639F01FBA20BD0FB6F894FA9AF99AAD
:105490000FBE0895A0E0B0E0E0E5FAE20C9400232E
:1054A0008B016115710521F0DB018C9311969C93A2
:1054B000EC015E01BFEFAB1ABB0A7501C8808C2DF1
:1054C00090E00E94F428892B11F0E501F2CFEDE283
:1054D000CE1208C07E01F2E0EF0EF11CC980DD247F
:1054E000D39409C02BE2C21205C07E0142E0E40E53
:1054F000F11CC980D12CE701219743E050E068E31B
:1055000075E0CE010E94B42B892BD1F4E7012296DD
:1055100045E050E063E375E0CE010E94B42B892B97
:1055200011F4E70127960115110519F0D801CD9363
:10553000DC93D11008C160E070E080E89FE70CC107
:1055400043E050E060E375E0CE010E94B42B892B6C
:1055500059F40115110509F4FBC0B2E0EB0EF11C82
:10556000F801F182E082F4C0F70160E070E0CB0165
:10557000C0E0D0E07F01A0EDAA2EAC0C29E02A15F6
:1055800030F14D2D4260B42E2D2D2870D2FE04C076
:10559000211125C0219623C021112197A5E0B0E05B
:1055A0009B01AC010E94CC2B660F771F881F991FAF
:1055B0006A0D711D811D911D6839A9E97A078A0755
:1055C000A9E19A0760F0BD2DB660BB2E08C02EEF92
:1055D000A2120AC0D3FC50C04D2D4860B42E3196A3
:1055E000D701CC90DB2CC6CF2C2D2F7D253409F094
:1055F00043C0A081AD3241F4BD2DB061DB2E7F01EF
:1056000022E0E20EF11C0CC07F01AB3231F04FEF13
:10561000E41AF40A21E030E006C0A2E0EA0EF11C30
:10562000A18122E030E0A053AA3018F0E21AF30A78
:1056300023C0F70120E030E02038BCE03B075CF4F9
:10564000A901440F551F440F551F240F351F220F6A
:10565000331F2A0F311DAF014F5F5F4F7A01A081C9
:10566000A053AA3010F4FA01E7CFD4FE03C031955D
:1056700021953109C20FD31FD1FE09C001151105B3
:1056800031F0E1E0EE1AF108D801ED92FC920E94AF
:105690003D242D2D2370233019F06B017C0106C0B1
:1056A0006B017C01F7FAF094F7F8F09420E030E019
:1056B000A901C701B6010E94A023882309F440C0B4
:1056C000D7FF06C0D195C195D1090FE415E002C0FE
:1056D00007E615E04801B8E18B1A910890E2A92E7F
:1056E000B12CF8014590559065907490CA15DB0572
:1056F0005CF0A3019201C701B6010E94F3246B0183
:105700007C01CA19DB09F2CF04501109B594A794A2
:105710000815190531F78E2D880F8F2D881F8F3FA3
:1057200049F020E030E0A901C701B6010E94A023A2
:10573000811106C082E290E09093FA028093F90210
:10574000C701B60109C060E070E080E89FEF04C0C7
:1057500060E070E080EC9FE7CDB7DEB7E0E10C944D
:105760001C23992788270895FB01DC0141505040F4
:1057700088F08D9181341CF08B350CF4805E65913E
:1057800061341CF06B350CF4605E861B611171F3A3
:10579000990B0895881BFCCF0E94092CA59F900DA2
:1057A000B49F900DA49F800D911D11240895DB01DD
:1057B0008F939F930E94CC2BBF91AF91A29F800D9E
:1057C000911DA39F900DB29F900D11240895A1E209
:1057D0001A2EAA1BBB1BFD010DC0AA1FBB1FEE1F6B
:1057E000FF1FA217B307E407F50720F0A21BB30BB6
:1057F000E40BF50B661F771F881F991F1A9469F732
:1058000060957095809590959B01AC01BD01CF018D
:105810000895A29FB001B39FC001A39F700D811D89
:105820001124911DB29F700D811D1124911D0895A9
:04583000F894FFCF1A
:105834000000FB02200000000A00332E5049202003
:10584400556E00692053747574742E005665727316
:10585400696F6E0076312E30002563256473740001
:105864002563252E31662563002563252E336625A1
:105874006300737465700025632573006465677243
:1058840065650072616469616E0025632564206D3D
:1058940073002563252E3166780025634D6F7420CF
:1058A4002564002563252E306600536176652061EA
:1058B4006C6C002063757272656E7400636F6E6643
:1058C40069677572006174696F6E732020004C6F94
:1058D400616420616C6C0020736176656420200033
:1058E400256325647300256353544F500025634397
:1058F40057002563434357006E6F20746578740026
:10590400202C3B09006572723A20756E6B6E6F77BE
:105914006E206D6F746F723A2025640025642073C5
:1059240074657073002566206465670025662070C1
:1059340069002566006572723A20756E6B6E6F772A
:105944006E206D6F746F72006572723A2074696DA7
:105954006520746F6F2073686F7274006572723A99
:105964002074696D6520746F6F206C6F6E67000022
:00000001FF
