:100000000C9489020C94A6020C94A6020C94A602ED
:100010000C94A6020C94A6020C94A6020C94A602C0
:100020000C94A6020C94731B0C94A6020C94A602CA
:100030000C94A6020C94A6020C94A6020C94A602A0
:100040000C94151B0C94A6020C94A6020C94A60208
:100050000C94CB1A0C94A6020C94A6020C94A60243
:100060000C94A6020C94A6020C94A6020C94A60270
:10007000A80BDD0B2A0C760CB30CF40C270DA40A8C
:10008000680D220B5F0B1912ED114F127F116B11CE
:100090000B110611F710BA11AB12EA21FC22E32270
:1000A000D522C722BB22AF22A1229D2299228D22D6
:1000B0008122752269225D225122452239222D2278
:1000C000212215220922EE21E4210E236E616E0009
:1000D000696E6600F801DE01C901AF0197017E017A
:1000E000650146012A010901EA00ED000A53657421
:1000F00020636F6E7374616E740A616E67756C61F4
:100100007220737065656400000C010944656669BE
:100110006E65206F70746963616C0A7A65726F2016
:10012000706F736974696F6E00002D01084C6F6108
:1001300064206C6173740A636F6E666967757261BF
:1001400074696F6E0000490107536176652063751D
:100150007272656E740A636F6E6669677572617438
:10016000696F6E00006801064368616E6765206D07
:100170006F746F720A737562737465700000810129
:100180000552756E207A65726F0A63616C696272DE
:100190006174696F6E00009A010453657420737472
:1001A00065700A6D756C7469706C6965720000B277
:1001B00001034368616E676520737465700A776137
:1001C00069742074696D650000CC01024368616E3A
:1001D000676520737465700A756E69740000E101CB
:1001E000014368616E6765206D6F746F720A706F8E
:1001F000736974696F6E0000FB01004D6F746F725C
:10020000204472697665720A200000B603AC03A12F
:100210000397038A037D037003640358034A033C76
:10022000032E031F030C03F902E702D502C502B532
:1002300002A4029302820271025E024C023F024358
:1002400002009953544F50414C4C0000500200980A
:10025000464143544F52595245534554000062029F
:100260000397534554434F4E535453504545440010
:1002700000750202965345545741495454494D451F
:100280000000860201954745545741495454494D51
:100290004500009702029453455453554253544528
:1002A00050530000A80201934745545355425354FC
:1002B0004550530000B902029253455446554C4CE8
:1002C000524F540000C902019147455446554C4CC9
:1002D000524F540000D902029053455447454152B1
:1002E000524154494F0000EB02018F4745544745A6
:1002F0004152524154494F0000FD02028E53455471
:100300004F50545A45524F504F5300001003018D27
:100310004745544F50545A45524F504F53000023B5
:1003200003018C474554414E414C4F470000320376
:10033000018B49534D4F56494E4700004003008AF8
:100340004C4F4144434F4E4600004E0300895341F9
:100350005645434F4E4600005C03028847455450C3
:100360004F53000068030287454E41424C45000050
:10037000740301865A45524F52554E0000810303C3
:10038000854D4F564552454C00008E0303844D4F1A
:10039000564541425300009B0301832A49444E00C5
:1003A00000A50300822A49444E3F0000B0030081AB
:1003B0002A5253540000BA030080000000000000DD
:1003C000FFFF00000000000000000100010000002D
:1003D000000000000000FFFF0000000000407A1055
:1003E000F35A00A0724E18090010A5D4E80000E8E6
:1003F0007648170000E40B54020000CA9A3B000044
:1004000000E1F505000080969800000040420F00D2
:100410000000A08601000000102700000000E80393
:10042000000000006400000000000A00000000005E
:100430000100000000002C76D888DC674F0823DF1D
:10044000C1DFAE59E1B1B796E5E3E453C63AE651F0
:10045000997696E8E6C28426EB898C9B62ED407C17
:100460006FFCEFBC9C9F40F2BAA56FA5F490055AB3
:100470002AF75C936B6CF9676DC11BFCE0E40D47D8
:10048000FEF520E6B500D0ED902E030094357705FB
:100490000080841E080000204E0A000000C80C33B3
:1004A0003333330F986E12831141EF8D2114893B42
:1004B000E65516CFFEE6DB18D1844B381BF77C1DC2
:1004C000901DA4BBE424203284725E228100C9F115
:1004D00024ECA1E53D274E414E494E495459494E21
:1004E00046CDCCCC3D0AD7233C17B7D13877CC2B9F
:1004F000329595E6241FB14F0A000020410000C844
:100500004200401C4620BCBE4CCA1B0E5AAEC59DC4
:10051000740011241FBECFEFD0E1DEBFCDBF12E0CB
:10052000A0E0B1E0EAEBF8E502C005900D92A63537
:10053000B107D9F713E0A6E5B2E001C01D92A531DD
:10054000B107E1F70E94D6200C945B2C0C940000BC
:100550009BB19F709BB99BB1807F892B8BB95B9AB4
:1005600085E88A95F1F700005B980895CF93DF93B3
:10057000E8B190E0AC01440F551F4F5F5F4F21E0A1
:1005800030E0042E01C0220F0A94EAF777FD42C042
:1005900020952E2328B977FD41C061157105B9F169
:1005A000AC01440F551F21E030E001C0220F4A95F5
:1005B000EAF7B22FA22FA09540E050E023E2289F57
:1005C000F001299FF00D1124E556FD4F88B18B2BCA
:1005D00088B98DE08A95F1F7000088B18A2388B93F
:1005E00080819181892B71F080E090E0C7E8D3E1B0
:1005F0002197F1F700C00000019620813181821718
:100600009307A0F34F5F5F4F46175707F9F6DF9147
:10061000CF910895E22BE8B977FFBFCF719561952F
:100620007109BBCF80915C02809587FD04C086FF75
:1006300004C086E0089587E0089585FF02C085E044
:10064000089584FF02C084E0089583FF02C083E020
:10065000089580FD02C08AE2089580E008956F92B7
:100660007F928F929F92AF92BF92CF92DF92EF9242
:10067000FF920F931F93CF93DF9320E030E043E28C
:10068000642E55E5852E982CA82C50E4B52EC12C4F
:10069000D12C68ECE62E63E4F62E40E050E060E8F2
:1006A00070E480E090E0A0E8BFE37724739403E077
:1006B00010E0629EF001639EF00D1124E358FD4F9F
:1006C000118210821382128215821482168217827E
:1006D0001086118612861386148685869686A786CE
:1006E000B08AC18AD28AE38AF48A458B568B678B9B
:1006F000708F828F938FA48FB58F718E178F068F17
:10070000C68DD78DD1A3C0A312A22F5F3F4F243037
:10071000310579F6E0916D02F0916E0280E390E090
:10072000918380831092700210926F02E0917702A1
:10073000F09178029183808310927A02109279026C
:1007400010920D0310920E03109272021092710219
:1007500088E08093730210925F028AE280936002C5
:1007600092E0909361021092620280936302109271
:10077000640210925C0210925D0210925E0210926E
:1007800074021092750210927602DF91CF911F9140
:100790000F91FF90EF90DF90CF90BF90AF909F9020
:1007A0008F907F906F9008951092C50085E180939F
:1007B000C400E1ECF0E0808188698083089580E4E2
:1007C00080937C0083E880937A0080917A00806433
:1007D00080937A0080917A0086FDFCCF809178002A
:1007E00090917900089520E030E080E090E0E09181
:1007F0005602F09157020190F081E02DE80FF91FA9
:10080000108201968431910591F780E090E0E091AB
:100810006502F0916602E20FF31F0190F081E02D76
:10082000E80FF91F1082E0916702F0916802E20F71
:10083000F31F0190F081E02DE80FF91F108201965F
:100840008930910521F780E090E0E0916902F09114
:100850006A02E20FF31F0190F081E02DE80FF91F0B
:100860001082E0916B02F0916C02E20FF31F019095
:10087000F081E02DE80FF91F10820196813191057A
:1008800021F7E0916D02F0916E0280E4DF01982F74
:100890001D929A95E9F7E0917702F0917802DF01D5
:1008A000982F1D929A95E9F7E0910903F0910A03B8
:1008B000DF011D928A95E9F7E0917B02F0917C02BD
:1008C00088E2DF011D928A95E9F708959091C000B2
:1008D00095FFFCCF8093C6000895DC012C91222364
:1008E00059F0FC0131968091C00085FFFCCF209328
:1008F000C60021912111F7CF8091C00085FFFCCF68
:100900008AE08093C600E0917702F091780280E45B
:10091000DF011D928A95E9F7089591B1A82FB0E003
:100920009D012C5F3F4F41E050E0FA0102C0EE0F05
:10093000FF1F2A95E2F79F019E2B91B96130C9F004
:1009400092B19E2B92B993E29A9FF0019B9FF00D7A
:100950001124E358FD4F138697B101C0440F8A95C7
:10096000EAF74095492347B987B12095282327B94D
:10097000089532B1922F9095932392B993E29A9F62
:10098000F0019B9FF00D1124E358FD4F638797B151
:1009900001C0440F8A95EAF7942B97B987B1822B4F
:1009A00087B9089560E080E00E948D0460E081E0F6
:1009B0000E948D0460E082E00E948D0460E083E08C
:1009C0000E948D0415BC1092B1000895E0EBF0E098
:1009D00080818260808383E78093B300E0E7F0E06A
:1009E0008081826080831092B200E1EBF0E0808130
:1009F0008560808308956115710511F00C94B6022D
:100A0000089593E2899FF0011124E358FD4F8081FE
:100A10009181860F911D67FD9A95938382838281D0
:100A2000938195838483089590917C008F71907E4B
:100A3000892B80937C001092720210927102809137
:100A400073028823F9F040E080917A0080648093FB
:100A50007A0080917A0086FDFCCF809178005091D9
:100A60007900209171023091720290E0952B820FF3
:100A7000931F90937202809371024F5F8091730273
:100A8000481710F380917102909172026091730285
:100A900070E00E942223CB0108956F927F929F9273
:100AA000AF92BF92CF92DF92EF92FF920F931F937C
:100AB000CF93DF93982E8091B100887F8093B1000F
:100AC000C92DD0E083E2989E50011124F501E3582E
:100AD000FD4F5F01068D178D618972898389948925
:100AE0002585368547855089C588D688E788F08C66
:100AF0000E943F25A70196010E943F256B017C01C2
:100B000081E090E0F501978F868F05C068E37FEF65
:100B1000892D0E94B602892D0E941405C297B0F358
:100B2000C701B6010E94A2250E945D245B01612CD1
:100B3000712C0DC061E070E0892D0E94B602892DF4
:100B40000E941405C29730F0FFEF6F1A7F0A6A14F3
:100B50007B0481F720E030E040E85EE3C701B601A6
:100B60000E943F250E94A2250E945824611571050C
:100B700009F06DC020E030E040E45FE3C701B6015A
:100B80000E943F250E94A2250E945824685C71099A
:100B90006115710509F057C083E28C9FF0018D9FAC
:100BA000F00D1124E358FD4F85E090E0978F868F7C
:100BB00005C061E070E0892D0E94B602892D0E9477
:100BC0001405C397B0F783E28C9FF0018D9FF00D61
:100BD0001124E358FD4F178F068F648175816115CD
:100BE000710519F0892D0E94B60283E28C9FF001F5
:100BF0008D9FF00D1124E358FD4F11821082138256
:100C000012828091B00082608093B00083E780936D
:100C1000B300809170008260809370001092B200E7
:100C20008091B10085608093B100DF91CF911F91D9
:100C30000F91FF90EF90DF90CF90BF90AF909F907B
:100C40007F906F900895892D0E94B602A5CF892DBF
:100C50000E94B6028FCFCF92DF92EF92FF920F9356
:100C60001F93CF93DF93F894C1E8D2E078E0C72ECA
:100C700070E0D72E00E010E0E12CF12CB701645BAE
:100C80007F4F42E050E0CE010E946B2AB801645CC5
:100C90007F4F44E050E0CE0109960E946B2AB801D4
:100CA000645D7F4F44E050E0CE010D960E946B2AB8
:100CB000B801645E7F4F44E050E0CE0141960E944F
:100CC0006B2AB801645F7F4F44E050E0CE01469646
:100CD0000E946B2A41E050E0B601CE0145960E9489
:100CE0006B2AB7016050704042E050E0CE014A9656
:100CF0000E946B2AA39682E0E80EF11C0C5F1F4F46
:100D00008FEFC81AD80A88E0E816F10409F0B6CFC8
:100D10007894DF91CF911F910F91FF90EF90DF902A
:100D2000CF900895CF92DF92EF92FF920F931F938F
:100D3000CF93DF93F894C1E8D2E0E8E0CE2EE0E074
:100D4000DE2E00E010E0E12CF12CB701645B7F4F58
:100D500042E050E0CE010E945B2AB801645C7F4F04
:100D600044E050E0CE0109960E945B2AB801645D20
:100D70007F4F44E050E0CE010D960E945B2AB801FF
:100D8000645E7F4F44E050E0CE0141960E945B2AB2
:100D9000B801645F7F4F44E050E0CE0146960E9468
:100DA0005B2A41E050E0B601CE0145960E945B2AE5
:100DB000B7016050704042E050E0CE014A960E9478
:100DC0005B2AA39682E0E80EF11C0C5F1F4F8FEFA9
:100DD000C81AD80A88E0E816F10409F0B6CF78946A
:100DE000DF91CF911F910F91FF90EF90DF90CF9007
:100DF0000895CF93C82F5A9A0E94A8028C2F8295EB
:100E0000807F0E94A80285EE90E00197F1F700C074
:100E10000000CF910895CF93C82F5A980E94A8023E
:100E20008C2F8295807F0E94A80281ED90E001972F
:100E3000F1F700C00000CF9108958AB18C6F8AB994
:100E40008BB183708BB92FE58AEE90E02150804002
:100E50009040E1F700C0000080E30E94A80287EA0A
:100E600091E60197F1F700C000005B9A95E89A952A
:100E7000F1F700005B9887E893E10197F1F700C074
:100E800000005B9A95E89A95F1F700005B9887E877
:100E900093E10197F1F700C0000080E20E94A802F0
:100EA00087EA91E60197F1F700C0000088E20E940E
:100EB0000B078CE00E940B0786E00E940B0781E085
:100EC0000E940B078FE097E20197F1F700C0000046
:100ED000089581E00E940B078FE097E20197F1F7F8
:100EE00000C00000089582E00E940B078FE097E2A7
:100EF0000197F1F700C000000895623081F050F0D2
:100F0000633029F0643071F480530C940B078057E0
:100F10000C940B07613039F480580C940B07805403
:100F20000C940B0708950895CF93DF93EC0188810B
:100F3000882331F021960E94F90689918111FBCF17
:100F4000DF91CF910895EF92FF921F93CF93DF939C
:100F500000D0CDB7DEB728E0829FC00111248064A5
:100F600069837A830E940B076981E62E7A81F72EC6
:100F700018E0F70181917F010E94F9061150C9F72D
:100F80000F900F90DF91CF911F91FF90EF900895F8
:100F90004F925F926F927F928F929F92AF92BF9289
:100FA000CF92DF92EF92FF920F931F93CF93DF9335
:100FB00000D000D0CDB7DEB7F82ECB01BA01A90121
:100FC00098010E943F254B015C0183E2F89E80015D
:100FD000112403581D4FD80151966D917D918D912B
:100FE0009C9154971D962D913D914D915C915097F8
:100FF0005596CD90DD90ED90FC9058970E943F253E
:10100000A70196010E943F2520E030E044EB53E425
:101010000E94F0239B01AC01C501B4010E943F2551
:101020000E94A2256B017C01F801628073800E94FE
:101030005824660D771DD80113967C936E931297F2
:1010400016968D919D910D90BC91A02D89839A83C8
:10105000AB83BC83F8016189728983899489258572
:10106000368547855089458856886788708C0E94E8
:101070003F25A30192010E943F2520E030E044EB90
:1010800053E40E94F0239B01AC01C501B4010E940E
:101090003F25A70196010E9487239B01AC0169812E
:1010A0007A818B819C810E948823D80116966D934A
:1010B0007D938D939C9319970F900F900F900F90A5
:1010C000DF91CF911F910F91FF90EF90DF90CF9024
:1010D000BF90AF909F908F907F906F905F904F9058
:1010E00008954F925F926F927F928F929F92AF92EC
:1010F000BF92CF92DF92EF92FF92CF93DF9300D017
:1011000000D0CDB7DEB793E2899FF0011124E358F8
:10111000FD4F4584568467847088258936894789C0
:10112000508D81889288A388B488882777FD809520
:10113000982F29833A834B835C830E948B246B0115
:101140007C0129813A814B815C81C301B2010E94FB
:101150003F25A50194010E943F259B01AC0160E061
:1011600070E084EB93E40E94F0239B01AC01C70183
:10117000B6010E943F250F900F900F900F90DF91C6
:10118000CF91FF90EF90DF90CF90BF90AF909F9066
:101190008F907F906F905F904F9008954F925F92E5
:1011A0006F927F928F929F92AF92BF92CF92DF9277
:1011B000EF92FF920F931F93CF93DF9300D000D055
:1011C000CDB7DEB7F82ECB01BA01A90198010E9474
:1011D0003F254B015C0183E2F89E800111240358F6
:1011E0001D4FD80151966D917D918D919C91549791
:1011F0001D962D913D914D915C9150975596CD90B6
:10120000DD90ED90FC9058970E943F25A701960134
:101210000E943F2520E030E040E05FE30E943F2550
:101220009B01AC01C501B4010E943F250E94A2258B
:101230006B017C01F801628073800E945824660D66
:10124000771DD80113967C936E93129716968D9105
:101250009D910D90BC91A02D89839A83AB83BC8313
:10126000F801618972898389948925853685478546
:101270005089458856886788708C0E943F25A30155
:1012800092010E943F2520E030E040E05FE30E94B1
:101290003F259B01AC01C501B4010E943F25A70178
:1012A00096010E9487239B01AC0169817A818B8121
:1012B0009C810E948823D80116966D937D938D930F
:1012C0009C9319970F900F900F900F90DF91CF91F3
:1012D0001F910F91FF90EF90DF90CF90BF90AF9054
:1012E0009F908F907F906F905F904F9008954F9256
:1012F0005F926F927F928F929F92AF92BF92CF92A6
:10130000DF92EF92FF92CF93DF9300D000D0CDB762
:10131000DEB793E2899FF0011124E358FD4F458425
:10132000568467847088258936894789508D8188DD
:101330009288A388B488882777FD8095982F298381
:101340003A834B835C830E948B246B017C0129814F
:101350003A814B815C81C301B2010E943F25A50106
:1013600094010E943F259B01AC0160E070E080E0A9
:1013700090E40E94F0239B01AC01C701B6010E94DA
:101380003F250F900F900F900F90DF91CF91FF901E
:10139000EF90DF90CF90BF90AF909F908F907F9015
:1013A0006F905F904F900895F894613011F1A0F024
:1013B000623081F493E2899FF0011124E358FD4FDC
:1013C0006487808191819383828382819381019755
:1013D000938382837894089593E2899FF001112486
:1013E000E358FD4F148680819181938382837894A2
:1013F000089593E2899FF0011124E358FD4F64871B
:1014000080819181938382838281938101969383EA
:10141000828378940895E82FF0E0EE0FFF1FEC52DE
:10142000FF4F85919491FC016591749180917B02AD
:1014300090917C020E94482968E071E080917B02D3
:1014400090917C020E945A2990937C0280937B02A7
:10145000E0916B02F0916C02BC01808191810E944D
:10146000682966E071E080E090E00E945A2990933C
:101470007C0280937B02E0916B02F0916C02BC01D4
:10148000828193810E94682980E090E030E2E091BF
:101490006B02F0916C02E80FF91FA081B181FD0190
:1014A00001900020E9F731972E2F2A1B203178F484
:1014B000E0916B02F0916C02E80FF91F0190F0814E
:1014C000E02DE20FF11D30832F5F203189F7E0918D
:1014D0006B02F0916C02E80FF91F0190F081E02D92
:1014E000108A02968430910591F608952F923F92CA
:1014F0004F925F926F927F928F929F92AF92BF9224
:10150000CF92DF92EF92FF920F931F93CF93DF93CF
:10151000CDB7DEB727970FB6F894DEBF0FBECDBFAD
:10152000E82FF0E0EE0FFF1FEC52FF4F85919491F2
:101530000296FC01849190E08B309105C8F5FC0186
:10154000E85CFF4F0C948123E0916702F091680200
:10155000A081B18189E0EAE7F1E001900D928A95DE
:10156000E1F7E0916702F0916802A281B38189E01E
:10157000E3E8F1E001900D928A95E1F7E0916702CE
:10158000F0916802A481B58189E0ECE8F1E0019076
:101590000D928A95E1F7E0916702F0916802A681C9
:1015A000B78189E0E5E9F1E001900D928A95E1F7D4
:1015B00080E090E030E2E0916702F0916802E80F8D
:1015C000F91FA081B181FD0101900020E9F7319759
:1015D0002E2F2A1B283078F4E0916702F0916802E0
:1015E000E80FF91F0190F081E02DE20FF11D30832B
:1015F0002F5F283089F7E0916702F0916802E80FC9
:10160000F91F0190F081E02D108602968830910537
:1016100091F627960FB6F894DEBF0FBECDBFDF91CF
:10162000CF911F910F91FF90EF90DF90CF90BF90DF
:10163000AF909F908F907F906F905F904F903F9072
:101640002F900895C12CD12C33E2F32E09E211E042
:101650008091640290E00C2C02C0959587950A94C5
:10166000E2F780FF55C22EE7FC9CF001FD9CF00DD7
:101670001124E358FD4F84819581E0916702F09138
:1016800068029F938F931F922F931F930F93C6010E
:10169000880F991FE80FF91F81818F9380818F93A5
:1016A0000E94DB292FEFC21AD20A0FB6F894DEBFD0
:1016B0000FBECDBF94E0C916D10451F679CFA12C4D
:1016C000B12C412C512CB3E29B2E00EB11E087EBA7
:1016D000C82E81E0D82E9CEBE92E91E0F92E38013E
:1016E0008091640290E0042C02C0959587950A943D
:1016F000E2F780FF09C21EE7949CF001959CF00D73
:101700001124E358FD4F82A1882309F423C2949C3D
:10171000F001959CF00D1124E358FD4F82A181301A
:1017200009F4D1C2949CF001959CF00D1124E3586A
:10173000FD4F82A1823009F40FC3AFEF4A1A5A0A53
:10174000B2E0AB0EB11CE4E04E16510449F630CFC6
:10175000E0916702F0916802A081B18189E0EAE03E
:10176000F1E001900D928A95E1F7E0916702F09126
:101770006802A281B38189E0E3E1F1E001900D927A
:101780008A95E1F7E0916702F0916802A481B58142
:1017900088E0ECE1F1E001900D928A95E1F7E091AB
:1017A0006702F0916802A681B78185E0E4E2F1E08A
:1017B00001900D928A95E1F7FBCE00E010E0212C1C
:1017C000312C8091640290E0022C02C0959587959F
:1017D0000A94E2F780FF95C1809162028111D1C124
:1017E000FEE7FF8383E2829DF001839DF00D1124CB
:1017F000E358FD4F818D813009F41EC2823009F417
:10180000C3C181111CC080819181E0916702F09178
:1018100068029F938F931F929F819F93A9E2B1E0EB
:10182000BF93AF93E00FF11F81818F9380818F93DE
:101830000E94DB290FB6F894DEBF0FBECDBF9FEF2D
:10184000291A390A0E5F1F4FA4E02A16310409F045
:10185000B8CFAECE812C912C412C512C13E2712E9D
:1018600002E4E02E01E0F02E07E411E08CE4A82E63
:1018700081E0B82E93E5C92E91E0D92E80916402C3
:1018800090E0042C02C0959587950A94E2F780FFBA
:101890003DC12EE7749CF001759CF00D1124E358B6
:1018A000FD4F818D882309F43BC1749CF001759C28
:1018B000F00D1124E358FD4F818D813009F432C2BF
:1018C000749CF001759CF00D1124E358FD4F818D3F
:1018D000823009F40FC2BFEF4B1A5B0AE2E08E0EB2
:1018E000911CF4E04F16510449F662CEC12CD12C64
:1018F000B3E2FB2E0AE511E08091640290E00C2C2B
:1019000002C0959587950A94E2F780FF03C12EE700
:10191000FC9CF001FD9CF00D1124E358FD4F868DD9
:10192000978DE0916702F09168029F938F931F92C9
:101930002F931F930F93C601880F991FE80FF91F6C
:1019400081818F9380818F930E94DB292FEFC21AB0
:10195000D20A0FB6F894DEBF0FBECDBF94E0C91611
:10196000D10451F625CEC12CD12CE3E2FE2E02E6A5
:1019700011E08091640290E00C2C02C0959587954F
:101980000A94E2F780FFBBC02EE7FC9CF001FD9CAF
:10199000F00D1124E358FD4F828D938DA48DB58DEC
:1019A000E0916702F0916802BF93AF939F938F938A
:1019B0001F922F931F930F93C601880F991FE80F53
:1019C000F91F81818F9380818F930E94DB29AFEF74
:1019D000CA1ADA0A0FB6F894DEBF0FBECDBFF4E024
:1019E000CF16D10431F6E4CDE12CF12C0AE611E05A
:1019F00080916402970190E00E2C02C09595879526
:101A00000A94E2F780FF88C08EE7E0916702F091C8
:101A100068023F932F931F928F931F930F93C701D9
:101A2000880F991FE80FF91F81818F9380818F9311
:101A30000E94DB292FEFE21AF20A0FB6F894DEBFFC
:101A40000FBECDBF94E0E916F10491F6B1CDC12CE3
:101A5000D12C53E2F52E03E711E08091640290E06F
:101A60000C2C02C0959587950A94E2F780FF56C02A
:101A70002EE7FC9CF001FD9CF00D1124E358FD4F76
:101A800085899689A789B08DE0916702F0916802F7
:101A9000BF93AF939F938F931F922F931F930F9397
:101AA000C601880F991FE80FF91F81818F938081EC
:101AB0008F930E94DB29AFEFCA1ADA0A0FB6F894A7
:101AC000DEBF0FBECDBFF4E0CF16D10431F670CD2E
:101AD000E0916702F0916802A081B18189E0EEE9AE
:101AE000F1E001900D928A95E1F7E0916702F091A3
:101AF0006802A281B38189E0E7EAF1E03BCD20E210
:101B000044CF20E22F836ECE10E2F6CD20E2C2CE8B
:101B100020E2AACD20E2FCCE80E277CF20E2A9CF5E
:101B2000E0916702F0916802FF92EF921F922F936B
:101B30001F930F93E80DF91D81818F9380818F93FF
:101B40002E830E94DB290FB6F894DEBF0FBECDBFF7
:101B50002E81ABCEE0916702F09168021F921F9335
:101B60007F926F92EA0DFB1D81818F9380818F930D
:101B70000E94DB290F900F900F900F900F900F9005
:101B8000C6CD4EE34F832ECE60817181458456844D
:101B900067847088258936894789508D8188928825
:101BA000A388B488A0916702B0916802BA83A98320
:101BB0001F92B7EFBF93882777FD8095982F2E83CC
:101BC0003B834C835D830E948B246B017C012E81BF
:101BD0003B814C815D81C301B2010E943F25A5017B
:101BE00094010E943F259B01AC0160E070E080E021
:101BF00090E40E94F0239B01AC01C701B6010E9452
:101C00003F259F938F937F936F931F92EF81EF9365
:101C1000A9E3B1E0BF93AF93E981FA81E00FF11F2F
:101C200081818F9380818F930E94DB290FB6F89476
:101C3000DEBF0FBECDBF03CE608171814584568467
:101C400067847088258936894789508D8188928874
:101C5000A388B488A0916702B0916802BA83A9836F
:101C60001F92BFEDBF93882777FD8095982F2E8315
:101C70003B834C835D830E948B246B017C012E810E
:101C80003B814C815D81C301B2010E943F25A501CA
:101C900094010E943F259B01AC0160E070E084EB61
:101CA00093E40E94F0239B01AC01C701B6010E949E
:101CB0003F259F938F937F936F931F92EF81EF93B5
:101CC000A0E3B1E0A7CFE0916702F09168021F9214
:101CD0001F93DF92CF92EA0DFB1D81818F9380814C
:101CE0008F930E94DB290F900F900F900F900F9011
:101CF0000F9018CDE0916702F0916802DF92CF92C9
:101D00001F922F931F930F93E80DF91D81818F93DD
:101D100080818F930E94DB290FB6F894DEBF0FBE3F
:101D2000CDBFD9CDE0916702F0916802BF92AF922A
:101D30001F922F931F930F93E80DF91D81818F93AD
:101D400080818F932E830E94DB290FB6F894DEBF2B
:101D50000FBECDBF2E81B4CDE0916702F091680235
:101D60001F921F93FF92EF92EA0DFB1D81818F93CB
:101D700080818F930E94DB290F900F900F900F901E
:101D80000F900F90DACCCF93DF9380916302823073
:101D900009F482C0833049F0813039F080916102CA
:101DA00080936302DF91CF910895809160020E9439
:101DB000760AA0916702B0916802E0916502F09105
:101DC00066026D917C91808191810E945F29892BAF
:101DD00009F016C1A0916702B0916802E091650216
:101DE000F091660212966D917C9113978281938196
:101DF0000E945F29892B09F0E0C0A0916702B09191
:101E00006802E0916502F091660214966D917C91F2
:101E10001597848195810E945F29892B09F0AAC0BA
:101E2000A0916702B0916802E0916502F0916602AC
:101E300016966D917C911797868197810E945F29F4
:101E4000892B09F4ABCF88EC0E940B07E091670265
:101E5000F0916802C681D7818881882331F021966C
:101E60000E94F90689918111FBCFA0916702B09180
:101E70006802E0916502F091660216966D917C9180
:101E80001797868197810E946829809161028093CB
:101E90006302DF91CF9108959091600280915F027B
:101EA000981709F47BCF80915F020E940B0A80E8AB
:101EB0000E940B07E0916B02F0916C02C081D1810E
:101EC0008881882331F021960E94F9068991811139
:101ED000FBCFA0916B02B0916C02E0916902F0918E
:101EE0006A026D917C91808191810E94682980ECC9
:101EF0000E940B07E0916B02F0916C02C281D381CA
:101F00008881882331F021960E94F90689918111F8
:101F1000FBCFA0916B02B0916C02E0916902F0914D
:101F20006A0212966D917C911397828193810E942F
:101F3000682980915F028093600280E090E028E051
:101F4000E0916502F0916602E80FF91FA081B1816E
:101F5000E2ECF1E0322F01900D923A95E1F7029612
:101F60008A30910569F78091610280936302DF9165
:101F7000CF91089580EC0E940B07E0916702F091E9
:101F80006802C481D5818881882331F021960E941E
:101F9000F90689918111FBCFA0916702B091680287
:101FA000E0916502F091660214966D917C9115970F
:101FB000848195810E94682933CF88E80E940B07AD
:101FC000E0916702F0916802C281D3818881882301
:101FD00031F021960E94F90689918111FBCFA091E1
:101FE0006702B0916802E0916502F0916602129674
:101FF0006D917C911397828193810E946829FDCE17
:1020000080E80E940B07E0916702F0916802C081AE
:10201000D1818881882331F021960E94F906899127
:102020008111FBCFA0916702B0916802E091650237
:10203000F09166026D917C91808191810E94682966
:10204000C9CE3F924F925F926F927F928F929F92F2
:10205000AF92BF92CF92DF92EF92FF920F931F93B6
:10206000CF93DF9380915E02811104C0809176024C
:10207000882379F020916002C0916302C23009F494
:1020800049C0DC2FDD7FD130B1F010925E0210929A
:102090007602DF91CF911F910F91FF90EF90DF902B
:1020A000CF90BF90AF909F908F907F906F905F90F8
:1020B0004F903F90089580915E02811169C0C330B6
:1020C00021F7F89480917602882309F48EC0C0909D
:1020D0007502109275027894CC20B9F2E0916002FA
:1020E000F0E0EE0FFF1FEC52FF4F859194910296A6
:1020F000FC01C4918AEC91E00E946D048C2F90E069
:10210000FC013197EA30F10508F0BFCFED5BFF4FDE
:102110000C948123F89480917602882309F462C09C
:102120008091750210927502992787FD9095789499
:10213000820F911D27FD9A956BE070E00E94362377
:1021400087FD24C080935F0280915E02811112C0DE
:1021500080915E02882309F498CF0E9412038111B6
:1021600094CF80916402882309F48FCF83E0809319
:1021700061028BCF0E9412038111EACF8091640229
:102180008111E6CF81E080936102E2CF8AE0DACF6D
:102190000E9412038430E1F008F4B6C1863071F079
:1021A00008F4A8C1873009F08ACF809164028D2796
:1021B0008093640283E08093610281CF8091640206
:1021C00092E089278093640283E08093610277CF55
:1021D0008091640298E089278093640283E0809371
:1021E00061026DCF80E090E0A2CFC12C74CF0E943D
:1021F00092068CED91E00E946D0482E08093610272
:10220000809160028F5F809360023FCF0E942B0617
:1022100086ED91E0F0CFE12CF12CC3E280916402D5
:1022200090E00E2C02C0959587950A94E2F780FF06
:1022300049C0CE9D8001CF9D100D112403581D4F24
:10224000F801658976898789908D1C140CF0C5C1C9
:102250009B01AC010E948823F801658B768B878BEC
:10226000908FCE9D8001CF9D100D112403581D4FDE
:10227000F801658976898789908D20E030E040E813
:102280005FE30E94EC2387FD9EC1CE9D8001CF9D20
:10229000100D112403581D4FF8016589768987892F
:1022A000908D20E030E040E051E40E943B2518167C
:1022B0004CF480E090E0A0E0B1E4F801858B968BCF
:1022C000A78BB08FFFEFEF1AFF0A24E0E216F104AC
:1022D00009F0A4CFDACEC0E0D0E001E010E08091B8
:1022E000640290E00C2E02C0959587950A94E2F75F
:1022F00080FD20C12196C430D10589F77ECFC0E092
:10230000D0E033E2F32E4C2C552447FC5094652C3E
:10231000752C8091640290E00C2E02C095958795F3
:102320000A94E2F780FF21C0FC9E8001FD9E100D03
:10233000112403581D4FF801828C938CA48CB58C0A
:10234000C301B2010E948B2420E030E040E251E45E
:102350000E94F0239B01AC01C501B4010E948823B7
:10236000F801628F738F848F958F2196C430D105C9
:1023700081F68BCE44E6C49E402D1124552747FD9F
:10238000509580E090E063E2DD24C7FCD09420917A
:10239000640230E0082E02C0359527950A94E2F7D2
:1023A00020FF16C020916202689FF001699FF00D26
:1023B0001124E358FD4F222309F4FAC02081318112
:1023C000240F351F33832283228133813583248375
:1023D000019684309105D9F658CE80E090E043E232
:1023E00052E02091640230E0082E02C03595279516
:1023F0000A94E2F720FF18C0489FF001499FF00DB2
:102400001124E358FD4F218D2C0D218F218D27FDA7
:10241000F0C0489FF001499FF00D1124E358FD4F93
:10242000218D23300CF0118E019684309105C9F670
:102430002CCECC2DDD27C7FDD095FC2D24E6F20255
:1024400050011124812C912C43E2342EDD24C7FC51
:10245000D094ED2CFD2C8091640290E0082C02C0F9
:10246000959587950A94E2F780FF11C0389CF0019A
:10247000399CF00D1124E358FD4F818D813009F412
:10248000DBC0823009F4C2C0882309F4B4C03FEF36
:10249000831A930A84E088169104E9F6F6CD80E069
:1024A00090E063E2DD24C7FCD09441E050E020914D
:1024B000640230E0082E02C0359527950A94E2F7B1
:1024C00020FF13C0689FF001699FF00D1124E358AD
:1024D000FD4F268D378D2C0D3D1D378F268F268D78
:1024E000378D232B11F4578F468F01968430910539
:1024F000F1F6CBCD8091640294E089278093640249
:1025000083E080936102DBCD882371F0833009F092
:10251000D6CD82E080936102809160028F5F8093CC
:10252000600210926202CBCD809162028D2780936F
:102530006202C5CD8C2F0E944D0520916402C80116
:102540000C2E01C0880F0A94EAF728272093640212
:102550000E94C30ECFCEC0E0D0E013E28C2F2091BA
:10256000640230E00C2E02C0359527950A94E2F7FC
:1025700020FF19C01C9FF0011D9FF00D1124E3588E
:10258000FD4F92A19C0D92A392A192A1933008F0CD
:1025900012A21C9FF0011D9FF00D1124E358FD4F66
:1025A00062A10E94D4092196C430D105B9F66DCD3F
:1025B000208131812C0D3D1D338322832281338183
:1025C0003583248305CF80E090E0A0E8BFE3F801E5
:1025D000858B968BA78BB08F58CE20E030E040E003
:1025E0005FE30E943F25F801658B768B878B908F88
:1025F00038CE518F0ECF809162028823B9F182814B
:1026000093818A0D9B1D9383828341CF428C538C8F
:10261000648C758CC701B6010E948B2420E030E0E9
:1026200040E05EE30E943F25AB01BC0193018201C3
:10263000882D0E94CE082BCF80916202428C538C51
:10264000648C758C8823C9F0C701B6010E948B2465
:1026500020E030E040E251E40E943F25AB01BC01A4
:1026600093018201882D0E94C80711CF8281938136
:102670008C0F9D1F938382830ACFC701B6010E94EE
:102680008B24AB01BC0193018201882D0E94C807F5
:10269000FECE14B88FEF85B984B5826084BD88EC16
:1026A00087BDEEE6F0E080818260808316BC85B550
:1026B000856085BD089580915E02811102C08AE225
:1026C00008950C941203F89480917602882331F0D7
:1026D00080917502109275027894089580E0789444
:1026E0000895CF93DF93F894CDE6D2E0E881F981A5
:1026F000A0910903B0910A0380E401900D928A959C
:10270000E1F781E080930B03E881F98180E4DF0148
:102710001D928A95E9F71092700210926F027894D8
:10272000DF91CF910895AF92BF92CF92DF92EF9257
:10273000FF920F931F93CF93DF93F89480910B0335
:10274000882309F467C08091090390910A0363EE1E
:1027500071E00E945A296C01E0915602F0915702F3
:1027600000811181CBE0D2E0B12CE0E8AE2EFE0179
:10277000E590F490F70165917491C8010E94482991
:10278000A0915602B09157020D911C91B801C6015B
:102790000E945F29892B31F4F7013396A490F70149
:1027A0003296B490229682E0CF33D80701F7BB204F
:1027B000C9F0C1E063EE71E080E090E00E945A2928
:1027C0002C2F30E0220F331FE0915602F091570278
:1027D000E20FF31FBC01808191810E946829CF5FC5
:1027E000BC1640F7E0910903F0910A0380E4DF0191
:1027F0001D928A95E9F710920B0378948A2DDF9148
:10280000CF911F910F91FF90EF90DF90CF90BF90ED
:10281000AF90089560E8A62EF0CF3F924F925F925E
:102820006F927F928F929F92AF92BF92CF92DF92E0
:10283000EF92FF920F931F93CF93DF9300D000D0BE
:10284000CDB7DEB78B017A014AE050E060E070E07E
:102850000E941227362E83E0831508F482C068EEAA
:1028600071E0C7010E945F29892B09F490C06EEEC8
:1028700071E0C7010E945F29892B09F162EF71E0C5
:10288000C7010E945F29892B09F495C085EF91E06B
:102890000F900F900F900F90DF91CF911F910F919C
:1028A000FF90EF90DF90CF90BF90AF909F908F9070
:1028B0007F906F905F904F903F900C946D0483E2F7
:1028C000389EF0011124E358FD4F608171814584E9
:1028D000568467847088258936894789508D818818
:1028E0009288A388B488882777FD8095982F2983BC
:1028F0003A834B835C830E948B246B017C0129818A
:102900003A814B815C81C301B2010E943F25A50140
:1029100094010E943F259B01AC0160E070E084EBD4
:1029200093E40E94F0239B01AC01C701B6010E9411
:102930003F259B01AC01C80129833A834B835C830B
:102940000E94462829813A814B815C810E9487231D
:10295000AB01BC0100E010E020E83FE3832D0E94C2
:10296000C8070F900F900F900F90DF91CF911F919C
:102970000F91FF90EF90DF90CF90BF90AF909F901E
:102980008F907F906F905F904F903F900895E32CD1
:10299000F12C4AE050E060E070E0C8010E9412278C
:1029A00023E22E9DF0012F9DF00D1124E358FD4FE1
:1029B00073836283D6CF83E2389EF0011124E358FB
:1029C000FD4F6081718145845684678470882589B4
:1029D00036894789508D81889288A388B488882752
:1029E00077FD8095982F29833A834B835C830E94DF
:1029F0008B246B017C0129813A814B815C81C3016D
:102A0000B2010E943F25A50194010E943F259B0130
:102A1000AC0160E070E080E090E40E94F0239B0154
:102A2000AC01C701B6010E943F259B01AC01C80162
:102A300029833A834B835C830E94462829813A810B
:102A40004B815C810E948723AB01BC0100E010E058
:102A500020E83FE3832D0E94CE0883CFAF92BF9240
:102A6000DF92EF92FF920F931F93CF93DF937B013F
:102A7000EA014AE050E060E070E00E941227D62EA2
:102A800083E08D15A8F068EE71E0CE010E945F2909
:102A9000892BC9F16EEE71E0CE010E945F29892B6E
:102AA000F1F062EF71E0CE010E945F29892B51F0B5
:102AB000DF91CF911F910F91FF90EF90DF90BF902A
:102AC000AF900895C7010E944628AB01BC0100E009
:102AD00010E020E83FE38D2D0E94CE08E9CFC7012A
:102AE0000E944628AB01BC0100E010E020E83FE373
:102AF0008D2D0E94C80762EF71E0CE010E945F2910
:102B0000892BB1F6DFCFE3E2DE9E8001112403586A
:102B10001D4FF801A280B3804AE050E060E070E011
:102B2000C7010E9412276A0D7B1DF801738362831F
:102B30006EEE71E0CE010E945F29892B09F0B1CFC2
:102B4000CECF1F93CF93DF93EB014AE050E060E0DC
:102B500070E00E941227162F4AE050E060E070E01B
:102B6000CE010E941227143080F4611107C060E08A
:102B7000812FDF91CF911F910C948D0461E0812F03
:102B8000DF91CF911F910C948D04DF91CF911F9114
:102B900008954F925F926F927F928F929F92AF9221
:102BA000BF92CF92DF92EF92FF920F931F93CF933A
:102BB000DF9300D000D0CDB7DEB77B014AE050E014
:102BC00060E070E00E941227162F643008F080C089
:102BD00068EE71E0C7010E945F29892B09F4C9C022
:102BE0006EEE71E0C7010E945F29892B09F485C050
:102BF00062EF71E0C7010E945F29892B09F482C04E
:102C000083E2189FF0011124E358FD4F6081718128
:102C10004584568467847088258936894789508D14
:102C200081889288A388B4880091770210917802F5
:102C3000882777FD8095982F29833A834B835C837F
:102C40000E948B246B017C0129813A814B815C813C
:102C5000C301B2010E943F25A50194010E943F25B6
:102C60009B01AC0160E070E084EB93E40E94F023F0
:102C70009B01AC01C701B6010E943F259F938F9332
:102C80007F936F9388E192E09F938F931F930F93AD
:102C90000E94DB290FB6F894DEBF0FBECDBF809136
:102CA0007702909178020F900F900F900F90DF9124
:102CB000CF911F910F91FF90EF90DF90CF90BF9039
:102CC000AF909F908F907F906F905F904F900895FE
:102CD00080917702909178021F921F9321E032E059
:102CE0003F932F939F938F930E94DB290F900F9018
:102CF0000F900F900F900F90D2CF93E2199FF00199
:102D0000112482CF83E2189FF0011124E358FD4F74
:102D100060817181458456846784708825893689ED
:102D20004789508D81889288A388B4880091770262
:102D300010917802882777FD8095982F29833A8310
:102D40004B835C830E948B246B017C0129813A8137
:102D50004B815C81C301B2010E943F25A501940112
:102D60000E943F259B01AC0160E070E080E090E4B0
:102D70007DCF83E2189FF0011124E358FD4F20819D
:102D8000318180917702909178023F932F9325E1D2
:102D900032E0A6CF4AE050E060E070E00E941227E7
:102DA000643018F583E2689FF0011124E358FD4F69
:102DB0002281338180819181E0917702F0917802C4
:102DC0002817390749F081E390E09183808380914F
:102DD000770290917802089580E390E09183808358
:102DE0008091770290917802089580917702909176
:102DF00078021F926F9321E032E03F932F939F93CD
:102E00008F930E94DB290F900F900F900F900F90DF
:102E10000F90809177029091780208954AE050E0F7
:102E200060E070E00E9412276430E0F4862F0E9478
:102E3000140520917702309178029F938F9385E15A
:102E400092E09F938F933F932F930E94DB290F90E3
:102E50000F900F900F900F900F90809177029091AC
:102E60007802089520917702309178021F926F9333
:102E700081E092E0E6CF4AE050E060E070E00E943E
:102E80001227643008F583E2689FF0011124E358AB
:102E9000FD4F2481358180917702909178023F9394
:102EA0002F9325E132E03F932F939F938F930E94BE
:102EB000DB290F900F900F900F900F900F90809143
:102EC000770290917802089580917702909178022C
:102ED0001F926F9321E032E0E6CF1F93CF93DF93F1
:102EE000EB014AE050E060E070E00E941227162FEC
:102EF000643098F44AE050E060E070E0CE010E9457
:102F0000122723E2129FF0011124E358FD4F75832D
:102F10006483DF91CF911F91089580917702909102
:102F200078021F921F9321E032E03F932F939F93EB
:102F30008F930E94DB2980917702909178020F9005
:102F40000F900F900F900F900F90DF91CF911F91E6
:102F50000C946D044AE050E060E070E00E9412279B
:102F6000643038F583E2689FF0011124E358FD4F87
:102F700085859685A785B089209177023091780262
:102F8000BF93AF939F938F9388E192E09F938F932A
:102F90003F932F930E94DB298DB79EB708960FB6FB
:102FA000F8949EBF0FBE8DBF8091770290917802FA
:102FB000089580917702909178021F926F9321E09B
:102FC00032E03F932F939F938F930E94DB290F90C2
:102FD0000F900F900F900F900F908091770290912B
:102FE000780208951F93CF93DF93EB014AE050E0FE
:102FF00060E070E00E941227162F643088F4CE0142
:103000000E94462823E2129FF0011124E358FD4F4D
:10301000658776878787908BDF91CF911F91089581
:1030200080917702909178021F921F9321E032E005
:103030003F932F939F938F930E94DB298091770278
:10304000909178020F900F900F900F900F900F902B
:10305000DF91CF911F910C946D044AE050E060E045
:1030600070E00E941227643038F583E2689FF00117
:103070001124E358FD4F81899289A389B489209155
:10308000770230917802BF93AF939F938F9385E738
:1030900091E09F938F933F932F930E94DB298DB7ED
:1030A0009EB708960FB6F8949EBF0FBE8DBF809155
:1030B000770290917802089580917702909178023A
:1030C0001F926F9321E032E03F932F939F938F9352
:1030D0000E94DB290F900F900F900F900F900F9090
:1030E000809177029091780208951F93CF93DF9398
:1030F000EB014AE050E060E070E00E941227162FDA
:10310000643088F4CE010E94462823E2129FF00129
:103110001124E358FD4F618B728B838B948BDF916D
:10312000CF911F91089580917702909178021F921C
:103130001F9321E032E03F932F939F938F930E9440
:10314000DB2980917702909178020F900F900F9079
:103150000F900F900F90DF91CF911F910C946D0401
:103160004AE050E060E070E00E941227643038F5D9
:1031700083E2689FF0011124E358FD4F8589968909
:10318000A789B08D2091770230917802BF93AF93D9
:103190009F938F9385E791E09F938F933F932F9316
:1031A0000E94DB298DB79EB708960FB6F8949EBF94
:1031B0000FBE8DBF80917702909178020895809123
:1031C0007702909178021F926F9321E032E03F9353
:1031D0002F939F938F930E94DB290F900F900F9056
:1031E0000F900F900F908091770290917802089540
:1031F0001F93CF93DF93EB014AE050E060E070E073
:103200000E941227162F643088F4CE010E944628AF
:1032100023E2129FF0011124E358FD4F658B768B5A
:10322000878B908FDF91CF911F91089580917702C6
:10323000909178021F921F9321E032E03F932F93E9
:103240009F938F930E94DB2980917702909178025F
:103250000F900F900F900F900F900F90DF91CF91E4
:103260001F910C946D044AE050E060E070E00E9411
:103270001227643008F583E2689FF0011124E358B7
:10328000FD4F268D378D80917702909178023F9384
:103290002F9325E132E03F932F939F938F930E94CA
:1032A000DB290F900F900F900F900F900F9080914F
:1032B0007702909178020895809177029091780238
:1032C0001F926F9321E032E0E6CF0F931F93CF93CD
:1032D000DF931F92CDB7DEB78B014AE050E060E08C
:1032E00070E00E941227643098F4C80169830E943C
:1032F0004A28698123E2629FF0011124E358FD4FBF
:10330000978F868F0F90DF91CF911F910F91089526
:10331000A0917702B091780283E1EBE1F2E00190B5
:103320000D928A95E1F780917702909178020F9043
:10333000DF91CF911F910F910C946D042F923F92CA
:103340004F925F926F927F928F929F92AF92BF92B5
:10335000CF92DF92EF92FF920F931F93CF93DF9361
:1033600000D000D0CDB7DEB71B018A014AE050E0A3
:1033700060E070E00E941227B62E23E0261708F4C2
:10338000B1C0C8010E9446286B017C0162EB71E06C
:10339000C1010E945F29892B09F47CC00B2D10E02C
:1033A00093E2B99E9001112423583D4FD9011D96F7
:1033B0008D909D90AD90BC90509751964D905D90A2
:1033C0006D907C90549755968D919D910D90BC91E8
:1033D000A02D89839A83AB83BC83C701B6019F77F5
:1033E00020E030E04AE754E40E943F256B017C0175
:1033F000A3019201C501B4010E943F2529813A81B0
:103400004B815C810E943F259B01AC01C701B60145
:103410000E94F0230E94A2250E945D246B017C0182
:10342000CB01009709F497C06031B7E27B0708F041
:1034300080C06FEB71E0C1010E945F29892B89F484
:1034400083E2809FF001819FF00D1124E358FD4F2E
:1034500081E08487D78EC68E828193810196938383
:1034600082836EEB71E0C1010E945F29892B19F5FF
:1034700083E2809FF001819FF00D1124E358FD4FFE
:1034800082E08487D78EC68E828193810197938351
:10349000828311C0F89483E2B89EF0011124E358AE
:1034A000FD4F148683E090E0978F868F8081918115
:1034B0009383828378940F900F900F900F90DF91F9
:1034C000CF911F910F91FF90EF90DF90CF90BF9021
:1034D000AF909F908F907F906F905F904F903F90B4
:1034E0002F900895A0917702B091780283E1EBE1EB
:1034F000F2E001900D928A95E1F780917702909128
:1035000078020F900F900F900F90DF91CF911F9145
:103510000F91FF90EF90DF90CF90BF90AF909F9072
:103520008F907F906F905F904F903F902F900C9472
:103530006D04A0917702B091780283E1E2E4F2E0B9
:1035400001900D928A95E1F780917702909178022F
:103550000E946D046ECF80917702909178021F9245
:103560001F922EE232E03F932F939F938F930E94FE
:10357000DB2980917702909178020F900F900F9045
:103580000F900F900F90BDCFF8940E942F030E94D0
:103590002B06789408951F920F920FB60F92112464
:1035A0008F939F93EF93FF938091C60090916F024A
:1035B00091111CC08D3009F18A3021F09091700278
:1035C000903420F1E0916D02F0916E0280917002D2
:1035D000E80FF11D108281E080936F028091C0009E
:1035E00085FFFCCF86E08093C60007C08091C000B5
:1035F00085FFFCCF85E18093C600FF91EF919F91FD
:103600008F910F900FBE0F901F901895E0916D0253
:10361000F0916E0290917002E90FF11D808380910C
:1036200070028F5F80937002E8CF1F920F920FB6E7
:103630000F9211248F939F93EF93FF9393B18091F7
:103640005E02811139C080915D02882309F43DC07A
:1036500080915C02891709F442C010925C021092BA
:103660005D02E0915802F0915902EE0FFF1FEE0F3C
:10367000FF1FEF70FF27F0935902E0935802199B48
:1036800005C0E260F0935902E09358021A9B05C00E
:10369000E160F0935902E0935802EE0FFF1FE454EB
:1036A000FC4FE491EE2341F0809175028E0F8093E0
:1036B000750281E080937602FF91EF919F918F9147
:1036C0000F900FBE0F901F90189580915C02891784
:1036D00041F290935C0281E080935D02C2CF81E071
:1036E00080935E02BCCF1F920F920FB60F921124EF
:1036F0002F923F924F925F926F927F928F929F9202
:10370000AF92BF92CF92DF92EF92FF920F931F93EF
:103710002F933F934F935F936F937F938F939F93D9
:10372000AF93BF93EF93FF93CF93DF93CDB7DEB704
:103730006A97DEBFCDBF9E012F5F3F4F4901CE018B
:1037400041961C01A12CB12CC12CD12C198E1A8EA2
:1037500093E29C9D80019D9D100D112403581D4FE7
:10376000F801E280F38080819181E81AF90AF10181
:10377000E192F1921F01F801658576858785908930
:103780002189328943895489458856886788708C95
:103790000E943F25A30192010E943F25F4016193FD
:1037A0007193819391934F01E114F10409F441C0A5
:1037B000F80180A191A1892B09F4F1C080A191A108
:1037C000019791A380A3668177818085918520E010
:1037D00030E040E85FE30E943B251816ACF4F801A6
:1037E000828193810196938382836681778180852C
:1037F000918520E030E040E85FE30E948723F801F4
:103800006683778380879187F3E2FC9D8001FD9D2D
:10381000100D112403581D4FF801668177818085B2
:10382000918520E030E040E85FEB0E94EC2387FDCB
:1038300019C19FEFC91AD90AE2E0AE0EB11CF4E03B
:10384000CF16D10409F084CF88B12A8D822B88B994
:1038500031E23A95F1F7000088B1998D892B88B94A
:10386000EDE0EA95F1F7000018B89E012F5E3F4F9A
:103870006901CE0101965C0100E010E023E2922E86
:10388000909E7001919EF00C1124F701E358FD4FBA
:103890007F018285882309F44DC0F60180819181E2
:1038A000181619060CF097C0F70160817181F501B7
:1038B0004080518062807380882777FD8095982FA3
:1038C0000E948B2420E030E040E85FE30E948823E0
:1038D000A30192010E943B25181684F4F70111827E
:1038E000108222803380C301B2010E94A2250E946F
:1038F0005824261A370AF70133822282909EF0015B
:10390000919EF00D1124E358FD4F80819181019625
:10391000918380838485882329F082819381019615
:1039200093838283909EF001919EF00D1124E358C1
:10393000FD4F12860F5F1F4FF4E0AF0EB11C22E067
:10394000C20ED11C0430110509F09ACF6A960FB649
:10395000F894DEBF0FBECDBFDF91CF91FF91EF9105
:10396000BF91AF919F918F917F916F915F914F9197
:103970003F912F911F910F91FF90EF90DF90CF908B
:10398000BF90AF909F908F907F906F905F904F907F
:103990003F902F900F900FBE0F901F90189521E031
:1039A000F8012287F7FC46C081E090E00A2C01C0B4
:1039B000880F0A94EAF7398D382B398F83E28C9D72
:1039C000F0018D9DF00D1124E358FD4F868D978DEC
:1039D00091A380A32ECF892B09F4A4CFF701608196
:1039E0007181882777FD8095982F0E948B2420E095
:1039F00030E040E85FE30E94872320E030E0A90147
:103A00000E94EC2387FD44C0909EF001919EF00D32
:103A10001124E358FD4F8081918101979183808328
:103A20008485882309F47ECF8281938101979383D3
:103A3000828378CFC5010196E1E0F0E002C0EE0F8D
:103A4000FF1F8A95E2F7CF01FA8DF82BFA8F81E0FC
:103A500090E00A2C01C0880F0A94EAF7298D282BE0
:103A6000298FACCFF8018281938101979383828360
:103A7000668177818085918520E030E040E85FE3D2
:103A80000E948823F8016683778380879187D1CE4F
:103A9000F50160817181828193810E94A2250E943B
:103AA0005824F7017183608322813381260F371FE9
:103AB00033832283A9CFA3E1B0E0E1E6FDE10C94DA
:103AC0004A237C011B016A01FC0117821682838153
:103AD00081FF66C3BE016F5F7F4F4B01F70193818A
:103AE000F10193FD859193FF81911F01882309F4D2
:103AF00053C3853239F493FD859193FF81911F0162
:103B0000853239F4B70190E00E94A9295601650178
:103B1000E5CF10E0512C20E02032A0F48B3269F088
:103B200030F4803259F0833269F420612CC08D3238
:103B300039F0803339F4216026C02260246023C02C
:103B4000286021C027FD27C030ED380F3A3078F4C7
:103B500026FF06C0FAE01F9F300D1124132F13C05B
:103B60006AE0569E300D1124532E20620CC08E3216
:103B700021F426FD11C3206406C08C3611F42068A0
:103B800002C0883641F4F10193FD859193FF819144
:103B90001F018111C1CF9BEB980F933018F4206166
:103BA000805E06C09BE9980F933008F0AAC12F7E73
:103BB00026FF16E02F73722E853621F4F22FF06463
:103BC0007F2E08C0863621F4622F6068762E02C0F0
:103BD0001111115077FE07C01C3348F4442443945C
:103BE000410E27E00BC0183030F4212F06C027E02B
:103BF0004CE3442E03C027E017E0412C560174E04B
:103C0000A70EB11CF6016081718182819381042D20
:103C1000A4010E9468286C01098100FF02C003FF13
:103C200006C071FC07C072FC08C0612C08C03DE2F0
:103C3000632E05C02BE2622E02C090E2692E802F17
:103C40008C7099F1662011F084E001C083E0851545
:103C500010F0512C0BC0581A73FC08C0B70180E259
:103C600090E00E94A9295A94C9F7F3CF662029F061
:103C7000B701862D90E00E94A92903FD03C000ED45
:103C800010E002C00CEC10E0F72DF0717F2EF8016F
:103C90008491882309F476C271108052B70190E0B4
:103CA0000E94A9290F5F1F4FF2CF77FE0FC04C0C67
:103CB00004FF04C08A81813309F44A94141474F512
:103CC000F8E0F41578F588E0482E2CC076FC2AC080
:103CD000812F90E08C159D059CF06CEFC6166FEF60
:103CE000D60674F0772D7068772E0AC0E2E0F0E017
:103CF000EC0FFD1FE10FF11D8081803319F411508D
:103D00001111F4CF77FE0EC044244394410E812F4D
:103D100090E0C816D9062CF41C1904C0442443941E
:103D200001C010E077FE07C01C141D043CF496018E
:103D30002F5F3F4F05C025E030E002C021E030E0BA
:103D4000662011F02F5F3F4F112331F0412F50E0DB
:103D50004F5F5F4F240F351F452D50E02417350767
:103D600014F4521A01C0512C872D897049F4552042
:103D700039F0B70180E290E00E94A9295A94F7CF68
:103D8000662029F0B701862D90E00E94A92973FCD6
:103D900009C0552039F0B70180E390E00E94A929BD
:103DA0005A94F7CF77FE5FC09C2D8D2DD7FE02C0B1
:103DB00090E080E0692E782E40E050E0C601841942
:103DC00091099D878C87960126193709280D391D81
:103DD000812F90E0EE27FF27E81BF90BFF87EE8786
:103DE000FFEF6F167F0669F4B7018EE290E02B8B30
:103DF0003A8B488B598B0E94A929598948893A895D
:103E00002B89C614D70454F06C857D85661577051B
:103E10002CF4F901E40FF51F818101C080E371E00A
:103E2000671A71084F5F5F4FEE85FF856E167F063C
:103E30006CF0B70190E02B8B3A8B488B598B0E942A
:103E4000A9292B893A8948895989CACF6C147D04DC
:103E500039F49A81963318F4953311F404FF81E311
:103E6000B70190E04BC08A81813309F00F7EB70122
:103E700090E00E94A929111105C074FE18C085E4C4
:103E800090E017C0B7018EE290E00E94A92982E07D
:103E900066246394680EF401E80FF11D8081B70178
:103EA00090E00E94A929115041F3862DF1CF85E6BB
:103EB00090E0B7010E94A929D7FC05C0C114D10424
:103EC00039F404FF05C0D194C194D1088DE201C03A
:103ED0008BE2B70190E00E94A92980E36AE0C61650
:103EE000D1042CF08F5FFAE0CF1AD108F7CFB701D9
:103EF00090E00E94A929B701C601C0960E94A92995
:103F000041C1833631F0833779F0833509F058C0E9
:103F100021C0560172E0A70EB11CF6018081898391
:103F200001E010E0640114C05601F2E0AF0EB11CD4
:103F3000F601C080D18026FF03C0612F70E002C06F
:103F40006FEF7FEFC6012B8B0E946F298C012B89AD
:103F50002F7715C05601F2E0AF0EB11CF601C080FC
:103F6000D18026FF03C0612F70E002C06FEF7FEFAA
:103F7000C6012B8B0E944F298C012B892068722E41
:103F800023FD1AC0852D90E008171907A8F4B70182
:103F900080E290E00E94A9295A94F4CFF60177FCC0
:103FA000859177FE81916F01B70190E00E94A92968
:103FB00051105A94015011090115110579F7E2C009
:103FC000843611F0893651F5560127FF09C0F4E017
:103FD000AF0EB11CF60160817181828193810AC0AC
:103FE000F2E0AF0EB11CF60160817181882777FD88
:103FF0008095982F022F0F7697FF08C09095809597
:10400000709561957F4F8F4F9F4F00682AE030E099
:10401000A4010E94FD29C82EC8183EC0022F853772
:1040200021F40F7E2AE030E01DC0097F8F3691F029
:1040300018F4883559F0B0C0803719F0883711F07E
:10404000ABC0006104FF09C0046007C024FF08C0C2
:10405000066006C028E030E005C020E130E002C084
:1040600020E132E0560107FF09C0F4E0AF0EB11CB9
:10407000F601608171818281938108C0F2E0AF0E08
:10408000B11CF6016081718180E090E0A4010E9482
:10409000FD29C82EC8180F7706FF0BC0202F2E7FD2
:1040A000C11650F404FF0AC002FD08C0202F2E7E66
:1040B00005C0DC2C202F03C0DC2C01C0D12E24FF36
:1040C0000DC0FE01EC0DF11D8081803311F4297EBD
:1040D00009C022FF06C0D394D39404C0822F8678EF
:1040E00009F0D39423FD13C020FF06C01C2DD51466
:1040F00018F4150D1D19D52CD51468F4B70180E2FC
:1041000090E02B8B0E94A929D3942B89F5CFD5144D
:1041100010F45D1801C0512C24FF12C0B70180E3D8
:1041200090E02B8B0E94A9292B8922FF17C021FF29
:1041300003C088E590E002C088E790E0B7010CC0BA
:10414000822F867859F021FD02C080E201C08BE207
:1041500027FD8DE2B70190E00E94A929C11638F42D
:10416000B70180E390E00E94A9291150F7CFCA94CB
:10417000F401EC0DF11D8081B70190E00E94A929A6
:10418000C110F5CF552009F4C2CCB70180E290E010
:104190000E94A9295A94F6CFF7018681978102C01F
:1041A0008FEF9FEF6396E2E10C9466238CE090E042
:1041B0000E94EB258093560290935702EC01E12C6C
:1041C000F12C84E190E00E94EB25CE0DDF1D998358
:1041D000888382E0E80EF11C9CE0E916F10429F0E6
:1041E000C0915602D0915702ECCF88E090E00E9437
:1041F000EB25909366028093650288E090E00E9430
:10420000EB259093680280936702C0E0D0E0E090D5
:104210006502F090660289E090E00E94EB25F701CC
:10422000EC0FFD1F91838083E0906702F09068029D
:1042300089E090E00E94EB25F701EC0FFD1F9183D0
:1042400080832296C830D10511F784E090E00E9467
:10425000EB2590936A028093690284E090E00E94CB
:10426000EB2590936C0280936B02C0916902D09110
:104270006A0281E190E00E94EB2599838883C091D6
:104280006B02D0916C0281E190E00E94EB25998352
:104290008883C0916902D0916A0281E190E00E9416
:1042A000EB259B838A83C0916B02D0916C0281E1E4
:1042B00090E00E94EB259B838A8380E490E00E943B
:1042C000EB2590936E0280936D0280E490E00E9453
:1042D000EB25909378028093770280E490E00E942F
:1042E000EB2590930A038093090388E290E00E94F3
:1042F000EB2590937C0280937B020E941D0782E055
:104300000E940B078FE097E20197F1F700C00000D1
:1043100030E4F32E03E843E7D42E55E1E52EC3E263
:104320000E942F030E94F303F0927C0000937A0016
:1043300080917A00806480937A0080917A0086FD73
:10434000FCCF20917800309179008091B00082609C
:104350008093B000D092B30080917000826080930F
:1043600070001092B2008091B10085608093B1001E
:104370000E9449131092C500E092C4008091C100D0
:1043800088698093C100D0E061E08D2F0E948D0488
:10439000DF5FD430C9F70E9492060E94C30E789462
:1043A0000E9421100E94C30E80916F0281112BC0C8
:1043B000412F50E0FA01E158F109E931F105D0F45B
:1043C000E35BFF4F0C948123F8940E942F030E941B
:1043D0002B067894F8940E94D204A2CFE091560262
:1043E000F091570246815781648175818281938162
:1043F0000E949E1910E80E9421100E94C30E809115
:104400006F028823A9F20E9471130E949313182F40
:10441000CFCFE0915602F09157026481758182817D
:1044200093810E94651910E8E6CFE0915602F09161
:104430005702828193810E9433190E946D0410E813
:10444000DACFE0915602F091570264817581828142
:1044500093810E94F81810E8CECFE0915602F091B7
:104460005702828193810E94B0180E946D0410E867
:10447000C2CFE0915602F09157026481758182812A
:1044800093810E94751810E8B6CFE0915602F09122
:104490005702828193810E942D180E946D0410E8BA
:1044A000AACFE0915602F091570264817581828112
:1044B00093810E94F21710E89ECFE0915602F0918E
:1044C0005702828193810E94AA170E946D0410E80E
:1044D00092CFE0915602F0915702648175818281FA
:1044E00093810E946D1710E886CFE0915602F091FB
:1044F0005702828193810E943B170E946D0410E84D
:104500007ACFE0915602F0915702828193810E9406
:104510000E170E946D0410E86ECFE0915602F091E4
:104520005702828193810E94CA160E946D0410E88E
:1045300062CF0E94920610E85ECF0E942B0610E820
:104540005ACFE0915602F0915702648175818281C1
:1045500093810E94C9150E946D0410E84CCFE09130
:104560005602F091570264817581828193810E9485
:10457000A11510E840CFE0915602F09157028281D8
:1045800093810E944A280E944D0510E834CFE091A3
:104590005602F0915702468157816481758182816C
:1045A00093810E942E1510E826CFE0915602F091DB
:1045B00057024681578164817581828193810E946F
:1045C0000D1410E818CFE0915602F0915702A28125
:1045D000B381FD0101900020E9F73197EA1BFB0B45
:1045E000759708F007CF45E150E064E570E0CD0134
:1045F0000E946B2A10E8FFCE80917702909178029A
:1046000045E150E064E570E00E945B2A809177020A
:10461000909178020E946D0410E8EDCE80E090E069
:10462000C89FF001C99FF00D1124E358FD4F208170
:10463000318133832283148601968430910581F77A
:1046400010E8D9CEAA1BBB1B51E107C0AA1FBB1F94
:10465000A617B70710F0A61BB70B881F991F5A950E
:10466000A9F780959095BC01CD01089597FB072E81
:1046700016F4009407D077FD09D00E94222307FC8E
:1046800005D03EF4909581959F4F08957095619562
:104690007F4F08952F923F924F925F926F927F9239
:1046A0008F929F92AF92BF92CF92DF92EF92FF9242
:1046B0000F931F93CF93DF93CDB7DEB7CA1BDB0BEE
:1046C0000FB6F894DEBF0FBECDBF09942A88398893
:1046D00048885F846E847D848C849B84AA84B9849A
:1046E000C884DF80EE80FD800C811B81AA81B981A6
:1046F000CE0FD11D0FB6F894DEBF0FBECDBFED01BA
:104700000895EE0FFF1F0590F491E02D0994505885
:10471000BB27AA270ED075C166D130F06BD120F02F
:1047200031F49F3F11F41EF45BC10EF4E095E7FBFA
:1047300051C1E92F77D180F3BA1762077307840755
:10474000950718F071F49EF58FC10EF4E0950B2ECD
:10475000BA2FA02D0B01B90190010C01CA01A001D3
:104760001124FF27591B99F0593F50F4503E68F12E
:104770001A16F040A22F232F342F4427585FF3CF6F
:10478000469537952795A795F0405395C9F77EF440
:104790001F16BA0B620B730B840BBAF09150A1F089
:1047A000FF0FBB1F661F771F881FC2F70EC0BA0F0F
:1047B000621F731F841F48F4879577956795B79597
:1047C000F7959E3F08F0B3CF9395880F08F099278F
:1047D000EE0F979587950895D9D008F481E0089554
:1047E0000CD00FC107D140F0FED030F021F45F3F74
:1047F00019F0F0C0511139C1F3C014D198F39923C5
:10480000C9F35523B1F3951B550BBB27AA27621794
:104810007307840738F09F5F5F4F220F331F441FD9
:10482000AA1FA9F333D00E2E3AF0E0E830D0915011
:104830005040E695001CCAF729D0FE2F27D0660FFE
:10484000771F881FBB1F261737074807AB07B0E83D
:1048500009F0BB0B802DBF01FF2793585F4F2AF053
:104860009E3F510568F0B6C000C15F3FECF3983E33
:10487000DCF3869577956795B795F7959F5FC9F7B0
:10488000880F911D9695879597F90895E1E0660F39
:10489000771F881FBB1F621773078407BA0720F0B2
:1048A000621B730B840BBA0BEE1F88F7E09508951B
:1048B00004D06894B111D9C00895BCD088F09F5736
:1048C00090F0B92F9927B751A0F0D1F0660F771F5C
:1048D000881F991F1AF0BA95C9F712C0B13081F03C
:1048E000C3D0B1E00895C0C0672F782F8827B85F84
:1048F00039F0B93FCCF3869577956795B395D9F79D
:104900003EF490958095709561957F4F8F4F9F4FA6
:104910000895E89409C097FB3EF4909580957095B2
:1049200061957F4F8F4F9F4F9923A9F0F92F96E9FB
:10493000BB279395F695879577956795B795F11170
:10494000F8CFFAF4BB0F11F460FF1BC06F5F7F4F0D
:104950008F4F9F4F16C0882311F096E911C077231F
:1049600021F09EE8872F762F05C0662371F096E828
:10497000862F70E060E02AF09A95660F771F881FF7
:10498000DAF7880F9695879597F90895990F00089B
:10499000550FAA0BE0E8FEEF16161706E807F90711
:1049A000C0F012161306E407F50798F0621B730BAC
:1049B000840B950B39F40A2661F0232B242B252B2D
:1049C00021F408950A2609F4A140A6958FEF811DD0
:1049D000811D089597F99F6780E870E060E0089571
:1049E0009FEF80EC089500240A9416161706180607
:1049F0000906089500240A941216130614060506E3
:104A00000895092E0394000C11F4882352F0BB0F73
:104A100040F4BF2B11F460FF04C06F5F7F4F8F4FD6
:104A20009F4F089557FD9058440F551F59F05F3F11
:104A300071F04795880F97FB991F61F09F3F79F0C0
:104A400087950895121613061406551FF2CF469542
:104A5000F1DF08C0161617061806991FF1CF8695C4
:104A60007105610508940895E894BB2766277727A8
:104A7000CB0197F908958ADF08F48FEF08950BD0E2
:104A8000C0CFB1DF28F0B6DF18F0952309F0A2CF30
:104A9000A7CF1124EACFC6DFA0F3959FD1F3950FDE
:104AA00050E0551F629FF001729FBB27F00DB11DB2
:104AB000639FAA27F00DB11DAA1F649F6627B00D42
:104AC000A11D661F829F2227B00DA11D621F739F2B
:104AD000B00DA11D621F839FA00D611D221F749F39
:104AE0003327A00D611D231F849F600D211D822F80
:104AF000762F6A2F11249F5750408AF0E1F08823C7
:104B00004AF0EE0FFF1FBB1F661F771F881F9150D3
:104B10005040A9F79E3F510570F05CCFA6CF5F3F94
:104B2000ECF3983EDCF3869577956795B795F79506
:104B3000E7959F5FC1F7FE2B880F911D969587958E
:104B400097F9089577DFE0F09E37D8F09639B8F4FA
:104B50009E3848F4672F782F8827985FF9CF86957D
:104B60007795679593959539D0F3B62FB1706B0F04
:104B7000711D811D20F4879577956795939502C0E7
:104B80001CC073CF882371F4772321F09850872BB2
:104B9000762F07C0662311F499270DC09051862BFC
:104BA00070E060E02AF09A95660F771F881FDAF7A9
:104BB000880F9695879597F908959F3F31F091500A
:104BC00020F4879577956795B795880F911D9695F1
:104BD000879597F90895CF93DF938230910510F46C
:104BE00082E090E0E0911103F091120320E030E0C8
:104BF000A0E0B0E0309739F1408151814817590762
:104C0000B8F04817590771F482819381109729F001
:104C100013969C938E9312972CC0909312038093BB
:104C2000110327C02115310531F04217530718F041
:104C3000A901DB0101C0EF019A01BD01DF01028082
:104C4000F381E02DD7CF21153105F9F0281B390B61
:104C50002430310580F48A819B816115710521F032
:104C6000FB019383828304C090931203809311030A
:104C7000FE01329644C0FE01E20FF31F819391932F
:104C800022503109398328833AC020910F03309193
:104C90001003232B41F42091020130910301309342
:104CA000100320930F032091000130910101211581
:104CB000310541F42DB73EB74091040150910501F3
:104CC000241B350BE0910F03F0911003E217F3075B
:104CD000A0F42E1B3F0B2817390778F0AC014E5F6C
:104CE0005F4F2417350748F04E0F5F1F5093100396
:104CF00040930F038193919302C0E0E0F0E0CF0175
:104D0000DF91CF910895CF93DF93009709F487C087
:104D1000FC01329713821282C0911103D0911203C9
:104D2000209781F420813181280F391F80910F0352
:104D3000909110038217930779F5F0931003E09395
:104D40000F036DC0DE0120E030E0AE17BF0750F466
:104D500012964D915C9113979D014115510509F1F2
:104D6000DA01F3CFB383A28340815181840F951F71
:104D70008A179B0771F48D919C911197840F951F51
:104D800002969183808312968D919C9113979383C1
:104D900082832115310529F4F0931203E093110366
:104DA0003EC0D9011396FC93EE9312974D915D91FD
:104DB000A40FB51FEA17FB0779F480819181840F56
:104DC000951F0296D90111969C938E9382819381AF
:104DD00013969C938E931297E0E0F0E08A819B817A
:104DE000009719F0FE01EC01F9CFCE01029628815F
:104DF0003981820F931F20910F03309110032817E0
:104E0000390769F4309729F41092120310921103B4
:104E100002C013821282D0931003C0930F03DF915C
:104E2000CF9108952F923F925F926F927F928F92CF
:104E30009F92AF92BF92CF92DF92EF92FF920F9329
:104E40001F93CF93DF938B01EA016115710521F068
:104E5000DB018C9311969C93209739F09E01225090
:104E600031092332310508F0FBC07C016701BFEF37
:104E7000CB1ADB0A5601F7016080862D90E00E9474
:104E80004029892B11F07601F1CFFDE26F120AC0A3
:104E9000570182E0A80EB11CD70111966C907724BF
:104EA00073940BC0BBE26B1207C05701E2E0AE0E79
:104EB000B11CD70111966C90712CCE018F7E892B7D
:104EC00089F4B0E36B1222C0F50180818F7D8835B3
:104ED00041F56180F2E0AF0EB11C872D8260782E23
:104EE000C0E1D0E0C830D105F1F04CF4C230D105BA
:104EF00011F5C12CD12CE12CB0E4FB2E2FC0CA300F
:104F0000D10531F0C031D10521F115C0209751F7FD
:104F1000CAE0D0E0ACECCA2EDC2CEC2CACE0FA2ED3
:104F20001DC02097F9F6C8E0D0E0C12CD12CE12CAF
:104F3000F0E1FF2E13C060E070E080E090E89E0199
:104F4000442737FD4095542F0E942A2C69017A018D
:104F500005C0C12CD12CE12CE8E0FE2EF50160E06B
:104F600020E030E0A9014E01AA2497FCA094BA2CBD
:104F70001F0170ED572E560CA9E0A51570F48FEBAC
:104F8000860D8A3118F499EC592E06C08FE9860DEA
:104F90008A3130F589EA582E560C852D90E08C1711
:104FA0009D07F4F467FD18C0C216D306E406F506A3
:104FB00080F0C501B4010E941A2C9B01AC01250DA3
:104FC000311D411D511D213031054105B0E85B0700
:104FD00010F06FEF01C061E03196D1016C90C8CF45
:104FE000872D81700115110571F0662329F0319725
:104FF000D801ED93FC9307C071FE19C03297D80118
:10500000ED93FC9314C067FF12C0882329F020E0C1
:1050100030E040E050E804C02FEF3FEF4FEF5FE794
:1050200082E290E0909314038093130316C08823C8
:1050300041F050954095309521953F4F4F4F5F4F30
:105040000CC057FF0AC082E290E090931403809353
:1050500013032FEF3FEF4FEF5FE7B901CA0104C021
:1050600060E070E080E090E0DF91CF911F910F91C0
:10507000FF90EF90DF90CF90BF90AF909F908F9078
:105080007F906F905F903F902F90089566277727CD
:105090000C948D2AFC0188279927E89421912032CD
:1050A000E9F3293010F02E30C8F32B3241F02D32C5
:1050B00039F4689404C00E94A129820F911D2191A6
:1050C00020532A30C0F31EF4909581959F4F089588
:1050D000283008F027E03327DA01990F311D87FDCA
:1050E000916000966105710539F432602E5F3D9341
:1050F00030E32A95E1F708959F3F30F0803871053D
:10510000610509F03C5F3C5F3D93913008F0806899
:10511000911DDF93CF931F930F93FF92EF92192F5F
:10512000987F9695E92F96959695E90FFF27EA5C6B
:10513000FB4F99273327EE24FF24A701E7010590B1
:105140000894079428F4360FE71EF81E491F511DD6
:10515000660F771F881F991F0694A1F70590079483
:1051600028F4E70EF81E491F561FC11D770F881F30
:10517000991F661F0694A1F70590079428F4F80E6E
:10518000491F561FC71FD11D880F991F661F771F04
:105190000694A1F70590079420F4490F561FC71FE6
:1051A000D81F990F661F771F881F0694A9F784914F
:1051B0001095177041F0D695C79557954795F79478
:1051C000E7941A95C1F7ECEDF3E06894159015910A
:1051D00035916591959105907FE27395E118F10AFB
:1051E000430B560BC90BD009C0F7E10CF11E431F4E
:1051F000561FC91FD01D7EF4703311F48A95E6CF77
:10520000E894015030F0080F0AF40027021708F460
:10521000202F2395022F7A3328F079E37D932A9566
:10522000E9F710C07D932A9589F6069497956795BE
:10523000379517951794E118F10A430B560BC90BD4
:10524000D00998F023957E9173957A3308F070E336
:105250007C932013B8F77E9170617D9330F0839535
:1052600071E37D9370E32A95E1F71124EF90FF90AD
:105270000F911F91CF91DF91992787FD9095089508
:105280009111B2C2803219F089508550D0F708953B
:10529000FB01DC0105900D920020E1F70895FC016F
:1052A0000590615070400110D8F7809590958E0F51
:1052B0009F1F08954AE552E00E947A290895FB0154
:1052C000DC018D91019080190110D9F3990B08959B
:1052D000FB01DC0101900D920020E1F70895FC0133
:1052E0006150704001900110D8F7809590958E0F15
:1052F0009F1F0895FA01A191B081009719F41097AA
:10530000E1F0CD01DC01CD010D90002011F4C001D0
:1053100013C0FB012191222319F02015D9F7F3CFF7
:10532000FB012191201519F41E92119606C022232B
:10533000C1F70D900020A1F7D001FA01A193B0832D
:1053400008957AE0979F902D879F802D910D1124CD
:1053500008950F931F93CF93DF93182F092FEB011D
:105360008B8181FD03C08FEF9FEF20C082FF10C0B3
:105370004E815F812C813D81421753077CF4E88187
:10538000F9819F012F5F3F4F39832883108306C027
:10539000E885F985812F0995892B29F72E813F8191
:1053A0002F5F3F4F3F832E83812F902FDF91CF912F
:1053B0001F910F910895AEE0B0E0E1EEF9E20C9498
:1053C00058230D891E8986E08C831A8309838FEF09
:1053D0009FE79E838D83AE01475E5F4F6F89788D17
:1053E000CE0101960E945B1DEF81F885E00FF11F51
:1053F00010822E96E4E00C947423FA01AA27283038
:1054000051F1203181F1E8946F936E7F6E5F7F4F91
:105410008F4F9F4FAF4FB1E03ED0B4E03CD0670F0D
:10542000781F891F9A1FA11D680F791F8A1F911D60
:10543000A11D6A0F711D811D911DA11D20D009F4B0
:1054400068943F912AE0269F11243019305D3193F2
:10545000DEF6CF010895462F4770405D4193B3E0DB
:105460000FD0C9F7F6CF462F4F70405D4A3318F082
:10547000495D31FD4052419302D0A9F7EACFB4E033
:10548000A6959795879577956795BA95C9F70097EB
:105490006105710508959B01AC010A2E069457958C
:1054A000479537952795BA95C9F7620F731F841FE3
:1054B000951FA01D0895DC01CB01FC01F999FECFD9
:1054C00006C0F2BDE1BDF89A319600B40D9241508C
:1054D0005040B8F70895DC01A40FB51F415050406B
:1054E00048F0CB01840F951F2E910E947C2A4150D9
:1054F0005040D0F70895262FF999FECF92BD81BD77
:10550000F89A019700B4021639F01FBA20BD0FB601
:10551000F894FA9AF99A0FBE0895A0E0B0E0E3E992
:10552000FAE20C944C238B016115710521F0DB012B
:105530008C9311969C93EC015E01BFEFAB1ABB0AF2
:105540007501C8808C2D90E00E944029892B11F0B4
:10555000E501F2CFEDE2CE1208C07E01F2E0EF0EDF
:10556000F11CC980DD24D39409C02BE2C21205C00E
:105570007E0142E0E40EF11CC980D12CE7012197A5
:1055800043E050E06EED74E0CE010E94F72B892BD2
:10559000D1F4E701229645E050E069ED74E0CE01D8
:1055A0000E94F72B892B11F4E701279601151105AD
:1055B00019F0D801CD93DC93D11008C160E070E000
:1055C00080E89FE70CC143E050E066ED74E0CE0157
:1055D0000E94F72B892B59F40115110509F4FBC022
:1055E000B2E0EB0EF11CF801F182E082F4C0F701A9
:1055F00060E070E0CB01C0E0D0E07F01A0EDAA2E1A
:10560000AC0C29E02A1530F14D2D4260B42E2D2D21
:105610002870D2FE04C0211125C0219623C021117B
:105620002197A5E0B0E09B01AC010E940F2C660F12
:10563000771F881F991F6A0D711D811D911D683983
:10564000A9E97A078A07A9E19A0760F0BD2DB6603B
:10565000BB2E08C02EEFA2120AC0D3FC50C04D2DA5
:105660004860B42E3196D701CC90DB2CC6CF2C2DC0
:105670002F7D253409F043C0A081AD3241F4BD2D0A
:10568000B061DB2E7F0122E0E20EF11C0CC07F0135
:10569000AB3231F04FEFE41AF40A21E030E006C0FB
:1056A000A2E0EA0EF11CA18122E030E0A053AA3072
:1056B00018F0E21AF30A23C0F70120E030E02038A6
:1056C000BCE03B075CF4A901440F551F440F551F74
:1056D000240F351F220F331F2A0F311DAF014F5FDB
:1056E0005F4F7A01A081A053AA3010F4FA01E7CFEE
:1056F000D4FE03C0319521953109C20FD31FD1FECD
:1057000009C00115110531F0E1E0EE1AF108D801E8
:10571000ED92FC920E9489242D2D2370233019F0E4
:105720006B017C0106C06B017C01F7FAF094F7F87D
:10573000F09420E030E0A901C701B6010E94EC23FB
:10574000882309F440C0D7FF06C0D195C195D1097F
:1057500005EF14E002C00DE015E04801B8E18B1A36
:10576000910890E2A92EB12CF801459055906590D2
:105770007490CA15DB055CF0A3019201C701B60164
:105780000E943F256B017C01CA19DB09F2CF04504E
:105790001109B594A7940815190531F78E2D880FB6
:1057A0008F2D881F8F3F49F020E030E0A901C7010D
:1057B000B6010E94EC23811106C082E290E0909332
:1057C000140380931303C701B60109C060E070E0C1
:1057D00080E89FEF04C060E070E080EC9FE7CDB709
:1057E000DEB7E0E10C946823992788270895FB0130
:1057F000DC014150504088F08D9181341CF08B3594
:105800000CF4805E659161341CF06B350CF4605EC5
:10581000861B611171F3990B0895881BFCCF0E94C0
:105820004C2CA59F900DB49F900DA49F800D911DB1
:1058300011240895DB018F939F930E940F2CBF9139
:10584000AF91A29F800D911DA39F900DB29F900DCF
:1058500011240895A1E21A2EAA1BBB1BFD010DC045
:10586000AA1FBB1FEE1FFF1FA217B307E407F50710
:1058700020F0A21BB30BE40BF50B661F771F881FEC
:10588000991F1A9469F760957095809590959B0182
:10589000AC01BD01CF010895A29FB001B39FC0012B
:1058A000A39F700D811D1124911DB29F700D811D4C
:0A58B0001124911D0895F894FFCF14
:1058BA0000001503200000000A00332E5049202062
:1058CA00556E00692053747574742E005665727390
:1058DA00696F6E0076312E32002563256473740079
:1058EA002563252E31662563002563252E3366251B
:1058FA0063007374657000256325730064656772BD
:10590A0065650072616469616E0025632564206DB6
:10591A0073002563252E3166780025634D6F742048
:10592A002564002563252E30660053617665206163
:10593A006C6C002063757272656E7400636F6E66BC
:10594A0069677572006174696F6E732020004C6F0D
:10595A00616420616C6C00207361766564202000AC
:10596A00256353544F50002563435700256343432F
:10597A0057006E6F20746578740073776974636872
:10598A00206D6F6465007361766564006C6F616495
:10599A00656400202C3B09007374657073006465AC
:1059AA0067007069004552524F523A20656C736520
:1059BA00006572723A20756E6B6E6F776E206D6F2E
:1059CA00746F723A202564002566006572723A2067
:1059DA00756E6B6E6F776E206D6F746F7200657285
:1059EA00723A2074696D6520746F6F2073686F72E4
:1059FA0074006572723A2074696D6520746F6F2045
:065A0A006C6F6E670000E6
:00000001FF
