:100000000C94E1020C9400030C9400030C94000384
:100010000C9400030C9400030C9400030C94000354
:100020000C9400030C9453240C9400030C940003D0
:100030000C9400030C9400030C9400030C94000334
:100040000C94EF230C9400030C9400030C94000315
:100050000C94A1230C9400030C9400030C94000353
:100060000C9400030C9400030C9400030C94000304
:100070000C9400030C9400030C9400030C940003F4
:100080000C9400030C9400030C940003950E7B0C5D
:10009000C90C150D520DD40D930DCA0EA60B0F0EE3
:1000A000230C510E0614921358131813F9128F12C1
:1000B000731489144014BF13E9145F2BD92CC02C7E
:1000C000B22CA42C982C8C2C7E2C7A2C762C6A2C7E
:1000D0005E2C522C462C3A2C2E2C222C162C0A2C20
:1000E000FE2BF22BE62BD82B5D2BAC2B9E2B922BD1
:1000F0007E2B742B632BEB2C6E616E00696E660099
:100100003F0225021002F601DE01C501AC018D019E
:1001100071015001310118011B010B52756E2069EC
:100120006E7465726E616C0A70726F6772616D00D9
:100130000034010A53657420636F6E7374616E74CA
:100140000A616E67756C617220737065656400008A
:10015000530109446566696E65206F707469636157
:100160006C0A7A65726F20706F736974696F6E00C4
:10017000007401084C6F6164206C6173740A636FD2
:100180006E66696775726174696F6E000090010731
:10019000536176652063757272656E740A636F6E63
:1001A00066696775726174696F6E0000AF0106431E
:1001B00068616E6765206D6F746F720A7375627324
:1001C0007465700000C8010552756E207A65726F03
:1001D0000A63616C6962726174696F6E0000E101AB
:1001E0000453657420737465700A6D756C7469705E
:1001F0006C6965720000F901034368616E676520F0
:10020000737465700A776169742074696D650000A4
:100210001302024368616E676520737465700A7526
:100220006E697400002802014368616E6765206D85
:100230006F746F720A706F736974696F6E00004239
:1002400002004D6F746F72204472697665720A20E5
:10025000000067045D04520448043B042E0421049A
:1002600015040904FB03ED03DF03D003BD03AA0358
:10027000980386037603660355034403330322037E
:100280000F03FD02F002DF02CD02BC02AB029B02B3
:1002900092029602039F4C454400009F02009E4438
:1002A0004247524541444F55540000AF02019D471B
:1002B00045544D4F5453544154450000C002069CD0
:1002C00053455450524F47535445500000D10202F9
:1002D0009B454E4142464F52425A4F4E450000E325
:1002E00002039A534554464F52425A4F4E4500001E
:1002F000F402009953544F50414C4C00000103004C
:1003000098464143544F52595245534554000013A7
:10031000030397534554434F4E535453504545445C
:100320000000260302965345545741495454494D01
:1003300045000037030195474554574149545449F6
:100340004D450000480302945345545355425354BD
:1003500045505300005903019347455453554253A8
:100360005445505300006A03029253455446554C7D
:100370004C524F5400007A03019147455446554C66
:100380004C524F5400008A03029053455447454154
:1003900052524154494F00009C03018F4745544736
:1003A000454152524154494F0000AE03028E53451D
:1003B000544F50545A45524F504F530000C10301FF
:1003C0008D4745544F50545A45524F504F5300009B
:1003D000D403018C474554414E414C4F470000E344
:1003E00003018B49534D4F56494E470000F103001E
:1003F0008A4C4F4144434F4E460000FF030089534F
:10040000415645434F4E4600000D0402884745546F
:10041000504F53000019040287454E41424C45009D
:1004200000250401865A45524F52554E00003204B1
:1004300003854D4F564552454C00003F0403844D03
:100440004F564541425300004C0401832A49444E13
:100450000000560400822A49444E3F000061040017
:10046000812A52535400006B0400800000000000F9
:1004700000FFFF000000000000000001000100007C
:1004800000000000000000FFFF0000000000407AB4
:1004900010F35A00A0724E18090010A5D4E800000D
:1004A000E87648170000E40B54020000CA9A3B00AB
:1004B0000000E1F505000080969800000040420F22
:1004C000000000A08601000000102700000000E8E6
:1004D00003000000006400000000000A00000000AB
:1004E000000100000000002C76D888DC674F08234C
:1004F000DFC1DFAE59E1B1B796E5E3E453C63AE6B2
:1005000051997696E8E6C28426EB898C9B62ED4091
:100510007C6FFCEFBC9C9F40F2BAA56FA5F49005E0
:100520005A2AF75C936B6CF9676DC11BFCE0E40D14
:1005300047FEF520E6B500D0ED902E030094357708
:10054000050080841E080000204E0A000000C80C30
:10055000333333330F986E12831141EF8D21148999
:100560003BE65516CFFEE6DB18D1844B381BF77CF3
:100570001D901DA4BBE424203284725E228100C938
:10058000F124ECA1E53D274E414E494E49545949CD
:100590004E46CDCCCC3D0AD7233C17B7D13877CCCB
:1005A0002B329595E6241FB14F0A00002041000030
:1005B000C84200401C4620BCBE4CCA1B0E5AAEC5E9
:1005C0009D7411241FBECFEFD0E4DEBFCDBF12E07B
:1005D000A0E0B1E0E0E8FCE600E00BBF02C007905D
:1005E0000D92A03AB107D9F714E0A0EAB2E001C039
:1005F0001D92A734B107E1F70E942C2A0C943E36D5
:100600000C94000095B19F7095B995B1807F982B9F
:1006100095B92B9A85E88A95F1F700002B980895F3
:10062000CF93DF9377FD4FC042B190E0FC01EE0F16
:10063000FF1F319621E030E00E2E01C0220F0A94F8
:10064000EAF72095242322B977FD4FC06115710583
:10065000B9F1AC01440F551F21E030E001C0220F79
:100660004A95EAF7B22FA22FA09540E050E023E28E
:10067000289FF001299FF00D1124E353FC4F82B114
:100680008B2B82B98DE08A95F1F7000082B18A2325
:1006900082B980819181892B71F080E090E0C7E878
:1006A000D3E12197F1F700C000000196208131814C
:1006B00082179307A0F34F5F5F4F46175707F9F66E
:1006C000DF91CF910895E2B190E0AC01440F551F46
:1006D0004F5F5F4F21E030E0042E01C0220F0A94EB
:1006E000EAF72E2B22B977FFB1CF71956195710989
:1006F000ADCF8091A602809587FD04C086FF04C01F
:1007000086E0089587E0089585FF02C085E008959A
:1007100084FF02C084E0089583FF02C083E008954F
:1007200080FD02C08AE2089580E008954F925F92B2
:100730006F927F928F929F92AF92BF92CF92DF92F1
:10074000EF92FF92CF93DF9320E030E0C3E2812C61
:10075000912C80E4A82EBA2CC12CD12C98ECE92E37
:1007600093E4F92E40E050E060E870E4412C512C15
:10077000E0E86E2EEFE37E2ED1E0A3E0B0E0C29F72
:10078000F001C39FF00D1124E155FC4F118210823E
:1007900013821282158214821682178210861186A5
:1007A00012861386148685869686A786B08AC18AA5
:1007B000D28AE38AF48A458B568B678B708F428E80
:1007C000538E648E758ED18FB78FA68F868D978D41
:1007D000880F991F019791A380A312A22F5F3F4F0B
:1007E0002430310561F61092BB021092BA021092C9
:1007F000A9031092A80310923F0410924004109293
:100800008D0310928C0388E080938E031092A902CE
:100810008AE28093AA0292E09093AB021092AC021B
:100820001092AD028093AE0280E18093AF021092ED
:10083000A6021092A7021092A80210928F031092A3
:100840009003109291031092AE0380E090E0FC01BF
:10085000EE0FFF1FEE0FFF1FE80FF91FEE56FC4FC4
:1008600014821182108213821282019684309105C3
:1008700071F720E030E041E0F901EE0FFF1FC90100
:10088000880F991F880F991F880F991FE80FF91F6C
:10089000E454FD4F10824187128211821482138228
:1008A00016821582108617822F5F3F4F2031310547
:1008B00019F781E08093BC02DF91CF91FF90EF9018
:1008C000DF90CF90BF90AF909F908F907F906F9070
:1008D0005F904F9008951092C50085E18093C40009
:1008E000E1ECF0E0808188698083089580E4809362
:1008F0007C0083E880937A0080917A008064809302
:100900007A0080917A0086FDFCCF809178009091EA
:100910007900089520E030E080E090E0E091A002CE
:10092000F091A1020190F081E02DE80FF91F1082F3
:1009300001968431910591F780E090E0E091B0025A
:10094000F091B102E20FF31F0190F081E02DE80F6A
:10095000F91F1082E091B202F091B302E20FF31F8F
:100960000190F081E02DE80FF91F10820196893087
:10097000910521F780E090E0E091B402F091B5029A
:10098000E20FF31F0190F081E02DE80FF91F1082B4
:10099000E091B602F091B702E20FF31F0190F081EF
:1009A000E02DE80FF91F108201968131910521F7A2
:1009B000E091B802F091B90280E4DF01982F1D9216
:1009C0009A95E9F7E091A603F091A703DF01982F2C
:1009D0001D929A95E9F7E0913B04F0913C04DF0108
:1009E0001D928A95E9F7E091AA03F091AB0388E2A2
:1009F000DF011D928A95E9F708959091C00095FF57
:100A0000FCCF8093C6000895DC012C91222359F07D
:100A1000FC0131969091C00095FFFCCF2093C60059
:100A200021912111F7CF8091C00085FFFCCF8AE092
:100A30008093C600E091A603F091A70380E4DF0154
:100A40001D928A95E9F70895E0EBF0E080818260DD
:100A500080838DE48093B300E0E7F0E080818260E2
:100A600080831092B200E1EBF0E0808185608083AA
:100A700008956115710511F00C941003089523E297
:100A8000829FC0011124FC01E155FC4F80819181BE
:100A9000680F791F73836283828193819583848336
:100AA000089590917C008F71907E892B80937C00BB
:100AB00010928D0310928C0380918E03882301F194
:100AC00040E080917A00806480937A0080917A007F
:100AD00086FDFCCF909178005091790020918C0395
:100AE00030918D03892F90E0952B820F931F909367
:100AF0008D0380938C034F5F80918E03481708F31A
:100B000080918C0390918D0360918E0370E00E9420
:100B1000F72CCB0108954F925F926F927F92AF9224
:100B2000BF92CF92DF92EF92FF920F931F93CF93DA
:100B3000C82ED12CF601EE0FFF1FEE0FFF1FEC0D9C
:100B4000FD1DEE56FC4F94819111B4C0C82F8091C9
:100B5000B100887F8093B10083E28C9D80018D9DE0
:100B6000100D112401551C4FF801A68CB78C61891A
:100B7000728983899489258536854785508945887A
:100B800056886788708C0E94332FA30192010E94BF
:100B9000332F2B013C0181E090E0F801978F868F85
:100BA00005C068E37FEF8C2F0E9410038C2F0E94FA
:100BB0005105C297B0F3C301B2010E94962F0E9463
:100BC000FE2D7B0100E010E00CC061E070E08C2F96
:100BD0000E9410038C2F0E945105C29728F00F5FCE
:100BE0001F4F0E151F0589F720E030E040E85EE357
:100BF000C301B2010E94332F0E94962F0E94F92D4B
:100C00006115710509F068C020E030E040E45FE361
:100C1000C301B2010E94332F0E94962F0E94F92D2A
:100C2000685C710909F05CC083E28C9DF0018D9DC8
:100C3000F00D1124E155FC4F85E090E0978F868FF1
:100C400005C061E070E08C2F0E9410038C2F0E9481
:100C50005105C397B0F783E28C9DF0018D9DF00D97
:100C60001124E155FC4FB78EA68E64817581611504
:100C7000710571F583E28C9DF0018D9DF00D1124BD
:100C8000E155FC4F11821082138212828091B000D4
:100C900082608093B0008DE48093B30080917000F7
:100CA0008260809370001092B2008091B1008560E4
:100CB0008093B100CF911F910F91FF90EF90DF9043
:100CC000CF90BF90AF907F906F905F904F900895BE
:100CD0008C2F0E941003CECF8C2F0E94100394CF34
:100CE0008C2F0E941003A0CFAF92BF92CF92DF92C1
:100CF000EF92FF920F931F93CF93DF93F894CFEA75
:100D0000D3E088EBA82E80E0B82E92E9C92E93E0BC
:100D1000D92EE12CF12C00E010E0B80164507F4F97
:100D200042E050E0CE0104960E944634B70164517F
:100D30007F4F44E050E0CE010D960E944634B7014B
:100D400064527F4F44E050E0CE0141960E94463409
:100D5000B70164537F4F44E050E0CE0145960E94B6
:100D60004634B70164547F4F44E050E0CE014A96C8
:100D70000E94463441E050E0B501CE0149960E9400
:100D80004634B80160557F4F42E050E0CE014E96A8
:100D90000E944634B80168557F4F42E050E0C601DA
:100DA0000E944634B80160567F4F42E050E0C601D1
:100DB00002960E944634A3960E5F1F4F84E0E80E11
:100DC000F11C8FEFA81AB80A85E0C80ED11C0830B4
:100DD000110509F0A2CF4AE050E060E070E08CEB32
:100DE00092E00E944634C0E0D0E02A96BE016050F6
:100DF00070404AE050E0CE0184549D4F0E9446343A
:100E0000C639D10591F77894DF91CF911F910F9159
:100E1000FF90EF90DF90CF90BF90AF9008959F929A
:100E2000AF92BF92CF92DF92EF92FF920F931F93F8
:100E3000CF93DF93F894CFEAD3E092E9C92E93E001
:100E4000D92EE12CF12C00E010E0A12CB12C99243A
:100E5000939442E050E0B80164507F4FCE01049675
:100E60000E94363444E050E0B70164517F4FCE0118
:100E70000D960E94363444E050E0B70164527F4F33
:100E8000CE0141960E94363444E050E0B7016453ED
:100E90007F4FCE0145960E94363444E050E0B701C2
:100EA00064547F4FCE014A960E94363441E050E0B0
:100EB000B50168547F4FCE0149960E94363442E016
:100EC00050E0B80160557F4FCE014E960E943634F7
:100ED00042E050E0B80168557F4FC6010E943634A9
:100EE00042E050E0B80160567F4FC60102960E9472
:100EF0003634F501EE0FFF1FEE0FFF1FEA0DFB1D4D
:100F0000EE56FC4F20813181828193812817390769
:100F100009F094828FEFA81AB80AA3960E5F1F4FAC
:100F200084E0E80EF11C85E0C80ED11C84E0A81610
:100F3000B10409F08ECF4AE050E060E070E08CEB45
:100F400092E00E943634C0E0D0E02A96BE016050A4
:100F500070404AE050E0CE0184549D4F0E943634E8
:100F6000C639D10591F77894DF91CF911F910F91F8
:100F7000FF90EF90DF90CF90BF90AF909F9008953B
:100F8000CF93C82F299A0E9402038C2F8295807FCD
:100F90000E94020385EE90E00197F1F700C0000087
:100FA000CF910895CF93C82F29980E9402038C2FC8
:100FB0008295807F0E94020381ED90E00197F1F716
:100FC00000C00000CF91089584B18A6F84B985B1C3
:100FD000857085B92FE58AEE90E0215080409040E1
:100FE000E1F700C0000080E30E94020387EA91E677
:100FF0000197F1F700C000002B9A95E89A95F1F758
:1010000000002B9887E893E10197F1F700C00000FA
:101010002B9A95E89A95F1F700002B9887E893E1D1
:101020000197F1F700C0000080E20E94020387EA06
:1010300091E60197F1F700C0000088E20E94D20714
:101040008CE00E94D20786E00E94D20781E00E94D5
:10105000D2078FE097E20197F1F700C000000895F2
:1010600081E00E94D2078FE097E20197F1F700C07C
:101070000000089582E00E94D2078FE097E2019776
:10108000F1F700C000000895623081F050F0633045
:1010900029F0643071F480530C94D20780570C947B
:1010A000D207613039F480580C94D20780540C94E4
:1010B000D20708950895CF93DF93EC0188818823A8
:1010C00031F021960E94C00789918111FBCFDF91F9
:1010D000CF910895EF92FF920F931F93CF93DF93D9
:1010E00000D0CDB7DEB728E0829FC0011124806414
:1010F00069837A830E94D2076981E62E7A81F72E6E
:101100008701085F1F4FF70181917F010E94C0078F
:10111000E016F106C1F70F900F90DF91CF911F916C
:101120000F91FF90EF900895982F990F890F880FD6
:10113000680F70E0FB01E45AFC4F4083FB01E15A69
:10114000FC4F40830895479A89EF90E00197F1F7AB
:1011500000C00000479889EC98E00197F1F700C0C3
:101160000000469A92E49A95F1F700C084EF91E06E
:1011700022E42A95F1F700C0479A22E42A95F1F774
:1011800000C047980197A1F708954F925F926F9220
:101190007F928F929F92AF92BF92CF92DF92EF9207
:1011A000FF920F931F93CF93DF93CDB7DEB72897AE
:1011B0000FB6F894DEBF0FBECDBFF82ECB01BA013B
:1011C000A90198010E94332F4B015C0143E2F49E78
:1011D00090011124890101551C4FF8016189728920
:1011E000838994892585368547855089C588D68821
:1011F000E788F08C0E94332FA70196010E94332FBD
:1012000020E030E044EB53E40E94912D9B01AC01BF
:10121000C501B4010E94332F0E94962F6B017C01FF
:10122000F801628073800E94F92D660D771DF80128
:101230007383628361897289838994892585368560
:10124000478550892D833E834F835887458856882C
:101250006788708C268137814085518529833A8340
:101260004B835C832D813E814F8158850E94332FB3
:10127000A30192010E94332F20E030E044EB53E4BD
:101280000E94912D9B01AC01C501B4010E94332F36
:10129000A70196010E94282D9B01AC0169817A81EA
:1012A0008B819C810E94292DF8016683778380873A
:1012B000918728960FB6F894DEBF0FBECDBFDF91A1
:1012C000CF911F910F91FF90EF90DF90CF90BF9043
:1012D000AF909F908F907F906F905F904F90089508
:1012E0004F925F926F927F928F929F92AF92BF9236
:1012F000CF92DF92EF92FF92CF93DF9300D000D096
:10130000CDB7DEB723E2829FC0011124FC01E15575
:10131000FC4F4584568467847088258936894789BF
:10132000508D81889288A388B488882777FD80951E
:10133000982F29833A834B835C830E942C2E6B0168
:101340007C0129813A814B815C81C301B2010E94F9
:10135000332FA50194010E94332F9B01AC0160E063
:1013600070E084EB93E40E94912D9B01AC01C701D6
:10137000B6010E94332F0F900F900F900F90DF91C6
:10138000CF91FF90EF90DF90CF90BF90AF909F9064
:101390008F907F906F905F904F9008954F925F92E3
:1013A0006F927F928F929F92AF92BF92CF92DF9275
:1013B000EF92FF920F931F93CF93DF93CDB7DEB7DA
:1013C00028970FB6F894DEBF0FBECDBFF82ECB0125
:1013D000BA01A90198010E94332F4B015C0143E23D
:1013E000F49E90011124890101551C4FF801618977
:1013F0007289838994892585368547855089C58872
:10140000D688E788F08C0E94332FA70196010E94AE
:10141000332F20E030E040E05FE30E94332F9B0158
:10142000AC01C501B4010E94332F0E94962F6B01BD
:101430007C01F801628073800E94F92D660D771D92
:10144000F801738362836189728983899489258510
:101450003685478550892D833E834F83588745883D
:1014600056886788708C268137814085518529830D
:101470003A834B835C832D813E814F8158850E9446
:10148000332FA30192010E94332F20E030E040E08F
:101490005FE30E94332F9B01AC01C501B4010E94A0
:1014A000332FA70196010E94282D9B01AC01698171
:1014B0007A818B819C810E94292DF8016683778334
:1014C0008087918728960FB6F894DEBF0FBECDBFF8
:1014D000DF91CF911F910F91FF90EF90DF90CF9010
:1014E000BF90AF909F908F907F906F905F904F9044
:1014F00008954F925F926F927F928F929F92AF92D8
:10150000BF92CF92DF92EF92FF92CF93DF9300D002
:1015100000D0CDB7DEB723E2829FC0011124FC01C9
:10152000E155FC4F45845684678470882589368947
:101530004789508D81889288A388B488882777FD51
:101540008095982F29833A834B835C830E942C2EAD
:101550006B017C0129813A814B815C81C301B2011D
:101560000E94332FA50194010E94332F9B01AC01EF
:1015700060E070E080E090E40E94912D9B01AC015E
:10158000C701B6010E94332F0F900F900F900F905C
:10159000DF91CF91FF90EF90DF90CF90BF90AF9011
:1015A0009F908F907F906F905F904F900895F894E8
:1015B000613011F1A0F0623081F493E2899FF00173
:1015C0001124E155FC4F648780819181938382834C
:1015D000828193810197938382837894089593E223
:1015E000899FF0011124E155FC4F1486808191817F
:1015F000938382837894089593E2899FF001112464
:10160000E155FC4F6487808191819383828382813D
:101610009381019693838283E0CFE82FF0E0EE0F71
:10162000FF1FE050FF4F85919491FC0165917491EB
:101630008091AA039091AB030E94103360E171E0A6
:101640008091AA039091AB030E9422339093AB0345
:101650008093AA03E091B602F091B702BC018081A9
:1016600091810E942F3366E071E080E090E00E945B
:1016700022339093AB038093AA03E091B602F091DA
:10168000B702BC01828193810E942F3380E090E0F9
:1016900020E2E091B602F091B702E80FF91FA081B5
:1016A000B181FD0101900020E9F73197EA1BE0319B
:1016B00078F4A091B602B091B702A80FB91F0D90AF
:1016C000BC91A02DAE0FB11D2C93EF5FE03189F7D7
:1016D000E091B602F091B702E80FF91F0190F08196
:1016E000E02D108A02968430910599F608952F9284
:1016F0003F924F925F926F927F928F929F92AF92A2
:10170000BF92CF92DF92EF92FF920F931F93CF93EE
:10171000DF93CDB7DEB727970FB6F894DEBF0FBEC5
:10172000CDBFE82FF0E0EE0FFF1FE050FF4F859197
:101730009491FC013296E4918E2F90E08C309105CB
:10174000C8F5FC01EA5BFF4F0C941F2DE091B2023B
:10175000F091B302A081B18189E0E0EBF1E001906A
:101760000D928A95E1F7E091B202F091B302A28165
:10177000B38189E0E9EBF1E001900D928A95E1F700
:10178000E091B202F091B302A481B58189E0EEE963
:10179000F1E001900D928A95E1F7E091B202F091AB
:1017A000B302A681B78189E0E7EAF1E001900D92EA
:1017B0008A95E1F780E090E020E2E091B202F091BA
:1017C000B302E80FF91FA081B181FD010190002053
:1017D000E9F73197EA1BE83078F4A091B202B091B2
:1017E000B302A80FB91F0D90BC91A02DAE0FB11D73
:1017F0002C93EF5FE83089F7E091B202F091B302E9
:10180000E80FF91F0190F081E02D108602968830D4
:10181000910599F627960FB6F894DEBF0FBECDBF9F
:10182000DF91CF911F910F91FF90EF90DF90CF90BC
:10183000BF90AF909F908F907F906F905F904F90F0
:101840003F902F900895A12CB12C412C512C93E264
:10185000892E2EECC22E21E0D22E39ECE32E31E07F
:10186000F32E02EC11E049E0942E38018091AF0292
:1018700090E0042C02C0959587950A94E2F780FDCC
:10188000A9C210E2F201EE0FFF1FEE0FFF1FE40DE1
:10189000F51DEE56FC4F84818111B8C2849CF00185
:1018A000859CF00D1124E155FC4F82A1882309F499
:1018B0007CC3849CF001859CF00D1124E155FC4F04
:1018C00082A1813009F4D1C3849CF001859CF00D84
:1018D0001124E155FC4F82A1823009F4AFC32FEFF0
:1018E000421A520A62E0A60EB11C74E04716510477
:1018F00009F0BCCF5FCF00E010E0212C312C8091AB
:10190000AF0290E0022C02C0959587950A94E2F709
:1019100080FF5DC28091AC02882309F4A3C22EE34C
:101920002F8383E2829DF001839DF00D1124E15508
:10193000FC4F818D813009F498C2823009F4EDC2E8
:1019400081111CC080819181E091B202F091B302BB
:101950009F938F931F929F819F93A2E3B1E0BF93C8
:10196000AF93E00FF11F81818F9380818F930E944D
:10197000A8330FB6F894DEBF0FBECDBF7FEF271A96
:10198000370A0E5F1F4F84E02816310409F0B7CFE5
:1019900011CF812C912C412C512C63E2762E7BE4CB
:1019A000E72E71E0F72E00E511E0E5E5AE2EE1E06F
:1019B000BE2EFCE5CF2EF1E0DF2E8091AF0290E04D
:1019C000042C02C0959587950A94E2F780FDFBC12F
:1019D00020E2749CF001759CF00D1124E155FC4F40
:1019E000818D882309F422C2749CF001759CF00D4E
:1019F0001124E155FC4F818D813009F4EDC2749CB6
:101A0000F001759CF00D1124E155FC4F818D823061
:101A100009F4FCC29FEF491A590AA2E08A0E911CF0
:101A2000B4E04B16510449F6C5CEC12CD12C53E27B
:101A3000F52E03E611E08091AF0290E00C2C02C07D
:101A4000959587950A94E2F780FDC6C120E2FC9C3B
:101A5000F001FD9CF00D1124E155FC4F868D978D12
:101A6000E091B202F091B3029F938F931F922F9354
:101A70001F930F93C601880F991FE80FF91F8181EB
:101A80008F9380818F930E94A8332FEFC21AD20ABE
:101A90000FB6F894DEBF0FBECDBF74E0C716D104F9
:101AA00051F688CEC12CD12C33E2F32E0BE611E097
:101AB0008091AF0290E00C2C02C0959587950A9416
:101AC000E2F780FD7EC120E2FC9CF001FD9CF00D60
:101AD0001124E155FC4F828D938DA48DB58DE0913D
:101AE000B202F091B302BF93AF939F938F931F9273
:101AF0002F931F930F93C601880F991FE80FF91FAB
:101B000081818F9380818F930E94A8338FEFC81AB1
:101B1000D80A0FB6F894DEBF0FBECDBFB4E0CB1627
:101B2000D10431F647CEC12CD12CE3E2FE2E05E8DC
:101B300011E08091AF0290E00C2C02C09595879542
:101B40000A94E2F780FD4AC120E2FC9CF001FD9C72
:101B5000F00D1124E155FC4F85899689A789B08D38
:101B6000E091B202F091B302BF93AF939F938F9332
:101B70001F922F931F930F93C601880F991FE80F91
:101B8000F91F81818F9380818F930E94A833AFEFDB
:101B9000CA1ADA0A0FB6F894DEBF0FBECDBF74E0E2
:101BA000C716D10431F606CEE12CF12CA12CB12CB4
:101BB0000CE711E0B9E0DB2E8091AF0290E00A2C37
:101BC00002C0959587950A94E2F780FD1DC190E2C9
:101BD000F501EE0FFF1FEE0FFF1FEA0DFB1DEE5686
:101BE000FC4F8481E091B202F091B302882309F4A2
:101BF000F7C0EE0DFF1DA081B181E3E7F1E08D2D6F
:101C000001900D928A95E1F77FEFA71AB70A82E05B
:101C1000E80EF11C94E0A916B10471F6CBCDC12CED
:101C2000D12C63E2F62E02E311E08091AF0290E046
:101C30000C2C02C0959587950A94E2F780FFC5C0E9
:101C40008091AC02882309F40BC12EE3FC9CF001C7
:101C5000FD9CF00D1124E155FC4F84819581E091AC
:101C6000B202F091B3029F938F931F922F931F9311
:101C70000F93C601880F991FE80FF91F81818F9379
:101C800080818F930E94A8338FEFC81AD80A0FB6AD
:101C9000F894DEBF0FBECDBFB4E0CB16D10429F659
:101CA00089CDE091B202F091B302A081B18189E0C7
:101CB000E4EDF1E001900D928A95E1F7E091B20236
:101CC000F091B302A281B38189E0EDEDF1E00190E2
:101CD0000D928A95E1F78091AD02E091B202F09108
:101CE000B302282F332727FD30953F938F9386EE3D
:101CF00091E09F938F9385818F9384818F930E942E
:101D0000A833E091B202F091B302A681B78189E0D5
:101D1000EEEEF1E001900D928A95E1F70F900F90B1
:101D20000F900F900F900F9045CDE091B202F0917F
:101D3000B302A081B18189E0E2E1F1E001900D926E
:101D40008A95E1F7E091B202F091B302A281B381EA
:101D500089E0EBE1F1E001900D928A95E1F7E091E5
:101D6000B202F091B302A481B58189E0E4E2F1E02E
:101D700001900D928A95E1F7E091B202F091B302E1
:101D8000A681B78185E0EDE2F1E001900D928A95A0
:101D9000E1F710CDE091B202F091B302A081B181E0
:101DA00089E0ECE8F1E001900D928A95E1F7E0918D
:101DB000B202F091B302A281B38189E0E5E9F1E0DA
:101DC000DBCC2EE781CE2EE704CE20E23FCF60E2CF
:101DD0006F83A7CD1EE756CD2EE739CE2EE7B5CEC1
:101DE000BF92AF921F929F931F930F93EE0DFF1D13
:101DF00081818F9380818F930E94A8330FB6F894CE
:101E0000DEBF0FBECDBF00CF9EE7E2CEE091B202B3
:101E1000F091B302EA0DFB1DA081B181E3E7F1E08F
:101E2000892D01900D928A95E1F759CDE091B2028A
:101E3000F091B302FF92EF921F922F931F930F9393
:101E4000E80DF91D81818F9380818F932E830E94ED
:101E5000A8330FB6F894DEBF0FBECDBF2E81C4CD20
:101E60002EE7F4CE7EE77F835CCD6081718145846F
:101E7000568467847088258936894789508D818882
:101E80009288A388B4888091B2029091B3029A8319
:101E900089831F929FED9F93882777FD8095982FC8
:101EA0002E833B834C835D830E942C2E6B017C012F
:101EB0002E813B814C815D81C301B2010E94332F91
:101EC000A50194010E94332F9B01AC0160E070E0FA
:101ED00084EB93E40E94912D9B01AC01C701B601F4
:101EE0000E94332F9F938F937F936F931F92AF81A5
:101EF000AF93A9E3B1E0BF93AF93E981FA81E00F1B
:101F0000F11F81818F9380818F930E94A8330FB638
:101F1000F894DEBF0FBECDBF31CD80819181858425
:101F20009684A784B088258936894789508DC188D1
:101F3000D288E388F488A091B202B091B302BA8348
:101F4000A9831F92B7EFBF93BC01882777FD8095C7
:101F5000982F2E833B834C835D830E942C2E2B0174
:101F60003C012E813B814C815D81C501B4010E9401
:101F7000332FA70196010E94332F9B01AC0160E033
:101F800070E080E090E40E94912D9B01AC01C301C0
:101F9000B2010E94332F9F938F937F936F931F9271
:101FA0002F812F93A2E4B1E0A6CFE091B202F0918D
:101FB000B3021F921F937F926F92EA0DFB1D8181E6
:101FC0008F9380818F930E94A8330F900F900F9072
:101FD0000F900F900F906DCCE091B202F091B30290
:101FE000BF92AF921F922F931F930F93E80DF91D8D
:101FF00081818F9380818F932E830E94A8330FB6A7
:10200000F894DEBF0FBECDBF2E81F9CCE091B202B5
:10201000F091B302DF92CF921F922F931F930F93F1
:10202000E80DF91D81818F9380818F930E94A833E1
:102030000FB6F894DEBF0FBECDBFECCCE091B2027C
:10204000F091B3021F921F93DF92CF92EA0DFB1D16
:1020500081818F9380818F930E94A8330F900F907E
:102060000F900F900F900F903ACCE091B202F09148
:10207000B3021F921F93FF92EF92EA0DFB1D818125
:102080008F9380818F930E94A8330F900F900F90B1
:102090000F900F900F9018CCCF93DF938091AE02EA
:1020A000823009F482C0833049F0813039F0809168
:1020B000AB028093AE02DF91CF9108958091AA0286
:1020C0000E94770BA091B202B091B302E091B002EE
:1020D000F091B1026D917C91808191810E942633B3
:1020E000892B09F016C1A091B202B091B302E09120
:1020F000B002F091B10212966D917C91139782819A
:1021000093810E942633892B09F0E0C0A091B2028E
:10211000B091B302E091B002F091B10214966D91CA
:102120007C911597848195810E942633892B09F033
:10213000AAC0A091B202B091B302E091B002F091B6
:10214000B10216966D917C911797868197810E94B6
:102150002633892B09F4ABCF88EC0E94D207E0919B
:10216000B202F091B302C681D7818881882331F011
:1021700021960E94C00789918111FBCFA091B202E4
:10218000B091B302E091B002F091B10216966D9158
:102190007C911797868197810E942F338091AB02A3
:1021A0008093AE02DF91CF9108959091AA02809121
:1021B000A902981709F47BCF8091A9020E940D0B08
:1021C00080E80E94D207E091B602F091B702C08188
:1021D000D1818881882331F021960E94C00789919E
:1021E0008111FBCFA091B602B091B702E091B40289
:1021F000F091B5026D917C91808191810E942F3385
:1022000080EC0E94D207E091B602F091B702C28141
:10221000D3818881882331F021960E94C00789915B
:102220008111FBCFA091B602B091B702E091B40248
:10223000F091B50212966D917C91139782819381F2
:102240000E942F338091A9028093AA0280E090E03F
:1022500028E0E091B002F091B102E80FF91FA081EF
:10226000B181E7EFF1E0322F01900D923A95E1F75D
:1022700002968A30910569F78091AB028093AE0295
:10228000DF91CF91089580EC0E94D207E091B202D5
:10229000F091B302C481D5818881882331F02196E1
:1022A0000E94C00789918111FBCFA091B202B09129
:1022B000B302E091B002F091B10214966D917C915D
:1022C0001597848195810E942F3333CF88E80E942F
:1022D000D207E091B202F091B302C281D38188812A
:1022E000882331F021960E94C00789918111FBCF8C
:1022F000A091B202B091B302E091B002F091B102AC
:1023000012966D917C911397828193810E942F3355
:10231000FDCE80E80E94D207E091B202F091B302B4
:10232000C081D1818881882331F021960E94C00725
:1023300089918111FBCFA091B202B091B302E091DB
:10234000B002F091B1026D917C91808191810E94E7
:102350002F33C9CE4F925F926F927F928F929F924E
:10236000AF92BF92CF92DF92EF92FF920F931F93A3
:10237000CF93DF9300D000D0CDB7DEB78091A80215
:10238000811105C080919103882309F472C02091C6
:10239000AA021091AE02123081F1113009F47EC010
:1023A000133009F062C08091A8028111E3C2F89451
:1023B00080919103882309F48BC040909003109280
:1023C00090037894442009F450C0E091AA02F0E010
:1023D000EE0FFF1FE050FF4F85919491FC01329664
:1023E000E4918E2F90E0FC013197EB30F10508F07D
:1023F0003CC0EE5AFF4F0C941F2DF894809191032E
:10240000882309F478C08091900310929003992753
:1024100087FD90957894820F911D27FD9A956CE029
:1024200070E00E940B2D97FD8BE08093A9028091B4
:10243000A802882359F00E947903811107C0809176
:10244000AF02811103C081E08093AB028091A802AA
:10245000882359F00E947903811107C08091AF024F
:10246000882319F083E08093AB021092A8021092A7
:1024700091030F900F900F900F90DF91CF911F91CC
:102480000F91FF90EF90DF90CF90BF90AF909F9013
:102490008F907F906F905F904F9008958091A802E9
:1024A000882319F30E9479038430A1F038F1863033
:1024B00009F456C208F44AC28730B9F69091AF02C7
:1024C00081E089278093AF0283E08093AB020BC049
:1024D000412C77CF9091AF0288E089278093AF029B
:1024E00083E08093AB02133009F461CF1092A8020D
:1024F00010929103BECF80E090E08CCF882309F446
:102500001EC2833009F0B1CF82E08093AB0280918C
:10251000AA028F5F8093AA021092AC02E4CF00E07F
:1025200010E063E2D62E8091AF0290E0002E02C050
:10253000959587950A94E2F780FF54C0D09EC0011C
:10254000D19E900D112414140CF0ADC2DC01A155E4
:10255000BC4F7D0155966D917D918D919C915897C1
:102560009B01AC010E94292DF701658B768B878B2F
:10257000908FD09EC001D19E900D11249C012155B9
:102580003C4F7901D90155966D917D918D919C912A
:10259000589720E030E040E85FE30E948D2D87FDF2
:1025A00078C2D09EC001D19E900D11249C0121556E
:1025B0003C4F7901D90155966D917D918D919C91FA
:1025C000589720E030E040E052E40E942F2F181688
:1025D0004CF480E090E0A0E0B2E4F701858B968BAC
:1025E000A78BB08F0F5F1F4F0430110509F09BCFF1
:1025F0003CCFE12CF12C01E010E08091AF0290E0A3
:102600000E2C02C0959587950A94E2F780FDC5C10E
:10261000FFEFEF1AFF0A24E0E216F10471F782E0FF
:102620008093AB028091AA028F5F8093AA021DCF94
:1026300000E010E073E2B72EC42CDD24C7FCD09478
:10264000ED2CFD2C8091AF0290E0002E02C09595FC
:1026500087950A94E2F780FF25C0B09EC001B19E25
:10266000900D11249C0121553C4F4901D9015A96E6
:102670004D905D906D907C905D97C701B6010E9472
:102680002C2E20E030E040E251E40E94912D9B018D
:10269000AC01C301B2010E94292DF401628F738F36
:1026A000848F958F0F5F1F4F0430110559F6DDCED3
:1026B00020E030E063E2552447FC509441E050E0D4
:1026C0008091AF0290E0022E02C0959587950A9402
:1026D000E2F780FF21C0629FF001639FF00D11249B
:1026E000E155FC4F868D978D840D951D978F868FB4
:1026F000868D978D892B11F4578F468F629FF0013D
:10270000639FF00D1124E155FC4F868D978D880F46
:10271000991F019791A380A32F5F3F4F243031056C
:1027200079F6A3CE20E030E043E252E08091AF02A0
:1027300090E0022E02C0959587950A94E2F780FFFB
:1027400018C0429FF001439FF00D1124E155FC4F4A
:10275000818D840D818F818D87FD99C1429FF0010C
:10276000439FF00D1124E155FC4F818D83300CF017
:10277000118E2F5F3F4F24303105C1F676CE00E039
:1027800010E043E2F42E52E0E52E802F2091AF02BC
:1027900030E0002E02C0359527950A94E2F720FF1D
:1027A0002EC0F801EE0FFF1FEE0FFF1FE00FF11F0D
:1027B000EE56FC4F9481911158CEF09EF001F19E9F
:1027C000F00D1124E155FC4F92A1940D92A392A11A
:1027D00097FDC3C1F09EF001F19EF00D1124E1556B
:1027E000FC4F92A193300CF012A2F09EF001F19EEA
:1027F000F00D1124E155FC4F62A10E94D70A0F5F32
:102800001F4F0430110509F0C0CF2FCEC42CDD249A
:10281000C7FCD094242D34E6230270011124A12C8E
:10282000B12CB3E29B2E552447FC5094652C752C9B
:102830008091AF0290E00A2C02C0959587950A948A
:10284000E2F780FF15C09A9CF0019B9CF00D1124CB
:102850009F0121553C4FD90159968C915997813050
:1028600009F4ACC1823009F48AC1882309F477C124
:10287000BFEFAB1ABB0AE4E0AE16B104C9F6F5CD62
:10288000442D552747FD5095B42DE4E6BE022001A6
:10289000112420E030E063E28091AF0290E0022E4C
:1028A00002C0959587950A94E2F780FF16C0809143
:1028B000AC02629FF001639FF00D1124E155FC4FC3
:1028C000882309F47BC080819181840D951D9383B9
:1028D000828382819381958384832F5F3F4F24304D
:1028E0003105D1F6C2CD0E94740681E00E94D20764
:1028F0008FE097E20197F1F700C0000000E012E0DE
:1029000083E70E94C007D8018D918D018111F9CF15
:10291000ACCD0E940F0781E00E94D207EFE0F7E202
:102920003197F1F700C0000006E012E08CE60E944B
:10293000C007D8018D918D018111F9CF96CD90916D
:10294000AC0281E089278093AC02CDCD9091AF029B
:1029500084E089278093AF0283E08093AB02C3CDEC
:102960009091AF0282E089278093AF0283E0809349
:10297000AB02B9CD0E947903843009F4ABCD38F0B5
:10298000863071F318F3873009F498CD10CD882381
:10299000B1F2833009F4B8CD0ACD8E2D0E948B059B
:1029A0002091AF02C8010E2C01C0880F0A94EAF7EB
:1029B00082278093AF020E944C102ACE80819181A1
:1029C000840F951F9383828382819381958384836F
:1029D00084CF14140CF016C18091AD028F5F8093E8
:1029E000AD028091AD02803114F01092AD02809161
:1029F000AD02992787FD9095FC01EE0FFF1F880F10
:102A0000991F880F991F880F991FE80FF91FE45429
:102A1000FD4F8081882301F38091AD02992787FDC6
:102A20009095FC01EE0FFF1F880F991F880F991FCB
:102A3000880F991FE80FF91FE454FD4F818581111C
:102A400049C020E030E043E28091AD02992787FD44
:102A50009095FC01EE0FFF1FEE0FFF1FE80FF91F0F
:102A6000E20FF31FEE0FFF1FE454FD4F81819281AF
:102A7000429FF001439FF00D1124E155FC4F9383D9
:102A800082832F5F3F4F24303105F1F6EECC518F1A
:102A900065CE80E090E0A0E8BFE3F701858B968BE0
:102AA000A78BB08F7ECD9C0121553C4F7901D90178
:102AB00055966D917D918D919C91589720E030E0D5
:102AC00040E05FE30E94332FF701658B768B878BA5
:102AD000908F4FCD8091AD02992787FD9095FC0195
:102AE000EE0FFF1F880F991F880F991F880F991FDE
:102AF000E80FF91FE454FD4F8185813009F0B5CC12
:102B000020E030E043E2429FD001439FB00D11240A
:102B1000A155BC4F6D917C9111978091AD02992781
:102B200087FD9095FC01EE0FFF1FEE0FFF1FE80FD2
:102B3000F91FE20FF31FEE0FFF1FE454FD4F8181D9
:102B40009281860F971F13969C938E9312972F5FF7
:102B50003F4F24303105B9F688CCE2A23BCE8091BC
:102B6000AC02882309F471C012968D919C91139741
:102B70008E0D9F1D13969C938E93129779CED9013B
:102B80005A968D919D910D90BC91A02D89839A8329
:102B9000AB83BC83C301B2010E942C2E20E030E045
:102BA00040E05EE30E94332FAB01BC0109811A8132
:102BB0002B813C818A2D0E94CE095ACE8091AC0295
:102BC000D901882309F449C05A968D919D910D90A1
:102BD000BC91A02D89839A83AB83BC83C301B201CE
:102BE0000E942C2E20E030E040E251E40E94332F7E
:102BF000AB01BC0109811A812B813C818A2D0E9485
:102C0000C50836CE2FE015C08091AD02992787FD0B
:102C10009095FC01EE0FFF1F880F991F880F991FD9
:102C2000880F991FE80FF91FE454FD4F808181112F
:102C3000F3CE8091AD0281508093AD028091AD02C0
:102C400087FFE2CF2093AD02DFCFF901828193812C
:102C50008C0D9D1D938382830BCE5A968D919D91F1
:102C60000D90BC91A02D89839A83AB83BC83C30153
:102C7000B2010E942C2EAB01BC0109811A812B816B
:102C80003C818A2D0E94C508F3CD81E18093B80074
:102C9000E9EBF0E080818C7F808384E08093BC004E
:102CA000089584EA8093BC008091BC0087FFFCCF2C
:102CB000089584E98093BC0008958093BB0084E864
:102CC0008093BC008091BC0087FFFCCF089584EC0A
:102CD0008093BC008091BC0087FFFCCF8091BB003B
:102CE000089584E88093BC008091BC0087FFFCCFEE
:102CF0008091BB0008958091B900887F089594EA7F
:102D00009093BC009091BC0097FFFCCF9091B900CC
:102D10008093BB0084E88093BC008091BC0087FF57
:102D2000FCCF8091B9004423B9F0FB014150242F1E
:102D300030E02F5F3F4F260F371F94E8819180933B
:102D4000BB009093BC008091BC0087FFFCCF8091BA
:102D5000B900E217F30791F784E98093BC00089566
:102D600094EA9093BC009091BC0097FFFCCF9091A7
:102D7000B90081608093BB0084E88093BC0080919F
:102D8000BC0087FFFCCF8091B900242F30E0215098
:102D90003109FB011216130694F444EC4093BC0075
:102DA0008091BC0087FFFCCF8091BB008193809114
:102DB000B9008E2F861B90E0821793077CF384E87E
:102DC0008093BC008091BC0087FFFCCF8091BB004A
:102DD00080838091B90084E98093BC000895843099
:102DE00030F4E82FF0E0E45FFE4F8081089580E04A
:102DF0000895843030F4E82FF0E0E85FFE4F8081E2
:102E0000089580E008950F931F93CF93DF93182FB9
:102E1000F894CCEAD3E0E881F9818AE08083E88104
:102E2000F98180E281836881798142E0812F0E946B
:102E30007F16E881F9811082E881F9811182688129
:102E4000798142E0812F0E947F16E881F98181E03B
:102E50008083E881F9818FEF81836881798142E005
:102E6000812F0E947F16E881F98182E08083E881CA
:102E7000F98111826881798142E0812F0E947F1659
:102E8000E881F98103E00083E881F981118268819A
:102E9000798142E0812F0E947F16E881F98184E0E8
:102EA0008083E881F98111826881798142E0812FF4
:102EB0000E947F16E881F98185E08083E881F981AD
:102EC0008DE181836881798142E0812F0E947F16A4
:102ED000E881F98186E08083E881F9811182688147
:102EE000798142E0812F0E947F16E881F98187E095
:102EF0008083E881F98101836881798142E0812FB3
:102F00000E947F16E881F98188E08083E881F98159
:102F100011826881798142E0812F0E947F16E881C9
:102F2000F98189E08083E881F98101836881798171
:102F300042E0812F0E947F16E881F9818CE0808336
:102F4000E881F98111826881798142E0812F0E94B4
:102F50007F16E881F9818DE08083E881F981118213
:102F60006881798142E0812F0E947F16E881F98192
:102F700082E18083E881F98180E7818368817981BA
:102F800042E0812F0E947F16E881F98183E18083EE
:102F9000E881F98111826881798142E0812F0E9464
:102FA0007F167894DF91CF911F910F910895F89437
:102FB00094EA9093BC009091BC0097FFFCCF809363
:102FC000BB0084E88093BC008091BC0087FFFCCFED
:102FD0006093BB0084E88093BC008091BC0087FFB5
:102FE000FCCF4093BB0084E88093BC008091BC0080
:102FF00087FFFCCF84E98093BC0078940895F8940F
:1030000094EA9093BC009091BC0097FFFCCF809312
:10301000BB0094E89093BC009091BC0097FFFCCF5C
:103020006093BB0094E89093BC009091BC0097FF24
:10303000FCCF94EA9093BC009091BC0097FFFCCF2A
:1030400081608093BB0084E88093BC008091BC00C9
:1030500087FFFCCF84E88093BC008091BC0087FF91
:10306000FCCF8091BB0094E99093BC0078940895C4
:103070008295982F9373292F220F220F982F9C7CD3
:1030800096959695922B892F8575880F9A7A9695A5
:10309000892B08950F931F93CF93DF93162F6630DC
:1030A00008F015E0843008F046C0C82FD0E0FE01DB
:1030B000E45FFE4F008162E1802F0E94FF1790E1E4
:1030C000199FA0011124942F9373292F220F220FEF
:1030D000942F9C7C96959695922B492F4575440F7D
:1030E0009A7A9695942B887F929596959770482F0B
:1030F000492B62E1802F0E94D71761E070E002C087
:10310000660F771F1A95E2F7882777FD8095982F2D
:103110000E942C2E23E22C9FF0012D9FF00D1124F4
:10312000E155FC4F658B768B878B908FDF91CF912C
:103130001F910F91089500E0C82FD0E0BCCF80E030
:1031400008950F931F93CF93DF93162F843000F5CC
:10315000C82FD0E0FE01E45FFE4F008162E1802FC6
:103160000E94FF17482F11111DC0477F62E1802F79
:103170000E94D71783E28C9FF0018D9FF00D1124E0
:10318000E155FC4F1387DF91CF911F910F91089567
:1031900000E0C82FD0E062E1802F0E94FF17482F87
:1031A000112319F34860E2CF60E080E00E94A1188B
:1031B00060E081E00E94A11860E082E00E94A11816
:1031C00060E083E00E94A11815BC1092B100089540
:1031D0008430B0F4E82FF0E0E85FFE4F8081E091AA
:1031E000AC03F091AD031082E091AC03F091AD031C
:1031F00011826091AC037091AD0342E00C947F1694
:1032000080E0EDCFCF92DF92EF92FF921F93CF93AA
:10321000DF93182F6A017B0120E030E0A901C7018C
:10322000B6010E948D2D87FD5AC020E030E040E2BB
:1032300050E4C701B6010E942F2F18160CF449C0A4
:1032400026E636E64AE952E4C701B6010E94332F6A
:103250000E94672E0E94FE2D80E1689FE0011124EC
:103260001430D8F5E12FF0E0E85FFE4F1081609157
:10327000AC037091AD0342E0812F0E94B016E09143
:10328000AC03F091AD038091AC039091AD039081BC
:10329000692F70E0762F6627662770736C2B7D2B65
:1032A000E091AC03F091AD037083E091AC03F09139
:1032B000AD0361836091AC037091AD0342E0812F57
:1032C000DF91CF911F91FF90EF90DF90CF900C9402
:1032D0007F16C0E1DCE0143028F210E0C8CFF7FA26
:1032E000F094F7F8F094A1CF843060F5E82FF0E087
:1032F000E85FFE4F80816091AC037091AD0342E0C6
:103300000E94B016A091AC03B091AD03E091AC0364
:10331000F091AD036C9170E0762F66278181682B68
:10332000729562956F7067277F70672770E080E005
:1033300090E00E942A2E26E636E64AE952E40E94F0
:10334000912D089580E0D7CF88E387B988B984B5F7
:10335000826084BD80E587BDEEE6F0E0808182601A
:10336000808316BC85B5856085BD08958091A802CF
:10337000811102C08AE208950C947903F894809137
:103380009103882331F080919003109290037894F8
:10339000089580E078940895CF93DF93F894C8EB74
:1033A000D2E0488159818BE394E0FC01A081B18196
:1033B00020E4FA0101900D922A95E1F721E0DC0169
:1033C00012962C93E881F98180E4DF011D928A95A1
:1033D000E9F71B821A827894DF91CF910895AF921A
:1033E000BF92CF92DF92EF92FF920F931F93CF93F2
:1033F000DF93F89480913D04882309F466C080919E
:103400003B0490913C046CE072E00E9422337C010A
:10341000E091A002F091A102C080D180C2E5D2E08B
:10342000A12C30E8B32EFE0105911491F8016591AD
:103430007491C6010E941033A091A002B091A10224
:10344000CD90DC90B601C7010E942633892B29F468
:10345000F8013396B4903197A490229682E0C23955
:10346000D80709F7AA20C9F0C1E06CE072E080E05B
:1034700090E00E942233EC2FF0E0EE0FFF1F20912E
:10348000A0023091A102E20FF31FBC018081918163
:103490000E942F33CF5FAC1640F7E0913B04F091D0
:1034A0003C0480E4DF011D928A95E9F710923D0407
:1034B00078948B2DDF91CF911F910F91FF90EF901A
:1034C000DF90CF90BF90AF90089580E8B82EF0CFF6
:1034D0003F924F925F926F927F928F929F92AF92A4
:1034E000BF92CF92DF92EF92FF920F931F93CF93F1
:1034F000DF9300D000D0CDB7DEB78B017A014AE070
:1035000050E060E070E00E94E330362E83E08315E7
:1035100008F443C061E172E0C7010E942633892BA1
:1035200049F167E172E0C7010E942633892B09F453
:103530009DC06BE172E0C7010E942633892B09F41C
:1035400042C08EE192E00F900F900F900F90DF91AC
:10355000CF911F910F91FF90EF90DF90CF90BF9090
:10356000AF909F908F907F906F905F904F903F9023
:103570000C940405E32CF12C4AE050E060E070E08C
:10358000C8010E94E33023E22E9DF0012F9DF00D33
:103590001124E155FC4F738362830F900F900F90BD
:1035A0000F90DF91CF911F910F91FF90EF90DF90DF
:1035B000CF90BF90AF909F908F907F906F905F90D3
:1035C0004F903F90089583E2389EF0011124E15519
:1035D000FC4F608171814584568467847088258999
:1035E00036894789508D81889288A388B488882736
:1035F00077FD8095982F29833A834B835C830E94C3
:103600002C2E6B017C0129813A814B815C81C301A5
:10361000B2010E94332FA50194010E94332F9B0118
:10362000AC0160E070E080E090E40E94912D9B018D
:10363000AC01C701B6010E94332F9B01AC01C80148
:1036400029833A834B835C830E940E3229813A811D
:103650004B815C810E94282DAB01BC0100E010E091
:1036600020E83FE3832D0E94CE0997CF83E2389E66
:10367000F0011124E155FC4F60817181458456842D
:1036800067847088258936894789508D818892881A
:10369000A388B488882777FD8095982F29833A835B
:1036A0004B835C830E942C2E6B017C0129813A8123
:1036B0004B815C81C301B2010E94332FA5019401AB
:1036C0000E94332F9B01AC0160E070E084EB93E437
:1036D0000E94912D9B01AC01C701B6010E94332FBE
:1036E0009B01AC01C80129833A834B835C830E9410
:1036F0000E3229813A814B815C810E94282DAB01D9
:10370000BC0100E010E020E83FE3832D0E94C508E3
:1037100044CFCF92DF92FF920F931F93CF93DF930B
:103720006B01EA014AE050E060E070E00E94E330A3
:10373000F62E23E02617A8F061E172E0CE010E9488
:103740002633892BF1F167E172E0CE010E94263326
:10375000892B19F16BE172E0CE010E942633892B8F
:1037600041F0DF91CF911F910F91FF90DF90CF90AB
:103770000895C6010E940E32AB01BC0100E010E0CA
:1037800020E83FE38F2D0E94CE09DF91CF911F915A
:103790000F91FF90DF90CF900895C6010E940E32E6
:1037A000AB01BC0100E010E020E83FE38F2D0E9458
:1037B000C5086BE172E0CE010E942633892B89F6A1
:1037C000D8CF4AE050E060E070E0C6010E94E330EC
:1037D00023E2F29EF0011124E155FC4F2281338156
:1037E000620F731F7383628367E172E0CE010E94F0
:1037F0002633892B09F0AECFD0CF0F931F93CF93F1
:103800008B014AE050E060E070E00E94E330C62F98
:103810004AE050E060E070E0C8010E94E330C4304C
:1038200080F4611107C060E08C2FCF911F910F9140
:103830000C94A11861E08C2FCF911F910F910C94E3
:10384000A118CF911F910F9108954F925F926F929F
:103850007F928F929F92AF92BF92CF92DF92EF9220
:10386000FF920F931F93CF93DF9300D000D0CDB77B
:10387000DEB77B014AE050E060E070E00E94E33098
:10388000162F643008F07FC061E172E0C7010E942A
:103890002633892B09F4C3C067E172E0C7010E9497
:1038A0002633892B41F06BE172E0C7010E94263379
:1038B000892B09F47DC093E2199FF0011124E15591
:1038C000FC4F6081718145845684678470882589A6
:1038D00036894789508D81889288A388B488009161
:1038E000A6031091A703882777FD8095982F298339
:1038F0003A834B835C830E942C2E6B017C012981CF
:103900003A814B815C81C301B2010E94332FA50132
:1039100094010E94332F9B01AC0160E070E084EBC6
:1039200093E40E94912D9B01AC01C701B6010E9456
:10393000332F9F938F937F936F9381E492E09F93B4
:103940008F931F930F930E94A8330FB6F894DEBF96
:103950000FBECDBF8091A6039091A7030F900F904B
:103960000F900F90DF91CF911F910F91FF90EF90EB
:10397000DF90CF90BF90AF909F908F907F906F908F
:103980005F904F9008958091A6039091A7031F9296
:103990001F932AE232E03F932F939F938F930E94CD
:1039A000A8330F900F900F900F900F900F90D2CFE1
:1039B00093E2199FF0011124E155FC4F6081718160
:1039C0004584568467847088258936894789508D57
:1039D00081889288A388B4880091A6031091A703D8
:1039E000882777FD8095982F29833A834B835C83C2
:1039F0000E942C2E6B017C0129813A814B815C81D4
:103A0000C301B2010E94332FA50194010E94332FFC
:103A10009B01AC0160E070E080E090E482CF83E243
:103A2000189FF0011124E155FC4F208131818091D4
:103A3000A6039091A7033F932F932EE332E0ABCFE1
:103A40004AE050E060E070E00E94E330643018F536
:103A500083E2689FF0011124E155FC4F22813381FC
:103A600080819181E091A603F091A703281739077F
:103A700049F081E390E0918380838091A603909147
:103A8000A703089580E390E0918380838091A6034B
:103A90009091A70308958091A6039091A7031F9288
:103AA0006F932AE232E03F932F939F938F930E946C
:103AB000A8330F900F900F900F900F900F90809160
:103AC000A6039091A70308954AE050E060E070E0FB
:103AD0000E94E3306430E0F4862F0E94510520916B
:103AE000A6033091A7039F938F938EE392E09F9359
:103AF0008F933F932F930E94A8330F900F900F90B6
:103B00000F900F900F908091A6039091A7030895B6
:103B10008091A6039091A7031F926F932AE232E04F
:103B20003F932F939F938F930E94A8330F900F90F2
:103B30000F900F900F900F908091A6039091A70384
:103B400008954AE050E060E070E00E94E3306430A5
:103B500008F583E2689FF0011124E155FC4F2481B0
:103B600035818091A6039091A7033F932F932EE375
:103B700032E03F932F939F938F930E94A8330F902F
:103B80000F900F900F900F900F908091A60390913F
:103B9000A70308958091A6039091A7031F926F93A6
:103BA0002AE232E0E6CF0F931F93CF938B014AE0D6
:103BB00050E060E070E00E94E330C62F643098F47B
:103BC0004AE050E060E070E0C8010E94E33023E288
:103BD000C29FF0011124E155FC4F75836483CF919E
:103BE0001F910F9108958091A6039091A7031F92B2
:103BF000CF932AE232E03F932F939F938F930E94BB
:103C0000A8338091A6039091A7030F900F900F9077
:103C10000F900F900F90CF911F910F910C9404056E
:103C20004AE050E060E070E00E94E330643038F534
:103C300083E2689FF0011124E155FC4F858596854C
:103C4000A785B0892091A6033091A703BF93AF93B6
:103C50009F938F9381E492E09F938F933F932F9351
:103C60000E94A8338DB79EB708960FB6F8949EBFF2
:103C70000FBE8DBF8091A6039091A70308958091F8
:103C8000A6039091A7031F926F932AE232E03F931D
:103C90002F939F938F930E94A8330F900F900F90B4
:103CA0000F900F900F908091A6039091A703089515
:103CB0000F931F93CF938B014AE050E060E070E0D8
:103CC0000E94E330C62F643088F4C8010E940E328F
:103CD00023E2C29FF0011124E155FC4F65877687EE
:103CE0008787908BCF911F910F9108958091A603A4
:103CF0009091A7031F92CF932AE232E03F932F9334
:103D00009F938F930E94A8338091A6039091A7035D
:103D10000F900F900F900F900F900F90CF911F91D9
:103D20000F910C9404054AE050E060E070E00E94BE
:103D3000E330643038F583E2689FF0011124E155E7
:103D4000FC4F81899289A389B4892091A60330917F
:103D5000A703BF93AF939F938F9387E891E09F93BF
:103D60008F933F932F930E94A8338DB79EB70896E9
:103D70000FB6F8949EBF0FBE8DBF8091A6039091A1
:103D8000A70308958091A6039091A7031F926F93B4
:103D90002AE232E03F932F939F938F930E94A833A0
:103DA0000F900F900F900F900F900F908091A6039F
:103DB0009091A70308950F931F93CF938B014AE02F
:103DC00050E060E070E00E94E330C62F643088F479
:103DD000C8010E940E3223E2C29FF0011124E15576
:103DE000FC4F618B728B838B948BCF911F910F91C2
:103DF00008958091A6039091A7031F92CF932AE282
:103E000032E03F932F939F938F930E94A83380912A
:103E1000A6039091A7030F900F900F900F900F9013
:103E20000F90CF911F910F910C9404054AE050E040
:103E300060E070E00E94E330643038F583E2689F10
:103E4000F0011124E155FC4F85899689A789B08D31
:103E50002091A6033091A703BF93AF939F938F93B5
:103E600087E891E09F938F933F932F930E94A8330D
:103E70008DB79EB708960FB6F8949EBF0FBE8DBF44
:103E80008091A6039091A70308958091A603909135
:103E9000A7031F926F932AE232E03F932F939F93E1
:103EA0008F930E94A8330F900F900F900F900F9058
:103EB0000F908091A6039091A70308950F931F93ED
:103EC000CF938B014AE050E060E070E00E94E33065
:103ED000C62F643088F4C8010E940E3223E2C29FCC
:103EE000F0011124E155FC4F658B768B878B908F09
:103EF000CF911F910F9108958091A6039091A703F0
:103F00001F92CF932AE232E03F932F939F938F9398
:103F10000E94A8338091A6039091A7030F900F9061
:103F20000F900F900F900F90CF911F910F910C94C5
:103F300004054AE050E060E070E00E94E330643045
:103F400008F583E2689FF0011124E155FC4F268DAE
:103F5000378D8091A6039091A7033F932F932EE373
:103F600032E03F932F939F938F930E94A8330F903B
:103F70000F900F900F900F900F908091A60390914B
:103F8000A70308958091A6039091A7031F926F93B2
:103F90002AE232E0E6CF0F931F93CF93DF931F9275
:103FA000CDB7DEB78B014AE050E060E070E00E94E0
:103FB000E330643098F4C80169830E941232698149
:103FC00023E2629FF0011124E155FC4F978F868F09
:103FD0000F90DF91CF911F910F910895A091A603AB
:103FE000B091A70383E1E4E4F2E001900D928A9599
:103FF000E1F78091A6039091A7030F90DF91CF91F5
:104000001F910F910C9404052F923F924F925F9253
:104010006F927F928F929F92AF92BF92CF92DF92D8
:10402000EF92FF920F931F93CF93DF9300D000D0B6
:10403000CDB7DEB78B017A014AE050E060E070E076
:104040000E94E330643008F0B8C0262E312CF10114
:10405000EE0FFF1FEE0FFF1FE20DF31DEE56FC4F9C
:1040600084818823B9F00F900F900F900F90DF910B
:10407000CF911F910F91FF90EF90DF90CF90BF9065
:10408000AF909F908F907F906F905F904F903F90F8
:104090002F900895C7010E940E326B017C0164ECE1
:1040A00071E0C8010E942633892B09F4D8C083E24D
:1040B000829DF001839DF00D11249F0121553C4FFD
:1040C000D9011D968D909D90AD90BC9050975196C2
:1040D0004D905D906D907C90549755968D919D91EB
:1040E0000D90BC91A02D89839A83AB83BC83C701BB
:1040F000B6019F7720E030E04AE754E40E94332F76
:104100006B017C01A3019201C501B4010E94332F10
:1041100029813A814B815C810E94332F9B01AC0144
:10412000C701B6010E94912D0E94962F0E94FE2D7C
:104130006B017C01CB01009709F478C06031B7E2D4
:104140007B0708F061C061ED71E0C8010E94263371
:10415000892BA9F483E2829DF001839DF00D112447
:10416000E155FC4F81E08487D78EC68E8081918196
:10417000938382838281938101969383828360ED0E
:1041800071E0C8010E942633892B09F06CCF83E2CD
:10419000829DF001839DF00D1124E155FC4F82E0DA
:1041A0008487D78EC68E808191819383828382811A
:1041B000938101979383828356CFA091A603B091F8
:1041C000A70383E1E4E4F2E001900D928A95E1F720
:1041D0008091A6039091A7030F900F900F900F90DE
:1041E000DF91CF911F910F91FF90EF90DF90CF90D3
:1041F000BF90AF909F908F907F906F905F904F9007
:104200003F902F900C940405A091A603B091A703B2
:1042100083E1EBE6F2E001900D928A95E1F780915F
:10422000A6039091A7030E9404058DCF8091A60359
:104230009091A7031F921F9227E532E03F932F939F
:104240009F938F930E94A8338091A6039091A70318
:104250000F900F900F900F900F900F90BDCFF8948C
:1042600083E2829DF001839DF00D1124E155FC4F06
:10427000148683E090E0978F868F8081918193836D
:1042800082837894F0CEF8940E9496030E9474067C
:1042900078940895EF92FF920F931F93CF93DF933B
:1042A0001F92CDB7DEB78B017A014AE050E060E0A3
:1042B00070E00E94E330643070F5C80169830E94A9
:1042C00012328C01C7010E94123269810817190746
:1042D000D1F180179107CCF070E0FB01EE0FFF1FCA
:1042E000EE0FFF1F6E0F7F1FFB01EE56FC4F118379
:1042F00000839383828381E084830F90DF91CF9149
:104300001F910F91FF90EF900895302F212F8C0176
:10431000832F922FE1CFA091A603B091A70383E151
:10432000E4E4F2E001900D928A95E1F78091A60312
:104330009091A7030F90DF91CF911F910F91FF9064
:10434000EF900C94040570E0FB01EE0FFF1FEE0FE1
:10435000FF1F6E0F7F1FFB01EE56FC4F1182108274
:104360001382128214820F90DF91CF911F910F91CF
:10437000FF90EF9008950F931F93CF938B014AE026
:1043800050E060E070E00E94E330C62F6430C0F47B
:104390004AE050E060E070E0C8010E94E3308C2FFA
:1043A00090E0FC01EE0FFF1FEE0FFF1F8E0F9F1F0F
:1043B000FC01EE56FC4F6483CF911F910F9108953D
:1043C000A091A603B091A70383E1E4E4F2E0019099
:1043D0000D928A95E1F78091A6039091A703CF9162
:1043E0001F910F910C9404056F927F928F929F9270
:1043F000AF92BF92CF92DF92EF92FF920F931F93F3
:10440000CF93DF936B01EA0159014AE050E060E08D
:1044100070E00E94E330662E4FE0461708F16EE729
:1044200072E0C7010E942633892B49F5662D70E0A2
:10443000FB01EE0FFF1F660F771F660F771F660FDA
:10444000771FE60FF71FE454FD4F108281E081874C
:1044500012821182148213821682158210861782AC
:10446000DF91CF911F910F91FF90EF90DF90CF9050
:10447000BF90AF909F908F907F906F900895712C18
:104480004AE050E060E070E0C6010E94E330430182
:10449000880C991C660C771C660C771C660C771CC4
:1044A0009401260D371DF901E454FD4F6F0172830D
:1044B00061834AE050E060E070E0CE010E94E330AA
:1044C000F601748363834AE050E060E070E0C50168
:1044D0000E94E330F601768365834AE050E060E0B5
:1044E00070E0C8010E94E330F6017087678381E0C5
:1044F000808363E872E0C7010E942633892B11F4A0
:10450000F601118667E872E0C7010E942633892B05
:1045100009F0A6CFF401E60DF71DE454FD4F81E04C
:1045200081879ECF4AE050E060E070E00E94E33077
:10453000643008F583E2689FF0011124E155FC4FD7
:104540008385E091A603F091A70381110AC080E35F
:1045500090E0918380838091A6039091A7030C94AF
:10456000040581E390E0918380838091A60390917C
:10457000A7030C940405A091A603B091A70383E1BF
:10458000E4E4F2E001900D928A95E1F78091A603B0
:104590009091A7030C9404050F931F93CF93DF937F
:1045A000C0E0D0E00BE812E08C2F9D2FFC01EE0F55
:1045B000FF1F880F991F880F991F880F991FE80FF9
:1045C000F91FE454FD4F70818C2F9D2FFC01EE0FDD
:1045D000FF1F880F991F880F991F880F991FE80FD9
:1045E000F91FE454FD4F61858C2F9D2FFC01EE0FC8
:1045F000FF1F880F991F880F991F880F991FE80FB9
:10460000F91FE454FD4F478150858C2F9D2FFC01ED
:10461000EE0FFF1F880F991F880F991F880F991F92
:10462000E80FF91FE454FD4F258136818C2F9D2F13
:10463000FC01EE0FFF1F880F991F880F991F880F2D
:10464000991FE80FF91FE454FD4FA381B4818C2F0B
:104650009D2FFC01EE0FFF1F880F991F880F991FD8
:10466000880F991FE80FF91FE454FD4F0180F28174
:10467000E02D8091A6039091A7031F927F931F9234
:104680006F935F934F933F932F93BF93AF93FF939A
:10469000EF93DF93CF931F930F939F938F930E947A
:1046A000A8338091A6039091A7030E940405219648
:1046B0008DB79EB742960FB6F8949EBF0FBE8DBFC2
:1046C000C031D10509F070CFDF91CF911F910F91CB
:1046D00008950F931F93CF93DF938B014AE050E02F
:1046E00060E070E00E94E330C62FC8010E940E32E5
:1046F000AB01BC018C2F0E9402198C2F0E947419EF
:10470000C6EAD3E0288139819F938F937F936F937B
:1047100081E492E09F938F933F932F930E94A8335D
:10472000888199812DB73EB7285F3F4F0FB6F89427
:104730003EBF0FBE2DBFDF91CF911F910F910C9403
:1047400004051F920F920FB60F9211240BB60F9211
:104750008F939F93EF93FF938091C6009091BA023D
:1047600091111CC08D3009F18A3021F09091BB026B
:10477000903430F1E091B802F091B9028091BB021F
:10478000E80FF11D108281E08093BA028091C00091
:1047900085FFFCCF86E08093C60007C08091C000F3
:1047A00085FFFCCF85E18093C600FF91EF919F913B
:1047B0008F910F900BBE0F900FBE0F901F9018950A
:1047C000E091B802F091B9029091BB02E90FF11D9E
:1047D00080838091BB028F5F8093BB02E6CF1F92E4
:1047E0000F920FB60F9211240BB60F928F939F93D7
:1047F000EF93FF9396B18091A80281113AC0809106
:10480000A702882309F440C08091A602891709F401
:1048100046C01092A6021092A702E091A202F09167
:10482000A302EE0FFF1FEE0FFF1FEF70FF27F093A5
:10483000A302E093A202359B05C0E260F093A302BD
:10484000E093A202349B05C0E160F093A302E093E1
:10485000A202EE0FFF1FE359FB4F8491882349F01A
:10486000E49180919003E80FE093900381E08093BE
:104870009103FF91EF919F918F910F900BBE0F903D
:104880000FBE0F901F9018958091A602891709F40A
:10489000C4CF9093A60281E08093A702BECF81E0AF
:1048A0008093A802B8CF1F920F920FB60F921124D7
:1048B0000BB60F922F923F924F925F926F927F9220
:1048C0008F929F92AF92BF92CF92DF92EF92FF9220
:1048D0000F931F932F933F934F935F936F937F9308
:1048E0008F939F93AF93BF93EF93FF93CF93DF93F8
:1048F000CDB7DEB76E97DEBFCDBF5E0121E1A20E60
:10490000B11CCE0101964C01212C312CE12CF12C53
:10491000198E1A8EBC8EAB8E9E8F8D8F93E29E9DCC
:1049200080019F9D100D112401551C4FD801129636
:10493000CD90DC9013978D919C911197C81AD90A4C
:10494000F501C192D1925F011D966D917D918D917E
:104950009C91509751962D913D914D915C9154971A
:1049600055964D905D906D907C9058970E94332F96
:10497000A30192010E94332FD4016D937D938D93F7
:104980009D934D01C114D10409F449C0F80180A1DF
:1049900091A1892B09F402C180A191A1019791A352
:1049A00080A3668177818085918520E030E040E8B2
:1049B0005FE30E942F2F1816DCF4D80112968D9118
:1049C0009C911397019613969C938E93129716962B
:1049D0006D917D918D919C91199720E030E040E898
:1049E0005FE30E94282DF801668377838087918793
:1049F000F3E2FE9D8001FF9D100D112401551C4F17
:104A0000D80116966D917D918D919C91199720E01A
:104A100030E040E85FEB0E948D2D87FD43C13FEF02
:104A2000E31AF30A82E0280E311C94E0E916F1043F
:104A300009F074CFAB8CBC8C8D8C9E8C82B1AA8D0E
:104A40008A2B82B9B6E0BA95F1F700C082B1E98D40
:104A50008E2B82B9FDE0FA95F1F7000082B12E2E7F
:104A60002094282222B826E02A95F1F700C012B837
:104A700000E010E083E2D82E7801DE9C8001DF9C0C
:104A8000100D112401551C4FD8011A968C911A97BC
:104A9000882309F44AC0F50180819181181619060E
:104AA0000CF0A7C06D917C91D4014D905D906D90FC
:104AB0007C906F5F7F4F882777FD8095982F0E94AD
:104AC0002C2EA30192010E942F2F181694F4F801A6
:104AD0001182108222803380C301B2010E94962F7E
:104AE0000E94F92D261A370AD80113963C922E926D
:104AF0001297DE9CF001DF9CF00D1124E155FC4F74
:104B0000808191810196918380838485882329F017
:104B100082819381019693838283DE9CF001DF9CE6
:104B2000F00D1124E155FC4F1286FFEFEF1AFF0A3A
:104B300024E0820E911C32E0A30EB11C84E0E81642
:104B4000F10409F09ACF6E960FB6F894DEBF0FBE4F
:104B5000CDBFDF91CF91FF91EF91BF91AF919F9129
:104B60008F917F916F915F914F913F912F911F9105
:104B70000F91FF90EF90DF90CF90BF90AF909F90FC
:104B80008F907F906F905F904F903F902F900F90FD
:104B90000BBE0F900FBE0F901F90189521E0F801EB
:104BA0002287F701EE0FFF1FEE0FFF1FEE0DFF1D17
:104BB000EE56FC4F8481D7FC51C081113AC081E090
:104BC00090E0022C01C0880F0A94EAF7B98DB82B47
:104BD000B98F23E22E9DF0012F9DF00D1124E15598
:104BE000FC4F868D978D880F991F019791A380A305
:104BF00016CF892B09F491CFF80180819181181685
:104C000019060CF071C0DE9CF001DF9CF00D112440
:104C1000E155FC4F80819181019791838083848548
:104C2000882309F47ACF82819381019793838283C9
:104C300074CFD8018D919C9111972081318101967B
:104C40008217930709F0BBCF8D919C911197139612
:104C50009C938E9312971A961C92B1CF882351F091
:104C6000D8018D919C9111972281338101968217F1
:104C7000930781F1C1010196E1E0F0E002C0EE0F7F
:104C8000FF1F8A95E2F7CF01FA8DF82BFA8F81E0AA
:104C900090E0022C01C0880F0A94EAF7298D282B96
:104CA000298F97CFF8018281938101979383828323
:104CB000668177818085918520E030E040E85FE380
:104CC0000E94292DD80116966D937D938D939C9308
:104CD0001997A5CE8D919C91119713969C938E93C5
:104CE00012971A961C92C6CFD4016D917D918D9129
:104CF0009C910E94962F0E94F92DF8017183608388
:104D000022813381620F731F738362837CCF2F9262
:104D10003F924F925F926F927F928F929F92AF924B
:104D2000BF92CF92DF92EF92FF920F931F93CF9398
:104D3000DF93CDB7DEB763970FB6F894DEBF0FBE33
:104D4000CDBF6C014B012A01FC01178216828381C1
:104D500081FF43C3AE014F5F5F4F3A01F60193817C
:104D6000F40193FD859193FF81914F01882309F40C
:104D700030C3853239F493FD859193FF81914F01C2
:104D8000853239F4B60190E00E947033520125015A
:104D9000E5CF10E0F12C20E02032A0F48B3269F056
:104DA00030F4803259F0833269F420612CC08D32A6
:104DB00039F0803339F4216026C02260246023C09A
:104DC000286021C027FD27C030ED380F3A3078F435
:104DD00026FF06C0FAE01F9F300D1124132F13C0C9
:104DE0004AE0F49E300D1124F32E20620CC08E3266
:104DF00021F426FDEEC2206406C08C3611F4206832
:104E000002C0883641F4F40193FD859193FF8191AE
:104E10004F018111C1CF9BEB980F933018F42061A3
:104E2000805E06C09BE9980F933008F071C12F7E19
:104E300026FF16E02F73322E853619F42064322EA9
:104E400008C0863621F4F22FF0683F2E02C01111FF
:104E5000115037FE07C01C3350F4EE24E394E10EEA
:104E600027E00BC0183038F027E017E005C027E036
:104E70004CE3E42E02C0212FE12C520144E0A40EA9
:104E8000B11CF20160817181828193810E2DA30199
:104E90000E9430322C01098100FF02C003FF07C0CD
:104EA00031FC08C032FE09C030E2232E07C02DE2DB
:104EB000222E04C09BE2292E01C0212C802F8C7051
:104EC00019F0211068C2A8C237FE0FC0E40C04FF1D
:104ED00004C08A81813309F4EA941E1474F5F8E061
:104EE000FE1578F588E0E82E2CC036FC2AC0812F0C
:104EF00090E0841595059CF02CEF42162FEF52069A
:104F000074F0432D4068342E0AC0E2E0F0E0EC0F6C
:104F1000FD1FE10FF11D8081803319F41150111133
:104F2000F4CF37FE0EC0EE24E394E10E812F90E023
:104F3000481659062CF4141904C0EE24E39401C059
:104F400010E037FE06C01414150434F4C2010196B3
:104F500005C085E090E002C081E090E0211001965C
:104F6000112331F0212F30E02F5F3F4F820F931F2D
:104F70002F2D30E08217930714F4F81A01C0F12C9A
:104F8000832D897049F4FF2039F0B60180E290E06A
:104F90000E947033FA94F7CF222029F0B601822DB7
:104FA00090E00E94703333FC09C0FF2039F0B60155
:104FB00080E390E00E947033FA94F7CF37FE5AC036
:104FC000942D852D57FE02C090E080E0292E382ECA
:104FD00020E030E0A2014E1951095D874C87A20103
:104FE000421953095F874E87612F70E04427552788
:104FF000461B570B598B488B5FEF2516350649F436
:10500000B6018EE290E02A8B3B8B0E9470333B8985
:105010002A89421453046CF04C855D854215530572
:1050200044F4EE85FF85E20FF31FE60DF71D818145
:1050300001C080E351E0251A31082F5F3F4F4889B6
:105040005989241635064CF0B60190E02A8B3B8B2B
:105050000E9470332A893B89CFCF2414350439F458
:105060009A81963318F4953311F404FF81E3B60165
:1050700090E04BC08A81813309F00F7EB60190E049
:105080000E947033111105C034FC18C085E690E011
:1050900017C0B6018EE290E00E94703382E0EE24E9
:1050A000E394E80EF301E80FF11D8081B60190E072
:1050B0000E94703311508E2D91F7E6CF85E490E079
:1050C000B6010E94703357FC05C04114510439F4F5
:1050D00004FF05C05194419451088DE201C08BE258
:1050E000B60190E00E94703380E39AE049165104C3
:1050F0002CF08F5F5AE0451A5108F7CFB60190E0C7
:105100000E947033B601C201C0960E94703357C12D
:10511000833631F0833779F0833509F058C021C0E8
:105120005201E2E0AE0EB11CF2018081898301E000
:1051300010E0230114C05201F2E0AF0EB11CF201E5
:105140004080518026FF03C0612F70E002C06FEFE6
:105150007FEFC2012A8B0E9436338C012A892F7778
:1051600015C05201F2E0AF0EB11CF2014080518037
:1051700026FF03C0612F70E002C06FEF7FEFC20116
:105180002A8B0E9417338C012A892068322E23FD36
:105190001AC08F2D90E008171907A8F4B60180E215
:1051A00090E00E947033FA94F4CFF20137FC8591BD
:1051B00037FE81912F01B60190E00E947033F1100B
:1051C000FA94015011090115110579F7F8C08436D8
:1051D00011F0893659F5520127FF09C0F4E0AF0EEE
:1051E000B11CF20160817181828193810AC0F2E079
:1051F000AF0EB11CF20160817181882777FD809527
:10520000982F2F76322E97FF09C090958095709534
:1052100061957F4F8F4F9F4F2068322E2AE030E0FC
:10522000A3010E94D833E82EE6183FC0022F85372D
:1052300021F40F7E2AE030E01DC0097F8F3691F007
:1052400018F4883559F0C5C0803719F0883711F047
:10525000C0C0006104FF09C0046007C024FF08C08B
:10526000066006C028E030E005C020E130E002C062
:1052700020E132E0520107FF09C0F4E0AF0EB11C9B
:10528000F201608171818281938108C0F2E0AF0EEA
:10529000B11CF2016081718180E090E0A3010E9465
:1052A000D833E82EE6180F77302E36FE0BC0332D9C
:1052B0003E7FE11650F434FE0AC032FC08C0332DA4
:1052C0003E7E05C00E2D332D03C00E2D01C0012FD3
:1052D00034FF0CC0FE01EE0DF11D8081803311F40E
:1052E000397E08C032FF05C00E5F04C0832F867868
:1052F00009F00F5F33FD13C030FF06C01E2D0F15E0
:1053000018F41F0D101B0F2D0F1568F4B60180E265
:1053100090E03B8B0E9470330F5F3B89F5CF0F15F8
:1053200010F4F01A01C0F12C34FF12C0B60180E372
:1053300090E03B8B0E9470333B8932FF17C031FDF8
:1053400003C088E790E002C088E590E0B6010CC099
:10535000832F867859F031FF02C08BE201C080E2D2
:1053600037FD8DE2B60190E00E947033E11638F40B
:10537000B60180E390E00E9470331150F7CFEA94B9
:10538000F301EE0DF11D8081B60190E00E947033B3
:10539000E110F5CF14C0F4E0FF1558F584E0F81AD9
:1053A00033FE1EC0211026C003FF2AC008EF10E004
:1053B000F32DF0713F2EF8018491811124C0FF205C
:1053C00009F4E5CCB60180E290E00E947033FA94D3
:1053D000F6CFF6018681978126C08FEF9FEF23C01D
:1053E000B60180E290E00E947033FA94F110F8CF99
:1053F000D9CFF12CB601822D90E00E947033D4CF2A
:105400000CEF10E0D5CF31108052B60190E00E9431
:1054100070330F5F1F4FCFCF23E02F1510F483E0C1
:10542000BECFF12CC1CF63960FB6F894DEBF0FBE8E
:10543000CDBFDF91CF911F910F91FF90EF90DF9043
:10544000CF90BF90AF909F908F907F906F905F9024
:105450004F903F902F90089584E190E00E94B62FE6
:105460008093A0029093A1028C01E12CF12C84E1A5
:1054700090E00E94B62FF801EE0DFF1D918380830E
:1054800082E0E80EF11C94E1E916F10429F00091A4
:10549000A0021091A102EBCF88E090E00E94B62F0D
:1054A0009093B1028093B00288E090E00E94B62F02
:1054B0009093B3028093B20200E010E0E090B0025B
:1054C000F090B10289E090E00E94B62FF701E00F62
:1054D000F11F91838083E090B202F090B30289E0E3
:1054E00090E00E94B62FF701E00FF11F91838083B7
:1054F0000E5F1F4F0830110509F784E090E00E940D
:10550000B62F9093B5028093B40284E090E00E949D
:10551000B62F9093B7028093B6020091B402109117
:10552000B50281E190E00E94B62FF801918380835B
:105530000091B6021091B70281E190E00E94B62F6F
:10554000F801918380830091B4021091B50281E14A
:1055500090E00E94B62FF801938382830091B602F7
:105560001091B70281E190E00E94B62FF801938379
:10557000828380E490E00E94B62F9093B9028093DA
:10558000B80280E490E00E94B62F9093A703809326
:10559000A60380E490E00E94B62F90933C04809391
:1055A0003B0485E190E00E94B62F9093AD03809379
:1055B000AC0388E290E00E94B62F9093AB038093F7
:1055C000AA0380E090E02FEFFC01E45AFC4F208317
:1055D000019680339105C1F787B1806C87B98FEF51
:1055E00081B912B80E94E40782E00E94D2078FE0DE
:1055F00097E20197F1F700C0000080E4982E93E84D
:10560000A92E2DE4B22E35E1C32E41E1D42ED4E0F3
:105610000E9496030E948A0490927C00A0927A00D5
:1056200080917A00806480937A0080917A0086FD70
:10563000FCCF80917800909179008091B0008260D9
:105640008093B000B092B30080917000826080932C
:1056500070001092B2008091B10085608093B1001B
:105660000E94A4191092C500C092C4008091C1008C
:1056700088698093C100D092B8008091B9008C7F76
:105680008093B900D093BC000E940F070E944C1079
:1056900078940E94AA110E944C108091BA02811144
:1056A0001DC04C2F50E0FA01E158F109EF31F1052E
:1056B00060F4E35AFF4F0C941F2D0E944321F8948D
:1056C0000E94D418A5CF0E94CC22C0E80E94AA1143
:1056D0000E944C108091BA02882319F30E94CC19C1
:1056E0000E94EF19C82FDDCFE091A002F091A10236
:1056F000828193810E949222C0E8E8CFE091A002CB
:10570000F091A102E484F58402851385208531851A
:105710004681578164817581828193810E94F42141
:10572000C0E8D4CFE091A002F091A102648175811C
:10573000828193810E94BB21C0E8C8CFE091A00282
:10574000F091A102468157816481758182819381A4
:105750000E944A21C0E8BACFF8948091AF0390919B
:10576000B0039093B2038093B1031092BB03809176
:10577000D2039091D3039093D5038093D4031092D6
:10578000DE038091F5039091F6039093F8038093E4
:10579000F7031092010480911804909119049093DA
:1057A0001B0480931A04109224047894C0E88ECFCE
:1057B000E091A002F091A102468157816481758138
:1057C000828193810E940420C0E880CFE091A002F2
:1057D000F091A10264817581828193810E94CB1F27
:1057E000C0E874CFE091A002F091A1028281938180
:1057F0000E94991F0E940405C0E868CFE091A002B2
:10580000F091A10264817581828193810E945E1F63
:10581000C0E85CCFE091A002F091A1028281938167
:105820000E94161F0E940405C0E850CFE091A0021C
:10583000F091A10264817581828193810E94DB1EB7
:10584000C0E844CFE091A002F091A102828193814F
:105850000E94931E0E940405C0E838CFE091A00288
:10586000F091A10264817581828193810E94581E0A
:10587000C0E82CCFE091A002F091A1028281938137
:105880000E94101E0E940405C0E820CFE091A002F3
:10589000F091A10264817581828193810E94D31D60
:1058A000C0E814CFE091A002F091A102828193811F
:1058B0000E94A11D0E940405C0E808CFE091A0024B
:1058C000F091A102828193810E94641D0E940405CF
:1058D000C0E8FCCEE091A002F091A1028281938108
:1058E0000E94201D0E940405C0E8F0CE0E940F0710
:1058F000C0E8ECCE0E947406C0E8E8CEE091A002B9
:10590000F091A10264817581828193810E94251C9E
:105910000E940405C0E8DACEE091A002F091A10255
:1059200064817581828193810E94FD1BC0E8CECE87
:10593000E091A002F091A102828193810E94123233
:105940000E948B05C0E8C2CEE091A002F091A102B6
:105950004681578164817581828193810E94891B70
:10596000C0E8B4CEE091A002F091A1024681578137
:1059700064817581828193810E94681AC0E8A6CEF5
:10598000E091A002F091A102A281B381FD010190FA
:105990000020E9F73197EA1BFB0B759708F095CECD
:1059A00045E150E064E071E0CD010E944634C0E87A
:1059B0008DCE8091A6039091A70345E150E064E06D
:1059C00071E00E9436348091A6039091A7030E9453
:1059D0000405C0E87BCEE091A002F091A1026481B1
:1059E0007581828193810E946923C0E86FCEAA1BD2
:1059F000BB1B51E107C0AA1FBB1FA617B70710F0BA
:105A0000A61BB70B881F991F5A95A9F780959095EB
:105A1000BC01CD01089597FB072E16F4009407D022
:105A200077FD09D00E94F72C07FC05D03EF4909535
:105A300081959F4F0895709561957F4F0895EE0F62
:105A4000FF1F0024001C0BBE0790F691E02D099467
:105A50005058BB27AA270ED0B1C1A2D130F0A7D190
:105A600020F031F49F3F11F41EF497C10EF4E0953D
:105A7000E7FB64C1E92FB3D180F3BA17620773075C
:105A80008407950718F071F49EF5E2C10EF4E095D5
:105A90000B2EBA2FA02D0B01B90190010C01CA01E8
:105AA000A0011124FF27591B99F0593F50F4503E93
:105AB00068F11A16F040A22F232F342F4427585F85
:105AC000F3CF469537952795A795F0405395C9F79D
:105AD0007EF41F16BA0B620B730B840BBAF0915055
