:100000000C9489020C94A6020C94A6020C94A602ED
:100010000C94A6020C94A6020C94A6020C94A602C0
:100020000C94A6020C942D1B0C94A6020C94A60210
:100030000C94A6020C94A6020C94A6020C94A602A0
:100040000C94CF1A0C94A6020C94A6020C94A6024F
:100050000C94851A0C94A6020C94A6020C94A60289
:100060000C94A6020C94A6020C94A6020C94A60270
:10007000A50BDA0B230C6F0CAC0CED0C200DA10AB8
:10008000610D1F0B5C0BD611AA117E1143112F11AC
:10009000EE10EB10E8100C127C12BF21D122B82216
:1000A000AA229C2290228422762272226E2262222E
:1000B00056224A223E22322226221A220E220222D0
:1000C000F621EA21DE21C321B921E3226E616E000F
:1000D000696E6600F801DE01C901AF0197017E017A
:1000E000650146012A010901EA00ED000A53657421
:1000F00020636F6E7374616E740A616E67756C61F4
:100100007220737065656400000C010944656669BE
:100110006E65206F70746963616C0A7A65726F2016
:10012000706F736974696F6E00002D01084C6F6108
:1001300064206C6173740A636F6E666967757261BF
:1001400074696F6E0000490107536176652063751D
:100150007272656E740A636F6E6669677572617438
:10016000696F6E00006801064368616E6765206D07
:100170006F746F720A737562737465700000810129
:100180000552756E207A65726F0A63616C696272DE
:100190006174696F6E00009A010453657420737472
:1001A00065700A6D756C7469706C6965720000B277
:1001B00001034368616E676520737465700A776137
:1001C00069742074696D650000CC01024368616E3A
:1001D000676520737465700A756E69740000E101CB
:1001E000014368616E6765206D6F746F720A706F8E
:1001F000736974696F6E0000FB01004D6F746F725C
:10020000204472697665720A200000B603AC03A12F
:100210000397038A037D037003640358034A033C76
:10022000032E031F030C03F902E702D502C502B532
:1002300002A4029302820271025E024C023F024358
:1002400002009953544F50414C4C0000500200980A
:10025000464143544F52595245534554000062029F
:100260000397534554434F4E535453504545440010
:1002700000750202965345545741495454494D451F
:100280000000860201954745545741495454494D51
:100290004500009702029453455453554253544528
:1002A00050530000A80201934745545355425354FC
:1002B0004550530000B902029253455446554C4CE8
:1002C000524F540000C902019147455446554C4CC9
:1002D000524F540000D902029053455447454152B1
:1002E000524154494F0000EB02018F4745544745A6
:1002F0004152524154494F0000FD02028E53455471
:100300004F50545A45524F504F5300001003018D27
:100310004745544F50545A45524F504F53000023B5
:1003200003018C474554414E414C4F470000320376
:10033000018B49534D4F56494E4700004003008AF8
:100340004C4F4144434F4E4600004E0300895341F9
:100350005645434F4E4600005C03028847455450C3
:100360004F53000068030287454E41424C45000050
:10037000740301865A45524F52554E0000810303C3
:10038000854D4F564552454C00008E0303844D4F1A
:10039000564541425300009B0301832A49444E00C5
:1003A00000A50300822A49444E3F0000B0030081AB
:1003B0002A5253540000BA030080000000000000DD
:1003C000FFFF00000000000000000100010000002D
:1003D000000000000000FFFF0000000000407A1055
:1003E000F35A00A0724E18090010A5D4E80000E8E6
:1003F0007648170000E40B54020000CA9A3B000044
:1004000000E1F505000080969800000040420F00D2
:100410000000A08601000000102700000000E80393
:10042000000000006400000000000A00000000005E
:100430000100000000002C76D888DC674F0823DF1D
:10044000C1DFAE59E1B1B796E5E3E453C63AE651F0
:10045000997696E8E6C28426EB898C9B62ED407C17
:100460006FFCEFBC9C9F40F2BAA56FA5F490055AB3
:100470002AF75C936B6CF9676DC11BFCE0E40D47D8
:10048000FEF520E6B500D0ED902E030094357705FB
:100490000080841E080000204E0A000000C80C33B3
:1004A0003333330F986E12831141EF8D2114893B42
:1004B000E65516CFFEE6DB18D1844B381BF77C1DC2
:1004C000901DA4BBE424203284725E228100C9F115
:1004D00024ECA1E53D274E414E494E495459494E21
:1004E00046CDCCCC3D0AD7233C17B7D13877CC2B9F
:1004F000329595E6241FB14F0A000020410000C844
:100500004200401C4620BCBE4CCA1B0E5AAEC59DC4
:10051000740011241FBECFEFD0E1DEBFCDBF12E0CB
:10052000A0E0B1E0E4E6F8E502C005900D92AC333E
:10053000B107D9F712E0ACE3B2E001C01D92AB3FC6
:10054000B107E1F70E9490200C94302C0C9400002D
:100550009BB19F709BB99BB1807F892B8BB95B9AB4
:1005600085E88A95F1F700005B980895CF93DF93B3
:10057000E8B190E0AC01440F551F4F5F5F4F21E0A1
:1005800030E0042E01C0220F0A94EAF777FD42C042
:1005900020952E2328B977FD41C061157105B9F169
:1005A000AC01440F551F21E030E001C0220F4A95F5
:1005B000EAF7B22FA22FA09540E050E023E2289F57
:1005C000F001299FF00D1124EF57FD4F88B18B2BBF
:1005D00088B98DE08A95F1F7000088B18A2388B93F
:1005E00080819181892B71F080E090E0C7E8D3E1B0
:1005F0002197F1F700C00000019620813181821718
:100600009307A0F34F5F5F4F46175707F9F6DF9147
:10061000CF910895E22BE8B977FFBFCF719561952F
:100620007109BBCF80914202809587FD04C086FF8F
:1006300004C086E0089587E0089585FF02C085E044
:10064000089584FF02C084E0089583FF02C083E020
:10065000089580FD02C08AE2089580E008956F92B7
:100660007F928F929F92AF92BF92CF92DF92EF9242
:10067000FF920F931F93CF93DF9320E030E043E28C
:10068000642E55E5852E982CA82C50E4B52EC12C4F
:10069000D12C68ECE62E63E4F62E40E050E060E8F2
:1006A00070E480E090E0A0E8BFE37724739403E077
:1006B00010E0629EF001639EF00D1124ED59FD4F94
:1006C000118210821382128215821482168217827E
:1006D0001086118612861386148685869686A786CE
:1006E000B08AC18AD28AE38AF48A458B568B678B9B
:1006F000708F828F938FA48FB58F718E178F068F17
:10070000C68DD78DD1A3C0A312A22F5F3F4F243037
:10071000310579F6E0915302F091540280E390E0C4
:10072000918380831092560210925502E0915D02EF
:10073000F0915E02918380831092600210925F02BA
:100740001092F3021092F402109258021092570283
:1007500088E080935902109245028AE28093460213
:1007600092E09093470210924802809349021092BF
:100770004A021092420210924302109244021092D6
:100780005A0210925B0210925C02DF91CF911F918E
:100790000F91FF90EF90DF90CF90BF90AF909F9020
:1007A0008F907F906F9008951092C50085E180939F
:1007B000C400E1ECF0E0808188698083089580E4E2
:1007C00080937C0083E880937A0080917A00806433
:1007D00080937A0080917A0086FDFCCF809178002A
:1007E00090917900089520E030E080E090E0E09181
:1007F0003C02F0913D020190F081E02DE80FF91FDD
:10080000108201968431910591F780E090E0E091AB
:100810004B02F0914C02E20FF31F0190F081E02DAA
:10082000E80FF91F1082E0914D02F0914E02E20FA5
:10083000F31F0190F081E02DE80FF91F108201965F
:100840008930910521F780E090E0E0914F02F0912E
:100850005002E20FF31F0190F081E02DE80FF91F25
:100860001082E0915102F0915202E20FF31F0190C9
:10087000F081E02DE80FF91F10820196813191057A
:1008800021F780E090E0E0916102F0916202E80FD0
:10089000F91F1082019688329105A9F780E090E057
:1008A000E0915D02F0915E02E80FF91F1082E09185
:1008B0005302F0915402E80FF91F10820196803420
:1008C000910571F708959091C00095FFFCCF80933A
:1008D000C6000895DC012C91222359F0FC013196C9
:1008E0008091C00085FFFCCF2093C600219121118B
:1008F000F7CF8091C00085FFFCCF8AE08093C600CF
:10090000E0915D02F0915E0280E4DF011D928A9524
:10091000E9F7089591B1A82FB0E09D012C5F3F4FFA
:1009200041E050E0FA0102C0EE0FFF1F2A95E2F706
:100930009F019E2B91B96130C9F092B19E2B92B963
:1009400093E29A9FF0019B9FF00D1124ED59FD4F0A
:10095000138697B101C0440F8A95EAF74095492361
:1009600047B987B12095282327B9089532B1922F2E
:100970009095932392B993E29A9FF0019B9FF00D7B
:100980001124ED59FD4F638797B101C0440F8A953B
:10099000EAF7942B97B987B1822B87B9089560E065
:1009A00080E00E948A0460E081E00E948A0460E0A6
:1009B00082E00E948A0460E083E00E948A0415BC01
:1009C0001092B1000895E0EBF0E0808182608083B6
:1009D00083E78093B300E0E7F0E08081826080836A
:1009E0001092B200E1EBF0E0808185608083089591
:1009F0006115710511F00C94B602089593E2899F78
:100A0000F0011124ED59FD4F80819181860F911DD8
:100A100067FD9A95938382838281938195838483F2
:100A2000089590917C008F71907E892B80937C003B
:100A30001092580210925702809159028823F9F0BF
:100A400040E080917A00806480937A0080917A00FF
:100A500086FDFCCF8091780050917900209157025B
:100A60003091580290E0952B820F931F909358027B
:100A7000809357024F5F80915902481710F380917D
:100A80005702909158026091590270E00E94F7223B
:100A9000CB0108956F927F929F92AF92BF92CF92B7
:100AA000DF92EF92FF920F931F93CF93DF93982ED5
:100AB0008091B100887F8093B100C92DD0E083E29E
:100AC000989E50011124F501ED59FD4F5F01068DEF
:100AD000178D618972898389948925853685478533
:100AE0005089C588D688E788F08C0E941425A70114
:100AF00096010E9414256B017C0181E090E0F501D4
:100B0000978F868F05C068E37FEF892D0E94B6021C
:100B1000892D0E941105C297B0F3C701B6010E944A
:100B200077250E9432245B01612C712C0DC061E09D
:100B300070E0892D0E94B602892D0E941105C2978E
:100B400030F0FFEF6F1A7F0A6A147B0481F720E010
:100B500030E040E85EE3C701B6010E9414250E9420
:100B600077250E942D246115710509F06DC020E0E4
:100B700030E040E45FE3C701B6010E9414250E9403
:100B800077250E942D24685C71096115710509F0B3
:100B900057C083E28C9FF0018D9FF00D1124ED5919
:100BA000FD4F85E090E0978F868F05C061E070E093
:100BB000892D0E94B602892D0E941105C397B0F7B6
:100BC00083E28C9FF0018D9FF00D1124ED59FD4FB4
:100BD000178F068F648175816115710519F0892D54
:100BE0000E94B60283E28C9FF0018D9FF00D1124CC
:100BF000ED59FD4F11821082138212828091B00054
:100C000082608093B00083E78093B300809170008E
:100C10008260809370001092B2008091B100856074
:100C20008093B100DF91CF911F910F91FF90EF90D2
:100C3000DF90CF90BF90AF909F907F906F9008957E
:100C4000892D0E94B602A5CF892D0E94B6028FCFB2
:100C5000CF92DF92EF92FF920F931F93CF93DF9388
:100C6000F894C7E6D2E078E0C72E70E0D72E00E017
:100C700010E0E12CF12CB701645B7F4F42E050E0C3
:100C8000CE010E94402AB801645C7F4F44E050E0EE
:100C9000CE0109960E94402AB801645D7F4F44E06E
:100CA00050E0CE010D960E94402AB801645E7F4F4D
:100CB00044E050E0CE0141960E94402AB801645FB2
:100CC0007F4F44E050E0CE0146960E94402A41E02A
:100CD00050E0B601CE0145960E94402AB70160500F
:100CE000704042E050E0CE014A960E94402AA3960E
:100CF00082E0E80EF11C0C5F1F4F8FEFC81AD80A74
:100D000088E0E816F10409F0B6CF7894DF91CF912E
:100D10001F910F91FF90EF90DF90CF900895CF92A9
:100D2000DF92EF92FF920F931F93CF93DF93F8948C
:100D3000C7E6D2E0E8E0CE2EE0E0DE2E00E010E0F4
:100D4000E12CF12CB701645B7F4F42E050E0CE0113
:100D50000E94302AB801645C7F4F44E050E0CE012D
:100D600009960E94302AB801645D7F4F44E050E04C
:100D7000CE010D960E94302AB801645E7F4F44E098
:100D800050E0CE0141960E94302AB801645F7F4F47
:100D900044E050E0CE0146960E94302A41E050E007
:100DA000B601CE0145960E94302AB70160507040CE
:100DB00042E050E0CE014A960E94302AA39682E09B
:100DC000E80EF11C0C5F1F4F8FEFC81AD80A88E09D
:100DD000E816F10409F0B6CF7894DF91CF911F9116
:100DE0000F91FF90EF90DF90CF900895CF93C82F91
:100DF0005A9A0E94A8028C2F8295807F0E94A80296
:100E000085EE90E00197F1F700C00000CF910895C2
:100E1000CF93C82F5A980E94A8028C2F8295807F6A
:100E20000E94A80281ED90E00197F1F700C0000058
:100E3000CF9108958AB18C6F8AB98BB183708BB9C9
:100E40002FE58AEE90E0215080409040E1F700C00D
:100E5000000080E30E94A80287EA91E60197F1F77B
:100E600000C000005B9A95E89A95F1F700005B9846
:100E700087E893E10197F1F700C000005B9A95E8DD
:100E80009A95F1F700005B9887E893E10197F1F7F5
:100E900000C0000080E20E94A80287EA91E6019764
:100EA000F1F700C0000088E20E9408078CE00E9471
:100EB000080786E00E94080781E00E9408078FE08B
:100EC00097E20197F1F700C00000089581E00E94C9
:100ED00008078FE097E20197F1F700C0000008953E
:100EE00082E00E9408078FE097E20197F1F700C0C7
:100EF00000000895623081F050F0633029F06430D2
:100F000071F480530C94080780570C9408076130E3
:100F100039F480580C94080780540C9408070895FD
:100F20000895CF93DF93EC018881882331F02196D7
:100F30000E94F60689918111FBCFDF91CF91089530
:100F4000EF92FF921F93CF93DF9300D0CDB7DEB720
:100F500028E0829FC0011124806469837A830E9403
:100F600008076981E62E7A81F72E18E0F701819152
:100F70007F010E94F6061150C9F70F900F90DF9184
:100F8000CF911F91FF90EF9008954F925F926F92D3
:100F90007F928F929F92AF92BF92CF92DF92EF9209
:100FA000FF920F931F93CF93DF9300D000D0CDB764
:100FB000DEB7F82ECB01BA01A90198010E941425D1
:100FC0004B015C0183E2F89E800111240D591D4FF5
:100FD000D80151966D917D918D919C9154971D965C
:100FE0002D913D914D915C9150975596CD90DD900E
:100FF000ED90FC9058970E941425A70196010E943D
:10100000142520E030E044EB53E40E94C5239B010B
:10101000AC01C501B4010E9414250E9477256B0123
:101020007C01F801628073800E942D24660D771D7B
:10103000D80113967C936E93129716968D919D917D
:101040000D90BC91A02D89839A83AB83BC83F8015A
:101050006189728983899489258536854785508978
:10106000458856886788708C0E941425A3019201D8
:101070000E94142520E030E044EB53E40E94C52395
:101080009B01AC01C501B4010E941425A701960182
:101090000E945C239B01AC0169817A818B819C81D8
:1010A0000E945D23D80116966D937D938D939C933A
:1010B00019970F900F900F900F90DF91CF911F9184
:1010C0000F91FF90EF90DF90CF90BF90AF909F90E7
:1010D0008F907F906F905F904F9008954F925F92A6
:1010E0006F927F928F929F92AF92BF92CF92DF9238
:1010F000EF92FF92CF93DF9300D000D0CDB7DEB751
:1011000093E2899FF0011124ED59FD4F45845684E7
:1011100067847088258936894789508D81889288AF
:10112000A388B488882777FD8095982F29833A83F0
:101130004B835C830E9460246B017C0129813A818E
:101140004B815C81C301B2010E941425A501940169
:101150000E9414259B01AC0160E070E084EB93E4F5
:101160000E94C5239B01AC01C701B6010E94142552
:101170000F900F900F900F90DF91CF91FF90EF9015
:10118000DF90CF90BF90AF909F908F907F906F90A7
:101190005F904F9008954F925F926F927F928F92DF
:1011A0009F92AF92BF92CF92DF92EF92FF920F93F6
:1011B0001F93CF93DF9300D000D0CDB7DEB7F82ECA
:1011C000CB01BA01A90198010E9414254B015C01D1
:1011D00083E2F89E800111240D591D4FD8015196CC
:1011E0006D917D918D919C9154971D962D913D917E
:1011F0004D915C9150975596CD90DD90ED90FC907F
:1012000058970E941425A70196010E94142520E0FA
:1012100030E040E05FE30E9414259B01AC01C50172
:10122000B4010E9414250E9477256B017C01F8010E
:10123000628073800E942D24660D771DD80113965D
:101240007C936E93129716968D919D910D90BC9103
:10125000A02D89839A83AB83BC83F801618972894D
:1012600083899489258536854785508945885688A0
:101270006788708C0E941425A30192010E94142596
:1012800020E030E040E05FE30E9414259B01AC01C8
:10129000C501B4010E941425A70196010E945C2398
:1012A0009B01AC0169817A818B819C810E945D23C5
:1012B000D80116966D937D938D939C9319970F90FB
:1012C0000F900F900F90DF91CF911F910F91FF9092
:1012D000EF90DF90CF90BF90AF909F908F907F90D6
:1012E0006F905F904F9008954F925F926F927F92B0
:1012F0008F929F92AF92BF92CF92DF92EF92FF9226
:10130000CF93DF9300D000D0CDB7DEB793E2899FB3
:10131000F0011124ED59FD4F45845684678470888F
:10132000258936894789508D81889288A388B48819
:10133000882777FD8095982F29833A834B835C8398
:101340000E9460246B017C0129813A814B815C8180
:10135000C301B2010E941425A50194010E94142525
:101360009B01AC0160E070E080E090E40E94C52346
:101370009B01AC01C701B6010E9414250F900F908C
:101380000F900F90DF91CF91FF90EF90DF90CF9073
:10139000BF90AF909F908F907F906F905F904F9095
:1013A0000895F894613011F1A0F0623081F493E275
:1013B000899FF0011124ED59FD4F6487808191814F
:1013C000938382838281938101979383828378942C
:1013D000089593E2899FF0011124ED59FD4F148681
:1013E00080819181938382837894089593E2899F89
:1013F000F0011124ED59FD4F648780819181938321
:101400008283828193810196938382837894089565
:10141000E82FF0E0EE0FFF1FEC52FF4F8591949103
:10142000FC016591749180916102909162020E9429
:101430001D2968E071E080916102909162020E9432
:101440002F299093620280936102E0915102F09102
:101450005202BC01808191810E943D2966E071E0C9
:1014600080E090E00E942F299093620280936102B5
:10147000E0915102F0915202BC01828193810E945D
:101480003D2980E090E030E2E0915102F09152027B
:10149000E80FF91FA081B181FD0101900020E9F75B
:1014A00031972E2F2A1B203178F4E0915102F091D0
:1014B0005202E80FF91F0190F081E02DE20FF11DBB
:1014C00030832F5F203189F7E0915102F091520271
:1014D000E80FF91F0190F081E02D108A0296843008
:1014E000910591F608952F923F924F925F926F92DD
:1014F0007F928F929F92AF92BF92CF92DF92EF92A4
:10150000FF920F931F93CF93DF93CDB7DEB727974B
:101510000FB6F894DEBF0FBECDBFE82FF0E0EE0FA0
:10152000FF1FEC52FF4F859194910296FC0184912C
:1015300090E08B309105C8F5FC01E85CFF4F0C94FE
:101540005623E0914D02F0914E02A081B18189E0D5
:10155000EAE7F1E001900D928A95E1F7E0914D0202
:10156000F0914E02A281B38189E0E3E8F1E00190BD
:101570000D928A95E1F7E0914D02F0914E02A4811F
:10158000B58189E0ECE8F1E001900D928A95E1F7F0
:10159000E0914D02F0914E02A681B78189E0E5E924
:1015A000F1E001900D928A95E1F780E090E030E261
:1015B000E0914D02F0914E02E80FF91FA081B18138
:1015C000FD0101900020E9F731972E2F2A1B2830CA
:1015D00078F4E0914D02F0914E02E80FF91F01906E
:1015E000F081E02DE20FF11D30832F5F283089F765
:1015F000E0914D02F0914E02E80FF91F0190F08149
:10160000E02D108602968830910591F627960FB648
:10161000F894DEBF0FBECDBFDF91CF911F910F9128
:10162000FF90EF90DF90CF90BF90AF909F908F9002
:101630007F906F905F904F903F902F900895C12CB6
:10164000D12C33E2F32E09E211E080914A0290E0BE
:101650000C2C02C0959587950A94E2F780FF4DC245
:101660002EE7FC9CF001FD9CF00D1124ED59FD4F7F
:1016700084819581E0914D02F0914E029F938F936A
:101680001F922F931F930F93C601880F991FE80F86
:10169000F91F81818F9380818F930E94B0292FEF52
:1016A000C21AD20A0FB6F894DEBF0FBECDBF94E0C7
:1016B000C916D10451F679CFA12CB12C412C512C53
:1016C000B3E29B2E00EB11E087EBC82E81E0D82E11
:1016D0009CEBE92E91E0F92E380180914A0290E0CE
:1016E000042C02C0959587950A94E2F780FF03C207
:1016F0001EE7949CF001959CF00D1124ED59FD4FCF
:1017000082A1882309F41FC2949CF001959CF00DDE
:101710001124ED59FD4F82A1813009F4CAC2949C75
:10172000F001959CF00D1124ED59FD4F82A18230FE
:1017300009F408C3AFEF4A1A5A0AB2E0AB0EB11C63
:10174000E4E04E16510449F630CFE0914D02F0919D
:101750004E02A081B18189E0EAE0F1E001900D92B2
:101760008A95E1F7E0914D02F0914E02A281B3819A
:1017700089E0E3E1F1E001900D928A95E1F7E091D3
:101780004D02F0914E02A481B58188E0ECE1F1E0D8
:1017900001900D928A95E1F7E0914D02F0914E0291
:1017A000A681B78185E0E4E2F1E001900D928A958F
:1017B000E1F7FBCE00E010E0212C312C80914A02B1
:1017C00090E0022C02C0959587950A94E2F780FF7D
:1017D0008FC1FEE7FF8343E2429DF001439DF00D80
:1017E0001124ED59FD4F818D813009F41BC28230E7
:1017F00009F4C0C181111CC080819181E0914D022A
:10180000F0914E029F938F931F928F818F93A9E245
:10181000B1E0BF93AF93E00FF11F81818F9380817F
:101820008F930E94B0290FB6F894DEBF0FBECDBFD4
:101830009FEF291A390A0E5F1F4FA4E02A163104C0
:1018400009F0BCCFB2CE812C912C412C512C13E24B
:10185000712E02E4E02E01E0F02E07E411E08CE4AA
:10186000A82E81E0B82E93E5C92E91E0D92E809163
:101870004A0290E0042C02C0959587950A94E2F7FD
:1018800080FF3DC12EE7749CF001759CF00D112482
:10189000ED59FD4F818D882309F43BC1749CF00103
:1018A000759CF00D1124ED59FD4F818D813009F4A7
:1018B0002FC2749CF001759CF00D1124ED59FD4F61
:1018C000818D823009F40CC2BFEF4B1A5B0AE2E053
:1018D0008E0E911CF4E04F16510449F666CEC12CD1
:1018E000D12CB3E2FB2E0AE511E080914A0290E090
:1018F0000C2C02C0959587950A94E2F780FF01C1F0
:101900002EE7FC9CF001FD9CF00D1124ED59FD4FDC
:10191000868D978DE0914D02F0914E029F938F93AB
:101920001F922F931F930F93C601880F991FE80FE3
:10193000F91F81818F9380818F930E94B0292FEFAF
:10194000C21AD20A0FB6F894DEBF0FBECDBF94E024
:10195000C916D10451F629CEC12CD12CE3E2FE2EBA
:1019600002E611E080914A0290E00C2C02C09595AD
:1019700087950A94E2F780FFC6C02EE7FC9CF00131
:10198000FD9CF00D1124ED59FD4F828D938DA48D9A
:10199000B58DE0914D02F0914E02BF93AF939F93AE
:1019A0008F931F922F931F930F93C601880F991F38
:1019B000E80FF91F81818F9380818F930E94B02956
:1019C000AFEFCA1ADA0A0FB6F894DEBF0FBECDBF6A
:1019D000F4E0CF16D10431F6E8CDE12CF12C0AE683
:1019E00011E080914A02970190E00E2C02C095957B
:1019F00087950A94E2F780FF88C08EE7E0914D0258
:101A0000F0914E023F932F931F928F931F930F934A
:101A1000C701880F991FE80FF91F81818F9380817B
:101A20008F930E94B0292FEFE21AF20A0FB6F894B2
:101A3000DEBF0FBECDBF94E0E916F10491F6B5CD3F
:101A4000C12CD12C53E2F52E03E711E080914A021C
:101A500090E00C2C02C0959587950A94E2F780FFE0
:101A600056C02EE7FC9CF001FD9CF00D1124ED59B1
:101A7000FD4F85899689A789B08DE0914D02F0913F
:101A80004E02BF93AF939F938F931F922F931F93F9
:101A90000F93C601880F991FE80FF91F81818F935B
:101AA00080818F930E94B029AFEFCA1ADA0A0FB66D
:101AB000F894DEBF0FBECDBFF4E0CF16D10431F6EF
:101AC00074CDE0914D02F0914E02A081B18189E088
:101AD000EEE9F1E001900D928A95E1F7E0914D0277
:101AE000F0914E02A281B38189E0E7EAF1E03FCDB7
:101AF00020E22F8370CE10E2FCCD20E2B2CD20E2B6
:101B0000C2CE20E2FECE20E239CF80E277CF20E2C3
:101B1000A9CFE0914D02F0914E02FF92EF921F92F9
:101B20002F931F930F93E80DF91D81818F9380816F
:101B30008F932E830E94B0290FB6F894DEBF0FBE9C
:101B4000CDBF2E81ABCEE0914D02F0914E021F929F
:101B50001F937F926F92EA0DFB1D81818F9380818D
:101B60008F930E94B0290F900F900F900F900F90BD
:101B70000F90CACD608171814584568467847088D6
:101B8000258936894789508D81889288A388B488B1
:101B9000A0914D02B0914E02BA83A9831F92B7EF74
:101BA000BF93882777FD8095982F2E833B834C83A6
:101BB0005D830E9460246B017C012E813B814C81FE
:101BC0005D81C301B2010E941425A50194010E9408
:101BD00014259B01AC0160E070E080E090E40E947D
:101BE000C5239B01AC01C701B6010E9414259F9338
:101BF0008F937F936F931F92EF81EF93A9E3B1E0EF
:101C0000BF93AF93E981FA81E00FF11F81818F9338
:101C100080818F930E94B0290FB6F894DEBF0FBE6B
:101C2000CDBF06CE608171814584568467847088FB
:101C3000258936894789508D81889288A388B48800
:101C4000A0914D02B0914E02BA83A9831F92BFEDBD
:101C5000BF93882777FD8095982F2E833B834C83F5
:101C60005D830E9460246B017C012E813B814C814D
:101C70005D81C301B2010E941425A50194010E9457
:101C800014259B01AC0160E070E084EB93E40E94BA
:101C9000C5239B01AC01C701B6010E9414259F9387
:101CA0008F937F936F931F92EF81EF93A0E3B1E047
:101CB000A7CFE0914D02F0914E021F921F93DF9249
:101CC000CF92EA0DFB1D81818F9380818F930E94BB
:101CD000B0290F900F900F900F900F900F901FCD85
:101CE000E0914D02F0914E02DF92CF921F922F931E
:101CF0001F930F93E80DF91D81818F9380818F933E
:101D00000E94B0290FB6F894DEBF0FBECDBFDCCD68
:101D1000E0914D02F0914E02BF92AF921F922F932D
:101D20001F930F93E80DF91D81818F9380818F930D
:101D30002E830E94B0290FB6F894DEBF0FBECDBF30
:101D40002E81B7CDE0914D02F0914E021F921F936C
:101D5000FF92EF92EA0DFB1D81818F9380818F931B
:101D60000E94B0290F900F900F900F900F900F903E
:101D7000E1CCCF93DF9380914902823009F482C095
:101D8000833049F0813039F08091470280934902D5
:101D9000DF91CF910895809146020E94730AA0912D
:101DA0004D02B0914E02E0914B02F0914C026D91C8
:101DB0007C91808191810E943429892B09F016C180
:101DC000A0914D02B0914E02E0914B02F0914C0275
:101DD00012966D917C911397828193810E94342990
:101DE000892B09F0E0C0A0914D02B0914E02E09124
:101DF0004B02F0914C0214966D917C911597848161
:101E000095810E943429892B09F0AAC0A0914D0226
:101E1000B0914E02E0914B02F0914C0216966D91FA
:101E20007C911797868197810E943429892B09F428
:101E3000ABCF88EC0E940807E0914D02F0914E0272
:101E4000C681D7818881882331F021960E94F606C9
:101E500089918111FBCFA0914D02B0914E02E0918A
:101E60004B02F0914C0216966D917C9117978681EA
:101E700097810E943D298091470280934902DF911A
:101E8000CF9108959091460280914502981709F4E8
:101E90007BCF809145020E94080A80E80E940807D3
:101EA000E0915102F0915202C081D1818881882352
:101EB00031F021960E94F60689918111FBCFA09105
:101EC0005102B0915202E0914F02F09150026D9197
:101ED0007C91808191810E943D2980EC0E940807BD
:101EE000E0915102F0915202C281D381888188230E
:101EF00031F021960E94F60689918111FBCFA091C5
:101F00005102B0915202E0914F02F09150021296AC
:101F10006D917C911397828193810E943D298091DC
:101F200045028093460280E090E028E0E0914B0279
:101F3000F0914C02E80FF91FA081B181E2ECF1E0D1
:101F4000322F01900D923A95E1F702968A30910571
:101F500069F78091470280934902DF91CF910895FC
:101F600080EC0E940807E0914D02F0914E02C4817E
:101F7000D5818881882331F021960E94F6068991C7
:101F80008111FBCFA0914D02B0914E02E0914B0226
:101F9000F0914C0214966D917C91159784819581F6
:101FA0000E943D2933CF88E80E940807E0914D0246
:101FB000F0914E02C281D3818881882331F021962D
:101FC0000E94F60689918111FBCFA0914D02B0913C
:101FD0004E02E0914B02F0914C0212966D917C9171
:101FE0001397828193810E943D29FDCE80E80E9453
:101FF0000807E0914D02F0914E02C081D1818881A5
:10200000882331F021960E94F60689918111FBCF39
:10201000A0914D02B0914E02E0914B02F0914C0222
:102020006D917C91808191810E943D29C9CE3F9222
:102030004F925F926F927F928F929F92AF92BF92D8
:10204000CF92DF92EF92FF920F931F93CF93DF9384
:1020500080914402811104C080915C02882379F050
:1020600020914602C0914902C23009F444C0DC2FDD
:10207000DD7FD130B1F01092440210925C02DF910A
:10208000CF911F910F91FF90EF90DF90CF90BF9075
:10209000AF909F908F907F906F905F904F903F9008
:1020A000089580914402811164C0C33021F7F894EF
:1020B00080915C02882309F489C000915B02109230
:1020C0005B0278940023B9F2E0914602F0E0EE0F53
:1020D000FF1FEC52FF4F859194910296FC01849171
:1020E00090E0FC013197EA30F10508F0C4CFED5BD8
:1020F000FF4F0C945623F89480915C02882309F4D6
:1021000062C080915B0210925B02992787FD9095D7
:102110007894820F911D27FD9A956BE070E00E94E4
:102120000B2387FD24C080934502809144028111D6
:1021300012C080914402882309F49DCF0E941203AB
:10214000811199CF80914A02882309F494CF83E0CA
:102150008093470290CF0E9412038111EACF8091B1
:102160004A028111E6CF81E080934702E2CF8AE004
:10217000DACF0E9412038430E1F008F48BC186307C
:1021800071F008F47DC1873009F08FCF80914A0249
:102190008D2780934A0283E08093470286CF809107
:1021A0004A0292E0892780934A0283E080934702A3
:1021B0007CCF80914A0298E0892780934A0283E08D
:1021C0008093470272CF80E090E0A2CF00E079CF09
:1021D0000E948F0650CF0E9428064DCFC0E0D0E06D
:1021E00033E2732E802E992487FC9094A92CB92C6D
:1021F00080914A0290E00C2E02C0959587950A9432
:10220000E2F780FF27C07C9E80017D9E100D112487
:102210000D591D4FF801C588D688E788F08CC50197
:10222000B4010E9460249B01AC01C701B6010E9469
:102230005D23F801658B768B878B908F6589768916
:102240008789908D20E030E040E85FE30E94C12361
:1022500087FD7FC12196C430D10551F60CCFC0E077
:10226000D0E001E010E080914A0290E00C2E02C024
:10227000959587950A94E2F780FD22C12196C43096
:10228000D10589F7F8CEC0E0D0E043E2742E802E6D
:10229000992487FC9094A92CB92C80914A0290E053
:1022A0000C2E02C0959587950A94E2F780FF21C015
:1022B0007C9E80017D9E100D11240D591D4FF8014B
:1022C000C28CD38CE48CF58CC501B4010E946024CF
:1022D00020E030E040E251E40E94C5239B01AC01C4
:1022E000C701B6010E945D23F801628F738F848F4E
:1022F000958F2196C430D10581F6BDCE80E090E067
:1023000063E2802E992487FC909441E050E0209174
:102310004A0230E0082E02C0359527950A94E2F76C
:1023200020FF13C0689FF001699FF00D1124ED5943
:10233000FD4F268D378D280D391D378F268F268D21
:10234000378D232B11F4578F468F019684309105DA
:10235000F1F691CE80E090E043E252E020914A0213
:1023600030E0082E02C0359527950A94E2F720FF49
:1023700018C0489FF001499FF00D1124ED59FD4F01
:10238000218D200F218F218D27FDEDC0489FF00169
:10239000499FF00D1124ED59FD4F218D23300CF094
:1023A000118E019684309105C9F665CEE02EFF248A
:1023B000E7FCF094F4E60F02E0011124C12CD12CCB
:1023C00053E2352E802E992487FC9094A92CB92CA9
:1023D00080914A0290E00C2C02C0959587950A9452
:1023E000E2F780FF11C03C9CF0013D9CF00D1124F0
:1023F000ED59FD4F818D813009F4D8C0823009F448
:10240000BFC0882309F4B1C02FEFC21AD20A34E04A
:10241000C316D104E9F62FCE44E6049F402D1124C3
:10242000552747FD509580E090E063E2802E992487
:1024300087FC909420914A0230E0082E02C0359526
:1024400027950A94E2F720FF16C020914802689F62
:10245000F001699FF00D1124ED59FD4F222309F47D
:1024600040C020813181240F351F33832283228194
:10247000338135832483019684309105D9F6FBCDD1
:1024800080914A0294E0892780934A0283E08093F6
:1024900047020BCE882371F0833009F006CE82E02C
:1024A00080934702809146028F5F8093460210928C
:1024B0004802FBCD809148028D2780934802F5CDDC
:1024C0008C2F0E944A0520914A02C8010C2E01C09F
:1024D000880F0A94EAF7282720934A020E94B90E2F
:1024E000CDCE20813181280D391D33832283228175
:1024F000338135832483BFCFC0E0D0E013E28C2F3B
:1025000020914A0230E00C2E02C0359527950A949E
:10251000E2F720FF19C01C9FF0011D9FF00D112450
:10252000ED59FD4F92A1900F92A392A192A19330E9
:1025300008F012A21C9FF0011D9FF00D1124ED590F
:10254000FD4F62A10E94D1092196C430D105B9F690
:1025500092CD80E090E0A0E8BFE3F801858B968BF8
:10256000A78BB08F77CE518F11CF809148028823EF
:10257000B9F1828193818C0F9D1F9383828344CF15
:10258000428C538C648C758CC501B4010E9460240C
:1025900020E030E040E05EE30E941425AB01BC0186
:1025A000930182018C2D0E94CB082ECF809148028E
:1025B000428C538C648C758C8823C9F0C501B4019E
:1025C0000E94602420E030E040E251E40E941425A3
:1025D000AB01BC01930182018C2D0E94C50714CF71
:1025E000828193818E0D9F1D938382830DCFC501C0
:1025F000B4010E946024AB01BC01930182018C2DC7
:102600000E94C50701CF14B88FEF85B984B58260E9
:1026100084BD88EC87BDEEE6F0E080818260808337
:1026200016BC85B5856085BD0895809144028111F1
:1026300002C08AE208950C941203F89480915C021F
:10264000882331F080915B0210925B0278940895A8
:1026500080E078940895CF93DF93F894C3E5D2E0B7
:10266000E881F981A091EF02B091F00280E401903D
:102670000D928A95E1F781E08093F102E881F9817A
:1026800080E4DF011D928A95E9F7109256021092BC
:1026900055027894DF91CF910895AF92BF92CF9277
:1026A000DF92EF92FF920F931F93CF93DF93F894F3
:1026B0008091F102882309F467C08091EF02909124
:1026C000F0026AEC71E00E942F296C01E0913C025B
:1026D000F0913D0200811181CBE0D2E0B12CF0E815
:1026E000AF2EFE01E590F490F70165917491C80159
:1026F0000E941D29A0913C02B0913D020D911C91B8
:10270000B801C6010E943429892B31F4F7013396B0
:10271000A490F7013296B490229682E0CF33D80786
:1027200001F7BB20C9F0C1E06AEC71E080E090E005
:102730000E942F292C2F30E0220F331FE0913C0202
:10274000F0913D02E20FF31FBC01808191810E9454
:102750003D29CF5FBC1640F7E091EF02F091F00207
:1027600080E4DF011D928A95E9F71092F1027894D6
:102770008A2DDF91CF911F910F91FF90EF90DF9005
:10278000CF90BF90AF90089570E8A72EF0CF3F9202
:102790004F925F926F927F928F929F92AF92BF9271
:1027A000CF92DF92EF92FF920F931F93CF93DF931D
:1027B00000D000D0CDB7DEB78B017A014AE050E0FF
:1027C00060E070E00E94E726362E83E0831508F46F
:1027D00082C06FEC71E0C7010E943429892B09F493
:1027E00090C065ED71E0C7010E943429892B09F181
:1027F00069ED71E0C7010E943429892B09F495C065
:102800008CED91E00F900F900F900F90DF91CF9192
:102810001F910F91FF90EF90DF90CF90BF90AF90FE
:102820009F908F907F906F905F904F903F900C940F
:102830006A0483E2389EF0011124ED59FD4F608156
:1028400071814584568467847088258936894789D3
:10285000508D81889288A388B488882777FD8095D9
:10286000982F29833A834B835C830E9460246B01F9
:102870007C0129813A814B815C81C301B2010E94B4
:102880001425A50194010E9414259B01AC0160E070
:1028900070E084EB93E40E94C5239B01AC01C70167
:1028A000B6010E9414259B01AC01C80129833A831B
:1028B0004B835C830E941B2829813A814B815C8178
:1028C0000E945C23AB01BC0100E010E020E83FE384
:1028D000832D0E94C5070F900F900F900F90DF91EE
:1028E000CF911F910F91FF90EF90DF90CF90BF900D
:1028F000AF909F908F907F906F905F904F903F90A0
:102900000895E32CF12C4AE050E060E070E0C8014B
:102910000E94E72623E22E9DF0012F9DF00D112449
:10292000ED59FD4F73836283D6CF83E2389EF00169
:102930001124ED59FD4F608171814584568467846F
:102940007088258936894789508D81889288A38827
:10295000B488882777FD8095982F29833A834B8305
:102960005C830E9460246B017C0129813A814B8148
:102970005C81C301B2010E941425A50194010E944B
:1029800014259B01AC0160E070E080E090E40E94BF
:10299000C5239B01AC01C701B6010E9414259B0110
:1029A000AC01C80129833A834B835C830E941B28B6
:1029B00029813A814B815C810E945C23AB01BC017F
:1029C00000E010E020E83FE3832D0E94CB0883CF96
:1029D000AF92BF92DF92EF92FF920F931F93CF932C
:1029E000DF937B01EA014AE050E060E070E00E9482
:1029F000E726D62E83E08D15A8F06FEC71E0CE01AE
:102A00000E943429892BC9F165ED71E0CE010E9445
:102A10003429892BF1F069ED71E0CE010E9434294F
:102A2000892B51F0DF91CF911F910F91FF90EF9083
:102A3000DF90BF90AF900895C7010E941B28AB01A3
:102A4000BC0100E010E020E83FE38D2D0E94CB08A0
:102A5000E9CFC7010E941B28AB01BC0100E010E0D8
:102A600020E83FE38D2D0E94C50769ED71E0CE019E
:102A70000E943429892BB1F6DFCFE3E2DE9E80018C
:102A800011240D591D4FF801A280B3804AE050E097
:102A900060E070E0C7010E94E7266A0D7B1DF80127
:102AA0007383628365ED71E0CE010E943429892B26
:102AB00009F0B1CFCECF1F93CF93DF93EB014AE064
:102AC00050E060E070E00E94E726162F4AE050E0F8
:102AD00060E070E0CE010E94E726143080F46111BE
:102AE00007C060E0812FDF91CF911F910C948A0481
:102AF00061E0812FDF91CF911F910C948A04DF91C7
:102B0000CF911F9108954F925F926F927F928F9213
:102B10009F92AF92BF92CF92DF92EF92FF920F936C
:102B20001F93CF93DF9300D000D0CDB7DEB77B01EA
:102B30004AE050E060E070E00E94E726162F643023
:102B400008F080C06FEC71E0C7010E943429892B26
:102B500009F4C9C065ED71E0C7010E943429892BD1
:102B600009F485C069ED71E0C7010E943429892B01
:102B700009F482C083E2189FF0011124ED59FD4F42
:102B8000608171814584568467847088258936897F
:102B90004789508D81889288A388B48800915D020E
:102BA00010915E02882777FD8095982F29833A83BC
:102BB0004B835C830E9460246B017C0129813A81F4
:102BC0004B815C81C301B2010E941425A5019401CF
:102BD0000E9414259B01AC0160E070E084EB93E45B
:102BE0000E94C5239B01AC01C701B6010E941425B8
:102BF0009F938F937F936F938FEF91E09F938F932A
:102C00001F930F930E94B0290FB6F894DEBF0FBE3A
:102C1000CDBF80915D0290915E020F900F900F905A
:102C20000F90DF91CF911F910F91FF90EF90DF9068
:102C3000CF90BF90AF909F908F907F906F905F905C
:102C40004F90089580915D0290915E021F921F93B4
:102C500028EE31E03F932F939F938F930E94B029EA
:102C60000F900F900F900F900F900F90D2CF93E294
:102C7000199FF001112482CF83E2189FF0011124E3
:102C8000ED59FD4F60817181458456846784708859
:102C9000258936894789508D81889288A388B48890
:102CA00000915D0210915E02882777FD8095982F34
:102CB00029833A834B835C830E9460246B017C01EF
:102CC00029813A814B815C81C301B2010E941425A4
:102CD000A50194010E9414259B01AC0160E070E005
:102CE00080E090E47DCF83E2189FF0011124ED593C
:102CF000FD4F2081318180915D0290915E023F9372
:102D00002F932CEF31E0A6CF4AE050E060E070E076
:102D10000E94E726643018F583E2689FF0011124D1
:102D2000ED59FD4F2281338180819181E0915D02D7
:102D3000F0915E022817390749F081E390E0918312
:102D4000808380915D0290915E02089580E390E01F
:102D50009183808380915D0290915E0208958091BD
:102D60005D0290915E021F926F9328EE31E03F93D7
:102D70002F939F938F930E94B0290F900F900F90E5
:102D80000F900F900F9080915D0290915E020895D8
:102D90004AE050E060E070E00E94E7266430E0F432
:102DA000862F0E94110520915D0230915E029F9353
:102DB0008F938CEF91E09F938F933F932F930E947B
:102DC000B0290F900F900F900F900F900F9080915F
:102DD0005D0290915E02089520915D0230915E0245
:102DE0001F926F9388EE91E0E6CF4AE050E060E0FA
:102DF00070E00E94E726643008F583E2689FF001E6
:102E00001124ED59FD4F2481358180915D0290910F
:102E10005E023F932F932CEF31E03F932F939F93CC
:102E20008F930E94B0290F900F900F900F900F90EA
:102E30000F9080915D0290915E02089580915D02F5
:102E400090915E021F926F9328EE31E0E6CF1F93C0
:102E5000CF93DF93EB014AE050E060E070E00E9426
:102E6000E726162F643098F44AE050E060E070E006
:102E7000CE010E94E72623E2129FF0011124ED59B2
:102E8000FD4F75836483DF91CF911F9108958091E9
:102E90005D0290915E021F921F9328EE31E03F93F6
:102EA0002F939F938F930E94B02980915D02909100
:102EB0005E020F900F900F900F900F900F90DF9188
:102EC000CF911F910C946A044AE050E060E070E0FA
:102ED0000E94E726643038F583E2689FF0011124F0
:102EE000ED59FD4F85859685A785B08920915D02B6
:102EF00030915E02BF93AF939F938F938FEF91E0DA
:102F00009F938F933F932F930E94B0298DB79EB7C5
:102F100008960FB6F8949EBF0FBE8DBF80915D02DC
:102F200090915E02089580915D0290915E021F92E1
:102F30006F9328EE31E03F932F939F938F930E94DE
:102F4000B0290F900F900F900F900F900F908091DD
:102F50005D0290915E0208951F93CF93DF93EB0182
:102F60004AE050E060E070E00E94E726162F6430EF
:102F700088F4CE010E941B2823E2129FF001112445
:102F8000ED59FD4F658776878787908BDF91CF91CD
:102F90001F91089580915D0290915E021F921F9390
:102FA00028EE31E03F932F939F938F930E94B02997
:102FB00080915D0290915E020F900F900F900F90A4
:102FC0000F900F90DF91CF911F910C946A044AE00B
:102FD00050E060E070E00E94E726643038F583E25C
:102FE000689FF0011124ED59FD4F81899289A389D1
:102FF000B48920915D0230915E02BF93AF939F939D
:103000008F9385E791E09F938F933F932F930E9437
:10301000B0298DB79EB708960FB6F8949EBF0FBE25
:103020008DBF80915D0290915E02089580915D0256
:1030300090915E021F926F9328EE31E03F932F93A1
:103040009F938F930E94B0290F900F900F900F9035
:103050000F900F9080915D0290915E0208951F93F2
:10306000CF93DF93EB014AE050E060E070E00E9414
:10307000E726162F643088F4CE010E941B2823E235
:10308000129FF0011124ED59FD4F618B728B838BE0
:10309000948BDF91CF911F91089580915D02909163
:1030A0005E021F921F9328EE31E03F932F939F9370
:1030B0008F930E94B02980915D0290915E020F90E3
:1030C0000F900F900F900F900F90DF91CF911F9165
:1030D0000C946A044AE050E060E070E00E94E72649
:1030E000643038F583E2689FF0011124ED59FD4FFB
:1030F00085899689A789B08D20915D0230915E0205
:10310000BF93AF939F938F9385E791E09F938F93A6
:103110003F932F930E94B0298DB79EB708960FB6A4
:10312000F8949EBF0FBE8DBF80915D0290915E02AC
:10313000089580915D0290915E021F926F9328EE38
:1031400031E03F932F939F938F930E94B0290F906C
:103150000F900F900F900F900F9080915D029091C3
:103160005E0208951F93CF93DF93EB014AE050E096
:1031700060E070E00E94E726162F643088F4CE01EC
:103180000E941B2823E2129FF0011124ED59FD4FEC
:10319000658B768B878B908FDF91CF911F910895F0
:1031A00080915D0290915E021F921F9328EE31E0A4
:1031B0003F932F939F938F930E94B02980915D023C
:1031C00090915E020F900F900F900F900F900F90C4
:1031D000DF91CF911F910C946A044AE050E060E0C7
:1031E00070E00E94E726643008F583E2689FF001F2
:1031F0001124ED59FD4F268D378D80915D02909100
:103200005E023F932F932CEF31E03F932F939F93D8
:103210008F930E94B0290F900F900F900F900F90F6
:103220000F9080915D0290915E02089580915D0201
:1032300090915E021F926F9328EE31E0E6CF0F93DC
:103240001F93CF93DF931F92CDB7DEB78B014AE078
:1032500050E060E070E00E94E726643098F4C80116
:1032600069830E941F28698123E2629FF001112473
:10327000ED59FD4F978F868F0F90DF91CF911F9162
:103280000F910895A0915D02B0915E0283E1E2E0AA
:10329000F2E001900D928A95E1F780915D029091A4
:1032A0005E020F90DF91CF911F910F910C946A04F1
:1032B0002F923F924F925F926F927F928F929F9246
:1032C000AF92BF92CF92DF92EF92FF920F931F9334
:1032D000CF93DF9300D000D0CDB7DEB71B018A01BA
:1032E0004AE050E060E070E00E94E726B62E23E05E
:1032F000261708F4B1C0C8010E941B286B017C018D
:1033000062EB71E0C1010E943429892B09F47CC071
:103310000B2D10E093E2B99E900111242D593D4FE1
:10332000D9011D968D909D90AD90BC90509751966F
:103330004D905D906D907C90549755968D919D9198
:103340000D90BC91A02D89839A83AB83BC83C70168
:10335000B6019F7720E030E04AE754E40E9414254C
:103360006B017C01A3019201C501B4010E941425E7
:1033700029813A814B815C810E9414259B01AC011B
:10338000C701B6010E94C5230E9477250E943224FE
:103390006B017C01CB01009709F497C06031B7E263
:1033A0007B0708F080C06FEB71E0C1010E943429F7
:1033B000892B89F483E2809FF001819FF00D112415
:1033C000ED59FD4F81E08487D78EC68E828193812F
:1033D0000196938382836EEB71E0C1010E943429D0
:1033E000892B19F583E2809FF001819FF00D112454
:1033F000ED59FD4F82E08487D78EC68E82819381FE
:1034000001979383828311C0F89483E2B89EF00100
:103410001124ED59FD4F148683E090E0978F868F3D
:10342000808191819383828378940F900F900F9085
:103430000F90DF91CF911F910F91FF90EF90DF9050
:10344000CF90BF90AF909F908F907F906F905F9044
:103450004F903F902F900895A0915D02B0915E0231
:1034600083E1E2E0F2E001900D928A95E1F780912C
:103470005D0290915E020F900F900F900F90DF9180
:10348000CF911F910F91FF90EF90DF90CF90BF9061
:10349000AF909F908F907F906F905F904F903F90F4
:1034A0002F900C946A04A0915D02B0915E0283E1BA
:1034B000E9E2F2E001900D928A95E1F780915D02D8
:1034C00090915E020E946A046ECF80915D0290919D
:1034D0005E021F921F9225E132E03F932F939F934C
:1034E0008F930E94B02980915D0290915E020F90AF
:1034F0000F900F900F900F900F90BDCFF8940E94F7
:103500002F030E942806789408951F920F920FB6F9
:103510000F9211248F939F93EF93FF938091C60096
:103520009091550291111CC08D3009F18A3021F023
:1035300090915602903420F1E0915302F0915402A0
:1035400080915602E80FF11D108281E080935502B0
:103550008091C00085FFFCCF86E08093C60007C045
:103560008091C00085FFFCCF85E18093C600FF916C
:10357000EF919F918F910F900FBE0F901F90189514
:10358000E0915302F091540290915602E90FF11D1F
:103590008083809156028F5F80935602E8CF1F92FE
:1035A0000F920FB60F9211248F939F93EF93FF9377
:1035B00093B180914402811139C0809143028823E4
:1035C00009F43DC080914202891709F442C010926B
:1035D000420210924302E0913E02F0913F02EE0F50
:1035E000FF1FEE0FFF1FEF70FF27F0933F02E093E6
:1035F0003E02199B05C0E260F0933F02E0933E0259
:103600001A9B05C0E160F0933F02E0933E02EE0F8B
:10361000FF1FE454FC4FE491EE2341F080915B02E4
:103620008E0F80935B0281E080935C02FF91EF91AB
:103630009F918F910F900FBE0F901F9018958091C2
:103640004202891741F29093420281E08093430243
:10365000C2CF81E080934402BCCF1F920F920FB67D
:103660000F9211242F923F924F925F926F927F920E
:103670008F929F92AF92BF92CF92DF92EF92FF9282
:103680000F931F932F933F934F935F936F937F936A
:103690008F939F93AF93BF93EF93FF93CF93DF935A
:1036A000CDB7DEB76A97DEBFCDBF9E012F5F3F4F1C
:1036B0004901CE0141961C01A12CB12CC12CD12C69
:1036C000198E1A8E93E29C9D80019D9D100D1124F0
:1036D0000D591D4FF801E280F38080819181E81A35
:1036E000F90AF101E192F1921F01F80165857685F1
:1036F00087859089218932894389548945885688EC
:103700006788708C0E941425A30192010E941425E1
:10371000F40161937193819391934F01E114F1044A
:1037200009F441C0F80180A191A1892B09F4F1C0ED
:1037300080A191A1019791A380A366817781808563
:10374000918520E030E040E85FE30E9410251816E4
:10375000ACF4F80182819381019693838283668120
:1037600077818085918520E030E040E85FE30E942A
:103770005C23F8016683778380879187F3E2FC9D61
:103780008001FD9D100D11240D591D4FF80166811A
:1037900077818085918520E030E040E85FEB0E94F2
:1037A000C12387FD19C19FEFC91AD90AE2E0AE0E05
:1037B000B11CF4E0CF16D10409F084CF88B12A8D72
:1037C000822B88B931E23A95F1F7000088B1998DE2
:1037D000892B88B9EDE0EA95F1F7000018B89E0151
:1037E0002F5E3F4F6901CE0101965C0100E010E0C1
:1037F00023E2922E909E7001919EF00C1124F7010D
:10380000ED59FD4F7F018285882309F44DC0F601F3
:1038100080819181181619060CF097C0F70160811C
:103820007181F5014080518062807380882777FD27
:103830008095982F0E94602420E030E040E85FE30C
:103840000E945D23A30192010E941025181684F4A2
:10385000F7011182108222803380C301B2010E94DD
:1038600077250E942D24261A370AF70133822282F7
:10387000909EF001919EF00D1124ED59FD4F808135
:1038800091810196918380838485882329F08281A8
:103890009381019693838283909EF001919EF00D17
:1038A0001124ED59FD4F12860F5F1F4FF4E0AF0E4C
:1038B000B11C22E0C20ED11C0430110509F09ACFD0
:1038C0006A960FB6F894DEBF0FBECDBFDF91CF91E1
:1038D000FF91EF91BF91AF919F918F917F916F91E8
:1038E0005F914F913F912F911F910F91FF90EF901A
:1038F000DF90CF90BF90AF909F908F907F906F9010
:103900005F904F903F902F900F900FBE0F901F90A1
:10391000189521E0F8012287F7FC46C081E090E08D
:103920000A2C01C0880F0A94EAF7398D382B398F99
:1039300083E28C9DF0018D9DF00D1124ED59FD4F1A
:10394000868D978D91A380A32ECF892B09F4A4CFC8
:10395000F70160817181882777FD8095982F0E94FB
:10396000602420E030E040E85FE30E945C2320E038
:1039700030E0A9010E94C12387FD44C0909EF00160
:10398000919EF00D1124ED59FD4F80819181019799
:10399000918380838485882309F47ECF82819381FB
:1039A00001979383828378CFC5010196E1E0F0E02F
:1039B00002C0EE0FFF1F8A95E2F7CF01FA8DF82BB8
:1039C000FA8F81E090E00A2C01C0880F0A94EAF790
:1039D000298D282B298FACCFF80182819381019703
:1039E00093838283668177818085918520E030E0B2
:1039F00040E85FE30E945D23F80166837783808758
:103A00009187D1CEF50160817181828193810E947D
:103A100077250E942D24F7017183608322813381F1
:103A2000260F371F33832283A9CFA3E1B0E0EBE158
:103A3000FDE10C941F237C011B016A01FC0117822C
:103A40001682838181FF66C3BE016F5F7F4F4B018A
:103A5000F7019381F10193FD859193FF81911F01FE
:103A6000882309F453C3853239F493FD859193FF7C
:103A700081911F01853239F4B70190E00E947E29BF
:103A800056016501E5CF10E0512C20E02032A0F472
:103A90008B3269F030F4803259F0833269F420615E
:103AA0002CC08D3239F0803339F4216026C0226079
:103AB000246023C0286021C027FD27C030ED380FC7
:103AC0003A3078F426FF06C0FAE01F9F300D11242B
:103AD000132F13C06AE0569E300D1124532E20621E
:103AE0000CC08E3221F426FD11C3206406C08C3632
:103AF00011F4206802C0883641F4F10193FD8591EC
:103B000093FF81911F018111C1CF9BEB980F9330DF
:103B100018F42061805E06C09BE9980F933008F08E
:103B2000AAC12F7E26FF16E02F73722E853621F450
:103B3000F22FF0647F2E08C0863621F4622F606871
:103B4000762E02C01111115077FE07C01C3348F4C5
:103B500044244394410E27E00BC0183030F4212F49
:103B600006C027E04CE3442E03C027E017E0412CB9
:103B7000560174E0A70EB11CF6016081718182814B
:103B80009381042DA4010E943D286C01098100FF4E
:103B900002C003FF06C071FC07C072FC08C0612CA4
:103BA00008C03DE2632E05C02BE2622E02C090E207
:103BB000692E802F8C7099F1662011F084E001C08D
:103BC00083E0851510F0512C0BC0581A73FC08C007
:103BD000B70180E290E00E947E295A94C9F7F3CFA2
:103BE000662029F0B701862D90E00E947E2903FD12
:103BF00003C000ED10E002C00CEC10E0F72DF071F6
:103C00007F2EF8018491882309F476C271108052C6
:103C1000B70190E00E947E290F5F1F4FF2CF77FE21
:103C20000FC04C0C04FF04C08A81813309F44A940C
:103C3000141474F5F8E0F41578F588E0482E2CC0DB
:103C400076FC2AC0812F90E08C159D059CF06CEFCE
:103C5000C6166FEFD60674F0772D7068772E0AC0FF
:103C6000E2E0F0E0EC0FFD1FE10FF11D80818033F9
:103C700019F411501111F4CF77FE0EC0442443946F
:103C8000410E812F90E0C816D9062CF41C1904C0EF
:103C90004424439401C010E077FE07C01C141D04A7
:103CA0003CF496012F5F3F4F05C025E030E002C095
:103CB00021E030E0662011F02F5F3F4F112331F0FB
:103CC000412F50E04F5F5F4F240F351F452D50E0CF
:103CD0002417350714F4521A01C0512C872D89700E
:103CE00049F4552039F0B70180E290E00E947E2926
:103CF0005A94F7CF662029F0B701862D90E00E94F4
:103D00007E2973FC09C0552039F0B70180E390E0AB
:103D10000E947E295A94F7CF77FE5FC09C2D8D2D8F
:103D2000D7FE02C090E080E0692E782E40E050E09F
:103D3000C601841991099D878C8796012619370938
:103D4000280D391D812F90E0EE27FF27E81BF90B86
:103D5000FF87EE87FFEF6F167F0669F4B7018EE2EB
:103D600090E02B8B3A8B488B598B0E947E29598986
:103D700048893A892B89C614D70454F06C857D850F
:103D8000661577052CF4F901E40FF51F818101C058
:103D900080E371E0671A71084F5F5F4FEE85FF8522
:103DA0006E167F066CF0B70190E02B8B3A8B488B38
:103DB000598B0E947E292B893A8948895989CACF13
:103DC0006C147D0439F49A81963318F4953311F408
:103DD00004FF81E3B70190E04BC08A81813309F091
:103DE0000F7EB70190E00E947E29111105C074FE7C
:103DF00018C085E490E017C0B7018EE290E00E9401
:103E00007E2982E066246394680EF401E80FF11DB8
:103E10008081B70190E00E947E29115041F3862DE8
:103E2000F1CF85E690E0B7010E947E29D7FC05C05E
:103E3000C114D10439F404FF05C0D194C194D10850
:103E40008DE201C08BE2B70190E00E947E2980E301
:103E50006AE0C616D1042CF08F5FFAE0CF1AD108C1
:103E6000F7CFB70190E00E947E29B701C601C09646
:103E70000E947E2941C1833631F0833779F0833542
:103E800009F058C021C0560172E0A70EB11CF6011E
:103E90008081898301E010E0640114C05601F2E0E2
:103EA000AF0EB11CF601C080D18026FF03C0612F88
:103EB00070E002C06FEF7FEFC6012B8B0E94442998
:103EC0008C012B892F7715C05601F2E0AF0EB11C83
:103ED000F601C080D18026FF03C0612F70E002C0D0
:103EE0006FEF7FEFC6012B8B0E9424298C012B8959
:103EF0002068722E23FD1AC0852D90E0081719073F
:103F0000A8F4B70180E290E00E947E295A94F4CF91
:103F1000F60177FC859177FE81916F01B70190E002
:103F20000E947E2951105A94015011090115110562
:103F300079F7E2C0843611F0893651F5560127FF32
:103F400009C0F4E0AF0EB11CF6016081718182817D
:103F500093810AC0F2E0AF0EB11CF601608171815D
:103F6000882777FD8095982F022F0F7697FF08C03E
:103F700090958095709561957F4F8F4F9F4F00680A
:103F80002AE030E0A4010E94D229C82EC8183EC001
:103F9000022F853721F40F7E2AE030E01DC0097F13
:103FA0008F3691F018F4883559F0B0C0803719F089
:103FB000883711F0ABC0006104FF09C0046007C07E
:103FC00024FF08C0066006C028E030E005C020E1FC
:103FD00030E002C020E132E0560107FF09C0F4E002
:103FE000AF0EB11CF601608171818281938108C09E
:103FF000F2E0AF0EB11CF6016081718180E090E0CB
:10400000A4010E94D229C82EC8180F7706FF0BC042
:10401000202F2E7FC11650F404FF0AC002FD08C0F5
:10402000202F2E7E05C0DC2C202F03C0DC2C01C0ED
:10403000D12E24FF0DC0FE01EC0DF11D80818033D7
:1040400011F4297E09C022FF06C0D394D39404C082
:10405000822F867809F0D39423FD13C020FF06C079
:104060001C2DD51418F4150D1D19D52CD51468F474
:10407000B70180E290E02B8B0E947E29D3942B899C
:10408000F5CFD51410F45D1801C0512C24FF12C0D7
:10409000B70180E390E02B8B0E947E292B8922FFC1
:1040A00017C021FF03C088E590E002C088E790E0D8
:1040B000B7010CC0822F867859F021FD02C080E242
:1040C00001C08BE227FD8DE2B70190E00E947E29BE
:1040D000C11638F4B70180E390E00E947E291150A8
:1040E000F7CFCA94F401EC0DF11D8081B70190E087
:1040F0000E947E29C110F5CF552009F4C2CCB7012A
:1041000080E290E00E947E295A94F6CFF7018681E2
:10411000978102C08FEF9FEF6396E2E10C943B23FF
:104120008CE090E00E94C02580933C0290933D0279
:10413000EC01E12CF12C84E190E00E94C025CE0D31
:10414000DF1D9983888382E0E80EF11C9CE0E9166C
:10415000F10429F0C0913C02D0913D02ECCF88E0FF
:1041600090E00E94C02590934C0280934B0288E01F
:1041700090E00E94C02590934E0280934D02C0E0D3
:10418000D0E0E0904B02F0904C0289E090E00E9479
:10419000C025F701EC0FFD1F91838083E0904D0255
:1041A000F0904E0289E090E00E94C025F701EC0FEC
:1041B000FD1F918380832296C830D10511F784E0DA
:1041C00090E00E94C0259093500280934F0284E0BB
:1041D00090E00E94C0259093520280935102C091BA
:1041E0004F02D091500281E190E00E94C025998356
:1041F0008883C0915102D091520281E190E00E94E7
:10420000C02599838883C0914F02D091500281E1EB
:1042100090E00E94C0259B838A83C0915102D09177
:10422000520281E190E00E94C0259B838A8380E452
:1042300090E00E94C025909354028093530280E442
:1042400090E00E94C02590935E0280935D0280E41E
:1042500090E00E94C0259093F0028093EF0288E2E4
:1042600090E00E94C0259093620280936102E091E9
:104270005302F091540280E4DF01982F1D929A9529
:10428000E9F7E0915D02F0915E02DF01982F1D9247
:104290009A95E9F7E091EF02F091F002DF011D92AB
:1042A0008A95E9F7E0916102F091620288E2DF010C
:1042B0001D928A95E9F730E4F32E03E843E7D42E04
:1042C00055E1E52EC3E20E942F030E941A07F092E7
:1042D0007C0000937A0080917A00806480937A0059
:1042E00080917A0086FDFCCF209178003091790092
:1042F0008091B00082608093B000D092B300809132
:1043000070008260809370001092B2008091B100C2
:1043100085608093B1000E9403130E94F303109202
:10432000C500E092C4008091C10088698093C100FB
:10433000D0E061E08D2F0E948A04DF5FD430C9F79E
:104340000E948F060E94B90E78940E9417100E9456
:10435000B90E8091550281112BC0412F50E0FA0116
:10436000E158F109E931F105D0F4E35BFF4F0C941A
:104370005623F8940E942F030E9428067894F894FC
:104380000E94CF04A0CFE0913C02F0913D02468113
:10439000578164817581828193810E94581910E848
:1043A0000E9417100E94B90E809155028823A9F22D
:1043B0000E942B130E944D13182FCFCFE0913C0287
:1043C000F0913D0264817581828193810E941F1961
:1043D00010E8E6CFE0913C02F0913D0282819381AA
:1043E0000E94ED180E946A0410E8DACFE0913C02C6
:1043F000F0913D0264817581828193810E94B2189F
:1044000010E8CECFE0913C02F0913D028281938191
:104410000E946A180E946A0410E8C2CFE0913C0230
:10442000F0913D0264817581828193810E942F18F1
:1044300010E8B6CFE0913C02F0913D028281938179
:104440000E94E7170E946A0410E8AACFE0913C029C
:10445000F0913D0264817581828193810E94AC1745
:1044600010E89ECFE0913C02F0913D028281938161
:104470000E9464170E946A0410E892CFE0913C0207
:10448000F0913D0264817581828193810E9427179A
:1044900010E886CFE0913C02F0913D028281938149
:1044A0000E94F5160E946A0410E87ACFE0913C025F
:1044B000F0913D02828193810E94C8160E946A0495
:1044C00010E86ECFE0913C02F0913D028281938131
:1044D0000E9484160E946A0410E862CF0E948F0630
:1044E00010E85ECF0E94280610E85ACFE0913C0207
:1044F000F0913D0264817581828193810E948315D0
:104500000E946A0410E84CCFE0913C02F0913D0219
:1045100064817581828193810E945B1510E840CF90
:10452000E0913C02F0913D02828193810E941F281C
:104530000E944A0510E834CFE0913C02F0913D0220
:104540004681578164817581828193810E94E8143C
:1045500010E826CFE0913C02F0913D024681578160
:1045600064817581828193810E94C71310E818CFFE
:10457000E0913C02F0913D02A281B381FD010190E6
:104580000020E9F73197EA1BFB0B759708F007CF7E
:1045900045E150E064E570E0CD010E94402A10E85A
:1045A000FFCE80915D0290915E0245E150E064E5AE
:1045B00070E00E94302A80915D0290915E020E941C
:1045C0006A0410E8EDCE80E090E0C89FF001C99F3A
:1045D000F00D1124ED59FD4F208131813383228369
:1045E000148601968430910581F710E8D9CEAA1B74
:1045F000BB1B51E107C0AA1FBB1FA617B70710F0CE
:10460000A61BB70B881F991F5A95A9F780959095FF
:10461000BC01CD01089597FB072E16F4009407D036
:1046200077FD09D00E94F72207FC05D03EF4909553
:1046300081959F4F0895709561957F4F08952F92B2
:104640003F924F925F926F927F928F929F92AF9222
:10465000BF92CF92DF92EF92FF920F931F93CF936F
:10466000DF93CDB7DEB7CA1BDB0B0FB6F894DEBF06
:104670000FBECDBF09942A88398848885F846E842C
:104680007D848C849B84AA84B984C884DF80EE8076
:10469000FD800C811B81AA81B981CE0FD11D0FB67F
:1046A000F894DEBF0FBECDBFED010895EE0FFF1FE2
:1046B0000590F491E02D09945058BB27AA270ED0FD
:1046C00075C166D130F06BD120F031F49F3F11F409
:1046D0001EF45BC10EF4E095E7FB51C1E92F77D1E1
:1046E00080F3BA17620773078407950718F071F40F
:1046F0009EF58FC10EF4E0950B2EBA2FA02D0B0165
:10470000B90190010C01CA01A0011124FF27591B16
:1047100099F0593F50F4503E68F11A16F040A22F1C
:10472000232F342F4427585FF3CF4695379527958D
:10473000A795F0405395C9F77EF41F16BA0B620B8C
:10474000730B840BBAF09150A1F0FF0FBB1F661FD3
:10475000771F881FC2F70EC0BA0F621F731F841F16
:1047600048F4879577956795B795F7959E3F08F03C
:10477000B3CF9395880F08F09927EE0F97958795FB
:104780000895D9D008F481E008950CD00FC107D165
:1047900040F0FED030F021F45F3F19F0F0C051112D
:1047A00039C1F3C014D198F39923C9F35523B1F358
:1047B000951B550BBB27AA2762177307840738F090
:1047C0009F5F5F4F220F331F441FAA1FA9F333D0EF
:1047D0000E2E3AF0E0E830D091505040E695001CA3
:1047E000CAF729D0FE2F27D0660F771F881FBB1F5F
:1047F000261737074807AB07B0E809F0BB0B802D39
:10480000BF01FF2793585F4F2AF09E3F510568F084
:10481000B6C000C15F3FECF3983EDCF38695779518
:104820006795B795F7959F5FC9F7880F911D969586
:10483000879597F90895E1E0660F771F881FBB1FE2
:10484000621773078407BA0720F0621B730B840B8F
:10485000BA0BEE1F88F7E095089504D06894B11163
:10486000D9C00895BCD088F09F5790F0B92F9927F0
:10487000B751A0F0D1F0660F771F881F991F1AF06B
:10488000BA95C9F712C0B13081F0C3D0B1E0089534
:10489000C0C0672F782F8827B85F39F0B93FCCF3B5
:1048A000869577956795B395D9F73EF49095809561
:1048B000709561957F4F8F4F9F4F0895E89409C081
:1048C00097FB3EF490958095709561957F4F8F4F43
:1048D0009F4F9923A9F0F92F96E9BB279395F69559
:1048E000879577956795B795F111F8CFFAF4BB0FD7
:1048F00011F460FF1BC06F5F7F4F8F4F9F4F16C03B
:10490000882311F096E911C0772321F09EE8872FC4
:10491000762F05C0662371F096E8862F70E060E080
:104920002AF09A95660F771F881FDAF7880F9695F9
:10493000879597F90895990F0008550FAA0BE0E89D
:10494000FEEF16161706E807F907C0F01216130651
:10495000E407F50798F0621B730B840B950B39F491
:104960000A2661F0232B242B252B21F408950A26F7
:1049700009F4A140A6958FEF811D811D089597F937
:104980009F6780E870E060E008959FEF80EC0895F5
:1049900000240A941616170618060906089500241E
:1049A0000A9412161306140605060895092E039498
:1049B000000C11F4882352F0BB0F40F4BF2B11F40C
:1049C00060FF04C06F5F7F4F8F4F9F4F089557FD6B
:1049D0009058440F551F59F05F3F71F04795880F6D
:1049E00097FB991F61F09F3F79F087950895121604
:1049F00013061406551FF2CF4695F1DF08C01616B0
:104A000017061806991FF1CF869571056105089460
:104A10000895E894BB2766277727CB0197F9089577
:104A20008ADF08F48FEF08950BD0C0CFB1DF28F0F4
:104A3000B6DF18F0952309F0A2CFA7CF1124EACF53
:104A4000C6DFA0F3959FD1F3950F50E0551F629FED
:104A5000F001729FBB27F00DB11D639FAA27F00DD7
:104A6000B11DAA1F649F6627B00DA11D661F829FFE
:104A70002227B00DA11D621F739FB00DA11D621FE3
:104A8000839FA00D611D221F749F3327A00D611D00
:104A9000231F849F600D211D822F762F6A2F1124E2
:104AA0009F5750408AF0E1F088234AF0EE0FFF1F35
:104AB000BB1F661F771F881F91505040A9F79E3F6C
:104AC000510570F05CCFA6CF5F3FECF3983EDCF36E
:104AD000869577956795B795F795E7959F5FC1F7A9
:104AE000FE2B880F911D9695879597F9089577DF8E
:104AF000E0F09E37D8F09639B8F49E3848F4672F26
:104B0000782F8827985FF9CF869577956795939545
:104B10009539D0F3B62FB1706B0F711D811D20F444
:104B2000879577956795939502C01CC073CF8823AE
:104B300071F4772321F09850872B762F07C06623D6
:104B400011F499270DC09051862B70E060E02AF097
:104B50009A95660F771F881FDAF7880F96958795C5
:104B600097F908959F3F31F0915020F487957795FC
:104B70006795B795880F911D9695879597F9089534
:104B8000CF93DF938230910510F482E090E0E091C2
:104B9000F702F091F80220E030E0A0E0B0E03097BA
:104BA00039F14081518148175907B8F04817590722
:104BB00071F482819381109729F013969C938E93C0
:104BC00012972CC09093F8028093F70227C021150A
:104BD000310531F04217530718F0A901DB0101C07C
:104BE000EF019A01BD01DF010280F381E02DD7CFF3
:104BF00021153105F9F0281B390B2430310580F4DB
:104C00008A819B816115710521F0FB019383828369
:104C100004C09093F8028093F702FE01329644C0DC
:104C2000FE01E20FF31F81939193225031093983E2
:104C300028833AC02091F5023091F602232B41F4EB
:104C400020910201309103013093F6022093F50286
:104C500020910001309101012115310541F42DB75A
:104C60003EB74091040150910501241B350BE091A2
:104C7000F502F091F602E217F307A0F42E1B3F0BAA
:104C80002817390778F0AC014E5F5F4F24173507BE
:104C900048F04E0F5F1F5093F6024093F502819348
:104CA000919302C0E0E0F0E0CF01DF91CF91089551
:104CB000CF93DF93009709F487C0FC0132971382EA
:104CC0001282C091F702D091F802209781F42081DE
:104CD0003181280F391F8091F5029091F6028217D9
:104CE000930779F5F093F602E093F5026DC0DE01CB
:104CF00020E030E0AE17BF0750F412964D915C9162
:104D000013979D014115510509F1DA01F3CFB383E2
:104D1000A28340815181840F951F8A179B0771F4EC
:104D20008D919C911197840F951F0296918380839A
:104D300012968D919C91139793838283211531054F
:104D400029F4F093F802E093F7023EC0D9011396DC
:104D5000FC93EE9312974D915D91A40FB51FEA1746
:104D6000FB0779F480819181840F951F0296D90108
:104D700011969C938E938281938113969C938E932C
:104D80001297E0E0F0E08A819B81009719F0FE0124
:104D9000EC01F9CFCE01029628813981820F931F51
:104DA0002091F5023091F6022817390769F43097FF
:104DB00029F41092F8021092F70202C013821282B4
:104DC000D093F602C093F502DF91CF9108952F9210
:104DD0003F925F926F927F928F929F92AF92BF921B
:104DE000CF92DF92EF92FF920F931F93CF93DF93B7
:104DF0008B01EA016115710521F0DB018C9311969D
:104E00009C93209739F09E012250310923323105BD
:104E100008F0FBC07C016701BFEFCB1ADB0A56012B
:104E2000F7016080862D90E00E941529892B11F0F2
:104E30007601F1CFFDE26F120AC0570182E0A80EA1
:104E4000B11CD70111966C90772473940BC0BBE210
:104E50006B1207C05701E2E0AE0EB11CD7011196EC
:104E60006C90712CCE018F7E892B89F4B0E36B128C
:104E700022C0F50180818F7D883541F56180F2E0A7
:104E8000AF0EB11C872D8260782EC0E1D0E0C83013
:104E9000D105F1F04CF4C230D10511F5C12CD12C63
:104EA000E12CB0E4FB2E2FC0CA30D10531F0C03167
:104EB000D10521F115C0209751F7CAE0D0E0ACEC44
:104EC000CA2EDC2CEC2CACE0FA2E1DC02097F9F693
:104ED000C8E0D0E0C12CD12CE12CF0E1FF2E13C0B2
:104EE00060E070E080E090E89E01442737FD409547
:104EF000542F0E94FF2B69017A0105C0C12CD12CCF
:104F0000E12CE8E0FE2EF50160E020E030E0A901B0
:104F10004E01AA2497FCA094BA2C1F0170ED572EC5
:104F2000560CA9E0A51570F48FEB860D8A3118F4A4
:104F300099EC592E06C08FE9860D8A3130F589EA41
:104F4000582E560C852D90E08C179D07F4F467FDC4
:104F500018C0C216D306E406F50680F0C501B401F8
:104F60000E94EF2B9B01AC01250D311D411D511DF0
:104F7000213031054105B0E85B0710F06FEF01C04B
:104F800061E03196D1016C90C8CF872D81700115F9
:104F9000110571F0662329F03197D801ED93FC9348
:104FA00007C071FE19C03297D801ED93FC9314C06D
:104FB00067FF12C0882329F020E030E040E050E88D
:104FC00004C02FEF3FEF4FEF5FE782E290E0909356
:104FD000FA028093F90216C0882341F0509540955B
:104FE000309521953F4F4F4F5F4F0CC057FF0AC080
:104FF00082E290E09093FA028093F9022FEF3FEF64
:105000004FEF5FE7B901CA0104C060E070E080E0E3
:1050100090E0DF91CF911F910F91FF90EF90DF9083
:10502000CF90BF90AF909F908F907F906F905F9048
:105030003F902F900895662777270C94622AFC01F1
:1050400088279927E89421912032E9F3293010F03C
:105050002E30C8F32B3241F02D3239F4689404C05D
:105060000E947629820F911D219120532A30C0F38E
:105070001EF4909581959F4F0895283008F027E001
:105080003327DA01990F311D87FD91600096610584
:10509000710539F432602E5F3D9330E32A95E1F7D4
:1050A00008959F3F30F080387105610509F03C5F3D
:1050B0003C5F3D93913008F08068911DDF93CF9362
:1050C0001F930F93FF92EF92192F987F9695E92FD8
:1050D00096959695E90FFF27EA5CFB4F99273327B2
:1050E000EE24FF24A701E70105900894079428F413
:1050F000360FE71EF81E491F511D660F771F881FC8
:10510000991F0694A1F70590079428F4E70EF81E5E
:10511000491F561FC11D770F881F991F661F0694D0
:10512000A1F70590079428F4F80E491F561FC71FD2
:10513000D11D880F991F661F771F0694A1F7059050
:10514000079420F4490F561FC71FD81F990F661FD9
:10515000771F881F0694A9F784911095177041F066
:10516000D695C79557954795F794E7941A95C1F743
:10517000ECEDF3E06894159015913591659195915A
:1051800005907FE27395E118F10A430B560BC90BAA
:10519000D009C0F7E10CF11E431F561FC91FD01DD7
:1051A0007EF4703311F48A95E6CFE894015030F024
:1051B000080F0AF40027021708F4202F2395022F66
:1051C0007A3328F079E37D932A95E9F710C07D932F
:1051D0002A9589F6069497956795379517951794AC
:1051E000E118F10A430B560BC90BD00998F023952F
:1051F0007E9173957A3308F070E37C932013B8F7AF
:105200007E9170617D9330F0839571E37D9370E3BF
:105210002A95E1F71124EF90FF900F911F91CF9104
:10522000DF91992787FD909508959111B2C2803240
:1052300019F089508550D0F70895FB01DC010590E5
:105240000D920020E1F70895FC0105906150704037
:105250000110D8F7809590958E0F9F1F089540E418
:1052600052E00E944F290895FB01DC018D910190CD
:1052700080190110D9F3990B0895FB01DC0101900D
:105280000D920020E1F70895FC01615070400190FB
:105290000110D8F7809590958E0F9F1F0895FA0101
:1052A000A191B081009719F41097E1F0CD01DC01D4
:1052B000CD010D90002011F4C00113C0FB0121911C
:1052C000222319F02015D9F7F3CFFB0121912015E6
:1052D00019F41E92119606C02223C1F70D900020EA
:1052E000A1F7D001FA01A193B08308957AE0979FC6
:1052F000902D879F802D910D112408950F931F935A
:10530000CF93DF93182F092FEB018B8181FD03C011
:105310008FEF9FEF20C082FF10C04E815F812C81F4
:105320003D81421753077CF4E881F9819F012F5F8B
:105330003F4F39832883108306C0E885F985812F84
:105340000995892B29F72E813F812F5F3F4F3F839E
:105350002E83812F902FDF91CF911F910F91089570
:10536000AEE0B0E0E6EBF9E20C942D230D891E8946
:1053700086E08C831A8309838FEF9FE79E838D835A
:10538000AE01475E5F4F6F89788DCE0101960E9416
:10539000151DEF81F885E00FF11F10822E96E4E0D5
:1053A0000C944923FA01AA27283051F1203181F1C8
:1053B000E8946F936E7F6E5F7F4F8F4F9F4FAF4F1D
:1053C000B1E03ED0B4E03CD0670F781F891F9A1F30
:1053D000A11D680F791F8A1F911DA11D6A0F711DE4
:1053E000811D911DA11D20D009F468943F912AE0F0
:1053F000269F11243019305D3193DEF6CF010895D8
:10540000462F4770405D4193B3E00FD0C9F7F6CF08
:10541000462F4F70405D4A3318F0495D31FD4052D0
:10542000419302D0A9F7EACFB4E0A6959795879566
:1054300077956795BA95C9F7009761057105089545
:105440009B01AC010A2E06945795479537952795F1
:10545000BA95C9F7620F731F841F951FA01D089589
:10546000DC01CB01FC01F999FECF06C0F2BDE1BD24
:10547000F89A319600B40D9241505040B8F7089513
:10548000DC01A40FB51F4150504048F0CB01840F00
:10549000951F2E910E94512A41505040D0F70895F7
:1054A000262FF999FECF92BD81BDF89A019700B4DD
:1054B000021639F01FBA20BD0FB6F894FA9AF99A7D
:1054C0000FBE0895A0E0B0E0E8E6FAE20C942123D4
:1054D0008B016115710521F0DB018C9311969C9372
:1054E000EC015E01BFEFAB1ABB0A7501C8808C2DC1
:1054F00090E00E941529892B11F0E501F2CFEDE231
:10550000CE1208C07E01F2E0EF0EF11CC980DD244E
:10551000D39409C02BE2C21205C07E0142E0E40E22
:10552000F11CC980D12CE701219743E050E06EEDDA
:1055300074E0CE010E94CC2B892BD1F4E701229696
:1055400045E050E069ED74E0CE010E94CC2B892B40
:1055500011F4E70127960115110519F0D801CD9333
:10556000DC93D11008C160E070E080E89FE70CC1D7
:1055700043E050E066ED74E0CE010E94CC2B892B15
:1055800059F40115110509F4FBC0B2E0EB0EF11C52
:10559000F801F182E082F4C0F70160E070E0CB0135
:1055A000C0E0D0E07F01A0EDAA2EAC0C29E02A15C6
:1055B00030F14D2D4260B42E2D2D2870D2FE04C046
:1055C000211125C0219623C021112197A5E0B0E02B
:1055D0009B01AC010E94E42B660F771F881F991F67
:1055E0006A0D711D811D911D6839A9E97A078A0725
:1055F000A9E19A0760F0BD2DB660BB2E08C02EEF62
:10560000A2120AC0D3FC50C04D2D4860B42E319672
:10561000D701CC90DB2CC6CF2C2D2F7D253409F063
:1056200043C0A081AD3241F4BD2DB061DB2E7F01BE
:1056300022E0E20EF11C0CC07F01AB3231F04FEFE3
:10564000E41AF40A21E030E006C0A2E0EA0EF11C00
:10565000A18122E030E0A053AA3018F0E21AF30A48
:1056600023C0F70120E030E02038BCE03B075CF4C9
:10567000A901440F551F440F551F240F351F220F3A
:10568000331F2A0F311DAF014F5F5F4F7A01A08199
:10569000A053AA3010F4FA01E7CFD4FE03C031952D
:1056A00021953109C20FD31FD1FE09C00115110583
:1056B00031F0E1E0EE1AF108D801ED92FC920E947F
:1056C0005E242D2D2370233019F06B017C0106C060
:1056D0006B017C01F7FAF094F7F8F09420E030E0E9
:1056E000A901C701B6010E94C123882309F440C063
:1056F000D7FF06C0D195C195D10905EF14E002C0CE
:105700000DE015E04801B8E18B1A910890E2A92E4E
:10571000B12CF8014590559065907490CA15DB0541
:105720005CF0A3019201C701B6010E9414256B0130
:105730007C01CA19DB09F2CF04501109B594A79472
:105740000815190531F78E2D880F8F2D881F8F3F73
:1057500049F020E030E0A901C701B6010E94C12351
:10576000811106C082E290E09093FA028093F902E0
:10577000C701B60109C060E070E080E89FEF04C097
:1057800060E070E080EC9FE7CDB7DEB7E0E10C941D
:105790003D23992788270895FB01DC0141505040A3
:1057A00088F08D9181341CF08B350CF4805E65910E
:1057B00061341CF06B350CF4605E861B611171F373
:1057C000990B0895881BFCCF0E94212CA59F900D5A
:1057D000B49F900DA49F800D911D11240895DB01AD
:1057E0008F939F930E94E42BBF91AF91A29F800D56
:1057F000911DA39F900DB29F900D11240895A1E2D9
:105800001A2EAA1BBB1BFD010DC0AA1FBB1FEE1F3A
:10581000FF1FA217B307E407F50720F0A21BB30B85
:10582000E40BF50B661F771F881F991F1A9469F701
:1058300060957095809590959B01AC01BD01CF015D
:105840000895A29FB001B39FC001A39F700D811D59
:105850001124911DB29F700D811D1124911D089579
:04586000F894FFCFEA
:105864000000FB02200000000A00332E50492020D3
:10587400556E00692053747574742E0056657273E6
:10588400696F6E0076312E320025632564737400CF
:105894002563252E31662563002563252E33662571
:1058A4006300737465700025632573006465677213
:1058B40065650072616469616E0025632564206D0D
:1058C40073002563252E3166780025634D6F74209F
:1058D4002564002563252E306600536176652061BA
:1058E4006C6C002063757272656E7400636F6E6613
:1058F40069677572006174696F6E732020004C6F64
:10590400616420616C6C0020736176656420200002
:10591400256353544F500025634357002563434385
:1059240057006E6F207465787400202C3B09007357
:105934007465707300646567007069004552524F66
:10594400523A20656C7365006572723A20756E6B0D
:105954006E6F776E206D6F746F723A202564002528
:1059640066006572723A20756E6B6E6F776E206D8D
:105974006F746F72006572723A2074696D65207479
:105984006F6F2073686F7274006572723A20746965
:0C5994006D6520746F6F206C6F6E6700F3
:00000001FF
