:100000000C945E030C943D2A0C947D030C947D03A8
:100010000C947D030C947D030C947D030C947D0360
:100020000C947D030C94870C0C947D030C947D033D
:100030000C947D030C947D030C947D030C947D0340
:100040000C948B0A0C947D030C947D030C947D031B
:100050000C943D0A0C947D030C947D030C947D0359
:100060000C947D030C947D030C947D030C947D0310
:100070000C947D030C947D030C947D030C947D0300
:100080000C947D030C947D030C947D03DA161717F2
:100090009A17F417B818F41A671ABF1A18165716D1
:1000A0005E18561BB01B10196A19D4192A1A9D160E
:1000B0001D3C0C3CF43BE73BDA3BCF3BC43BB73B3E
:1000C000B43BAF3BA43B993B8E3B833B783B6D3BC2
:1000D000623B573B4C3B413B363B2B3B1E3B183B6B
:1000E000D93ACC3AC13AAE3AA53AA23A953A8A3AC6
:1000F0007F3A743A693A213C00000000FFFF00009B
:1001000000000000000001000100000000000000ED
:100110000000FFFF000000000000180100802A52CC
:10012000535400001E0100812A49444E3F0000281C
:100130000100822A49444E0000330101834D4F568D
:100140004541425300003D0103844D4F5645524501
:100150004C00004A0103855A45524F52554E00004B
:1001600057010186454E41424C450000640102871B
:10017000474554504F530000700102885341564583
:10018000434F4E4600007C0100894C4F4144434F91
:100190004E4600008A01008A49534D4F56494E474A
:1001A00000009801018B474554414E414C4F470098
:1001B00000A601018C4745545A45524F504F5300F9
:1001C00000B501018D5345545A45524F504F5300CD
:1001D00000C501028E47455447454152524154499A
:1001E0004F0000D501018F534554474541525241BC
:1001F00054494F0000E701029047455446554C4C86
:10020000524F540000F901019153455446554C4C4E
:10021000524F54000009020292474554535542532D
:10022000544550530000190201935345545355420D
:10023000535445505300002A0202944745545741F5
:10024000495454494D4500003B02019553455457CC
:1002500041495454494D4500004C020296534554BF
:10026000434F4E5354535045454400005D0203979D
:10027000464143544F525952455345540000700271
:10028000009853544F50414C4C0000820200995347
:100290004554464F52425A4F4E4500008F02039A32
:1002A000454E4142464F52425A4F4E450000A00231
:1002B000029B53455450524F47535445500000B28F
:1002C00002069C4745544D4F545354415445000039
:1002D000C302019D444247524541444F55540000DA
:1002E000D402009E4C45440000E402039F4745545D
:1002F000435552520000ED0201A05345544355525C
:10030000520000FA0202A1474554444543415900B6
:1003100000070301A25345544445434159000015C9
:100320000302A34953434F4E0000230301A41A01C3
:1003300024012F0139014601530160016C0178014C
:1003400086019401A201B101C101D101E301F501CE
:100350000502150226023702480259026C027E028B
:100360008B029C02AE02BF02D002E002E902F6025A
:10037000030311031F032A034C4B2D496E73747240
:10038000756D656E74730A534D4334323432000018
:100390007803004368616E6765206D6F746F720A41
:1003A000706F736974696F6E000093030153657415
:1003B00020737465700A6D756C7469706C69657210
:1003C0000000AD03024368616E6765207374657059
:1003D0000A756E69740000C5030352756E20696E5C
:1003E0007465726E616C0A70726F6772616D000085
:1003F000DA030452756E20776974680A636F6E734E
:1004000074616E742073706565640000F3030544C5
:100410006566696E65207A65726F0A706F736974BC
:10042000696F6E00000F040652756E207A65726F58
:100430000A63616C6962726174696F6E00002804FE
:1004400007456E7465720A73657474696E6773200C
:100450006D656E75000041040820202020202020BA
:100460002020202020202020200A202020202020A2
:100470002020202020202020202000005904095383
:100480006574206D6F746F720A67656172207261A6
:1004900074696F00007F040A53657420737465707B
:1004A00073207065720A66756C6C20726F7461746B
:1004B000696F6E000098040B4368616E6765206D7C
:1004C0006F746F720A737562737465700000B8049C
:1004D0000C4368616E6765206D6F746F720A637597
:1004E0007272656E740000D1040D536574206375DB
:1004F0007272656E740A6465636179206D6F6465FC
:100500000000EA040E4368616E67652073746570CD
:100510000A776169742074696D65000005050F53E1
:100520006176652063757272656E740A636F6E66BC
:10053000696775726174696F6E00001F05104C6FFA
:100540006164206C6173740A636F6E6669677572AB
:100550006174696F6E00003E05119003AA03C20327
:10056000D703F0030C0425043E0456047C049504D0
:10057000B504CE04E70402051C053B0557056E6172
:100580006E00696E660000407A10F35A00A0724E49
:1005900018090010A5D4E80000E87648170000E428
:1005A0000B54020000CA9A3B000000E1F505000070
:1005B00080969800000040420F000000A0860100D5
:1005C0000000102700000000E803000000006400A5
:1005D000000000000A000000000001000000000010
:1005E0002C76D888DC674F0823DFC1DFAE59E1B134
:1005F000B796E5E3E453C63AE651997696E8E6C243
:100600008426EB898C9B62ED407C6FFCEFBC9C9F49
:1006100040F2BAA56FA5F490055A2AF75C936B6C6B
:10062000F9676DC11BFCE0E40D47FEF520E6B5005F
:10063000D0ED902E0300943577050080841E0800CD
:1006400000204E0A000000C80C333333330F986E7D
:1006500012831141EF8D2114893BE65516CFFEE63A
:10066000DB18D1844B381BF77C1D901DA4BBE42400
:10067000203284725E228100C9F124ECA1E53D277D
:10068000494E46494E4954594E414ECDCCCC3D0A77
:10069000D7233C17B7D13877CC2B329595E6241F5A
:1006A000B14F0A000020410000C84200401C462013
:1006B000BCBE4CCA1B0E5AAEC59D740011241FBE91
:1006C000CFEFD0E4DEBFCDBF13E0A0E0B1E0E6E5C0
:1006D000F8E900E00BBF02C007900D92A430B1070B
:1006E000D9F714E0A4E0B3E001C01D92AC3CB1071F
:1006F000E1F70E9431390C94294C0C9400002F92A0
:100700003F924F925F926F927F928F929F92AF92A1
:10071000BF92CF92DF92EF92FF920F931F9340E030
:1007200050E00F2EF0E06F2EF0E07F2EF0E08F2EE5
:10073000F0E09F2EF02D0F2EF0E02F2EF0E03F2E58
:10074000F0E44F2EF0E45F2EF02D0F2EF0E0AF2EF0
:10075000F0E0BF2EF0E8CF2EF0E4DF2EF02D0F2ECC
:10076000F0E0EF2EF0E0FF2EF0E80F2FFFE31F2F59
:10077000F02D63E070E0FA01EE0FFF1FEE0FFF1F98
:10078000EE0FFF1FCF01880F991F880F991FE80FE9
:10079000F91FE25EFB4F11821082FA01EE0FFF1F7C
:1007A000EE0FFF1FCF01880F991F880F991FE80FC9
:1007B000F91FEE0FFF1FE05EFB4F11821082CA018E
:1007C000FA01EE0FFF1FEE0FFF1FEE0FFF1F880F46
:1007D000991FE80FF91FEE0FFF1FEE0FFF1FEE5DD1
:1007E000FB4F11821082FA01EE0FFF1FEE0FFF1F69
:1007F000EE0FFF1FCF01880F991F880F991FE80F79
:10080000F91FE25EFB4F6682778280869186FA014D
:10081000EE0FFF1FEE0FFF1FEE0FFF1FCF01880F20
:10082000991F880F991FE80FF91FE25EFB4F128690
:10083000FA01EE0FFF1FEE0FFF1FEE0FFF1FCF019C
:10084000880F991F880F991FE80FF91FE25EFB4F71
:100850001386FA01EE0FFF1FEE0FFF1FEE0FFF1FB3
:10086000CF01880F991F880F991FE80FF91FE25ECB
:10087000FB4F1486FA01EE0FFF1FEE0FFF1FEE0F66
:10088000FF1FCF01880F991F880F991FE80FF91FCD
:10089000E25EFB4F258636864786508AFA01EE0FC8
:1008A000FF1FEE0FFF1FEE0FFF1FCF01880F991FD5
:1008B000880F991FE80FF91FE25EFB4F80E090E080
:1008C000A8ECB3E4818B928BA38BB48BFA01EE0F6F
:1008D000FF1FEE0FFF1FEE0FFF1FCF01880F991FA5
:1008E000880F991FE80FF91FE25EFB4FA58AB68AB1
:1008F000C78AD08EFA01EE0FFF1FEE0FFF1FEE0F1B
:10090000FF1FCF01880F991F880F991FE80FF91F4C
:10091000E25EFB4FE28EF38E048F158FFA01EE0F2D
:10092000FF1FEE0FFF1FEE0FFF1FCF01880F991F54
:10093000880F991FE80FF91FE25EFB4F91E0918F3E
:10094000FA01EE0FFF1FEE0FFF1FEE0FFF1FCF018B
:10095000880F991F880F991FE80FF91FE25EFB4F60
:10096000778F668FFA01EE0FFF1FEE0FFF1FEE0F5E
:10097000FF1FCF01880F991F880F991FE80FF91FDC
:10098000E25EFB4F268D378D220F331F2150304002
:10099000FA01EE0FFF1FEE0FFF1FEE0FFF1FCF013B
:1009A000880F991F880F991FE80FF91FE25EFB4F10
:1009B00031A320A3FA01EE0FFF1FEE0FFF1FEE0F72
:1009C000FF1FCF01880F991F880F991FE80FF91F8C
:1009D000E25EFB4F12A2FA01EE0FFF1FEE0FFF1FA8
:1009E000EE0FFF1FCF01880F991F880F991FE80F87
:1009F000F91FE25EFB4FE3A2F4A205A316A3FA01DE
:100A0000EE0FFF1FEE0FFF1FEE0FFF1FCF01880F2E
:100A1000991F880F991FE80FF91FE25EFB4F17A27D
:100A20004F5F5F4F4430510509F0A5CE10921F0370
:100A300010921E0310921804109217041092C3040F
:100A40001092C4041092FA031092F90388E0809384
:100A5000FB0310920D039AE290930E0382E08093C1
:100A60000F0310921003109211039093120380E170
:100A70008093130310920A0310920B0310920C033D
:100A80001092FC031092FD031092FE031092FF03DC
:100A90001092000410921D0410920504109202049A
:100AA00010920104109204041092030410920A049C
:100AB0001092070410920604109209041092080480
:100AC00010920F0410920C0410920B0410920E045A
:100AD00010920D041092140410921104109210043C
:100AE000109213041092120420E030E041E0C9019A
:100AF000F901EE0FFF1FEE0FFF1FEE0FFF1F880F14
:100B0000991FE80FF91FEF5DFC4F1082C901F90131
:100B1000EE0FFF1FEE0FFF1FEE0FFF1F880F991F35
:100B2000E80FF91FEF5DFC4F4187C901F901EE0F96
:100B3000FF1FEE0FFF1FEE0FFF1F880F991FE80F1B
:100B4000F91FEF5DFC4F12821182C901F901EE0F0E
:100B5000FF1FEE0FFF1FEE0FFF1F880F991FE80FFB
:100B6000F91FEF5DFC4F14821382C901F901EE0FEA
:100B7000FF1FEE0FFF1FEE0FFF1F880F991FE80FDB
:100B8000F91FEF5DFC4F16821582C901F901EE0FC6
:100B9000FF1FEE0FFF1FEE0FFF1F880F991FE80FBB
:100BA000F91FEF5DFC4F108617822F5F3F4F2031FA
:100BB000310509F09CCF81E0809321031F910F91B3
:100BC000FF90EF90DF90CF90BF90AF909F908F906D
:100BD0007F906F905F904F903F902F90089510926C
:100BE000C50085E18093C400E1ECF0E08081886974
:100BF00080830895982F8091C00085FFFCCF90934B
:100C0000C6000895E0EBF0E08081826080838DE48F
:100C10008093B300E0E7F0E08081826080831092EF
:100C2000B200E1EBF0E08081856080830895FF925F
:100C30000F931F936115710509F458C077FD5AC0D1
:100C400042B1E82FF0E09F01220F331F2F5F3F4F8B
:100C500081E090E002C0880F991F2A95E2F7809505
:100C6000842382B977FD59C0161617060CF03EC0D2
:100C7000EE0FFF1F81E090E00E2E02C0880F991F3B
:100C80000A94E2F7182F082F0095A0E0B0E0CF01FA
:100C9000880F991F880F991F5DE0F52EFC01EE0F5C
:100CA000FF1FEE0FFF1FE80FF91FE45CFB4F48E842
:100CB00053E182B1812B82B98F2D8A95F1F782B1F0
:100CC000802382B980819181892B61F020E030E01E
:100CD000CA010197F1F72F5F3F4F8081918128175B
:100CE0003907B0F31196A617B7071CF31F910F91A0
:100CF000FF90089542B1E82FF0E09F01220F331FCB
:100D00002F5F3F4F81E090E002C0880F991F2A9526
:100D1000E2F7482B42B977FFA7CF709561957F4FD7
:100D2000A3CFAEE1B4E0E82FF0E0EE0FFF1FEE0F2F
:100D3000FF1FEE0FFF1F9F01220F331F220F331FD4
:100D4000E20FF31FEA0FFB1F40815181460F571F2F
:100D5000E82FF0E0EE0FFF1FEE0FFF1F9F01220FA5
:100D6000331F220F331FE20FF31F3196EE0FFF1FC9
:100D7000EA0FFB1F51834083E82FF0E0EE0FFF1FC7
:100D8000EE0FFF1F9F01220F331F220F331FE20FB1
:100D9000F31F3196EE0FFF1FEA0FFB1F40815181B9
:100DA000282F30E0C901880F991F880F991F880FDD
:100DB000991F220F331F820F931F0196880F991FCF
:100DC000880F991FA80FB91F11965C934E93089531
:100DD00090917C008F71907E892B80937C00109283
:100DE000FA031092F9038091FB03882311F160E06C
:100DF00080917A00806480937A0080917A0086FDE9
:100E0000FCCF80917800209179004091F9035091B6
:100E1000FA03322F20E090E0822B932B840F951F52
:100E20009093FA038093F9036F5F8091FB03681737
:100E3000F8F28091F9039091FA036091FB0370E05E
:100E40000E94B445CB010895823011F1833078F0CF
:100E50008330A9F18430D9F0A0E0B0E0E3E0F0E025
:100E6000AD53BC4F4C93ED53FC4F40830895882302
:100E7000D1F0813089F76A5FA62FB0E0FD0133968B
:100E8000AD53BC4F4C93ED53FC4F40830895685EC7
:100E9000A62FB0E0FD013396AD53BC4F4C93ED53FC
:100EA000FC4F40830895645FA62FB0E0FD013396A8
:100EB000AD53BC4F4C93ED53FC4F40830895625E9D
:100EC000A62FB0E0FD013396AD53BC4F4C93ED53CC
:100ED000FC4F408308956FE270E032E4FB01ED5374
:100EE000FC4F8081482F50E027E00FC0469A47987A
:100EF000832F8A95F1F7479A832F8A95F1F788B166
:100F00008F7388B921502F3F61F0CA01022E02C0B1
:100F1000959587950A94E2F780FDE8CF88B188B966
:100F2000E6CF615070408FEF6F3F7807B9F60895B4
:100F30001F93182F662381F460E040E00E9424078D
:100F4000812F61E04FE00E942407812F62E040E0A2
:100F50000E9424071F91089560E04FE00E9424073B
:100F6000812F61E04FE00E942407812F62E048E07A
:100F70000E9424071F910895CF93DF93C0E0D0E033
:100F80008091130390E00C2E02C0959587950A94EA
:100F9000E2F780FF0DC08C2F61E00E949807219638
:100FA000C430D10569F70E946B07DF91CF91089596
:100FB0008C2F60E00E949807F2CF2F923F924F92C1
:100FC0005F926F927F928F929F92AF92BF92CF92D9
:100FD000DF92EF92FF920F931F93482FAEE1B4E0A0
:100FE000E82FF0E0EE0FFF1FEE0FFF1FEE0FFF1FC9
:100FF0009F01220F331F220F331FE20FF31FEA0F4F
:10100000FB1F2584368447845088E42FF0E0EE0FE0
:10101000FF1FEE0FFF1FEE0FFF1F9F01220F331F59
:10102000220F331FE20FF31FEA0FFB1F658876883C
:101030008788908C242F30E0220F331F220F331F1C
:10104000220F331FA901440F551F440F551F240FB2
:10105000351FA20FB31F5196ED90FD900D911C917D
:101060005497882777FD8095982F0E942A445B012A
:101070006C01C201B101A40193010E943145A80194
:1010800097010E9431459B01AC0160E070E084EB68
:1010900093E40E948F439B01AC01C601B5010E94FD
:1010A00031451F910F91FF90EF90DF90CF90BF904F
:1010B000AF909F908F907F906F905F904F903F90F8
:1010C0002F9008952F923F924F925F926F927F924E
:1010D0008F929F92AF92BF92CF92DF92EF92FF9248
:1010E0000F931F93482FAEE1B4E0E82FF0E0EE0F2E
:1010F000FF1FEE0FFF1FEE0FFF1F9F01220F331F79
:10110000220F331FE20FF31FEA0FFB1F25843684E3
:1011100047845088E42FF0E0EE0FFF1FEE0FFF1F13
:10112000EE0FFF1F9F01220F331F220F331FE20F0D
:10113000F31FEA0FFB1F658876888788908C242F21
:1011400030E0220F331F220F331F220F331FA9015C
:10115000440F551F440F551F240F351FA20FB31FF7
:101160005196ED90FD900D911C915497882777FD35
:101170008095982F0E942A445B016C01C201B10145
:10118000A40193010E943145A80197010E943145B5
:101190009B01AC0160E070E080E090E40E948F432E
:1011A0009B01AC01C601B5010E9431451F910F9111
:1011B000FF90EF90DF90CF90BF90AF909F908F9077
:1011C0007F906F905F904F903F902F900895482FA1
:1011D000F894613009F43DC0613008F088C0E82F10
:1011E000F0E0EE0FFF1FEE0FFF1FEE0FFF1FCF010E
:1011F000880F991F880F991FE80FF91FE25EFB4FB8
:101200001486E42FF0E0EE0FFF1FEE0FFF1FEE0F2E
:10121000FF1FCF01880F991F880F991FE80FF91F33
:10122000E25EFB4F20813181E42FF0E0EE0FFF1FE3
:10123000EE0FFF1FCF01880F991F880F991FE80F2E
:10124000F91FEE0FFF1FE05EFB4F31832083789480
:101250000895E82FF0E0EE0FFF1FEE0FFF1FEE0FD7
:10126000FF1FCF01880F991F880F991FE80FF91FE3
:10127000E25EFB4F6487E42FF0E0EE0FFF1FEE0FFE
:10128000FF1FEE0FFF1FCF01880F991F880F991FB7
:10129000E80FF91FE25EFB4F20813181E42FF0E07F
:1012A000EE0FFF1FEE0FFF1FCF01880F991F880F52
:1012B000991FE80FF91FEE0FFF1FE05EFB4F318310
:1012C0002083E42FF0E0EE0FFF1FEE0FFF1FCF0192
:1012D000880F991F880F991FE80FF91FEE0FFF1F46
:1012E000E05EFB4F208131812F5F3F4F9DCF623009
:1012F00009F0ADCFE82FF0E0EE0FFF1FEE0FFF1F5C
:10130000EE0FFF1FCF01880F991F880F991FE80F5D
:10131000F91FE25EFB4F6487E42FF0E0EE0FFF1F42
:10132000EE0FFF1FEE0FFF1FCF01880F991F880FD1
:10133000991FE80FF91FE25EFB4F20813181E42FF6
:10134000F0E0EE0FFF1FEE0FFF1FCF01880F991F78
:10135000880F991FE80FF91FEE0FFF1FE05EFB4F8C
:1013600031832083E42FF0E0EE0FFF1FEE0FFF1F0D
:10137000CF01880F991F880F991FE80FF91FEE0FF3
:10138000FF1FE05EFB4F20813181215030404CCF68
:10139000813061F0813030F0823051F0833021F0C3
:1013A00080E0089582E4089588E4089584E408952F
:1013B00086E40895813061F0813030F0823051F060
:1013C000833021F080E0089582E108958CE908954A
:1013D00084E108958AE90895282F22952F70829537
:1013E000807F282B30E0C90183739070880F991F8C
:1013F000880F991F2C7C307035952795359527954A
:10140000822B282F30E0C90185759070880F991FB5
:101410002A7A307035952795822B089580E00895BB
:1014200080910C038823A1F090910A038091FF031F
:10143000882361F497FD10C096FD0CC095FD0EC089
:1014400094FD0EC093FF04C083E0089588E00895E2
:101450008AE2089586E0089587E0089585E008957A
:1014600084E00895F8948091FE03882321F0809110
:10147000FD031092FD03789408951F920F920FB60A
:101480000F920BB60F9211248F939F93EF93FF93BC
:101490009091C60080911E038823E1F49D3009F1EC
:1014A0009A3021F080911F03803430F1E0911C03C9
:1014B000F0911D0380911F03E80FF11D108281E060
:1014C00080931E038091C00085FFFCCF86E080934F
:1014D000C60007C08091C00085FFFCCF85E18093E6
:1014E000C600FF91EF919F918F910F900BBE0F90CF
:1014F0000FBE0F901F901895E0911C03F0911D03F3
:1015000080911F03E80FF11D908380911F038F5F6F
:1015100080931F03E6CF1F920F920FB60F920BB668
:101520000F9211248F93EF93FF9386B1809583FFE1
:101530003AC080910004882309F440C0E09106037A
:10154000F0910703EE0FFF1FEE0FFF1FEF70F0701B
:10155000F0930703E0930603359B05C0E260F09328
:101560000703E0930603349B05C0E160F093070393
:10157000E0930603EE0FFF1FE850FF4FE491EE23C8
:1015800041F08091FD03E80FE093FD0381E080933B
:10159000FE03FF91EF918F910F900BBE0F900FBE46
:1015A0000F901F90189580910004813039F6809338
:1015B000FF031092000480930C03C0CF81E080935E
:1015C0000004BCCF7F928F929F92AF92BF92CF9236
:1015D000DF92EF92FF920F931F93CF93DF93F894D4
:1015E000CC24DD2488249924AA24BB247724739452
:1015F000C601880F991F8601000F111F000F111FD0
:10160000000F111F800F911F880F991F880F991FBE
:10161000B4016D5C7F4F8E5D9B4F42E050E00E94B5
:101620002D4A7801EE0CFF1CEE0CFF1CE00EF11EA3
:10163000B501655C7F4FC701855D9B4F44E050E07D
:101640000E942D4AB501655B7F4FC701815D9B4FAD
:1016500044E050E00E942D4AB501655A7F4FC70112
:101660008D5C9B4F44E050E00E942D4AB5016559C6
:101670007F4FC701885C9B4F44E050E00E942D4A99
:10168000B50165587F4FC7018F5B9B4F44E050E029
:101690000E942D4AB60165577F4FC7018B5B9B4F58
:1016A00041E050E00E942D4AB60161577F4FC701CB
:1016B000895C9B4F41E050E00E942D4AB4016D5679
:1016C0007F4FC701845C9B4F42E050E00E942D4A4F
:1016D0008601000F111F000F111F0C0D1D1DE801C9
:1016E000CF5FDB4FB40165567F4FCE0142E050E043
:1016F0000E942D4AB4016D557F4FC8018D5F9B4FED
:1017000042E050E00E942D4A288139818A819B81E4
:101710002817390709F07C820894C11CD11C82E08B
:1017200090E0880E991E84E090E0A80EB91E94E027
:10173000C916D10409F05CCFC0E0D0E0BE01655508
:101740007F4FCE018F5D9C4F4AE050E00E942D4AB2
:101750002A96C03AD10591F77894DF91CF911F91E5
:101760000F91FF90EF90DF90CF90BF90AF909F9040
:101770008F907F900895AF92BF92CF92DF92EF92B9
:10178000FF920F931F93CF93DF93F894C0E0D0E0C4
:10179000AA24BB24CC24DD24CE01880F991F8E01FE
:1017A000000F111F000F111F000F111F800F911F3D
:1017B000880F991F880F991FB5016D5C7F4F8E5D53
:1017C0009B4F42E050E00E943D4A7801EE0CFF1C26
:1017D000EE0CFF1CE00EF11EB601655C7F4FC701E9
:1017E000855D9B4F44E050E00E943D4AB601655B39
:1017F0007F4FC701815D9B4F44E050E00E943D4A0E
:10180000B601655A7F4FC7018D5C9B4F44E050E0A5
:101810000E943D4AB60165597F4FC701885C9B4FC6
:1018200044E050E00E943D4AB60165587F4FC70131
:101830008F5B9B4F44E050E00E943D4ABE016557DC
:101840007F4FC7018B5B9B4F41E050E00E943D4AB8
:10185000BE0161577F4FC701895C9B4F41E050E05B
:101860000E943D4AB5016D567F4FC701845C9B4F76
:1018700042E050E00E943D4A8E01000F111F000F10
:10188000111F0C0F1D1FB50165567F4FC8018F5FDB
:101890009B4F42E050E00E943D4AB5016D557F4F9D
:1018A000C8018D5F9B4F42E050E00E943D4A219667
:1018B00082E090E0A80EB91E84E090E0C80ED91E28
:1018C000C430D10509F068CFC0E0D0E0BE01655555
:1018D0007F4FCE018F5D9C4F4AE050E00E943D4A11
:1018E0002A96C03AD10591F77894DF91CF911F9154
:1018F0000F91FF90EF90DF90CF90BF90AF90089541
:10190000F8940E947F030E94BB0B789408951F9265
:101910000F920FB60F920BB60F9211242F923F9297
:101920004F925F926F927F928F929F92AF92BF92EF
:10193000CF92DF92EF92FF920F931F932F933F93DB
:101940004F935F936F937F938F939F93AF93BF93C7
:10195000EF93FF93DF93CF93CDB7DEB7A097DEBFB2
:10196000CDBF9E01275F3F4F3C8F2B8F3A8F298F32
:1019700018A21F8E662477241E8E1D8E2301440C10
:10198000551C440C551C4201880C991C880C991C50
:10199000840C951C880C991C80E294E0880E991E9A
:1019A000D401AD90BC901301220C331C220C331CCB
:1019B000220C331C6101CC0CDD1CCC0CDD1CC20CD8
:1019C000D31CEEE1F4E0CE0EDF1ED6018D919C918A
:1019D0001197A81AB90AE1E0F0E0EC0FFD1F2D8D78
:1019E0003E8DE20FF31FB182A0821D966D917D9115
:1019F0008D919C91509751962D913D914D915C9177
:101A000054975596ED90FD900D911C9158970E941A
:101A10003145A80197010E943145A98DBA8D6D937A
:101A20007D938D939C931397A114B10409F44CC03A
:101A3000F60180A191A1892B09F469C180A191A12E
:101A4000019791A380A3668177818085918520E0AD
:101A500030E040E85FE30E942D451816D4F4D4012D
:101A60008D919C911197019611969C938E93F601FE
:101A7000668177818085918520E030E040E85FE3F2
:101A80000E942643D60116966D937D938D939C9369
:101A900019976101CC0CDD1CCC0CDD1CC20CD31CD5
:101AA000EEE1F4E0CE0EDF1ED60116966D917D912B
:101AB0008D919C91199720E030E040E85FEB0E9407
:101AC0008B4388230CF40CC20894611C711C2D8D6F
:101AD0003E8D2E5F3F4F3E8F2D8F898D9A8D0496C0
:101AE0009A8F898F94E06916710409F047CF82B10B
:101AF000A8A1A82BA2B996E0892F8A95F1F782B107
:101B0000BF8D8B2B82B98DE08A95F1F782B1B095AC
:101B1000B823B2B99A95F1F712B83E010894611C46
:101B2000711CCC24DD24EC2C5D2CF601EE0FFF1F84
:101B3000EE0FFF1FEE0FFF1FCF01880F991F880FB9
:101B4000991FE80FF91FE25EFB4F8285882309F495
:101B5000A4C0F30180819181181619060CF001C10F
:101B6000F601EE0FFF1FEE0FFF1FEE0FFF1FCF015D
:101B7000880F991F880F991FE80FF91FE25EFB4F2E
:101B800060817181AB8DBC8D8D909D90AD90BC902E
:101B90006F5F7F4F882777FD8095982F0E942A449A
:101BA000A50194010E942D4518160CF45AC1EE2D82
:101BB000F52DEE0FFF1FEE0FFF1FEE0FFF1FCF01E2
:101BC000880F991F880F991FE80FF91FE25EFB4FDE
:101BD000208131812F5F3F4FEE2DF52DEE0FFF1F3E
:101BE000EE0FFF1FEE0FFF1FCF01880F991F880F09
:101BF000991FE80FF91FE25EFB4F31832083EE2D22
:101C0000F52DEE0FFF1FEE0FFF1FEE0FFF1FCF0191
:101C1000880F991F880F991FE80FF91FE25EFB4F8D
:101C20008485882341F1EE2DF52DEE0FFF1FEE0F79
:101C3000FF1FCF01880F991F880F991FE80FF91F09
:101C4000EE0FFF1FE05EFB4F208131812F5F3F4F82
:101C5000EE2DF52DEE0FFF1FEE0FFF1FCF01880FAA
:101C6000991F880F991FE80FF91FEE0FFF1FE05E05
:101C7000FB4F31832083EE2DF52DEE0FFF1FEE0F6E
:101C8000FF1FEE0FFF1FCF01880F991F880F991FAD
:101C9000E80FF91FE25EFB4F12860894C11CD11CAD
:101CA0002B8D3C8D2C5F3F4F3C8F2B8F82E090E043
:101CB000680E791E94E0C916D10409F034CFA096BD
:101CC000DEBFCDBFCF91DF91FF91EF91BF91AF917B
:101CD0009F918F917F916F915F914F913F912F9144
:101CE0001F910F91FF90EF90DF90CF90BF90AF903A
:101CF0009F908F907F906F905F904F903F902F902C
:101D00000F900BBE0F900FBE0F901F90189521E003
:101D1000F6012287B7FC07C1F201E60DF71DEF5F60
:101D2000FB4F8481882309F088C081E090E00D8C0E
:101D300002C0880F991F0A94E2F7FF8DF82BFF8FDE
:101D4000F101EE0FFF1FEE0FFF1FE20DF31DE25E2C
:101D5000FB4F868D978D880F991F019791A380A3C4
:101D6000B3CE892B09F487CFF601EE0FFF1FEE0FDC
:101D7000FF1FEE0FFF1FCF01880F991F880F991FBC
:101D8000E80FF91FE25EFB4F80819181181619065A
:101D90000CF0FDC0EE2DF52DEE0FFF1FEE0FFF1F17
:101DA000EE0FFF1FCF01880F991F880F991FE80FB3
:101DB000F91FE25EFB4F2081318121503040EE2D32
:101DC000F52DEE0FFF1FEE0FFF1FEE0FFF1FCF01D0
:101DD000880F991F880F991FE80FF91FE25EFB4FCC
:101DE00031832083EE2DF52DEE0FFF1FEE0FFF1F29
:101DF000EE0FFF1FCF01880F991F880F991FE80F63
:101E0000F91FE25EFB4F8485882309F434CFEE2D61
:101E1000F52DEE0FFF1FEE0FFF1FCF01880F991F4B
:101E2000880F991FE80FF91FEE0FFF1FE05EFB4FB1
:101E300020813181215030400BCFD6018D919C9172
:101E400011972081318101968217930709F06DCF98
:101E50008D919C911197F401918380831A961C9225
:101E60006FCFF601EE0FFF1FEE0FFF1FEE0FFF1FEC
:101E7000CF01880F991F880F991FE80FF91FE25EA5
:101E8000FB4F11821082F601EE0FFF1FEE0FFF1FB6
:101E9000CF01880F991F880F991FE80FF91FEE0FC8
:101EA000FF1FE05EFB4F00811181C501B4010E945C
:101EB00094450E94F743061B170BF601EE0FFF1F18
:101EC000EE0FFF1FCF01880F991F880F991FE80F92
:101ED000F91FEE0FFF1FE05EFB4F1183008367CEFB
:101EE000F201EE0FFF1FEE0FFF1FE40DF51DEE0FC9
:101EF000FF1FE05EFB4F808191810197918380837A
:101F0000F601668177818085918520E030E040E8A8
:101F10005FE30E942743D60116966D937D938D93C0
:101F20009C931997D1CDF201E60DF71DEF5FFB4FA2
:101F30008481882309F52D8D3E8D2F5F3F4F3E8F85
:101F40002D8F81E090E00D8C02C0880F991F0A94BC
:101F5000E2F7215030403E8F2D8F38A1382B38A327
:101F600081E090E00D8C02C0880F991F0A94E2F77F
:101F7000AF8DA82BAF8FE4CED6018D919C91119798
:101F800022813381019682179307A9F661CFEB8DE9
:101F9000FC8D60817181828193810E9494450E94B1
:101FA000F743AB01F601EE0FFF1FEE0FFF1FEE0F21
:101FB000FF1F9F01220F331F220F331FE20FF31F5A
:101FC000E25EFB4F71836083F601EE0FFF1FEE0FA1
:101FD000FF1FCF01880F991F880F991FE80FF91F66
:101FE000EE0FFF1FE05EFB4F80819181480F591F6C
:101FF000F601EE0FFF1FEE0FFF1FCF01880F991F95
:10200000880F991FE80FF91FEE0FFF1FE05EFB4FCF
:1020100051834083BFCE2F923F924F925F926F9237
:102020007F928F929F92BF92CF92DF92EF92FF9218
:102030000F931F93DF93CF9300D000D0CDB7DEB7BF
:10204000B82ECB01BA01A90198010E9431456983DC
:102050007A838B839C83EEE1CE2EE4E0DE2EEB2DA3
:10206000F0E0EE0FFF1FEE0FFF1FEE0FFF1FCF017F
:10207000880F991F880F991FE80FF91FEC0DFD1DA0
:102080006189728983899489EB2DF0E0EE0FFF1F3F
:10209000EE0FFF1FEE0FFF1F9F01220F331F220FB6
:1020A000331FE20FF31FEC0DFD1D25853685478597
:1020B0005089EB2DF0E0EE0FFF1FEE0FFF1FEE0F2C
:1020C000FF1FDF01AA0FBB1FAA0FBB1FEA0FFB1FD9
:1020D000EC0DFD1DE588F6880789108D0E943145BD
:1020E000A80197010E94314520E030E040E05FE325
:1020F0000E9431459B01AC0169817A818B819C8171
:102100000E9431450E9494451B012C01EB2DF0E00B
:10211000EE0FFF1FEE0FFF1FCF01880F991F880FD3
:10212000991FE80FF91F3196EE0FFF1FEC0DFD1DF3
:1021300000811181C201B1010E94F743600F711F3C
:10214000EB2DF0E0EE0FFF1FEE0FFF1F9F01220FA0
:10215000331F220F331FE20FF31F3196EE0FFF1FC5
:10216000EC0DFD1D71836083EB2DF0E0EE0FFF1F82
:10217000EE0FFF1FEE0FFF1FCF01880F991F880F73
:10218000991FE80FF91FEC0DFD1D66807780808494
:102190009184EB2DF0E0EE0FFF1FEE0FFF1FEE0F0F
:1021A000FF1FCF01880F991F880F991FE80FF91F94
:1021B000EC0DFD1D6189728983899489EB2DF0E016
:1021C000EE0FFF1FEE0FFF1FEE0FFF1F9F01220FED
:1021D000331F220F331FE20FF31FEC0DFD1D25856A
:1021E000368547855089EB2DF0E0EE0FFF1FEE0F8F
:1021F000FF1FEE0FFF1FDF01AA0FBB1FAA0FBB1FA0
:10220000EA0FFB1FEC0DFD1DE588F6880789108D90
:102210000E943145A80197010E94314520E030E03D
:1022200040E05FE30E9431459B01AC0169817A8106
:102230008B819C810E943145A20191010E9426431D
:102240009B01AC01C401B3010E9427432B2D30E058
:10225000220F331F220F331F220F331FA901440FF8
:10226000551F440F551F240F351FC20ED31EF601F4
:1022700066837783808791870F900F900F900F90E0
:10228000CF91DF911F910F91FF90EF90DF90CF9052
:10229000BF909F908F907F906F905F904F903F90F6
:1022A0002F9008952F923F924F925F926F927F925C
:1022B0008F929F92BF92CF92DF92EF92FF920F93F5
:1022C0001F93DF93CF9300D000D0CDB7DEB7B82EE9
:1022D000CB01BA01A90198010E94314569837A8333
:1022E0008B839C83EEE1CE2EE4E0DE2EEB2DF0E03E
:1022F000EE0FFF1FEE0FFF1FEE0FFF1FCF01880F26
:10230000991F880F991FE80FF91FEC0DFD1D6189BA
:10231000728983899489EB2DF0E0EE0FFF1FEE0F99
:10232000FF1FEE0FFF1F9F01220F331F220F331FCE
:10233000E20FF31FEC0DFD1D25853685478550897D
:10234000EB2DF0E0EE0FFF1FEE0FFF1FEE0FFF1F54
:10235000DF01AA0FBB1FAA0FBB1FEA0FFB1FEC0D6B
:10236000FD1DE588F6880789108D0E943145A8017A
:1023700097010E94314520E030E044EB53E40E9495
:102380008F439B01AC0169817A818B819C810E9482
:1023900031450E9494451B012C01EB2DF0E0EE0F1E
:1023A000FF1FEE0FFF1FCF01880F991F880F991F86
:1023B000E80FF91F3196EE0FFF1FEC0DFD1D008198
:1023C0001181C201B1010E94F743600F711FEB2D13
:1023D000F0E0EE0FFF1FEE0FFF1F9F01220F331FD4
:1023E000220F331FE20FF31F3196EE0FFF1FEC0D8C
:1023F000FD1D71836083EB2DF0E0EE0FFF1FEE0FEC
:10240000FF1FEE0FFF1FCF01880F991F880F991F25
:10241000E80FF91FEC0DFD1D6680778080849184A4
:10242000EB2DF0E0EE0FFF1FEE0FFF1FEE0FFF1F73
:10243000CF01880F991F880F991FE80FF91FEC0D26
:10244000FD1D6189728983899489EB2DF0E0EE0F7F
:10245000FF1FEE0FFF1FEE0FFF1F9F01220F331F05
:10246000220F331FE20FF31FEC0DFD1D258536856E
:1024700047855089EB2DF0E0EE0FFF1FEE0FFF1F99
:10248000EE0FFF1FDF01AA0FBB1FAA0FBB1FEA0F32
:10249000FB1FEC0DFD1DE588F6880789108D0E9455
:1024A0003145A80197010E94314520E030E044EB1E
:1024B00053E40E948F439B01AC0169817A818B8137
:1024C0009C810E943145A20191010E9426439B01FB
:1024D000AC01C401B3010E9427432B2D30E0220F31
:1024E000331F220F331F220F331FA901440F551F23
:1024F000440F551F240F351FC20ED31EF6016683ED
:102500007783808791870F900F900F900F90CF91D6
:10251000DF911F910F91FF90EF90DF90CF90BF90D0
:102520009F908F907F906F905F904F903F902F90F3
:10253000089560E070E04AE050E00E94E0466430B8
:10254000D8F54091150450911604E62FF0E0EE0FF7
:10255000FF1FEE0FFF1FEE0FFF1FCF01880F991F08
:10256000880F991FE80FF91FE25EFB4F27A100D0EB
:1025700000D000D0EDB7FEB73196ADB7BEB712961A
:102580005C934E93119787E191E093838283332785
:1025900027FD3095358324830E949E498DB79EB7D1
:1025A00006960FB6F8949EBF0FBE8DBF20911504FE
:1025B00030911604C9010895809115049091160474
:1025C00000D000D000D0EDB7FEB73196ADB7BEB7A2
:1025D00012969C938E93119780E091E0938382836F
:1025E000648315820E949E498DB79EB706960FB6EA
:1025F000F8949EBF0FBE8DBF209115043091160434
:10260000C901089560E070E04AE050E00E94E046B1
:102610006430C8F54091150450911604E62FF0E09F
:10262000EE0FFF1FEE0FFF1FEE0FFF1FCF01880FF2
:10263000991F880F991FE80FF91FE25EFB4F268D47
:10264000378D00D000D000D0EDB7FEB73196ADB7D2
:10265000BEB712965C934E93119787E191E09383F6
:102660008283358324830E949E498DB79EB7069648
:102670000FB6F8949EBF0FBE8DBF20911504309108
:102680001604C9010895809115049091160400D094
:1026900000D000D0EDB7FEB73196ADB7BEB71296F9
:1026A0009C938E93119780E091E09383828364835F
:1026B00015820E949E498DB79EB706960FB6F89474
:1026C0009EBF0FBE8DBF2091150430911604C90125
:1026D000089560E070E04AE050E00E94E046262F56
:1026E000643008F040C06091150470911604E22F28
:1026F000F0E0EE0FFF1FEE0FFF1FEE0FFF1FCF01E9
:10270000880F991F880F991FE80FF91FE25EFB4F92
:10271000258936894789508DADB7BEB718970FB652
:10272000F894BEBF0FBEADBFEDB7FEB7319612969F
:102730007C936E9311978AE191E093838283248343
:102740003583468357830E949E498DB79EB708966E
:102750000FB6F8949EBF0FBE8DBF20911504309127
:102760001604C9010895809115049091160400D0B3
:1027700000D000D0EDB7FEB73196ADB7BEB7129618
:102780009C938E93119780E091E0938382832483BE
:1027900015820E949E498DB79EB706960FB6F89493
:1027A0009EBF0FBE8DBF2091150430911604C90144
:1027B000089560E070E04AE050E00E94E046262F75
:1027C000643008F040C06091150470911604E22F47
:1027D000F0E0EE0FFF1FEE0FFF1FEE0FFF1FCF0108
:1027E000880F991F880F991FE80FF91FE25EFB4FB2
:1027F0002189328943895489ADB7BEB718970FB67E
:10280000F894BEBF0FBEADBFEDB7FEB731961296BE
:102810007C936E9311978AE191E093838283248362
:102820003583468357830E949E498DB79EB708968D
:102830000FB6F8949EBF0FBE8DBF20911504309146
:102840001604C9010895809115049091160400D0D2
:1028500000D000D0EDB7FEB73196ADB7BEB7129637
:102860009C938E93119780E091E0938382832483DD
:1028700015820E949E498DB79EB706960FB6F894B2
:102880009EBF0FBE8DBF2091150430911604C90163
:10289000089560E070E04AE050E00E94E046262F94
:1028A000643008F040C06091150470911604E22F66
:1028B000F0E0EE0FFF1FEE0FFF1FEE0FFF1FCF0127
:1028C000880F991F880F991FE80FF91FE25EFB4FD1
:1028D0002585368547855089ADB7BEB718970FB6A1
:1028E000F894BEBF0FBEADBFEDB7FEB731961296DE
:1028F0007C936E9311978FE191E09383828324837D
:102900003583468357830E949E498DB79EB70896AC
:102910000FB6F8949EBF0FBE8DBF20911504309165
:102920001604C9010895809115049091160400D0F1
:1029300000D000D0EDB7FEB73196ADB7BEB7129656
:102940009C938E93119780E091E0938382832483FC
:1029500015820E949E498DB79EB706960FB6F894D1
:102960009EBF0FBE8DBF2091150430911604C90182
:10297000089560E070E04AE050E00E94E046643074
:10298000D8F54091150450911604862F90E0FC0173
:10299000EE0FFF1FEE0FFF1FEE0FFF1F880F991F97
:1029A000E80FF91FEE0FFF1FEE0FFF1FEE5DFB4F4D
:1029B0002081318100D000D000D0EDB7FEB7319634
:1029C000ADB7BEB712965C934E93119787E191E035
:1029D00093838283358324830E949E498DB79EB75B
:1029E00006960FB6F8949EBF0FBE8DBF20911504BA
:1029F00030911604C9010895809115049091160430
:102A000000D000D000D0EDB7FEB73196ADB7BEB75D
:102A100012969C938E93119780E091E0938382832A
:102A2000648315820E949E498DB79EB706960FB6A5
:102A3000F8949EBF0FBE8DBF2091150430911604EF
:102A4000C901089560E070E04AE050E00E94E0466D
:102A5000643048F5862F0E94E806209115043091D5
:102A6000160400D000D000D0EDB7FEB73196ADB758
:102A7000BEB712963C932E93119727E131E0338332
:102A80002283958384830E949E498DB79EB70696C4
:102A90000FB6F8949EBF0FBE8DBF209115043091E4
:102AA0001604C9010895809115049091160400D070
:102AB00000D000D0EDB7FEB73196ADB7BEB71296D5
:102AC0009C938E93119780E091E09383828364833B
:102AD00015820E949E498DB79EB706960FB6F89450
:102AE0009EBF0FBE8DBF2091150430911604C90101
:102AF000089560E070E04AE050E00E94E0466430F3
:102B000008F045C0E62FF0E0EE0FFF1FEE0FFF1FAD
:102B1000CF01880F991F880F991FE80FF91FEE0F3B
:102B2000FF1FE05EFB4F20813181E62FF0E0EE0FCA
:102B3000FF1FEE0FFF1FEE0FFF1FCF01880F991F22
:102B4000880F991FE80FF91FE25EFB4F808191818A
:102B50002817390771F0E0911504F091160481E30C
:102B600090E0918380832091150430911604C9016F
:102B70000895E0911504F091160480E390E09183AC
:102B800080832091150430911604C9010895809125
:102B900015049091160400D000D000D0EDB7FEB718
:102BA0003196ADB7BEB712969C938E93119780E085
:102BB00091E093838283648315820E949E498DB73E
:102BC0009EB706960FB6F8949EBF0FBE8DBF20919C
:102BD000150430911604C90108952F923F924F9227
:102BE0005F926F927F928F929F92AF92BF92DF928D
:102BF000EF92FF920F931F93CF93DF9390E0880F94
:102C0000991F865A9A4FFC01259134912E5F3F4FB0
:102C1000F9018491E82FF0E0E231F10508F047C0B6
:102C2000EA5BFF4FEE0FFF1F0590F491E02D099432
:102C3000E0911603F091170320813181C901DC0175
:102C4000E0E2F2E089E001900D928150E1F7E0913D
:102C50001603F091170322813381C901DC01E0E200
:102C6000F2E089E001900D928150E1F7E0911603C6
:102C7000F091170324813581C901DC01E0E2F2E023
:102C800089E001900D928150E1F7E0911603F091F7
:102C9000170326813781C901DC01E0E2F2E089E017
:102CA00001900D928150E1F785E08093120320E0BE
:102CB00030E090E2A0911603B0911703A20FB31F6A
:102CC000EC911196FC91DF010D900020E9F711972E
:102CD000AE1BBF0BA83080F48A2FE0911603F09151
:102CE0001703E20FF31F0190F081E02DE80FF11DB3
:102CF00090838F5F883088F3E0911603F09117037B
:102D0000E20FF31F0190F081E02D10862E5F3F4F00
:102D10002830310579F6DF91CF911F910F91FF9007
:102D2000EF90DF90BF90AF909F908F907F906F90CB
:102D30005F904F903F902F900895E0911603F0918F
:102D4000170320813181C901DC01E2ECF1E089E067
:102D500001900D928150E1F7E0911603F091170375
:102D600022813381C901DC01EBECF1E089E00190C3
:102D70000D928150E1F7E0911603F0911703248141
:102D80003581C901DC01E0EBF1E089E001900D92B1
:102D90008150E1F7E0911603F09117032681378106
:102DA000C901DC01E9EBF1E089E001900D9281506D
:102DB000E1F77DCFE0911603F09117032081318177
:102DC000C901DC01E2E2F1E089E001900D9281505D
:102DD000E1F7E0911603F091170322813381C901D5
:102DE000DC01EBE2F1E089E001900D928150E1F726
:102DF000E0911603F091170324813581C901DC01AC
:102E0000E4E3F1E089E001900D928150E1F7E09177
:102E10001603F091170326813781C901DC01EDE328
:102E2000F1E087E001900D928150E1F740CFC0E0E2
:102E3000D0E0EE24FF24BBE4AB2EB1E0BB2EAFED1F
:102E40008A2E912CF4E56F2EF1E07F2EE7EF4E2EC7
:102E5000512C74E4272E71E0372E4C2F80911303F0
:102E60009E0190E00C2E02C0959587950A94E2F79A
:102E700080FDE9C460E2D62EF901EE0FFF1FEE0FD0
:102E8000FF1FEE0FFF1FCF01880F991F880F991F9B
:102E9000E80FF91FE25EFB4F818D813009F4EAC52E
:102EA000823009F4A0C58823D9F5A0911603B0910A
:102EB0001703F901EE0FFF1FEE0FFF1FEE0FFF1FAD
:102EC000CF01880F991F880F991FE80FF91FE25E45
:102ED000FB4F208131818DB79EB708970FB6F894CC
:102EE0009EBF0FBE8DBFEDB7FEB73196AE0DBF1DB5
:102EF0008D919C91ADB7BEB712969C938E9311970E
:102F000033822282D4821582378326830E949E498F
:102F1000EDB7FEB738960FB6F894FEBF0FBEEDBF03
:102F2000219622E030E0E20EF31EC430D10509F014
:102F300094CFBDCEC0E0D0E00DE711E08091130347
:102F40009E0190E00C2E02C0959587950A94E2F7B9
:102F500080FD81C460E270E0A0911603B091170378
:102F6000F901EE0FFF1FEE0FFF1FEE0FFF1FCF0146
:102F7000880F991F880F991FE80FF91FE25EFB4F1A
:102F8000228D338D448D558D8DB79EB70A970FB620
:102F9000F8949EBF0FBE8DBFEDB7FEB73196CE0140
:102FA000880F991FA80FB91F8D919C91ADB7BEB71F
:102FB00012969C938E931197138302837583648377
:102FC00026833783408751870E949E492196EDB71B
:102FD000FEB73A960FB6F894FEBF0FBEEDBFC430F1
:102FE000D10509F0ABCF63CEC0E0D0E000E010E047
:102FF0009DE5A92E91E0B92E82E6882E81E0982EDB
:10300000B7E66B2EB1E07B2EAEE64A2EA1E05A2E3B
:1030100080911303FC2EED2E90E00C2E02C09595AE
:1030200087950A94E2F780FDF5C3F0E2DF2EEF2DDD
:10303000FE2DEE0FFF1FEE0FFF1FEE0FFF1FCF0144
:10304000880F991F880F991FE80FF91FE25EFB4F49
:10305000818D882309F493C4EF2DFE2DEE0FFF1F01
:10306000EE0FFF1FEE0FFF1FCF01880F991F880F74
:10307000991FE80FF91FE25EFB4F818D813009F443
:10308000FDC5EF2DFE2DEE0FFF1FEE0FFF1FEE0F04
:10309000FF1FCF01880F991F880F991FE80FF91F95
:1030A000E25EFB4F818D823009F4B7C521960E5F39
:1030B0001F4FC430D10509F0ABCFF9CDC0E0D0E04F
:1030C00009E012E0809113039E0190E00C2E02C0F3
:1030D000959587950A94E2F780FDAAC360E270E0B7
:1030E000A0911603B0911703F901EE0FFF1FEE0F29
:1030F000FF1FEE0FFF1FCF01880F991F880F991F29
:10310000E80FF91FE25EFB4F25853685478550891C
:103110008DB79EB70A970FB6F8949EBF0FBE8DBFAE
:10312000EDB7FEB73196CE01880F991FA80FB91FD2
:103130008D919C91ADB7BEB712969C938E931197CB
:103140001383028375836483268337834087518783
:103150000E949E492196EDB7FEB73A960FB6F894B5
:10316000FEBF0FBEEDBFC430D10509F0ABCF9FCD80
:10317000E0911603F091170320813181C901DC0130
:10318000E6EEF1E089E001900D928150E1F7E091E7
:103190001603F091170322813381C901DC01EFEEA0
:1031A000F1E089E001900D928150E1F7E091160382
:1031B000F09117032091110300D000D000D0ADB7DB
:1031C000BEB7119684819581EDB7FEB79283818356
:1031D00088EF91E013969C938E931297332727FDE7
:1031E000309515963C932E9314970E949E49E0913A
:1031F0001603F091170326813781C901DC01EBE248
:10320000F1E089E001900D928150E1F72DB73EB7D2
:103210002A5F3F4F0FB6F8943EBF0FBE2DBF47CD7C
:10322000C0E0D0E000E012E0809113039E0190E046
:103230000C2E02C0959587950A94E2F780FD55C340
:1032400060E270E0A0911603B0911703F901EE0F50
:10325000FF1FEE0FFF1FEE0FFF1FCF01880F991FFB
:10326000880F991FE80FF91FE25EFB4F23A134A1DD
:1032700045A156A18DB79EB70A970FB6F8949EBF89
:103280000FBE8DBFEDB7FEB73196CE01880F991FE7
:10329000A80FB91F8D919C91ADB7BEB712969C93A4
:1032A0008E931197138302837583648326833783F8
:1032B000408751870E949E492196EDB7FEB73A9606
:1032C0000FB6F894FEBF0FBEEDBFC430D10509F0B4
:1032D000ABCFEDCCC0E0D0E000E010E05DE5A52E86
:1032E00051E0B52E40E1842E42E0942E35E1632E6C
:1032F00032E0732E2AE1422E22E0522E80911303F7
:10330000FC2EED2E90E00C2E02C0959587950A9428
:10331000E2F780FD95C290E2D92EEF2DFE2DEE0F43
:10332000FF1FEE0FFF1FEE0FFF1FCF01880F991F2A
:10333000880F991FE80FF91FE25EFB4F87A18823D2
:1033400009F4EBC2EF2DFE2DEE0FFF1FEE0FFF1F56
:10335000EE0FFF1FCF01880F991F880F991FE80FED
:10336000F91FE25EFB4F87A1813009F425C4EF2DE0
:10337000FE2DEE0FFF1FEE0FFF1FEE0FFF1FCF0101
:10338000880F991F880F991FE80FF91FE25EFB4F06
:1033900087A1823009F4DFC321960E5F1F4FC4302E
:1033A000D10509F0ABCF83CCC0E0D0E005E711E058
:1033B000809113039E0190E00C2E02C09595879595
:1033C0000A94E2F780FD94C240E250E0A091160317
:1033D000B0911703F901EE0FFF1FEE0FFF1FEE0F65
:1033E000FF1FCF01880F991F880F991FE80FF91F42
:1033F000E25EFB4F268D378D8DB79EB708970FB6CF
:10340000F8949EBF0FBE8DBFEDB7FEB73196CE01CB
:10341000880F991FA80FB91F8D919C91ADB7BEB7AA
:1034200012969C938E931197138302835583448342
:10343000378326830E949E492196EDB7FEB73896C2
:103440000FB6F894FEBF0FBEEDBFC430D10509F032
:10345000AFCF2DCCE0911603F0911703208131817D
:10346000C901DC01EEE9F1E089E001900D928150A3
:10347000E1F7E0911603F091170322813381C9012E
:10348000DC01E7EAF1E089E001900D928150E1F77B
:10349000E0911603F091170324813581C901DC0105
:1034A000E0EBF1E089E001900D928150E1F7E091CD
:1034B0001603F091170326813781C901DC01E9EB7E
:1034C000F1E089E001900D928150E1F7F0CBC0E08E
:1034D000D0E004E411E0809113039E0190E00C2EF3
:1034E00002C0959587950A94E2F780FD99C140E264
:1034F00050E0A0911603B0911703C901F901EE0F36
:10350000FF1FEE0FFF1FEE0FFF1F880F991FE80F21
:10351000F91FEE0FFF1FEE0FFF1FEE5DFB4F208127
:1035200031818DB79EB708970FB6F8949EBF0FBE36
:103530008DBFEDB7FEB73196CE01880F991FA80F4A
:10354000B91F8D919C91ADB7BEB712969C938E9387
:1035500011971383028355834483378326830E9404
:103560009E492196EDB7FEB738960FB6F894FEBF88
:103570000FBEEDBFC430D10509F0ADCF98CB40E010
:1035800050E000E010E07EE8E72E71E0F72E809139
:10359000130390E0042E02C0959587950A94E2F7F4
:1035A00080FD96C120E2FA01EE0FFF1FEE0FFF1F14
:1035B000E40FF51FEF5FFB4F8481882309F44EC1B0
:1035C000E0911603F0911703E00FF11F2081318184
:1035D000C901DC01E5E8F1E089E001900D9281503C
:1035E000E1F7EA0121966CC1C0E0D0E0EE24FF24AF
:1035F00090EEA92E91E0B92E8BED882E81E0982EC9
:1036000004ED602E01E0702E8091130390E00C2EEB
:1036100002C0959587950A94E2F780FD5BC110E2A0
:10362000D12EFE01EE0FFF1FEE0FFF1FEC0FFD1F4F
:10363000EF5FFB4F8481882309F05DC18E01000F8D
:10364000111F000F111F000F111FF801EE0FFF1FB8
:10365000EE0FFF1FE00FF11FE25EFB4F82A18823F8
:1036600009F452C2F801EE0FFF1FEE0FFF1FE00F2B
:10367000F11FE25EFB4F82A1813009F457C3F801CC
:10368000EE0FFF1FEE0FFF1FE00FF11FE25EFB4F7B
:1036900082A1823009F423C3219682E090E0E80EF3
:1036A000F91EC430D10509F0AFCF01CBC0E0D0E0A6
:1036B00007E911E0809113039E0190E00C2E02C0F7
:1036C000959587950A94E2F780FD07C160E270E066
:1036D000A0911603B0911703F901EE0FFF1FEE0F33
:1036E000FF1FEE0FFF1FCF01880F991F880F991F33
:1036F000E80FF91FE25EFB4F218932894389548923
:103700008DB79EB70A970FB6F8949EBF0FBE8DBFB8
:10371000EDB7FEB73196CE01880F991FA80FB91FDC
:103720008D919C91ADB7BEB712969C938E931197D5
:10373000138302837583648326833783408751878D
:103740000E949E492196EDB7FEB73A960FB6F894BF
:10375000FEBF0FBEEDBFC430D10509F0ABCFA7CA85
:10376000C0E0D0E007E911E0809113039E0190E0F2
:103770000C2E02C0959587950A94E2F780FD4DC006
:1037800060E270E0A0911603B0911703F901EE0F0B
:10379000FF1FEE0FFF1FEE0FFF1FCF01880F991FB6
:1037A000880F991FE80FF91FE25EFB4F25893689C4
:1037B0004789508D8DB79EB70A970FB6F8949EBF74
:1037C0000FBE8DBFEDB7FEB73196CE01880F991FA2
:1037D000A80FB91F8D919C91ADB7BEB712969C935F
:1037E0008E931197138302837583648326833783B3
:1037F000408751870E949E492196EDB7FEB73A96C1
:103800000FB6F894FEBF0FBEEDBFC430D10509F06E
:10381000ABCF4DCAEEE7DE2E0ACC6EE770E0B2CF3A
:1038200080911003882309F4DBC04EE350E061CEA1
:1038300080911003882309F461C16EE370E050CCDD
:103840008EE7D82E6ACD80911003882309F40FC12A
:103850005EE3D52E11CB6EE770E07ECBE0911603D0
:10386000F09117038DB79EB708970FB6F8949EBFD7
:103870000FBE8DBFADB7BEB71196E00FF11F8081AF
:103880009181EDB7FEB7928381831396FC92EE92FD
:10389000129714962C93149715961C921597EA017B
:1038A00021961796DC93CE9316970E949E492DB7CA
:1038B0003EB7285F3F4F0FB6F8943EBF0FBE2DBFF7
:1038C000AE010E5F1F4FC430D10509F060CEEFC9C5
:1038D0002EE769CEBEE7DB2EA4CE809110038823AD
:1038E00009F40FC16EE370E0F3CE6EE770E0AACC8E
:1038F0004EE750E06BCDE0911603F0911703EE0D0B
:10390000FF1D20813181C901DC01E5E8F1E089E09A
:1039100001900D928150E1F7BFCEE0911603F09136
:1039200017032DB73EB7285030400FB6F8943EBF6E
:103930000FBE2DBFADB7BEB71196E00FF11F80814E
:103940009181EDB7FEB7928381831396BC92AE92BC
:1039500012971496DC92149715961C921597179649
:103960009C928E9216970E949E492DB73EB7285F73
:103970003F4F0FB6F8943EBF0FBE2DBFE3CCE09192
:103980001603F09117038DB79EB708970FB6F894FA
:103990009EBF0FBE8DBFADB7BEB71196E00FF11F32
:1039A00080819181EDB7FEB7928381831396BC929B
:1039B000AE9212971496DC92149715961C92159756
:1039C00017969C928E9216970E949E492DB73EB7ED
:1039D000285F3F4F0FB6F8943EBF0FBE2DBF3CCBC4
:1039E0004EE750E086CDE0911603F0911703EE0DFF
:1039F000FF1D00811181F901EE0FFF1FEE0FFF1F68
:103A0000EE0FFF1FCF01880F991F880F991FE80F36
:103A1000F91FE25EFB4F60817181842F0E94620872
:103A20002DB73EB72C5030400FB6F8943EBF0FBEB6
:103A30002DBFEDB7FEB73196ADB7BEB712961C934A
:103A40000E93119773826282D48215826683778384
:103A500080879187538642860E949E49EDB7FEB7C4
:103A60003C960FB6F894FEBF0FBEEDBF59CA9EE755
:103A7000D92E02CAE0911603F0911703EE0DFF1D37
:103A800000811181F901EE0FFF1FEE0FFF1FEE0FF6
:103A9000FF1FCF01880F991F880F991FE80FF91F8B
:103AA000E25EFB4F60817181842F0E94DD072DB79C
:103AB0003EB72C5030400FB6F8943EBF0FBE2DBF1E
:103AC000EDB7FEB73196ADB7BEB712961C930E9305
:103AD0001197B382A282D48215826683778380870E
:103AE0009187938682860E949E49EDB7FEB73C96E9
:103AF0000FB6F894FEBF0FBEEDBF12CA6EE770E0BE
:103B0000EFCA6EE770E0E4CDE0911603F091170381
:103B100000D000D000D0ADB7BEB71196EE0DFF1D9E
:103B200080819181EDB7FEB79283818313967C9259
:103B30006E9212971496DC92149715961C920E941E
:103B40009E492DB73EB72A5F3F4F0FB6F8943EBF50
:103B50000FBE2DBF87CDE0911603F09117038DB7EF
:103B60009EB708970FB6F8949EBF0FBE8DBFADB736
:103B7000BEB71196E00FF11F80819181EDB7FEB7BE
:103B8000928381831396BC92AE9212971496DC9224
:103B9000149715961C92159717965C924E9216974D
:103BA0000E949E492DB73EB7285F3F4F0FB6F8944D
:103BB0003EBF0FBE2DBFF0CBE0911603F09117036F
:103BC0008DB79EB708970FB6F8949EBF0FBE8DBFF6
:103BD000ADB7BEB71196E00FF11F80819181EDB7AF
:103BE000FEB7928381831396BC92AE92129714967D
:103BF000DC92149715961C92159717967C926E92EC
:103C000016970E949E492DB73EB7285F3F4F0FB6CB
:103C1000F8943EBF0FBE2DBFAACBE0911603F091E2
:103C200017038DB79EB708970FB6F8949EBF0FBEC7
:103C30008DBFADB7BEB71196E00FF11F80819181A6
:103C4000EDB7FEB7928381831396BC92AE92129722
:103C50001496DC92149715961C92159717965C9201
:103C60004E9216970E949E492DB73EB7285F3F4F50
:103C70000FB6F8943EBF0FBE2DBF18CAE0911603D1
:103C8000F09117038DB79EB708970FB6F8949EBFB3
:103C90000FBE8DBFADB7BEB71196E00FF11F80818B
:103CA0009181EDB7FEB7928381831396BC92AE9259
:103CB00012971496DC92149715961C9215971796E6
:103CC0007C926E9216970E949E492DB73EB7285F50
:103CD0003F4F0FB6F8943EBF0FBE2DBFD2C9E09143
:103CE0001603F091170300D000D000D0ADB7BEB7D7
:103CF0001196EE0DFF1D80819181EDB7FEB7928385
:103D000081831396BC92AE9212971496DC9214970C
:103D100015961C920E949E492DB73EB72A5F3F4FD1
:103D20000FB6F8943EBF0FBE2DBFB6CCE091160380
:103D3000F091170300D000D000D0ADB7BEB71196F8
:103D4000EE0DFF1D80819181EDB7FEB792838183D7
:103D500013969C928E9212971496DC921497159655
:103D60001C920E949E492DB73EB72A5F3F4F0FB667
:103D7000F8943EBF0FBE2DBF82CC8F929F92AF9220
:103D8000BF92CF92DF92EF92FF920F931F93CF9348
:103D9000DF93EB016A015901480160E070E04AE0FD
:103DA00050E00E94E046162F603168F0DF91CF911D
:103DB0001F910F91FF90EF90DF90CF90BF90AF9049
:103DC0009F908F900895C70169E272E00E94284990
:103DD000009709F066C0812F90E0FC01EE0FFF1FF5
:103DE000EE0FFF1FEE0FFF1F880F991FE80FF91F3F
:103DF000EF5DFC4F1082812F90E0FC01EE0FFF1F62
:103E0000EE0FFF1FEE0FFF1F880F991FE80FF91F1E
:103E1000EF5DFC4F81E08187812F90E0FC01EE0F88
:103E2000FF1FEE0FFF1FEE0FFF1F880F991FE80FF8
:103E3000F91FEF5DFC4F12821182812F90E0FC018F
:103E4000EE0FFF1FEE0FFF1FEE0FFF1F880F991FD2
:103E5000E80FF91FEF5DFC4F14821382812F90E071
:103E6000FC01EE0FFF1FEE0FFF1FEE0FFF1F880F6D
:103E7000991FE80FF91FEF5DFC4F16821582812F05
:103E800090E0FC01EE0FFF1FEE0FFF1FEE0FFF1F74
:103E9000880F991FE80FF91FEF5DFC4F10861782FE
:103EA00085CFCE0160E070E04AE050E00E94E0463D
:103EB000212F30E0F901EE0FFF1FEE0FFF1FEE0F75
:103EC000FF1F220F331FE20FF31FEF5DFC4F7283C2
:103ED0006183C60160E070E04AE050E00E94E04685
:103EE000212F30E0F901EE0FFF1FEE0FFF1FEE0F45
:103EF000FF1F220F331FE20FF31FEF5DFC4F748390
:103F00006383C50160E070E04AE050E00E94E04653
:103F1000212F30E0F901EE0FFF1FEE0FFF1FEE0F14
:103F2000FF1F220F331FE20FF31FEF5DFC4F76835D
:103F30006583C40160E070E04AE050E00E94E04622
:103F4000212F30E0F901EE0FFF1FEE0FFF1FEE0FE4
:103F5000FF1F220F331FE20FF31FEF5DFC4F70872F
:103F60006783812F90E0FC01EE0FFF1FEE0FFF1F14
:103F7000EE0FFF1F880F991FE80FF91FEF5DFC4F31
:103F800081E08083C7016EE272E00E9428490097B9
:103F900081F4812F90E0FC01EE0FFF1FEE0FFF1F59
:103FA000EE0FFF1F880F991FE80FF91FEF5DFC4F01
:103FB0001186C70162E372E00E942849009709F068
:103FC000F5CE812F90E0FC01EE0FFF1FEE0FFF1FDB
:103FD000EE0FFF1F880F991FE80FF91FEF5DFC4FD1
:103FE00081E08187E3CE0F93CF93DF93EB0160E015
:103FF00070E04AE050E00E94E046062F643008F08E
:10400000ACC0CE0166E372E00E942849009759F1E6
:10401000CE016CE372E00E942849009709F460C069
:10402000CE0160E472E00E942849009709F058C070
:10403000C0911504D0911604E02FF0E0EE0FFF1FA1
:10404000EE0FFF1FEE0FFF1FCF01880F991F880F84
:10405000991FE80FF91FE25EFB4F60817181802F8D
:104060000E94620857C04091150450911604E02F39
:10407000F0E0EE0FFF1FEE0FFF1FEE0FFF1FCF014F
:10408000880F991F880F991FE80FF91FE25EFB4FF9
:104090002081318100D000D000D0EDB7FEB731963D
:1040A000ADB7BEB712965C934E93119787E191E03E
:1040B00093838283358324830E949E492DB73EB724
:1040C0002A5F3F4F0FB6F8943EBF0FBE2DBF209121
:1040D000150430911604C901DF91CF910F91089515
:1040E000C0911504D0911604E02FF0E0EE0FFF1FF1
:1040F000EE0FFF1FEE0FFF1FCF01880F991F880FD4
:10410000991FE80FF91FE25EFB4F60817181802FDC
:104110000E94DD07ADB7BEB718970FB6F894BEBFC3
:104120000FBEADBFEDB7FEB731961296DC93CE93BE
:1041300011972FE131E03383228364837583868373
:1041400097830E949E492DB73EB7285F3F4F0FB619
:10415000F8943EBF0FBE2DBFBACF80911504909149
:10416000160400D000D000D0EDB7FEB73196ADB741
:10417000BEB712969C938E93119780E091E0938343
:104180008283048315820E949E492DB73EB72A5F21
:104190003F4F0FB6F8943EBF0FBE2DBF98CF90E0B3
:1041A000880F991F865A9A4FFC0125913491F90185
:1041B000659174918091190490911A040E9411499B
:1041C0008091190490911A0463E472E00E942349DB
:1041D000BC0190931A0480931904E0911A03F091A2
:1041E0001B03808191810E94314980E090E065E469
:1041F00072E00E942349BC0190931A048093190431
:10420000E0911A03F0911B03828193810E9431494E
:1042100020E030E090E2A0911A03B0911B03A20FBE
:10422000B31FEC911196FC91DF010D900020E9F78E
:104230001197AE1BBF0BA03180F48A2FE0911A03B7
:10424000F0911B03E20FF31F0190F081E02DE80FC6
:10425000F11D90838F5F803188F3E0911A03F09114
:104260001B03E20FF31F0190F081E02D108A2E5FF7
:104270003F4F2430310579F60895AF92BF92CF9227
:10428000DF92EF92FF920F931F93CF93DF93F894F7
:104290008091C004882379F4B0E8AB2E78948A2DFD
:1042A000DF91CF911F910F91FF90EF90DF90CF9012
:1042B000BF90AF9008958091BE049091BF0467E4D1
:1042C00072E00E9423496C010EE213E0A0E8AA2EDE
:1042D000BB24E0900403F0900503F801C591D4914C
:1042E000FE0165917491D7018D919C910E941149B5
:1042F000E0900403F0900503F70160817181C6012D
:104300000E942849009741F42396FE019491219739
:10431000FE018491A92EB82E0E5F1F4FF3E00837DF
:104320001F07D9F6BB20C9F011E080E090E067E4F8
:1043300072E00E942349BC01812F90E0880F991FF1
:10434000E0910403F0910503E80FF91F808191814A
:104350000E9431491F5FB11640F7E091BE04F09111
:10436000BF0480E4DF011D928A95E9F71092C00432
:1043700095CFFC019081992351F08091C00085FF79
:10438000FCCF9093C600319690819923B1F780912C
:10439000C00085FFFCCF8AE08093C600E091150441
:1043A000F091160480E4DF011D928A95E9F70895E3
:1043B000DF92EF92FF920F931F938B017A0160E0DF
:1043C00070E04AE050E00E94E046D62EC80160E06E
:1043D00070E04AE050E00E94E046062FC70160E02E
:1043E00070E040E150E00E94E046162F80911504F5
:1043F000909116042DB73EB72A5030400FB6F8946E
:104400003EBF0FBE2DBFEDB7FEB73196ADB7BEB7FD
:1044100012969C938E9311978CE492E093838283FF
:10442000D482158206831782108711860E949E49C6
:1044300080911504909116042DB73EB7265F3F4F2B
:104440000FB6F8943EBF0FBE2DBF0E94B9218D2D2F
:10445000602F412F0E9424070E946B071F910F912C
:10446000FF90EF90DF900895AF92BF92CF92DF92CE
:10447000EF92FF920F931F93CF93DF93C0E0D0E0B2
:104480007CE5C72E72E0D72EE0901504F09016045C
:10449000CE01FE01EE0FFF1FEE0FFF1FEE0FFF1FFD
:1044A000880F991FE80FF91FEF5DFC4F0181128102
:1044B000CE01FE01EE0FFF1FEE0FFF1FEE0FFF1FDD
:1044C000880F991FE80FF91FEF5DFC4FA380B480A0
:1044D000CE01FE01EE0FFF1FEE0FFF1FEE0FFF1FBD
:1044E000880F991FE80FF91FEF5DFC4F458156813A
:1044F000CE01FE01EE0FFF1FEE0FFF1FEE0FFF1F9D
:10450000880F991FE80FF91FEF5DFC4F2781308559
:10451000CE01FE01EE0FFF1FEE0FFF1FEE0FFF1F7C
:10452000880F991FE80FF91FEF5DFC4F6185CE01E1
:10453000FE01EE0FFF1FEE0FFF1FEE0FFF1F880F94
:10454000991FE80FF91FEF5DFC4F8081ADB7BEB733
:1045500052970FB6F894BEBF0FBEADBFEDB7FEB712
:1045600031961296FC92EE921197D382C282C48346
:10457000D58317830683B186A08653874287358704
:10458000248766871786808B118A0E949E498091B6
:10459000150490911604EDB7FEB772960FB6F89415
:1045A000FEBF0FBEEDBF0E94B9212196C031D105DB
:1045B00009F06ACFDF91CF911F910F91FF90EF909B
:1045C000DF90CF90BF90AF90089560E070E04AE038
:1045D00050E00E94E046643090F5E62FF0E0EE0FE8
:1045E000FF1FEE0FFF1FEE0FFF1FCF01880F991F58
:1045F000880F991FE80FF91FE25EFB4F8385882320
:1046000079F4E0911504F091160480E390E0918331
:10461000808380911504909116040E94B921089519
:10462000E0911504F091160481E390E0918380837A
:1046300080911504909116040E94B9210895A091CB
:104640001504B0911604E1E7F2E083E101900D92C8
:104650008150E1F7DECF1F93CF93DF93EB0160E052
:1046600070E04AE050E00E94E046162F6430B8F453
:10467000CE0160E070E04AE050E00E94E046812F09
:1046800090E0FC01EE0FFF1FEE0FFF1FE80FF91F78
:10469000EF5FFB4F6483DF91CF911F910895A0914D
:1046A0001504B0911604E1E7F2E083E101900D9268
:1046B0008150E1F780911504909116040E94B92170
:1046C000EACFFF920F931F93CF93DF93EB018A0101
:1046D00060E070E04AE050E00E94E046F62E83E0A1
:1046E0008F1528F1CE010E941348EC01C8010E94E9
:1046F0001348AC01C817D90779F18C179D074CF105
:104700008F2D90E0FC01EE0FFF1FEE0FFF1FE80F53
:10471000F91FEF5FFB4FD183C0835383428381E056
:104720008483DF91CF911F910F91FF900895A09105
:104730001504B0911604E1E7F2E083E101900D92D7
:104740008150E1F780911504909116040E94B921DF
:10475000E8CFAE01EC01D4CF8F2D90E0FC01EE0F3D
:10476000FF1FEE0FFF1FE80FF91FEF5FFB4F1182D6
:104770001082138212821482DF91CF911F910F91C8
:10478000FF9008952F923F924F925F926F927F9287
:104790008F929F92AF92BF92CF92DF92EF92FF9251
:1047A0000F931F93DF93CF9300D000D000D0CDB7ED
:1047B000DEB77A8369838A0160E070E04AE050E006
:1047C0000E94E046643008F062C0E62EFF249701A4
:1047D000220F331F220F331F3C832B83F901EE0D71
:1047E000FF1DEF5FFB4F84818823C9F026960FB62B
:1047F000F894DEBF0FBECDBFCF91DF911F910F9117
:10480000FF90EF90DF90CF90BF90AF909F908F90F0
:104810007F906F905F904F903F902F900895C801C8
:104820000E940F483B014C0189819A8164E872E043
:104830000E942849009709F03CC0F894C701880FEE
:10484000991F880F991F880F991FFC01EE0FFF1FFA
:10485000EE0FFF1FE80FF91FE25EFB4F148683E0A7
:1048600090E0978F868F80819181EB81FC81EE0FA4
:10487000FF1FEE0FFF1FAB81BC81EA0FFB1FEE0F86
:10488000FF1FE05EFB4F918380837894AFCFA091B0
:104890001504B0911604E1E7F2E083E101900D9276
:1048A0008150E1F780911504909116040E94B9217E
:1048B0009DCFF701EE0FFF1FEE0FFF1FEE0FFF1F43
:1048C000FE83ED83EE0FFF1FEE0FFF1F2D813E8154
:1048D000E20FF31FE25EFB4FE584F6840785108943
:1048E000A188B288C388D488258836884788508CA8
:1048F000C401B3019F7720E030E04AE754E40E940E
:1049000031453B014C01C801B701A60195010E9448
:104910003145A20191010E9431459B01AC01C401C6
:10492000B3010E948F430E9494450E94FC438B0177
:10493000672B09F477C037E26031730708F060C075
:1049400089819A8160EB72E00E942849009739F5CD
:10495000ED81FE81EE0FFF1FEE0FFF1F8D819E8107
:10496000E80FF91FE25EFB4F81E08487178F068F07
:1049700080819181EB81FC81EE0FFF1FEE0FFF1F05
:10498000AB81BC81EA0FFB1FEE0FFF1FE05EFB4F08
:104990009183808380819181019691838083898135
:1049A0009A8163EB72E00E942849009709F01ECFBC
:1049B000ED81FE81EE0FFF1FEE0FFF1F2D813E8167
:1049C000E20FF31FE25EFB4F82E08487178F068FB2
:1049D00080819181EB81FC81EE0FFF1FEE0FFF1FA5
:1049E000AB81BC81EA0FFB1FEE0FFF1FE05EFB4FA8
:1049F0009183808380819181019791838083F6CE1A
:104A0000A0911504B0911604EDE9F2E083E1019064
:104A10000D928150E1F780911504909116040E9447
:104A2000B9218ECFA0911504B0911604E9E8F2E007
:104A300084E101900D928150E1F734CF1F93CF9321
:104A4000DF93EB0160E070E04AE050E00E94E04656
:104A5000162F6430D8F4CE010E9413489C01E12F38
:104A6000F0E0EE0FFF1FEE0FFF1FEE0FFF1FCF0155
:104A7000880F991F880F991FE80FF91FE25EFB4FFF
:104A8000378F268FDF91CF911F910895A091150444
:104A9000B0911604E1E7F2E083E101900D928150BC
:104AA000E1F780911504909116040E94B921EACF94
:104AB0001F93CF93DF93EB0160E070E04AE050E09A
:104AC0000E94E046162F6430E0F4CE010E940F48A9
:104AD000E12FF0E0EE0FFF1FEE0FFF1FEE0FFF1FA5
:104AE0009F01220F331F220F331FE20FF31FE25EDD
:104AF000FB4F618B728B838B948BDF91CF911F91D6
:104B00000895809115049091160400D000D000D033
:104B1000EDB7FEB73196ADB7BEB712969C938E93A4
:104B2000119780E091E093838283148315820E9421
:104B30009E4980911504909116042DB73EB72A5FC7
:104B40003F4F0FB6F8943EBF0FBE2DBF0E94B92154
:104B5000DF91CF911F9108951F93CF93DF93EB01C6
:104B600060E070E04AE050E00E94E046162F6430BA
:104B7000E0F4CE010E940F48E12FF0E0EE0FFF1F9E
:104B8000EE0FFF1FEE0FFF1F9F01220F331F220F9B
:104B9000331FE20FF31FE25EFB4F6587768787873F
:104BA000908BDF91CF911F91089580911504909182
:104BB000160400D000D000D0EDB7FEB73196ADB7E7
:104BC000BEB712969C938E93119780E091E09383E9
:104BD0008283148315820E949E49809115049091CE
:104BE00016042DB73EB72A5F3F4F0FB6F8943EBF6D
:104BF0000FBE2DBF0E94B921DF91CF911F91089563
:104C00001F93CF93DF93EB0160E070E04AE050E048
:104C10000E94E046162F643000F5CE0160E070E09F
:104C20004AE050E00E94E046212F30E0F901EE0F0B
:104C3000FF1FEE0FFF1FEE0FFF1F220F331FE20FAC
:104C4000F31FEE0FFF1FEE0FFF1FEE5DFB4F718393
:104C50006083DF91CF911F91089580911504909109
:104C6000160400D000D000D0EDB7FEB73196ADB736
:104C7000BEB712969C938E93119780E091E0938338
:104C80008283148315820E949E498091150490911D
:104C900016042DB73EB72A5F3F4F0FB6F8943EBFBC
:104CA0000FBE2DBF0E94B921DF91CF911F910895B2
:104CB000FF920F931F93CF93DF93EB018A0160E084
:104CC00070E04AE050E00E94E046F62E83E08F1547
:104CD00030F4DF91CF911F910F91FF900895C8019B
:104CE00066E372E00E9428490097A9F0C8016CE3CE
:104CF00072E00E942849009709F442C0C80160E4AC
:104D000072E00E942849009709F447C087EB92E0BF
:104D10000E94B921DECFEF2DF0E0EE0FFF1FEE0F66
:104D2000FF1FCF01880F991F880F991FE80FF91FE8
:104D3000EE0FFF1FE05EFB4F00811181CE0160E0AE
:104D400070E04AE050E00E94E046060F171FEF2D8A
:104D5000F0E0EE0FFF1FEE0FFF1FCF01880F991F2E
:104D6000880F991FE80FF91FEE0FFF1FE05EFB4F42
:104D700011830083DF91CF911F910F91FF900895D0
:104D8000CE010E940F48AB01BC018F2D00E010E066
:104D900020E83FE30E9452119CCFCE010E940F48B1
:104DA000AB01BC018F2D00E010E020E83FE30E9442
:104DB0000B108FCFDF92EF92FF920F931F93CF9341
:104DC000DF93EB018A0160E070E04AE050E00E946E
:104DD000E046D62E83E08D1540F4DF91CF911F91F0
:104DE0000F91FF90EF90DF900895C80166E372E0A5
:104DF0000E9428490097A1F0C8016CE372E00E946C
:104E00002849009779F1C80160E472E00E942849BE
:104E1000009709F450C087EB92E00E94B921DDCFE2
:104E2000CE0160E070E04AE050E00E94E046ED2DE7
:104E3000F0E0EE0FFF1FEE0FFF1F9F01220F331F49
:104E4000220F331FE20FF31FEE0FFF1FE05EFB4F39
:104E500071836083DF91CF911F910F91FF90EF904D
:104E6000DF900895ED2DF0E0EE0FFF1FEE0FFF1F16
:104E7000EE0FFF1FCF01880F991F880F991FE80FB2
:104E8000F91FE25EFB4F608171818D2D0E94DD076D
:104E90007B018C01CE010E940F48A80197010E945E
:104EA0002643AB01BC018D2D00E010E020E83FE37C
:104EB0000E94521192CFED2DF0E0EE0FFF1FEE0F8A
:104EC000FF1FEE0FFF1FCF01880F991F880F991F3B
:104ED000E80FF91FE25EFB4F608171818D2D0E940A
:104EE00062087B018C01CE010E940F48A801970146
:104EF0000E942643AB01BC018D2D00E010E020E8AC
:104F00003FE30E940B1069CF20E030E080E090E0AA
:104F1000E0910403F09105030190F081E02DE80F8A
:104F2000F91F108201968431910591F780E090E09D
:104F3000E0911403F0911503E20FF31F0190F0814B
:104F4000E02DE80FF91F1082E0911603F09117038E
:104F5000E20FF31F0190F081E02DE80FF91F10829E
:104F600001968930910521F780E090E0E0911803E7
:104F7000F0911903E20FF31F0190F081E02DE80F8B
:104F8000F91F1082E0911A03F0911B03E20FF31F47
:104F90000190F081E02DE80FF91F10820196813118
:104FA000910521F7E0911C03F0911D0380E4DF01DE
:104FB000982F1D929A95E9F7E0911504F091160447
:104FC000DF01982F1D929A95E9F7E091BE04F091C8
:104FD000BF04DF011D928A95E9F7E0911904F09171
:104FE0001A0488E2DF011D928A95E9F70895F89482
:104FF0008091BE049091BF0420911C0330911D0349
:10500000DC01F90180E401900D928150E1F781E02B
:105010008093C004E0911C03F0911D0380E4DF0144
:105020001D928A95E9F710921F0310921E0378943F
:1050300008950E94DA0960911B0470911C0442E0FB
:105040000E94353FE0911B04F0911C04A0911B04C9
:10505000B0911C04708160E011962C9130E0622BBD
:10506000732B729562956F7067277F70672770E06A
:1050700080E090E00E94284426E636E64AE952E4C1
:105080000E948F43089560E070E04AE050E00E9483
:10509000E046643078F5862F0E9419282091150487
:1050A00030911604ADB7BEB718970FB6F894BEBFCF
:1050B0000FBEADBFEDB7FEB7319612963C932E935F
:1050C00011972FE131E033832283648375838683D4
:1050D00097830E949E494DB75EB7485F5F4F0FB6FA
:1050E000F8945EBF0FBE4DBF209115043091160499
:1050F000C9010895809115049091160400D000D044
:1051000000D0EDB7FEB73196ADB7BEB712969C93FF
:105110008E93119780E091E093838283648315825C
:105120000E949E494DB75EB74A5F5F4F0FB6F89435
:105130005EBF0FBE4DBF2091150430911604C9010A
:105140000895DF92EF92FF920F931F93D82E7A016A
:105150008B01CB01BA0120E030E040E050E00E943A
:105160008B43882334F1C801B70120E030E040E2EE
:1051700050E40E942D451816FCF40CE010E18D2D32
:105180000E94DA09E0911B04F0911C040083E09175
:105190001B04F0911C04118360911B0470911C048A
:1051A00042E00E94083F1F910F91FF90EF90DF9027
:1051B000089500E010E0E3CFC801B70126E636E627
:1051C0004AE952E40E9431450E9465440E94FC4332
:1051D000062F02950F70162F1295107FD0CF1F93B8
:1051E000CF93DF93EB0160E070E04AE050E00E9473
:1051F000E046162F6430A0F5CE010E940F48E12F43
:10520000F0E0EE0FFF1FEE0FFF1FEE0FFF1F9F01DD
:10521000220F331F220F331FE20FF31FE25EFB4FFB
:1052200063A374A385A396A3E12FF0E0EE0FFF1F05
:10523000EE0FFF1FEE0FFF1FCF01880F991F880F82
:10524000991FE80FF91FE25EFB4F43A154A165A12E
:1052500076A1812F0E94A128DF91CF911F910895FF
:10526000809115049091160400D000D000D0EDB7C5
:10527000FEB73196ADB7BEB712969C938E93119739
:1052800080E091E093838283148315820E949E497B
:1052900080911504909116042DB73EB72A5F3F4FB9
:1052A0000FB6F8943EBF0FBE2DBF0E94B921DF910B
:1052B000CF911F9108950E94DA09E0911B04F091AB
:1052C0001C041082E0911B04F0911C041182609177
:1052D0001B0470911C0442E00E94083F0895F8945A
:1052E000E0911B04F0911C046083E0911B04F09199
:1052F0001C04418360911B0470911C0442E00E94D5
:10530000083F789408950F931F93182FF894E09115
:105310001B04F0911C048AE08083E0911B04F0914F
:105320001C0480E2818360911B0470911C04812F16
:1053300042E00E94083FE0911B04F0911C0410829F
:10534000E0911B04F0911C04118260911B04709188
:105350001C04812F42E00E94083FE0911B04F09161
:105360001C0481E08083E0911B04F0911C048FEF0A
:10537000818360911B0470911C04812F42E00E9484
:10538000083FE0911B04F0911C0485E08083E091CC
:105390001B04F0911C048DE1818360911B047091CA
:1053A0001C04812F42E00E94083FE0911B04F09111
:1053B0001C0487E08083E0911B04F0911C0403E04F
:1053C000018360911B0470911C04812F42E00E94B4
:1053D000083FE0911B04F0911C0489E08083E09178
:1053E0001B04F0911C04018360911B0470911C0448
:1053F000812F42E00E94083FE0911B04F0911C04C1
:1054000082E18083E0911B04F0911C0488E7818392
:1054100060911B0470911C04812F42E00E94083FA0
:1054200078941F910F9108950F931F93082F162FB3
:10543000F8940E94DA3E0E94043F802F0E94E63ECC
:105440000E94043F812F0E94E63E0E94043F0E947A
:10545000DA3E0E94043F802F81600E94E63E0E9457
:10546000043F0E94FA3E182F0E94043F0E94E23E31
:105470007894812F1F910F9108951F920F920FB66C
:105480000F920BB60F9211242F933F934F935F937C
:105490006F937F938F939F93AF93BF93EF93FF93FC
:1054A00080E468E00E94142A982F80910C038823DE
:1054B00029F490930A0381E080930C03FF91EF910C
:1054C000BF91AF919F918F917F916F915F914F911C
:1054D0003F912F910F900BBE0F900FBE0F901F901A
:1054E000189588B1886388B980E465E042E20E943B
:1054F0006F2980E460E04FEF0E946F2980E461E053
:105500004FEF0E946F2980E462E048EF0E946F290C
:1055100080E463E043E00E946F2980E464E040E0BF
:105520000E946F2980E466E04FEF0E946F2980E4BB
:1055300069E00E94142AE9E6F0E0808183608083BC
:10554000E89A84B5826084BD88E287BDEEE6F0E02B
:1055500080818260808316BC85B5856085BD089595
:105560001F93162F0E94C80963E10E94142A21E0AC
:1055700030E002C0220F331F1A95E2F7822309F0B0
:1055800081E01F9108951F9360E070E04AE050E0D1
:105590000E94E046162F643020F5862F65E00E94B9
:1055A000B02A882379F4E0911504F091160481E380
:1055B00090E0918380832091150430911604C901F5
:1055C0001F910895812F66E00E94B02A882359F325
:1055D000E0911504F091160480E390E091838083BC
:1055E000EACF809115049091160400D000D000D02D
:1055F000EDB7FEB73196ADB7BEB712969C938E93BA
:10560000119780E091E093838283148315820E9436
:105610009E498DB79EB706960FB6F8949EBF0FBEF3
:105620008DBF2091150430911604C9011F91089572
:105630001F930E94C809182F62E10E94142A482F64
:105640004062812F62E10E946F2980E197E2019719
:10565000F1F71F9108951F930E94C809182F62E166
:105660000E94142A482F4F7D812F62E10E946F29EA
:105670001F9108950F931F930E94C809082F62E19C
:105680000E94142A182F1F7B802F62E1412F0E9455
:105690006F291064802F62E1412F0E946F291F91B2
:1056A0000F9108952F923F924F925F926F927F9247
:1056B0008F929F92BF92CF92DF92EF92FF920F93C1
:1056C0001F93CF93DF93B82E882E99242401440C86
:1056D000551C440C551CF201E80DF91DEF5FFB4F02
:1056E0008481882309F0C8C08091B100887F8093AD
:1056F000B1003401660C771C660C771C660C771CB5
:105700008301000F111F000F111F060D171D025EF0
:105710001B4FF801268C378C6189728983899489A3
:105720002585368547855089C588D688E788F08CD9
:105730000E943145A70196010E9431456B017C0111
:1057400081E090E0F801978F868F05C08B2D68E38C
:105750007FEF0E9417068B2D64E00E94B02A8823F9
:10576000A9F7C701B6010E9494450E94FC438B0132
:10577000C0E0D0E00CC08B2D61E070E00E94170605
:105780008B2D64E00E94B02A882321F42196C01753
:10579000D10788F3C701B60120E030E040E85EE3BE
:1057A0000E9431450E9494450E94F7439B01AC0141
:1057B0008B2DB9010E941706C701B60120E030E029
:1057C00040E45FE30E9431450E9494450E94F74304
:1057D0009B01AC01285C30408B2DB9010E9417065B
:1057E000F301EE0FFF1FEE0FFF1FE60DF71DE25E48
:1057F000FB4F85E090E0978F868F05C08B2D61E091
:1058000070E00E9417068B2D64E00E94B02A882366
:10581000A9F38301000F111F000F111F060D171DA3
:10582000025E1B4FF801378E268E880C991C860C61
:10583000971C880C991C880C991C82E294E0880EB5
:10584000991EF401608171818B2D0E941706F80169
:1058500011821082F201EE0FFF1FEE0FFF1FE40D09
:10586000F51DEE0FFF1FE05EFB4F118210828B2DA6
:105870000E943A2B0E940206DF91CF911F910F9157
:10588000FF90EF90DF90CF90BF909F908F907F9090
:105890006F905F904F903F902F900895FF920F93DD
:1058A0001F93F62E0E94C809182F62E10E94142A45
:1058B000082F812F60E00E94142A91E0F916A9F0C8
:1058C00092E0F916B9F00F7E3FEEF32EF822812F09
:1058D00062E1402F0E946F29812F60E04F2D0E94CE
:1058E0006F291F910F91FF90089500615FEEF52ED3
:1058F000F822EDCF40E1F42EF82AE9CFFF920F9382
:105900001F938B0160E070E04AE050E00E94E046A7
:10591000F62EC80160E070E04AE050E00E94E046E8
:10592000062F23E02F1508F43FC0033058F5EF2D64
:10593000F0E0EE0FFF1FEE0FFF1FEE0FFF1FCF0176
:10594000880F991F880F991FE80FF91FE25EFB4F20
:1059500007A3EF2DF0E0EE0FFF1FEE0FFF1FEE0F7E
:10596000FF1FCF01880F991F880F991FE80FF91F9C
:10597000E25EFB4F67A18F2D0E944E2C1F910F916D
:10598000FF900895A0911504B0911604EBECF2E09D
:1059900088E101900D928150E1F78091150490917A
:1059A00016040E94B921EACF809115049091160443
:1059B00000D000D000D0EDB7FEB73196ADB7BEB77E
:1059C00012969C938E93119780E091E0938382834B
:1059D000F48215820E949E498091150490911604CC
:1059E0002DB73EB72A5F3F4F0FB6F8943EBF0FBEAC
:1059F0002DBF0E94B92199CFFF920F931F93082FBB
:105A0000F62E0E94C809182F62E10E94142AFF2076
:105A1000E1F4482F4860812F62E10E946F29E02F56
:105A2000F0E0EE0FFF1FEE0FFF1FEE0FFF1FCF0185
:105A3000880F991F880F991FE80FF91FE25EFB4F2F
:105A4000F3861F910F91FF900895482F477FE3CF72
:105A50000F93DF93CF9300D0CDB7DEB77A836983FE
:105A600060E070E04AE050E00E94E046062F898145
:105A70009A8160E070E04AE050E00E94E046043025
:105A800030F4662351F4802F60E00E94FC2C0F90CC
:105A90000F90CF91DF910F910895802F61E00E94C8
:105AA000FC2C0F900F90CF91DF910F91089580E023
:105AB00060E00E94FC2C81E060E00E94FC2C82E00F
:105AC00060E00E94FC2C83E060E00E94FC2C15BC8E
:105AD0001092B1000895AF92BF92CF92DF92EF92F1
