:100000000C94CD020C94EA020C94EA020C94EA02DD
:100010000C94EA020C94EA020C94EA020C94EA02B0
:100020000C94EA020C94A6210C94EA020C94EA02C5
:100030000C94EA020C94EA020C94EA020C94EA0290
:100040000C9447210C94EA020C94EA020C94EA0204
:100050000C94FD200C94EA020C94EA020C94EA023F
:100060000C94EA020C94EA020C94EA020C94EA0260
:10007000260D5B0DBA0D060E840EC50E430EFE0E48
:100080000F0C150F8C0CE20C831456141C14DF1388
:10009000C01340132A13AA13EA12BD1449152E29BE
:1000A000122A7E2A682A522A3E2A1D2B072BFB2A57
:1000B000EF2ADB2AC72AB32A9F2AE829D429C02994
:1000C000AC299829842970295C2946292C290B29D7
:1000D000FC293229EB282C2A312B6E616E00696EC7
:1000E000660021020702F201D801C001A7018E01BA
:1000F0006F01530132011301FA00FD000B52756EBE
:1001000020696E7465726E616C0A70726F677261DD
:100110006D000016010A53657420636F6E7374617D
:100120006E740A616E67756C6172207370656564C8
:100130000000350109446566696E65206F70746959
:1001400063616C0A7A65726F20706F736974696F8E
:100150006E00005601084C6F6164206C6173740A74
:10016000636F6E66696775726174696F6E000072A5
:100170000107536176652063757272656E740A6358
:100180006F6E66696775726174696F6E00009101C8
:10019000064368616E6765206D6F746F720A7375D0
:1001A00062737465700000AA010552756E207A654D
:1001B000726F0A63616C6962726174696F6E0000CC
:1001C000C3010453657420737465700A6D756C7493
:1001D00069706C6965720000DB01034368616E67DA
:1001E0006520737465700A776169742074696D6540
:1001F0000000F501024368616E67652073746570E5
:100200000A756E697400000A02014368616E6765D1
:10021000206D6F746F720A706F736974696F6E000E
:10022000002402004D6F746F72204472697665720B
:100230000A2000003E04340429041F0412040504AB
:10024000F803EC03E003D203C403B603A70394034B
:1002500081036F035D034D033D032C031B030A035E
:10026000F902E602D402C702B602A4029302820295
:1002700072027602009E444247524541444F555413
:1002800000008602019D4745544D4F54535441543C
:100290004500009702069C53455450524F47535413
:1002A00045500000A802029B454E4142464F524233
:1002B0005A4F4E450000BA02039A534554464F52D6
:1002C000425A4F4E450000CB02009953544F5041C3
:1002D0004C4C0000D8020098464143544F525952AA
:1002E000455345540000EA020397534554434F4E8B
:1002F000535453504545440000FD02029653455463
:100300005741495454494D4500000E030195474556
:10031000545741495454494D4500001F030294531A
:1003200045545355425354455053000030030193F4
:10033000474554535542535445505300004103021E
:100340009253455446554C4C524F540000510301B2
:100350009147455446554C4C524F5400006103029E
:100360009053455447454152524154494F00007300
:1003700003018F47455447454152524154494F006C
:10038000008503028E5345544F50545A45524F50E6
:100390004F5300009803018D4745544F50545A4520
:1003A000524F504F530000AB03018C474554414E10
:1003B000414C4F470000BA03018B49534D4F5649FA
:1003C0004E470000C803008A4C4F4144434F4E46FD
:1003D0000000D603008953415645434F4E46000066
:1003E000E4030288474554504F530000F00302874E
:1003F000454E41424C450000FC0301865A45524F90
:1004000052554E0000090403854D4F564552454C48
:100410000000160403844D4F56454142530000230B
:100420000401832A49444E00002D0400822A4944D5
:100430004E3F0000380400812A5253540000420409
:100440000080000000000000FFFF0000000000002E
:100450000000010001000000000000000000FFFF9C
:100460000000000000407A10F35A00A0724E1809F4
:100470000010A5D4E80000E87648170000E40B540B
:10048000020000CA9A3B000000E1F50500008096DA
:100490009800000040420F000000A086010000000C
:1004A000102700000000E8030000000064000000C6
:1004B00000000A00000000000100000000002C768F
:1004C000D888DC674F0823DFC1DFAE59E1B1B796AA
:1004D000E5E3E453C63AE651997696E8E6C2842607
:1004E000EB898C9B62ED407C6FFCEFBC9C9F40F2E3
:1004F000BAA56FA5F490055A2AF75C936B6CF9675F
:100500006DC11BFCE0E40D47FEF520E6B500D0ED23
:10051000902E0300943577050080841E080000208B
:100520004E0A000000C80C333333330F986E128329
:100530001141EF8D2114893BE65516CFFEE6DB18FD
:10054000D1844B381BF77C1D901DA4BBE4242032C2
:1005500084725E228100C9F124ECA1E53D274E4161
:100560004E494E495459494E46CDCCCC3D0AD7232D
:100570003C17B7D13877CC2B329595E6241FB14F75
:100580000A000020410000C84200401C4620BCBEBA
:100590004CCA1B0E5AAEC59D740011241FBECFEF6E
:1005A000D0E1DEBFCDBF12E0A0E0B1E0ECECF8E6B8
:1005B00002C005900D92A839B107D9F724E0A8E947
:1005C000B2E001C01D92AC31B207E1F70E94A22750
:1005D0000C9464340C940000CF93DF9377FD4EC0ED
:1005E00048B190E0FC01EE0FFF1F319621E030E0B2
:1005F00001C0220FEA95EAF72095242328B977FD58
:100600004EC061157105B9F1AC01440F551F21E0D1
:1006100030E001C0220F4A95EAF7B22FA22FA09531
:1006200040E050E027E2289FF001299FF00D1124BF
:10063000EA56FC4F88B18B2B88B98DE08A95F1F78B
:10064000000088B18A2388B980819181892B71F05B
:1006500080E090E0C7E8D3E12197F1F700C0000007
:1006600001962081318182179307A0F34F5F5F4F7E
:1006700046175707F9F6DF91CF910895E8B190E05A
:10068000AC01440F551F4F5F5F4F21E030E001C0C8
:10069000220F4A95EAF72E2B28B977FFB2CF719532
:1006A00061957109AECF80919E02809587FD04C04F
:1006B00086FF04C086E0089587E0089585FF02C0A4
:1006C00085E0089584FF02C084E0089583FF02C09E
:1006D00083E0089580FD02C08AE2089580E00895D5
:1006E0004F925F926F927F928F929F92AF92BF9242
:1006F000CF92DF92EF92FF92CF93DF9320E030E032
:10070000C7E285E5882E982CA82C80E4B82EC12C51
:10071000D12C98ECE92E93E4F92E40E050E060E80B
:1007200070E4412C512CE0E86E2EEFE37E2ED1E0F8
:10073000A3E0B0E0C29FF001C39FF00D1124EC587C
:10074000FC4F10821182128213821482158216824B
:1007500017821186108612861386148615861686D1
:100760001786108A818A928AA38AB48AC58AD68A11
:10077000E78AF08E418F528F638F748F468E578E2B
:1007800060A271A2D58FB3A3A2A382A193A1880F67
:10079000991F019795A384A316A22F5F3F4F243082
:1007A000310541F61092B3021092B2021092710319
:1007B00010927003109214041092150410925503B5
:1007C0001092540388E0809356031092A1028AE2AB
:1007D0008093A20292E09093A3021092A40210923E
:1007E000A5028093A60280E18093A70210929E0248
:1007F00010929F021092A002109257031092580379
:100800001092590380E090E0FC01EE0FFF1FEE0F05
:10081000FF1FE80FF91FE65AFC4F14821182108265
:100820001382128201968430910571F720E030E046
:1008300041E0F901EE0FFF1FC901880F991F880FD2
:10084000991F880F991FE80FF91FEC54FD4F108274
:1008500041871282118214821382168215821086B9
:1008600017822F5F3F4F2031310519F781E08093C8
:10087000B402DF91CF91FF90EF90DF90CF90BF90C7
:10088000AF909F908F907F906F905F904F90089562
:100890001092C50085E18093C400E1ECF0E0808116
:1008A00088698083089580E480937C0083E8809346
:1008B0007A0080917A00806480937A0080917A0037
:1008C00086FDFCCF8091780090917900089520E01A
:1008D00030E080E090E0E0919802F0919902019080
:1008E000F081E02DE80FF91F108201968431910507
:1008F00091F780E090E0E091A802F091A902E20F68
:10090000F31F0190F081E02DE80FF91F1082E091B4
:10091000AA02F091AB02E20FF31F0190F081E02DEB
:10092000E80FF91F108201968930910521F780E0C8
:1009300090E0E091AC02F091AD02E20FF31F019064
:10094000F081E02DE80FF91F1082E091AE02F091E6
:10095000AF02E20FF31F0190F081E02DE80FF91FC5
:10096000108201968131910521F7E091B002F0915A
:10097000B10280E4DF01982F1D929A95E9F7E0918A
:100980006E03F0916F03DF01982F1D929A95E9F79E
:10099000E0911004F0911104DF011D928A95E9F7AE
:1009A000E0917203F091730388E2DF011D928A9552
:1009B000E9F708959091C00095FFFCCF8093C600A1
:1009C0000895DC012C91222359F0FC01319690917D
:1009D000C00095FFFCCF2093C60021912111F7CFD5
:1009E0008091C00085FFFCCF8AE08093C600E09133
:1009F0006E03F0916F0380E4DF011D928A95E9F7A1
:100A00000895CF93DF93CEE6D3E0A881B98183E147
:100A1000E8E0F1E001900D928A95E1F788819981F3
:100A2000DF91CF910C94E1040C9A149AE4E7F3E07F
:100A3000178638983C980D9A159A16AA39983D98B9
:100A40000E9A169A1092D1033A983E980F9A179AD6
:100A50001092F8033B983F9815BC1092B10008958E
:100A600091B1A82FB0E0AD014C5F5F4F21E030E0C5
:100A7000F90102C0EE0FFF1F4A95E2F7AF019E2B6E
:100A800091B992B16130C1F09E2B92B997E29A9FD1
:100A9000F0019B9FF00D1124EC58FC4F178697B185
:100AA00001C0220F8A95EAF72095292327B987B13B
:100AB0004095482347B908955E2F5095952392B9E4
:100AC00097E29A9FF0019B9FF00D1124EC58FC4F88
:100AD000678797B101C0220F8A95EAF7292B27B9BA
:100AE00087B1482B47B90895E0EBF0E08081826040
:100AF00080838DE48093B300E0E7F0E08081826042
:100B000080831092B200E1EBF0E080818560808309
:100B100008956115710511F00C94EC02089527E217
:100B2000829FC0011124FC01EC58FC4F808191810F
:100B3000A281B381462F660F550B660B770B840F8E
:100B4000951FA61FB71F84839583A683B7838481CF
:100B50009581A681B78191878087089590917C00C7
:100B6000907E8F71892B80937C0010925503109298
:100B7000540380915603882301F140E080917A006C
:100B8000806480937A0080917A0086FDFCCF9091FA
:100B90007800509179002091540330915503892FAA
:100BA00090E0952B820F931F9093550380935403ED
:100BB0004F5F80915603481708F38091540390913A
:100BC00055036091560370E00E943D2BCB010895C0
:100BD0004F925F926F927F92AF92BF92CF92DF92CD
:100BE000EF92FF920F931F93CF93C82FC82ED12C53
:100BF000F601EE0FFF1FEE0FFF1FEC0DFD1DE65A75
:100C0000FC4F84818111B7C08091B100887F8093AF
:100C1000B10087E28C9D80018D9D100D11240C5830
:100C20001C4FF801A2A0B3A0658976898789908DB1
:100C30002189328943895489418C528C638C748C0C
:100C40000E94732DA30192010E94732D2B013C0180
:100C500081E090E0F80193A382A305C068E37FEFF1
:100C60008C2F0E94EC028C2F0E94AE05C297B0F32D
:100C7000C301B2010E94E02D0E948D2C7B0100E097
:100C800010E00CC061E070E08C2F0E94EC028C2F11
:100C90000E94AE05C29728F00F5F1F4F0E151F056B
:100CA00089F720E030E040E85EE3C301B2010E9432
:100CB000732D0E94E02D0E94862C6115710509F0AC
:100CC0006CC020E030E040E45FE3C301B2010E9469
:100CD000732D0E94E02D0E94862C685C710909F03A
:100CE00060C087E28C9DF0018D9DF00D1124EC58C1
:100CF000FC4F85E090E093A382A305C061E070E023
:100D00008C2F0E94EC028C2F0E94AE05C397B0F787
:100D100087E28C9DF0018D9DF00D1124EC58FC4F65
:100D2000B3A2A2A2608571856115710591F587E274
:100D30008C9DF0018D9DF00D1124EC58FC4F10821C
:100D40001182128213821482158216821782809178
:100D5000B00082608093B0008DE48093B3008091F6
:100D600070008260809370001092B2008091B10098
:100D700085608093B100CF911F910F91FF90EF900C
:100D8000DF90CF90BF90AF907F906F905F904F902B
:100D900008958C2F0E94EC02CACF8C2F0E94EC0287
:100DA00090CF8C2F0E94EC029CCF4F925F926F925B
:100DB0007F928F929F92AF92BF92CF92DF92EF92EB
:100DC000FF920F931F93CF93DF93F894C4E7D3E080
:100DD0008CEF482E80E0582E98EB892E90E0992ECB
:100DE00020EBA22E20E0B22E3AE5E32E33E0F32EE4
:100DF00048EAC42E40E0D42E50EA652E50E0752E0D
:100E000000E010E042E050E0B201CE0108960E94FE
:100E1000F633B80164517F4F44E050E0CE01419673
:100E20000E94F633B80164527F4F44E050E0CE0197
:100E300045960E94F633B80164537F4F44E050E07A
:100E4000CE0149960E94F633B80164547F4F44E0C6
:100E500050E0CE014E960E94F63341E050E0B401DE
:100E6000CE014D960E94F63342E050E0B501CE012E
:100E700082960E94F63342E050E0B601C7010E941C
:100E8000F63342E050E0B301C70102960E94F63308
:100E9000A79682E0480E511C0C5F1F4F8FEF881AF7
:100EA000980A82E0A80EB11C85E0E80EF11C82E0F1
:100EB000C80ED11C82E0680E711C0031110509F0CA
:100EC000A1CFC4EBD2E000E010E04AE050E0B8016E
:100ED000CE010E94F6332A96065F1F4F83E0C43589
:100EE000D80799F77894DF91CF911F910F91FF90D8
:100EF000EF90DF90CF90BF90AF909F908F907F90BA
:100F00006F905F904F9008953F924F925F926F92D3
:100F10007F928F929F92AF92BF92CF92DF92EF9289
:100F2000FF920F931F93CF93DF93F894C4E7D3E01E
:100F30009CEF692E90E0792E20EB822E20E0922EFD
:100F40003AE5C32E33E0D32E48EAA42E40E0B42E77
:100F500050EA452E50E0552EE12CF12C00E010E037
:100F60003324339442E050E0B301CE0108960E944E
:100F7000E63344E050E0B70164517F4FCE01419623
:100F80000E94E63344E050E0B70164527F4FCE0147
:100F900045960E94E63344E050E0B70164537F4F2A
:100FA000CE0149960E94E63344E050E0B701645414
:100FB0007F4FCE014E960E94E63341E050E0B801EB
:100FC00068547F4FCE014D960E94E63342E050E0D8
:100FD000B401CE0182960E94E63342E050E0B501B2
:100FE000C6010E94E63342E050E0B201C60102961B
:100FF0000E94E633F801EE0FFF1FEE0FFF1FE00F18
:10100000F11FE65AFC4F208131818281938128179C
:10101000390709F034820F5F1F4FA79682E0680EF0
:10102000711C84E0E80EF11C82E0880E911C85E0C2
:10103000C80ED11C82E0A80EB11C82E0480E511CE3
:101040000430110509F08ECFC4EBD2E000E010E0CF
:101050004AE050E0B801CE010E94E6332A96065FCE
:101060001F4F83E0C435D80799F77894DF91CF916B
:101070001F910F91FF90EF90DF90CF90BF90AF90B6
:101080009F908F907F906F905F904F903F900895CA
:101090005A9A9BB19F709BB99BB1282F207F922BAE
:1010A0009BB95B9A95E89A95F1F700005B989BB124
:1010B0009F709BB99BB18295807F892B8BB95B9A7E
:1010C00085E88A95F1F700005B9885EE90E001973E
:1010D000F1F700C0000008955A989BB19F709BB92A
:1010E0009BB1282F207F922B9BB95B9A95E89A950C
:1010F000F1F700005B989BB19F709BB99BB1829503
:10110000807F892B8BB95B9A85E88A95F1F700007F
:101110005B9881ED90E00197F1F700C00000089521
:101120008AB18C6F8AB98BB183708BB92FE58AEE47
:1011300090E0215080409040E1F700C000008BB16A
:101140008F708BB98BB180638BB95B9A25E82A9538
:10115000F1F700005B9887EA91E60197F1F700C08C
:1011600000005B9A95E89A95F1F700005B9887E894
:1011700093E10197F1F700C000005B9A95E89A951A
:10118000F1F700005B9887E893E10197F1F700C061
:1011900000008BB18F708BB95D9A5B9A95E89A9538
:1011A000F1F700005B9887EA91E60197F1F700C03C
:1011B000000088E20E946C088CE00E946C0886E0C7
:1011C0000E946C0881E00E946C088FE097E2019712
:1011D000F1F700C00000089581E00E946C088FE0E4
:1011E00097E20197F1F700C00000089582E00E94A5
:1011F0006C088FE097E20197F1F700C000000895B6
:10120000623081F050F0633029F0643071F4805323
:101210000C946C0880570C946C08613039F4805839
:101220000C946C0880540C946C0808950895CF9326
:10123000DF93EC018881882331F021960E944808D1
:1012400089918111FBCFDF91CF910895EF92FF92A9
:101250000F931F93CF93DF9300D0CDB7DEB728E075
:10126000829FC0011124806469837A830E946C0884
:101270006981E62E7A81F72E8701085F1F4FF701FB
:1012800081917F010E944808E016F106C1F70F9096
:101290000F90DF91CF911F910F91FF90EF900895E4
:1012A0004F925F926F927F928F929F92AF92BF9276
:1012B000CF92DF92EF92FF920F931F93CF93DF9322
:1012C000CDB7DEB728970FB6F894DEBF0FBECDBFFF
:1012D000F82ECB01BA01A90198010E94732D4B0190
:1012E0005C0147E2F49E9001112489010C581C4FC7
:1012F000F801658976898789908D218932894389AA
:101300005489C18CD28CE38CF48C0E94732DA7017C
:1013100096010E94732D20E030E044EB53E40E94DC
:10132000142CA50194010E94732D0E94E02D6B01E5
:101330007C01F80144805580668077800E94862C6D
:10134000CB01770FAA0BBB0B480E591E6A1E7B1EE2
:10135000F801448255826682778265897689878919
:10136000908D21893289438954892D833E834F830F
:101370005887418C528C638C748C228533854485CC
:10138000558529833A834B835C832D813E814F8130
:1013900058850E94732DA30192010E94732D20E0B5
:1013A00030E044EB53E40E94142CA50194010E9408
:1013B000732DA70196010E94A22B29813A814B81AE
:1013C0005C810E94A32BF8016287738784879587CD
:1013D00028960FB6F894DEBF0FBECDBFDF91CF9138
:1013E0001F910F91FF90EF90DF90CF90BF90AF9043
:1013F0009F908F907F906F905F904F900895CF92C5
:10140000DF92EF92FF92CF93DF93EB0127E2829F6F
:10141000C0011124FC01EC58FC4F61897289838959
:101420009489218D328D438D548DC588D688E78867
:10143000F08C0E94732DA70196010E94732D9B01D1
:10144000AC0160E070E084EB93E40E94142C6B012B
:101450007C01BE01DD0F880B990B0E94BE2C9B0105
:10146000AC01C701B6010E94732DDF91CF91FF90AF
:10147000EF90DF90CF9008954F925F926F927F929E
:101480008F929F92AF92BF92CF92DF92EF92FF9294
:101490000F931F93CF93DF93CDB7DEB728970FB687
:1014A000F894DEBF0FBECDBFF82ECB01BA01A90163
:1014B00098010E94732D4B015C0147E2F49E90015C
:1014C000112489010C581C4FF80165897689878998
:1014D000908D2189328943895489C18CD28CE38CC7
:1014E000F48C0E94732DA70196010E94732D20E0B9
:1014F00030E040E05FE30E94732DA50194010E945B
:10150000732D0E94E02D6B017C01F8014480558011
:10151000668077800E94862CCB01770FAA0BBB0BCD
:10152000480E591E6A1E7B1EF8014482558266824F
:101530007782658976898789908D21893289438967
:1015400054892D833E834F835887418C528C638C02
:10155000748C228533854485558529833A834B8352
:101560005C832D813E814F8158850E94732DA3019C
:1015700092010E94732D20E030E040E05FE30E9482
:10158000732DA50194010E94732DA70196010E945D
:10159000A22B29813A814B815C810E94A32BF80107
:1015A000628773878487958728960FB6F894DEBF85
:1015B0000FBECDBFDF91CF911F910F91FF90EF90A4
:1015C000DF90CF90BF90AF909F908F907F906F9063
:1015D0005F904F900895CF92DF92EF92FF92CF935A
:1015E000DF93EB0127E2829FC0011124FC01EC583C
:1015F000FC4F6189728983899489218D328D438D55
:10160000548DC588D688E788F08C0E94732DA70179
:1016100096010E94732D9B01AC0160E070E080E0B8
:1016200090E40E94142C6B017C01BE01DD0F880B3D
:10163000990B0E94BE2C9B01AC01C701B6010E9410
:10164000732DDF91CF91FF90EF90DF90CF900895B1
:10165000F894613081F1F0F06230D1F497E2899F23
:10166000F0011124EC58FC4F608B80819181A281A4
:10167000B38184839583A683B78384819581A68172
:10168000B7810197A109B10984839583A683B783A4
:101690007894089597E2899FF0011124EC58FC4F4B
:1016A000108A80819181A281B38184839583A683EE
:1016B000B7837894089597E2899FF0011124EC583C
:1016C000FC4F608B80819181A281B381848395835B
:1016D000A683B78384819581A681B7810196A11DD8
:1016E000B11D84839583A683B783D2CFE82FF0E022
:1016F000EE0FFF1FEE51FF4F85919491FC01659114
:10170000749180917203909173030E9467316BE131
:1017100071E080917203909173030E9479319093EC
:10172000730380937203E091AE02F091AF02BC01AB
:10173000808191810E94873166E071E080E090E0D5
:101740000E9479319093730380937203E091AE020B
:10175000F091AF02BC01828193810E94873180E0C9
:1017600090E020E2E091AE02F091AF02E80FF91FA5
:10177000A081B181FD0101900020E9F73197EA1BBA
:10178000E03178F4A091AE02B091AF02A80FB91F7A
:101790000D90BC91A02DAE0FB11D2C93EF5FE031E9
:1017A00089F7E091AE02F091AF02E80FF91F0190C6
:1017B000F081E02D108A02968430910599F6089503
:1017C0002F923F924F925F926F927F928F929F9251
:1017D000AF92BF92CF92DF92EF92FF920F931F933F
:1017E000CF93DF93CDB7DEB727970FB6F894DEBF60
:1017F0000FBECDBFE82FF0E0EE0FFF1FEE51FF4F01
:1018000085919491FC013296E4918E2F90E08C307A
:101810009105C8F5FC01E85CFF4F0C94652BE09145
:10182000AA02F091AB02A081B18189E0EBEBF1E07B
:1018300001900D928A95E1F7E091AA02F091AB0236
:10184000A281B38189E0E4ECF1E001900D928A95E8
:10185000E1F7E091AA02F091AB02A481B58189E0A1
:10186000E9EAF1E001900D928A95E1F7E091AA0290
:10187000F091AB02A681B78189E0E2EBF1E0019043
:101880000D928A95E1F780E090E020E2E091AA02D3
:10189000F091AB02E80FF91FA081B181FD01019029
:1018A0000020E9F73197EA1BE83078F4A091AA020A
:1018B000B091AB02A80FB91F0D90BC91A02DAE0F37
:1018C000B11D2C93EF5FE83089F7E091AA02F09107
:1018D000AB02E80FF91F0190F081E02D108602960F
:1018E0008830910599F627960FB6F894DEBF0FBEA3
:1018F000CDBFDF91CF911F910F91FF90EF90DF90BF
:10190000CF90BF90AF909F908F907F906F905F909F
:101910004F903F902F900895A12CB12C412C512C29
:1019200097E2992E29EDC22E21E0D22E34EDE32E3E
:1019300031E0F32E0DEC11E038018091A70290E028
:10194000042C02C0959587950A94E2F780FFB1C2F6
:101950001EE7F201EE0FFF1FEE0FFF1FE40DF51D56
:10196000E65AFC4F84818111E0C2949CF001959C61
:10197000F00D1124EC58FC4F86A1882309F47CC398
:10198000949CF001959CF00D1124EC58FC4F86A11D
:10199000813009F4D1C3949CF001959CF00D112481
:1019A000EC58FC4F86A1823009F4AFC3EFEF4E1A1A
:1019B0005E0A22E0A20EB11C34E04316510409F085
:1019C000BCCF61CFE091AA02F091AB02A081B181BE
:1019D00089E0EFEDF1E001900D928A95E1F7E09159
:1019E000AA02F091AB02A281B38189E0E8EEF1E0B6
:1019F00001900D928A95E1F78091A502E091AA02EB
:101A0000F091AB02282F082E000C330B3F938F93DD
:101A100081EF91E09F938F9385818F9384818F9342
:101A20000E94F831E091AA02F091AB02A681B78141
:101A300089E0E9EFF1E001900D928A95E1F70F90CE
:101A40000F900F900F900F900F901DCFE091AA0272
:101A5000F091AB02A081B18189E0EDE1F1E001906C
:101A60000D928A95E1F7E091AA02F091AB02A28172
:101A7000B38189E0E6E2F1E001900D928A95E1F709
:101A8000E091AA02F091AB02A481B58189E0EFE276
:101A9000F1E001900D928A95E1F7E091AA02F091B0
:101AA000AB02A681B78185E0E8E3F1E001900D92F9
:101AB0008A95E1F7E8CE00E010E0C12CD12CB7E226
:101AC000EB2E84E4282E81E0382E9DE4492E91E00F
:101AD000592E2DE3622E21E0722EDF82CE8280917C
:101AE000A70290E00E8002C0959587950A94E2F7D0
:101AF00080FFDCC18091A402811129C2AEE7FA2ED9
:101B00002E813F81E29EF001E39EF00D1124EC58FE
:101B1000FC4F858D813009F41DC2823009F46AC200
:101B200081111DC080819181A281B381E091AA02BF
:101B3000F091AB02BF93AF939F938F931F92FF924D
:101B40007F926F92E00FF11F81818F9380818F933D
:101B50000E94F8310FB6F894DEBF0FBECDBFAE8144
:101B6000BF811196BF83AE830E5F1F4F149709F09C
:101B7000B6CF89CE812C912C412C512C47E2742E6A
:101B800056E5E52E51E0F52E0BE511E060E6A62EB8
:101B900061E0B62E77E6C72E71E0D72E8091A702BE
:101BA00090E0042C02C0959587950A94E2F780FF97
:101BB000A0C12EE7749CF001759CF00D1124EC5827
:101BC000FC4F858D882309F496C1749CF001759CA7
:101BD000F00D1124EC58FC4F858D813009F463C25F
:101BE000749CF001759CF00D1124EC58FC4F858D10
:101BF000823009F472C23FEF431A530A82E0880E22
:101C0000911C94E04916510449F63DCEC12CD12CCB
:101C100037E2F32E0EE611E08091A70290E00C2C43
:101C200002C0959587950A94E2F780FF46C12EE79A
:101C3000FC9CF001FD9CF00D1124EC58FC4F82A19E
:101C400093A1E091AA02F091AB029F938F931F9210
:101C50002F931F930F93C601880F991FE80FF91F49
:101C600081818F9380818F930E94F831AFEFCA1AE0
:101C7000DA0A0FB6F894DEBF0FBECDBF34E0C3164C
:101C8000D10451F600CEC12CD12C77E2F72E00E919
:101C900011E08091A70290E00C2C02C095958795E9
:101CA0000A94E2F780FF23C12EE7FC9CF001FD9C23
:101CB000F00D1124EC58FC4F818D928DA38DB48DC5
:101CC000E091AA02F091AB02BF93AF939F938F93E1
:101CD0001F922F931F930F93C601880F991FE80F30
:101CE000F91F81818F9380818F930E94F831AFEF2C
:101CF000CA1ADA0A0FB6F894DEBF0FBECDBF34E0C1
:101D0000C316D10431F6BFCDC12CD12C17E2F12E70
:101D100006E711E08091A70290E00C2C02C0959597
:101D200087950A94E2F780FFCAC02EE7FC9CF00179
:101D3000FD9CF00D1124EC58FC4F868D978DA0A1D1
:101D4000B1A1E091AA02F091AB02BF93AF939F9330
:101D50008F931F922F931F930F93C601880F991F84
:101D6000E80FF91F81818F9380818F930E94F83152
:101D70008FEFC81AD80A0FB6F894DEBF0FBECDBFDA
:101D8000B4E0CB16D10431F67ECDE12CF12CC12C80
:101D9000D12C07E811E08091A70290E00C2C02C042
:101DA000959587950A94E2F780FF9FC09EE7F6011C
:101DB000EE0FFF1FEE0FFF1FEC0DFD1DE65AFC4F4F
:101DC0008481E091AA02F091AB02882309F479C0E2
:101DD000EE0DFF1DA081B18189E0EEE7F1E00190F9
:101DE0000D928A95E1F73FEFC31AD30A82E0E80E1D
:101DF000F11C94E0C916D10471F645CDE091AA0218
:101E0000F091AB02A081B18189E0E7E9F1E00190B6
:101E10000D928A95E1F7E091AA02F091AB02A281BE
:101E2000B38189E0E0EAF1E010CDC12CD12C57E27A
:101E3000F52E0DE311E08091A70290E00C2C02C07A
:101E4000959587950A94E2F780FF35C08091A402AA
:101E500081117BC02EE7FC9CF001FD9CF00D11244C
:101E6000EC58FC4F80859185E091AA02F091AB027D
:101E70009F938F931F922F931F930F93C601880FE9
:101E8000991FE80FF91F81818F9380818F930E94A2
:101E9000F8318FEFC81AD80A0FB6F894DEBF0FBE1C
:101EA000CDBFB4E0CB16D10431F6EDCCF0E2FF2E7D
:101EB00027CE10E24ECD20E2CECF20E2B9CE20E2F6
:101EC00035CFDF92CF921F929F931F930F93EE0D0A
:101ED000FF1D81818F9380818F930E94F8310FB60F
:101EE000F894DEBF0FBECDBF7ECF90E260CF20E280
:101EF000DCCE20E25FCEE091AA02F091AB02FF922D
:101F0000EF921F922F931F930F93E80DF91D81817C
:101F10008F9380818F932D830E94F8310FB6F894B0
:101F2000DEBF0FBECDBF2D8150CEE091AA02F09151
:101F3000AB02EA0DFB1DA081B18189E0EEE7F1E083
:101F400001900D928A95E1F731CD2EE384CFEEE337
:101F5000FE2ED6CD80819181A281B38189839A831F
:101F6000AB83BC836189728983899489218D328D89
:101F7000438D548D85889688A788B08CC090AA021E
:101F8000D090AB021F92AFEDAF930E94732DA501CD
:101F900094010E94732D9B01AC0160E070E084EB22
:101FA00093E40E94142C4B015C0129813A81B90110
:101FB000330F880B990B0E94BE2C9B01AC01C5010D
:101FC000B4010E94732D9F938F937F936F931F9201
:101FD000FF923F922F92F601E00FF11F81818F93C4
:101FE00080818F930E94F8310FB6F894DEBF0FBE48
:101FF000CDBFB5CD80819181A281B38189839A8340
:10200000AB83BC836189728983899489218D328DE8
:10201000438D548D85889688A788B08CC090AA027D
:10202000D090AB021F92A7EFAF930E94732DA50132
:1020300094010E94732D9B01AC0160E070E080E090
:1020400090E40E94142C4B015C0129813A81B90172
:10205000330F880B990B0E94BE2C9B01AC01C5016C
:10206000B4010E94732D9F938F937F936F931F9260
:10207000FF925F924F92AFCFE091AA02F091AB0234
:102080001F921F937F926F92EA0DFB1D81818F93A8
:1020900080818F930E94F8310F900F900F900F90D6
:1020A0000F900F906DCCE091AA02F091AB02BF921D
:1020B000AF921F922F931F930F93E80DF91D81810B
:1020C0008F9380818F932D830E94F8310FB6F894FF
:1020D000DEBF0FBECDBF2D8183CDE091AA02F0916E
:1020E000AB02DF92CF921F922F931F930F93E80DB5
:1020F000F91D81818F9380818F930E94F8310FB6F3
:10210000F894DEBF0FBECDBF76CDE091AA02F0916C
:10211000AB021F921F93DF92CF92EA0DFB1D8181CC
:102120008F9380818F930E94F8310F900F900F90C2
:102130000F900F900F903ACCE091AA02F091AB0271
:102140001F921F93FF92EF92EA0DFB1D81818F93E7
:1021500080818F930E94F8310F900F900F900F9015
:102160000F900F9018CCCF93DF938091A60282300E
:1021700009F482C0833049F0813039F08091A302A4
:102180008093A602DF91CF9108958091A2020E94D0
:10219000E00BA091AA02B091AB02E091A802F091ED
:1021A000A9026D917C91808191810E947E31892B61
:1021B00009F015C1A091AA02B091AB02E091A8026A
:1021C000F091A90212966D917C911397828193816F
:1021D0000E947E31892B09F0DFC0A091AA02B09144
:1021E000AB02E091A802F091A90214966D917C9146
:1021F0001597848195810E947E31892B09F0A9C0B1
:10220000A091AA02B091AB02E091A802F091A902BC
:1022100016966D917C911797868197810E947E31E9
:10222000892B09F4ABCF88EC0E946C08E091AA02DC
:10223000F091AB02C681D7818881882331F0219645
:102240000E94480889918111FBCFA091AA02B09108
:10225000AB02E091A802F091A90216966D917C91D3
:102260001797868197810E9487318091A30280937E
:10227000A602DF91CF9108959091A2028091A102D0
:10228000981709F47BCF8091A1020E94760B80E819
:102290000E946C08E091AE02F091AF02C081D18142
:1022A0008881882331F021960E9448088991811104
:1022B000FBCFA091AE02B091AF02E091AC02F091E1
:1022C000AD026D917C91808191810E94873180EC7B
:1022D0000E946C08E091AE02F091AF02C281D381FE
:1022E0008881882331F021960E94480889918111C4
:1022F000FBCFA091AE02B091AF02E091AC02F091A1
:10230000AD0212966D917C911397828193810E9408
:1023100087318091A1028093A20280E090E0E09159
:10232000A802F091A902E80FF91FA081B18128E06D
:10233000E2E0F2E001900D922A95E1F702968A30F0
:10234000910569F78091A3028093A602DF91CF9156
:10235000089580EC0E946C08E091AA02F091AB0213
:10236000C481D5818881882331F021960E94480854
:1023700089918111FBCFA091AA02B091AB02E091AB
:10238000A802F091A90214966D917C911597848111
:1023900095810E94873134CF88E80E946C08E091D3
:1023A000AA02F091AB02C281D3818881882331F0E7
:1023B00021960E94480889918111FBCFA091AA0221
:1023C000B091AB02E091A802F091A90212966D9132
:1023D0007C911397828193810E948731FECE80E8A1
:1023E0000E946C08E091AA02F091AB02C081D181F9
:1023F0008881882331F021960E94480889918111B3
:10240000FBCFA091AA02B091AB02E091A802F0919B
:10241000A9026D917C91808191810E948731CACE01
:102420004F925F926F927F928F929F92AF92BF92E4
:10243000CF92DF92EF92FF920F931F93CF93DF9390
:1024400000D000D0CDB7DEB78091A002811105C0C9
:1024500080915903882309F472C02091A20210913F
:10246000A602123081F1113009F481C0133009F055
:1024700062C08091A002811182C4F89480915903B6
:10248000882309F49BC04090580310925803789415
:10249000442009F450C0E091A202F0E0EE0FFF1FCB
:1024A000EE51FF4F85919491FC013296E4918E2F6D
:1024B00090E0FC013197EB30F10508F03CC0EC5B9B
:1024C000FF4F0C94652BF89480915903882309F4ED
:1024D0004BC08091580310925803082E000C990BA2
:1024E0007894820F911D27FD9A956CE070E00E9410
:1024F000512B97FD8BE08093A1028091A00288234D
:1025000059F00E945303811107C08091A7028111E5
:1025100003C081E08093A3028091A002882359F038
:102520000E945303811107C08091A702882319F0EC
:1025300083E08093A3021092A002109259030F909F
:102540000F900F900F90DF91CF911F910F91FF90FF
:10255000EF90DF90CF90BF90AF909F908F907F9043
:102560006F905F904F90089580E090E0B9CF809198
:10257000A002882301F30E945303843009F108F478
:102580004DC2863071F008F43FC28730A1F69091B9
:10259000A70281E089278093A70283E08093A302AA
:1025A00009C09091A70282E089278093A70283E067
:1025B0008093A302133009F460CFBDCF412C67CFC5
:1025C0009091A70288E089278093A70283E08093F7
:1025D000A302F0CF44E6449E402D1124042E000CAB
:1025E000550B660B770B20E030E017E2842C440C8F
:1025F0009908AA08BB088091A70290E0022E02C0A9
:10260000959587950A94E2F780FF1EC08091A402F9
:10261000129FF001139FF00D1124EC58FC4F8823FA
:1026200009F424C280819181A281B381840F951F16
:10263000A61FB71F84839583A683B7838481958162
:10264000A681B781918780872F5F3F4F2430310566
:1026500091F671CF0E94D50681E00E946C088FE050
:1026600097E20197F1F700C000000BE012E083E76A
:102670000E944808D8018D918D018111F9CF5BCF5F
:1026800000E010E0F7E2DF2E8091A70290E0002E3C
:1026900002C0959587950A94E2F780FF54C0D09EBA
:1026A000C001D19E900D112414140CF062C2DC0103
:1026B000AC58BC4F7D0159966D917D918D919C9147
:1026C0005C979B01AC010E94A32BF701618F728F75
:1026D000838F948FD09EC001D19E900D11249C01B8
:1026E0002C583C4F7901D90159966D917D918D916E
:1026F0009C915C9720E030E040E85FE30E940F2C63
:1027000087FD2DC2D09EC001D19E900D11249C0149
:102710002C583C4F7901D90159966D917D918D913D
:102720009C915C9720E030E040E052E40E946E2DE6
:1027300018164CF480E090E0A0E0B2E4F701818F3D
:10274000928FA38FB48F0F5F1F4F0430110509F0D4
:102750009BCFF1CE0E94840781E00E946C08EFE0DD
:10276000F7E23197F1F700C0000001E112E08CE6DA
:102770000E944808D8018D918D018111F9CFDBCEDF
:10278000E12CF12C01E010E08091A70290E00E2CEA
:1027900002C0959587950A94E2F780FD56C1FFEF38
:1027A000EF1AFF0A24E0E216F10471F782E0809349
:1027B000A3028091A2028F5F8093A202BCCE00E0B0
:1027C00010E0A7E2FA2E842C440C9908AA08BB0852
:1027D0008091A70290E0002E02C0959587950A94FB
:1027E000E2F780FF23C0F09EC001F19E900D1124FE
:1027F0009C012C583C4F6901D9015E964D905D902B
:102800006D907C909197C501B4010E94BE2C20E090
:1028100030E040E251E40E94142CA30192010E9496
:10282000A32BF601668F778F80A391A30F5F1F4FB5
:102830000430110569F67FCE20E030E067E2042C19
:10284000000C550841E050E08091A70290E0022E74
:1028500002C0959587950A94E2F780FF21C0629F98
:10286000F001639FF00D1124EC58FC4F82A193A15D
:10287000840D951D93A382A382A193A1892B11F4AA
:1028800053A342A3629FF001639FF00D1124EC5803
:10289000FC4F82A193A1880F991F019795A384A350
:1028A0002F5F3F4F2430310579F645CE20E030E0F0
:1028B00047E252E08091A70290E0022E02C0959577
:1028C00087950A94E2F780FF18C0429FF001439F6A
:1028D000F00D1124EC58FC4F858D840D858F858D6E
:1028E00087FD3BC1429FF001439FF00D1124EC583E
:1028F000FC4F858D83300CF0158E2F5F3F4F2430B9
:102900003105C1F618CE242D34E6230240011124EE
:10291000092C000CAA08BB08E12CF12C17E2D12EDF
:10292000042C000C5508660877088091A70290E0F7
:102930000E2C02C0959587950A94E2F780FF15C08A
:10294000DE9CF001DF9CF00D11249F012C583C4FC0
:10295000D9015D968C915D97813009F43FC1823039
:1029600009F41DC1882309F45FC1BFEFEB1AFB0A0C
:10297000E4E0EE16F104C9F6DECD00E010E077E207
:10298000F72EE2E0EE2E802F2091A70230E0002EFD
:1029900002C0359527950A94E2F720FF2EC0F80172
:1029A000EE0FFF1FEE0FFF1FE00FF11FE65AFC4F67
:1029B00094819111C0CDF09EF001F19EF00D112493
:1029C000EC58FC4F96A1940D96A396A197FD2AC1B1
:1029D000F09EF001F19EF00D1124EC58FC4F96A1F1
:1029E00093300CF016A2F09EF001F19EF00D112430
:1029F000EC58FC4F66A10E94280B0F5F1F4F04305C
:102A0000110509F0C0CF97CD9091A70284E08927E6
:102A10008093A70283E08093A302CCCD882371F03A
:102A2000833009F088CD82E08093A3028091A202D6
:102A30008F5F8093A2021092A402BCCD9091A40259
:102A400081E089278093A402B5CD8E2D0E94E805F0
:102A50002091A702C8010E2C01C0880F0A94EAF742
:102A600082278093A7020E94B31099CE8081918122
:102A7000A281B381880D991DAA1DBB1D84839583F6
:102A8000A683B78384819581A681B781918780874A
:102A9000DBCD14140CF042C18091A5028F5F8093AE
:102AA000A5028091A502803114F01092A5028091B8
:102AB000A502082E000C990BFC01EE0FFF1F880FDA
:102AC000991F880F991F880F991FE80FF91FEC5461
:102AD000FD4F8081882301F38091A502082E000C10
:102AE000990BFC01EE0FFF1F880F991F880F991F8C
:102AF000880F991FE80FF91FEC54FD4F8185811154
:102B0000A8C020E030E047E28091A502082E000C2A
:102B1000990BFC01EE0FFF1FEE0FFF1FE80FF91FCF
:102B2000E20FF31FEE0FFF1FEC54FD4F81819281E6
:102B3000092E000CAA0BBB0B429FF001439FF00D26
:102B40001124EC58FC4F84839583A683B7832F5FB1
:102B50003F4F24303105C1F6EECC558FC3CE80E017
:102B600090E0A0E8BFE3F701818F928FA38FB48F2D
:102B7000C9CDFC01EC58FC4F7F01618D728D838DB6
:102B8000948D20E030E040E05FE30E94732DD70198
:102B900059966D937D938D939C935C979BCDD901B2
:102BA0005E968D919D910D90BC91A02D89839A8305
:102BB000AB83BC83C301B2010E94BE2C20E030E095
:102BC00040E05EE30E94732DAB01BC0109811A81D4
:102BD0002B813C818E2D0E943C0AC7CE8091A4029D
:102BE000D901882309F482C05E968D919D910D9044
:102BF000BC91A02D89839A83AB83BC83C301B201AE
:102C00000E94BE2C20E030E040E251E40E94732D8F
:102C1000AB01BC0109811A812B813C818E2D0E9460
:102C20005009A3CEE6A2D4CE8091A402882309F451
:102C300098C014968D919D910D90BC91A02D880DFA
:102C4000991DAA1DBB1DF90184839583A683B783B3
:102C50008CCE8091A502082E000C990BFC01EE0F82
:102C6000FF1F880F991F880F991F880F991FE80F62
:102C7000F91FEC54FD4F8185813009F05CCC20E0D8
:102C800030E017E2129FD001139FB00D1124AC5811
:102C9000BC4F8D909D90AD90BC9013978091A502F4
:102CA000082E000C990BFC01EE0FFF1FEE0FFF1F0B
:102CB000E80FF91FE20FF31FEE0FFF1FEC54FD4F5B
:102CC00041815281052E000C660B770B480D591D72
:102CD0006A1D7B1D14964D935D936D937C9317979E
:102CE0002F5F3F4F2430310569F625CC5E968D91DC
:102CF0009D910D90BC91A02D89839A83AB83BC8359
:102D0000C301B2010E94BE2CAB01BC0109811A8132
:102D10002B813C818E2D0E94500927CE2FE015C0BB
:102D20008091A502082E000C990BFC01EE0FFF1FED
:102D3000880F991F880F991F880F991FE80FF91F97
:102D4000EC54FD4F80818111C7CE8091A502815046
:102D50008093A5028091A50287FFE2CF2093A50270
:102D6000DFCFF90184819581A681B781840D951DFE
:102D7000A61DB71D84839583A683B783F6CD0E94D5
:102D80005303843009F41CCC48F0863009F409CC94
:102D900008F43ACE873009F4FACB6FCB882309F4D4
:102DA0004DCE833009F43FCE68CB14B88FEF85B990
:102DB00084B5826084BD80E587BDEEE6F0E0808169
:102DC0008260808316BC85B5856085BD089580913D
:102DD000A002811102C08AE208950C945303F89472
:102DE00080915903882331F0809158031092580341
:102DF0007894089580E078940895CF93DF93F894C1
:102E0000C0EBD2E04881598180E194E0FC01A081CF
:102E1000B18120E4FA0101900D922A95E1F721E0B9
:102E2000DC0112962C93E881F98180E4DF011D9288
:102E30008A95E9F71B821A827894DF91CF910895E1
:102E40008F929F92AF92BF92CF92DF92EF92FF92BA
:102E50000F931F93CF93DF93F894809112048823EC
:102E600009F46BC0809110049091110467E172E045
:102E70000E9479316C01E0919802F0919902A08052
:102E8000B180C4E3D2E032E7E32E32E0F32E812CAE
:102E900040E8942EFE0105911491F801659174911A
:102EA000C5010E946731E0919802F0919902A080DB
:102EB000B180B501C6010E947E31892B29F4F80149
:102EC00033969490319784902296EC16FD0611F774
:102ED0008820C9F0C1E067E172E080E090E00E94E4
:102EE0007931EC2FF0E0EE0FFF1F20919802309126
:102EF0009902E20FF31FBC01808191810E9487310A
:102F0000CF5F8C1640F7E0911004F091110480E43B
:102F1000DF011D928A95E9F7109212047894892DA9
:102F2000DF91CF911F910F91FF90EF90DF90CF90A5
:102F3000BF90AF909F908F90089580E8982EEECF2D
:102F40004F925F926F927F928F929F92AF92BF92B9
:102F5000DF92EF92FF920F931F93CF93DF9300D0F6
:102F600000D0CDB7DEB77B018A014AE050E060E0D7
:102F700070E00E944E2FD62E83E08D1508F447C0D6
:102F80006CE172E0C8010E947E31892B39F162E266
:102F900072E0C8010E947E31892B09F497C066E275
:102FA00072E0C8010E947E31892B09F444C089E295
:102FB00092E00F900F900F900F90DF91CF911F91A3
:102FC0000F91FF90EF90DF90BF90AF909F908F9008
:102FD0007F906F905F904F900C94E1040D2D10E066
:102FE0004AE050E060E070E0C7010E944E2FCB0144
:102FF000770FAA0BBB0B27E2209FF001219FF00D5A
:103000001124EC58FC4F84839583A683B7830F90DB
:103010000F900F900F90DF91CF911F910F91FF9024
:10302000EF90DF90BF90AF909F908F907F906F90C8
:103030005F904F90089587E2D89EF0011124EC58DC
:10304000FC4F80809180A280B380618972898389DE
:103050009489218D328D438D548D4588568867889B
:10306000708C0E94732DA30192010E94732D9B010D
:10307000AC0160E070E080E090E40E94142C2B0131
:103080003C01B401990C880B990B0E94BE2C9B014A
:10309000AC01C301B2010E94732D9B01AC01C701B9
:1030A00029833A834B835C830E94643029813A816F
:1030B0004B815C810E94A22BAB01BC0100E010E0BF
:1030C00020E83FE38D2D0E943C0AA1CF87E2D89EE5
:1030D000F0011124EC58FC4F80809180A280B380D5
:1030E0006189728983899489218D328D438D548DB4
:1030F000458856886788708C0E94732DA3019201C1
:103100000E94732D9B01AC0160E070E084EB93E4BE
:103110000E94142C2B013C01B401990C880B990BD3
:103120000E94BE2C9B01AC01C301B2010E94732D11
:103130009B01AC01C70129833A834B835C830E94C6
:10314000643029813A814B815C810E94A22BAB01C2
:10315000BC0100E010E020E83FE38D2D0E94500903
:1031600056CFCF92DF92FF920F931F93CF93DF93AF
:103170006B01EA014AE050E060E070E00E944E2FEF
:10318000F62E23E02617A8F06CE172E0CE010E9433
:103190007E31892BF1F162E272E0CE010E947E3134
:1031A000892B19F166E272E0CE010E947E31892BF3
:1031B00041F0DF91CF911F910F91FF90DF90CF9061
:1031C0000895C6010E946430AB01BC0100E010E02C
:1031D00020E83FE38F2D0E943C0ADF91CF911F91A1
:1031E0000F91FF90DF90CF900895C6010E94643048
:1031F000AB01BC0100E010E020E83FE38F2D0E940E
:10320000500966E272E0CE010E947E31892B89F678
:10321000D8CF4AE050E060E070E0C6010E944E2F37
:1032200027E2F29EF0011124EC58FC4F0481158135
:1032300026813781AB01770F660B770BDB01CA0163
:10324000800F911FA21FB31F84839583A683B7832A
:1032500062E272E0CE010E947E31892B09F0A2CF9A
:10326000C4CF0F931F93CF938B014AE050E060E0EF
:1032700070E00E944E2FC62F4AE050E060E070E000
:10328000C8010E944E2FC43068F5662379F141B120
:103290006C2F70E09B012C5F3F4F81E090E0FC01C0
:1032A00002C0EE0FFF1F2A95E2F79F01342F322B49
:1032B00031B932B1422F4095342332B937E2369FCB
:1032C000F001379FF00D1124EC58FC4F31E03787A7
:1032D00037B101C0880FCA95EAF7832B87B987B148
:1032E000282B27B9CF911F910F91089560E08C2F63
:1032F000CF911F910F910C9430058F929F92AF92B6
:10330000BF92CF92DF92EF92FF920F931F93CF93D2
:103310008B014AE050E060E070E00E944E2FC62F23
:10332000643008F072C06CE172E0C8010E947E3126
:10333000892B09F415C162E272E0C8010E947E3156
:10334000892B09F477C066E272E0C8010E947E31E1
:10335000892B09F4BAC097E2C99FF0011124EC58F7
:10336000FC4FC080D180E280F380618972898389BB
:103370009489218D328D438D548D85889688A788B8
:10338000B08C00916E0310916F030E94732DA50104
:1033900094010E94732D9B01AC0160E070E084EB0E
:1033A00093E40E94142C4B015C01B601DD0C880BE8
:1033B000990B0E94BE2C9B01AC01C501B4010E9477
:1033C000732D9F938F937F936F938CE492E09F93E1
:1033D0008F931F930F930E94F8318DB79EB7089675
:1033E0000FB6F8949EBF0FBE8DBF80916E03909173
:1033F0006F03CF911F910F91FF90EF90DF90CF90CF
:10340000BF90AF909F908F90089580916E039091A0
:103410006F031F92CF9325E332E03F932F939F9347
:103420008F930E94F8310F900F900F900F900F9094
:103430000F90DBCF97E2C99FF0011124EC58FC4FAD
:10344000C080D180E280F380618972898389948908
:10345000218D328D438D548D85889688A788B08CB8
:1034600000916E0310916F030E94732DA5019401CA
:103470000E94732D9B01AC0160E070E084EB93E44B
:103480000E94142C4B015C01B601DD0C880B990BDA
:103490000E94BE2C9B01AC01C501B4010E94732D9A
:1034A0009F938F937F936F938CE492E09F938F937E
:1034B0001F930F930E94F8318DB79EB708960FB6F1
:1034C000F8949EBF0FBE8DBF90CF97E2C99FF001C9
:1034D0001124EC58FC4FC080D180E280F3806189D8
:1034E000728983899489218D328D438D548D85888D
:1034F0009688A788B08C00916E0310916F030E948C
:10350000732DA50194010E94732D9B01AC0160E015
:1035100070E080E090E40E94142C4B015C01B60145
:10352000DD0C880B990B0E94BE2C9B01AC01C501E0
:10353000B4010E94732D9F938F937F936F938CE4BC
:1035400092E09F938F931F930F930E94F8318DB752
:103550009EB708960FB6F8949EBF0FBE8DBF45CF9D
:1035600087E2C89FF0011124EC58FC4F80819181C3
:10357000A281B38120916E0330916F03BF93AF930B
:103580009F938F9389E492E09F938F933F932F9320
:103590000E94F8318DB79EB708960FB6F8949EBF7B
:1035A0000FBE8DBF22CF4AE050E060E070E00E9485
:1035B0004E2F643048F587E2689FF0011124EC58E3
:1035C000FC4F448155816681778180819181A28100
:1035D000B381E0916E03F0916F03481759076A07B2
:1035E0007B0749F081E390E09183808380916E03B3
:1035F00090916F03089580E390E0918380838091A0
:103600006E0390916F03089580916E0390916F0304
:103610001F926F9325E332E03F932F939F938F93F5
:103620000E94F8310F900F900F900F900F900F9015
:1036300080916E0390916F0308954AE050E060E03E
:1036400070E00E944E2F6430E0F4862F0E94AE0599
:1036500020916E0330916F039F938F9389E492E0E2
:103660009F938F933F932F930E94F8310F900F9069
:103670000F900F900F900F9080916E0390916F03B9
:10368000089580916E0390916F031F926F9325E3CD
:1036900032E03F932F939F938F930E94F8310F90C6
:1036A0000F900F900F900F900F9080916E0390915C
:1036B0006F0308954AE050E060E070E00E944E2FF2
:1036C000643008F587E2689FF0011124EC58FC4F44
:1036D0002085318580916E0390916F033F932F93E6
:1036E00029E432E03F932F939F938F930E94F83108
:1036F0000F900F900F900F900F900F9080916E038E
:1037000090916F03089580916E0390916F031F92C3
:103710006F9325E332E0E6CF0F931F93CF938B0196
:103720004AE050E060E070E00E944E2FC62F643007
:1037300098F44AE050E060E070E0C8010E944E2F2B
:1037400027E2C29FF0011124EC58FC4F718760877B
:10375000CF911F910F91089580916E0390916F0307
:103760001F92CF9325E332E03F932F939F938F9344
:103770000E94F83180916E0390916F030F900F902B
:103780000F900F900F900F90CF911F910F910C946D
:10379000E1044AE050E060E070E00E944E2F6430A7
:1037A00038F587E2689FF0011124EC58FC4F8189BD
:1037B0009289A389B48920916E0330916F03BF93DE
:1037C000AF939F938F938CE492E09F938F933F935B
:1037D0002F930E94F8318DB79EB708960FB6F894D4
:1037E0009EBF0FBE8DBF80916E0390916F030895B1
:1037F00080916E0390916F031F926F9325E332E0E7
:103800003F932F939F938F930E94F8310F900F90C7
:103810000F900F900F900F9080916E0390916F0317
:1038200008950F931F93CF938B014AE050E060E01F
:1038300070E00E944E2FC62F643088F4C8010E94A9
:10384000643027E2C29FF0011124EC58FC4F618BD9
:10385000728B838B948BCF911F910F9108958091E0
:103860006E0390916F031F92CF9325E332E03F9355
:103870002F939F938F930E94F83180916E039091C4
:103880006F030F900F900F900F900F900F90CF91AC
:103890001F910F910C94E1044AE050E060E070E069
:1038A0000E944E2F643038F587E2689FF0011124A2
:1038B000EC58FC4F85899689A789B08D20916E03BD
:1038C00030916F03BF93AF939F938F9382E991E001
:1038D0009F938F933F932F930E94F8318DB79EB79C
:1038E00008960FB6F8949EBF0FBE8DBF80916E03F1
:1038F00090916F03089580916E0390916F031F92D2
:103900006F9325E332E03F932F939F938F930E9411
:10391000F8310F900F900F900F900F900F908091B3
:103920006E0390916F0308950F931F93CF938B01B4
:103930004AE050E060E070E00E944E2FC62F6430F5
:1039400088F4C8010E94643027E2C29FF00111246C
:10395000EC58FC4F658B768B878B908FCF911F91A6
:103960000F91089580916E0390916F031F92CF93F2
:1039700025E332E03F932F939F938F930E94F8317A
:1039800080916E0390916F030F900F900F900F90A6
:103990000F900F90CF911F910F910C94E1044AE08A
:1039A00050E060E070E00E944E2F643038F587E20E
:1039B000689FF0011124EC58FC4F818D928DA38DEE
:1039C000B48D20916E0330916F03BF93AF939F939B
:1039D0008F9382E991E09F938F933F932F930E945F
:1039E000F8318DB79EB708960FB6F8949EBF0FBEFC
:1039F0008DBF80916E0390916F03089580916E0347
:103A000090916F031F926F9325E332E03F932F93C2
:103A10009F938F930E94F8310F900F900F900F900B
:103A20000F900F9080916E0390916F0308950F9304
:103A30001F93CF938B014AE050E060E070E00E945A
:103A40004E2FC62F643088F4C8010E94643027E2EC
:103A5000C29FF0011124EC58FC4F618F728F838F4D
:103A6000948FCF911F910F91089580916E03909143
:103A70006F031F92CF9325E332E03F932F939F93E1
:103A80008F930E94F83180916E0390916F030F9095
:103A90000F900F900F900F900F90CF911F910F915B
:103AA0000C94E1044AE050E060E070E00E944E2F88
:103AB000643008F587E2689FF0011124EC58FC4F50
:103AC00022A133A180916E0390916F033F932F93B6
:103AD00029E432E03F932F939F938F930E94F83114
:103AE0000F900F900F900F900F900F9080916E039A
:103AF00090916F03089580916E0390916F031F92D0
:103B00006F9325E332E0E6CF0F931F93CF93DF93BC
:103B10001F92CDB7DEB78B014AE050E060E070E065
:103B20000E944E2F643098F4C80169830E94683067
:103B3000698127E2629FF0011124EC58FC4F93A3A6
:103B400082A30F90DF91CF911F910F9108950F9055
:103B5000DF91CF911F910F910C9401052F923F920D
:103B60004F925F926F927F928F929F92AF92BF928D
:103B7000CF92DF92EF92FF920F931F93CF93DF9339
:103B800000D000D0CDB7DEB78B017A014AE050E01B
:103B900060E070E00E944E2F643008F0E3C0262EF3
:103BA000312CF101EE0FFF1FEE0FFF1FE20DF31D91
:103BB000E65AFC4F84818823B9F00F900F900F9044
:103BC0000F90DF91CF911F910F91FF90EF90DF90B9
:103BD000CF90BF90AF909F908F907F906F905F90AD
:103BE0004F903F902F900895C7010E9464306B0161
:103BF0007C016FEC71E0C8010E947E31892B09F4D1
:103C000099C087E2829DF001839DF00D11249F01F0
:103C10002C583C4FD90151968D909D90AD90BC9001
:103C2000549755964D905D906D907C90589759960D
:103C30008D919D910D90BC91A02D89839A83AB832A
:103C4000BC83C701B6019F7720E030E04AE754E427
:103C50000E94732D6B017C01A3019201C501B40187
:103C60000E94732D29813A814B815C810E94732DC2
:103C70009B01AC01C701B6010E94142C0E94E02DEB
:103C80000E948D2C6B017C01CB01892B09F4A3C010
:103C90006031774208F08DC06CED71E0C8010E9480
:103CA0007E31892BF9F487E2829DF001839DF00D2E
:103CB0001124EC58FC4F81E0808BD3A2C2A28081FA
:103CC0009181A281B38184839583A683B783848104
:103CD0009581A681B7810196A11DB11D848395832D
:103CE000A683B7836BED71E0C8010E947E31892BFA
:103CF00009F063CF87E2829DF001839DF00D1124CE
:103D0000EC58FC4F82E0808BD3A2C2A280819181CB
:103D1000A281B38184839583A683B78384819581AF
:103D2000A681B7810197A109B10984839583A683F0
:103D3000B78343CFF89487E2829DF001839DF00D15
:103D40001124EC58FC4F108A83E090E093A382A3E7
:103D500080819181A281B38184839583A683B78377
:103D600078942BCFA0916E03B0916F0383E1E8E0CC
:103D7000F1E001900D928A95E1F780916E039091A8
:103D80006F030F900F900F900F90DF91CF911F91C5
:103D90000F91FF90EF90DF90CF90BF90AF909F90EA
:103DA0008F907F906F905F904F903F902F900C94EA
:103DB000E104A0916E03B0916F0383E1E3E6F2E0CA
:103DC00001900D928A95E1F780916E0390916F03B7
:103DD0000E94E10461CF80916E0390916F031F9266
:103DE0001F922FE432E03F932F939F938F930E9473
:103DF000F83180916E0390916F030F900F900F90A8
:103E00000F900F900F90BDCFF8940E9470030E9406
:103E1000D50678940895EF92FF920F931F93CF9356
:103E2000DF931F92CDB7DEB77B018A014AE050E0F5
:103E300060E070E00E944E2F643070F5C701698326
:103E40000E9468307C01C8010E9468306981E816D0
:103E5000F90659F18E159F05CCF070E0FB01EE0FCD
:103E6000FF1FEE0FFF1F6E0F7F1FFB01E65AFC4F77
:103E7000F182E0829383828381E084830F90DF91DB
:103E8000CF911F910F91FF90EF9008953E2D2F2D10
:103E90007C01832F922FE1CF0F90DF91CF911F9163
:103EA0000F91FF90EF900C94010570E0FB01EE0F75
:103EB000FF1FEE0FFF1F6E0F7F1FFB01E65AFC4F27
:103EC000118210821382128214820F90DF91CF919F
:103ED0001F910F91FF90EF9008950F931F93CF9331
:103EE0008B014AE050E060E070E00E944E2FC62F48
:103EF0006430C0F44AE050E060E070E0C8010E9425
:103F00004E2F8C2F90E0FC01EE0FFF1FEE0FFF1FD6
:103F10008E0F9F1FFC01E65AFC4F6483CF911F91C7
:103F20000F910895CF911F910F910C9401056F92FD
:103F30007F928F929F92AF92BF92CF92DF92EF9239
:103F4000FF920F931F93CF93DF936B01EA01590107
:103F50004AE050E060E070E00E944E2F662E4FE095
:103F6000461708F166E772E0C7010E947E31892B8F
:103F700049F5662D70E0FB01EE0FFF1F660F771FFE
:103F8000660F771F660F771FE60FF71FEC54FD4F84
:103F9000108281E08187128211821482138216823C
:103FA000158210861782DF91CF911F910F91FF909C
:103FB000EF90DF90CF90BF90AF909F908F907F90C9
:103FC0006F900895712C4AE050E060E070E0C60107
:103FD0000E944E2F4301880C991C660C771C660CBE
:103FE000771C660C771C9401260D371DF901EC54E3
:103FF000FD4F6F01728361834AE050E060E070E042
:10400000CE010E944E2FF601748363834AE050E094
:1040100060E070E0C5010E944E2FF6017683658353
:104020004AE050E060E070E0C8010E944E2FF601C7
:104030007087678381E080836BE772E0C7010E942D
:104040007E31892B11F4F60111866FE772E0C7010A
:104050000E947E31892B09F0A6CFF401E60DF71DF1
:10406000EC54FD4F81E081879ECF4AE050E060E054
:1040700070E00E944E2F643008F587E2689FF001DF
:104080001124EC58FC4F8785E0916E03F0916F038B
:1040900081110AC080E390E09183808380916E0358
:1040A00090916F030C94E10481E390E0918380830D
:1040B00080916E0390916F030C94E1040C940105C0
:1040C0000F931F93CF93DF93C0E0D0E003E812E09B
:1040D0008C2F9D2FFC01EE0FFF1F880F991F880F5B
:1040E000991F880F991FE80FF91FEC54FD4F70813D
:1040F0008C2F9D2FFC01EE0FFF1F880F991F880F3B
:10410000991F880F991FE80FF91FEC54FD4F618527
:104110008C2F9D2FFC01EE0FFF1F880F991F880F1A
:10412000991F880F991FE80FF91FEC54FD4F478125
:1041300050858C2F9D2FFC01EE0FFF1F880F991FBC
:10414000880F991F880F991FE80FF91FEC54FD4F36
:10415000258136818C2F9D2FFC01EE0FFF1F880FCC
:10416000991F880F991F880F991FE80FF91FEC54AA
:10417000FD4FA381B4818C2F9D2FFC01EE0FFF1FFB
:10418000880F991F880F991F880F991FE80FF91F33
:10419000EC54FD4F0180F281E02D80916E039091EF
:1041A0006F031F927F931F926F935F934F933F9381
:1041B0002F93BF93AF93FF93EF93DF93CF931F930F
:1041C0000F939F938F930E94F83180916E0390918B
:1041D0006F030E94E10421968DB79EB742960FB6F9
:1041E000F8949EBF0FBE8DBFC031D10509F070CFCE
:1041F000DF91CF911F910F9108951F920F920FB6EB
:104200000F9211248F939F93EF93FF938091C60099
:104210009091B20291111CC08D3009F18A3021F0C9
:104220009091B302903420F1E091B002F091B1028C
:104230008091B302E80FF11D108281E08093B202F9
:104240008091C00085FFFCCF86E08093C60007C048
:104250008091C00085FFFCCF85E18093C600FF916F
:10426000EF919F918F910F900FBE0F901F90189517
:10427000E091B002F091B1029091B302E90FF11D0B
:1042800080838091B3028F5F8093B302E8CF1F9247
:104290000F920FB60F9211248F939F93EF93FF937A
:1042A00093B18091A00281113AC080919F0288232E
:1042B00009F43EC080919E02981709F443C0109201
:1042C0009E0210929F02E0919A02F0919B02EE0FE3
:1042D000FF1FEE0FFF1FEF70FF27F0939B02E0938D
:1042E0009A02199B05C0E260F0939B02E0939A0248
:1042F0001A9B05C0E160F0939B02E0939A02EE0FD7
:10430000FF1FEC5BFB4F8491882349F0E49180917F
:104310005803E80FE093580381E080935903FF911D
:10432000EF919F918F910F900FBE0F901F90189556
:1043300080919E02981739F290939E0281E08093BB
:104340009F02C1CF81E08093A002BBCF1F920F924A
:104350000FB60F9211242F923F924F925F926F925D
:104360007F928F929F92AF92BF92CF92DF92EF9205
:10437000FF920F931F932F933F934F935F936F93EE
:104380007F938F939F93AF93BF93EF93FF93CF93BD
:10439000DF93CDB7DEB7A097DEBFCDBF6E0121E1C1
:1043A000C20ED11CAE014F5F5F4F4A015E8F4D8F31
:1043B000DA8EC98EA12CB12CE12CF12C1F8E18A203
:1043C00057E25E9D80015F9D100D11240C581C4F1B
:1043D000D80114964D915D916D917C9117978D91B7
:1043E0009D910D90BC91A02D3A01681A790AE98D32
:1043F000FA8D61927192FA8FE98FD80151966D9181
:104400007D918D919C91549755962D913D914D9113
:104410005C91589759962D903D904D905C905C978B
:104420000E94732DA20191010E94732DED8DFE8DCE
:104430006193719381939193FE8FED8F6114710459
:1044400009F451C0D80194968D919C919597892B30
:1044500009F418C194968D919C9195970197959622
:104460009C938E9394971A966D917D918D919C91CA
:104470001D9720E030E040E85FE30E946E2D1816A3
:10448000ECF4F80184819581A681B7810196A11D84
:10449000B11D84839583A683B783628573858485E4
:1044A000958520E030E040E85FE30E94A22BD80130
:1044B0001A966D937D938D939C931D97B7E2BE9D45
:1044C0008001BF9D100D11240C581C4FF80162850E
:1044D00073858485958520E030E040E85FEB0E949D
:1044E0000F2C87FD77C13FEFE31AF30A42E0A40ED9
:1044F000B11C54E0E516F10409F062CF88B198A12F
:10450000892B88B9A1E2AA95F1F7000088B1AF8C98
:10451000A82AA8B8BDE0BA95F1F7000018B800E0E5
:1045200010E087E2B82EB09EC001B19E900D11241C
:10453000FC01EC58FC4F7F018685882309F46DC08F
:10454000D6018D919C91181619060CF0C6C0808179
:104550009181A281B381F401408051806280738097
:10456000BC01CD016F5F7F4F8F4F9F4F0E94BE2CCC
:10457000A30192010E946E2D18163CF5D7011D92E1
:104580001D921D921C92139714962D913D914D9161
:104590005C911797298F3A8F4B8F5C8FC301B201C3
:1045A0000E94E02D0E94862CCB01770FAA0BBB0B3B
:1045B000298D3A8D4B8D5C8D281B390B4A0B5B0B7B
:1045C000F7012483358346835783B09EF001B19E63
:1045D000F00D1124EC58FC4F80819181A281B381B0
:1045E0000196A11DB11D80839183A283B38380892D
:1045F000882359F084819581A681B7810196A11DF8
:10460000B11D84839583A683B783B09EF001B19ECC
:10461000F00D1124EC58FC4F16860F5F1F4FF4E08D
:104620008F0E911C22E0C20ED11C0430110509F03E
:104630007ACFA0960FB6F894DEBF0FBECDBFDF9144
:10464000CF91FF91EF91BF91AF919F918F917F910A
:104650006F915F914F913F912F911F910F91FF901B
:10466000EF90DF90CF90BF90AF909F908F907F9012
:104670006F905F904F903F902F900F900FBE0F90D4
:104680001F90189521E0F8012687F701EE0FFF1F14
:10469000EE0FFF1FEE0DFF1DE65AFC4F848177FCE5
:1046A0006BC0811149C081E090E00A2C01C0880FE5
:1046B0000A94EAF7FF8DF82BFF8F27E22E9DF00179
:1046C0002F9DF00D1124EC58FC4F82A193A1880F6F
:1046D000991F019795A384A306CF892B09F495CF41
:1046E00080819181A281B381181619061A061B06D2
:1046F0000CF099C0B09EF001B19EF00D1124EC5861
:10470000FC4F80819181A281B3810197A109B109F8
:1047100080839183A283B3838089882309F475CF32
:1047200084819581A681B7810197A109B10984830C
:104730009583A683B78369CFD8014D915D916D9123
:104740007C91808191814F5F5F4F6F4F7F4F092E2A
:10475000000CAA0BBB0B481759076A077B0709F027
:10476000A2CFF80180819181A281B3818483958356
:10477000A683B783168697CF8823A1F0D8014D91E1
:104780005D916D917C91828193814F5F5F4F6F4FFF
:104790007F4F092E000CAA0BBB0B481759076A075D
:1047A0007B07B1F1C501019621E030E002C0220F84
:1047B000331F8A95E2F7C90138A1382B38A381E06D
:1047C00090E00A2C01C0880F0A94EAF74F8D482B1D
:1047D0004F8F73CFF80184819581A681B7810197AE
:1047E000A109B10984839583A683B7836285738504
:1047F0008485958520E030E040E85FE30E94A32BAC
:10480000D8011A966D937D938D939C931D976BCED3
:10481000F80180819181A281B38184839583A683ED
:10482000B7831686BFCFD4016D917D918D919C91F8
:104830000E94E02D0E94862CCB01770FAA0BBB0BA8
:10484000F70180839183A283B3834480558066807F
:104850007780840D951DA61DB71D84839583A6833F
:10486000B78348CFA1E1B0E0E8E3F4E20C946B2B0E
:104870007C013B016A01FC0117821682838181FF62
:1048800037C39E012F5F3F4F4901F7019381F30129
:1048900093FD859193FF81913F01882309F424C3FF
:1048A000853239F493FD859193FF81913F018532E3
:1048B00039F4B70190E00E94C83156016501E5CF97
:1048C00010E0312C20E02032A0F48B3269F030F47B
:1048D000803259F0833269F420612CC08D3239F076
:1048E000803339F4216026C02260246023C0286010
:1048F00021C027FD27C030ED380F3A3078F426FF6D
:1049000006C0FAE01F9F300D1124132F13C08AE058
:10491000389E300D1124332E20620CC08E3221F4CB
:1049200026FDE2C2206406C08C3611F4206802C065
:10493000883641F4F30193FD859193FF81913F0106
:104940008111C1CF9BEB980F933018F42061805EEA
:1049500006C09BE9980F933008F066C12F7E26FFB2
:1049600016E02F73522E853619F42064522E08C09B
:10497000863621F4922F9068592E02C011111150E1
:1049800057FE07C01C3350F422242394210E27E045
:104990000BC0183038F027E017E005C027E09CE393
:1049A000292E02C0212F212C5601E4E0AE0EB11CAD
:1049B000F6016081718182819381022DA4010E94A0
:1049C00086306C0129812C8720FF02C023FF06C09E
:1049D00051FC06C052FE06C000E205C00DE203C055
:1049E0000BE201C000E08C858C7019F001115DC2F2
:1049F0009EC257FE10C02C0C2C8524FF04C08A8157
:104A0000813309F42A94121474F538E0321578F5DC
:104A100088E0282E2CC056FC2AC0812F90E08C15EF
:104A20009D059CF08CEFC8168FEFD80674F0952D7D
:104A30009068592E0AC0E2E0F0E0EC0FFD1FE10F94
:104A4000F11D8081803319F411501111F4CF57FEFC
:104A50000EC022242394210E812F90E0C816D9067F
:104A60002CF41C1904C02224239401C010E057FE2A
:104A700006C01C141D0434F4C601019605C085E06F
:104A800090E002C081E090E001110196112331F025
:104A9000212F30E02F5F3F4F820F931F232D30E0F7
:104AA0008217930714F4381A01C0312C852D8970B0
:104AB00049F4332039F0B70180E290E00E94C83118
:104AC0003A94F7CF002329F0B701802F90E00E949D
:104AD000C83153FC09C0332039F0B70180E390E0BE
:104AE0000E94C8313A94F7CF57FE4DC02601D7FE39
:104AF00002C0412C512CC6010196841995099401DC
:104B0000280F391F3E872D87960122193109388BCE
:104B10002F87012F10E01195019511093FEF4316E2
:104B2000530629F4B7018EE290E00E94C831C41404
:104B3000D5044CF02F8538892415350524F4ED85EE
:104B4000FE85808101C080E3F1E04F1A51082D8578
:104B50003E852F5F3F4F3E872D87401651062CF034
:104B6000B70190E00E94C831D9CFC414D50441F4F4
:104B70009A81963320F4953319F43C8534FF81E310
:104B8000B70190E04EC08A81813319F02C852F7EC9
:104B90002C87B70190E00E94C831111105C054FC68
:104BA00018C085E690E017C0B7018EE290E00E9441
:104BB000C8311E5F82E001E0080FF401E80FF11D2B
:104BC0008081B70190E00E94C831802F0113F3CF9C
:104BD000E6CF85E490E0B7010E94C831D7FC06C05B
:104BE000C114D10441F43C8534FF05C0D194C19473
:104BF000D1088DE201C08BE2B70190E00E94C8317C
:104C000080E3EAE0CE16D1042CF08F5F9AE0C91A57
:104C1000D108F7CFB70190E00E94C831B701C601B3
:104C2000C0960E94C83156C1833631F0833779F07F
:104C3000833509F058C021C05601F2E0AF0EB11C17
:104C4000F6018081898301E010E0640114C05601FF
:104C5000F2E0AF0EB11CF601C080D18026FF03C088
:104C6000612F70E002C06FEF7FEFC601298B0E94B9
:104C70008E318C0129892F7715C05601F2E0AF0ED5
:104C8000B11CF601C080D18026FF03C0612F70E007
:104C900002C06FEF7FEFC601298B0E946E318C013D
:104CA00029892068522E23FD1AC0832D90E0081711
:104CB0001907A8F4B70180E290E00E94C8313A9445
:104CC000F4CFF60157FC859157FE81916F01B70132
:104CD00090E00E94C83131103A9401501109011539
:104CE000110579F7F7C0843611F0893659F5560168
:104CF00027FF09C0F4E0AF0EB11CF601608171819D
:104D0000828193810AC0F2E0AF0EB11CF60160818E
:104D10007181072E000C880B990B2F76522E97FF6E
:104D200009C090958095709561957F4F8F4F9F4FEB
:104D30002068522E2AE030E0A4010E941A32C82EC8
:104D4000C8183FC0022F853721F40F7E2AE030E0DB
:104D50001DC0097F8F3691F018F4883559F0C4C012
:104D6000803719F0883711F0BFC0006104FF09C017
:104D7000046007C024FF08C0066006C028E030E0D9
:104D800005C020E130E002C020E132E0560107FF1B
:104D900009C0F4E0AF0EB11CF6016081718182811F
:104DA000938108C0F2E0AF0EB11CF6016081718101
:104DB00080E090E0A4010E941A32C82EC8180F7734
:104DC000502E56FE0BC0052D0E7FC11650F454FE1A
:104DD0000AC052FC08C0052D0E7E05C0DC2C052D36
:104DE00003C0DC2C01C0D12E04FF0DC0FE01EC0D70
:104DF000F11D8081803311F4097E09C002FF06C0D5
:104E0000D394D39404C0802F867809F0D39403FD03
:104E100011C000FF06C0D31488F43C0C132D1D19DB
:104E20000EC0D31460F4B70180E290E00E94C83154
:104E3000D394F7CFD31418F43D1802C01C2D312C95
:104E400004FF10C0B70180E390E00E94C83102FF68
:104E500017C001FD03C088E790E002C088E590E03C
:104E6000B7010CC0802F867859F001FF02C08BE299
:104E700001C080E207FD8DE2B70190E00E94C831D9
:104E8000C11638F4B70180E390E00E94C831115098
:104E9000F7CFCA94F401EC0DF11D8081B70190E0C9
:104EA0000E94C831C110F5CF15C0F4E0F31560F5CC
:104EB00084E0381A53FE1FC0011127C03C8533FF20
:104EC0002AC00AED10E0852D8071582EF8018491DA
:104ED000811124C0332009F4F1CCB70180E290E0C5
:104EE0000E94C8313A94F6CFF7018681978126C097
:104EF0008FEF9FEF23C0B70180E290E00E94C8319E
:104F00003A943110F8CFD8CF312CB701802F90E0F0
:104F10000E94C831D3CF0EED10E0D5CF5110805292
:104F2000B70190E00E94C8310F5F1F4FCFCF23E041
:104F3000231510F483E0BDCF312CC0CF6196E2E1A0
:104F40000C94872B84E190E00E942D2E8093980290
:104F500090939902EC01E12CF12C84E190E00E9405
:104F60002D2ECE0DDF1D9983888362E0E60EF11CA5
:104F700074E1E716F10429F0C0919802D0919902EA
:104F8000ECCF88E090E00E942D2E9093A9028093B0
:104F9000A80288E090E00E942D2E9093AB028093AF
:104FA000AA02C0E0D0E0E090A802F090A90289E057
:104FB00090E00E942D2EF701EC0FFD1F918380835E
:104FC000E090AA02F090AB0289E090E00E942D2EC2
:104FD000F701EC0FFD1F918380832296C830D10525
:104FE00011F784E090E00E942D2E9093AD02809303
:104FF000AC0284E090E00E942D2E9093AF0280934B
:10500000AE02C091AC02D091AD0281E190E00E946D
:105010002D2E99838883C091AE02D091AF0281E199
:1050200090E00E942D2E99838883C091AC02D0918C
:10503000AD0281E190E00E942D2E9B838A83C09176
:10504000AE02D091AF0281E190E00E942D2E9B83B1
:105050008A8380E490E00E942D2E9093B102809389
:10506000B00280E490E00E942D2E90936F03809315
:105070006E0380E490E00E942D2E909311048093A3
:10508000100488E290E00E942D2E90937303809389
:1050900072030E94900882E00E946C088FE097E201
:1050A0000197F1F700C0000080E4982E93E8A92E44
:1050B0002DE4B22E88248A9430E5732E45E1642EC7
:1050C000CC24C394D12CC7E2D1E00E9470030E948B
:1050D000670490927C00A0927A0080917A008064AC
:1050E00080937A0080917A0086FDFCCF80917800D1
:1050F000909179008091B00082608093B000B0926E
:10510000B300809170008260809370001092B200B2
:105110008091B10085608093B10014B885B884B5E2
:10512000826084BD77BC80916E00826080936E0047
:1051300016BC85B5856085BD1092C5006092C4001F
:105140008091C10088698093C10080E090E041B106
:105150009C012C5F3F4FB60102C0660F771F2A9556
:10516000E2F79B01342F322B31B932B1422F4095F7
:10517000342332B9C89FF001C99FF00D1124EC58B7
:10518000FC4FD78737B1A601082E01C0440F0A94FF
:10519000EAF7432B47B937B1232B27B9019684305F
:1051A0009105A9F60E9484070E94B31078940E948A
:1051B00010120E94B3108091B202811126C0812F7B
:1051C00090E0FC01E158F109EE31F105B0F4E15B4A
:1051D000FF4F0C94652BE0919802F0919902E484C2
:1051E000F584028513852085318546815781648148
:1051F0007581828193810E94971F0E9410120E94E4
:10520000B3108091B2028823C1F30E94FD160E9460
:105210002017182FD4CFF89480E090E0C89FF001B9
:10522000C99FF00D1124EC58FC4F408151816281DF
:1052300073814483558366837783108A0196843013
:10524000910561F778940E9410120E94B31080912A
:10525000B202882391F2D9CF0E94041FF8940E94D1
:10526000140533CFE0919802F09199026481758121
:10527000828193810E946D1F0E9410120E94B310C0
:105280008091B202882309F4B8CFBFCFE091980291
:10529000F091990246815781648175818281938161
:1052A0000E94AE1D0E9410120E94B3108091B202A3
:1052B000882309F4A2CFA9CFE0919802F091990236
:1052C00064817581828193810E94841D0E941012E5
:1052D0000E94B3108091B202882309F48ECF95CF3B
:1052E000E0919802F0919902828193810E94521D6F
:1052F0000E94E1040E9410120E94B3108091B20239
:10530000882309F47ACF81CFE0919802F091990235
:1053100064817581828193810E94171D0E94101201
:105320000E94B3108091B202882309F466CF6DCF3A
:10533000E0919802F0919902828193810E94CF1CA2
:105340000E94E1040E9410120E94B3108091B202E8
:10535000882309F452CF59CFE0919802F091990235
:1053600064817581828193810E94941C0E94101235
:105370000E94B3108091B202882309F43ECF45CF3A
:10538000E0919802F0919902828193810E944C1CD5
:105390000E94E1040E9410120E94B3108091B20298
:1053A000882309F42ACF31CFE0919802F091990235
:1053B00064817581828193810E94111C0E94101268
:1053C0000E94B3108091B202882309F416CF1DCF3A
:1053D000E0919802F0919902828193810E94C91B09
:1053E0000E94E1040E9410120E94B3108091B20248
:1053F000882309F402CF09CFE0919802F091990235
:105400004681578164817581828193810E940B1F3F
:105410000E9410120E94B3108091B202882309F4F6
:10542000ECCEF3CE80916E0390916F0345E150E096
:1054300064E071E00E94E63380916E0390916F0307
:105440000E94E1040E9410120E94B3108091B202E7
:10545000882309F4D2CED9CEE0919802F091990236
:10546000828193810E9435200E9410120E94B31005
:105470008091B202882309F4C0CEC7CEE091980291
:10548000F0919902828193810E9468300E94E80520
:105490000E9410120E94B3108091B202882309F476
:1054A000ACCEB3CEE0919802F0919902468157813B
:1054B00064817581828193810E94B1180E941012CB
:1054C0000E94B3108091B202882309F496CE9DCE3B
:1054D000E0919802F091990246815781648175812B
:1054E000828193810E94A0170E9410120E94B31023
:1054F0008091B202882309F480CE87CEE091980291
:10550000F0919902A281B381FD0101900020E9F799
:105510003197EA1BFB0B759708F06FCE45E150E021
:1055200064E071E0CD010E94F6330E9410120E94E7
:10553000B3108091B202882309F45FCE66CEE09169
:105540009802F091990264817581828193810E9411
:105550008C1B0E9410120E94B3108091B20288230B
:1055600009F44BCE52CEE0919802F09199028281DB
:1055700093810E945A1B0E94E1040E9410120E9413
:10558000B3108091B202882309F437CE3ECEE09169
:105590009802F0919902828193810E941D1B0E94C2
:1055A000E1040E9410120E94B3108091B20288237D
:1055B00009F423CE2ACEE0919802F09199028281DB
:1055C00093810E94D31A0E94E1040E9410120E944B
:1055D000B3108091B202882309F40FCE16CE0E9438
:1055E00084070E9410120E94B3108091B202882397
:1055F00009F403CE0ACE0E94D5060E9410120E9422
:10560000B3108091B202882309F4F7CDFECDE0916A
:105610009802F091990264817581828193810E9440
:105620007D190E94E1040E9410120E94B310809123
:10563000B202882309F4E1CDE8CDE0919802F0911F
:10564000990264817581828193810E9431190E943F
:1056500010120E94B3108091B202882309F4CDCDBC
:10566000D4CD0E9460200E9410120E94B31080913D
:10567000B202882309F4C1CDC8CDAA1BBB1B51E1DE
:1056800007C0AA1FBB1FA617B70710F0A61BB70BB2
:10569000881F991F5A95A9F780959095BC01CD0157
:1056A000089597FB072E16F4009407D077FD09D0D4
:1056B0000E943D2B07FC05D03EF4909581959F4FAD
:1056C0000895709561957F4F0895EE0FFF1F059027
:1056D000F491E02D09942F923F924F925F926F9236
:1056E0007F928F929F92AF92BF92CF92DF92EF9272
:1056F000FF920F931F93CF93DF93CDB7DEB7CA1BF3
:10570000DB0B0FB6F894DEBF0FBECDBF09942A881D
:10571000398848885F846E847D848C849B84AA84C5
:10572000B984C884DF80EE80FD800C811B81AA8152
:10573000B981CE0FD11D0FB6F894DEBF0FBECDBF1D
:10574000ED0108955058BB27AA270E94BA2B0C944C
:10575000342D0E94262D38F00E942D2D20F039F492
:105760009F3F19F426F40C94232D0EF4E095E7FBEB
:105770000C941D2DE92F0E94452D58F3BA1762078E
:1057800073078407950720F079F4A6F50C94672D2C
:105790000EF4E0950B2EBA2FA02D0B01B90190014C
:1057A0000C01CA01A0011124FF27591B99F0593F90
:1057B00050F4503E68F11A16F040A22F232F342FD8
:1057C0004427585FF3CF469537952795A795F04026
:1057D0005395C9F77EF41F16BA0B620B730B840B3B
:1057E000BAF09150A1F0FF0FBB1F661F771F881FF3
:1057F000C2F70EC0BA0F621F731F841F48F487954B
:1058000077956795B795F7959E3F08F0B0CF93953C
:10581000880F08F09927EE0F9795879508950E94B5
:10582000F92C08F481E008950E94282C0C94342D62
:105830000E942D2D58F00E94262D40F029F45F3F44
:1058400029F00C941D2D51110C94682D0C94232DCE
:105850000E94452D68F39923B1F3552391F3951BCD
:10586000550BBB27AA2762177307840738F09F5F81
:105870005F4F220F331F441FAA1FA9F335D00E2EEE
:105880003AF0E0E832D091505040E695001CCAF75B
:105890002BD0FE2F29D0660F771F881FBB1F26171E
:1058A00037074807AB07B0E809F0BB0B802DBF01F5
:1058B000FF2793585F4F3AF09E3F510578F00C94C4
:1058C0001D2D0C94682D5F3FE4F3983ED4F386952C
:1058D00077956795B795F7959F5FC9F7880F911DE5
:1058E0009695879597F90895E1E0660F771F881FD1
:1058F000BB1F621773078407BA0720F0621B730B84
:10590000840BBA0BEE1F88F7E09508950E948D2C4A
:105910006894B1110C94682D08950E944D2D88F063
:105920009F5798F0B92F9927B751B0F0E1F0660F63
:10593000771F881F991F1AF0BA95C9F714C0B130A4
:1059400091F00E94672DB1E008950C94672D672FA8
:10595000782F8827B85F39F0B93FCCF386957795D3
:105960006795B395D9F73EF49095809570956195BC
:105970007F4F8F4F9F4F0895E89409C097FB3EF4E7
:1059800090958095709561957F4F8F4F9F4F99238C
:10599000A9F0F92F96E9BB279395F695879577950A
:1059A0006795B795F111F8CFFAF4BB0F11F460FFCA
:1059B0001BC06F5F7F4F8F4F9F4F16C0882311F022
:1059C00096E911C0772321F09EE8872F762F05C036
:1059D000662371F096E8862F70E060E02AF09A95D1
:1059E000660F771F881FDAF7880F9695879597F9C6
:1059F0000895990F0008550FAA0BE0E8FEEF161660
:105A00001706E807F907C0F012161306E407F507B2
:105A100098F0621B730B840B950B39F40A2661F026
:105A2000232B242B252B21F408950A2609F4A140C9
:105A3000A6958FEF811D811D089597F99F6780E8D6
:105A400070E060E008959FEF80EC089500240A94D0
:105A50001616170618060906089500240A94121649
:105A60001306140605060895092E0394000C11F47C
:105A7000882352F0BB0F40F4BF2B11F460FF04C029
:105A80006F5F7F4F8F4F9F4F089557FD9058440F82
:105A9000551F59F05F3F71F04795880F97FB991F8D
:105AA00061F09F3F79F0879508951216130614064A
:105AB000551FF2CF4695F1DF08C0161617061806D7
:105AC000991FF1CF86957105610508940895E894B2
:105AD000BB2766277727CB0197F908950E94F92CF9
