:100000000C9417030C949D0E0C9436030C94360339
:100010000C9436030C9436030C9436030C9436037C
:100020000C9436030C9476100C9436030C9436031F
:100030000C9436030C9436030C9436030C9436035C
:100040000C94460E0C9436030C9436030C94360331
:100050000C94F80D0C9436030C9436030C94360370
:100060000C9436030C9436030C9436030C9436032C
:100070000C9436030C9436030C9436030C9436031C
:100080000C9436030C9436030C943603633B523BBA
:100090003A3B2D3B203B153B0A3BFD3AFA3AF53AF9
:1000A000EA3ADF3AD43AC93ABE3AB33AA83A9D3A64
:1000B000923A873A7C3A713A643A5E3A1F3A123A77
:1000C000073AF439EB39E839DB39D039C539BA396F
:1000D000673B00000000FFFF000000000000000080
:1000E000010001000000000000000000FFFF000010
:1000F00000000000F20000802A5253540000F80073
:1001000000812A49444E3F0000020100822A4944EE
:100110004E00000D0101834D4F56454142530000F2
:10012000170103844D4F564552454C0000240103EE
:10013000855A45524F52554E000031010186454EB9
:1001400041424C4500003E010287474554504F5301
:1001500000004A01028853415645434F4E46000075
:10016000560100894C4F4144434F4E460000640104
:10017000008A49534D4F56494E4700007201018B8A
:10018000474554414E414C4F4700008001018C4788
:1001900045545A45524F504F5300008F01018D5323
:1001A00045545A45524F504F5300009F01028E470D
:1001B000455447454152524154494F0000AF010157
:1001C0008F53455447454152524154494F0000C155
:1001D00001029047455446554C4C524F540000D3B1
:1001E00001019153455446554C4C524F540000E385
:1001F0000102924745545355425354455053000011
:10020000F301019353455453554253544550530001
:1002100000040202944745545741495454494D45FE
:100220000000150201955345545741495454494D16
:1002300045000026020296534554434F4E535453F3
:1002400050454544000037020397464143544F52FE
:1002500059524553455400004A02009853544F5098
:10026000414C4C00005C020099534554464F5242A9
:100270005A4F4E4500006902039A454E4142464F8F
:1002800052425A4F4E4500007A02029B5345545049
:10029000524F475354455000008C02069C4745542A
:1002A0004D4F54535441544500009D02019D44421A
:1002B00047524541444F55540000AE02009E4C4504
:1002C000440000BE02039F4745544355525200006C
:1002D000C70201A0534554435552520000D40202B4
:1002E000A147455444454341590000E10201A2534E
:1002F000455444454341590000EF0202A3F400FE77
:10030000000901130120012D013A0146015201604B
:10031000016E017C018B019B01AB01BD01CF01DFAF
:1003200001EF010002110222023302460258026567
:1003300002760288029902AA02BA02C302D002DD42
:1003400002EB02F9024C4B2D496E737472756D65A8
:100350006E74730A534D4334323432000045030047
:100360004368616E6765206D6F746F720A706F739A
:100370006974696F6E0000600301536574207374C3
:1003800065700A6D756C7469706C69657200007ACD
:1003900003024368616E676520737465700A756E49
:1003A0006974000092030352756E20696E74657261
:1003B0006E616C0A70726F6772616D0000A7030452
:1003C00052756E20776974680A636F6E7374616E1C
:1003D000742073706565640000C003054465666938
:1003E0006E65207A65726F0A706F736974696F6EDB
:1003F0000000DC030652756E207A65726F0A636135
:100400006C6962726174696F6E0000F50307456E76
:100410007465720A73657474696E6773206D656EB6
:100420007500000E040820202020202020202020FD
:100430002020202020200A202020202020202020D2
:100440002020202020202000002604094368616E1F
:100450006765206D6F746F720A737562737465706F
:1004600000004C040A4368616E6765206D6F746F0D
:10047000720A63757272656E74000065040B4368DE
:10048000616E676520737465700A776169742074A2
:10049000696D6500007E040C53617665206375729A
:1004A00072656E740A636F6E6669677572617469EE
:1004B0006F6E000098040D4C6F6164206C61737462
:1004C0000A636F6E66696775726174696F6E0000AA
:1004D000B7040E5D0377038F03A403BD03D903F2B2
:1004E000030B042304490462047B049504B404D080
:1004F000046E616E00696E660000407A10F35A0067
:10050000A0724E18090010A5D4E80000E87648173C
:100510000000E40B54020000CA9A3B000000E1F521
:1005200005000080969800000040420F000000A0E7
:100530008601000000102700000000E80300000012
:10054000006400000000000A00000000000100003C
:100550000000002C76D888DC674F0823DFC1DFAEAF
:1005600059E1B1B796E5E3E453C63AE65199769678
:10057000E8E6C28426EB898C9B62ED407C6FFCEF41
:10058000BC9C9F40F2BAA56FA5F490055A2AF75C6F
:10059000936B6CF9676DC11BFCE0E40D47FEF52021
:1005A000E6B500D0ED902E030094357705008084E9
:1005B0001E080000204E0A000000C80C33333333FD
:1005C0000F986E12831141EF8D2114893BE6551669
:1005D000CFFEE6DB18D1844B381BF77C1D901DA4A1
:1005E000BBE424203284725E228100C9F124ECA194
:1005F000E53D27494E46494E4954594E414ECDCCD2
:10060000CC3D0AD7233C17B7D13877CC2B32959500
:10061000E6241FB14F0A000020410000C8420040FC
:100620001C4620BCBE4CCA1B0E5AAEC59D7411247C
:100630001FBECFEFD0E4DEBFCDBF12E0A0E0B1E03F
:10064000EEE4F0E900E00BBF02C007900D92AC3C75
:10065000B107D9F714E0ACECB2E001C01D92A439A7
:10066000B107E1F70E947A380C9425480C940000F9
:100670002F923F924F925F926F927F928F929F92B2
:10068000AF92BF92CF92DF92EF92FF920F931F93A0
:1006900040E050E00F2EF0E06F2EF0E07F2EF0E013
:1006A0008F2EF0E09F2EF02D0F2EF0E02F2EF0E099
:1006B0003F2EF0E44F2EF0E45F2EF02D0F2EF0E0F1
:1006C000AF2EF0E0BF2EF0E8CF2EF0E4DF2EF02DBD
:1006D0000F2EF0E0EF2EF0E0FF2EF0E80F2FFFE3FB
:1006E0001F2FF02D63E070E0FA01EE0FFF1FEE0FF9
:1006F000FF1FEE0FFF1FCF01880F991F880F991F53
:10070000E80FF91FEA51FC4F11821082FA01EE0F37
:10071000FF1FEE0FFF1FCF01880F991F880F991F32
:10072000E80FF91FEE0FFF1FE851FC4F11821082F6
:10073000CA01FA01EE0FFF1FEE0FFF1FEE0FFF1FA2
:10074000880F991FE80FF91FEE0FFF1FEE0FFF1F15
:10075000E651FC4F11821082FA01EE0FFF1FEE0FDF
:10076000FF1FEE0FFF1FCF01880F991F880F991FE2
:10077000E80FF91FEA51FC4F6682778280869186E6
:10078000FA01EE0FFF1FEE0FFF1FEE0FFF1FCF014D
:10079000880F991F880F991FE80FF91FEA51FC4F26
:1007A0001286FA01EE0FFF1FEE0FFF1FEE0FFF1F65
:1007B000CF01880F991F880F991FE80FF91FEA5181
:1007C000FC4F1386FA01EE0FFF1FEE0FFF1FEE0F17
:1007D000FF1FCF01880F991F880F991FE80FF91F7E
:1007E000EA51FC4F1486FA01EE0FFF1FEE0FFF1FB8
:1007F000EE0FFF1FCF01880F991F880F991FE80F79
:10080000F91FEA51FC4F258636864786508AFA0141
:10081000EE0FFF1FEE0FFF1FEE0FFF1FCF01880F20
:10082000991F880F991FE80FF91FEA51FC4F80E0CC
:1008300090E0A8ECB3E4818B928BA38BB48BFA018C
:10084000EE0FFF1FEE0FFF1FEE0FFF1FCF01880FF0
:10085000991F880F991FE80FF91FEA51FC4FA58ACD
:10086000B68AC78AD08EFA01EE0FFF1FEE0FFF1F68
:10087000EE0FFF1FCF01880F991F880F991FE80FF8
:10088000F91FEA51FC4FE28EF38E048F158FFA01A7
:10089000EE0FFF1FEE0FFF1FEE0FFF1FCF01880FA0
:1008A000991F880F991FE80FF91FEA51FC4F91E03B
:1008B000918FFA01EE0FFF1FEE0FFF1FEE0FFF1FCC
:1008C000CF01880F991F880F991FE80FF91FEA5170
:1008D000FC4F778F668FFA01EE0FFF1FEE0FFF1FA1
:1008E000EE0FFF1FCF01880F991F880F991FE80F88
:1008F000F91FEA51FC4F268D378D220F331F2150EF
:100900003040FA01EE0FFF1FEE0FFF1FEE0FFF1F2B
:10091000CF01880F991F880F991FE80FF91FEA511F
:10092000FC4F31A320A3FA01EE0FFF1FEE0FFF1FB4
:10093000EE0FFF1FCF01880F991F880F991FE80F37
:10094000F91FEA51FC4F12A2FA01EE0FFF1FEE0F42
:10095000FF1FEE0FFF1FCF01880F991F880F991FF0
:10096000E80FF91FEA51FC4FE3A2F4A205A316A376
:10097000FA01EE0FFF1FEE0FFF1FEE0FFF1FCF015B
:10098000880F991F880F991FE80FF91FEA51FC4F34
:1009900017A24F5F5F4F4430510509F0A5CE10926A
:1009A000E7021092E6021092E0031092DF03109229
:1009B0008B0410928C041092C2031092C10388E041
:1009C0008093C3031092D5029AE29093D60282E0FC
:1009D0008093D7021092D8021092D9029093DA0233
:1009E00080E18093DB021092D2021092D302109227
:1009F000D4021092C4031092C5031092C603109241
:100A0000C7031092C8031092E5031092CD03109211
:100A1000CA031092C9031092CC031092CB03109218
:100A2000D2031092CF031092CE031092D1031092F2
:100A3000D0031092D7031092D4031092D3031092D4
:100A4000D6031092D5031092DC031092D9031092B2
:100A5000D8031092DB031092DA0320E030E041E08B
:100A6000C901F901EE0FFF1FEE0FFF1FEE0FFF1F71
:100A7000880F991FE80FF91FE751FD4F1082C90138
:100A8000F901EE0FFF1FEE0FFF1FEE0FFF1F880F84
:100A9000991FE80FF91FE751FD4F4187C901F9017F
:100AA000EE0FFF1FEE0FFF1FEE0FFF1F880F991FA6
:100AB000E80FF91FE751FD4F12821182C901F901B8
:100AC000EE0FFF1FEE0FFF1FEE0FFF1F880F991F86
:100AD000E80FF91FE751FD4F14821382C901F90194
:100AE000EE0FFF1FEE0FFF1FEE0FFF1F880F991F66
:100AF000E80FF91FE751FD4F16821582C901F90170
:100B0000EE0FFF1FEE0FFF1FEE0FFF1F880F991F45
:100B1000E80FF91FE751FD4F108617822F5F3F4FF7
:100B20002031310509F09CCF81E08093E9021F91CB
:100B30000F91FF90EF90DF90CF90BF90AF909F907C
:100B40008F907F906F905F904F903F902F9008957F
:100B50001092C50085E18093C400E1ECF0E0808153
:100B6000886980830895982F8091C00085FFFCCF0D
:100B70009093C6000895E0EBF0E08081826080836E
:100B80008DE48093B300E0E7F0E0808182608083B1
:100B90001092B200E1EBF0E08081856080830895DF
:100BA000FF920F931F936115710509F458C077FDEB
:100BB0005AC042B1E82FF0E09F01220F331F2F5F90
:100BC0003F4F81E090E002C0880F991F2A95E2F71D
:100BD0008095842382B977FD59C0161617060CF04C
:100BE0003EC0EE0FFF1F81E090E00E2E02C0880F86
:100BF000991F0A94E2F7182F082F0095A0E0B0E0A3
:100C0000CF01880F991F880F991F5DE0F52EFC0119
:100C1000EE0FFF1FEE0FFF1FE80FF91FEC5FFB4FFA
:100C200048E853E182B1812B82B98F2D8A95F1F783
:100C300082B1802382B980819181892B61F020E08B
:100C400030E0CA010197F1F72F5F3F4F808191811A
:100C500028173907B0F31196A617B7071CF31F9191
:100C60000F91FF90089542B1E82FF0E09F01220F0D
:100C7000331F2F5F3F4F81E090E002C0880F991F24
:100C80002A95E2F7482B42B977FFA7CF7095619577
:100C90007F4FA3CFA6EEB3E0E82FF0E0EE0FFF1FEB
:100CA000EE0FFF1FEE0FFF1F9F01220F331F220FBA
:100CB000331FE20FF31FEA0FFB1F40815181460FE4
:100CC000571FE82FF0E0EE0FFF1FEE0FFF1F9F01F1
:100CD000220F331F220F331FE20FF31F3196EE0F47
:100CE000FF1FEA0FFB1F51834083E82FF0E0EE0F58
:100CF000FF1FEE0FFF1F9F01220F331F220F331F15
:100D0000E20FF31F3196EE0FFF1FEA0FFB1F40812A
:100D10005181282F30E0C901880F991F880F991F32
:100D2000880F991F220F331F820F931F0196880F80
:100D3000991F880F991FA80FB91F11965C934E93A6
:100D4000089590917C008F71907E892B80937C0018
:100D50001092C2031092C1038091C303882311F142
:100D600060E080917A00806480937A0080917A00BC
:100D700086FDFCCF80917800209179004091C103DD
:100D80005091C203322F20E090E0822B932B840FEE
:100D9000951F9093C2038093C1036F5F8091C3033B
:100DA0006817F8F28091C1039091C2036091C30368
:100DB00070E00E94B041CB010895382F662361F4A2
:100DC00024B181E090E002C0880F991F3A95E2F7C4
:100DD0008095822384B9089524B181E090E002C017
:100DE000880F991F3A95E2F7282B24B90895382FD8
:100DF000662359F025B181E090E002C0880F991F69
:100E00003A95E2F7282B25B9089525B181E090E0C5
:100E100002C0880F991F3A95E2F78095822385B921
:100E2000089593B121E030E002C0220F331F8A956C
:100E3000E2F7892F8223089583E061E00E94F7069C
:100E40008AEF90E00197F1F783E060E00E94F706F7
:100E50000895EF92FF920F931F93CF93DF93E82EA5
:100E6000FF240BEB13E0C0E0D0E0F801808161E0EB
:100E70000E94DD06B7010C2E02C0759567950A9495
:100E8000E2F76170F80181918F010E94F7062196C7
:100E9000C430D10551F78AEF90E00197F1F70E9435
:100EA0001C07DF91CF911F910F91FF90EF90089554
:100EB0001F93182F81E00E94F70682E061E00E94F4
:100EC000DD0682E060E00E94F706812F82958F7038
:100ED0000E942907812F0E9429071F9108950F93CF
:100EE0001F9387E060E00E94DD0681E060E00E94E1
:100EF000F70682E061E00E94F70602E483E060E02A
:100F00000E94F70683E061E00E94F706802F8A9531
:100F1000F1F713B183E060E00E94F7060E941C071E
:100F200017FDECCF87E061E00E94DD0682E060E023
:100F30000E94F7061F910F91089561E00E945807E3
:100F40000E946F07089560E00E9458070E946F0793
:100F50000895823011F1833078F08330A9F1843024
:100F6000D9F0A0E0B0E0E3E0F0E0A557BC4F4C932F
:100F7000E557FC4F408308958823D1F0813089F7ED
:100F80006A5FA62FB0E0FD013396A557BC4F4C9386
:100F9000E557FC4F40830895685EA62FB0E0FD0141
:100FA0003396A557BC4F4C93E557FC4F40830895AB
:100FB000645FA62FB0E0FD013396A557BC4F4C935C
:100FC000E557FC4F40830895625EA62FB0E0FD0117
:100FD0003396A557BC4F4C93E557FC4F408308957B
:100FE0006FE270E032E4FB01E557FC4F8081482F4F
:100FF00050E027E00FC0469A4798832F8A95F1F773
:10100000479A832F8A95F1F788B18F7388B9215059
:101010002F3F61F0CA01022E02C0959587950A9470
:10102000E2F780FDE8CF88B188B9E6CF6150704023
:101030008FEF6F3F7807B9F608951F93182F662337
:1010400081F460E040E00E94A907812F61E04FE059
:101050000E94A907812F62E040E00E94A9071F912A
:10106000089560E04FE00E94A907812F61E04FE002
:101070000E94A907812F62E048E00E94A9071F9102
:101080000895CF93DF93C0E0D0E08091DB0290E041
:101090000C2E02C0959587950A94E2F780FF0DC04B
:1010A0008C2F61E00E941D082196C430D10569F79C
:1010B0000E94F007DF91CF9108958C2F60E00E948D
:1010C0001D08F2CF2F923F924F925F926F927F92C4
:1010D0008F929F92AF92BF92CF92DF92EF92FF9248
:1010E0000F931F93482FA6EEB3E0E82FF0E0EE0F2A
:1010F000FF1FEE0FFF1FEE0FFF1F9F01220F331F79
:10110000220F331FE20FF31FEA0FFB1F25843684E3
:1011100047845088E42FF0E0EE0FFF1FEE0FFF1F13
:10112000EE0FFF1F9F01220F331F220F331FE20F0D
:10113000F31FEA0FFB1F658876888788908C242F21
:1011400030E0220F331F220F331F220F331FA9015C
:10115000440F551F440F551F240F351FA20FB31FF7
:101160005196ED90FD900D911C915497882777FD35
:101170008095982F0E9426405B016C01C201B1014D
:10118000A40193010E942D41A80197010E942D41C5
:101190009B01AC0160E070E084EB93E40E948B3F24
:1011A0009B01AC01C601B5010E942D411F910F9119
:1011B000FF90EF90DF90CF90BF90AF909F908F9077
:1011C0007F906F905F904F903F902F9008952F9257
:1011D0003F924F925F926F927F928F929F92AF92C7
:1011E000BF92CF92DF92EF92FF920F931F93482FFF
:1011F000A6EEB3E0E82FF0E0EE0FFF1FEE0FFF1FAB
:10120000EE0FFF1F9F01220F331F220F331FE20F2C
:10121000F31FEA0FFB1F2584368447845088E42F90
:10122000F0E0EE0FFF1FEE0FFF1FEE0FFF1F9F01FD
:10123000220F331F220F331FE20FF31FEA0FFB1F92
:10124000658876888788908C242F30E0220F331FA2
:10125000220F331F220F331FA901440F551F440FC4
:10126000551F240F351FA20FB31F5196ED90FD900F
:101270000D911C915497882777FD8095982F0E9497
:1012800026405B016C01C201B101A40193010E94DF
:101290002D41A80197010E942D419B01AC0160E006
:1012A00070E080E090E40E948B3F9B01AC01C6019E
:1012B000B5010E942D411F910F91FF90EF90DF909B
:1012C000CF90BF90AF909F908F907F906F905F90E6
:1012D0004F903F902F900895482FF894613009F473
:1012E0003DC0613008F088C0E82FF0E0EE0FFF1F2E
:1012F000EE0FFF1FEE0FFF1FCF01880F991F880F02
:10130000991FE80FF91FEA51FC4F1486E42FF0E013
:10131000EE0FFF1FEE0FFF1FEE0FFF1FCF01880F15
:10132000991F880F991FE80FF91FEA51FC4F208180
:101330003181E42FF0E0EE0FFF1FEE0FFF1FCF0112
:10134000880F991F880F991FE80FF91FEE0FFF1FD5
:10135000E851FC4F3183208378940895E82FF0E022
:10136000EE0FFF1FEE0FFF1FEE0FFF1FCF01880FC5
:10137000991F880F991FE80FF91FEA51FC4F6487E6
:10138000E42FF0E0EE0FFF1FEE0FFF1FEE0FFF1F29
:10139000CF01880F991F880F991FE80FF91FEA5195
:1013A000FC4F20813181E42FF0E0EE0FFF1FEE0FA4
:1013B000FF1FCF01880F991F880F991FE80FF91F92
:1013C000EE0FFF1FE851FC4F31832083E42FF0E044
:1013D000EE0FFF1FEE0FFF1FCF01880F991F880F21
:1013E000991FE80FF91FEE0FFF1FE851FC4F2081F6
:1013F00031812F5F3F4F9DCF623009F0ADCFE82F95
:10140000F0E0EE0FFF1FEE0FFF1FEE0FFF1FCF01EB
:10141000880F991F880F991FE80FF91FEA51FC4F99
:101420006487E42FF0E0EE0FFF1FEE0FFF1FEE0FBB
:10143000FF1FCF01880F991F880F991FE80FF91F11
:10144000EA51FC4F20813181E42FF0E0EE0FFF1FC5
:10145000EE0FFF1FCF01880F991F880F991FE80F0C
:10146000F91FEE0FFF1FE851FC4F31832083E42F5B
:10147000F0E0EE0FFF1FEE0FFF1FCF01880F991F47
:10148000880F991FE80FF91FEE0FFF1FE851FC4F5F
:1014900020813181215030404CCF81E18093B800D0
:1014A000E9EBF0E080818C7F808384E08093BC0056
:1014B000089584EA8093BC008091BC0087FFFCCF34
:1014C000089584E98093BC0008958093BB0084E86C
:1014D0008093BC008091BC0087FFFCCF089584EC12
:1014E0008093BC008091BC0087FFFCCF8091BB0043
:1014F000089584E88093BC008091BC0087FFFCCFF6
:101500008091BB0008958091B900887F0895982F3D
:1015100084EA8093BC008091BC0087FFFCCF80915F
:10152000B9009093BB0084E88093BC008091BC001C
:1015300087FFFCCF8091B900442391F0FB0194E830
:1015400080818093BB009093BC008091BC0087FF9A
:10155000FCCF8091B90031968E2F861B841780F3C3
:1015600084E98093BC000895982FDB0184EA80937E
:10157000BC008091BC0087FFFCCF8091B9009160D6
:101580009093BB0084E88093BC008091BC0087FFEF
:10159000FCCF8091B90050E0415050401416150620
:1015A000A4F4FD0124EC2093BC008091BC0087FFD3
:1015B000FCCF8091BB0081938091B9008E2F8A1B54
:1015C00090E0841795077CF3DF0184E88093BC00EA
:1015D0008091BC0087FFFCCF8091BB008C938091F1
:1015E000B90084E98093BC000895813061F08130B6
:1015F00030F0823051F0833021F080E0089582E4B1
:10160000089588E4089584E4089586E40895813077
:1016100061F0813030F0823051F0833021F080E091
:10162000089582E108958CE9089584E108958AE996
:1016300008950F931F93182FF894E091E303F0910E
:10164000E4038AE08083E091E303F091E40380E225
:1016500081836091E3037091E403812F42E00E9453
:10166000870AE091E303F091E4031082E091E30341
:10167000F091E40311826091E3037091E403812F00
:1016800042E00E94870AE091E303F091E40381E0E5
:101690008083E091E303F091E4038FEF8183609115
:1016A000E3037091E403812F42E00E94870AE091F6
:1016B000E303F091E40385E08083E091E303F0919C
:1016C000E4038DE181836091E3037091E403812F52
:1016D00042E00E94870AE091E303F091E40387E08F
:1016E0008083E091E303F091E40303E001836091E0
:1016F000E3037091E403812F42E00E94870AE091A6
:10170000E303F091E40389E08083E091E303F09147
:10171000E40301836091E3037091E403812F42E0CD
:101720000E94870AE091E303F091E40382E1808361
:10173000E091E303F091E40388E781836091E303A0
:101740007091E403812F42E00E94870A78941F91F0
:101750000F910895F894E091E303F091E40360831E
:10176000E091E303F091E40341836091E30370911E
:10177000E40342E00E94870A78940895982FF89431
:1017800084EA8093BC008091BC0087FFFCCF8091ED
:10179000B9009093BB0084E88093BC008091BC00AA
:1017A00087FFFCCF8091B9006093BB0084E88093F1
:1017B000BC008091BC0087FFFCCF8091B90084EA17
:1017C0008093BC008091BC0087FFFCCF8091B90062
:1017D00091609093BB0084E88093BC008091BC0032
:1017E00087FFFCCF8091B90084E88093BC00809192
:1017F000BC0087FFFCCF8091BB009091B90094E9B9
:101800009093BC0078940895282F22952F7082958C
:10181000807F282B30E0C90183739070880F991F57
:10182000880F991F2C7C3070359527953595279515
:10183000822B282F30E0C90185759070880F991F81
:101840002A7A307035952795822B0895AF92BF92F2
:10185000CF92DF92EF92FF920F931F93A82E062F45
:10186000613208F449C080E200E086950F5F813064
:10187000E1F761E070E0002E02C0660F771F0A9466
:10188000E2F7882777FD8095982F0E9426406B010C
:101890007C018A2D0E94F50AB82E62E10E94BE0BDF
:1018A000182F802F0E94040C187F829586958770D0
:1018B000182B8B2D62E1412F0E94AA0BEA2DF0E03C
:1018C000EE0FFF1FEE0FFF1FEE0FFF1FCF01880F60
:1018D000991F880F991FE80FF91FEA51FC4FC58A1D
:1018E000D68AE78AF08E1F910F91FF90EF90DF90DC
:1018F000CF90BF90AF900895662359F40F2EF0E07B
:10190000CF2EF0E0DF2EF0E8EF2EFFE3FF2EF02DDC
:10191000C0CF613011F0862FA7CF00E0EFCF80E07D
:101920000895FF920F931F93082FF62E0E94F50A39
:10193000182F62E10E94BE0BFF20E1F4482F48609F
:10194000812F62E10E94AA0BE02FF0E0EE0FFF1F53
:10195000EE0FFF1FEE0FFF1FCF01880F991F880F9B
:10196000991FE80FF91FEA51FC4FF3861F910F9161
:10197000FF900895482F477FE3CF80E060E00E940A
:10198000910C81E060E00E94910C82E060E00E9496
:10199000910C83E060E00E94910C15BC1092B100A4
:1019A0000895FF920F931F93F62E0E94F50A182FA9
:1019B00062E10E94BE0B082F812F60E00E94BE0BE7
:1019C00091E0F916A9F092E0F916B9F00F7E9FEEBA
:1019D000F92EF822812F62E1402F0E94AA0B812F5D
:1019E00060E04F2D0E94AA0B1F910F91FF90089568
:1019F00000613FEEF32EF822EDCF20E1F22EF82A1F
:101A0000E9CF0F931F930E94F50A082F62E10E940D
:101A1000BE0B182F1F7B802F62E1412F0E94AA0B63
:101A20001064802F62E1412F0E94AA0B1F910F9139
:101A300008951F930E94F50A182F62E10E94BE0BC1
:101A4000482F4F7D812F62E10E94AA0B1F910895BC
:101A50001F930E94F50A182F62E10E94BE0B482FC7
:101A60004062812F62E10E94AA0B80E197E2019718
:101A7000F1F71F9108951F93162F0E94F50A63E155
:101A80000E94BE0B21E030E002C0220F331F1A95E6
:101A9000E2F7822309F081E01F9108950E94070B6D
:101AA000E091E303F091E4031082E091E303F0910D
:101AB000E40311826091E3037091E40342E00E9429
:101AC000870A08950E94070B6091E3037091E40375
:101AD00042E00E94B40AE091E303F091E403A09194
:101AE000E303B091E403708160E011962C9130E043
:101AF000622B732B729562956F7067277F706727D3
:101B000070E080E090E00E94244026E636E64AE954
:101B100052E40E948B3F089588B1886388B980E4BD
:101B200065E042E20E94AA0B80E460E04FEF0E9471
:101B3000AA0B80E461E04FEF0E94AA0B80E462E010
:101B400048EF0E94AA0B80E463E043E00E94AA0BE6
:101B500080E464E040E00E94AA0B80E466E04FEF7E
:101B60000E94AA0B80E469E00E94BE0BE9E6F0E067
:101B7000808183608083E89A84B5826084BD88E236
:101B800087BDEEE6F0E080818260808316BC85B57B
:101B9000856085BD08958091D4028823A1F090913D
:101BA000D2028091C703882361F497FD10C096FD8F
:101BB0000CC095FD0EC094FD0EC093FF04C083E0E1
:101BC000089588E008958AE2089586E0089587E000
:101BD000089585E0089584E00895F8948091C603FF
:101BE000882321F08091C5031092C503789408954D
:101BF0001F920F920FB60F920BB60F9211248F9374
:101C00009F93EF93FF939091C6008091E602882303
:101C1000E1F49D3009F19A3021F08091E70280349F
:101C200030F1E091E402F091E5028091E702E80FE3
:101C3000F11D108281E08093E6028091C00085FF53
:101C4000FCCF86E08093C60007C08091C00085FF6E
:101C5000FCCF85E18093C600FF91EF919F918F911A
:101C60000F900BBE0F900FBE0F901F901895E09134
:101C7000E402F091E5028091E702E80FF11D908304
:101C80008091E7028F5F8093E702E6CF1F920F9269
:101C90000FB60F920BB60F9211248F93EF93FF9311
:101CA00086B1809583FF3AC08091C803882309F4E8
:101CB00040C0E091CE02F091CF02EE0FFF1FEE0F79
:101CC000FF1FEF70F070F093CF02E093CE02359BD0
:101CD00005C0E260F093CF02E093CE02349B05C0D2
:101CE000E160F093CF02E093CE02EE0FFF1FEE52C1
:101CF000FF4FE491EE2341F08091C503E80FE0939C
:101D0000C50381E08093C603FF91EF918F910F90FF
:101D10000BBE0F900FBE0F901F9018958091C803B7
:101D2000813039F68093C7031092C8038093D402A0
:101D3000C0CF81E08093C803BCCF1F920F920FB633
:101D40000F920BB60F9211242F933F934F935F93F3
:101D50006F937F938F939F93AF93BF93EF93FF9373
:101D600080E468E00E94BE0B982F8091D402882303
:101D700029F49093D20281E08093D402FF91EF91F5
:101D8000BF91AF919F918F917F916F915F914F9193
:101D90003F912F910F900BBE0F900FBE0F901F9091
:101DA00018957F928F929F92AF92BF92CF92DF92BF
:101DB000EF92FF920F931F93CF93DF93F894CC246D
:101DC000DD2488249924AA24BB2477247394C60193
:101DD000880F991F8601000F111F000F111F000FA0
:101DE000111F800F911F880F991F880F991FB40131
:101DF0006D5C7F4F86519C4F42E050E00E94294627
:101E00007801EE0CFF1CEE0CFF1CE00EF11EB5017C
:101E1000655C7F4FC7018D509C4F44E050E00E94AD
:101E20002946B501655B7F4FC70189509C4F44E04F
:101E300050E00E942946B501655A7F4FC701855081
:101E40009C4F44E050E00E942946B50165597F4F00
:101E5000C70180509C4F44E050E00E942946B501E4
:101E600065587F4FC701875F9B4F44E050E00E9459
:101E70002946B60165577F4FC701835F9B4F41E0FD
:101E800050E00E942946B60161577F4FC70181503B
:101E90009C4F41E050E00E942946B4016D567F4FAF
:101EA000C7018C5F9B4F42E050E00E9429468601AB
:101EB000000F111F000F111F0C0D1D1DE801C7534E
:101EC000DC4FB40165567F4FCE0142E050E00E94E6
:101ED0002946B4016D557F4FC80185539C4F42E0A0
:101EE00050E00E942946288139818A819B812817E8
:101EF000390709F07C820894C11CD11C82E090E073
:101F0000880E991E84E090E0A80EB91E94E0C916D0
:101F1000D10409F05CCFC0E0D0E0BE0165557F4F31
:101F2000CE0187519D4F4AE050E00E9429462A96F3
:101F3000C03AD10591F77894DF91CF911F910F911D
:101F4000FF90EF90DF90CF90BF90AF909F908F90D9
:101F50007F900895AF92BF92CF92DF92EF92FF925F
:101F60000F931F93CF93DF93F894C0E0D0E0AA249F
:101F7000BB24CC24DD24CE01880F991F8E01000FD5
:101F8000111F000F111F000F111F800F911F880FCD
:101F9000991F880F991FB5016D5C7F4F86519C4F2B
:101FA00042E050E00E9439467801EE0CFF1CEE0C36
:101FB000FF1CE00EF11EB601655C7F4FC7018D501E
:101FC0009C4F44E050E00E943946B601655B7F4F6C
:101FD000C70189509C4F44E050E00E943946B60149
:101FE000655A7F4FC70185509C4F44E050E00E94E6
:101FF0003946B60165597F4FC70180509C4F44E078
:1020000050E00E943946B60165587F4FC701875F8F
:102010009B4F44E050E00E943946BE0165577F4F18
:10202000C701835F9B4F41E050E00E943946BE01EB
:1020300061577F4FC70181509C4F41E050E00E94A3
:102040003946B5016D567F4FC7018C5F9B4F42E00B
:1020500050E00E9439468E01000F111F000F111F22
:102060000C0F1D1FB50165567F4FC80187539C4F4C
:1020700042E050E00E943946B5016D557F4FC801DE
:1020800085539C4F42E050E00E943946219682E001
:1020900090E0A80EB91E84E090E0C80ED91EC430AE
:1020A000D10509F068CFC0E0D0E0BE0165557F4F93
:1020B000CE0187519D4F4AE050E00E9439462A9652
:1020C000C03AD10591F77894DF91CF911F910F918C
:1020D000FF90EF90DF90CF90BF90AF900895F8946D
:1020E0000E9438030E94AA0F789408951F920F92BD
:1020F0000FB60F920BB60F9211242F923F924F9270
:102100005F926F927F928F929F92AF92BF92CF9287
:10211000DF92EF92FF920F931F932F933F934F9372
:102120005F936F937F938F939F93AF93BF93EF933F
:10213000FF93DF93CF93CDB7DEB7A097DEBFCDBFC0
:102140009E01275F3F4F3C8F2B8F3A8F298F18A21C
:102150001F8E662477241E8E1D8E2301440C551C71
:10216000440C551C4201880C991C880C991C840C49
:10217000951C880C991C88EE93E0880E991ED4015A
:10218000AD90BC901301220C331C220C331C220C8A
:10219000331C6101CC0CDD1CCC0CDD1CC20CD31C2F
:1021A000E6EEF3E0CE0EDF1ED6018D919C911197E5
:1021B000A81AB90AE1E0F0E0EC0FFD1F2D8D3E8D6D
:1021C000E20FF31FB182A0821D966D917D918D91DA
:1021D0009C91509751962D913D914D915C915497C2
:1021E0005596ED90FD900D911C9158970E942D41B0
:1021F000A80197010E942D41A98DBA8D6D937D9301
:102200008D939C931397A114B10409F44CC0F6016B
:1022100080A191A1892B09F469C180A191A10197A5
:1022200091A380A3668177818085918520E030E04D
:1022300040E85FE30E9429411816D4F4D4018D913F
:102240009C911197019611969C938E93F60166814D
:1022500077818085918520E030E040E85FE30E944F
:10226000223FD60116966D937D938D939C9319977B
:102270006101CC0CDD1CCC0CDD1CC20CD31CE6EEC9
:10228000F3E0CE0EDF1ED60116966D917D918D91F5
:102290009C91199720E030E040E85FEB0E94873F77
:1022A00088230CF40CC20894611C711C2D8D3E8D8A
:1022B0002E5F3F4F3E8F2D8F898D9A8D04969A8F7A
:1022C000898F94E06916710409F047CF82B1A8A103
:1022D000A82BA2B996E0892F8A95F1F782B1BF8D1C
:1022E0008B2B82B98DE08A95F1F782B1B095B82336
:1022F000B2B99A95F1F712B83E010894611C711CAD
:10230000CC24DD24EC2C5D2CF601EE0FFF1FEE0F2C
:10231000FF1FEE0FFF1FCF01880F991F880F991F16
:10232000E80FF91FEA51FC4F8285882309F4A4C005
:10233000F30180819181181619060CF001C1F60194
:10234000EE0FFF1FEE0FFF1FEE0FFF1FCF01880FD5
:10235000991F880F991FE80FF91FEA51FC4F608100
:102360007181AB8DBC8D8D909D90AD90BC906F5F59
:102370007F4F882777FD8095982F0E942640A501E2
:1023800094010E94294118160CF45AC1EE2DF52D26
:10239000EE0FFF1FEE0FFF1FEE0FFF1FCF01880F85
:1023A000991F880F991FE80FF91FEA51FC4F2081F0
:1023B00031812F5F3F4FEE2DF52DEE0FFF1FEE0FFA
:1023C000FF1FEE0FFF1FCF01880F991F880F991F66
:1023D000E80FF91FEA51FC4F31832083EE2DF52DD4
:1023E000EE0FFF1FEE0FFF1FEE0FFF1FCF01880F35
:1023F000991F880F991FE80FF91FEA51FC4F848538
:10240000882341F1EE2DF52DEE0FFF1FEE0FFF1F7C
:10241000CF01880F991F880F991FE80FF91FEE0F42
:10242000FF1FE851FC4F208131812F5F3F4FEE2D80
:10243000F52DEE0FFF1FEE0FFF1FCF01880F991F25
:10244000880F991FE80FF91FEE0FFF1FE851FC4F8F
:1024500031832083EE2DF52DEE0FFF1FEE0FFF1FB2
:10246000EE0FFF1FCF01880F991F880F991FE80FEC
:10247000F91FEA51FC4F12860894C11CD11C2B8D08
:102480003C8D2C5F3F4F3C8F2B8F82E090E0680E9D
:10249000791E94E0C916D10409F034CFA096DEBFAE
:1024A000CDBFCF91DF91FF91EF91BF91AF919F9100
:1024B0008F917F916F915F914F913F912F911F91DC
:1024C0000F91FF90EF90DF90CF90BF90AF909F90D3
:1024D0008F907F906F905F904F903F902F900F90D4
:1024E0000BBE0F900FBE0F901F90189521E0F601C4
:1024F0002287B7FC07C1F201E60DF71DE753FC4F39
:102500008481882309F088C081E090E00D8C02C0AE
:10251000880F991F0A94E2F7FF8DF82BFF8FF101C6
:10252000EE0FFF1FEE0FFF1FE20DF31DEA51FC4FF0
:10253000868D978D880F991F019791A380A3B3CEA5
:10254000892B09F487CFF601EE0FFF1FEE0FFF1F57
:10255000EE0FFF1FCF01880F991F880F991FE80FFB
:10256000F91FEA51FC4F80819181181619060CF071
:1025700005C1EE2DF52DEE0FFF1FEE0FFF1FEE0F25
:10258000FF1FCF01880F991F880F991FE80FF91FB0
:10259000EA51FC4F2081318121503040EE2DF52D44
:1025A000EE0FFF1FEE0FFF1FEE0FFF1FCF01880F73
:1025B000991F880F991FE80FF91FEA51FC4F3183CB
:1025C0002083EE2DF52DEE0FFF1FEE0FFF1FEE0FF8
:1025D000FF1FCF01880F991F880F991FE80FF91F60
:1025E000EA51FC4F8485882309F434CFEE2DF52D74
:1025F000EE0FFF1FEE0FFF1FCF01880F991F880FEF
:10260000991FE80FF91FEE0FFF1FE851FC4F2081C3
:102610003181215030400BCFD6018D919C91119783
:102620002081318101968217930709F06DCF8D913A
:102630009C911197F401918380831A961C9264CF28
:10264000F601EE0FFF1FEE0FFF1FEE0FFF1FCF0172
:10265000880F991F880F991FE80FF91FEA51FC4F47
:1026600011821082F601EE0FFF1FEE0FFF1FCF0148
:10267000880F991F880F991FE80FF91FEE0FFF1F92
:10268000E851FC4F00811181C501B4010E949041C5
:102690000E94F33F061B170BF601EE0FFF1FEE0F14
:1026A000FF1FCF01880F991F880F991FE80FF91F8F
:1026B000EE0FFF1FE851FC4F1183008367CEF2013C
:1026C000EE0FFF1FEE0FFF1FE40DF51DEE0FFF1FB6
:1026D000E851FC4F80819181019791838083F601BD
:1026E000668177818085918520E030E040E85FE376
:1026F0000E94233FD60116966D937D938D939C93F4
:102700001997D1CDF201E60DF71DE753FC4F8481F7
:10271000882351F0D6018D919C91119722813381AC
:1027200001968217930709F12D8D3E8D2F5F3F4F44
:102730003E8F2D8F81E090E00D8C02C0880F991F95
:102740000A94E2F7215030403E8F2D8F38A1382B6C
:1027500038A381E090E00D8C02C0880F991F0A9485
:10276000E2F7AF8DA82BAF8FDACE8D919C911197A8
:10277000F401918380831A961C92D6CFEB8DFC8D49
:1027800060817181828193810E9490410E94F33F18
:10279000AB01F601EE0FFF1FEE0FFF1FEE0FFF1F45
:1027A0009F01220F331F220F331FE20FF31FEA5145
:1027B000FC4F71836083F601EE0FFF1FEE0FFF1FCA
:1027C000CF01880F991F880F991FE80FF91FEE0F8F
:1027D000FF1FE851FC4F80819181480F591FF6017E
:1027E000EE0FFF1FEE0FFF1FCF01880F991F880FFD
:1027F000991FE80FF91FEE0FFF1FE851FC4F51839F
:102800004083B7CE2F923F924F925F926F927F920A
:102810008F929F92BF92CF92DF92EF92FF920F938F
:102820001F93DF93CF9300D000D0CDB7DEB7B82E83
:10283000CB01BA01A90198010E942D4169837A83D5
:102840008B839C83E6EECE2EE3E0DE2EEB2DF0E0D4
:10285000EE0FFF1FEE0FFF1FEE0FFF1FCF01880FC0
:10286000991F880F991FE80FF91FEC0DFD1D618955
:10287000728983899489EB2DF0E0EE0FFF1FEE0F34
:10288000FF1FEE0FFF1F9F01220F331F220F331F69
:10289000E20FF31FEC0DFD1D258536854785508918
:1028A000EB2DF0E0EE0FFF1FEE0FFF1FEE0FFF1FEF
:1028B000DF01AA0FBB1FAA0FBB1FEA0FFB1FEC0D06
:1028C000FD1DE588F6880789108D0E942D41A8011D
:1028D00097010E942D4120E030E040E05FE30E943C
:1028E0002D419B01AC0169817A818B819C810E9481
:1028F0002D410E9490411B012C01EB2DF0E0EE0FC9
:10290000FF1FEE0FFF1FCF01880F991F880F991F20
:10291000E80FF91F3196EE0FFF1FEC0DFD1D008132
:102920001181C201B1010E94F33F600F711FEB2DB5
:10293000F0E0EE0FFF1FEE0FFF1F9F01220F331F6E
:10294000220F331FE20FF31F3196EE0FFF1FEC0D26
:10295000FD1D71836083EB2DF0E0EE0FFF1FEE0F86
:10296000FF1FEE0FFF1FCF01880F991F880F991FC0
:10297000E80FF91FEC0DFD1D66807780808491843F
:10298000EB2DF0E0EE0FFF1FEE0FFF1FEE0FFF1F0E
:10299000CF01880F991F880F991FE80FF91FEC0DC1
:1029A000FD1D6189728983899489EB2DF0E0EE0F1A
:1029B000FF1FEE0FFF1FEE0FFF1F9F01220F331FA0
:1029C000220F331FE20FF31FEC0DFD1D2585368509
:1029D00047855089EB2DF0E0EE0FFF1FEE0FFF1F34
:1029E000EE0FFF1FDF01AA0FBB1FAA0FBB1FEA0FCD
:1029F000FB1FEC0DFD1DE588F6880789108D0E94F0
:102A00002D41A80197010E942D4120E030E040E0D7
:102A10005FE30E942D419B01AC0169817A818B812A
:102A20009C810E942D41A20191010E94223F9B01A5
:102A3000AC01C401B3010E94233F2B2D30E0220FD3
:102A4000331F220F331F220F331FA901440F551FBD
:102A5000440F551F240F351FC20ED31EF601668387
:102A60007783808791870F900F900F900F90CF9171
:102A7000DF911F910F91FF90EF90DF90CF90BF906B
:102A80009F908F907F906F905F904F903F902F908E
:102A900008952F923F924F925F926F927F928F9202
:102AA0009F92BF92CF92DF92EF92FF920F931F936C
:102AB000DF93CF9300D000D0CDB7DEB7B82ECB01D7
:102AC000BA01A90198010E942D4169837A838B8301
:102AD0009C83E6EECE2EE3E0DE2EEB2DF0E0EE0F53
:102AE000FF1FEE0FFF1FEE0FFF1FCF01880F991F73
:102AF000880F991FE80FF91FEC0DFD1D6189728980
:102B000083899489EB2DF0E0EE0FFF1FEE0FFF1F7E
:102B1000EE0FFF1F9F01220F331F220F331FE20F03
:102B2000F31FEC0DFD1D2585368547855089EB2D5E
:102B3000F0E0EE0FFF1FEE0FFF1FEE0FFF1FDF0194
:102B4000AA0FBB1FAA0FBB1FEA0FFB1FEC0DFD1D39
:102B5000E588F6880789108D0E942D41A80197010C
:102B60000E942D4120E030E044EB53E40E948B3F73
:102B70009B01AC0169817A818B819C810E942D41EE
:102B80000E9490411B012C01EB2DF0E0EE0FFF1F86
:102B9000EE0FFF1FCF01880F991F880F991FE80FB5
:102BA000F91F3196EE0FFF1FEC0DFD1D0081118105
:102BB000C201B1010E94F33F600F711FEB2DF0E0E5
:102BC000EE0FFF1FEE0FFF1F9F01220F331F220F7B
:102BD000331FE20FF31F3196EE0FFF1FEC0DFD1DAB
:102BE00071836083EB2DF0E0EE0FFF1FEE0FFF1FF0
:102BF000EE0FFF1FCF01880F991F880F991FE80F55
:102C0000F91FEC0DFD1D6680778080849184EB2D8B
:102C1000F0E0EE0FFF1FEE0FFF1FEE0FFF1FCF01C3
:102C2000880F991F880F991FE80FF91FEC0DFD1DE4
:102C30006189728983899489EB2DF0E0EE0FFF1F83
:102C4000EE0FFF1FEE0FFF1F9F01220F331F220FFA
:102C5000331FE20FF31FEC0DFD1D258536854785DB
:102C60005089EB2DF0E0EE0FFF1FEE0FFF1FEE0F70
:102C7000FF1FDF01AA0FBB1FAA0FBB1FEA0FFB1F1D
:102C8000EC0DFD1DE588F6880789108D0E942D4109
:102C9000A80197010E942D4120E030E044EB53E46D
:102CA0000E948B3F9B01AC0169817A818B819C8161
:102CB0000E942D41A20191010E94223F9B01AC0183
:102CC000C401B3010E94233F2B2D30E0220F331F9C
:102CD000220F331F220F331FA901440F551F440F2A
:102CE000551F240F351FC20ED31EF601668377834E
:102CF000808791870F900F900F900F90CF91DF9169
:102D00001F910F91FF90EF90DF90CF90BF909F9019
:102D10008F907F906F905F904F903F902F9008958D
:102D20002F923F924F925F926F927F928F929F92DB
:102D3000BF92CF92DF92EF92FF920F931F93CF93A8
:102D4000DF93B82E682E77242301440C551C440CC5
:102D5000551CF201E60DF71DE753FC4F84818823D3
:102D600009F0C6C08091B100887F8093B100430113
:102D7000880C991C880C991C880C991C8401000FE4
:102D8000111F000F111F080D191D0A511C4FF801CA
:102D9000268C378C6189728983899489258536854B
:102DA00047855089C588D688E788F08C0E942D41D8
:102DB000A70196010E942D416B017C0181E090E00A
:102DC000F801978F868F05C08B2D68E37FEF0E94F7
:102DD000D0058B2D64E00E943B0D8823A9F7C70125
:102DE000B6010E9490410E94F83F8B01C0E0D0E004
:102DF0000CC08B2D61E070E00E94D0058B2D64E04B
:102E00000E943B0D882321F42196C017D10788F337
:102E1000C701B60120E030E040E85EE30E942D41AA
:102E20000E9490410E94F33F9B01AC018B2DB901A0
:102E30000E94D005C701B60120E030E040E45FE326
:102E40000E942D410E9490410E94F33F9B01AC01E2
:102E5000285C30408B2DB9010E94D005F401EE0FA3
:102E6000FF1FEE0FFF1FE80DF91DEA51FC4F85E033
:102E700090E0978F868F05C08B2D61E070E00E94F7
:102E8000D0058B2D64E00E943B0D8823A9F38401BB
:102E9000000F111F000F111F080D191D0A511C4FA3
:102EA000F801378E268EF301EE0FFF1FE80DF91D96
:102EB000EE0FFF1FEE0FFF1FE651FC4F6081718187
:102EC0008B2D0E94D005F80111821082F201EE0FC5
:102ED000FF1FEE0FFF1FE40DF51DEE0FFF1FE85162
:102EE000FC4F11821082C3010E94010D0E94BB059C
:102EF000DF91CF911F910F91FF90EF90DF90CF90D6
:102F0000BF909F908F907F906F905F904F903F9079
:102F10002F9008950F93DF93CF9300D0CDB7DEB7F6
:102F20007A83698360E070E04AE050E00E94DC420E
:102F3000062F89819A8160E070E04AE050E00E94AB
:102F4000DC42043068F4662389F4802F60E00E943C
:102F5000910C8091C00085FFFCCF81E68093C60074
:102F60000F900F90CF91DF910F910895802F61E026
:102F70000E94910C0F900F90CF91DF910F910895C7
:102F800060E070E04AE050E00E94DC426430D8F536
:102F90004091DD035091DE03E62FF0E0EE0FFF1FBE
:102FA000EE0FFF1FEE0FFF1FCF01880F991F880F35
:102FB000991FE80FF91FEA51FC4F27A100D000D05C
:102FC00000D0EDB7FEB73196ADB7BEB712965C93A1
:102FD0004E93119787E191E093838283332727FDF6
:102FE0003095358324830E949A458DB79EB7069607
:102FF0000FB6F8949EBF0FBE8DBF2091DD033091B8
:10300000DE03C90108958091DD039091DE0300D0B5
:1030100000D000D0EDB7FEB73196ADB7BEB712966F
:103020009C938E93119780E091E0938382836483D5
:1030300015820E949A458DB79EB706960FB6F894F2
:103040009EBF0FBE8DBF2091DD033091DE03C9010D
:10305000089560E070E04AE050E00E94DC42643095
:1030600078F5862F0E94620D2091DD033091DE03FA
:10307000ADB7BEB718970FB6F894BEBF0FBEADBFC1
:10308000EDB7FEB7319612963C932E9311972AE135
:1030900031E03383228364837583868397830E9420
:1030A0009A454DB75EB7485F5F4F0FB6F8945EBF65
:1030B0000FBE4DBF2091DD033091DE03C90108959D
:1030C0008091DD039091DE0300D000D000D0EDB7F9
:1030D000FEB73196ADB7BEB712969C938E931197FB
:1030E00080E091E093838283648315820E949A45F5
:1030F0004DB75EB74A5F5F4F0FB6F8945EBF0FBE25
:103100004DBF2091DD033091DE03C901089560E0D9
:1031100070E04AE050E00E94DC426430C8F5409123
:10312000DD035091DE03E62FF0E0EE0FFF1FEE0F00
:10313000FF1FEE0FFF1FCF01880F991F880F991FE8
:10314000E80FF91FEA51FC4F268D378D00D000D0D3
:1031500000D0EDB7FEB73196ADB7BEB712965C930F
:103160004E93119787E191E0938382833583248383
:103170000E949A458DB79EB706960FB6F8949EBFEB
:103180000FBE8DBF2091DD033091DE03C90108958C
:103190008091DD039091DE0300D000D000D0EDB728
:1031A000FEB73196ADB7BEB712969C938E9311972A
:1031B00080E091E093838283648315820E949A4524
:1031C0008DB79EB706960FB6F8949EBF0FBE8DBF03
:1031D0002091DD033091DE03C901089560E070E0C5
:1031E0004AE050E00E94DC42262F643008F040C0E4
:1031F0006091DD037091DE03E22FF0E0EE0FFF1F20
:10320000EE0FFF1FEE0FFF1FCF01880F991F880FD2
:10321000991FE80FF91FEA51FC4F25893689478924
:10322000508DADB7BEB718970FB6F894BEBF0FBE9E
:10323000ADBFEDB7FEB7319612967C936E931197A2
:103240008DE191E093838283248335834683578382
:103250000E949A458DB79EB708960FB6F8949EBF08
:103260000FBE8DBF2091DD033091DE03C9010895AB
:103270008091DD039091DE0300D000D000D0EDB747
:10328000FEB73196ADB7BEB712969C938E93119749
:1032900080E091E093838283248315820E949A4583
:1032A0008DB79EB706960FB6F8949EBF0FBE8DBF22
:1032B0002091DD033091DE03C901089560E070E0E4
:1032C0004AE050E00E94DC42262F643008F040C003
:1032D0006091DD037091DE03E22FF0E0EE0FFF1F3F
:1032E000EE0FFF1FEE0FFF1FCF01880F991F880FF2
:1032F000991FE80FF91FEA51FC4F21893289438950
:103300005489ADB7BEB718970FB6F894BEBF0FBEBD
:10331000ADBFEDB7FEB7319612967C936E931197C1
:103320008DE191E0938382832483358346835783A1
:103330000E949A458DB79EB708960FB6F8949EBF27
:103340000FBE8DBF2091DD033091DE03C9010895CA
:103350008091DD039091DE0300D000D000D0EDB766
:10336000FEB73196ADB7BEB712969C938E93119768
:1033700080E091E093838283248315820E949A45A2
:103380008DB79EB706960FB6F8949EBF0FBE8DBF41
:103390002091DD033091DE03C901089560E070E003
:1033A0004AE050E00E94DC42262F643008F040C022
:1033B0006091DD037091DE03E22FF0E0EE0FFF1F5E
:1033C000EE0FFF1FEE0FFF1FCF01880F991F880F11
:1033D000991FE80FF91FEA51FC4F2585368547856F
:1033E0005089ADB7BEB718970FB6F894BEBF0FBEE1
:1033F000ADBFEDB7FEB7319612967C936E931197E1
:103400008AE191E0938382832483358346835783C3
:103410000E949A458DB79EB708960FB6F8949EBF46
:103420000FBE8DBF2091DD033091DE03C9010895E9
:103430008091DD039091DE0300D000D000D0EDB785
:10344000FEB73196ADB7BEB712969C938E93119787
:1034500080E091E093838283248315820E949A45C1
:103460008DB79EB706960FB6F8949EBF0FBE8DBF60
:103470002091DD033091DE03C901089560E070E022
:103480004AE050E00E94DC426430D8F54091DD0310
:103490005091DE03862F90E0FC01EE0FFF1FEE0F30
:1034A000FF1FEE0FFF1F880F991FE80FF91FEE0F88
:1034B000FF1FEE0FFF1FE651FC4F2081318100D02E
:1034C00000D000D0EDB7FEB73196ADB7BEB71296BB
:1034D0005C934E93119787E191E0938382833583C8
:1034E00024830E949A458DB79EB706960FB6F8942E
:1034F0009EBF0FBE8DBF2091DD033091DE03C90159
:1035000008958091DD039091DE0300D000D000D0BB
:10351000EDB7FEB73196ADB7BEB712969C938E93BA
:10352000119780E091E093838283648315820E94E7
:103530009A458DB79EB706960FB6F8949EBF0FBEFC
:103540008DBF2091DD033091DE03C901089560E055
:1035500070E04AE050E00E94DC42643048F5862F7B
:103560000E94A1062091DD033091DE0300D000D03F
:1035700000D0EDB7FEB73196ADB7BEB712963C930B
:103580002E93119727E131E033832283958384833F
:103590000E949A458DB79EB706960FB6F8949EBFC7
:1035A0000FBE8DBF2091DD033091DE03C901089568
:1035B0008091DD039091DE0300D000D000D0EDB704
:1035C000FEB73196ADB7BEB712969C938E93119706
:1035D00080E091E093838283648315820E949A4500
:1035E0008DB79EB706960FB6F8949EBF0FBE8DBFDF
:1035F0002091DD033091DE03C901089560E070E0A1
:103600004AE050E00E94DC42643008F045C0E62FFA
:10361000F0E0EE0FFF1FEE0FFF1FCF01880F991F85
:10362000880F991FE80FF91FEE0FFF1FE851FC4F9D
:1036300020813181E62FF0E0EE0FFF1FEE0FFF1F1C
:10364000EE0FFF1FCF01880F991F880F991FE80FFA
:10365000F91FEA51FC4F808191812817390771F0D9
:10366000E091DD03F091DE0381E390E091838083BC
:103670002091DD033091DE03C9010895E091DD035F
:10368000F091DE0380E390E0918380832091DD035D
:103690003091DE03C90108958091DD039091DE032E
:1036A00000D000D000D0EDB7FEB73196ADB7BEB7B1
:1036B00012969C938E93119780E091E0938382837E
:1036C000648315820E949A458DB79EB706960FB601
:1036D000F8949EBF0FBE8DBF2091DD033091DE03B5
:1036E000C90108952F923F924F925F926F927F92FD
:1036F0008F929F92AF92BF92DF92EF92FF920F93C1
:103700001F93CF93DF9390E0880F991F8D529B4FAB
:10371000FC01259134912E5F3F4FF9018491863051
:1037200009F461C4873008F455C08B3009F4C8C56A
:103730008C3008F0BDC0883009F482C5883008F4A8
:103740000FC58A3009F4AFC420E030E090E2A091C8
:10375000DE02B091DF02A20FB31FEC911196FC9133
:10376000DF010D900020E9F71197AE1BBF0BA830C9
:1037700080F48A2FE091DE02F091DF02E20FF31F66
:103780000190F081E02DE80FF11D90838F5F88306C
:1037900088F3E091DE02F091DF02E20FF31F019067
:1037A000F081E02D10862E5F3F4F2830310579F6ED
:1037B000DF91CF911F910F91FF90EF90DF90BF901D
:1037C000AF909F908F907F906F905F904F903F90C1
:1037D0002F900895823009F4A9C3833008F4AEC055
:1037E000843009F4F0C1853008F450C1C0E0D0E065
:1037F000EE24FF249EEDA92E91E0B92E89ED882EAE
:1038000081E0982E02ED602E01E0702E8091DB02A7
:1038100090E00C2E02C0959587950A94E2F780FD02
:103820001DC110E2D12EFE01EE0FFF1FEE0FFF1F94
:10383000EC0FFD1FE753FC4F8481882309F011C171
:103840008E01000F111F000F111F000F111FF80133
:10385000EE0FFF1FEE0FFF1FE00FF11FEA51FC4FAD
:1038600082A1882309F48CC5F801EE0FFF1FEE0F2B
:10387000FF1FE00FF11FEA51FC4F82A1813009F4D4
:103880002FC6F801EE0FFF1FEE0FFF1FE00FF11F15
:10389000EA51FC4F82A1823009F4FBC5219682E0F7
:1038A00090E0E80EF91EC430D10509F0AFCF4CCF3F
:1038B0008D3009F439C28D3008F4DDC18E3009F045
:1038C00043CFE091DE02F091DF0220813181C90116
:1038D000DC01E0ECF1E089E001900D928150E1F72C
:1038E000E091DE02F091DF0222813381C901DC0127
:1038F000E9ECF1E089E001900D928150E1F7E0916F
:10390000DE02F091DF0224813581C901DC01EEEA9B
:10391000F1E089E001900D928150E1F7E091DE0243
:10392000F091DF0226813781C901DC01E7EBF1E08C
:1039300089E001900D928150E1F706CF882309F4C8
:1039400030C2813009F000CFC0E0D0E0EE24FF2487
:10395000B9E4AB2EB1E0BB2EAFED8A2E912CF2E58F
:103960006F2EF1E07F2EE7EF4E2E512C72E4272EC2
:1039700071E0372E4C2F8091DB029E0190E00C2EDF
:1039800002C0959587950A94E2F780FD60C060E2D9
:10399000D62EF901EE0FFF1FEE0FFF1FEE0FFF1FD8
:1039A000CF01880F991F880F991FE80FF91FEA515F
:1039B000FC4F818D813009F475C2823009F42EC22A
:1039C0008823D9F5A091DE02B091DF02F901EE0F54
:1039D000FF1FEE0FFF1FEE0FFF1FCF01880F991F74
:1039E000880F991FE80FF91FEA51FC4F20813181A0
:1039F0008DB79EB708970FB6F8949EBF0FBE8DBFC8
:103A0000EDB7FEB73196AE0DBF1D8D919C91ADB750
:103A1000BEB712969C938E93119733822282D482E2
:103A20001582378326830E949A45EDB7FEB73896F4
:103A30000FB6F894FEBF0FBEEDBF219622E030E036
:103A4000E20EF31EC430D10509F094CF7DCE8091F3
:103A5000D8028823C1F05EE3D52E9BCFBEE7DB2ED4
:103A6000E2CEE091DE02F091DF02EE0DFF1D20813B
:103A70003181C901DC01E3E8F1E089E001900D92B8
:103A80008150E1F70BCF9EE7D92E83CFC0E0D0E085
:103A900000E010E09BE5A92E91E0B92E80E6882E8B
:103AA00081E0982EB5E66B2EB1E07B2EACE64A2E77
:103AB000A1E05A2E8091DB02FC2EED2E90E00C2E20
:103AC00002C0959587950A94E2F780FD48C0F0E220
:103AD000DF2EEF2DFE2DEE0FFF1FEE0FFF1FEE0F5F
:103AE000FF1FCF01880F991F880F991FE80FF91F3B
:103AF000EA51FC4F818D8823A9F1EF2DFE2DEE0FA9
:103B0000FF1FEE0FFF1FEE0FFF1FCF01880F991F42
:103B1000880F991FE80FF91FEA51FC4F818D813002
:103B200009F455C4EF2DFE2DEE0FFF1FEE0FFF1F02
:103B3000EE0FFF1FCF01880F991F880F991FE80F05
:103B4000F91FEA51FC4F818D823009F471C421962E
:103B50000E5F1F4FC430D10509F0ACCFF5CDEEE7B5
:103B6000DE2EB7CFE091DE02F091DF028DB79EB777
:103B700008970FB6F8949EBF0FBE8DBFADB7BEB706
:103B80001196E00FF11F80819181EDB7FEB792830E
:103B900081831396BC92AE9212971496DC9214977E
:103BA00015961C92159717969C928E9216970E94C6
:103BB0009A452DB73EB7285F3F4F0FB6F8943EBFEA
:103BC0000FBE2DBF9ACFE091DE02F091DF0220817F
:103BD0003181C901DC01E4EEF1E089E001900D9250
:103BE0008150E1F7E091DE02F091DF022281338122
:103BF000C901DC01EDEEF1E089E001900D92815008
:103C0000E1F7E091DE02F091DF022091D90200D0CD
:103C100000D000D0ADB7BEB7119684819581EDB7C5
:103C2000FEB79283818386EF91E013969C938E93E7
:103C30001297332727FD309515963C932E931497B2
:103C40000E949A45E091DE02F091DF0226813781E1
:103C5000C901DC01EBE2F1E089E001900D928150B5
:103C6000E1F72DB73EB72A5F3F4F0FB6F8943EBF3E
:103C70000FBE2DBF69CDC0E0D0E003E711E0809119
:103C8000DB029E0190E00C2E02C0959587950A9468
:103C9000E2F780FD46C040E250E0A091DE02B09124
:103CA000DF02F901EE0FFF1FEE0FFF1FEE0FFF1FE8
:103CB000CF01880F991F880F991FE80FF91FEA514C
:103CC000FC4F268D378D8DB79EB708970FB6F894A9
:103CD0009EBF0FBE8DBFEDB7FEB73196CE01880FE8
:103CE000991FA80FB91F8D919C91ADB7BEB71296C1
:103CF0009C938E9311971383028355834483378358
:103D000026830E949A452196EDB7FEB738960FB6E6
:103D1000F894FEBF0FBEEDBFC430D10509F0AFCFA0
:103D200013CD4EE750E0B9CFE091DE02F091DF0213
:103D300020813181C901DC01ECE9F1E089E00190E9
:103D40000D928150E1F7E091DE02F091DF022281D5
:103D50003381C901DC01E5EAF1E089E001900D92CF
:103D60008150E1F7E091DE02F091DF02248135819C
:103D7000C901DC01EEEAF1E089E001900D92815089
:103D8000E1F7E091DE02F091DF0226813781C9017F
:103D9000DC01E7EBF1E089E001900D928150E1F761
:103DA000D3CCE091DE02F091DF0220813181C901A4
:103DB000DC01E2E2F1E089E001900D928150E1F74F
:103DC000E091DE02F091DF0222813381C901DC0142
:103DD000EBE2F1E089E001900D928150E1F7E09192
:103DE000DE02F091DF0224813581C901DC01E4E3C8
:103DF000F1E089E001900D928150E1F7E091DE025F
:103E0000F091DF0226813781C901DC01EDE3F1E0A9
:103E100085E001900D928150E1F796CCE091DE02B1
:103E2000F091DF02EE0DFF1D00811181F901EE0F0F
:103E3000FF1FEE0FFF1FEE0FFF1FCF01880F991F0F
:103E4000880F991FE80FF91FEA51FC4F60817181BB
:103E5000842F0E94E7082DB73EB72C5030400FB694
:103E6000F8943EBF0FBE2DBFEDB7FEB73196ADB78C
:103E7000BEB712961C930E93119773826282D482FE
:103E800015826683778380879187538642860E9456
:103E90009A45EDB7FEB73C960FB6F894FEBF0FBE3D
:103EA000EDBFCBCDE091DE02F091DF02EE0DFF1D04
:103EB00000811181F901EE0FFF1FEE0FFF1FEE0FC2
:103EC000FF1FCF01880F991F880F991FE80FF91F57
:103ED000EA51FC4F60817181842F0E9462082DB7E6
:103EE0003EB72C5030400FB6F8943EBF0FBE2DBFEA
:103EF000EDB7FEB73196ADB7BEB712961C930E93D1
:103F00001197B382A282D4821582668377838087D9
:103F10009187938682860E949A45EDB7FEB73C96BC
:103F20000FB6F894FEBF0FBEEDBF87CDC0E0D0E066
:103F30000BE711E08091DB029E0190E00C2E02C0A5
:103F4000959587950A94E2F780FD4AC060E270E09B
:103F5000A091DE02B091DF02F901EE0FFF1FEE0F1C
:103F6000FF1FEE0FFF1FCF01880F991F880F991FAA
:103F7000E80FF91FEA51FC4F228D338D448D558D8A
:103F80008DB79EB70A970FB6F8949EBF0FBE8DBF30
:103F9000EDB7FEB73196CE01880F991FA80FB91F54
:103FA0008D919C91ADB7BEB712969C938E9311974D
:103FB0001383028375836483268337834087518705
:103FC0000E949A452196EDB7FEB73A960FB6F8943F
:103FD000FEBF0FBEEDBFC430D10509F0ABCFB4CBEF
:103FE0006EE770E0B5CFC0E0D0E002E411E0809170
:103FF000DB029E0190E00C2E02C0959587950A94F5
:10400000E2F780FD48C040E250E0A091DE02B091AE
:10401000DF02C901F901EE0FFF1FEE0FFF1FEE0FC8
:10402000FF1F880F991FE80FF91FEE0FFF1FEE0FFC
:10403000FF1FE651FC4F208131818DB79EB7089755
:104040000FB6F8949EBF0FBE8DBFEDB7FEB7319689
:10405000CE01880F991FA80FB91F8D919C91ADB704
:10406000BEB712969C938E93119713830283558348
:104070004483378326830E949A452196EDB7FEB785
:1040800038960FB6F894FEBF0FBEEDBFC430D10511
:1040900009F0ADCF59CB8091D802882309F46DC1C6
:1040A0004EE350E0B2CFC0E0D0E005E911E08091EE
:1040B000DB029E0190E00C2E02C0959587950A9434
:1040C000E2F780FD4AC060E270E0A091DE02B091AC
:1040D000DF02F901EE0FFF1FEE0FFF1FEE0FFF1FB4
:1040E000CF01880F991F880F991FE80FF91FEA5118
:1040F000FC4F258936894789508D8DB79EB70A9721
:104100000FB6F8949EBF0FBE8DBFEDB7FEB73196C8
:10411000CE01880F991FA80FB91F8D919C91ADB743
:10412000BEB712969C938E93119713830283758367
:10413000648326833783408751870E949A4521965E
:10414000EDB7FEB73A960FB6F894FEBF0FBEEDBFBF
:10415000C430D10509F0ABCFF7CA6EE770E0B5CF38
:1041600040E050E000E010E07CE8E72E71E0F72E40
:104170008091DB0290E0042E02C0959587950A9409
:10418000E2F780FD21C020E2FA01EE0FFF1FEE0FE3
:10419000FF1FE40FF51FE753FC4F84818823B1F024
:1041A000E091DE02F091DF02E00FF11F208131810A
:1041B000C901DC01E3E8F1E089E001900D92815052
:1041C000E1F7EA01219634C02EE7DECFE091DE026E
:1041D000F091DF028DB79EB708970FB6F8949EBF97
:1041E0000FBE8DBFADB7BEB71196E00FF11F808136
:1041F0009181EDB7FEB7928381831396FC92EE9284
:10420000129714962C93149715961C921597EA0101
:1042100021961796DC93CE9316970E949A452DB758
:104220003EB7285F3F4F0FB6F8943EBF0FBE2DBF7D
:10423000AE010E5F1F4FC430D10509F099CF84CA7B
:10424000E091DE02F091DF0220813181C901DC01C1
:10425000E7E0F2E089E001900D928150E1F7E09112
:10426000DE02F091DF0222813381C901DC01E7E047
:10427000F2E089E001900D928150E1F7E091DE02D9
:10428000F091DF0224813581C901DC01E7E0F2E031
:1042900089E001900D928150E1F7E091DE02F0910A
:1042A000DF0226813781C901DC01E7E0F2E089E025
:1042B00001900D928150E1F785E08093DA0244CAC3
:1042C000C0E0D0E00EEF11E08091DB029E0190E0B3
:1042D0000C2E02C0959587950A94E2F780FD4AC09E
:1042E00060E270E0A091DE02B091DF02F901EE0F12
:1042F000FF1FEE0FFF1FEE0FFF1FCF01880F991F4B
:10430000880F991FE80FF91FEA51FC4F23A134A130
:1043100045A156A18DB79EB70A970FB6F8949EBFD8
:104320000FBE8DBFEDB7FEB73196CE01880F991F36
:10433000A80FB91F8D919C91ADB7BEB712969C93F3
:104340008E93119713830283758364832683378347
:10435000408751870E949A452196EDB7FEB73A965D
:104360000FB6F894FEBF0FBEEDBFC430D10509F003
:10437000ABCFEAC96EE770E0B5CF4EE750E045CE6F
:10438000E091DE02F091DF0200D000D000D0ADB7A6
:10439000BEB71196EE0DFF1D80819181EDB7FEB77E
:1043A0009283818313967C926E9212971496DC927C
:1043B000149715961C920E949A452DB73EB72A5F16
:1043C0003F4F0FB6F8943EBF0FBE2DBF4DCAE091D0
:1043D000DE02F091DF028DB79EB708970FB6F89412
:1043E0009EBF0FBE8DBFADB7BEB71196E00FF11FD8
:1043F00080819181EDB7FEB7928381831396BC9241
:10440000AE9212971496DC92149715961C921597FB
:1044100017967C926E9216970E949A452DB73EB7DA
:10442000285F3F4F0FB6F8943EBF0FBE2DBF7ACB2B
:10443000E091DE02F091DF028DB79EB708970FB6CC
:10444000F8949EBF0FBE8DBFADB7BEB71196E00FFB
:10445000F11F80819181EDB7FEB79283818313961E
:10446000BC92AE9212971496DC92149715961C92F9
:10447000159717965C924E9216970E949A452DB703
:104480003EB7285F3F4F0FB6F8943EBF0FBE2DBF1B
:104490005ECBE091DE02F091DF0200D000D000D0D0
:1044A000ADB7BEB71196EE0DFF1D80819181EDB7BE
:1044B000FEB7928381831396BC92AE9212971496A4
:1044C000DC92149715961C920E949A452DB73EB720
:1044D0002A5F3F4F0FB6F8943EBF0FBE2DBFDEC917
:1044E000E091DE02F091DF0200D000D000D0ADB745
:1044F000BEB71196EE0DFF1D80819181EDB7FEB71D
:104500009283818313969C928E9212971496DC92DA
:10451000149715961C920E949A452DB73EB72A5FB4
:104520003F4F0FB6F8943EBF0FBE2DBFAAC98F9262
:104530009F92AF92BF92CF92DF92EF92FF920F9332
:104540001F93CF93DF93EB016A015901480160E0AB
:1045500070E04AE050E00E94DC42162F603168F0C3
:10456000DF91CF911F910F91FF90EF90DF90CF904F
:10457000BF90AF909F908F900895C70160E172E067
:104580000E942445009709F066C0812F90E0FC014D
:10459000EE0FFF1FEE0FFF1FEE0FFF1F880F991F7B
:1045A000E80FF91FE751FD4F1082812F90E0FC01C9
:1045B000EE0FFF1FEE0FFF1FEE0FFF1F880F991F5B
:1045C000E80FF91FE751FD4F81E08187812F90E0CF
:1045D000FC01EE0FFF1FEE0FFF1FEE0FFF1F880FF6
:1045E000991FE80FF91FE751FD4F12821182812FA9
:1045F00090E0FC01EE0FFF1FEE0FFF1FEE0FFF1FFD
:10460000880F991FE80FF91FE751FD4F148213829D
:10461000812F90E0FC01EE0FFF1FEE0FFF1FEE0F4A
:10462000FF1F880F991FE80FF91FE751FD4F1682F2
:104630001582812F90E0FC01EE0FFF1FEE0FFF1F90
:10464000EE0FFF1F880F991FE80FF91FE751FD4F6D
:104650001086178285CFCE0160E070E04AE050E01E
:104660000E94DC42212F30E0F901EE0FFF1FEE0F18
:10467000FF1FEE0FFF1F220F331FE20FF31FE75143
:10468000FD4F72836183C60160E070E04AE050E054
:104690000E94DC42212F30E0F901EE0FFF1FEE0FE8
:1046A000FF1FEE0FFF1F220F331FE20FF31FE75113
:1046B000FD4F74836383C50160E070E04AE050E021
:1046C0000E94DC42212F30E0F901EE0FFF1FEE0FB8
:1046D000FF1FEE0FFF1F220F331FE20FF31FE751E3
:1046E000FD4F76836583C40160E070E04AE050E0EE
:1046F0000E94DC42212F30E0F901EE0FFF1FEE0F88
:10470000FF1FEE0FFF1F220F331FE20FF31FE751B2
:10471000FD4F70876783812F90E0FC01EE0FFF1F34
:10472000EE0FFF1FEE0FFF1F880F991FE80FF91FF5
:10473000E751FD4F81E08083C70165E172E00E948F
:104740002445009781F4812F90E0FC01EE0FFF1FBC
:10475000EE0FFF1FEE0FFF1F880F991FE80FF91FC5
:10476000E751FD4F1186C70169E172E00E942445BF
:10477000009709F0F5CE812F90E0FC01EE0FFF1FAE
:10478000EE0FFF1FEE0FFF1F880F991FE80FF91F95
:10479000E751FD4F81E08187E3CE0F93CF93DF9305
:1047A000EB0160E070E04AE050E00E94DC42062F3E
:1047B000643008F0ACC0CE016DE172E00E94244587
:1047C000009759F1CE0163E272E00E942445009700
:1047D00009F460C0CE0167E272E00E9424450097B0
:1047E00009F058C0C091DD03D091DE03E02FF0E066
:1047F000EE0FFF1FEE0FFF1FEE0FFF1FCF01880F01
:10480000991F880F991FE80FF91FEA51FC4F60812B
:104810007181802F0E94E70857C04091DD035091BD
:10482000DE03E02FF0E0EE0FFF1FEE0FFF1FEE0F95
:10483000FF1FCF01880F991F880F991FE80FF91FDD
:10484000EA51FC4F2081318100D000D000D0EDB77B
:10485000FEB73196ADB7BEB712965C934E931197E3
:1048600087E191E093838283358324830E949A4574
:104870002DB73EB72A5F3F4F0FB6F8943EBF0FBE2D
:104880002DBF2091DD033091DE03C901DF91CF916F
:104890000F910895C091DD03D091DE03E02FF0E089
:1048A000EE0FFF1FEE0FFF1FEE0FFF1FCF01880F50
:1048B000991F880F991FE80FF91FEA51FC4F60817B
:1048C0007181802F0E946208ADB7BEB718970FB6EE
:1048D000F894BEBF0FBEADBFEDB7FEB731961296CE
:1048E000DC93CE9311972AE131E0338322836483F2
:1048F0007583868397830E949A452DB73EB7285FBC
:104900003F4F0FB6F8943EBF0FBE2DBFBACF809178
:10491000DD039091DE0300D000D000D0EDB7FEB7EC
:104920003196ADB7BEB712969C938E93119780E0E7
:1049300091E093838283048315820E949A452DB768
:104940003EB72A5F3F4F0FB6F8943EBF0FBE2DBF54
:1049500098CFDF92EF92FF920F931F93CF93DF9345
:104960007B01EA0160E070E04AE050E00E94DC4236
:10497000D62E83E08D1540F4DF91CF911F910F91DA
:10498000FF90EF90DF900895CE016DE172E00E94FC
:104990002445009779F1CE0163E272E00E9424453C
:1049A0000097D9F0CE0167E272E00E94244500979B
:1049B00019F7C7010E940B44AB01BC018D2D00E02B
:1049C00010E020E83FE30E940214DF91CF911F9195
:1049D0000F91FF90EF90DF900895C7010E940B4464
:1049E000AB01BC018D2D00E010E020E83FE30E9408
:1049F0004915D8CFED2DF0E0EE0FFF1FEE0FFF1F92
:104A0000CF01880F991F880F991FE80FF91FEE0F2C
:104A1000FF1FE851FC4F00811181C70160E070E089
:104A20004AE050E00E94DC42060F171FED2DF0E037
:104A3000EE0FFF1FEE0FFF1FCF01880F991F880F8A
:104A4000991FE80FF91FEE0FFF1FE851FC4F11836C
:104A50000083A1CF90E0880F991F8D529B4FFC01DE
:104A600025913491F901659174918091E1039091C0
:104A7000E2030E940D458091E1039091E2036AE216
:104A800072E00E941F45BC019093E2038093E10312
:104A9000E091E202F091E302808191810E942D4534
:104AA00080E090E06CE272E00E941F45BC019093B0
:104AB000E2038093E103E091E202F091E30282815C
:104AC00093810E942D4520E030E090E2A091E20227
:104AD000B091E302A20FB31FEC911196FC91DF019C
:104AE0000D900020E9F71197AE1BBF0BA03180F4A9
:104AF0008A2FE091E202F091E302E20FF31F0190AE
:104B0000F081E02DE80FF11D90838F5F803188F3F5
:104B1000E091E202F091E302E20FF31F0190F081D5
:104B2000E02D108A2E5F3F4F2430310579F608952D
:104B3000AF92BF92CF92DF92EF92FF920F931F93AB
:104B4000CF93DF93F89480918804882379F470E8F8
:104B5000A72E78948A2DDF91CF911F910F91FF900E
:104B6000EF90DF90CF90BF90AF9008958091860432
:104B7000909187046EE272E00E941F456C010DEF78
:104B800012E060E8A62EBB24E090CC02F090CD02AB
:104B9000F801C591D491FE0165917491D7018D9171
:104BA0009C910E940D45E090CC02F090CD02F7015F
:104BB00060817181C6010E942445009741F42396CB
:104BC000FE0194912197FE018491A92EB82E0E5FCB
:104BD0001F4FF3E005341F07D9F6BB20C9F011E0E1
:104BE00080E090E06EE272E00E941F45BC01812FE0
:104BF00090E0880F991FE091CC02F091CD02E80F70
:104C0000F91F808191810E942D451F5FB11640F7E9
:104C1000E0918604F091870480E4DF011D928A957B
:104C2000E9F71092880495CFFC019081992351F007
:104C30008091C00085FFFCCF9093C6003196908193
:104C40009923B1F78091C00085FFFCCF8AE0809363
:104C5000C600E091DD03F091DE0380E4DF011D92E8
:104C60008A95E9F70895DF92EF92FF920F931F93D1
:104C70008B017A0160E070E04AE050E00E94DC4283
:104C8000D62EC80160E070E04AE050E00E94DC42AD
:104C9000062FC70160E070E040E150E00E94DC4276
:104CA000162F8091DD039091DE032DB73EB72A5079
:104CB00030400FB6F8943EBF0FBE2DBFEDB7FEB724
:104CC0003196ADB7BEB712969C938E93119783E33E
:104CD00092E093838283D4821582068317821087A1
:104CE00011860E949A458091DD039091DE032DB7D5
:104CF0003EB7265F3F4F0FB6F8943EBF0FBE2DBFA5
:104D00000E9414268D2D602F412F0E94A9070E941A
:104D1000F0071F910F91FF90EF90DF900895AF92F1
:104D2000BF92CF92DF92EF92FF920F931F93CF9398
:104D3000DF93C0E0D0E0E3E4CE2EE2E0DE2EE090B0
:104D4000DD03F090DE03CE01FE01EE0FFF1FEE0F3C
:104D5000FF1FEE0FFF1F880F991FE80FF91FE75184
:104D6000FD4F01811281CE01FE01EE0FFF1FEE0FFC
:104D7000FF1FEE0FFF1F880F991FE80FF91FE75164
:104D8000FD4FA380B480CE01FE01EE0FFF1FEE0F9A
:104D9000FF1FEE0FFF1F880F991FE80FF91FE75144
:104DA000FD4F45815681CE01FE01EE0FFF1FEE0F34
:104DB000FF1FEE0FFF1F880F991FE80FF91FE75124
:104DC000FD4F27813085CE01FE01EE0FFF1FEE0F54
:104DD000FF1FEE0FFF1F880F991FE80FF91FE75104
:104DE000FD4F6185CE01FE01EE0FFF1FEE0FFF1F8D
:104DF000EE0FFF1F880F991FE80FF91FE751FD4FB6
:104E00008081ADB7BEB752970FB6F894BEBF0FBE44
:104E1000ADBFEDB7FEB731961296FC92EE921197A8
:104E2000D382C282C483D58317830683B186A086CA
:104E3000538742873587248766871786808B118A38
:104E40000E949A458091DD039091DE03EDB7FEB795
:104E500072960FB6F894FEBF0FBEEDBF0E941426E7
:104E60002196C031D10509F06ACFDF91CF911F9112
:104E70000F91FF90EF90DF90CF90BF90AF9008958B
:104E80001F93CF93DF93EB0160E070E04AE050E0C6
:104E90000E94DC42162F643080F5CE010E940B4444
:104EA0000E94F33FE12FF0E0EE0FFF1FEE0FFF1F18
:104EB000EE0FFF1F9F01220F331F220F331FE20F40
:104EC000F31FEA51FC4F67A3E12FF0E0EE0FFF1F45
:104ED000EE0FFF1FEE0FFF1FCF01880F991F880FE6
:104EE000991FE80FF91FEA51FC4F67A1812F0E941B
:104EF000D10CDF91CF911F9108958091DD039091A6
:104F0000DE0300D000D000D0EDB7FEB73196ADB7CC
:104F1000BEB712969C938E93119780E091E0938395
:104F20008283148315820E949A458091DD039091BB
:104F3000DE032DB73EB72A5F3F4F0FB6F8943EBF52
:104F40000FBE2DBF0E941426DF91CF911F910895AF
:104F500060E070E04AE050E00E94DC42643090F58E
:104F6000E62FF0E0EE0FFF1FEE0FFF1FEE0FFF1F0B
:104F7000CF01880F991F880F991FE80FF91FEA5179
:104F8000FC4F8385882379F4E091DD03F091DE0303
:104F900080E390E0918380838091DD039091DE0334
:104FA0000E9414260895E091DD03F091DE0381E371
:104FB00090E0918380838091DD039091DE030E94D5
:104FC00014260895A091DD03B091DE03E8E5F2E038
:104FD00083E101900D928150E1F7DECF1F93CF93D3
:104FE000DF93EB0160E070E04AE050E00E94DC42B9
:104FF000162F6430B8F4CE0160E070E04AE050E073
:105000000E94DC42812F90E0FC01EE0FFF1FEE0FAB
:10501000FF1FE80FF91FE753FC4F6483DF91CF9127
:105020001F910895A091DD03B091DE03E8E5F2E061
:1050300083E101900D928150E1F78091DD03909121
:10504000DE030E941426EACFFF920F931F93CF93A3
:10505000DF93EB018A0160E070E04AE050E00E94DB
:10506000DC42F62E83E08F1528F1CE010E940F441A
:10507000EC01C8010E940F44AC01C817D90779F1AF
:105080008C179D074CF18F2D90E0FC01EE0FFF1F58
:10509000EE0FFF1FE80FF91FE753FC4FD183C083CA
:1050A0005383428381E08483DF91CF911F910F91DD
:1050B000FF900895A091DD03B091DE03E8E5F2E0F2
:1050C00083E101900D928150E1F78091DD03909191
:1050D000DE030E941426E8CFAE01EC01D4CF8F2D61
:1050E00090E0FC01EE0FFF1FEE0FFF1FE80FF91F0E
:1050F000E753FC4F11821082138212821482DF91D7
:10510000CF911F910F91FF9008952F923F924F9250
:105110005F926F927F928F929F92AF92BF92CF9247
:10512000DF92EF92FF920F931F93DF93CF9300D004
:1051300000D000D0CDB7DEB77A8369838A0160E002
:1051400070E04AE050E00E94DC42643008F062C047
:10515000E62EFF249701220F331F220F331F3C83BB
:105160002B83F901EE0DFF1DE753FC4F848188234B
:10517000C9F026960FB6F894DEBF0FBECDBFCF9113
:10518000DF911F910F91FF90EF90DF90CF90BF9034
:10519000AF909F908F907F906F905F904F903F90D7
:1051A0002F900895C8010E940B443B014C01898156
:1051B0009A816BE672E00E942445009709F03CC09A
:1051C000F894C701880F991F880F991F880F991F9E
:1051D000FC01EE0FFF1FEE0FFF1FE80FF91FEA5152
:1051E000FC4F148683E090E0978F868F80819181B9
:1051F000EB81FC81EE0FFF1FEE0FFF1FAB81BC8127
:10520000EA0FFB1FEE0FFF1FE851FC4F91838083D5
:105210007894AFCFA091DD03B091DE03E8E5F2E032
:1052200083E101900D928150E1F78091DD0390912F
:10523000DE030E9414269DCFF701EE0FFF1FEE0F35
:10524000FF1FEE0FFF1FFE83ED83EE0FFF1FEE0F1C
:10525000FF1F2D813E81E20FF31FEA51FC4FE584D1
:10526000F68407851089A188B288C388D4882588E8
:1052700036884788508CC401B3019F7720E030E026
:105280004AE754E40E942D413B014C01C801B7019B
:10529000A60195010E942D41A20191010E942D417C
:1052A0009B01AC01C401B3010E948B3F0E9490415D
:1052B0000E94F83F8B01672B09F477C0F7E2603159
:1052C0007F0708F060C089819A8167E972E00E94D7
:1052D0002445009739F5ED81FE81EE0FFF1FEE0F9B
:1052E000FF1F2D813E81E20FF31FEA51FC4F81E049
:1052F0008487178F068F80819181EB81FC81EE0F6F
:10530000FF1FEE0FFF1FAB81BC81EA0FFB1FEE0FEB
:10531000FF1FE851FC4F918380838081918101962A
:105320009183808389819A816AE972E00E94244591
:10533000009709F01ECFED81FE81EE0FFF1FEE0FEB
:10534000FF1F2D813E81E20FF31FEA51FC4F82E0E7
:105350008487178F068F80819181EB81FC81EE0F0E
:10536000FF1FEE0FFF1FAB81BC81EA0FFB1FEE0F8B
:10537000FF1FE851FC4F91838083808191810197C9
:1053800091838083F6CEA091DD03B091DE03E4E843
:10539000F2E083E101900D928150E1F78091DD030D
:1053A0009091DE030E9414268ECF8091DD039091B0
:1053B000DE0300D000D000D0EDB7FEB73196ADB718
:1053C000BEB712969C938E93119780E792E09383D9
:1053D0008283158214820E949A458091DD03909108
:1053E000DE03EDB7FEB736960FB6F894FEBF0FBEDC
:1053F000EDBF0E941426BDCE1F93CF93DF93EB0128
:1054000060E070E04AE050E00E94DC42162F643019
:10541000D8F4CE010E940F449C01E12FF0E0EE0F82
:10542000FF1FEE0FFF1FEE0FFF1FCF01880F991F09
:10543000880F991FE80FF91FEA51FC4F378F268F0D
:10544000DF91CF911F910895A091DD03B091DE030C
:10545000E8E5F2E083E101900D928150E1F780915F
:10546000DD039091DE030E941426EACF1F93CF93B1
:10547000DF93EB0160E070E04AE050E00E94DC4224
:10548000162F643088F4CE010E940B440E94904194
:105490000E94F83F9B01AC01812F622F0E94260CD5
:1054A000DF91CF911F9108958091DD039091DE03EC
:1054B00000D000D000D0EDB7FEB73196ADB7BEB783
:1054C00012969C938E93119780E091E09383828350
:1054D000148315820E949A458091DD039091DE032A
:1054E0002DB73EB72A5F3F4F0FB6F8943EBF0FBEB1
:1054F0002DBF0E941426DF91CF911F9108951F9315
:10550000CF93DF93EB0160E070E04AE050E00E944F
:10551000DC42162F6430E0F4CE010E940B44E12FF0
:10552000F0E0EE0FFF1FEE0FFF1FEE0FFF1F9F01BA
:10553000220F331F220F331FE20FF31FEA51FC4FDC
:10554000618B728B838B948BDF91CF911F91089528
:105550008091DD039091DE0300D000D000D0EDB744
:10556000FEB73196ADB7BEB712969C938E93119746
:1055700080E091E093838283148315820E949A4590
:105580008091DD039091DE032DB73EB72A5F3F4F38
:105590000FB6F8943EBF0FBE2DBF0E941426DF91B8
:1055A000CF911F9108951F93CF93DF93EB0160E09C
:1055B00070E04AE050E00E94DC42162F6430E0F4D4
:1055C000CE010E940B44E12FF0E0EE0FFF1FEE0F23
:1055D000FF1FEE0FFF1F9F01220F331F220F331FEC
:1055E000E20FF31FEA51FC4F658776878787908B20
:1055F000DF91CF911F9108958091DD039091DE039B
:1056000000D000D000D0EDB7FEB73196ADB7BEB731
:1056100012969C938E93119780E091E093838283FE
:10562000148315820E949A458091DD039091DE03D8
:105630002DB73EB72A5F3F4F0FB6F8943EBF0FBE5F
:105640002DBF0E941426DF91CF911F9108951F93C3
:10565000CF93DF93EB0160E070E04AE050E00E94FE
:10566000DC42162F643000F5CE0160E070E04AE0C5
:1056700050E00E94DC42212F30E0F901EE0FFF1FC5
:10568000EE0FFF1FEE0FFF1F220F331FE20FF31F5E
:10569000EE0FFF1FEE0FFF1FE651FC4F718360837B
:1056A000DF91CF911F9108958091DD039091DE03EA
:1056B00000D000D000D0EDB7FEB73196ADB7BEB781
:1056C00012969C938E93119780E091E0938382834E
:1056D000148315820E949A458091DD039091DE0328
:1056E0002DB73EB72A5F3F4F0FB6F8943EBF0FBEAF
:1056F0002DBF0E941426DF91CF911F910895DF9254
:10570000EF92FF920F931F93CF93DF93EB018A01E8
:1057100060E070E04AE050E00E94DC42D62E83E078
:105720008D1540F4DF91CF911F910F91FF90EF9075
:10573000DF900895C8016DE172E00E942445009752
:10574000A1F0C80163E272E00E942445009779F15C
:10575000C80167E272E00E942445009709F450C036
:105760008EE992E00E941426DDCFCE0160E070E069
:105770004AE050E00E94DC42ED2DF0E0EE0FFF1F0A
:10578000EE0FFF1F9F01220F331F220F331FE20F67
:10579000F31FEE0FFF1FE851FC4F71836083DF9111
:1057A000CF911F910F91FF90EF90DF900895ED2D15
:1057B000F0E0EE0FFF1FEE0FFF1FEE0FFF1FCF01F8
:1057C000880F991F880F991FE80FF91FEA51FC4FA6
:1057D000608171818D2D0E9462087B018C01CE0158
:1057E0000E940B44A80197010E94223FAB01BC011B
:1057F0008D2D00E010E020E83FE30E94491592CF94
:10580000ED2DF0E0EE0FFF1FEE0FFF1FEE0FFF1F5D
:10581000CF01880F991F880F991FE80FF91FEA51D0
:10582000FC4F608171818D2D0E94E7087B018C0106
:10583000CE010E940B44A80197010E94223FAB01B8
:10584000BC018D2D00E010E020E83FE30E9402142F
:1058500069CF20E030E080E090E0E091CC02F09170
:10586000CD020190F081E02DE80FF91F1082019622
:105870008431910591F780E090E0E091DC02F091B5
:10588000DD02E20FF31F0190F081E02DE80FF91F18
:105890001082E091DE02F091DF02E20FF31F01902F
:1058A000F081E02DE80FF91F1082019689309105F3
:1058B00021F780E090E0E091E002F091E102E20F58
:1058C000F31F0190F081E02DE80FF91F1082E091A5
:1058D000E202F091E302E20FF31F0190F081E02D6C
:1058E000E80FF91F108201968131910521F7E091AF
:1058F000E402F091E50280E4DF01982F1D929A9571
:10590000E9F7E091DD03F091DE03DF01982F1D92AE
:105910009A95E9F7E0918604F0918704DF011D92E2
:105920008A95E9F7E091E103F091E20388E2DF0173
:105930001D928A95E9F70895F894809186049091D4
:1059400087042091E4023091E502DC01F90180E452
:1059500001900D928150E1F781E080938804E091FD
:10596000E402F091E50280E4DF011D928A95E9F7F7
:105970001092E7021092E60278940895DF92EF9277
:10598000FF920F931F93D82E7A018B01CB01BA019E
:1059900020E030E040E050E00E94873F882334F16F
:1059A000C801B70120E030E040E250E40E94294104
:1059B0001816FCF40CE010E18D2D0E94070BE0910D
:1059C000E303F091E4030083E091E303F091E40347
:1059D00011836091E3037091E40342E00E94870A1F
:1059E0001F910F91FF90EF90DF90089500E010E07D
:1059F000E3CFC801B70126E636E64AE952E40E9441
:105A00002D410E9461400E94F83F062F02950F70C1
:105A1000162F1295107FD0CF1F93CF93DF93EB01FA
:105A200060E070E04AE050E00E94DC42162F6430F3
:105A3000A0F5CE010E940B44E12FF0E0EE0FFF1F16
:105A4000EE0FFF1FEE0FFF1F9F01220F331F220FCC
:105A5000331FE20FF31FEA51FC4F63A374A385A326
:105A600096A3E12FF0E0EE0FFF1FEE0FFF1FEE0FEA
:105A7000FF1FCF01880F991F880F991FE80FF91F8B
:105A8000EA51FC4F43A154A165A176A1812F0E9448
:105A9000BE2CDF91CF911F9108958091DD039091ED
:105AA000DE0300D000D000D0EDB7FEB73196ADB721
:105AB000BEB712969C938E93119780E091E09383EA
:105AC0008283148315820E949A458091DD03909110
:105AD000DE032DB73EB72A5F3F4F0FB6F8943EBFA7
