:100000000C94E5020C9462250C9404030C940403F4
:100010000C9404030C9404030C9404030C94040344
:100020000C9404030C949C250C9404030C9404037A
:100030000C9404030C9404030C9404030C94040324
:100040000C94F4240C9404030C9404030C94040303
:100050000C94A6240C9404030C9404030C94040341
:100060000C9404030C9404030C9404030C940403F4
:100070000C9404030C9404030C9404030C940403E4
:100080000C9404030C9404030C9404036E0F540D9D
:10009000A20DEE0D2B0EAD0E6C0EA30F7F0CE80E15
:1000A000FC0C2A0F9119DD18A31863184418DA17ED
:1000B000CB19841951190A19EB19AE2C1E2E052ED5
:1000C000F72DE92DDD2DD12DC32DBF2DBB2DAF2D4E
:1000D000A32D972D8B2D7F2D732D672D5B2D4F2DF0
:1000E000432D372D2B2D1D2DAC2CFB2CED2CE12C75
:1000F000CD2CC32CB22C302E6E616E00696E660062
:100100003F0225021002F601DE01C501AC018D019E
:1001100071015001310118011B010B52756E2069EC
:100120006E7465726E616C0A70726F6772616D00D9
:100130000034010A53657420636F6E7374616E74CA
:100140000A616E67756C617220737065656400008A
:10015000530109446566696E65206F707469636157
:100160006C0A7A65726F20706F736974696F6E00C4
:10017000007401084C6F6164206C6173740A636FD2
:100180006E66696775726174696F6E000090010731
:10019000536176652063757272656E740A636F6E63
:1001A00066696775726174696F6E0000AF0106431E
:1001B00068616E6765206D6F746F720A7375627324
:1001C0007465700000C8010552756E207A65726F03
:1001D0000A63616C6962726174696F6E0000E101AB
:1001E0000453657420737465700A6D756C7469705E
:1001F0006C6965720000F901034368616E676520F0
:10020000737465700A776169742074696D650000A4
:100210001302024368616E676520737465700A7526
:100220006E697400002802014368616E6765206D85
:100230006F746F720A706F736974696F6E00004239
:1002400002004C4B2D496E737472756D656E74733C
:100250000A534D433234323200006F0465045A04AD
:1002600050044304360429041D0411040304F50357
:10027000E703D803C503B203A0038E037E036E0316
:100280005D034C033B032A0317030503F802E7024F
:10029000D502C402B302A3029A029E02039F4C45F8
:1002A000440000A702009E444247524541444F5536
:1002B000540000B702019D4745544D4F54535441DB
:1002C00054450000C802069C53455450524F4753B2
:1002D0005445500000D902029B454E4142464F52C0
:1002E000425A4F4E450000EB02039A534554464F85
:1002F00052425A4F4E450000FC02009953544F5051
:10030000414C4C000009030098464143544F525958
:10031000524553455400001B030397534554434F24
:100320004E5354535045454400002E030296534506
:10033000545741495454494D4500003F03019547E6
:1003400045545741495454494D45000050030294C7
:1003500053455453554253544550530000610301D3
:10036000934745545355425354455053000072032C
:10037000029253455446554C4C524F540000820350
:10038000019147455446554C4C524F54000092033E
:10039000029053455447454152524154494F000041
:1003A000A403018F47455447454152524154494F98
:1003B0000000B603028E5345544F50545A45524FD5
:1003C000504F530000C903018D4745544F50545AB4
:1003D00045524F504F530000DC03018C47455441B8
:1003E0004E414C4F470000EB03018B49534D4F5694
:1003F000494E470000F903008A4C4F4144434F4E99
:100400004600000704008953415645434F4E4600BD
:100410000015040288474554504F53000021040240
:1004200087454E41424C4500002D0401865A4552F5
:100430004F52554E00003A0403854D4F56455245E4
:100440004C0000470403844D4F5645414253000081
:10045000540401832A49444E00005E0400822A4964
:10046000444E3F0000690400812A52535400007337
:10047000040080000000000000FFFF0000000000FA
:10048000000000000001000000000000000000006B
:10049000000000000000407A10F35A00A0724E18CD
:1004A000090010A5D4E80000E87648170000E40B26
:1004B00054020000CA9A3B000000E1F505000080EC
:1004C000969800000040420F000000A08601000046
:1004D00000102700000000E8030000000064000096
:1004E0000000000A00000000000100000000002CD5
:1004F00076D888DC674F0823DFC1DFAE59E1B1B79A
:1005000096E5E3E453C63AE651997696E8E6C28466
:1005100026EB898C9B62ED407C6FFCEFBC9C9F407E
:10052000F2BAA56FA5F490055A2AF75C936B6CF9A3
:10053000676DC11BFCE0E40D47FEF520E6B500D079
:10054000ED902E0300943577050080841E0800008E
:10055000204E0A000000C80C333333330F986E125C
:10056000831141EF8D2114893BE65516CFFEE6DB62
:1005700018D1844B381BF77C1D901DA4BBE42420AC
:100580003284725E228100C9F124ECA1E53D274E40
:10059000414E494E495459494E46CDCCCC3D0AD7DF
:1005A000233C17B7D13877CC2B329595E6241FB171
:1005B0004F0A000020410000C84200401C4620BCF9
:1005C000BE4CCA1B0E5AAEC59D7411241FBECFEF80
:1005D000D0E4DEBFCDBF12E0A0E0B1E0EAE0FFE68C
:1005E00000E00BBF02C007900D92A83CB107D9F7FD
:1005F00014E0A8ECB2E001C01D92A433B107E1F70A
:100600000E94742B0C9483370C940000CF93DF93DB
:1006100077FD4FC042B190E0FC01EE0FFF1F319615
:1006200021E030E00E2E01C0220F0A94EAF7209557
:10063000242322B977FD4FC061157105B9F1AC01D2
:10064000440F551F21E030E001C0220F4A95EAF720
:10065000B22FA22FA09540E050E023E2289FF001A6
:10066000299FF00D1124E552FC4F82B18B2B82B9EA
:100670008DE08A95F1F7000082B18A2382B98081EA
:100680009181892B71F080E090E0C7E8D3E1219758
:10069000F1F700C000000196208131818217930795
:1006A000A0F34F5F5F4F46175707F9F6DF91CF91E1
:1006B0000895E2B190E0AC01440F551F4F5F5F4FCA
:1006C00021E030E0042E01C0220F0A94EAF72E2B1D
:1006D00022B977FFB1CF719561957109ADCF94B112
:1006E00021E030E0082E01C0220F0A94EAF7292BFE
:1006F00024B9089595B121E030E0082E01C0220F01
:100700000A94EAF72095292325B908954F925F921C
:100710006F927F928F929F92AF92BF92CF92DF9211
:10072000EF92FF92CF93DF9320E030E0C3E2812C81
:10073000912C80E4A82EBA2CC12CD12C98ECE92E57
:1007400093E4F92E40E050E060E870E4412C512C35
:10075000E0E86E2EEFE37E2ED1E0A3E0B0E0C29F92
:10076000F001C39FF00D1124E354FC4F118210825D
:1007700013821282158214821682178210861186C5
:1007800012861386148685869686A786B08AC18AC5
:10079000D28AE38AF48A458B568B678B708F428EA0
:1007A000538E648E758ED18FB78FA68F868D978D61
:1007B000880F991F019791A380A312A22F5F3F4F2B
:1007C0002330310561F61092E3021092E20210929A
:1007D000B7031092B60310922B0410922C041092BF
:1007E0009E0310929D0388E080939F031092D10294
:1007F0008AE28093D20292E09093D3021092D402C4
:100800001092D5028093D60280E18093D702109295
:10081000CE021092CF021092D0021092A00310923A
:10082000A1031092A2031092A3031092A4031092AA
:10083000BC031092A9031092A6031092A503109274
:10084000A8031092A7031092AE031092AB0310926C
:10085000AA031092AD031092AC031092B30310924E
:10086000B0031092AF031092B2031092B10380E074
:1008700090E021E0FC01EE0FFF1FEE0FFF1FEE0FD7
:10088000FF1FEB51FD4F10822783128211821482C9
:1008900013821682158201968031910559F781E005
:1008A0008093E502DF91CF91FF90EF90DF90CF90A2
:1008B000BF90AF909F908F907F906F905F904F9080
:1008C00008951092C50085E18093C400E1ECF0E04A
:1008D000808188698083089580E480937C0083E828
:1008E00080937A0080917A00806480937A0080916E
:1008F0007A0086FDFCCF8091780090917900089570
:1009000020E030E080E090E0E091C802F091C90280
:100910000190F081E02DE80FF91F108201968431DB
:10092000910591F780E090E0E091D802F091D90232
:10093000E20FF31F0190F081E02DE80FF91F108204
:10094000E091DA02F091DB02E20FF31F0190F081F7
:10095000E02DE80FF91F108201968930910521F7EB
:1009600080E090E0E091DC02F091DD02E20FF31F05
:100970000190F081E02DE80FF91F1082E091DE0276
:10098000F091DF02E20FF31F0190F081E02DE80FFC
:10099000F91F108201968131910521F7E091E00263
:1009A000F091E10280E4DF01982F1D929A95E9F71A
:1009B000E091B403F091B503DF01982F1D929A9551
:1009C000E9F7E0912604F0912704DF011D928A9552
:1009D000E9F7E091B803F091B90388E2DF011D92D5
:1009E0008A95E9F708959091C00095FFFCCF809318
:1009F000C6000895DC012C91222359F0FC013196A8
:100A00009091C00095FFFCCF2093C6002191211149
:100A1000F7CF8091C00085FFFCCF8AE08093C600AD
:100A2000E091B403F091B50380E4DF011D928A9553
:100A3000E9F70895E0EBF0E08081826080838DE447
:100A40008093B300E0E7F0E08081826080831092C1
:100A5000B200E1EBF0E0808185608083089561154C
:100A6000710511F00C940603089523E2829FC001E2
:100A70001124FC01E354FC4F80819181680F791FA0
:100A80007383628382819381958384830895909197
:100A90007C008F71907E892B80937C0010929E0346
:100AA00010929D0380919F03882301F140E0809183
:100AB0007A00806480937A0080917A0086FDFCCF72
:100AC000909178005091790020919D0330919E0380
:100AD000892F90E0952B820F931F90939E03809314
:100AE0009D034F5F80919F03481708F380919D03FA
:100AF00090919E0360919F0370E00E943C2ECB0179
:100B00000895AF92BF92CF92DF92EF92FF920F9330
:100B10001F93CF93DF93F894CDEBD3E082E9A82E17
:100B200080E0B82E95EAC92E93E0D92EE12CF12C65
:100B300000E010E0B8016B537F4F42E050E0CE017F
:100B400004960E948B35B70167547F4F44E050E014
:100B5000CE010D960E948B35B70163557F4F44E05F
:100B600050E0CE0141960E948B35B7016F557F4F03
:100B700044E050E0CE0145960E948B35B7016B569C
:100B80007F4F44E050E0CE014A960E948B3541E011
:100B900050E0B501CE0149960E948B35B8016457EB
:100BA0007F4F42E050E0CE014E960E948B35B80157
:100BB0006A577F4F42E050E0C6010E948B35B80172
:100BC00060587F4F42E050E0C60102960E948B358C
:100BD000A3960E5F1F4F84E0E80EF11C8FEFA81A5A
:100BE000B80A85E0C80ED11C0630110509F0A2CF65
:100BF00048E050E060E070E085EE92E00E948B35C6
:100C0000C0E0D0E02896BE016050704048E050E05F
:100C1000CE018B519D4F0E948B35C837D10591F77E
:100C20007894DF91CF911F910F91FF90EF90DF901B
:100C3000CF90BF90AF9008959F92AF92BF92CF9206
:100C4000DF92EF92FF920F931F93CF93DF93F8946D
:100C5000CDEBD3E095EAC92E93E0D92EE12CF12C0F
:100C600000E010E0A12CB12C9924939442E050E0D4
:100C7000B8016B537F4FCE0104960E947B3544E050
:100C800050E0B70167547F4FCE010D960E947B352F
:100C900044E050E0B70163557F4FCE0141960E947A
:100CA0007B3544E050E0B7016F557F4FCE0145964C
:100CB0000E947B3544E050E0B7016B567F4FCE0178
:100CC0004A960E947B3541E050E0B5016E567F4F59
:100CD000CE0149960E947B3542E050E0B80164574E
:100CE0007F4FCE014E960E947B3542E050E0B80126
:100CF0006A577F4FC6010E947B3542E050E0B80141
:100D000060587F4FC60102960E947B35F501EE0FB9
:100D1000FF1FEE0FFF1FEA0DFB1DEB55FC4F20815F
:100D20003181828193812817390709F094828FEFEE
:100D3000A81AB80AA3960E5F1F4F84E0E80EF11CB4
:100D400085E0C80ED11C83E0A816B10409F08ECF4F
:100D500048E050E060E070E085EE92E00E947B3574
:100D6000C0E0D0E02896BE016050704048E050E0FE
:100D7000CE018B519D4F0E947B35C837D10591F72D
:100D80007894DF91CF911F910F91FF90EF90DF90BA
:100D9000CF90BF90AF909F90089561110EC044B165
:100DA00021E030E0B90102C0660F771F8A95E2F7B3
:100DB000CB018095842384B908950C946F03662336
:100DC00069F045B121E030E0B90102C0660F771F3C
:100DD0008A95E2F7CB01842B85B908950C947A03A8
:100DE00093B121E030E001C0220F8A95EAF7892F04
:100DF000822308952B9A89EF90E00197F1F700C0C4
:100E0000000083E00C947A03CF92DF92EF92FF927E
:100E10000F931F93CF93DF93E82EF12C07E913E094
:100E2000C0E0D0E0CC24C394D12CF80180810E9492
:100E30006F03F80181918F0197010C2E02C0359547
:100E400027950A94E2F720FF25C095B19601082E58
:100E500001C0220F0A94EAF7292B25B92196C43044
:100E6000D10519F789EF90E00197F1F700C0000074
:100E70002B9AE9EFF0E03197F1F700C0000083E032
:100E8000DF91CF911F910F91FF90EF90DF90CF9066
:100E90000C947A030E947A03E1CFCF93C82F662384
:100EA00081F0299A82E00E946F0382E00E947A0317
:100EB0008C2F82958F700E9404078C2FCF910C94F9
:100EC000040781E00E947A03EDCFCF93279881E059
:100ED0000E947A032A9A83E00E947A032B9A82E482
:100EE0008A95F1F700C0C3B183E00E947A032B9A80
:100EF00089EF90E00197F1F700C0000083E00E94C5
:100F00007A03C7FDE8CF87E00E946F0382E0CF91AC
:100F10000C947A0360E00E944D070C9465070F93D0
:100F20001F93CF93DF93609366031092E40281E0F6
:100F30000E946F0382E00E946F0383E00E946F03B0
:100F400081E00E947A0383E00E947A0382E00E949B
:100F50007A032FE38DE093E0215080409040E1F749
:100F600000C00000C7E9D3E08E0189910E946F03A1
:100F7000F80180810E947A03F3E0CB39DF07A1F703
:100F800083E00E94040787EA91E60197F1F700C029
:100F9000000080912D04823009F45CC082E00E9440
:100FA000040787EA91E60197F1F700C0000082E0AC
:100FB0000E940407E7EAF1E63197F1F700C000006C
:100FC00088E00E94040787EA91E60197F1F700C0E4
:100FD000000060E088E00E944D070E946507E7EA94
:100FE000F1E63197F1F700C0000060E081E00E9477
:100FF0004D070E94650787EA91E60197F1F700C067
:10100000000060E086E00E944D070E946507E7EA65
:10101000F1E63197F1F700C0000060E082E00E9445
:101020004D070E94650787EA91E60197F1F700C036
:10103000000060E08CE00E944D070E946507E7EA2F
:10104000F1E63197F1F700C00000DF91CF911F91D9
:101050000F91089588E00E940407E7EAF1E63197CE
:10106000F1F700C000009ACF9FEF980F923008F080
:1010700082E080932D0484E08093970385E0809341
:10108000980386E08093990387E080939A0381E038
:101090000E946F0382E00E946F0383E00E946F034F
:1010A00088E280939C0362E080E10C948F0760E00B
:1010B00081E00E944D070C94650760E082E00E9489
:1010C0004D070C946507CF93DF9300D000D0CDB7C8
:1010D000DEB7198290E49A8394E19B8394E59C8324
:1010E00090916603691770F090E0890F60E0806866
:1010F0000E944D070F900F900F900F90DF91CF91AE
:101100000C946507FE01E60FF11D9181EECF8091F1
:1011100065038B7F8093650360E088600E944D07C4
:101120000C94650780916503982F946090936503F4
:1011300060E08C600E944D070C9465078091650308
:101140008D7F8093650360E088600E944D070C945A
:10115000650780916503982F92609093650360E026
:101160008A600E944D070C946507809165038E7F0D
:101170008093650360E088600E944D070C946507CA
:1011800080916503982F91609093650360E089607A
:101190000E944D070C94650760E088E10E944D07AE
:1011A0000C94650760E08CE10E944D070C94650784
:1011B00080919B03982F926090939B0360E08660E0
:1011C0000E944D070C94650780919B038D7F80934F
:1011D0009B0360E084600E944D070C94650780913A
:1011E0009B03982F916090939B0360E085600E9421
:1011F0004D070C94650780919B038E7F80939B0322
:1012000060E084600E944D070C94650761E00E94D5
:101210004D070E9465070895EF92FF920F931F9369
:10122000CF93DF931F92CDB7DEB7162F8770880F4D
:10123000880F880F60E0806479830E944D070E94C8
:101240006507E12E7981F72E8701085F1F4F61E066
:10125000F70181917F010E944D070E946507E0160A
:10126000F106A9F70F90DF91CF911F910F91FF9099
:10127000EF90089561E00E944D070E94650780E0AD
:1012800090E008950F931F93CF93DF93611571053D
:1012900061F08C01EB0161E0F80181918F010E9406
:1012A0004D070E9465072197B1F780E090E0DF913C
:1012B000CF911F910F910895009751F0FC0101907B
:1012C0000020E9F73197BF01681B790B0C944209A4
:1012D00080E090E008950C945C09982F990F890F95
:1012E000880F680F70E0FB01E959FC4F4083FB0158
:1012F000E659FC4F40830895479A89EF90E00197A3
:10130000F1F700C00000479889EC98E00197F1F7E9
:1013100000C00000469A92E49A95F1F700C084EF6D
:1013200091E022E42A95F1F700C0479A22E42A9539
:10133000F1F700C047980197A1F708954F925F9287
:101340006F927F928F929F92AF92BF92CF92DF92D5
:10135000EF92FF920F931F93CF93DF93CDB7DEB73A
:1013600028970FB6F894DEBF0FBECDBFF82ECB0185
:10137000BA01A90198010E9478304B015C0143E257
:10138000F49E90011124890103541C4FF8016189D6
:101390007289838994892585368547855089C588D2
:1013A000D688E788F08C0E947830A70196010E94C9
:1013B000783020E030E044EB53E40E94D62E9B01CD
:1013C000AC01C501B4010E9478300E94DB306B0192
:1013D0007C01F801628073800E943E2F660D771DAC
:1013E000F801738362836189728983899489258571
:1013F0003685478550892D833E834F83588745889E
:1014000056886788708C268137814085518529836D
:101410003A834B835C832D813E814F8158850E94A6
:101420007830A30192010E94783020E030E044EB54
:1014300053E40E94D62E9B01AC01C501B4010E9469
:101440007830A70196010E946D2E9B01AC01698145
:101450007A818B819C810E946E2EF801668377834E
:101460008087918728960FB6F894DEBF0FBECDBF58
:10147000DF91CF911F910F91FF90EF90DF90CF9070
:10148000BF90AF909F908F907F906F905F904F90A4
:1014900008954F925F926F927F928F929F92AF9238
:1014A000BF92CF92DF92EF92FF92CF93DF9300D063
:1014B00000D0CDB7DEB723E2829FC0011124FC012A
:1014C000E354FC4F458456846784708825893689A7
:1014D0004789508D81889288A388B488882777FDB2
:1014E0008095982F29833A834B835C830E94712FC8
:1014F0006B017C0129813A814B815C81C301B2017E
:101500000E947830A50194010E9478309B01AC01C3
:1015100060E070E084EB93E40E94D62E9B01AC0166
:10152000C701B6010E9478300F900F900F900F9076
:10153000DF91CF91FF90EF90DF90CF90BF90AF9071
:101540009F908F907F906F905F904F9008954F92F3
:101550005F926F927F928F929F92AF92BF92CF9243
:10156000DF92EF92FF920F931F93CF93DF93CDB74C
:10157000DEB728970FB6F894DEBF0FBECDBFF82EAA
:10158000CB01BA01A90198010E9478304B015C019E
:1015900043E2F49E90011124890103541C4FF80189
:1015A0006189728983899489258536854785508923
:1015B000C588D688E788F08C0E947830A70196010C
:1015C0000E94783020E030E040E05FE30E94783015
:1015D0009B01AC01C501B4010E9478300E94DB3050
:1015E0006B017C01F801628073800E943E2F660DC2
:1015F000771DF80173836283618972898389948975
:1016000025853685478550892D833E834F835887AE
:10161000458856886788708C26813781408551853A
:1016200029833A834B835C832D813E814F8158858A
:101630000E947830A30192010E94783020E030E0CF
:1016400040E05FE30E9478309B01AC01C501B4012A
:101650000E947830A70196010E946D2E9B01AC017B
:1016600069817A818B819C810E946E2EF80166834C
:1016700077838087918728960FB6F894DEBF0FBED8
:10168000CDBFDF91CF911F910F91FF90EF90DF9031
:10169000CF90BF90AF909F908F907F906F905F9012
:1016A0004F9008954F925F926F927F928F929F9288
:1016B000AF92BF92CF92DF92EF92FF92CF93DF93E0
:1016C00000D000D0CDB7DEB723E2829FC001112445
:1016D000FC01E354FC4F4584568467847088258957
:1016E00036894789508D81889288A388B488882755
:1016F00077FD8095982F29833A834B835C830E94E2
:10170000712F6B017C0129813A814B815C81C3017E
:10171000B2010E947830A50194010E9478309B01AB
:10172000AC0160E070E080E090E40E94D62E9B0166
:10173000AC01C701B6010E9478300F900F900F9056
:101740000F90DF91CF91FF90EF90DF90CF90BF90FF
:10175000AF909F908F907F906F905F904F90089583
:10176000F894613011F1A0F0623081F493E2899F26
:10177000F0011124E354FC4F6487808191819383AD
:1017800082838281938101979383828378940895E1
:1017900093E2899FF0011124E354FC4F1486808169
:1017A0009181938382837894089593E2899FF001D5
:1017B0001124E354FC4F6487808191819383828359
:1017C00082819381019693838283E0CFE82FF0E0BA
:1017D000EE0FFF1FE050FF4F85919491FC01659142
:1017E00074918091B8039091B9030E94553460E1DF
:1017F00071E08091B8039091B9030E94673490938F
:10180000B9038093B803E091DE02F091DF02BC01DE
:10181000808191810E94743466E071E080E090E004
:101820000E9467349093B9038093B803E091DE027D
:10183000F091DF02BC01828193810E94743480E0C8
:1018400090E020E2E091DE02F091DF02E80FF91F64
:10185000A081B181FD0101900020E9F73197EA1BD9
:10186000E03178F4A091DE02B091DF02A80FB91F39
:101870000D90BC91A02DAE0FB11D2C93EF5FE03108
:1018800089F7E091DE02F091DF02E80FF91F019085
:10189000F081E02D108A02968430910599F6089522
:1018A0002F923F924F925F926F927F928F929F9270
:1018B000AF92BF92CF92DF92EF92FF920F931F935E
:1018C000CF93DF93CDB7DEB727970FB6F894DEBF7F
:1018D0000FBECDBFE82FF0E0EE0FFF1FE050FF4F2F
:1018E00085919491FC013296E4918E2F90E08C309A
:1018F0009105C8F5FC01EA5BFF4F0C94642EE09162
:10190000DA02F091DB02A081B18189E0E0EBF1E045
:1019100001900D928A95E1F7E091DA02F091DB02F5
:10192000A281B38189E0E9EBF1E001900D928A9503
:10193000E1F7E091DA02F091DB02A481B58189E060
:10194000EEE9F1E001900D928A95E1F7E091DA027B
:10195000F091DB02A681B78189E0E7EAF1E001902E
:101960000D928A95E1F780E090E020E2E091DA02C2
:10197000F091DB02E80FF91FA081B181FD01019018
:101980000020E9F73197EA1BE83078F4A091DA02F9
:10199000B091DB02A80FB91F0D90BC91A02DAE0F26
:1019A000B11D2C93EF5FE83089F7E091DA02F091F6
:1019B000DB02E80FF91F0190F081E02D10860296FE
:1019C0008830910599F627960FB6F894DEBF0FBEC2
:1019D000CDBFDF91CF911F910F91FF90EF90DF90DE
:1019E000CF90BF90AF909F908F907F906F905F90BF
:1019F0004F903F902F900895A12CB12C412C512C49
:101A000093E2892E2EECC22E21E0D22E39ECE32E69
:101A100031E0F32E02EC11E049E0942E3801809180
:101A2000D70290E0042C02C0959587950A94E2F7BE
:101A300080FDA9C210E2F201EE0FFF1FEE0FFF1FA3
:101A4000E40DF51DEB55FC4F84818111B8C2849CD7
:101A5000F001859CF00D1124E354FC4F82A18823F2
:101A600009F47CC3849CF001859CF00D1124E3549F
:101A7000FC4F82A1813009F4D1C3849CF001859C84
:101A8000F00D1124E354FC4F82A1823009F4AFC35E
:101A90002FEF421A520A62E0A60EB11C73E04716FD
:101AA000510409F0BCCF5FCF00E010E0212C312CB5
:101AB0008091D70290E0022C02C0959587950A94F8
:101AC000E2F780FF5DC28091D402882309F443C30A
:101AD0002EE32F8383E2829DF001839DF00D11247C
:101AE000E354FC4F818D813009F4EEC2823009F459
:101AF00090C281111CC080819181E091DA02F09145
:101B0000DB029F938F931F929F819F93A2E3B1E08B
:101B1000BF93AF93E00FF11F81818F9380818F93EB
:101B20000E94ED340FB6F894DEBF0FBECDBF7FEF3D
:101B3000271A370A0E5F1F4F83E02816310409F079
:101B4000B7CF11CF812C912C412C512C63E2762EF2
:101B50007BE4A72E71E0B72E00E511E0E5E5CE2E7F
:101B6000E1E0DE2EFCE5EF2EF1E0FF2E8091D702C2
:101B700090E0042C02C0959587950A94E2F780FDC9
:101B8000FBC120E2749CF001759CF00D1124E3541C
:101B9000FC4F818D882309F422C2749CF001759C4E
:101BA000F00D1124E354FC4F818D813009F4EDC216
:101BB000749CF001759CF00D1124E354FC4F818D51
:101BC000823009F4FCC29FEF491A590AA2E08A0E3A
:101BD000911CB3E04B16510449F6C5CEC12CD12C53
:101BE00053E2F52E03E611E08091D70290E00C2C31
:101BF00002C0959587950A94E2F780FDC6C120E260
:101C0000FC9CF001FD9CF00D1124E354FC4F868DEB
:101C1000978DE091DA02F091DB029F938F931F92F0
:101C20002F931F930F93C601880F991FE80FF91F79
:101C300081818F9380818F930E94ED342FEFC21AA0
:101C4000D20A0FB6F894DEBF0FBECDBF73E0C71641
:101C5000D10451F688CEC12CD12C33E2F32E0BE601
:101C600011E08091D70290E00C2C02C095958795E9
:101C70000A94E2F780FD7EC120E2FC9CF001FD9C0D
:101C8000F00D1124E354FC4F828D938DA48DB58DFE
:101C9000E091DA02F091DB02BF93AF939F938F93B1
:101CA0001F922F931F930F93C601880F991FE80F60
:101CB000F91F81818F9380818F930E94ED348FEF84
:101CC000C81AD80A0FB6F894DEBF0FBECDBFB3E076
:101CD000CB16D10431F647CEC12CD12CE3E2FE2E37
:101CE00005E811E08091D70290E00C2C02C0959598
:101CF00087950A94E2F780FD4AC120E2FC9CF0013E
:101D0000FD9CF00D1124E354FC4F85899689A78929
:101D1000B08DE091DA02F091DB02BF93AF939F9315
:101D20008F931F922F931F930F93C601880F991FB4
:101D3000E80FF91F81818F9380818F930E94ED348A
:101D4000AFEFCA1ADA0A0FB6F894DEBF0FBECDBFE6
:101D500073E0C716D10431F606CEE12CF12CA12C8C
:101D6000B12C0CE711E0B9E0DB2E8091D70290E0B6
:101D70000A2C02C0959587950A94E2F780FD1DC153
:101D800090E2F501EE0FFF1FEE0FFF1FEA0DFB1DA6
:101D9000EB55FC4F8481E091DA02F091DB0288235D
:101DA00009F4F7C0EE0DFF1DA081B181E3E7F1E07A
:101DB0008D2D01900D928A95E1F77FEFA71AB70A52
:101DC00082E0E80EF11C93E0A916B10471F6CBCDC8
:101DD000C12CD12C63E2F62E02E311E08091D702F0
:101DE00090E00C2C02C0959587950A94E2F780FF4D
:101DF000C5C08091D402882309F464C12EE3FC9C01
:101E0000F001FD9CF00D1124E354FC4F8481958179
:101E1000E091DA02F091DB029F938F931F922F9350
:101E20001F930F93C601880F991FE80FF91F818137
:101E30008F9380818F930E94ED348FEFC81AD80A58
:101E40000FB6F894DEBF0FBECDBFB3E0CB16D10402
:101E500029F689CDE091DA02F091DB02A081B1810F
:101E600089E0E4EDF1E001900D928A95E1F7E091CF
:101E7000DA02F091DB02A281B38189E0EDEDF1E0BD
:101E800001900D928A95E1F78091D502E091DA02F6
:101E9000F091DB02282F332727FD30953F938F9356
:101EA00086EE91E09F938F9385818F9384818F93AA
:101EB0000E94ED34E091DA02F091DB02A681B78155
:101EC00089E0EEEEF1E001900D928A95E1F70F9036
:101ED0000F900F900F900F900F9045CDE091DA0288
:101EE000F091DB02A081B18189E0E2E1F1E00190B3
:101EF0000D928A95E1F7E091DA02F091DB02A2817E
:101F0000B38189E0EBE1F1E001900D928A95E1F770
:101F1000E091DA02F091DB02A481B58189E0E4E28C
:101F2000F1E001900D928A95E1F7E091DA02F091EB
:101F3000DB02A681B78185E0EDE2F1E001900D9230
:101F40008A95E1F710CDE091DA02F091DB02A081F1
:101F5000B18189E0ECE8F1E001900D928A95E1F71A
:101F6000E091DA02F091DB02A281B38189E0E5E938
:101F7000F1E0DBCC2EE781CE2EE704CE20E23FCF8E
:101F800060E26F83A7CD1EE756CD2EE739CE2EE750
:101F9000B5CEBF92AF921F929F931F930F93EE0DFA
:101FA000FF1D81818F9380818F930E94ED340FB646
:101FB000F894DEBF0FBECDBF00CF9EE7E2CEE0912A
:101FC000DA02F091DB02EA0DFB1DA081B181E3E7AB
:101FD000F1E0892D01900D928A95E1F759CDE091BC
:101FE000DA02F091DB02BF92AF921F922F931F9300
:101FF0000F93E80DF91D81818F9380818F932E833C
:102000000E94ED340FB6F894DEBF0FBECDBF2E8117
:10201000C4CD8081918185849684A784B0882589E8
:1020200036894789508DC188D288E388F488A09189
:10203000DA02B091DB02BA83A9831F92B7EFBF9394
:10204000BC01882777FD8095982F2E833B834C8396
:102050005D830E94712F2B013C012E813B814C81BD
:102060005D81C501B4010E947830A70196010E94EC
:1020700078309B01AC0160E070E080E090E40E9469
:10208000D62E9B01AC01C301B2010E9478309F9310
:102090008F937F936F931F922F812F93A2E4B1E0D0
:1020A000BF93AF93E981FA81E00FF11F81818F9394
:1020B00080818F930E94ED340FB6F894DEBF0FBE7F
:1020C000CDBF35CD2EE79BCE60817181458456848E
:1020D00067847088258936894789508D81889288E0
:1020E000A388B4888091DA029091DB029A83898375
:1020F0001F929FED9F93882777FD8095982F2E83C1
:102100003B834C835D830E94712F6B017C012E8188
:102110003B814C815D81C301B2010E947830A501F1
:1021200094010E9478309B01AC0160E070E084EB88
:1021300093E40E94D62E9B01AC01C701B6010E9418
:1021400078309F938F937F936F931F92AF81AF935C
:10215000A9E3B1E0A5CF7EE77F83BCCCE091DA02B2
:10216000F091DB021F921F937F926F92EA0DFB1D8D
:1021700081818F9380818F930E94ED340F900F9017
:102180000F900F900F900F906DCCE091DA02F091CC
:10219000DB02DF92CF921F922F931F930F93E80DD4
:1021A000F91D81818F9380818F932E830E94ED345E
:1021B0000FB6F894DEBF0FBECDBF2E81F9CCE091F3
:1021C000DA02F091DB02FF92EF921F922F931F939E
:1021D0000F93E80DF91D81818F9380818F930E9469
:1021E000ED340FB6F894DEBF0FBECDBFECCCE0915E
:1021F000DA02F091DB021F921F93DF92CF92EA0D79
:10220000FB1D81818F9380818F930E94ED340F900D
:102210000F900F900F900F900F903ACCE091DA0250
:10222000F091DB021F921F93FF92EF92EA0DFB1DCC
:1022300081818F9380818F930E94ED340F900F9056
:102240000F900F900F900F9018CC8091D602823093
:1022500009F478C0833039F0813029F08091D302BD
:102260008093D60208958091D2020E94500CA091D2
:10227000DA02B091DB02E091D802F091D9026D91BF
:102280007C91808191810E946B34892B09F0F4C08C
:10229000A091DA02B091DB02E091D802F091D9026C
:1022A00012966D917C911397828193810E946B3479
:1022B000892B09F0C4C0A091DA02B091DB02E09151
:1022C000D802F091D90214966D917C911597848172
:1022D00095810E946B34892B09F094C0A091DA0299
:1022E000B091DB02E091D802F091D90216966D917F
:1022F0007C911797868197810E946B34892B09F412
:10230000ADCF61E088E00E946308E091DA02F091CD
:10231000DB02868197810E945C09A091DA02B0916C
:10232000DB02E091D802F091D90216966D917C9172
:102330001797868197810E9474348091D30280938D
:10234000D60208959091D2028091D102981709F493
:1023500085CF8091D1020E94E60B60E080E00E9470
:102360006308E091DE02F091DF02808191810E949A
:102370005C09A091DE02B091DF02E091DC02F091F5
:10238000DD026D917C91808191810E94743461E0C5
:1023900080E00E946308E091DE02F091DF0282811A
:1023A00093810E945C09A091DE02B091DF02E0916E
:1023B000DC02F091DD0212966D917C91139782817F
:1023C00093810E9474348091D1028093D20280E084
:1023D00090E028E0E091D802F091D902E80FF91FCF
:1023E000A081B181E7EFF1E0322F01900D923A9593
:1023F000E1F702968A30910569F78091D3028093C4
:10240000D602089561E080E00E946308E091DA025C
:10241000F091DB02848195810E945C09A091DA022F
:10242000B091DB02E091D802F091D90214966D913F
:102430007C911597848195810E9474344FCF60E020
:1024400088E00E946308E091DA02F091DB02828169
:1024500093810E945C09A091DA02B091DB02E091C5
:10246000D802F091D90212966D917C9113978281D6
:1024700093810E9474341FCF60E080E00E94630863
:10248000E091DA02F091DB02808191810E945C0987
:10249000A091DA02B091DB02E091D802F091D9026A
:1024A0006D917C91808191810E947434F1CE81E1A3
:1024B0008093B800E9EBF0E080818C7F808384E03A
:1024C0008093BC00089584EA8093BC008091BC0096
:1024D00087FFFCCF089584E98093BC000895809322
:1024E000BB0084E88093BC008091BC0087FFFCCFD8
:1024F000089584EC8093BC008091BC0087FFFCCFE2
:102500008091BB00089584E88093BC008091BC005A
:1025100087FFFCCF8091BB0008958091B900887F30
:10252000089594EA9093BC009091BC0097FFFCCF73
:102530009091B9008093BB0084E88093BC008091A7
:10254000BC0087FFFCCF8091B9004423B9F0FB01A8
:102550004150242F30E02F5F3F4F260F371F94E864
:1025600081918093BB009093BC008091BC0087FF59
:10257000FCCF8091B900E217F30791F784E98093CB
:10258000BC00089594EA9093BC009091BC0097FF22
:10259000FCCF9091B90081608093BB0084E8809368
:1025A000BC008091BC0087FFFCCF8091B900242F34
:1025B00030E021503109FB011216130694F444EC6B
:1025C0004093BC008091BC0087FFFCCF8091BB0092
:1025D00081938091B9008E2F861B90E0821793071C
:1025E0007CF384E88093BC008091BC0087FFFCCF23
:1025F0008091BB0080838091B90084E98093BC0006
:102600000895843030F4E82FF0E0E45FFE4F8081DD
:10261000089580E00895843030F4E82FF0E0E85F1A
:10262000FE4F8081089580E008950F931F93CF930C
:10263000DF93182FF894CAEBD3E0E881F9818AE0A0
:102640008083E881F98180E281836881798142E039
:10265000812F0E949112E881F9811082E881F9812D
:1026600011826881798142E0812F0E949112E88174
:10267000F98181E08083E881F9818FEF818368812E
:10268000798142E0812F0E949112E881F98185E0F1
:102690008083E881F9818DE181836881798142E0DD
:1026A000812F0E949112E881F98187E08083E8817F
:1026B000F98103E001836881798142E0812F0E94E2
:1026C0009112E881F98189E08083E881F9810183B1
:1026D0006881798142E0812F0E949112E881F9811D
:1026E00082E18083E881F98188E78183688179814B
:1026F00042E0812F0E9491127894DF91CF911F9137
:102700000F910895F894EAEBF3E0A081B1816C9306
:10271000A081B18111964C936081718142E00E9449
:10272000911278940895F89494EA9093BC00909153
:10273000BC0097FFFCCF9091B9008093BB0094E858
:102740009093BC009091BC0097FFFCCF9091B90092
:102750006093BB0094E89093BC009091BC0097FFFD
:10276000FCCF9091B90094EA9093BC009091BC008A
:1027700097FFFCCF9091B90081608093BB0084E803
:102780008093BC008091BC0087FFFCCF8091B90092
:1027900084E88093BC008091BC0087FFFCCF8091CF
:1027A000BB009091B90094E99093BC00789408958F
:1027B0008295982F9373292F220F220F982F9C7C9C
:1027C00096959695922B892F8575880F9A7A96956E
:1027D000892B08950F931F93CF93DF93162F6630A5
:1027E00008F015E0843008F046C0C82FD0E0FE01A4
:1027F000E45FFE4F008162E1802F0E94931390E11D
:10280000199FA0011124942F9373292F220F220FB7
:10281000942F9C7C96959695922B492F4575440F45
:102820009A7A9695942B887F929596959770482FD3
:10283000492B62E1802F0E94821361E070E002C0A8
:10284000660F771F1A95E2F7882777FD8095982FF6
:102850000E94712F23E22C9FF0012D9FF00D112477
:10286000E354FC4F658B768B878B908FDF91CF91F4
:102870001F910F91089500E0C82FD0E0BCCF80E0F9
:1028800008950F931F93CF93DF93162F843000F595
:10289000C82FD0E0FE01E45FFE4F008162E1802F8F
:1028A0000E949313482F11111DC0486062E1802FD0
:1028B0000E94821383E28C9FF0018D9FF00D112402
:1028C000E354FC4F1387DF91CF911F910F9108952F
:1028D00000E0C82FD0E062E1802F0E949313482FC0
:1028E000112319F3477FE2CF60E080E00E9441149A
:1028F00060E081E00E94411460E082E00E944114A7
:1029000060E083E00E94411415BC1092B10008956C
:10291000CF93DF93D62F843098F4E82FF0E0E45F74
:10292000FE4FC08162E18C2F0E949313482FD1117A
:102930000FC0406162E18C2FDF91CF910C94821324
:10294000C0E062E18C2F0E949313482FDD2389F3AE
:102950004F7E62E18C2FDF91CF910C948213CF9345
:10296000DF938430C0F4E82FF0E0E45FFE4FD081C5
:1029700062E18D2F0E949313C82FCF7B4C2F62E111
:102980008D2F0E9482134C2F406462E18D2FDF91C6
:10299000CF910C948213D0E0EBCF4F925F926F9265
:1029A0007F92AF92BF92CF92DF92EF92FF920F93FE
:1029B0001F93CF93C82ED12CF601EE0FFF1FEE0F01
:1029C000FF1FEC0DFD1DEB55FC4F94819111B7C01D
:1029D000C82F8091B100887F8093B10083E28C9DE5
:1029E00080018D9D100D112403541C4FF801A68CFD
:1029F000B78C618972898389948925853685478555
:102A00005089458856886788708C0E947830A30169
:102A100092010E9478302B013C0181E090E0F801A6
:102A2000978F868F05C068E37FEF8C2F0E94060387
:102A30008C2F0E944705C297B0F3C301B2010E94D8
:102A4000DB300E94432F7B0100E010E00CC061E00E
:102A500070E08C2F0E9406038C2F0E944705C297BE
:102A600028F00F5F1F4F0E151F0589F720E030E09B
:102A700040E85EE3C301B2010E9478300E94DB307F
:102A80000E943E2F6115710509F06BC020E030E017
:102A900040E45FE3C301B2010E9478300E94DB3062
:102AA0000E943E2F685C710909F05FC083E28C9D33
:102AB000F0018D9DF00D1124E354FC4F85E090E072
:102AC000978F868F05C061E070E08C2F0E9406030F
:102AD0008C2F0E944705C397B0F783E28C9DF001CD
:102AE0008D9DF00D1124E354FC4FB78EA68E6481AA
:102AF00075816115710589F583E28C9DF0018D9DCD
:102B0000F00D1124E354FC4F1182108213821282C3
:102B1000C6010E94AF148091B00082608093B00023
:102B20008DE48093B3008091700082608093700088
:102B30001092B2008091B10085608093B100CF9176
:102B40001F910F91FF90EF90DF90CF90BF90AF90CB
:102B50007F906F905F904F9008958C2F0E94060396
:102B6000CBCF8C2F0E94060391CF8C2F0E9406039F
:102B70009DCFCF93843080F4E82FF0E0E45FFE4FE8
:102B8000C08162E18C2F0E949313482F4F7D62E138
:102B90008C2FCF910C948213C0E0F3CFCF9384306D
:102BA000B8F4E82FF0E0E45FFE4FC08162E18C2FC3
:102BB0000E949313482F406262E18C2F0E9482137F
:102BC0008FE097E20197F1F700C00000CF910895E0
:102BD000C0E0ECCF8430B0F4E82FF0E0E85FFE4FC7
:102BE0008081E091BA03F091BB031082E091BA03B7
:102BF000F091BB0311826091BA037091BB0342E074
:102C00000C94911280E0EDCFCF92DF92EF92FF9281
:102C1000CF93C82F6A017B0120E030E0A901C701F2
:102C2000B6010E94D22E87FD3EC020E030E040E297
:102C300050E4C701B6010E947430181674F126E6FC
:102C400036E64AE952E4C701B6010E9478300E9494
:102C5000AC2F0E94432F962F92959F706295607FB4
:102C6000C430F8F4EC2FF0E0E85FFE4F8081E09193
:102C7000BA03F091BB039083E091BA03F091BB03D8
:102C800061836091BA037091BB0342E0CF91FF90E2
:102C9000EF90DF90CF900C94911260E19CE0C430F3
:102CA00008F380E0E4CFF7FAF094F7F8F094BDCFA2
:102CB000843060F5E82FF0E0E85FFE4F808160919E
:102CC000BA037091BB0342E00E94C212A091BA0302
:102CD000B091BB03E091BA03F091BB036C9170E03B
:102CE000762F66278181682B729562956F706727B2
:102CF0007F70672770E080E090E00E946F2F26E6EB
:102D000036E64AE952E40E94D62E089580E0D7CFF5
:102D100088B1886388B942E265E080E40E9482134A
:102D20004FEF60E080E40E9482134FEF61E080E4A7
:102D30000E9482134FEF62E080E40E9482134FEF03
:102D400063E080E40E9482134FEF64E080E40E941D
:102D500082134FEF66E080E40E948213E9E6F0E020
:102D6000808183608083E89A84B5826084BD88E234
:102D700087BDEEE6F0E080818260808316BC85B579
:102D8000856085BD08958091D002882381F080916F
:102D9000CE0287FD10C086FD10C085FD0AC084FDEF
:102DA0000EC083FD10C08091A30381110AC08AE286
:102DB000089585E0089587E0089586E0089584E009
:102DC000089588E0089583E008954F925F926F928E
:102DD0007F928F929F92AF92BF92CF92DF92EF92AB
:102DE000FF920F931F93CF93DF9300D000D0CDB706
:102DF000DEB78091D002811104C08091A2038823A4
:102E000091F02091D2021091D602123009F11130C6
:102E100009F44AC0133009F460C01092D002109235
:102E2000A2031092A3030F900F900F900F90DF91C9
:102E3000CF911F910F91FF90EF90DF90CF90BF90B7
:102E4000AF909F908F907F906F905F904F9008957C
:102E5000F8948091A203882309F48AC08091A10389
:102E60001092A103992787FD90957894820F911D68
:102E700027FD9A956CE070E00E94502E97FD2BC0C4
:102E80008093D1020E94C3168830E9F00E94C316D5
:102E9000883009F0C2CF8091D702882309F4BDCFD2
:102EA00083E08093D302B9CF0E94C316853009F422
:102EB0007FC208F487C2873009F472C008F45BC08F
:102EC0008830C1F0AACF8091D7028111DFCF81E095
:102ED0008093D302DBCF8BE0D3CF0E94C316853023
:102EE00009F466C270F0873009F45AC008F443C090
:102EF0008830C1F49091D40281E089278093D40274
:102F00000EC0833009F441C0843061F49091D7023F
:102F100088E089278093D70283E08093D30213301F
:102F200009F07BCFF8948091A203882309F451C261
:102F30004090A1031092A1037894442009F46DCF2E
:102F4000E091D202F0E0EE0FFF1FE050FF4F8591BD
:102F50009491FC013296E4918E2F90E0FC01319720
:102F6000EB30F10508F059CFEE5AFF4F0C94642E68
:102F700080E090E07ACF9091D70282E08927809319
:102F8000D70283E08093D302CACF82E08093D3023A
:102F90008091D2028F5F8093D2021092D402BFCF71
:102FA0009091D70281E089278093D70283E08093B4
:102FB000D302B5CF00E010E063E2D62E8091D702B5
:102FC00090E0002E02C0959587950A94E2F780FF65
:102FD00054C0D09EC001D19E900D1124DC01A35499
:102FE000BC4F7D0155966D917D918D919C91589727
:102FF00014140CF097C29B01AC010E946E2EF701D5
:10300000658B768B878B908FD09EC001D19E900D63
:1030100011249C0123543C4F7901D90155966D919F
:103020007D918D919C91589720E030E040E85FE3DE
:103030000E94D22E87FD6CC2D09EC001D19E900D01
:1030400011249C0123543C4F7901D90155966D916F
:103050007D918D919C91589720E030E040E052E4C2
:103060000E94743018164CF480E090E0A0E0B2E4C6
:10307000F701858B968BA78BB08F0F5F1F4F0330A7
:10308000110509F09BCFC9CEE12CF12C01E010E035
:103090008091D70290E00E2C02C0959587950A94F6
:1030A000E2F780FDE7C1FFEFEF1AFF0A23E0E21627
:1030B000F10471F782E08093D3028091D2028F5F96
:1030C0008093D202AACE00E010E073E2B72EC42CA7
:1030D000DD24C7FCD094ED2CFD2C8091D70290E02C
:1030E000002E02C0959587950A94E2F780FF25C0CF
:1030F000B09EC001B19E900D11249C0123543C4F01
:103100004901D9015A964D905D906D907C905D97E4
:10311000C701B6010E94712F20E030E040E251E487
:103120000E94D62E9B01AC01C301B2010E946E2EFB
:10313000F401628F738F848F958F0F5F1F4F033061
:10314000110559F66ACE20E030E063E2552447FCD1
:10315000509441E050E08091D70290E0022E02C0EE
:10316000959587950A94E2F780FF21C0629FF00150
:10317000639FF00D1124E354FC4F868D978D840DD1
:10318000951D978F868F868D978D892B11F4578F7C
:10319000468F629FF001639FF00D1124E354FC4FB2
:1031A000868D978D880F991F019791A380A32F5F1C
:1031B0003F4F2330310579F630CE20E030E043E256
:1031C00052E08091D70290E0022E02C0959587953B
:1031D0000A94E2F780FF18C0429FF001439FF00D70
:1031E0001124E354FC4F818D840D818F818D87FDE7
:1031F000A5C1429FF001439FF00D1124E354FC4F01
:10320000818D83300CF0118E2F5F3F4F23303105BD
:10321000C1F603CE00E010E043E2F42E52E0E52ECA
:10322000802F2091D70230E0002E02C035952795DF
:103230000A94E2F720FF2EC0F801EE0FFF1FEE0FF9
:10324000FF1FE00FF11FEB55FC4F94819111E5CD6D
:10325000F09EF001F19EF00D1124E354FC4F92A179
:10326000940D92A392A197FD7BC1F09EF001F19E77
:10327000F00D1124E354FC4F92A193300CF012A2F4
:10328000F09EF001F19EF00D1124E354FC4F62A179
:103290000E94B00B0F5F1F4F0330110509F0C0CF24
:1032A000BCCD442D552747FD5095F42D24E6F20260
:1032B0002001112420E030E063E28091D70290E009
:1032C000022E02C0959587950A94E2F780FF16C0FA
:1032D0008091D402629FF001639FF00D1124E354AA
:1032E000FC4F882309F4D7C080819181840D951DFE
:1032F0009383828382819381958384832F5F3F4F61
:1033000023303105D1F689CD0E941C0660E081E0B2
:103310000E944D070E94650785E092E00E945C09CB
:103320007CCDC42CDD24C7FCD094242D34E62302AC
:1033300070011124A12CB12CB3E29B2E552447FC23
:103340005094652C752C8091D70290E00A2C02C015
:10335000959587950A94E2F780FF15C09A9CF00135
:103360009B9CF00D11249F0123543C4FD901599689
:103370008C915997813009F414C1823009F4F2C05C
:10338000882309F4DDC0BFEFAB1ABB0AE3E0AE1639
:10339000B104C9F642CD0E94810560E081E00E943F
:1033A0004D070E9465078FEF91E00E945C0935CDC3
:1033B0009091D70284E089278093D70283E080939D
:1033C000D302ADCD833009F4E0CD843009F49ECD35
:1033D00024CD412CB1CD14140CF007C18091D5023D
:1033E0008F5F8093D5028091D502803114F01092C6
:1033F000D502E091D50238E0E302F0011124EB514F
:10340000FD4F8081882351F3E091D50288E0E802E6
:10341000F0011124EB51FD4F8781811147C0E091EC
:10342000D502B8E0EB02F0011124EB51FD4F818190
:1034300092819093C0038093BF03E091D50228E06E
:10344000E202F0011124EB51FD4F838194819093AE
:10345000E3038093E203E091D50238E0E302F00158
:103460001124EB51FD4F8581968190930604809342
:103470000504D3CC8E2D0E94CD142091D702C80113
:103480000E2C01C0880F0A94EAF782278093D70296
:103490000E94251108CE80819181840F951F93830E
:1034A0008283828193819583848328CFE091D502A2
:1034B00088E0E802F0011124EB51FD4F8781813053
:1034C00009F0ABCC80E090E043E2489FD001499FF7
:1034D000B00D1124A354BC4F6D917C911197209194
:1034E000D502FC0134E02302E00DF11D1124EE0FA2
:1034F000FF1FEB51FD4F21813281260F371F13969D
:103500003C932E931297019683309105F1F685CC6A
:1035100080E090E0A0E8BFE3F701858B968BA78B56
:10352000B08F8ACD20E030E040E05FE30E94783049
:10353000F701658B768B878B908F66CD518F59CE37
:103540008091D402882309F469C012968D919C91D0
:1035500013978E0D9F1D13969C938E93129713CFE6
:10356000E2A283CED9015A968D919D910D90BC9186
:10357000A02D89839A83AB83BC83C301B2010E94CF
:10358000712F20E030E040E05EE30E947830AB0134
:10359000BC0109811A812B813C818A2D0E94A70AD6
:1035A000F2CE8091D402D901882309F43FC05A9603
:1035B0008D919D910D90BC91A02D89839A83AB83B1
:1035C000BC83C301B2010E94712F20E030E040E2D1
:1035D00051E40E947830AB01BC0109811A812B8132
:1035E0003C818A2D0E949E09CECE9FE00BC0E091C7
:1035F000D502A8E0EA02F0011124EB51FD4F8081D1
:10360000811102CF8091D50281508093D5028091A3
:10361000D50287FFECCF9093D502E9CFF9018281E3
:1036200093818C0D9D1D93838283ADCE5A968D918F
:103630009D910D90BC91A02D89839A83AB83BC830F
:10364000C301B2010E94712FAB01BC0109811A8133
:103650002B813C818A2D0E949E0995CEF894809101
:10366000A203882331F08091A1031092A1037894E2
:10367000089580E078940895CF93DF93F894C0EE96
:10368000D2E04881598186E294E0FC01A081B181B9
:1036900020E4FA0101900D922A95E1F721E0DC0186
:1036A00012962C93E881F98180E4DF011D928A95BE
:1036B000E9F71B821A827894DF91CF910895AF9237
:1036C000BF92CF92DF92EF92FF920F931F93CF930F
:1036D000DF93F89480912804882309F466C08091D0
:1036E0002604909127046CE072E00E9467347C010C
:1036F000E091C802F091C902C080D180CAE5D2E051
:10370000A12C30E8B32EFE0105911491F8016591CA
:103710007491C6010E945534A091C802B091C902AB
:10372000CD90DC90B601C7010E946B34892B29F43F
:10373000F8013396B4903197A490229682E0CA396A
:10374000D80709F7AA20C9F0C1E06CE072E080E078
:1037500090E00E946734EC2FF0E0EE0FFF1F209105
:10376000C8023091C902E20FF31FBC018081918130
:103770000E947434CF5FAC1640F7E0912604F091BC
:10378000270480E4DF011D928A95E9F7109228044E
:1037900078948B2DDF91CF911F910F91FF90EF9037
:1037A000DF90CF90BF90AF90089580E8B82EF0CF13
:1037B0003F924F925F926F927F928F929F92AF92C1
:1037C000BF92CF92DF92EF92FF920F931F93CF930E
:1037D000DF9300D000D0CDB7DEB78B017A014AE08D
:1037E00050E060E070E00E942832362E82E08315BF
:1037F00008F443C061E172E0C7010E946B34892B79
:1038000049F167E172E0C7010E946B34892B09F42A
:103810009DC06BE172E0C7010E946B34892B09F4F3
:1038200042C08EE192E00F900F900F900F90DF91C9
:10383000CF911F910F91FF90EF90DF90CF90BF90AD
:10384000AF909F908F907F906F905F904F903F9040
:103850000C94FA04E32CF12C4AE050E060E070E0B4
:10386000C8010E94283223E22E9DF0012F9DF00D09
:103870001124E354FC4F738362830F900F900F90D9
:103880000F90DF91CF911F910F91FF90EF90DF90FC
:10389000CF90BF90AF909F908F907F906F905F90F0
:1038A0004F903F90089583E2389EF0011124E35435
:1038B000FC4F6081718145845684678470882589B6
:1038C00036894789508D81889288A388B488882753
:1038D00077FD8095982F29833A834B835C830E94E0
:1038E000712F6B017C0129813A814B815C81C3017D
:1038F000B2010E947830A50194010E9478309B01AA
:10390000AC0160E070E080E090E40E94D62E9B0164
:10391000AC01C701B6010E9478309B01AC01C8011F
:1039200029833A834B835C830E94533329813A81F4
:103930004B815C810E946D2EAB01BC0100E010E068
:1039400020E83FE3832D0E94A70A97CF83E2389EA9
:10395000F0011124E354FC4F608171814584568449
:1039600067847088258936894789508D8188928837
:10397000A388B488882777FD8095982F29833A8378
:103980004B835C830E94712F6B017C0129813A81FA
:103990004B815C81C301B2010E947830A501940182
:1039A0000E9478309B01AC0160E070E084EB93E40E
:1039B0000E94D62E9B01AC01C701B6010E9478304F
:1039C0009B01AC01C80129833A834B835C830E942D
:1039D000533329813A814B815C810E946D2EAB016A
:1039E000BC0100E010E020E83FE3832D0E949E0927
:1039F00044CFCF92DF92FF920F931F93CF93DF9329
:103A00006B01EA014AE050E060E070E00E94283279
:103A1000F62E22E02617A8F061E172E0CE010E94A6
:103A20006B34892BF1F167E172E0CE010E946B34B7
:103A3000892B19F16BE172E0CE010E946B34892B66
:103A400041F0DF91CF911F910F91FF90DF90CF90C8
:103A50000895C6010E945333AB01BC0100E010E0A1
:103A600020E83FE38F2D0E94A70ADF91CF911F919D
:103A70000F91FF90DF90CF900895C6010E945333BD
:103A8000AB01BC0100E010E020E83FE38F2D0E9475
:103A90009E096BE172E0CE010E946B34892B89F69E
:103AA000D8CF4AE050E060E070E0C6010E942832C2
:103AB00023E2F29EF0011124E354FC4F2281338172
:103AC000620F731F7383628367E172E0CE010E940D
:103AD0006B34892B09F0AECFD0CF0F931F93CF93C8
:103AE0008B014AE050E060E070E00E942832C62F6F
:103AF0004AE050E060E070E0C8010E942832C33024
:103B000080F4611107C060E08C2FCF911F910F915D
:103B10000C94411461E08C2FCF911F910F910C9464
:103B20004114CF911F910F9108954F925F926F9220
:103B30007F928F929F92AF92BF92CF92DF92EF923D
:103B4000FF920F931F93CF93DF9300D000D0CDB798
:103B5000DEB77B014AE050E060E070E00E9428326E
:103B6000162F633008F07FC061E172E0C7010E9448
:103B70006B34892B09F4C3C067E172E0C7010E946E
:103B80006B34892B41F06BE172E0C7010E946B340A
:103B9000892B09F47DC093E2199FF0011124E354AD
:103BA000FC4F6081718145845684678470882589C3
:103BB00036894789508D81889288A388B48800917E
:103BC000B4031091B503882777FD8095982F29833A
:103BD0003A834B835C830E94712F6B017C012981A6
:103BE0003A814B815C81C301B2010E947830A5010A
:103BF00094010E9478309B01AC0160E070E084EB9E
:103C000093E40E94D62E9B01AC01C701B6010E942D
:103C100078309F938F937F936F9381E492E09F938B
:103C20008F931F930F930E94ED340FB6F894DEBF6D
:103C30000FBECDBF8091B4039091B5030F900F904C
:103C40000F900F90DF91CF911F910F91FF90EF9008
:103C5000DF90CF90BF90AF909F908F907F906F90AC
:103C60005F904F9008958091B4039091B5031F9297
:103C70001F932AE232E03F932F939F938F930E94EA
:103C8000ED340F900F900F900F900F900F90D2CFB8
:103C900093E2199FF0011124E354FC4F608171817C
:103CA0004584568467847088258936894789508D74
:103CB00081889288A388B4880091B4031091B503D9
:103CC000882777FD8095982F29833A834B835C83DF
:103CD0000E94712F6B017C0129813A814B815C81AB
:103CE000C301B2010E947830A50194010E9478308E
:103CF0009B01AC0160E070E080E090E482CF83E261
:103D0000189FF0011124E354FC4F208131818091F0
:103D1000B4039091B5033F932F932EE332E0ABCFE2
:103D20004AE050E060E070E00E942832633018F50D
:103D300083E2689FF0011124E354FC4F2281338118
:103D400080819181E091B403F091B5032817390780
:103D500049F081E390E0918380838091B403909156
:103D6000B503089580E390E0918380838091B4034C
:103D70009091B50308958091B4039091B5031F927B
:103D80006F932AE232E03F932F939F938F930E9489
:103D9000ED340F900F900F900F900F900F90809137
:103DA000B4039091B50308954AE050E060E070E0FC
:103DB0000E9428326430E0F4862F0E94470520914B
:103DC000B4033091B5039F938F938EE392E09F935A
:103DD0008F933F932F930E94ED340F900F900F908D
:103DE0000F900F900F908091B4039091B5030895B8
:103DF0008091B4039091B5031F926F932AE232E051
:103E00003F932F939F938F930E94ED340F900F90C9
:103E10000F900F900F900F908091B4039091B50385
:103E200008954AE050E060E070E00E94283263307C
:103E300008F583E2689FF0011124E354FC4F2481CC
:103E400035818091B4039091B5033F932F932EE376
:103E500032E03F932F939F938F930E94ED340F9006
:103E60000F900F900F900F900F908091B40390914E
:103E7000B50308958091B4039091B5031F926F9399
:103E80002AE232E0E6CF0F931F93CF938B014AE0F3
:103E900050E060E070E00E942832C62F633098F452
:103EA0004AE050E060E070E0C8010E94283223E25E
:103EB000C29FF0011124E354FC4F75836483CF91BA
:103EC0001F910F9108958091B4039091B5031F92B3
:103ED000CF932AE232E03F932F939F938F930E94D8
:103EE000ED348091B4039091B5030F900F900F9033
:103EF0000F900F900F90CF911F910F910C94FA0497
:103F00004AE050E060E070E00E942832633038F50B
:103F100083E2689FF0011124E354FC4F8585968568
:103F2000A785B0892091B4033091B503BF93AF93B7
:103F30009F938F9381E492E09F938F933F932F936E
:103F40000E94ED348DB79EB708960FB6F8949EBFC9
:103F50000FBE8DBF8091B4039091B50308958091F9
:103F6000B4039091B5031F926F932AE232E03F931E
:103F70002F939F938F930E94ED340F900F900F908B
:103F80000F900F900F908091B4039091B503089516
:103F90000F931F93CF938B014AE050E060E070E0F5
:103FA0000E942832C62F633088F4C8010E94533320
:103FB00023E2C29FF0011124E354FC4F658776870A
:103FC0008787908BCF911F910F9108958091B403B3
:103FD0009091B5031F92CF932AE232E03F932F9343
:103FE0009F938F930E94ED348091B4039091B50319
:103FF0000F900F900F900F900F900F90CF911F91F7
:104000000F910C94FA044AE050E060E070E00E94E6
:104010002832633038F583E2689FF0011124E354BD
:10402000FC4F81899289A389B4892091B40330918E
:10403000B503BF93AF939F938F9387E891E09F93CE
:104040008F933F932F930E94ED348DB79EB70896C0
:104050000FB6F8949EBF0FBE8DBF8091B4039091B0
:10406000B50308958091B4039091B5031F926F93A7
:104070002AE232E03F932F939F938F930E94ED3477
:104080000F900F900F900F900F900F908091B403AE
:104090009091B50308950F931F93CF938B014AE03E
:1040A00050E060E070E00E942832C62F633088F450
:1040B000C8010E94533323E2C29FF0011124E3544C
:1040C000FC4F618B728B838B948BCF911F910F91DF
:1040D00008958091B4039091B5031F92CF932AE283
:1040E00032E03F932F939F938F930E94ED34809102
:1040F000B4039091B5030F900F900F900F900F9015
:104100000F90CF911F910F910C94FA044AE050E068
:1041100060E070E00E942832633038F583E2689FE7
:10412000F0011124E354FC4F85899689A789B08D4D
:104130002091B4033091B503BF93AF939F938F93B6
:1041400087E891E09F938F933F932F930E94ED34E4
:104150008DB79EB708960FB6F8949EBF0FBE8DBF61
:104160008091B4039091B50308958091B403909128
:10417000B5031F926F932AE232E03F932F939F93F0
:104180008F930E94ED340F900F900F900F900F902F
:104190000F908091B4039091B50308950F931F93EE
:1041A000CF938B014AE050E060E070E00E9428323B
:1041B000C62F633088F4C8010E94533323E2C29FA4
:1041C000F0011124E354FC4F658B768B878B908F25
:1041D000CF911F910F9108958091B4039091B503F1
:1041E0001F92CF932AE232E03F932F939F938F93B6
:1041F0000E94ED348091B4039091B5030F900F901D
:104200000F900F900F900F90CF911F910F910C94E2
:10421000FA044AE050E060E070E00E942832633027
:1042200008F583E2689FF0011124E354FC4F268DCA
:10423000378D8091B4039091B5033F932F932EE374
:1042400032E03F932F939F938F930E94ED340F9012
:104250000F900F900F900F900F908091B40390915A
:10426000B50308958091B4039091B5031F926F93A5
:104270002AE232E0E6CF0F931F93CF93DF931F9292
:10428000CDB7DEB78B014AE050E060E070E00E94FD
:104290002832633098F4C80169830E9457336981DA
:1042A00023E2629FF0011124E354FC4F978F868F25
:1042B0000F90DF91CF911F910F910895A091B403BA
:1042C000B091B50383E1E4E4F2E001900D928A95A8
:1042D000E1F78091B4039091B5030F90DF91CF91F6
:1042E0001F910F910C94FA042F923F924F925F927C
:1042F0006F927F928F929F92AF92BF92CF92DF92F6
:10430000EF92FF920F931F93CF93DF9300D000D0D3
:10431000CDB7DEB78B017A014AE050E060E070E093
:104320000E942832633008F0B8C0262E312CF101EB
:10433000EE0FFF1FEE0FFF1FE20DF31DEB55FC4FBD
:1043400084818823B9F00F900F900F900F90DF9128
:10435000CF911F910F91FF90EF90DF90CF90BF9082
:10436000AF909F908F907F906F905F904F903F9015
:104370002F900895C7010E9453336B017C0164ECB8
:1043800071E0C8010E946B34892B09F4D8C083E224
:10439000829DF001839DF00D11249F0123543C4F19
:1043A000D9011D968D909D90AD90BC9050975196DF
:1043B0004D905D906D907C90549755968D919D9108
:1043C0000D90BC91A02D89839A83AB83BC83C701D8
:1043D000B6019F7720E030E04AE754E40E9478304D
:1043E0006B017C01A3019201C501B4010E947830E8
:1043F00029813A814B815C810E9478309B01AC011C
:10440000C701B6010E94D62E0E94DB300E94432FC6
:104410006B017C01CB01009709F478C06031B7E2F1
:104420007B0708F061C061ED71E0C8010E946B3448
:10443000892BA9F483E2829DF001839DF00D112464
:10444000E354FC4F81E08487D78EC68E80819181B2
:10445000938382838281938101969383828360ED2B
:1044600071E0C8010E946B34892B09F06CCF83E2A4
:10447000829DF001839DF00D1124E354FC4F82E0F6
:104480008487D78EC68E8081918193838283828137
:10449000938101979383828356CFA091B403B09107
:1044A000B50383E1E4E4F2E001900D928A95E1F72F
:1044B0008091B4039091B5030F900F900F900F90DF
:1044C000DF91CF911F910F91FF90EF90DF90CF90F0
:1044D000BF90AF909F908F907F906F905F904F9024
:1044E0003F902F900C94FA04A091B403B091B503BF
:1044F00083E1EBE6F2E001900D928A95E1F780917D
:10450000B4039091B5030E94FA048DCF8091B40357
:104510009091B5031F921F9227E532E03F932F93AE
:104520009F938F930E94ED348091B4039091B503D3
:104530000F900F900F900F900F900F90BDCFF894A9
:1045400083E2829DF001839DF00D1124E354FC4F22
:10455000148683E090E0978F868F8081918193838A
:1045600082837894F0CEF8940E9486030E9481059D
:1045700078940895EF92FF920F931F93CF93DF9358
:104580001F92CDB7DEB78B017A014AE050E060E0C0
:1045900070E00E942832633070F5C80169830E9480
:1045A00057338C01C7010E945733698108171907D7
:1045B000D1F180179107CCF070E0FB01EE0FFF1FE7
:1045C000EE0FFF1F6E0F7F1FFB01EB55FC4F11839A
:1045D00000839383828381E084830F90DF91CF9166
:1045E0001F910F91FF90EF900895302F212F8C0194
:1045F000832F922FE1CFA091B403B091B50383E153
:10460000E4E4F2E001900D928A95E1F78091B40321
:104610009091B5030F90DF91CF911F910F91FF9073
:10462000EF900C94FA0470E0FB01EE0FFF1FEE0F09
:10463000FF1F6E0F7F1FFB01EB55FC4F1182108295
:104640001382128214820F90DF91CF911F910F91EC
:10465000FF90EF9008950F931F93CF938B014AE043
:1046600050E060E070E00E942832C62F6330C0F452
:104670004AE050E060E070E0C8010E9428328C2FD0
:1046800090E0FC01EE0FFF1FEE0FFF1F8E0F9F1F2C
:10469000FC01EB55FC4F6483CF911F910F9108955E
:1046A000A091B403B091B50383E1E4E4F2E001909A
:1046B0000D928A95E1F78091B4039091B503CF9163
:1046C0001F910F910C94FA048F929F92AF92BF9218
:1046D000CF92DF92EF92FF920F931F93CF93DF93CE
:1046E0004B015A0169014AE050E060E070E00E942D
:1046F0002832C62F6031D0F46EE772E0C7010E9405
:104700006B34892B01F5EC2FF0E0EE0FFF1FEE0F5D
:10471000FF1FEE0FFF1FEB51FD4F108281E08783DB
:10472000128211821482138216821582DF91CF9138
:104730001F910F91FF90EF90DF90CF90BF90AF90BF
:104740009F908F900895D0E04AE050E060E070E0E4
:10475000C4010E9428324E01880C991C880C991CB7
:10476000880C991CE401CB51DD4F7A8369834AE0C0
:1047700050E060E070E0C5010E9428327C836B83CA
:104780004AE050E060E070E0C6010E9428327E837B
:104790006D834AE050E060E070E0C8010E9428327A
:1047A00078876F8381E0888363E872E0C7010E94A5
:1047B0006B34892B09F41F8267E872E0C7010E94FD
:1047C0006B34892B09F0B2CFE401CB51DD4F81E08E
:1047D0008F83ACCF4AE050E060E070E00E94283266
:1047E000633008F583E2689FF0011124E354FC4F25
:1047F0008385E091B403F091B50381110AC080E391
:1048000090E0918380838091B4039091B5030C94E0
:10481000FA0481E390E0918380838091B4039091C6
:10482000B5030C94FA04A091B403B091B50383E1ED
:10483000E4E4F2E001900D928A95E1F78091B403EF
:104840009091B5030C94FA04EF92FF920F931F938B
:10485000CF93DF93C0E0D0E00BE812E0FE01EE0F53
:10486000FF1FEE0FFF1FEE0FFF1FEB51FD4FE0800C
:10487000F780A781B085658176814381548121814C
:1048800032818091B4039091B5031F92EF921F92F1
:10489000FF92BF93AF937F936F935F934F933F9339
:1048A0002F93DF93CF931F930F939F938F930E9428
:1048B000ED348091B4039091B5030E94FA042196DF
:1048C0008DB79EB742960FB6F8949EBF0FBE8DBFB0
:1048D000C031D10519F6DF91CF911F910F91FF9053
:1048E000EF900895CF93DF93EB0140E150E060E05B
:1048F00070E00E94283240E150E060E070E0CE01BC
:104900000E94283269E080E40E94931396B1C4EBC0
:10491000D3E0288139811F928F931F929F9380EA61
:1049200092E09F938F933F932F930E94ED34888161
:1049300099812DB73EB7285F3F4F0FB6F8943EBF21
:104940000FBE2DBFDF91CF910C94FA041F920F92EE
:104950000FB60F9211240BB60F928F939F93EF9384
:10496000FF938091C6009091E20291111CC08D309E
:1049700009F18A3021F09091E302903430F1E09116
:10498000E002F091E1028091E302E80FF11D108254
:1049900081E08093E2028091C00085FFFCCF86E039
:1049A0008093C60007C08091C00085FFFCCF85E1E1
:1049B0008093C600FF91EF919F918F910F900BBE56
:1049C0000F900FBE0F901F901895E091E002F091AC
:1049D000E1029091E302E90FF11D80838091E302EF
:1049E0008F5F8093E302E6CF1F920F920FB60F9274
:1049F00011240BB60F922F933F934F935F936F93B6
:104A00007F938F939F93AF93BF93CF93EF93FF9336
:104A1000339B40C0E091CA02F091CB02EE0FFF1F22
:104A2000EE0FFF1FEF70FF27F093CB02E093CA0257
:104A3000359B05C0E260F093CB02E093CA02349B41
:104A400005C0E160F093CB02E093CA02EE0FFF1FB6
:104A5000EB58FB4F8491882349F0E4918091A103A6
:104A6000E80FE093A10381E08093A203FF91EF910F
:104A7000CF91BF91AF919F918F917F916F915F91F6
:104A80004F913F912F910F900BBE0F900FBE0F9043
:104A90001F90189587EA92E00E94FA048091A4037F
:104AA000811104C081E08093A403B4CFC1E0C0931E
:104AB000A30387EA92E00E94FA041092A403C09331
:104AC000D002A8CF1F920F920FB60F9211240BB6EF
:104AD0000F922F933F934F935F936F937F938F9397
:104AE0009F93AF93BF93CF93EF93FF9368E080E4DE
:104AF0000E949313C82F83EB92E00E94FA049091D6
:104B0000D002911105C0C093CE0281E08093D00203
:104B1000FF91EF91CF91BF91AF919F918F917F9135
:104B20006F915F914F913F912F910F900BBE0F901E
:104B30000FBE0F901F9018951F920F920FB60F92F5
:104B400011240BB60F922F923F924F925F926F9269
:104B50007F928F929F92AF92BF92CF92DF92EF920D
:104B6000FF920F931F932F933F934F935F936F93F6
:104B70007F938F939F93AF93BF93EF93FF93CF93C5
:104B8000DF93CDB7DEB76897DEBFCDBF5E012DE006
:104B9000A20EB11CCE0101964C019E8B8D8BBC8A5E
:104BA000AB8A612C712CE12CF12C1F8A188E93E2B8
:104BB0009E9D80019F9D100D112403541C4FD80110
:104BC0001296CD90DC9013978D919C911197C81AF5
:104BD000D90AEB89FC89C192D192FC8BEB8B1D9693
:104BE0006D917D918D919C91509751962D913D9114
:104BF0004D915C91549755962D903D904D905C90C1
:104C000058970E947830A20191010E947830AD89B6
:104C1000BE896D937D938D939D93BE8BAD8BC11497
:104C2000D10409F449C0F80180A191A1892B09F4AC
:104C3000FEC080A191A1019791A380A36681778195
:104C40008085918520E030E040E85FE30E94743089
:104C50001816DCF4D80112968D919C911397019649
:104C600013969C938E93129716966D917D918D91CC
:104C70009C91199720E030E040E85FE30E946D2EA0
:104C8000F8016683778380879187F3E2FE9D800138
:104C9000FF9D100D112403541C4FD80116966D91E1
:104CA0007D918D919C91199720E030E040E85FEB79
:104CB0000E94D22E87FD3EC13FEFE31AF30A82E045
:104CC000680E711C93E0E916F10409F070CF82B10F
:104CD000A88D8A2B82B9B6E0BA95F1F700C082B1EF
:104CE000EF898E2B82B9FDE0FA95F1F7000082B1D1
:104CF0007E2E7094782272B826E02A95F1F700C0D3
:104D000012B800E010E083E2D82E7801DE9C80012A
:104D1000DF9C100D112403541C4FD8011A968C915E
:104D20001A97882309F44AC0F501808191811816E9
:104D300019060CF0BBC06D917C91D4014D905D9033
:104D40006D907C906F5F7F4F882777FD8095982FBF
:104D50000E94712FA30192010E947430181694F4DE
:104D6000F8011182108222803380C301B2010E94B7
:104D7000DB300E943E2F261A370AD80113963C9248
:104D80002E921297DE9CF001DF9CF00D1124E3546B
:104D9000FC4F808191810196918380838485882353
:104DA00029F082819381019693838283DE9CF001B6
:104DB000DF9CF00D1124E354FC4F1286FFEFEF1A35
:104DC000FF0A24E0820E911C32E0A30EB11C83E0A6
:104DD000E816F10409F09ACF68960FB6F894DEBF92
:104DE0000FBECDBFDF91CF91FF91EF91BF91AF91FA
:104DF0009F918F917F916F915F914F913F912F91F3
:104E00001F910F91FF90EF90DF90CF90BF90AF90E8
:104E10009F908F907F906F905F904F903F902F90DA
:104E20000F900BBE0F900FBE0F901F90189521E0B2
:104E3000F8012287F701EE0FFF1FEE0FFF1FEE0DA7
:104E4000FF1DEB55FC4F8481D7FC50C081111AC067
:104E500081E090E0062C01C0880F0A94EAF7BF8930
:104E6000B82BBF8B23E22E9DF0012F9DF00D112456
:104E7000E354FC4F868D978D880F991F019791A35E
:104E800080A31ACFD8018D919C91119720813181F7
:104E9000019682179307E1F68D919C9111971396D5
:104EA0009C938E9312971A961C92D2CF892B09F459
:104EB0007DCFF80180819181181619060CF05CC035
:104EC000DE9CF001DF9CF00D1124E354FC4F808147
:104ED00091810197918380838485882309F466CF2B
:104EE0008281938101979383828360CF882351F0DD
:104EF000D8018D919C91119722813381019682175F
:104F0000930781F1C3010196E1E0F0E002C0EE0FEA
:104F1000FF1F8A95E2F7CF01F88DF82BF88F81E01B
:104F200090E0062C01C0880F0A94EAF72F89282BFD
:104F30002F8B98CFF801828193810197938382838D
:104F4000668177818085918520E030E040E85FE3ED
:104F50000E946E2ED80116966D937D938D939C932F
:104F60001997AACE8D919C91119713969C938E932D
:104F700012971A961C92C6CFD4016D917D918D9196
:104F80009C910E94DB300E943E2FF8017183608368
:104F900022813381620F731F7383628391CF2F92BB
:104FA0003F924F925F926F927F928F929F92AF92B9
:104FB000BF92CF92DF92EF92FF920F931F93CF9306
:104FC000DF93CDB7DEB763970FB6F894DEBF0FBEA1
:104FD000CDBF6C014B012A01FC011782168283812F
:104FE00081FF43C3AE014F5F5F4F3A01F6019381EA
:104FF000F40193FD859193FF81914F01882309F47A
:1050000030C3853239F493FD859193FF81914F012F
:10501000853239F4B60190E00E94B5345201250181
:10502000E5CF10E0F12C20E02032A0F48B3269F0C3
:1050300030F4803259F0833269F420612CC08D3213
:1050400039F0803339F4216026C02260246023C007
:10505000286021C027FD27C030ED380F3A3078F4A2
:1050600026FF06C0FAE01F9F300D1124132F13C036
:105070004AE0F49E300D1124F32E20620CC08E32D3
:1050800021F426FDEEC2206406C08C3611F420689F
:1050900002C0883641F4F40193FD859193FF81911C
:1050A0004F018111C1CF9BEB980F933018F4206111
:1050B000805E06C09BE9980F933008F071C12F7E87
:1050C00026FF16E02F73322E853619F42064322E17
:1050D00008C0863621F4F22FF0683F2E02C011116D
:1050E000115037FE07C01C3350F4EE24E394E10E58
:1050F00027E00BC0183038F027E017E005C027E0A4
:105100004CE3E42E02C0212FE12C520144E0A40E16
:10511000B11CF20160817181828193810E2DA30106
:105120000E9475332C01098100FF02C003FF07C0F4
:1051300031FC08C032FE09C030E2232E07C02DE248
:10514000222E04C09BE2292E01C0212C802F8C70BE
:1051500019F0211068C2A8C237FE0FC0E40C04FF8A
:1051600004C08A81813309F4EA941E1474F5F8E0CE
:10517000FE1578F588E0E82E2CC036FC2AC0812F79
:1051800090E0841595059CF02CEF42162FEF520607
:1051900074F0432D4068342E0AC0E2E0F0E0EC0FDA
:1051A000FD1FE10FF11D8081803319F411501111A1
:1051B000F4CF37FE0EC0EE24E394E10E812F90E091
:1051C000481659062CF4141904C0EE24E39401C0C7
:1051D00010E037FE06C01414150434F4C201019621
:1051E00005C085E090E002C081E090E021100196CA
:1051F000112331F0212F30E02F5F3F4F820F931F9B
:105200002F2D30E08217930714F4F81A01C0F12C07
:10521000832D897049F4FF2039F0B60180E290E0D7
:105220000E94B534FA94F7CF222029F0B601822DDE
:1052300090E00E94B53433FC09C0FF2039F0B6017C
:1052400080E390E00E94B534FA94F7CF37FE5AC05D
:10525000942D852D57FE02C090E080E0292E382E37
:1052600020E030E0A2014E1951095D874C87A20170
:10527000421953095F874E87612F70E044275527F5
:10528000461B570B598B488B5FEF2516350649F4A3
:10529000B6018EE290E02A8B3B8B0E94B5343B89AD
:1052A0002A89421453046CF04C855D8542155305E0
:1052B00044F4EE85FF85E20FF31FE60DF71D8181B3
:1052C00001C080E351E0251A31082F5F3F4F488924
:1052D0005989241635064CF0B60190E02A8B3B8B99
:1052E0000E94B5342A893B89CFCF2414350439F480
:1052F0009A81963318F4953311F404FF81E3B601D3
:1053000090E04BC08A81813309F00F7EB60190E0B6
:105310000E94B534111105C034FC18C085E690E038
:1053200017C0B6018EE290E00E94B53482E0EE2410
:10533000E394E80EF301E80FF11D8081B60190E0DF
:105340000E94B53411508E2D91F7E6CF85E490E0A0
:10535000B6010E94B53457FC05C04114510439F41C
:1053600004FF05C05194419451088DE201C08BE2C5
:10537000B60190E00E94B53480E39AE049165104EA
:105380002CF08F5F5AE0451A5108F7CFB60190E034
:105390000E94B534B601C201C0960E94B53457C10F
:1053A000833631F0833779F0833509F058C021C056
:1053B0005201E2E0AE0EB11CF2018081898301E06E
:1053C00010E0230114C05201F2E0AF0EB11CF20153
:1053D0004080518026FF03C0612F70E002C06FEF54
:1053E0007FEFC2012A8B0E947B348C012A892F77A0
:1053F00015C05201F2E0AF0EB11CF20140805180A5
:1054000026FF03C0612F70E002C06FEF7FEFC20183
:105410002A8B0E945C348C012A892068322E23FD5D
:105420001AC08F2D90E008171907A8F4B60180E282
:1054300090E00E94B534FA94F4CFF20137FC8591E4
:1054400037FE81912F01B60190E00E94B534F11032
:10545000FA94015011090115110579F7F8C0843645
:1054600011F0893659F5520127FF09C0F4E0AF0E5B
:10547000B11CF20160817181828193810AC0F2E0E6
:10548000AF0EB11CF20160817181882777FD809594
:10549000982F2F76322E97FF09C0909580957095A2
:1054A00061957F4F8F4F9F4F2068322E2AE030E06A
:1054B000A3010E941D35E82EE6183FC0022F853754
:1054C00021F40F7E2AE030E01DC0097F8F3691F075
:1054D00018F4883559F0C5C0803719F0883711F0B5
:1054E000C0C0006104FF09C0046007C024FF08C0F9
:1054F000066006C028E030E005C020E130E002C0D0
:1055000020E132E0520107FF09C0F4E0AF0EB11C08
:10551000F201608171818281938108C0F2E0AF0E57
:10552000B11CF2016081718180E090E0A3010E94D2
:105530001D35E82EE6180F77302E36FE0BC0332DC2
:105540003E7FE11650F434FE0AC032FC08C0332D11
:105550003E7E05C00E2D332D03C00E2D01C0012F40
:1055600034FF0CC0FE01EE0DF11D8081803311F47B
:10557000397E08C032FF05C00E5F04C0832F8678D5
:1055800009F00F5F33FD13C030FF06C01E2D0F154D
:1055900018F41F0D101B0F2D0F1568F4B60180E2D3
:1055A00090E03B8B0E94B5340F5F3B89F5CF0F1520
:1055B00010F4F01A01C0F12C34FF12C0B60180E3E0
:1055C00090E03B8B0E94B5343B8932FF17C031FD20
:1055D00003C088E790E002C088E590E0B6010CC007
:1055E000832F867859F031FF02C08BE201C080E240
:1055F00037FD8DE2B60190E00E94B534E11638F433
:10560000B60180E390E00E94B5341150F7CFEA94E0
:10561000F301EE0DF11D8081B60190E00E94B534DA
:10562000E110F5CF14C0F4E0FF1558F584E0F81A46
:1056300033FE1EC0211026C003FF2AC008EF10E071
:10564000F32DF0713F2EF8018491811124C0FF20C9
:1056500009F4E5CCB60180E290E00E94B534FA94FA
:10566000F6CFF6018681978126C08FEF9FEF23C08A
:10567000B60180E290E00E94B534FA94F110F8CFC0
:10568000D9CFF12CB601822D90E00E94B534D4CF51
:105690000CEF10E0D5CF31108052B60190E00E949F
:1056A000B5340F5F1F4FCFCF23E02F1510F483E0E9
:1056B000BECFF12CC1CF63960FB6F894DEBF0FBEFC
:1056C000CDBFDF91CF911F910F91FF90EF90DF90B1
:1056D000CF90BF90AF909F908F907F906F905F9092
:1056E0004F903F902F90089584E190E00E94FB300E
:1056F0008093C8029093C9028C01E12CF12C84E1C3
:1057000090E00E94FB30F801EE0DFF1D9183808335
:1057100022E0E20EF11C84E1E816F10429F0009188
:10572000C8021091C902EBCF88E090E00E94FB30E4
:105730009093D9028093D80288E090E00E94FB30D9
:105740009093DB028093DA0200E010E0E090D80250
:10575000F090D90289E090E00E94FB30F701E00F61
:10576000F11F91838083E090DA02F090DB0289E000
:1057700090E00E94FB30F701E00FF11F91838083DE
:105780000E5F1F4F0830110509F784E090E00E947A
:10579000FB309093DD028093DC0284E090E00E9475
:1057A000FB309093DF028093DE020091DC021091C7
:1057B000DD0281E190E00E94FB30F801918380835B
:1057C0000091DE021091DF0281E190E00E94FB3047
:1057D000F801918380830091DC021091DD0281E168
:1057E00090E00E94FB30F801938382830091DE02F7
:1057F0001091DF0281E190E00E94FB30F801938379
:10580000828380E490E00E94FB309093E1028093D9
:10581000E00280E490E00E94FB309093B503809317
:10582000B40380E490E00E94FB30909327048093BF
:10583000260485E190E00E94FB309093BB038093A7
:10584000BA0388E290E00E94FB309093B903809302
:10585000B80380E090E02FEFFC01E959FC4F208372
:10586000019680339105C1F787B1806C87B98FEFBE
:1058700081B912B882E00E943408FFEF21E18AE783
:10588000F15020408040E1F700C0000062E080E17C
:105890000E948F0788EB92E00E945C0960E081E043
:1058A0000E944D070E94650760E080E00E94630847
:1058B00081E1B82E94E0C92E2DE4D22ED5E10E94CC
:1058C00086030E948004B092B8008091B9008C7F5A
:1058D0008093B900C092BC008091B0008260809338
:1058E000B000D092B300809170008260809370000D
:1058F0001092B2008091B10085608093B1000E9447
:1059000088161092C500D093C4008091C1008869A8
:105910008093C1000E941C0682E40E94151384E457
:105920000E94151386E40E9415130E942511789495
:105930000E94E5160E9425118091E20281111DC08E
:105940004C2F50E0FA01E158F109EF31F10560F414
:10595000E35AFF4F0C94642E0E94B322F8940E94E5
:105960007414ADCF0E942424C0E80E94E5160E9462
:1059700025118091E202882319F30E943C1B0E94AA
:105980005F1BC82FDDCFE091C802F091C902828170
:1059900093810E94EA23C0E8E8CFE091C802F09129
:1059A000C902E484F584028513852085318546810A
:1059B000578164817581828193810E946423C0E84C
:1059C000D4CFE091C802F091C902648175818281CF
:1059D00093810E942B23C0E8C8CFE091C802F091C8
:1059E000C9024681578164817581828193810E94B9
:1059F000BA22C0E8BACFF8948091BD039091BE035B
:105A00009093C0038093BF031092C9038091E00379
:105A10009091E1039093E3038093E2031092EC03EF
:105A200080910304909104049093060480930504EC
:105A300010920F047894C0E898CFE091C802F091DA
:105A4000C9024681578164817581828193810E9458
:105A50007421C0E88ACFE091C802F091C902648144
:105A60007581828193810E943B21C0E87ECFE091C5
:105A7000C802F091C902828193810E9409210E948B
:105A8000FA04C0E872CFE091C802F091C9026481C3
:105A90007581828193810E94CE20C0E866CFE0911B
:105AA000C802F091C902828193810E9486200E94DF
:105AB000FA04C0E85ACFE091C802F091C9026481AB
:105AC0007581828193810E944B20C0E84ECFE09186
:105AD000C802F091C902828193810E9403200E9432
