:100000000C9487030C94F52B0C94A6030C94A60374
:100010000C94A6030C94A6030C94A6030C94A603BC
:100020000C94A6030C94460D0C94A6030C94A60302
:100030000C94A6030C94A6030C94A6030C94A6039C
:100040000C94F80A0C94A6030C94A6030C94A60333
:100050000C94AA0A0C94A6030C94A6030C94A60371
:100060000C94A6030C94A6030C94A6030C94A6036C
:100070000C94A6030C94A6030C94A6030C94A6035C
:100080000C94A6030C94A6030C94A603D817151879
:100090009D18F718681BC019181AD01B2D1C1617AD
:1000A00055176119A21C011D7B1A5B1DD51A2B1B4C
:1000B0009B17E0374A38A836B5371B379B3836369A
:1000C0001B361036F731803507358A34CB33583339
:1000D000C932BC32AB321D3E0C3EF43DE73DDA3D49
:1000E000CF3DC43DB73DB43DAD3DA23D973D8C3DB8
:1000F000813D763D6B3D603D553D4A3D3F3D343D44
:10010000293D1C3D163DD73CCA3CBF3CAC3CA33C02
:10011000A03C913C863C7B3C703C653C5A3C213E7B
:1001200000000000FFFF00000000000000000100D0
:1001300001000000000000000000FFFF00000000C0
:100140000000400100802A52535400004601008103
:100150002A49444E3F0000500100822A49444E0083
:10016000005B0101834D4F5645414253000065013C
:1001700003844D4F564552454C0000720103855A89
:1001800045524F52554E00007F010186454E414277
:100190004C4500008C010287474554504F530000E6
:1001A0009801028853415645434F4E460000A40132
:1001B00000894C4F4144434F4E460000B201008A33
:1001C00049534D4F56494E470000C001018B4745EA
:1001D00054414E414C4F470000CE01018C474554DD
:1001E0005A45524F504F530000DD01018D53455485
:1001F0005A45524F504F530000ED01028E4745546F
:1002000047454152524154494F0000FD01018F536F
:10021000455447454152524154494F00000F020294
:100220009047455446554C4C524F54000021020112
:100230009153455446554C4C524F540000310202E4
:100240009247455453554253544550530000410280
:100250000193534554535542535445505300005253
:100260000202944745545741495454494D450000B2
:10027000630201955345545741495454494D450033
:100280000074020296534554434F4E535453504505
:100290004544000085020397464143544F5259524A
:1002A0004553455400009802009853544F50414C18
:1002B0004C0000AA020099534554464F52425A4FEF
:1002C0004E450000B702039A454E4142464F524206
:1002D0005A4F4E450000C802029B53455450524F9E
:1002E00047535445500000DA02069C4745544D4F91
:1002F0005453544154450000EB02019D444247527F
:100300004541444F55540000FC02009E4C454400BA
:10031000000C03049F4745544355525200001503F7
:1003200001A0534554435552520000220302A147F5
:100330004554444543415900002F0301A2534554FD
:10034000444543415900003D0302A34953434F4EE6
:1003500000004B0301A4444953504C41590000563E
:100360000301A542014C01570161016E017B018827
:10037000019401A001AE01BC01CA01D901E901F952
:10038000010B021D022D023D024E025F027002812E
:10039000029402A602B302C402D602E702F80208DF
:1003A0000311031E032B033903470352035F034C5E
:1003B0004B2D496E737472756D656E74730A534D6F
:1003C00043343234320000AF03004368616E676526
:1003D000206D6F746F720A706F736974696F6E004D
:1003E00000CA030153657420737465700A6D756CDF
:1003F0007469706C6965720000E403024368616EA1
:10040000676520737465700A756E69740000FC037B
:10041000035475726E206F75747075740A6F6E2058
:100420002F206F6666000011040452756E20696EFD
:100430007465726E616C0A70726F6772616D000034
:100440002A040552756E20776974680A636F6E73AB
:1004500074616E7420737065656400004304064423
:100460006566696E65207A65726F0A706F7369746C
:10047000696F6E00005F040752756E207A65726FB7
:100480000A63616C6962726174696F6E000078045E
:1004900008456E7465720A73657474696E677320BB
:1004A0006D656E7500009104092020202020202019
:1004B0002020202020202020200A20202020202052
:1004C000202020202020202020200000A9040A53E2
:1004D0006574206D6F746F720A6765617220726156
:1004E00074696F0000CF040B5365742073746570DA
:1004F00073207065720A66756C6C20726F7461741B
:10050000696F6E0000E8040C4368616E6765206DDA
:100510006F746F720A7375627374657000000805FA
:100520000D4368616E6765206D6F746F720A637545
:100530007272656E74000021050E53657420637538
:100540007272656E740A6465636179206D6F6465AB
:1005500000003A050F4368616E676520737465702B
:100560000A776169742074696D6500005505105340
:100570006176652063757272656E740A636F6E666C
:10058000696775726174696F6E00006F05114C6F59
:100590006164206C6173740A636F6E66696775725B
:1005A0006174696F6E00008E0512C703E103F903E1
:1005B0000E04270440045C0475048E04A604CC04D5
:1005C000E50405051E05370552056C058B05A705D5
:1005D0006E616E00696E660000407A10F35A00A0EA
:1005E000724E18090010A5D4E80000E876481700FC
:1005F00000E40B54020000CA9A3B000000E1F5053C
:10060000000080969800000040420F000000A08685
:1006100001000000102700000000E80300000000B7
:100620006400000000000A0000000000010000005B
:1006300000002C76D888DC674F0823DFC1DFAE5975
:10064000E1B1B796E5E3E453C63AE651997696E808
:10065000E6C28426EB898C9B62ED407C6FFCEFBC8C
:100660009C9F40F2BAA56FA5F490055A2AF75C93B7
:100670006B6CF9676DC11BFCE0E40D47FEF520E6ED
:10068000B500D0ED902E0300943577050080841ED0
:10069000080000204E0A000000C80C333333330F2B
:1006A000986E12831141EF8D2114893BE65516CFC8
:1006B000FEE6DB18D1844B381BF77C1D901DA4BBD4
:1006C000E424203284725E228100C9F124ECA1E589
:1006D0003D27494E46494E4954594E414ECDCCCC0A
:1006E0003D0AD7233C17B7D13877CC2B329595E606
:1006F000241FB14F0A000020410000C84200401CE6
:100700004620BCBE4CCA1B0E5AAEC59D74001124B7
:100710001FBECFEFD0E4DEBFCDBF13E0A0E0B1E05D
:10072000EAE8FCE900E00BBF02C007900D92A63199
:10073000B107D9F714E0A6E1B3E001C01D92AA3ECB
:10074000B107E1F70E941C3B0C94434E0C9400004F
:100750002F923F924F925F926F927F928F929F92D1
:10076000AF92BF92CF92DF92EF92FF920F931F93BF
:1007700040E050E00F2EF0E06F2EF0E07F2EF0E032
:100780008F2EF0E09F2EF02D0F2EF0E02F2EF0E0B8
:100790003F2EF0E44F2EF0E45F2EF02D0F2EF0E010
:1007A000AF2EF0E0BF2EF0E8CF2EF0E4DF2EF02DDC
:1007B0000F2EF0E0EF2EF0E0FF2EF0E80F2FFFE31A
:1007C0001F2FF02D63E070E0FA01EE0FFF1FEE0F18
:1007D000FF1FEE0FFF1FCF01880F991F880F991F72
:1007E000E80FF91FE45CFB4F11821082FA01EE0F53
:1007F000FF1FEE0FFF1FCF01880F991F880F991F52
:10080000E80FF91FEE0FFF1FE25CFB4F1182108211
:10081000CA01FA01EE0FFF1FEE0FFF1FEE0FFF1FC1
:10082000880F991FE80FF91FEE0FFF1FEE0FFF1F34
:10083000E05CFB4F11821082FA01EE0FFF1FEE0FFA
:10084000FF1FEE0FFF1FCF01880F991F880F991F01
:10085000E80FF91FE45CFB4F668277828086918601
:10086000FA01EE0FFF1FEE0FFF1FEE0FFF1FCF016C
:10087000880F991F880F991FE80FF91FE45CFB4F41
:100880001286FA01EE0FFF1FEE0FFF1FEE0FFF1F84
:10089000CF01880F991F880F991FE80FF91FE45C9B
:1008A000FB4F1386FA01EE0FFF1FEE0FFF1FEE0F37
:1008B000FF1FCF01880F991F880F991FE80FF91F9D
:1008C000E45CFB4F1486FA01EE0FFF1FEE0FFF1FD3
:1008D000EE0FFF1FCF01880F991F880F991FE80F98
:1008E000F91FE45CFB4F258636864786508AFA015D
:1008F000EE0FFF1FEE0FFF1FEE0FFF1FCF01880F40
:10090000991F880F991FE80FF91FE45CFB4F80E0E7
:1009100090E0A8ECB3E4818B928BA38BB48BFA01AB
:10092000EE0FFF1FEE0FFF1FEE0FFF1FCF01880F0F
:10093000991F880F991FE80FF91FE45CFB4FA58AE8
:10094000B68AC78AD08EFA01EE0FFF1FEE0FFF1F87
:10095000EE0FFF1FCF01880F991F880F991FE80F17
:10096000F91FE45CFB4FE28EF38E048F158FFA01C2
:10097000EE0FFF1FEE0FFF1FEE0FFF1FCF01880FBF
:10098000991F880F991FE80FF91FE45CFB4F91E056
:10099000918FFA01EE0FFF1FEE0FFF1FEE0FFF1FEB
:1009A000CF01880F991F880F991FE80FF91FE45C8A
:1009B000FB4F778F668FFA01EE0FFF1FEE0FFF1FC1
:1009C000EE0FFF1FCF01880F991F880F991FE80FA7
:1009D000F91FE45CFB4F268D378D220F331F21500A
:1009E0003040FA01EE0FFF1FEE0FFF1FEE0FFF1F4B
:1009F000CF01880F991F880F991FE80FF91FE45C3A
:100A0000FB4F31A320A3FA01EE0FFF1FEE0FFF1FD4
:100A1000EE0FFF1FCF01880F991F880F991FE80F56
:100A2000F91FE45CFB4F12A2FA01EE0FFF1FEE0F5D
:100A3000FF1FEE0FFF1FCF01880F991F880F991F0F
:100A4000E80FF91FE45CFB4FE3A2F4A205A316A391
:100A5000FA01EE0FFF1FEE0FFF1FEE0FFF1FCF017A
:100A6000880F991F880F991FE80FF91FE45CFB4F4F
:100A700017A24F5F5F4F4430510509F0A5CE109289
:100A80003D0310923C0310923604109235041092EC
:100A9000E1041092E204109218041092170428E066
:100AA0002093190410922B039AE290932C0382E076
:100AB00080932D0310922E0310922F0390933003F6
:100AC00080E1809331031092280310922903109241
:100AD0002A0310921A0410921B0410921C04109204
:100AE0001D0410921E0410923B04109223041092D5
:100AF000200410921F0410922204109221041092DC
:100B000028041092250410922404109227041092B5
:100B1000260410922D0410922A0410922904109297
:100B20002C0410922B041092320410922F04109275
:100B30002E0410923104109230048FE080931C0335
:100B400010921D0310921E0310921F038093200326
:100B50001092210320932203809323038093240384
:100B600010922503109226031092270320E030E014
:100B700041E0C901F901EE0FFF1FEE0FFF1FEE0F5D
:100B8000FF1F880F991FE80FF91FE15CFC4F1082CF
:100B9000C901F901EE0FFF1FEE0FFF1FEE0FFF1F40
:100BA000880F991FE80FF91FE15CFC4F4187C901CD
:100BB000F901EE0FFF1FEE0FFF1FEE0FFF1F880F53
:100BC000991FE80FF91FE15CFC4F12821182C901E5
:100BD000F901EE0FFF1FEE0FFF1FEE0FFF1F880F33
:100BE000991FE80FF91FE15CFC4F14821382C901C1
:100BF000F901EE0FFF1FEE0FFF1FEE0FFF1F880F13
:100C0000991FE80FF91FE15CFC4F16821582C9019C
:100C1000F901EE0FFF1FEE0FFF1FEE0FFF1F880FF2
:100C2000991FE80FF91FE15CFC4F108617822F5FB8
:100C30003F4F2031310509F09CCF81E080933F0385
:100C40001F910F91FF90EF90DF90CF90BF90AF90EA
:100C50009F908F907F906F905F904F903F902F90DC
:100C600008951092C50085E18093C400E1ECF0E0A6
:100C70008081886980830895982F8091C00085FFC6
:100C8000FCCF9093C6000895E0EBF0E08081826095
:100C900080838DE48093B300E0E7F0E080818260A0
:100CA00080831092B200E1EBF0E080818560808368
:100CB0000895FF920F931F936115710509F458C0B1
:100CC00077FD5AC042B1E82FF0E09F01220F331F99
:100CD0002F5F3F4F81E090E002C0880F991F2A9557
:100CE000E2F78095842382B977FD59C0161617065E
:100CF0000CF03EC0EE0FFF1F81E090E00E2E02C010
:100D0000880F991F0A94E2F7182F082F0095A0E08A
:100D1000B0E0CF01880F991F880F991F5DE0F52E75
:100D2000FC01EE0FFF1FEE0FFF1FE80FF91FE65A41
:100D3000FB4F48E853E182B1812B82B98F2D8A9510
:100D4000F1F782B1802382B980819181892B61F092
:100D500020E030E0CA010197F1F72F5F3F4F80811B
:100D6000918128173907B0F31196A617B7071CF31E
:100D70001F910F91FF90089542B1E82FF0E09F017D
:100D8000220F331F2F5F3F4F81E090E002C0880F9A
:100D9000991F2A95E2F7482B42B977FFA7CF7095A4
:100DA00061957F4FA3CFACE3B4E0E82FF0E0EE0F06
:100DB000FF1FEE0FFF1FEE0FFF1F9F01220F331FBC
:100DC000220F331FE20FF31FEA0FFB1F40815181F7
:100DD000460F571FE82FF0E0EE0FFF1FEE0FFF1F2B
:100DE0009F01220F331F220F331FE20FF31F319693
:100DF000EE0FFF1FEA0FFB1F51834083E82FF0E047
:100E0000EE0FFF1FEE0FFF1F9F01220F331F220F58
:100E1000331FE20FF31F3196EE0FFF1FEA0FFB1F88
:100E200040815181282F30E0C901880F991F880F18
:100E3000991F880F991F220F331F820F931F01964E
:100E4000880F991F880F991FA80FB91F11965C93DF
:100E50004E93089590917C008F71907E892B8093A2
:100E60007C001092180410921704809119048823B2
:100E700011F160E080917A00806480937A00809123
:100E80007A0086FDFCCF8091780020917900409116
:100E9000170450911804322F20E090E0822B932BFE
:100EA000840F951F90931804809317046F5F8091AF
:100EB00019046817F8F28091170490911804609152
:100EC000190470E00E94CE47CB010895823011F1E1
:100ED000833078F08330A9F18430D9F0A0E0B0E01D
:100EE000E3E0F0E0AF51BC4F4C93EF51FC4F408337
:100EF00008958823D1F0813089F76A5FA62FB0E08A
:100F0000FD013396AF51BC4F4C93EF51FC4F4083E2
:100F10000895685EA62FB0E0FD013396AF51BC4F37
:100F20004C93EF51FC4F40830895645FA62FB0E0CF
:100F3000FD013396AF51BC4F4C93EF51FC4F4083B2
:100F40000895625EA62FB0E0FD013396AF51BC4F0D
:100F50004C93EF51FC4F408308956FE270E032E410
:100F6000FB01EF51FC4F8081482F50E027E00FC07C
:100F7000469A4798832F8A95F1F7479A832F8A9547
:100F8000F1F788B18F7388B921502F3F61F0CA0102
:100F9000022E02C0959587950A94E2F780FDE8CF6E
:100FA00088B188B9E6CF615070408FEF6F3F780706
:100FB000B9F60895FF920F931F93F82E70E06F5FBC
:100FC0007F4F8B01000F111F060F171F045E1C4F70
:100FD000F801408162E00E946607F80141818F2D8F
:100FE00061E00E946607F80142818F2D60E00E9457
:100FF00066071F910F91FF900895CF93DF93C0E094
:10100000D0E0FE01EE0FFF1FEE0FFF1FEE0FFF1FE0
:10101000CF01880F991F880F991FE80FF91FE45C13
:10102000FB4F83858823E9F08091310390E00C2EFB
:1010300002C0959587950A94E2F780FF0DC08C2F2A
:1010400061E00E94DA072196C430D105D1F60E94F2
:10105000AD07DF91CF9108958C2F60E00E94DA07F1
:10106000F2CF8C2F62E00E94DA07EDCF40911C0393
:1010700084E062E00E94660740911D0384E061E025
:101080000E94660740911E0384E060E00E946607AC
:101090000E94FD0708952F923F924F925F926F92A8
:1010A0007F928F929F92AF92BF92CF92DF92EF92F8
:1010B000FF920F931F93482FACE3B4E0E82FF0E0CA
:1010C000EE0FFF1FEE0FFF1FEE0FFF1F9F01220FFE
:1010D000331F220F331FE20FF31FEA0FFB1F25847C
:1010E000368447845088E82FF0E0EE0FFF1FEE0FA4
:1010F000FF1FEE0FFF1F9F01220F331F220F331F11
:10110000E20FF31FEA0FFB1F658876888788908CB3
:10111000242F30E0220F331F220F331F220F331FE3
:10112000A901440F551F440F551F240F351FA20F4F
:10113000B31F5196ED90FD900D911C915497882707
:1011400077FD8095982F0E9444465B016C01C20197
:10115000B101A40193010E944B47A80197010E948D
:101160004B479B01AC0160E070E084EB93E40E948C
:10117000A9459B01AC01C601B5010E944B471F91D7
:101180000F91FF90EF90DF90CF90BF90AF909F9026
:101190008F907F906F905F904F903F902F90089529
:1011A0002F923F924F925F926F927F928F929F9277
:1011B000AF92BF92CF92DF92EF92FF920F931F9365
:1011C000ACE3B4E0E82FF0E0EE0FFF1FEE0FFF1FDF
:1011D000EE0FFF1F9F01220F331F220F331FE20F5D
:1011E000F31FEA0FFB1F2584368447845088E82FBD
:1011F000F0E0EE0FFF1FEE0FFF1FEE0FFF1F9F012E
:10120000220F331F220F331FE20FF31FEA0FFB1FC2
:10121000658876888788908C282F30E0220F331FCE
:10122000220F331F220F331FA901440F551F440FF4
:10123000551F240F351FA20FB31F5196ED90FD903F
:101240000D911C915497882777FD8095982F0E94C7
:1012500044465B016C01C201B101A40193010E94EB
:101260004B47A80197010E944B479B01AC0160E0EE
:1012700070E080E090E40E94A9459B01AC01C601AA
:10128000B5010E944B471F910F91FF90EF90DF90A7
:10129000CF90BF90AF909F908F907F906F905F9016
:1012A0004F903F902F900895482FF894613009F4A3
:1012B0003DC0613008F088C0E82FF0E0EE0FFF1F5E
:1012C000EE0FFF1FEE0FFF1FCF01880F991F880F32
:1012D000991FE80FF91FE45CFB4F1486E42FF0E040
:1012E000EE0FFF1FEE0FFF1FEE0FFF1FCF01880F46
:1012F000991F880F991FE80FF91FE45CFB4F2081AD
:101300003181E42FF0E0EE0FFF1FEE0FFF1FCF0142
:10131000880F991F880F991FE80FF91FEE0FFF1F05
:10132000E25CFB4F3183208378940895E82FF0E04E
:10133000EE0FFF1FEE0FFF1FEE0FFF1FCF01880FF5
:10134000991F880F991FE80FF91FE45CFB4F648712
:10135000E42FF0E0EE0FFF1FEE0FFF1FEE0FFF1F59
:10136000CF01880F991F880F991FE80FF91FE45CC0
:10137000FB4F20813181E42FF0E0EE0FFF1FEE0FD5
:10138000FF1FCF01880F991F880F991FE80FF91FC2
:10139000EE0FFF1FE25CFB4F31832083E42FF0E070
:1013A000EE0FFF1FEE0FFF1FCF01880F991F880F51
:1013B000991FE80FF91FEE0FFF1FE25CFB4F208122
:1013C00031812F5F3F4F9DCF623009F0ADCFE82FC5
:1013D000F0E0EE0FFF1FEE0FFF1FEE0FFF1FCF011C
:1013E000880F991F880F991FE80FF91FE45CFB4FC6
:1013F0006487E42FF0E0EE0FFF1FEE0FFF1FEE0FEC
:10140000FF1FCF01880F991F880F991FE80FF91F41
:10141000E45CFB4F20813181E42FF0E0EE0FFF1FF1
:10142000EE0FFF1FCF01880F991F880F991FE80F3C
:10143000F91FEE0FFF1FE25CFB4F31832083E42F87
:10144000F0E0EE0FFF1FEE0FFF1FCF01880F991F77
:10145000880F991FE80FF91FEE0FFF1FE25CFB4F8B
:1014600020813181215030404CCF813061F081307A
:1014700030F0823051F0833021F080E0089582E432
:10148000089588E4089584E4089586E408958130F9
:1014900061F0813030F0823051F0833021F080E013
:1014A000089582E108958CE9089584E108958AE918
:1014B0000895282F22952F708295807F282B30E069
:1014C000C90183739070880F991F880F991F2C7C16
:1014D00030703595279535952795822B282F30E04C
:1014E000C90185759070880F991F2A7A30703595DB
:1014F0002795822B089580E0089580912A03882300
:10150000A1F09091280380911D04882361F497FD38
:1015100010C096FD0CC095FD0EC094FD0EC093FF4B
:1015200004C083E0089588E008958AE2089586E083
:10153000089587E0089585E0089584E00895F8947B
:1015400080911C04882321F080911B0410921B04BD
:10155000789408951F920F920FB60F920BB60F92C8
:1015600011248F939F93EF93FF939091C6008091E6
:101570003C038823E1F49D3009F19A3021F08091F9
:101580003D03803430F1E0913A03F0913B038091C8
:101590003D03E80FF11D108281E080933C038091B0
:1015A000C00085FFFCCF86E08093C60007C0809115
:1015B000C00085FFFCCF85E18093C600FF91EF91CD
:1015C0009F918F910F900BBE0F900FBE0F901F90A9
:1015D0001895E0913A03F0913B0380913D03E80FA9
:1015E000F11D908380913D038F5F80933D03E6CF93
:1015F0001F920F920FB60F920BB60F9211248F937A
:10160000EF93FF9386B1809583FF3AC080911E04CB
:10161000882309F440C0E0911803F0911903EE0FFC
:10162000FF1FEE0FFF1FEF70F070F0931903E093B0
:101630001803359B05C0E260F0931903E09318038B
:10164000349B05C0E160F0931903E0931803EE0F9B
:10165000FF1FE05EFE4FE491EE2341F080911B04FA
:10166000E80FE0931B0481E080931C04FF91EF914D
:101670008F910F900BBE0F900FBE0F901F9018957B
:1016800080911E04813039F680931D0410921E044F
:1016900080932A03C0CF81E080931E04BCCF7F9249
:1016A0008F929F92AF92BF92CF92DF92EF92FF9272
:1016B0000F931F93CF93DF93F894CC24DD248824D9
:1016C0009924AA24BB2477247394C601880F991FF8
:1016D0008601000F111F000F111F000F111F800F37
:1016E000911F880F991F880F991FB4016D5C7F4F60
:1016F000805C9B4F42E050E00E94474C7801EE0C2A
:10170000FF1CEE0CFF1CE00EF11EB501655C7F4F67
:10171000C701875B9B4F44E050E00E94474CB501F6
:10172000655B7F4FC701835B9B4F44E050E00E94A5
:10173000474CB501655A7F4FC7018F5A9B4F44E014
:1017400050E00E94474CB50165597F4FC7018A5A46
:101750009B4F44E050E00E94474CB50165587F4FD5
:10176000C701815A9B4F44E050E00E94474CB601AC
:1017700065577F4FC7018D599B4F41E050E00E9454
:10178000474CB60161577F4FC7018B5A9B4F41E0D1
:1017900050E00E94474CB4016D567F4FC701865AF6
:1017A0009B4F42E050E00E94474C8601000F111F02
:1017B000000F111F0C0D1D1DE801C15EDB4FB401B0
:1017C00065567F4FCE0142E050E00E94474CB40185
:1017D0006D557F4FC8018F5D9B4F42E050E00E94E6
:1017E000474C288139818A819B812817390709F064
:1017F0007C820894C11CD11C82E090E0880E991E66
:1018000084E090E0A80EB91E94E0C916D10409F056
:101810005CCFC0E0D0E08E01000F111F0C0F1D1F28
:10182000BE0165557F4FC801845E9C4F41E050E08A
:101830000E94474CBE0161557F4FC801835E9C4F9B
:1018400041E050E00E94474CBE016D547F4FC801FB
:10185000825E9C4F41E050E00E94474C2196C3308D
:10186000D105C9F6C0E0D0E0BE0169547F4FCE017A
:10187000815C9C4F4AE050E00E94474C2A96C03A57
:10188000D10591F77894DF91CF911F910F91FF903F
:10189000EF90DF90CF90BF90AF909F908F907F9010
:1018A0000895AF92BF92CF92DF92EF92FF920F9383
:1018B0001F93CF93DF93F894C0E0D0E0AA24BB2419
:1018C000CC24DD24CE01880F991F8E01000F111F3B
:1018D000000F111F000F111F800F911F880F991FFC
:1018E000880F991FB5016D5C7F4F805C9B4F42E074
:1018F00050E00E94574C7801EE0CFF1CEE0CFF1CD0
:10190000E00EF11EB601655C7F4FC701875B9B4F00
:1019100044E050E00E94574CB601655B7F4FC70121
:10192000835B9B4F44E050E00E94574CB601655AE0
:101930007F4FC7018F5A9B4F44E050E00E94574CA5
:10194000B60165597F4FC7018A5A9B4F44E050E06A
:101950000E94574CB60165587F4FC701815A9B4F73
:1019600044E050E00E94574CBE0165577F4FC701CD
:101970008D599B4F41E050E00E94574CBE0161578A
:101980007F4FC7018B5A9B4F41E050E00E94574C5C
:10199000B5016D567F4FC701865A9B4F42E050E01C
:1019A0000E94574C8E01000F111F000F111F0C0FCA
:1019B0001D1FB50165567F4FC801815E9B4F42E0F8
:1019C00050E00E94574CB5016D557F4FC8018F5DA7
:1019D0009B4F42E050E00E94574C219682E090E0FD
:1019E000A80EB91E84E090E0C80ED91EC430D105FF
:1019F00009F068CFC0E0D0E08E01000F111F0C0F7E
:101A00001D1FBE0165557F4FC801845E9C4F41E09C
:101A100050E00E94574CBE0161557F4FC801835E64
:101A20009C4F41E050E00E94574CBE016D547F4FE7
:101A3000C801825E9C4F41E050E00E94574C2196C5
:101A4000C330D105C9F6C0E0D0E0BE0169547F4F74
:101A5000CE01815C9C4F4AE050E00E94574C2A9690
:101A6000C03AD10591F77894DF91CF911F910F91F2
:101A7000FF90EF90DF90CF90BF90AF900895F894D3
:101A80000E94A8030E94510C789408951F920F920F
:101A90000FB60F920BB60F9211242F923F924F92D6
:101AA0005F926F927F928F929F92AF92BF92CF92EE
:101AB000DF92EF92FF920F931F932F933F934F93D9
:101AC0005F936F937F938F939F93AF93BF93EF93A6
:101AD000FF93DF93CF93CDB7DEB7A097DEBFCDBF27
:101AE0009E01275F3F4F3C8F2B8F3A8F298F18A283
:101AF0001F8E662477241E8E1D8E2301440C551CD8
:101B0000440C551C4201880C991C880C991C840CAF
:101B1000951C880C991C8EE394E0880E991ED401C4
:101B2000AD90BC901301220C331C220C331C220CF0
:101B3000331C6101CC0CDD1CCC0CDD1CC20CD31C95
:101B4000ECE3F4E0CE0EDF1ED6018D919C9111974F
:101B5000A81AB90AE1E0F0E0EC0FFD1F2D8D3E8DD3
:101B6000E20FF31FB182A0821D966D917D918D9140
:101B70009C91509751962D913D914D915C91549728
:101B80005596ED90FD900D911C9158970E944B47F2
:101B9000A80197010E944B47A98DBA8D6D937D9343
:101BA0008D939C931397A114B10409F44CC0F601D2
:101BB00080A191A1892B09F469C180A191A101970C
:101BC00091A380A3668177818085918520E030E0B4
:101BD00040E85FE30E9447471816D4F4D4018D9182
:101BE0009C911197019611969C938E93F6016681B4
:101BF00077818085918520E030E040E85FE30E94B6
:101C00004045D60116966D937D938D939C931997BD
:101C10006101CC0CDD1CCC0CDD1CC20CD31CECE334
:101C2000F4E0CE0EDF1ED60116966D917D918D915A
:101C30009C91199720E030E040E85FEB0E94A545B9
:101C400088230CF40CC20894611C711C2D8D3E8DF0
:101C50002E5F3F4F3E8F2D8F898D9A8D04969A8FE0
:101C6000898F94E06916710409F047CF82B1A8A169
:101C7000A82BA2B996E0892F8A95F1F782B1BF8D82
:101C80008B2B82B98DE08A95F1F782B1B095B8239C
:101C9000B2B99A95F1F712B83E010894611C711C13
:101CA000CC24DD24EC2C5D2CF601EE0FFF1FEE0F93
:101CB000FF1FEE0FFF1FCF01880F991F880F991F7D
:101CC000E80FF91FE45CFB4F8285882309F4A4C068
:101CD000F30180819181181619060CF001C1F601FB
:101CE000EE0FFF1FEE0FFF1FEE0FFF1FCF01880F3C
:101CF000991F880F991FE80FF91FE45CFB4F608163
:101D00007181AB8DBC8D8D909D90AD90BC906F5FBF
:101D10007F4F882777FD8095982F0E944446A50124
:101D200094010E94474718160CF45AC1EE2DF52D68
:101D3000EE0FFF1FEE0FFF1FEE0FFF1FCF01880FEB
:101D4000991F880F991FE80FF91FE45CFB4F208152
:101D500031812F5F3F4FEE2DF52DEE0FFF1FEE0F60
:101D6000FF1FEE0FFF1FCF01880F991F880F991FCC
:101D7000E80FF91FE45CFB4F31832083EE2DF52D36
:101D8000EE0FFF1FEE0FFF1FEE0FFF1FCF01880F9B
:101D9000991F880F991FE80FF91FE45CFB4F84859A
:101DA000882341F1EE2DF52DEE0FFF1FEE0FFF1FE3
:101DB000CF01880F991F880F991FE80FF91FEE0FA9
:101DC000FF1FE25CFB4F208131812F5F3F4FEE2DE3
:101DD000F52DEE0FFF1FEE0FFF1FCF01880F991F8C
:101DE000880F991FE80FF91FEE0FFF1FE25CFB4FF2
:101DF00031832083EE2DF52DEE0FFF1FEE0FFF1F19
:101E0000EE0FFF1FCF01880F991F880F991FE80F52
:101E1000F91FE45CFB4F12860894C11CD11C2B8D6A
:101E20003C8D2C5F3F4F3C8F2B8F82E090E0680E03
:101E3000791E94E0C916D10409F034CFA096DEBF14
:101E4000CDBFCF91DF91FF91EF91BF91AF919F9166
:101E50008F917F916F915F914F913F912F911F9142
:101E60000F91FF90EF90DF90CF90BF90AF909F9039
:101E70008F907F906F905F904F903F902F900F903A
:101E80000BBE0F900FBE0F901F90189521E0F6012A
:101E90002287B7FC07C1F201E60DF71DE15EFB4F9B
:101EA0008481882309F088C081E090E00D8C02C015
:101EB000880F991F0A94E2F7FF8DF82BFF8FF1012D
:101EC000EE0FFF1FEE0FFF1FE20DF31DE45CFB4F53
:101ED000868D978D880F991F019791A380A3B3CE0C
:101EE000892B09F487CFF601EE0FFF1FEE0FFF1FBE
:101EF000EE0FFF1FCF01880F991F880F991FE80F62
:101F0000F91FE45CFB4F80819181181619060CF0D3
:101F1000FDC0EE2DF52DEE0FFF1FEE0FFF1FEE0F94
:101F2000FF1FCF01880F991F880F991FE80FF91F16
:101F3000E45CFB4F2081318121503040EE2DF52DA6
:101F4000EE0FFF1FEE0FFF1FEE0FFF1FCF01880FD9
:101F5000991F880F991FE80FF91FE45CFB4F31832D
:101F60002083EE2DF52DEE0FFF1FEE0FFF1FEE0F5E
:101F7000FF1FCF01880F991F880F991FE80FF91FC6
:101F8000E45CFB4F8485882309F434CFEE2DF52DD6
:101F9000EE0FFF1FEE0FFF1FCF01880F991F880F55
:101FA000991FE80FF91FEE0FFF1FE25CFB4F208126
:101FB0003181215030400BCFD6018D919C911197EA
:101FC0002081318101968217930709F06DCF8D91A1
:101FD0009C911197F401918380831A961C926FCF84
:101FE000F601EE0FFF1FEE0FFF1FEE0FFF1FCF01D9
:101FF000880F991F880F991FE80FF91FE45CFB4FAA
:1020000011821082F601EE0FFF1FEE0FFF1FCF01AE
:10201000880F991F880F991FE80FF91FEE0FFF1FF8
:10202000E25CFB4F00811181C501B4010E94AE4703
:102030000E941146061B170BF601EE0FFF1FEE0F55
:10204000FF1FCF01880F991F880F991FE80FF91FF5
:10205000EE0FFF1FE25CFB4F1183008367CEF2019E
:10206000EE0FFF1FEE0FFF1FE40DF51DEE0FFF1F1C
:10207000E25CFB4F80819181019791838083F6011F
:10208000668177818085918520E030E040E85FE3DC
:102090000E944145D60116966D937D938D939C9336
:1020A0001997D1CDF201E60DF71DE15EFB4F84815A
:1020B000882309F52D8D3E8D2F5F3F4F3E8F2D8F4D
:1020C00081E090E00D8C02C0880F991F0A94E2F71E
:1020D000215030403E8F2D8F38A1382B38A381E01E
:1020E00090E00D8C02C0880F991F0A94E2F7AF8D23
:1020F000A82BAF8FE4CED6018D919C9111972281B0
:102100003381019682179307A9F661CFEB8DFC8D81
:1021100060817181828193810E94AE470E94114645
:10212000AB01F601EE0FFF1FEE0FFF1FEE0FFF1FBB
:102130009F01220F331F220F331FE20FF31FE45CB6
:10214000FB4F71836083F601EE0FFF1FEE0FFF1F41
:10215000CF01880F991F880F991FE80FF91FEE0F05
:10216000FF1FE25CFB4F80819181480F591FF601F0
:10217000EE0FFF1FEE0FFF1FCF01880F991F880F73
:10218000991FE80FF91FEE0FFF1FE25CFB4F518311
:102190004083BFCE2F923F924F925F926F927F9279
:1021A0008F929F92BF92CF92DF92EF92FF920F9306
:1021B0001F93DF93CF9300D000D0CDB7DEB7B82EFA
:1021C000CB01BA01A90198010E944B4769837A8328
:1021D0008B839C83ECE3CE2EE4E0DE2EEB2DF0E04F
:1021E000EE0FFF1FEE0FFF1FEE0FFF1FCF01880F37
:1021F000991F880F991FE80FF91FEC0DFD1D6189CC
:10220000728983899489EB2DF0E0EE0FFF1FEE0FAA
:10221000FF1FEE0FFF1F9F01220F331F220F331FDF
:10222000E20FF31FEC0DFD1D25853685478550898E
:10223000EB2DF0E0EE0FFF1FEE0FFF1FEE0FFF1F65
:10224000DF01AA0FBB1FAA0FBB1FEA0FFB1FEC0D7C
:10225000FD1DE588F6880789108D0E944B47A8016F
:1022600097010E944B4720E030E040E05FE30E948E
:102270004B479B01AC0169817A818B819C810E94D3
:102280004B470E94AE471B012C01EB2DF0E0EE0FF7
:10229000FF1FEE0FFF1FCF01880F991F880F991F97
:1022A000E80FF91F3196EE0FFF1FEC0DFD1D0081A9
:1022B0001181C201B1010E941146600F711FEB2D07
:1022C000F0E0EE0FFF1FEE0FFF1F9F01220F331FE5
:1022D000220F331FE20FF31F3196EE0FFF1FEC0D9D
:1022E000FD1D71836083EB2DF0E0EE0FFF1FEE0FFD
:1022F000FF1FEE0FFF1FCF01880F991F880F991F37
:10230000E80FF91FEC0DFD1D6680778080849184B5
:10231000EB2DF0E0EE0FFF1FEE0FFF1FEE0FFF1F84
:10232000CF01880F991F880F991FE80FF91FEC0D37
:10233000FD1D6189728983899489EB2DF0E0EE0F90
:10234000FF1FEE0FFF1FEE0FFF1F9F01220F331F16
:10235000220F331FE20FF31FEC0DFD1D258536857F
:1023600047855089EB2DF0E0EE0FFF1FEE0FFF1FAA
:10237000EE0FFF1FDF01AA0FBB1FAA0FBB1FEA0F43
:10238000FB1FEC0DFD1DE588F6880789108D0E9466
:102390004B47A80197010E944B4720E030E040E006
:1023A0005FE30E944B479B01AC0169817A818B817D
:1023B0009C810E944B47A20191010E9440459B01D4
:1023C000AC01C401B3010E9441452B2D30E0220F26
:1023D000331F220F331F220F331FA901440F551F34
:1023E000440F551F240F351FC20ED31EF6016683FE
:1023F0007783808791870F900F900F900F90CF91E8
:10240000DF911F910F91FF90EF90DF90CF90BF90E1
:102410009F908F907F906F905F904F903F902F9004
:1024200008952F923F924F925F926F927F928F9278
:102430009F92BF92CF92DF92EF92FF920F931F93E2
:10244000DF93CF9300D000D0CDB7DEB7B82ECB014D
:10245000BA01A90198010E944B4769837A838B8353
:102460009C83ECE3CE2EE4E0DE2EEB2DF0E0EE0FCD
:10247000FF1FEE0FFF1FEE0FFF1FCF01880F991FE9
:10248000880F991FE80FF91FEC0DFD1D61897289F6
:1024900083899489EB2DF0E0EE0FFF1FEE0FFF1FF5
:1024A000EE0FFF1F9F01220F331F220F331FE20F7A
:1024B000F31FEC0DFD1D2585368547855089EB2DD5
:1024C000F0E0EE0FFF1FEE0FFF1FEE0FFF1FDF010B
:1024D000AA0FBB1FAA0FBB1FEA0FFB1FEC0DFD1DB0
:1024E000E588F6880789108D0E944B47A80197015F
:1024F0000E944B4720E030E044EB53E40E94A945A2
:102500009B01AC0169817A818B819C810E944B4740
:102510000E94AE471B012C01EB2DF0E0EE0FFF1FD8
:10252000EE0FFF1FCF01880F991F880F991FE80F2B
:10253000F91F3196EE0FFF1FEC0DFD1D008111817B
:10254000C201B1010E941146600F711FEB2DF0E036
:10255000EE0FFF1FEE0FFF1F9F01220F331F220FF1
:10256000331FE20FF31F3196EE0FFF1FEC0DFD1D21
:1025700071836083EB2DF0E0EE0FFF1FEE0FFF1F66
:10258000EE0FFF1FCF01880F991F880F991FE80FCB
:10259000F91FEC0DFD1D6680778080849184EB2D02
:1025A000F0E0EE0FFF1FEE0FFF1FEE0FFF1FCF013A
:1025B000880F991F880F991FE80FF91FEC0DFD1D5B
:1025C0006189728983899489EB2DF0E0EE0FFF1FFA
:1025D000EE0FFF1FEE0FFF1F9F01220F331F220F71
:1025E000331FE20FF31FEC0DFD1D25853685478552
:1025F0005089EB2DF0E0EE0FFF1FEE0FFF1FEE0FE7
:10260000FF1FDF01AA0FBB1FAA0FBB1FEA0FFB1F93
:10261000EC0DFD1DE588F6880789108D0E944B475B
:10262000A80197010E944B4720E030E044EB53E4BF
:102630000E94A9459B01AC0169817A818B819C81B3
:102640000E944B47A20191010E9440459B01AC01B1
:10265000C401B3010E9441452B2D30E0220F331FEE
:10266000220F331F220F331FA901440F551F440FA0
:10267000551F240F351FC20ED31EF60166837783C4
:10268000808791870F900F900F900F90CF91DF91DF
:102690001F910F91FF90EF90DF90CF90BF909F9090
:1026A0008F907F906F905F904F903F902F90089504
:1026B000AF92BF92CF92DF92EF92FF920F931F9350
:1026C0007B016A01590160E070E04AE050E00E943D
:1026D000FA48062FC70160E070E04AE050E00E942F
:1026E000FA48E62EC60160E070E04AE050E00E9441
:1026F000FA48F62EC50160E070E04AE050E00E9422
:10270000FA4810E0F801EE0FFF1FE00FF11FE45E42
:10271000FC4FE082F18262830E9436081F910F9184
:10272000FF90EF90DF90CF90BF90AF90089560E062
:1027300070E04AE050E00E94FA486430D8F54091D9
:10274000330450913404E62FF0E0EE0FFF1FEE0F3C
:10275000FF1FEE0FFF1FCF01880F991F880F991FD2
:10276000E80FF91FE45CFB4F27A100D000D000D098
:10277000EDB7FEB73196ADB7BEB712965C934E93E8
:10278000119787E191E093838283332727FD30956A
:10279000358324830E94B84B8DB79EB706960FB63B
:1027A000F8949EBF0FBE8DBF209133043091340446
:1027B000C9010895809133049091340400D000D071
:1027C00000D0EDB7FEB73196ADB7BEB712969C9369
:1027D0008E93119780E091E09383828364831582C6
:1027E0000E94B84B8DB79EB706960FB6F8949EBF61
:1027F0000FBE8DBF2091330430913404C901089578
:1028000060E070E04AE050E00E94FA486430C8F5A9
:102810004091330450913404E62FF0E0EE0FFF1F97
:10282000EE0FFF1FEE0FFF1FCF01880F991F880FBC
:10283000991FE80FF91FE45CFB4F268D378D00D000
:1028400000D000D0EDB7FEB73196ADB7BEB7129647
:102850005C934E93119787E191E093838283358354
:1028600024830E94B84B8DB79EB706960FB6F89496
:102870009EBF0FBE8DBF2091330430913404C90137
:102880000895809133049091340400D000D000D09A
:10289000EDB7FEB73196ADB7BEB712969C938E9347
:1028A000119780E091E093838283648315820E9474
:1028B000B84B8DB79EB706960FB6F8949EBF0FBE65
:1028C0008DBF2091330430913404C901089560E034
:1028D00070E04AE050E00E94FA48262F643008F089
:1028E00040C06091330470913404E22FF0E0EE0FA9
:1028F000FF1FEE0FFF1FEE0FFF1FCF01880F991F65
:10290000880F991FE80FF91FE45CFB4F2589368972
:102910004789508DADB7BEB718970FB6F894BEBFB4
:102920000FBEADBFEDB7FEB7319612967C936E9396
:1029300011978AE191E093838283248335834683D0
:1029400057830E94B84B8DB79EB708960FB6F89480
:102950009EBF0FBE8DBF2091330430913404C90156
:102960000895809133049091340400D000D000D0B9
:10297000EDB7FEB73196ADB7BEB712969C938E9366
:10298000119780E091E093838283248315820E94D3
:10299000B84B8DB79EB706960FB6F8949EBF0FBE84
:1029A0008DBF2091330430913404C901089560E053
:1029B00070E04AE050E00E94FA48262F643008F0A8
:1029C00040C06091330470913404E22FF0E0EE0FC8
:1029D000FF1FEE0FFF1FEE0FFF1FCF01880F991F84
:1029E000880F991FE80FF91FE45CFB4F218932899A
:1029F00043895489ADB7BEB718970FB6F894BEBFD8
:102A00000FBEADBFEDB7FEB7319612967C936E93B5
:102A100011978AE191E093838283248335834683EF
:102A200057830E94B84B8DB79EB708960FB6F8949F
:102A30009EBF0FBE8DBF2091330430913404C90175
:102A40000895809133049091340400D000D000D0D8
:102A5000EDB7FEB73196ADB7BEB712969C938E9385
:102A6000119780E091E093838283248315820E94F2
:102A7000B84B8DB79EB706960FB6F8949EBF0FBEA3
:102A80008DBF2091330430913404C901089560E072
:102A900070E04AE050E00E94FA48262F643008F0C7
:102AA00040C06091330470913404E22FF0E0EE0FE7
:102AB000FF1FEE0FFF1FEE0FFF1FCF01880F991FA3
:102AC000880F991FE80FF91FE45CFB4F25853685B9
:102AD00047855089ADB7BEB718970FB6F894BEBFFB
:102AE0000FBEADBFEDB7FEB7319612967C936E93D5
:102AF00011978FE191E0938382832483358346830A
:102B000057830E94B84B8DB79EB708960FB6F894BE
:102B10009EBF0FBE8DBF2091330430913404C90194
:102B20000895809133049091340400D000D000D0F7
:102B3000EDB7FEB73196ADB7BEB712969C938E93A4
:102B4000119780E091E093838283248315820E9411
:102B5000B84B8DB79EB706960FB6F8949EBF0FBEC2
:102B60008DBF2091330430913404C901089560E091
:102B700070E04AE050E00E94FA486430D8F5409195
:102B8000330450913404862F90E0FC01EE0FFF1FB8
:102B9000EE0FFF1FEE0FFF1F880F991FE80FF91FA1
:102BA000EE0FFF1FEE0FFF1FE05CFB4F2081318116
:102BB00000D000D000D0EDB7FEB73196ADB7BEB7AC
:102BC00012965C934E93119787E191E093838283F1
:102BD000358324830E94B84B8DB79EB706960FB6F7
:102BE000F8949EBF0FBE8DBF209133043091340402
:102BF000C9010895809133049091340400D000D02D
:102C000000D0EDB7FEB73196ADB7BEB712969C9324
:102C10008E93119780E091E0938382836483158281
:102C20000E94B84B8DB79EB706960FB6F8949EBF1C
:102C30000FBE8DBF2091330430913404C901089533
:102C400060E070E04AE050E00E94FA48643048F5E5
:102C5000862F0E942A07209133043091340400D03B
:102C600000D000D0EDB7FEB73196ADB7BEB7129623
:102C70003C932E93119727E131E033832283958390
:102C800084830E94B84B8DB79EB706960FB6F89412
:102C90009EBF0FBE8DBF2091330430913404C90113
:102CA0000895809133049091340400D000D000D076
:102CB000EDB7FEB73196ADB7BEB712969C938E9323
:102CC000119780E091E093838283648315820E9450
:102CD000B84B8DB79EB706960FB6F8949EBF0FBE41
:102CE0008DBF2091330430913404C901089560E010
:102CF00070E04AE050E00E94FA48643008F045C0B5
:102D0000E62FF0E0EE0FFF1FEE0FFF1FCF01880F41
:102D1000991F880F991FE80FF91FEE0FFF1FE25C44
:102D2000FB4F20813181E62FF0E0EE0FFF1FEE0F09
:102D3000FF1FEE0FFF1FCF01880F991F880F991FEC
:102D4000E80FF91FE45CFB4F808191812817390758
:102D500071F0E0913304F091340481E390E09183C9
:102D600080832091330430913404C9010895E091A7
:102D70003304F091340480E390E0918380832091C8
:102D8000330430913404C901089580913304909143
:102D9000340400D000D000D0EDB7FEB73196ADB707
:102DA000BEB712969C938E93119780E091E0938327
:102DB0008283648315820E94B84B8DB79EB70696B6
:102DC0000FB6F8949EBF0FBE8DBF20913304309193
:102DD0003404C90108952F923F924F925F926F92EF
:102DE0007F928F929F92AF92BF92DF92EF92FF926B
:102DF0000F931F93CF93DF9390E0880F991F865511
:102E00009A4FFC01259134912E5F3F4FF901849137
:102E1000E82FF0E0E331F10508F047C0EA5BFF4F2F
:102E2000EE0FFF1F0590F491E02D0994E09134031B
:102E3000F091350320813181C901DC01E7E2F2E044
:102E400089E001900D928150E1F7E0913403F09117
:102E5000350322813381C901DC01E7E2F2E089E038
:102E600001900D928150E1F7E0913403F091350328
:102E700024813581C901DC01E7E2F2E089E00190BB
:102E80000D928150E1F7E0913403F09135032681F2
:102E90003781C901DC01E7E2F2E089E001900D929F
:102EA0008150E1F785E08093300320E030E090E24C
:102EB000A0913403B0913503A20FB31FEC9111968A
:102EC000FC91DF010D900020E9F71197AE1BBF0BBD
:102ED000A83080F48A2FE0913403F0913503E20F9B
:102EE000F31F0190F081E02DE80FF11D90838F5FBB
:102EF000883088F3E0913403F0913503E20FF31F3B
:102F00000190F081E02D10862E5F3F4F2830310573
:102F100079F6DF91CF911F910F91FF90EF90DF90A5
:102F2000BF90AF909F908F907F906F905F904F90E9
:102F30003F902F900895E0913403F0913503208164
:102F40003181C901DC01E6ECF1E089E001900D92EC
:102F50008150E1F7E0913403F09135032281338110
:102F6000C901DC01EFECF1E089E001900D928150A4
:102F7000E1F7E0913403F091350324813581C901F3
:102F8000DC01E4EBF1E089E001900D928150E1F782
:102F9000E0913403F091350326813781C901DC01CA
:102FA000EDEBF1E089E001900D928150E1F77DCFEA
:102FB000E0913403F091350320813181C901DC01B6
:102FC000E2E2F1E089E001900D928150E1F7E091B9
:102FD0003403F091350322813381C901DC01EBE236
:102FE000F1E089E001900D928150E1F7E091340326
:102FF000F091350324813581C901DC01E4E3F1E07E
:1030000089E001900D928150E1F7E0913403F09155
:10301000350326813781C901DC01EDE3F1E087E06A
:1030200001900D928150E1F740CFEE24FF24C0E0E3
:10303000D0E0BBE4AB2EB1E0BB2EAFED8A2E912CDD
:10304000F4E56F2EF1E07F2EE7EF4E2E512C74E465
:10305000272E71E0372E4E2D80913103970190E09D
:103060000E2C02C0959587950A94E2F780FFA1C5C2
:1030700080912E03882309F422C75EE3D52EF9013F
:10308000EE0FFF1FEE0FFF1FEE0FFF1FCF01880F88
:10309000991F880F991FE80FF91FE45CFB4F818D82
:1030A000813009F4C8C6823009F47EC68823D9F578
:1030B000A0913403B0913503F901EE0FFF1FEE0F1D
:1030C000FF1FEE0FFF1FCF01880F991F880F991F59
:1030D000E80FF91FE45CFB4F208131818DB79EB76B
:1030E00008970FB6F8949EBF0FBE8DBFEDB7FEB721
:1030F0003196AC0FBD1F8D919C91ADB7BEB71296A6
:103100009C938E93119733822282D48215823783C7
:1031100026830E94B84BEDB7FEB738960FB6F894E9
:10312000FEBF0FBEEDBF0894E11CF11C2296F4E037
:10313000EF16F10409F08FCFB8CEC0E0D0E00DE774
:1031400011E0809131039E0190E00C2E02C0959514
:1031500087950A94E2F780FD29C560E270E0A091AE
:103160003403B0913503F901EE0FFF1FEE0FFF1F7F
:10317000EE0FFF1FCF01880F991F880F991FE80FCF
:10318000F91FE45CFB4F228D338D448D558D8DB737
:103190009EB70A970FB6F8949EBF0FBE8DBFEDB7CE
:1031A000FEB73196CE01880F991FA80FB91F8D91D8
:1031B0009C91ADB7BEB712969C938E9311971383D3
:1031C00002837583648326833783408751870E94F7
:1031D000B84B2196EDB7FEB73A960FB6F894FEBFFE
:1031E0000FBEEDBFC430D10509F0ABCF5ECE00E01D
:1031F00010E0C0E0D0E09DE5A92E91E0B92E82E676
:10320000882E81E0982EB7E66B2EB1E07B2EAEE6DD
:103210004A2EA1E05A2E80913103E02ED12E90E06B
:10322000002E02C0959587950A94E2F780FDB6C4FA
:10323000F0E2FF2EEE2DFD2DEE0FFF1FEE0FFF1F14
:10324000EE0FFF1FCF01880F991F880F991FE80FFE
:10325000F91FE45CFB4F818D882309F473C5EE2DC3
:10326000FD2DEE0FFF1FEE0FFF1FEE0FFF1FCF0113
:10327000880F991F880F991FE80FF91FE45CFB4F17
:10328000818D813009F4DEC6EE2DFD2DEE0FFF1F7E
:10329000EE0FFF1FEE0FFF1FCF01880F991F880F42
:1032A000991FE80FF91FE45CFB4F818D823009F410
:1032B00036C60F5F1F4F22960430110509F0ABCFC1
:1032C000F4CDC0E0D0E00DE012E0809131039E012A
:1032D00090E00C2E02C0959587950A94E2F780FF46
:1032E00074C480912E03882309F4EFC56EE370E067
:1032F000A0913403B0913503F901EE0FFF1FEE0FDB
:10330000FF1FEE0FFF1FCF01880F991F880F991F16
:10331000E80FF91FE45CFB4F25853685478550890A
:103320008DB79EB70A970FB6F8949EBF0FBE8DBF9C
:10333000EDB7FEB73196CE01880F991FA80FB91FC0
:103340008D919C91ADB7BEB712969C938E931197B9
:103350001383028375836483268337834087518771
:103360000E94B84B2196EDB7FEB73A960FB6F89487
:10337000FEBF0FBEEDBFC430D10509F0A6CF95CD7D
:10338000E0913403F091350320813181C901DC01E2
:10339000EAEEF1E089E001900D928150E1F7E091D1
:1033A0003403F091350322813381C901DC01E3EF5D
:1033B000F1E089E001900D928150E1F7E091340352
:1033C000F091350320912F0300D000D000D0ADB78D
:1033D000BEB7119684819581EDB7FEB79283818344
:1033E0008CEF91E013969C938E931297332727FDD1
:1033F000309515963C932E9314970E94B84BE0910C
:103400003403F091350326813781C901DC01EBE2F9
:10341000F1E089E001900D928150E1F72DB73EB7C0
:103420002A5F3F4F0FB6F8943EBF0FBE2DBF3DCD74
:1034300000E010E0EE24FF2434EEA32E31E0B32EA2
:103440002FED822E21E0922E98ED692E91E0792EBB
:103450008091310390E0002E02C0959587950A94E3
:10346000E2F780FD95C380E2D82EF801EE0FFF1F32
:10347000EE0FFF1FE00FF11FE15EFB4F84818823F9
:1034800009F04EC4E801CC0FDD1FCC0FDD1FCC0FBF
:10349000DD1FFE01EE0FFF1FEE0FFF1FEC0FFD1FE4
:1034A000E45CFB4F82A1882309F412C5FE01EE0FF4
:1034B000FF1FEE0FFF1FEC0FFD1FE45CFB4F82A10F
:1034C000813009F417C6FE01EE0FFF1FEE0FFF1F3C
:1034D000EC0FFD1FE45CFB4F82A1823009F4E3C5D1
:1034E0000F5F1F4F82E090E0E80EF91E04301105D7
:1034F00009F0AECFDACCC0E0D0E004E012E0809179
:1035000031039E0190E00C2E02C0959587950A9498
:10351000E2F780FD54C360E270E0A0913403B09103
:103520003503F901EE0FFF1FEE0FFF1FEE0FFF1F18
:10353000CF01880F991F880F991FE80FF91FE45CCE
:10354000FB4F23A134A145A156A18DB79EB70A9781
:103550000FB6F8949EBF0FBE8DBFEDB7FEB7319684
:10356000CE01880F991FA80FB91F8D919C91ADB7FF
:10357000BEB712969C938E93119713830283758323
:10358000648326833783408751870E94B84B2196F6
:10359000EDB7FEB73A960FB6F894FEBF0FBEEDBF7B
:1035A000C430D10509F0ABCF80CCC0E0D0E005E756
:1035B00011E0809131039E0190E00C2E02C09595A0
:1035C00087950A94E2F780FDFDC240E250E0A091A9
:1035D0003403B0913503F901EE0FFF1FEE0FFF1F0B
:1035E000EE0FFF1FCF01880F991F880F991FE80F5B
:1035F000F91FE45CFB4F268D378D8DB79EB708977A
:103600000FB6F8949EBF0FBE8DBFEDB7FEB73196D3
:10361000CE01880F991FA80FB91F8D919C91ADB74E
:10362000BEB712969C938E93119713830283558392
:103630004483378326830E94B84B2196EDB7FEB7AB
:1036400038960FB6F894FEBF0FBEEDBFC430D1055B
:1036500009F0AFCF2ACCE0913403F09135032081FB
:103660003181C901DC01E2EAF1E089E001900D92CB
:103670008150E1F7E0913403F091350322813381E9
:10368000C901DC01EBEAF1E089E001900D92815083
:10369000E1F7E0913403F091350324813581C901CC
:1036A000DC01E4EBF1E089E001900D928150E1F75B
:1036B000E0913403F091350326813781C901DC01A3
:1036C000EDEBF1E089E001900D928150E1F7EDCB57
:1036D000C0E0D0E000E010E0EDE5EE2EE1E0FE2EEF
:1036E0007EE8A72E71E0B72E64E2862E62E0962E69
:1036F00080913103AE0190E00C2E02C09595879524
:103700000A94E2F780FD64C220E230E0FA01EE0F95
:10371000FF1FEE0FFF1FEE0FFF1FCF01880F991F36
:10372000880F991FE80FF91FE45CFB4F83858823FE
:1037300009F451C2E0913403F09135038DB79EB77F
:1037400008970FB6F8949EBF0FBE8DBFADB7BEB73A
:103750001196E00FF11F80819181EDB7FEB7928342
:1037600081831396FC92EE92129715963C932E93BA
:10377000149717969C928E9216970E94B84B2DB76D
:103780003EB7285F3F4F0FB6F8943EBF0FBE2DBF28
:1037900021960E5F1F4FC430D10509F0A9CF85CB0C
:1037A000C0E0D0E004E411E0809131039E0190E09C
:1037B0000C2E02C0959587950A94E2F780FFFCC114
:1037C00080912E03882309F47DC34EE350E0A0913D
:1037D0003403B0913503C901F901EE0FFF1FEE0F5D
:1037E000FF1FEE0FFF1F880F991FE80FF91FEE0F45
:1037F000FF1FEE0FFF1FE05CFB4F208131818DB773
:103800009EB708970FB6F8949EBF0FBE8DBFEDB759
:10381000FEB73196CE01880F991FA80FB91F8D9161
:103820009C91ADB7BEB712969C938E93119713835C
:10383000028355834483378326830E94B84B2196A5
:10384000EDB7FEB738960FB6F894FEBF0FBEEDBFCA
:10385000C430D10509F0A8CF28CBC0E0D0E000E00B
:1038600010E0F2E9EF2EF1E0FF2EEDE5AE2EE1E003
:10387000BE2E7EE8872E71E0972E8091310390E076
:103880000C2E02C0959587950A94E2F780FD8CC1B5
:1038900020E2FE01EE0FFF1FEE0FFF1FEC0FFD1FDA
:1038A000E15EFB4F8481882309F0F6C1FE01EE0F33
:1038B000FF1FEE0FFF1FEE0FFF1FCF01880F991F95
:1038C000880F991FE80FF91FE45CFB4F838588235D
:1038D00009F0B0C1E0913403F09135038DB79EB784
:1038E00008970FB6F8949EBF0FBE8DBFADB7BEB799
:1038F0001196E00FF11F80819181EDB7FEB79283A1
:1039000081831396BC92AE92129714962C931497BF
:1039100015961C92159717969C928E9216970E9458
:10392000B84B2DB73EB7285F3F4F0FB6F8943EBF58
:103930000FBE2DBF21960E5F1F4FC430D10509F079
:103940009CCFB3CAC0E0D0E00BE911E08091310315
:103950009E0190E00C2E02C0959587950A94E2F79F
:1039600080FF13C180912E03882309F461C26EE3A6
:1039700070E0A0913403B0913503F901EE0FFF1F01
:10398000EE0FFF1FEE0FFF1FCF01880F991F880F4B
:10399000991FE80FF91FE45CFB4F218932894389A5
:1039A00054898DB79EB70A970FB6F8949EBF0FBE85
:1039B0008DBFEDB7FEB73196CE01880F991FA80FC6
:1039C000B91F8D919C91ADB7BEB712969C938E9303
:1039D000119713830283758364832683378340871B
:1039E00051870E94B84B2196EDB7FEB73A960FB6B5
:1039F000F894FEBF0FBEEDBFC430D10509F0A6CFCD
:103A000054CAC0E0D0E00BE911E0809131039E017F
:103A100090E00C2E02C0959587950A94E2F780FD00
:103A2000BAC060E270E0A0913403B0913503F901AF
:103A3000EE0FFF1FEE0FFF1FEE0FFF1FCF01880FCE
:103A4000991F880F991FE80FF91FE45CFB4F258928
:103A500036894789508D8DB79EB70A970FB6F8946F
:103A60009EBF0FBE8DBFEDB7FEB73196CE01880F5A
:103A7000991FA80FB91F8D919C91ADB7BEB7129633
:103A80009C938E931197138302837583648326839B
:103A90003783408751870E94B84B2196EDB7FEB718
:103AA0003A960FB6F894FEBF0FBEEDBFC430D105F5
:103AB00009F0ABCFFAC900E010E0C0E0D0E0BDE50E
:103AC000AB2EB1E0BB2EA4E18A2EA2E09A2EF9E142
:103AD0006F2EF2E07F2EEEE14E2EE2E05E2E809120
:103AE0003103E02ED12E90E0002E02C095958795EF
:103AF0000A94E2F780FD55C070E2F72EEE2DFD2D01
:103B0000EE0FFF1FEE0FFF1FEE0FFF1FCF01880FFD
:103B1000991F880F991FE80FF91FE45CFB4F87A1DD
:103B2000882309F4CBC0EE2DFD2DEE0FFF1FEE0F05
:103B3000FF1FEE0FFF1FCF01880F991F880F991FDE
:103B4000E80FF91FE45CFB4F87A1813009F449C2FB
:103B5000EE2DFD2DEE0FFF1FEE0FFF1FEE0FFF1FCF
:103B6000CF01880F991F880F991FE80FF91FE45C98
:103B7000FB4F87A1823009F403C20F5F1F4F2296CB
:103B80000430110509F0ABCF90C960E270E0F1CECE
:103B9000BEE7DB2E6ACC6EE770E045CFEEE7FE2E87
:103BA00049CB6EE7F62EAACF2EE773CE6EE770E014
:103BB000D6CA60E2D62E63CA40E250E008CE6EE775
:103BC00070E0ABCC4EE750E002CD60E270E090CB0D
:103BD0002EE730E09BCDE0913403F09135038DB7B3
:103BE0009EB708970FB6F8949EBF0FBE8DBFADB7B6
:103BF000BEB71196E00FF11F80819181EDB7FEB73E
:103C0000928381831396FC92EE92129715963C93C1
:103C10002E9314971796BC92AE9216970E94B84BAB
:103C20002DB73EB7285F3F4F0FB6F8943EBF0FBE8B
:103C30002DBFAECDE0913403F09135038DB79EB723
:103C400008970FB6F8949EBF0FBE8DBFADB7BEB735
:103C50001196E00FF11F80819181EDB7FEB792833D
:103C600081831396FC92EE92129714962C931497DC
:103C700015961C92159721961796DC93CE9316975E
:103C80000E94B84B2DB73EB7285F3F4F0FB6F89450
:103C90003EBF0FBE2DBF4FCEE0913403F0913503F0
:103CA000E00FF11F20813181C901DC01E5E8F1E07D
:103CB00089E001900D928150E1F73CCEE091340310
:103CC000F09135032DB73EB7285030400FB6F89429
:103CD0003EBF0FBE2DBFADB7BEB71196EC0FFD1F97
:103CE00080819181EDB7FEB7928381831396BC9258
:103CF000AE9212971496FC92149715961C921597F3
:103D000017969C928E9216970E94B84B2DB73EB78D
:103D1000285F3F4F0FB6F8943EBF0FBE2DBF03CFB5
:103D2000E0913403F0913503EE0DFF1D20813181C8
:103D3000C901DC01E5E8F1E089E001900D928150D4
:103D4000E1F7CECBE0913403F09135032DB73EB7C8
:103D5000285030400FB6F8943EBF0FBE2DBFADB710
:103D6000BEB71196EC0FFD1F80819181EDB7FEB7B4
:103D7000928381831396BC92AE9212971496FC9212
:103D8000149715961C92159717969C928E921697DB
:103D90000E94B84B2DB73EB7285F3F4F0FB6F8943F
:103DA0003EBF0FBE2DBF5BCAE0913403F0913503D7
:103DB000EC0FFD1F00811181F901EE0FFF1FEE0FC7
:103DC000FF1FEE0FFF1FCF01880F991F880F991F4C
:103DD000E80FF91FE45CFB4F60817181842F0E9422
:103DE000D0082DB73EB72C5030400FB6F8943EBFE8
:103DF0000FBE2DBFEDB7FEB73196ADB7BEB7129669
:103E00001C930E93119773826282D482158266830B
:103E1000778380879187538642860E94B84BEDB79F
:103E2000FEB73C960FB6F894FEBF0FBEEDBF7BC940
:103E30006EE770E09ECDE0913403F0913503EC0F16
:103E4000FD1F00811181F901EE0FFF1FEE0FFF1F13
:103E5000EE0FFF1FCF01880F991F880F991FE80FE2
:103E6000F91FE45CFB4F60817181842F0E944B0835
:103E70002DB73EB72C5030400FB6F8943EBF0FBE62
:103E80002DBFEDB7FEB73196ADB7BEB712961C93F6
:103E90000E931197B382A282D482158266837783B0
:103EA00080879187938682860E94B84BEDB7FEB7D4
:103EB0003C960FB6F894FEBF0FBEEDBF34C99EE727
:103EC000D92EDDC84EE750E082CC6EE770E010CA14
:103ED000E0913403F091350300D000D000D0ADB7AD
:103EE000BEB71196EE0DFF1D80819181EDB7FEB733
:103EF0009283818313967C926E9212971496DC9231
:103F0000149715961C920E94B84B2DB73EB72A5FA6
:103F10003F4F0FB6F8943EBF0FBE2DBFC7CAE0910A
:103F20003403F09135038DB79EB708970FB6F89418
:103F30009EBF0FBE8DBFADB7BEB71196EC0FFD1F74
:103F400080819181EDB7FEB7928381831396BC92F5
:103F5000AE9212971496FC92149715961C92159790
:103F600017965C924E9216970E94B84B2DB73EB7AB
:103F7000285F3F4F0FB6F8943EBF0FBE2DBF99C9C3
:103F8000E0913403F09135038DB79EB708970FB6D3
:103F9000F8949EBF0FBE8DBFADB7BEB71196EC0FA4
:103FA000FD1F80819181EDB7FEB7928381831396C7
:103FB000BC92AE9212971496FC92149715961C928E
:103FC000159717965C924E9216970E94B84B2DB794
:103FD0003EB7285F3F4F0FB6F8943EBF0FBE2DBFD0
:103FE000CCCDE0913403F09135038DB79EB708979F
:103FF0000FB6F8949EBF0FBE8DBFADB7BEB711967A
:10400000EC0FFD1F80819181EDB7FEB79283818314
:104010001396BC92AE9212971496FC921497159632
:104020001C92159717967C926E9216970E94B84B29
:104030002DB73EB7285F3F4F0FB6F8943EBF0FBE77
:104040002DBF86CDE0913403F09135038DB79EB737
:1040500008970FB6F8949EBF0FBE8DBFADB7BEB721
:104060001196EC0FFD1F80819181EDB7FEB7928311
:1040700081831396BC92AE9212971496FC92149779
:1040800015961C92159717967C926E9216970E9421
:10409000B84B2DB73EB7285F3F4F0FB6F8943EBFE1
:1040A0000FBE2DBFF1C8E0913403F091350300D06D
:1040B00000D000D0ADB7BEB71196EE0DFF1D8081C8
:1040C0009181EDB7FEB7928381831396BC92AE9235
:1040D00012971496DC92149715961C920E94B84B76
:1040E0002DB73EB72A5F3F4F0FB6F8943EBF0FBEC5
:1040F0002DBFF6C9E0913403F091350300D000D014
:1041000000D0ADB7BEB71196EE0DFF1D8081918135
:10411000EDB7FEB79283818313969C928E9212978D
:104120001496DC92149715961C920E94B84B2DB7EA
:104130003EB72A5F3F4F0FB6F8943EBF0FBE2DBF6C
:10414000C2C98F929F92AF92BF92CF92DF92EF92AD
:10415000FF920F931F93CF93DF93EB016A015901F5
:10416000480160E070E04AE050E00E94FA48162FF3
:10417000603168F0DF91CF911F910F91FF90EF9028
:10418000DF90CF90BF90AF909F908F900895C70120
:1041900060E372E00E94424B009709F066C0812FF5
:1041A00090E0FC01EE0FFF1FEE0FFF1FEE0FFF1F51
:1041B000880F991FE80FF91FE15CFC4F1082812FD7
:1041C00090E0FC01EE0FFF1FEE0FFF1FEE0FFF1F31
:1041D000880F991FE80FF91FE15CFC4F81E0818790
:1041E000812F90E0FC01EE0FFF1FEE0FFF1FEE0F7F
:1041F000FF1F880F991FE80FF91FE15CFC4F128227
:104200001182812F90E0FC01EE0FFF1FEE0FFF1FC8
:10421000EE0FFF1F880F991FE80FF91FE15CFC4F9D
:1042200014821382812F90E0FC01EE0FFF1FEE0F2E
:10423000FF1FEE0FFF1F880F991FE80FF91FE15CAA
:10424000FC4F16821582812F90E0FC01EE0FFF1FBC
:10425000EE0FFF1FEE0FFF1F880F991FE80FF91FCA
:10426000E15CFC4F1086178285CFCE0160E070E0E4
:104270004AE050E00E94FA48212F30E0F901EE0FA9
:10428000FF1FEE0FFF1FEE0FFF1F220F331FE20F66
:10429000F31FE15CFC4F72836183C60160E070E054
:1042A0004AE050E00E94FA48212F30E0F901EE0F79
:1042B000FF1FEE0FFF1FEE0FFF1F220F331FE20F36
:1042C000F31FE15CFC4F74836383C50160E070E021
:1042D0004AE050E00E94FA48212F30E0F901EE0F49
:1042E000FF1FEE0FFF1FEE0FFF1F220F331FE20F06
:1042F000F31FE15CFC4F76836583C40160E070E0EE
:104300004AE050E00E94FA48212F30E0F901EE0F18
:10431000FF1FEE0FFF1FEE0FFF1F220F331FE20FD5
:10432000F31FE15CFC4F70876783812F90E0FC01F5
:10433000EE0FFF1FEE0FFF1FEE0FFF1F880F991FDD
:10434000E80FF91FE15CFC4F81E08083C70165E362
:1043500072E00E94424B009781F4812F90E0FC01B3
:10436000EE0FFF1FEE0FFF1FEE0FFF1F880F991FAD
:10437000E80FF91FE15CFC4F1186C70169E372E0A9
:104380000E94424B009709F0F5CE812F90E0FC018E
:10439000EE0FFF1FEE0FFF1FEE0FFF1F880F991F7D
:1043A000E80FF91FE15CFC4F81E08187E3CE0F93BA
:1043B000CF93DF93EB0160E070E04AE050E00E94B1
:1043C000FA48062F643008F0ACC0CE016DE372E00D
:1043D0000E94424B009759F1CE0163E472E00E94C3
:1043E000424B009709F460C0CE0167E472E00E947E
:1043F000424B009709F058C0C0913304D091340467
:10440000E02FF0E0EE0FFF1FEE0FFF1FEE0FFF1F7C
:10441000CF01880F991F880F991FE80FF91FE45CDF
:10442000FB4F60817181802F0E94D00857C040915E
:10443000330450913404E02FF0E0EE0FFF1FEE0F35
:10444000FF1FEE0FFF1FCF01880F991F880F991FC5
:10445000E80FF91FE45CFB4F2081318100D000D0D0
:1044600000D0EDB7FEB73196ADB7BEB712965C93EC
:104470004E93119787E191E0938382833583248360
:104480000E94B84B2DB73EB72A5F3F4F0FB6F89446
:104490003EBF0FBE2DBF2091330430913404C901BB
:1044A000DF91CF910F910895C0913304D0913404DE
:1044B000E02FF0E0EE0FFF1FEE0FFF1FEE0FFF1FCC
:1044C000CF01880F991F880F991FE80FF91FE45C2F
:1044D000FB4F60817181802F0E944B08ADB7BEB742
:1044E00018970FB6F894BEBF0FBEADBFEDB7FEB7BD
:1044F00031961296DC93CE9311972FE131E03383FE
:10450000228364837583868397830E94B84B2DB77B
:104510003EB7285F3F4F0FB6F8943EBF0FBE2DBF8A
:10452000BACF809133049091340400D000D000D0F1
:10453000EDB7FEB73196ADB7BEB712969C938E938A
:10454000119780E091E093838283048315820E9417
:10455000B84B2DB73EB72A5F3F4F0FB6F8943EBF1A
:104560000FBE2DBF98CF90E0880F991F86559A4FA8
:10457000FC0125913491F901659174918091370482
:10458000909138040E942B4B80913704909138040D
:104590006AE472E00E943D4BBC0190933804809322
:1045A0003704E0913803F0913903808191810E94B2
:1045B0004B4B80E090E06CE472E00E943D4BBC010C
:1045C0009093380480933704E0913803F0913903D5
:1045D000828193810E944B4B20E030E090E2A091D9
:1045E0003803B0913903A20FB31FEC911196FC91DF
:1045F000DF010D900020E9F71197AE1BBF0BA03132
:1046000080F48A2FE0913803F0913903E20FF31F11
:104610000190F081E02DE80FF11D90838F5F8031D4
:1046200088F3E0913803F0913903E20FF31F019012
:10463000F081E02D108A2E5F3F4F2430310579F64E
:104640000895AF92BF92CF92DF92EF92FF920F93B5
:104650001F93CF93DF93F8948091DE04882379F43D
:10466000B0E8AB2E78948A2DDF91CF911F910F91F6
:10467000FF90EF90DF90CF90BF90AF900895809122
:10468000DC049091DD046EE472E00E943D4B6C010D
:1046900003E613E0A0E8AA2EBB24E0901603F090F6
:1046A0001703F801C591D491FE0165917491D7016A
:1046B0008D919C910E942B4BE0901603F090170374
:1046C000F70160817181C6010E94424B009741F45D
:1046D0002396FE0194912197FE018491A92EB82E74
:1046E0000E5F1F4FF3E00F3A1F07D9F6BB20C9F04A
:1046F00011E080E090E06EE472E00E943D4BBC016E
:10470000812F90E0880F991FE0911603F091170315
:10471000E80FF91F808191810E944B4B1F5FB116FA
:1047200040F7E091DC04F091DD0480E4DF011D92AC
:104730008A95E9F71092DE0495CFFC0190819923C8
:1047400051F08091C00085FFFCCF9093C600319658
:1047500090819923B1F78091C00085FFFCCF8AE05A
:104760008093C600E0913304F091340480E4DF01CB
:104770001D928A95E9F7089560E070E04AE050E004
:104780000E94FA48633050F46623D1F06130F1F0B2
:1047900081E00E94D8400E9405400895A091330412
:1047A000B0913404E3E5F2E08AE101900D9281508A
:1047B000E1F780913304909134040E949D23089581
:1047C0000E94124081E00E94D840089580E00E943B
:1047D000D8400E9405400895AF92BF92CF92DF92D9
:1047E000EF92FF920F931F93CF93DF93C0E0D0E03F
:1047F0007DE6C72E72E0D72EE0903304F0903404AB
:10480000CE01FE01EE0FFF1FEE0FFF1FEE0FFF1F89
:10481000880F991FE80FF91FE15CFC4F018112819D
:10482000CE01FE01EE0FFF1FEE0FFF1FEE0FFF1F69
:10483000880F991FE80FF91FE15CFC4FA380B4803B
:10484000CE01FE01EE0FFF1FEE0FFF1FEE0FFF1F49
:10485000880F991FE80FF91FE15CFC4F45815681D5
:10486000CE01FE01EE0FFF1FEE0FFF1FEE0FFF1F29
:10487000880F991FE80FF91FE15CFC4F27813085F5
:10488000CE01FE01EE0FFF1FEE0FFF1FEE0FFF1F09
:10489000880F991FE80FF91FE15CFC4F6185CE017D
:1048A000FE01EE0FFF1FEE0FFF1FEE0FFF1F880F21
:1048B000991FE80FF91FE15CFC4F8081ADB7BEB7CF
:1048C00052970FB6F894BEBF0FBEADBFEDB7FEB79F
:1048D00031961296FC92EE921197D382C282C483D3
:1048E000D58317830683B186A08653874287358791
:1048F000248766871786808B118A0E94B84B809127
:10490000330490913404EDB7FEB772960FB6F89465
:10491000FEBF0FBEEDBF0E949D232196C031D10581
:1049200009F06ACFDF91CF911F910F91FF90EF9027
:10493000DF90CF90BF90AF90089560E070E04AE0C4
:1049400050E00E94FA48643090F5E62FF0E0EE0F58
:10495000FF1FEE0FFF1FEE0FFF1FCF01880F991FE4
:10496000880F991FE80FF91FE45CFB4F83858823AC
:1049700079F4E0913304F091340480E390E0918382
:10498000808380913304909134040E949D23089584
:10499000E0913304F091340481E390E091838083CB
:1049A00080913304909134040E949D230895A09136
:1049B0003304B0913404E2E8F2E083E101900D9217
:1049C0008150E1F7DECF1F93CF93DF93EB0160E0DF
:1049D00070E04AE050E00E94FA48162F6430B8F4C4
:1049E000CE0160E070E04AE050E00E94FA48812F7A
:1049F00090E0FC01EE0FFF1FEE0FFF1FE80FF91F05
:104A0000E15EFB4F6483DF91CF911F910895A091E8
:104A10003304B0913404E2E8F2E083E101900D92B6
:104A20008150E1F780913304909134040E949D23DA
:104A3000EACFFF920F931F93CF93DF93EB018A018D
:104A400060E070E04AE050E00E94FA48F62E83E011
:104A50008F1528F1CE010E942D4AEC01C8010E9459
:104A60002D4AAC01C817D90779F18C179D074CF175
:104A70008F2D90E0FC01EE0FFF1FEE0FFF1FE80FE0
:104A8000F91FE15EFB4FD183C0835383428381E0F2
:104A90008483DF91CF911F910F91FF900895A09192
:104AA0003304B0913404E2E8F2E083E101900D9226
:104AB0008150E1F780913304909134040E949D234A
:104AC000E8CFAE01EC01D4CF8F2D90E0FC01EE0FCA
:104AD000FF1FEE0FFF1FE80FF91FE15EFB4F118272
:104AE0001082138212821482DF91CF911F910F9155
:104AF000FF9008952F923F924F925F926F927F9214
:104B00008F929F92AF92BF92CF92DF92EF92FF92DD
:104B10000F931F93DF93CF9300D000D000D0CDB779
:104B2000DEB77A8369838A0160E070E04AE050E092
:104B30000E94FA48643008F062C0E62EFF24970114
:104B4000220F331F220F331F3C832B83F901EE0DFD
:104B5000FF1DE15EFB4F84818823C9F026960FB6C6
:104B6000F894DEBF0FBECDBFCF91DF911F910F91A3
:104B7000FF90EF90DF90CF90BF90AF909F908F907D
:104B80007F906F905F904F903F902F900895C80155
:104B90000E94294A3B014C0189819A8165E972E0B2
:104BA0000E94424B009709F03CC0F894C701880F5F
:104BB000991F880F991F880F991FFC01EE0FFF1F87
:104BC000EE0FFF1FE80FF91FE45CFB4F148683E034
:104BD00090E0978F868F80819181EB81FC81EE0F31
:104BE000FF1FEE0FFF1FAB81BC81EA0FFB1FEE0F13
:104BF000FF1FE25CFB4F918380837894AFCFA0913D
:104C00003304B0913404E2E8F2E083E101900D92C4
:104C10008150E1F780913304909134040E949D23E8
:104C20009DCFF701EE0FFF1FEE0FFF1FEE0FFF1FCF
:104C3000FE83ED83EE0FFF1FEE0FFF1F2D813E81E0
:104C4000E20FF31FE45CFB4FE584F68407851089CF
:104C5000A188B288C388D488258836884788508C34
:104C6000C401B3019F7720E030E04AE754E40E949A
:104C70004B473B014C01C801B701A60195010E94B9
:104C80004B47A20191010E944B479B01AC01C4011B
:104C9000B3010E94A9450E94AE470E9416468B01AF
:104CA000672B09F477C037E26031730708F060C002
:104CB00089819A8161EC72E00E94424B009739F53C
:104CC000ED81FE81EE0FFF1FEE0FFF1F8D819E8194
:104CD000E80FF91FE45CFB4F81E08487178F068F94
:104CE00080819181EB81FC81EE0FFF1FEE0FFF1F92
:104CF000AB81BC81EA0FFB1FEE0FFF1FE25CFB4F95
:104D000091838083808191810196918380838981C1
:104D10009A8164EC72E00E94424B009709F01ECF2A
:104D2000ED81FE81EE0FFF1FEE0FFF1F2D813E81F3
:104D3000E20FF31FE45CFB4F82E08487178F068F3E
:104D400080819181EB81FC81EE0FFF1FEE0FFF1F31
:104D5000AB81BC81EA0FFB1FEE0FFF1FE25CFB4F34
:104D60009183808380819181019791838083F6CEA6
:104D7000A0913304B0913404EEEAF2E083E10190B3
:104D80000D928150E1F780913304909134040E9498
:104D90009D238ECFA0913304B0913404EAE9F2E070
:104DA00084E101900D928150E1F734CF1F93CF93AE
:104DB000DF93EB0160E070E04AE050E00E94FA48C7
:104DC000162F6430D8F4CE010E942D4A9C01E12FA9
:104DD000F0E0EE0FFF1FEE0FFF1FEE0FFF1FCF01E2
:104DE000880F991F880F991FE80FF91FE45CFB4F8C
:104DF000378F268FDF91CF911F910895A0913304B3
:104E0000B0913404E2E8F2E083E101900D92815028
:104E1000E1F780913304909134040E949D23EACFFE
:104E20001F93CF93DF93EB0160E070E04AE050E026
:104E30000E94FA48162F6430E0F4CE010E94294AFD
:104E4000E12FF0E0EE0FFF1FEE0FFF1FEE0FFF1F31
:104E50009F01220F331F220F331FE20FF31FE45C69
:104E6000FB4F618B728B838B948BDF91CF911F9162
:104E70000895809133049091340400D000D000D084
:104E8000EDB7FEB73196ADB7BEB712969C938E9331
:104E9000119780E091E093838283148315820E94AE
:104EA000B84B80913304909134042DB73EB72A5FFC
:104EB0003F4F0FB6F8943EBF0FBE2DBF0E949D23FB
:104EC000DF91CF911F9108951F93CF93DF93EB0153
:104ED00060E070E04AE050E00E94FA48162F64302B
:104EE000E0F4CE010E94294AE12FF0E0EE0FFF1F0F
:104EF000EE0FFF1FEE0FFF1F9F01220F331F220F28
:104F0000331FE20FF31FE45CFB4F658776878787CB
:104F1000908BDF91CF911F910895809133049091F0
:104F2000340400D000D000D0EDB7FEB73196ADB755
:104F3000BEB712969C938E93119780E091E0938375
:104F40008283148315820E94B84B80913304909120
:104F500034042DB73EB72A5F3F4F0FB6F8943EBFDB
:104F60000FBE2DBF0E949D23DF91CF911F91089509
:104F70001F93CF93DF93EB0160E070E04AE050E0D5
:104F80000E94FA48162F643000F5CE0160E070E010
:104F90004AE050E00E94FA48212F30E0F901EE0F7C
:104FA000FF1FEE0FFF1FEE0FFF1F220F331FE20F39
:104FB000F31FEE0FFF1FEE0FFF1FE05CFB4F71832F
:104FC0006083DF91CF911F91089580913304909178
:104FD000340400D000D000D0EDB7FEB73196ADB7A5
:104FE000BEB712969C938E93119780E091E09383C5
:104FF0008283148315820E94B84B80913304909170
:1050000034042DB73EB72A5F3F4F0FB6F8943EBF2A
:105010000FBE2DBF0E949D23DF91CF911F91089558
:10502000FF920F931F93CF93DF93EB018A0160E010
:1050300070E04AE050E00E94FA48F62E83E08F15B7
:1050400030F4DF91CF911F910F91FF900895C80127
:105050006DE372E00E94424B0097A9F0C80163E43F
:1050600072E00E94424B009709F442C0C80167E415
:1050700072E00E94424B009709F447C088EC92E02E
:105080000E949D23DECFEF2DF0E0EE0FFF1FEE0F0D
:10509000FF1FCF01880F991F880F991FE80FF91F75
:1050A000EE0FFF1FE25CFB4F00811181CE0160E03B
:1050B00070E04AE050E00E94FA48060F171FEF2DFB
:1050C000F0E0EE0FFF1FEE0FFF1FCF01880F991FBB
:1050D000880F991FE80FF91FEE0FFF1FE25CFB4FCF
:1050E00011830083DF91CF911F910F91FF9008955D
:1050F000CE010E94294AAB01BC018F2D00E010E0D7
:1051000020E83FE30E9411129CCFCE010E94294A61
:10511000AB01BC018F2D00E010E020E83FE30E94CE
:10512000CA108FCFDF92EF92FF920F931F93CF930E
:10513000DF93EB018A0160E070E04AE050E00E94FA
:10514000FA48D62E83E08D1540F4DF91CF911F9160
:105150000F91FF90EF90DF900895C8016DE372E02A
:105160000E94424B0097A1F0C80163E472E00E94E4
:10517000424B009779F1C80167E472E00E94424B0C
:10518000009709F450C088EC92E00E949D23DDCF87
:10519000CE0160E070E04AE050E00E94FA48ED2D58
:1051A000F0E0EE0FFF1FEE0FFF1F9F01220F331FD6
:1051B000220F331FE20FF31FEE0FFF1FE25CFB4FC6
:1051C00071836083DF91CF911F910F91FF90EF90DA
:1051D000DF900895ED2DF0E0EE0FFF1FEE0FFF1FA3
:1051E000EE0FFF1FCF01880F991F880F991FE80F3F
:1051F000F91FE45CFB4F608171818D2D0E944B088B
:105200007B018C01CE010E94294AA80197010E94CE
:105210004045AB01BC018D2D00E010E020E83FE3EC
:105220000E94111292CFED2DF0E0EE0FFF1FEE0F56
:10523000FF1FEE0FFF1FCF01880F991F880F991FC7
:10524000E80FF91FE45CFB4F608171818D2D0E9496
:10525000D0087B018C01CE010E94294AA801970148
:105260000E944045AB01BC018D2D00E010E020E81C
:105270003FE30E94CA1069CF20E030E080E090E078
:10528000E0911603F09117030190F081E02DE80FF3
:10529000F91F108201968431910591F780E090E02A
:1052A000E0913203F0913303E20FF31F0190F0819C
:1052B000E02DE80FF91F1082E0913403F0913503DF
:1052C000E20FF31F0190F081E02DE80FF91F10822B
:1052D00001968930910521F780E090E0E091360356
:1052E000F0913703E20FF31F0190F081E02DE80FFA
:1052F000F91F1082E0913803F0913903E20FF31F98
:105300000190F081E02DE80FF91F108201968131A4
:10531000910521F7E0913A03F0913B0380E4DF012E
:10532000982F1D929A95E9F7E0913304F091340497
:10533000DF01982F1D929A95E9F7E091DC04F09136
:10534000DD04DF011D928A95E9F7E0913704F091C1
:10535000380488E2DF011D928A95E9F70895F894F0
:105360008091DC049091DD0420913A0330913B035D
:10537000DC01F90180E401900D928150E1F781E0B8
:105380008093DE04E0913A03F0913B0380E4DF0177
:105390001D928A95E9F710923D0310923C03789490
:1053A00008950E94470A6091390470913A0442E0DE
:1053B0000E944F41E0913904F0913A04A0913904E0
:1053C000B0913A04708160E011962C9130E0622B2C
:1053D000732B729562956F7067277F70672770E0F7
:1053E00080E090E00E94424626E636E64AE952E432
:1053F0000E94A945089560E070E04AE050E00E94F4
:10540000FA48643078F5862F0E94D1292091330420
:1054100030913404ADB7BEB718970FB6F894BEBF3D
:105420000FBEADBFEDB7FEB7319612963C932E93EB
:1054300011972FE131E03383228364837583868360
:1054400097830E94B84B4DB75EB7485F5F4F0FB66A
:10545000F8945EBF0FBE4DBF2091330430913404E9
:10546000C9010895809133049091340400D000D094
:1054700000D0EDB7FEB73196ADB7BEB712969C938C
:105480008E93119780E091E09383828364831582E9
:105490000E94B84B4DB75EB74A5F5F4F0FB6F894A6
:1054A0005EBF0FBE4DBF2091330430913404C9015B
:1054B0000895DF92EF92FF920F931F93D82E7A01F7
:1054C0008B01CB01BA0120E030E040E050E00E94C7
:1054D000A545882334F1C801B70120E030E040E25F
:1054E00050E40E9447471816FCF40CE010E18D2DA3
:1054F0000E94470AE0913904F0913A040083E09158
:105500003904F0913A0411836091390470913A049E
:1055100042E00E9422411F910F91FF90EF90DF9097
:10552000089500E010E0E3CFC801B70126E636E6B3
:105530004AE952E40E944B470E947F460E94164669
:10554000062F02950F70162F1295107FD0CF1F9344
:10555000CF93DF93EB0160E070E04AE050E00E94FF
:10556000FA48162F6430A0F5CE010E94294AE12F97
:10557000F0E0EE0FFF1FEE0FFF1FEE0FFF1F9F016A
:10558000220F331F220F331FE20FF31FE45CFB4F88
:1055900063A374A385A396A3E12FF0E0EE0FFF1F92
:1055A000EE0FFF1FEE0FFF1FCF01880F991F880F0F
:1055B000991FE80FF91FE45CFB4F43A154A165A1BB
:1055C00076A1812F0E94592ADF91CF911F910895D2
:1055D000809133049091340400D000D000D0EDB716
:1055E000FEB73196ADB7BEB712969C938E931197C6
:1055F00080E091E093838283148315820E94B84BEC
:1056000080913304909134042DB73EB72A5F3F4F09
:105610000FB6F8943EBF0FBE2DBF0E949D23DF91B1
:10562000CF911F9108950E94470AE0913904F091AB
:105630003A041082E0913904F0913A0411826091A9
:10564000390470913A0442E00E9422410895F8948E
:10565000E0913904F0913A046083E0913904F091CB
:105660003A0441836091390470913A0442E00E9407
:105670002241789408950F931F93182FF894E09186
:105680003904F0913A048AE08083E0913904F09182
:105690003A0480E281836091390470913A04812F49
:1056A00042E00E942241E0913904F0913A041082D4
:1056B000E0913904F0913A041182609139047091BB
:1056C0003A04812F42E00E942241E0913904F09196
:1056D0003A0481E08083E0913904F0913A048FEF3D
:1056E00081836091390470913A04812F42E00E94D5
:1056F0002241E0913904F0913A0485E08083E09101
:105700003904F0913A048DE18183609139047091FC
:105710003A04812F42E00E942241E0913904F09145
:105720003A0487E08083E0913904F0913A0403E081
:1057300001836091390470913A04812F42E00E9404
:105740002241E0913904F0913A0489E08083E091AC
:105750003904F0913A0401836091390470913A045C
:10576000812F42E00E942241E0913904F0913A04F5
:1057700082E18083E0913904F0913A0488E78183E3
:105780006091390470913A04812F42E00E942241D5
:1057900078941F910F9108950F931F93082F162F40
:1057A000F8940E94F4400E941E41802F0E94004104
:1057B0000E941E41812F0E9400410E941E410E94B2
:1057C000F4400E941E41802F81600E9400410E948F
:1057D0001E410E941441182F0E941E410E94FC404D
:1057E0007894812F1F910F9108951F920F920FB6F9
:1057F0000F920BB60F9211242F933F934F935F9309
:105800006F937F938F939F93AF93BF93EF93FF9388
:1058100080E468E00E94CC2B982F80912A03882393
:1058200029F49093280381E080932A03FF91EF915C
:10583000BF91AF919F918F917F916F915F914F91A8
:105840003F912F910F900BBE0F900FBE0F901F90A6
:10585000189588B1886388B980E465E042E20E94C7
:10586000272B80E460E04FEF0E94272B80E461E06B
:105870004FEF0E94272B80E462E048EF0E94272B25
:1058800080E463E043E00E94272B80E464E040E092
:105890000E94272B80E466E04FEF0E94272B80E4D4
:1058A00069E00E94CC2BE9E6F0E080818360808390
:1058B000E89A84B5826084BD88E287BDEEE6F0E0B8
:1058C00080818260808316BC85B5856085BD089522
:1058D0001F93162F0E94350A63E10E94CC2B21E012
:1058E00030E002C0220F331F1A95E2F7822309F03D
:1058F00081E01F9108951F9360E070E04AE050E05E
:105900000E94FA48162F643020F5862F65E00E9429
:10591000682C882379F4E0913304F091340481E316
:1059200090E0918380832091330430913404C90145
:105930001F910895812F66E00E94682C882359F3F7
:10594000E0913304F091340480E390E0918380830C
:10595000EACF809133049091340400D000D000D07D
:10596000EDB7FEB73196ADB7BEB712969C938E9346
:10597000119780E091E093838283148315820E94C3
:10598000B84B8DB79EB706960FB6F8949EBF0FBE64
:105990008DBF2091330430913404C9011F910895C3
:1059A0001F930E94350A182F62E10E94CC2B482FCA
:1059B0004062812F62E10E94272B80E197E20197EC
:1059C000F1F71F9108951F930E94350A182F62E185
:1059D0000E94CC2B482F4F7D812F62E10E94272B04
:1059E0001F9108950F931F930E94350A082F62E1BB
:1059F0000E94CC2B182F1F7B802F62E1412F0E9429
:105A0000272B1064802F62E1412F0E94272B1F91CA
:105A10000F9108952F923F924F925F926F927F92D3
:105A20008F929F92AF92BF92DF92EF92FF920F936D
:105A30001F93DF93CF9300D000D0CDB7DEB7D82E21
:105A4000A82EBB241501220C331C220C331CF1019F
:105A5000EA0DFB1DE15EFB4F8481882309F0D5C070
:105A60002501440C551C440C551C440C551CC2010A
:105A7000880F991F880F991F840D951D845C9B4F7B
:105A80009C838B83FC018385882309F4BEC08091AD
:105A9000B100887F8093B100868D978D9A8389832A
:105AA00061897289838994892585368547855089DE
:105AB000E588F6880789108D0E944B47A801970159
:105AC0000E944B473B014C0181E090E0EB81FC815F
:105AD000978F868F05C08D2D68E37FEF0E94590652
