:100000000C94CD020C94910B0C94EC020C94EC0229
:100010000C94EC020C94EC020C94EC020C94EC02A8
:100020000C94EC020C94300D0C94EC020C94EC0249
:100030000C94EC020C94EC020C94EC020C94EC0288
:100040000C943A0B0C94EC020C94EC020C94EC0221
:100050000C94EC0A0C94EC020C94EC020C94EC0260
:100060000C94EC020C94EC020C94EC020C94EC0258
:100070000C94EC020C94EC020C94EC020C94EC0248
:100080000C94EC020C94EC020C94EC02A92ECA2EF7
:10009000B12E9B2E8D2E812E752E672E632E5F2EF8
:1000A000532E472E3B2E302F242F182F0C2F002F8E
:1000B000F42EE82EDC2E712F642F5E2F3C2F872F1D
:1000C0007C2F942F242EAD2E00000000FFFF000097
:1000D000000000000000010001000000000000001E
:1000E0000000FFFF000000000000E80000802A522E
:1000F00053540000EE0000812A49444E3F0000F8AE
:100100000000822A49444E0000030101834D4F56EE
:100110004541425300000D0103844D4F5645524561
:100120004C00001A0103855A45524F52554E0000AB
:1001300027010186454E41424C45000034010287AB
:10014000474554504F5300004001028853415645E3
:10015000434F4E4600004C0100894C4F4144434FF1
:100160004E4600005A01008A49534D4F56494E47AA
:1001700000006801018B474554414E414C4F4700F8
:10018000007601018C4745544F50545A45524F5008
:100190004F5300008501018D5345544F50545A452B
:1001A000524F504F5300009801028E474554474527
:1001B0004152524154494F0000AB01018F53455405
:1001C00047454152524154494F0000BD01029047FA
:1001D000455446554C4C524F540000CF01019153A9
:1001E000455446554C4C524F540000DF0102924793
:1001F000455453554253544550530000EF01019369
:100200005345545355425354455053000000020285
:10021000944745545741495454494D4500001102F3
:1002200001955345545741495454494D45000022C6
:10023000020296534554434F4E5354535045454440
:10024000000033020397464143544F5259524553DD
:10025000455400004602009853544F50414C4C0006
:100260000058020099534554464F52425A4F4E454A
:1002700000006502039A454E4142464F52425A4F92
:100280004E4500007602029B53455450524F47534F
:1002900054455000008802069C4745544D4F545326
:1002A0005441544500009902019D44424752454142
:1002B000444F55540000AA02009E4C45440000BA29
:1002C00002039FEA00F400FF000901160123013038
:1002D000013C01480156016401720181019401A7AA
:1002E00001B901CB01DB01EB01FC010D021E022F64
:1002F00002420254026102720284029502A602B610
:1003000002BF024C4B2D496E737472756D656E742D
:10031000730A534D43343234320000030300436800
:10032000616E6765206D6F746F720A706F736974A8
:10033000696F6E00001E03014368616E676520737C
:100340007465700A756E6974000038030243686151
:100350006E676520737465700A77616974207469CB
:100360006D6500004D030353657420737465700A56
:100370006D756C7469706C69657200006703045276
:10038000756E207A65726F0A63616C69627261745E
:10039000696F6E00007F03054368616E6765206DBD
:1003A0006F746F720A7375627374657000009803DE
:1003B00006536176652063757272656E740A636FA9
:1003C0006E66696775726174696F6E0000B10307CC
:1003D0004C6F6164206C6173740A636F6E66696749
:1003E00075726174696F6E0000D0030844656669B8
:1003F0006E65206F70746963616C0A7A65726F2034
:10040000706F736974696F6E0000EC030953657453
:1004100020636F6E7374616E740A616E67756C61D0
:100420007220737065656400000D040A52756E20B9
:10043000696E7465726E616C0A70726F6772616D5D
:1004400000002C040B1B0335034A0364037C039553
:1004500003AE03CD03E9030A04290442046E616E6E
:1004600000696E660000407A10F35A00A0724E18C0
:10047000090010A5D4E80000E87648170000E40B56
:1004800054020000CA9A3B000000E1F5050000801C
:10049000969800000040420F000000A08601000076
:1004A00000102700000000E80300000000640000C6
:1004B0000000000A00000000000100000000002C05
:1004C00076D888DC674F0823DFC1DFAE59E1B1B7CA
:1004D00096E5E3E453C63AE651997696E8E6C28497
:1004E00026EB898C9B62ED407C6FFCEFBC9C9F40AF
:1004F000F2BAA56FA5F490055A2AF75C936B6CF9D4
:10050000676DC11BFCE0E40D47FEF520E6B500D0A9
:10051000ED902E0300943577050080841E080000BE
:10052000204E0A000000C80C333333330F986E128C
:10053000831141EF8D2114893BE65516CFFEE6DB92
:1005400018D1844B381BF77C1D901DA4BBE42420DC
:100550003284725E228100C9F124ECA1E53D274975
:100560004E46494E4954594E414ECDCCCC3D0AD70A
:10057000233C17B7D13877CC2B329595E6241FB1A1
:100580004F0A000020410000C84200401C4620BC29
:10059000BE4CCA1B0E5AAEC59D7411241FBECFEFB0
:1005A000D0E4DEBFCDBF12E0A0E0B1E0E8EBF8E7B9
:1005B00000E00BBF02C007900D92A43AB107D9F733
:1005C00014E0A4EAB2E001C01D92A835B107E1F73A
:1005D0000E94032D0C945A3C0C9400002F923F92E1
:1005E0004F925F926F927F928F929F92AF92BF9243
:1005F000CF92DF92EF92FF920F931F9320E030E0B3
:100600000F2EF0E02F2EF0E03F2EF0E04F2EF0E026
:100610005F2EF02D0F2EF0E06F2EF0E07F2EF0E435
:100620008F2EF0E49F2EF02D0F2EF0E0AF2EF0E095
:10063000BF2EF8ECCF2EF3E4DF2EF02D0F2EF0E0DE
:10064000EF2EF0E0FF2EF0E80F2FF0E41F2FF02D3B
:1006500040E050E060E87FE3A3E0B0E0C901880F2C
:10066000991F880F991FFC01EE0FFF1FEE0FFF1F50
:10067000EE0FFF1FE80FF91FE21BF30BE254FC4FD4
:10068000118210821382128215821482268237828E
:1006900040865186128613861486658676868786FE
:1006A000908AA18AB28AC38AD48AE58AF68A078B9D
:1006B000108F428F538F648F758F81E0818FB78F3A
:1006C000A68F868D978D880F991F019791A380A380
:1006D00012A22F5F3F4F2430310509F0BFCF109297
:1006E000BF021092BE021092B8031092B70310928C
:1006F0004F041092500410929A031092990388E0CC
:1007000080939B031092AD029AE29093AE0282E036
:100710008093AF021092B0021092B1029093B20295
:1007200080E18093B3021092AA021092AB02109261
:10073000AC0210929C0310929D0310929E031092A3
:100740009F031092A0031092BD031092A503109274
:10075000A2031092A1031092A4031092A30310927B
:10076000AA031092A7031092A6031092A903109255
:10077000A8031092AF031092AC031092AB03109237
:10078000AE031092AD031092B4031092B103109215
:10079000B0031092B3031092B20320E030E041E0C6
:1007A000C901F901EE0FFF1FEE0FFF1FEE0FFF1F34
:1007B000880F991FE80FF91FEF53FD4F1082C901F1
:1007C000F901EE0FFF1FEE0FFF1FEE0FFF1F880F47
:1007D000991FE80FF91FEF53FD4F4187C901F90138
:1007E000EE0FFF1FEE0FFF1FEE0FFF1F880F991F69
:1007F000E80FF91FEF53FD4F12821182C901F90171
:10080000EE0FFF1FEE0FFF1FEE0FFF1F880F991F48
:10081000E80FF91FEF53FD4F14821382C901F9014C
:10082000EE0FFF1FEE0FFF1FEE0FFF1F880F991F28
:10083000E80FF91FEF53FD4F16821582C901F90128
:10084000EE0FFF1FEE0FFF1FEE0FFF1F880F991F08
:10085000E80FF91FEF53FD4F108617822F5F3F4FB0
:100860002031310509F09CCF81E08093C1021F91B6
:100870000F91FF90EF90DF90CF90BF90AF909F903F
:100880008F907F906F905F904F903F902F90089542
:100890001092C50085E18093C400E1ECF0E0808116
:1008A00088698083089580E480937C0083E8809346
:1008B0007A0080917A00806480937A0080917A0037
:1008C00086FDFCCF80917800909179000895982F53
:1008D0008091C00085FFFCCF9093C6000895E0EBA7
:1008E000F0E08081826080838DE48093B300E0E754
:1008F000F0E08081826080831092B200E1EBF0E052
:100900008081856080830895FF920F931F93611506
:10091000710509F45DC077FD5FC042B1A82FB0E05A
:100920009D01220F331F2F5F3F4F81E090E002C0F7
:10093000880F991F2A95E2F78095842382B977FD65
:100940005EC0161617060CF043C0CD01880F991F24
:1009500021E030E002C0220F331F8A95E2F7122F08
:10096000022F009520E030E0CD01880F991F880FFD
:10097000991F5DE0F52EFC01EE0FFF1FEE0FFF1F2C
:10098000EE0FFF1FE80FF91FEA1BFB0BE452FC4FB1
:10099000A8E8B3E182B1812B82B98F2D8A95F1F756
:1009A00082B1802382B980819181892B61F040E0FE
:1009B00050E0CD010197F1F74F5F5F4F808191814A
:1009C00048175907B0F32F5F3F4F2617370714F327
:1009D0001F910F91FF90089542B1A82FB0E09D01A3
:1009E000220F331F2F5F3F4F81E090E002C0880F3E
:1009F000991F2A95E2F7482B42B977FFA2CF70954D
:100A000061957F4F9ECF90E09C01220F331F220FF4
:100A1000331FF901EE0FFF1FEE0FFF1FEE0FFF1F39
:100A2000E20FF31FE81BF90BE254FC4F8081918128
:100A3000860F971F9383828382819381958384831A
:100A4000089590917C008F71907E892B80937C001B
:100A500010929A031092990380919B03882311F1BD
:100A600060E080917A00806480937A0080917A00BF
:100A700086FDFCCF80917800209179004091990308
:100A800050919A03322F20E090E0822B932B840F19
:100A9000951F90939A03809399036F5F80919B03B6
:100AA0006817F8F28091990390919A0360919B03E3
:100AB00070E00E94E535CB010895382F662361F47C
:100AC00024B181E090E002C0880F991F3A95E2F7C7
:100AD0008095822384B9089524B181E090E002C01A
:100AE000880F991F3A95E2F7282B24B90895382FDB
:100AF000662359F025B181E090E002C0880F991F6C
:100B00003A95E2F7282B25B9089525B181E090E0C8
:100B100002C0880F991F3A95E2F78095822385B924
:100B2000089593B121E030E002C0220F331F8A956F
:100B3000E2F7892F8223089583E061E00E94770520
:100B40008AEF90E00197F1F783E060E00E9477057B
:100B50000895EF92FF920F931F93CF93DF93E82EA8
:100B6000FF2403E913E0C0E0D0E0F801808161E0F8
:100B70000E945D05B7010C2E02C0759567950A9419
:100B8000E2F76170F80181918F010E94770521964B
:100B9000C430D10551F78AEF90E00197F1F70E9438
:100BA0009C05DF91CF911F910F91FF90EF900895D9
:100BB0001F93182F81E00E94770582E061E00E9478
:100BC0005D0582E060E00E947705812F82958F703D
:100BD0000E94A905812F0E94A9051F9108950F93D6
:100BE0001F9387E060E00E945D0581E060E00E9465
:100BF000770582E061E00E94770502E483E060E02F
:100C00000E94770583E061E00E947705802F8A9536
:100C1000F1F713B183E060E00E9477050E949C0524
:100C200017FDECCF87E061E00E945D0582E060E0A7
:100C30000E9477051F910F91089561E00E94D805E9
:100C40000E94EF05089560E00E94D8050E94EF051C
:100C5000089596E0899FC0011124680F70E0E3E6D3
:100C6000F3E0DF01A60FB71F4C936D5F7F4FE60FD8
:100C7000F71F40830895479A8AEF90E00197F1F7B4
:100C800047988AEC98E00197F1F7469A82E48A95B2
:100C9000F1F780E090E032E4232F2A95F1F7479AAC
:100CA000232F2A95F1F74798019621E0843F920778
:100CB00099F708952F923F924F925F926F927F9291
:100CC0008F929F92AF92BF92CF92DF92EF92FF925C
:100CD0000F931F93AB0190E09C01220F331F220F53
:100CE000331FF901EE0FFF1FEE0FFF1FEE0FFF1F67
:100CF000E20FF31FE81BF90BE254FC4FE584F68486
:100D000007851089A588B688C788D08C61887288C5
:100D100083889488662757FD6095762FCB01BA01AA
:100D20000E945B341B012C01C801B701A60195018B
:100D30000E946235A40193010E9462359B01AC01BF
:100D400060E070E084EB93E40E94C0339B01AC014F
:100D5000C201B1010E9462351F910F91FF90EF9087
:100D6000DF90CF90BF90AF909F908F907F906F90CB
:100D70005F904F903F902F9008952F923F924F9207
:100D80005F926F927F928F929F92AF92BF92CF921B
:100D9000DF92EF92FF920F931F93AB0190E09C01C3
:100DA000220F331F220F331FF901EE0FFF1FEE0F2B
:100DB000FF1FEE0FFF1FE20FF31FE81BF90BE254BA
:100DC000FC4FE584F68407851089A588B688C78816
:100DD000D08C6188728883889488662757FD6095D7
:100DE000762FCB01BA010E945B341B012C01C80194
:100DF000B701A60195010E946235A40193010E94EA
:100E000062359B01AC0160E070E080E090E40E94FC
:100E1000C0339B01AC01C201B1010E9462351F9138
:100E20000F91FF90EF90DF90CF90BF90AF909F9089
:100E30008F907F906F905F904F903F902F9008958C
:100E4000F8946130F1F0613008F03BC0282F30E0B9
:100E5000C901880F991F880F991FFC01EE0FFF1F12
:100E6000EE0FFF1FEE0FFF1FE80FF91FE21BF30B42
:100E7000E254FC4F1486808191819383828378941D
:100E80000895282F30E0C901880F991F880F991FF6
:100E9000FC01EE0FFF1FEE0FFF1FEE0FFF1FE80F0D
:100EA000F91FE21BF30BE254FC4F648780819181B0
:100EB0009383828382819381019693838283789442
:100EC00008956230E1F6282F30E0C901880F991F9C
:100ED000880F991FFC01EE0FFF1FEE0FFF1FEE0F93
:100EE000FF1FE80FF91FE21BF30BE254FC4F64876E
:100EF00080819181938382838281938101979383FF
:100F00008283BDCF81E18093B800E9EBF0E080817E
:100F10008C7F808384E08093BC00089584EA809372
:100F2000BC008091BC0087FFFCCF089584E98093CA
:100F3000BC0008958093BB0084E88093BC0080913E
:100F4000BC0087FFFCCF089584EC8093BC008091A7
:100F5000BC0087FFFCCF8091BB00089584E880939C
:100F6000BC008091BC0087FFFCCF8091BB0008953E
:100F70008091B900887F0895982F84EA8093BC00FF
:100F80008091BC0087FFFCCF8091B9009093BB009B
:100F900084E88093BC008091BC0087FFFCCF8091E7
:100FA000B900442391F0FB0194E880818093BB0059
:100FB0009093BC008091BC0087FFFCCF8091B9006A
:100FC00031968E2F861B841780F384E98093BC00B2
:100FD0000895982FDB0184EA8093BC008091BC00C7
:100FE00087FFFCCF8091B90091609093BB0084E8AB
:100FF0008093BC008091BC0087FFFCCF8091B9003A
:1010000050E04150504014161506A4F4FD0124ECA4
:101010002093BC008091BC0087FFFCCF8091BB0077
:1010200081938091B9008E2F8A1B90E084179507D9
:101030007CF3DF0184E88093BC008091BC0087FFD3
:10104000FCCF8091BB008C938091B90084E98093A0
:10105000BC000895813061F0813030F0823051F071
:10106000833021F080E0089582E4089588E40895B3
:1010700084E4089586E40895813061F0813030F091
:10108000823051F0833021F080E0089582E10895AC
:101090008CE9089584E108958AE908950F931F93D8
:1010A000182FF894E091BB03F091BC038AE0808391
:1010B000E091BB03F091BC0380E281836091BB03AC
:1010C0007091BC03812F42E00E94BC07E091BB03FA
:1010D000F091BC031082E091BB03F091BC0311823C
:1010E0006091BB037091BC03812F42E00E94BC075A
:1010F000E091BB03F091BC0381E08083E091BB03EE
:10110000F091BC038FEF81836091BB037091BC03AE
:10111000812F42E00E94BC07E091BB03F091BC0329
:1011200085E08083E091BB03F091BC038DE1818376
:101130006091BB037091BC03812F42E00E94BC0709
:10114000E091BB03F091BC0387E08083E091BB0397
:10115000F091BC0303E001836091BB037091BC0379
:10116000812F42E00E94BC07E091BB03F091BC03D9
:1011700089E08083E091BB03F091BC03018360911F
:10118000BB037091BC03812F42E00E94BC07E09139
:10119000BB03F091BC0382E18083E091BB03F0913B
:1011A000BC0388E781836091BB037091BC03812FEE
:1011B00042E00E94BC0778941F910F910895F89423
:1011C000E091BB03F091BC036083E091BB03F0911D
:1011D000BC0341836091BB037091BC0342E00E9459
:1011E000BC0778940895982FF89484EA8093BC0003
:1011F0008091BC0087FFFCCF8091B9009093BB0029
:1012000084E88093BC008091BC0087FFFCCF809174
:10121000B9006093BB0084E88093BC008091BC005F
:1012200087FFFCCF8091B90084EA8093BC00809155
:10123000BC0087FFFCCF8091B90091609093BB0008
:1012400084E88093BC008091BC0087FFFCCF809134
:10125000B90084E88093BC008091BC0087FFFCCF7C
:101260008091BB009091B90094E99093BC00789470
:101270000895282F22952F708295807F282B30E0AB
:10128000C90183739070880F991F880F991F2C7C58
:1012900030703595279535952795822B282F30E08E
:1012A000C90185759070880F991F2A7A307035951D
:1012B0002795822B0895EF92FF920F931F93E82EAC
:1012C000F62E85E0861710F415E0F12E8E2D0E9483
:1012D0002A08082F62E10E94F308182F8F2D0E9420
:1012E0003909187F829586958770182B802F62E1C7
:1012F000412F0E94DF080E2D10E061E070E002C077
:10130000660F771FFA94E2F7882777FD8095982F6C
:101310000E945B34F801EE0FFF1FEE0FFF1F9F01CD
:10132000220F331F220F331F220F331FE20FF31F31
:10133000E01BF10BE254FC4F658B768B878B908F13
:101340001F910F91FF90EF90089580E00895FF9214
:101350000F931F93082FF62E0E942A08182F62E180
:101360000E94F308FF20F9F4482F4860812F62E1C2
:101370000E94DF08802F90E0FC01EE0FFF1FEE0FB0
:10138000FF1F9F01220F331F220F331F220F331F16
:10139000E20FF31FE81BF90BE254FC4FF3861F9199
:1013A0000F91FF900895482F477FE0CF80E060E0E5
:1013B0000E94A70981E060E00E94A70982E060E046
:1013C0000E94A70983E060E00E94A70915BC109263
:1013D000B10008950F931F93162F0E942A08082F1B
:1013E00062E10E94F308112349F4482F4061802FE5
:1013F00062E10E94DF081F910F910895482F4F7EF0
:10140000802F62E10E94DF081F910F9108950F93D2
:101410001F930E942A08082F62E10E94F308182FE8
:101420001F7B802F62E1412F0E94DF081064802F14
:1014300062E1412F0E94DF081F910F9108951F93D1
:101440000E942A08182F62E10E94F308482F4F7D5E
:10145000812F62E10E94DF081F9108951F930E946F
:101460002A08182F62E10E94F308482F4062812F5A
:1014700062E10E94DF0880E197E20197F1F71F9196
:1014800008950E943C08E091BB03F091BC031082D8
:10149000E091BB03F091BC0311826091BB0370919A
:1014A000BC0342E00E94BC0708950E943C08609182
:1014B000BB037091BC0342E00E94E907E091BB03CB
:1014C000F091BC03A091BB03B091BC03708160E0BC
:1014D00011962C9130E0622B732B729562956F7090
:1014E00067277F70672770E080E090E00E945934A2
:1014F00026E636E64AE952E40E94C033089588B1F0
:10150000886388B980E465E042E20E94DF0880E4F5
:1015100060E04FEF0E94DF0880E461E04FEF0E943F
:10152000DF0880E462E048EF0E94DF0880E463E0C7
:1015300043E00E94DF0880E464E048EF0E94DF0897
:1015400080E466E04FEF0E94DF0880E469E00E94DB
:10155000F308E9E6F0E0808183608083E89A84B54F
:10156000826084BD88E287BDEEE6F0E08081826023
:10157000808316BC85B5856085BD08958091AC02D9
:101580008823A1F09091AA0280919F03882361F49F
:1015900097FD10C096FD0CC095FD0EC094FD0EC0C9
:1015A00093FF04C083E0089588E008958AE20895D7
:1015B00086E0089587E0089585E0089584E0089521
:1015C000F89480919E03882321F080919D031092CE
:1015D0009D037894089508951F920F920FB60F926D
:1015E0000BB60F9211248F939F93EF93FF939091DB
:1015F000C6008091BE028823E1F49D3009F19A3043
:1016000021F08091BF02803430F1E091BC02F09172
:10161000BD028091BF02E80FF11D108281E080932E
:10162000BE028091C00085FFFCCF86E08093C6009B
:1016300007C08091C00085FFFCCF85E18093C60084
:10164000FF91EF919F918F910F900BBE0F900FBE66
:101650000F901F901895E091BC02F091BD0280910F
:10166000BF02E80FF11D90838091BF028F5F8093CE
:10167000BF02E6CF1F920F920FB60F920BB60F92DA
:1016800011248F93EF93FF9386B1809583FF3AC027
:101690008091A003882309F440C0E091A602F09154
:1016A000A702EE0FFF1FEE0FFF1FEF70F070F09319
:1016B000A702E093A602359B05C0E260F093A70263
:1016C000E093A602349B05C0E160F093A702E0938B
:1016D000A602EE0FFF1FE853FF4FE491EE2341F007
:1016E00080919D03E80FE0939D0381E080939E032A
:1016F000FF91EF918F910F900BBE0F900FBE0F9047
:101700001F9018958091A003813039F680939F0334
:101710001092A0038093AC02C0CF81E08093A0031D
:10172000BCCF1F920F920FB60F920BB60F921124DF
:101730002F933F934F935F936F937F938F939F93D9
:10174000AF93BF93EF93FF9384EF91E00197F1F78D
:1017500080E468E00E94F308982F8091AC0288230F
:1017600029F49093AA0281E08093AC02FF91EF915B
:10177000BF91AF919F918F917F916F915F914F91A9
:101780003F912F910F900BBE0F900FBE0F901F90A7
:1017900018957F928F929F92AF92BF92CF92DF92D5
:1017A000EF92FF920F931F93CF93DF93F894CC2483
:1017B000DD2488249924AA24BB24772473947601F9
:1017C000EE0CFF1CEE0CFF1C8701000F111F000F19
:1017D000111F000F111F0E0D1F1D0C191D09B40143
:1017E0006D5C7F4FC8018E539C4F42E050E00E94D9
:1017F0005E3AB501655C7F4FC80185539C4F44E05C
:1018000050E00E945E3AB501655B7F4FC80181538D
:101810009C4F44E050E00E945E3AB501655A7F4F0C
:10182000C8018D529C4F44E050E00E945E3AB501E1
:1018300065597F4FC80188529C4F44E050E00E9498
:101840005E3AB60165587F4FC80189529C4F41E00E
:1018500050E00E945E3AB40161587F4FC801845243
:101860009C4F42E050E00E945E3AEC0CFD1CE70108
:10187000CF55DC4FB40169577F4FCE0142E050E0B5
:101880000E945E3AB40161577F4FC7018D559C4F4E
:1018900042E050E00E945E3A288139818A819B8132
:1018A0002817390709F07C820894C11CD11C82E0FA
:1018B00090E0880E991E84E090E0A80EB91E94E096
:1018C000C916D10409F07BCFC0E0D0E0BE01695653
:1018D0007F4FCE018F539D4F4AE050E00E945E3A09
:1018E0002A96C03AD10591F77894DF91CF911F9154
:1018F0000F91FF90EF90DF90CF90BF90AF909F90AF
:101900008F907F900895AF92BF92CF92DF92EF9227
:10191000FF920F931F93CF93DF93F894C0E0D0E032
:10192000AA24BB24CC24DD247E01EE0CFF1CEE0C8B
:10193000FF1C8701000F111F000F111F000F111F47
:101940000E0D1F1D0C1B1D0BB5016D5C7F4FC801DB
:101950008E539C4F42E050E00E946E3AB601655CA7
:101960007F4FC80185539C4F44E050E00E946E3A7F
:10197000B601655B7F4FC80181539C4F44E050E046
:101980000E946E3AB601655A7F4FC8018D529C4F36
:1019900044E050E00E946E3AB60165597F4FC8019D
:1019A00088529C4F44E050E00E946E3ABE01655858
:1019B0007F4FC80189529C4F41E050E00E946E3A2F
:1019C000B50161587F4FC80184529C4F42E050E0FE
:1019D0000E946E3AEC0EFD1EB50169577F4FC7019C
:1019E0008F559C4F42E050E00E946E3AB50161571E
:1019F0007F4FC7018D559C4F42E050E00E946E3AE8
:101A0000219682E090E0A80EB91E84E090E0C80E16
:101A1000D91EC430D10509F087CFC0E0D0E0BE01A7
:101A200069567F4FCE018F539D4F4AE050E00E9490
:101A30006E3A2A96C03AD10591F77894DF91CF910A
:101A40001F910F91FF90EF90DF90CF90BF90AF90DC
:101A50000895F8940E94EE020E94830C78940895F1
:101A60001F920F920FB60F920BB60F9211242F9266
:101A70003F924F925F926F927F928F929F92AF921E
:101A8000BF92CF92DF92EF92FF920F931F932F930B
:101A90003F934F935F936F937F938F939F93AF93F6
:101AA000BF93EF93FF93DF93CF93CDB7DEB76C97E0
:101AB000DEBFCDBFCE0109969A8F898F1C011C8E87
:101AC0001B8E88249924442455243401660C771CE9
:101AD000660C771C6301CC0CDD1CCC0CDD1CCC0C23
:101AE000DD1CC60CD71CC818D908AEEBB3E0CA0E73
:101AF000DB1EF601A280B38080819181A81AB90A09
:101B0000E1E0F0E0EC0FFD1FE40DF51DB182A082D5
:101B1000D6011D966D917D918D919C915097519616
:101B20002D913D914D915C9154975596ED90FD907E
:101B30000D911C9158970E946235A80197010E944F
:101B40006235F1016083718382839383A114B104B0
:101B500009F455C0D60190968D919C919197892B4F
:101B600009F413C190968D919C919197019791964C
:101B70009C938E93909716966D917D918D919C91EB
:101B8000199720E030E040E85FE30E945E351816C8
:101B9000BCF4F601828193810196938382836681EE
:101BA00077818085918520E030E040E85FE30E9406
:101BB0005733D60116966D937D938D939C93199709
:101BC0006301CC0CDD1CCC0CDD1CCC0CDD1CC60C6C
:101BD000D71CC818D908EEEBF3E0CE0EDF1ED601F5
:101BE00016966D917D918D919C91199720E030E032
:101BF00040E85FEB0E94BC3388230CF442C1089498
:101C0000811C911CE2E0F0E04E0E5F1E84E090E04B
:101C1000280E391E94E08916910409F056CF82B13E
:101C2000AC8DA82BA2B996E0892F8A95F1F782B1E5
:101C3000BB8D8B2B82B98DE08A95F1F782B1B0957F
:101C4000B823B2B99A95F1F712B82E010894411C45
:101C5000511CAA24BB247501EE0CFF1CEE0CFF1CCA
:101C60006701CC0CDD1CCC0CDD1CCC0CDD1CCE0CBF
:101C7000DF1CCA18DB08EEEBF3E0CE0EDF1ED60148
:101C80001A968C911A97882309F446C0F201808134
:101C90009181181619060CF0A6C06D917C91A98D42
:101CA000BA8D6D907D908D909C906F5F7F4F88274F
:101CB00077FD8095982F0E945B34A40193010E94C8
:101CC0005E3518160CF4CAC0F701EE0FFF1FEE0FB9
:101CD000FF1FEE0FFF1FEE0DFF1DEA19FB09E25477
:101CE000FC4F808191810196918380838485882334
:101CF00029F082819381019693838283F701EE0F0D
:101D0000FF1FEE0FFF1FEE0FFF1FEE0DFF1DEA1965
:101D1000FB09E254FC4F12860894A11CB11C898D6A
:101D20009A8D04969A8F898FA2E0B0E04A0E5B1ECE
:101D3000B4E0AB16B10409F08ECF6C96DEBFCDBF18
:101D4000CF91DF91FF91EF91BF91AF919F918F91D3
:101D50007F916F915F914F913F912F911F910F91C3
:101D6000FF90EF90DF90CF90BF90AF909F908F90BB
:101D70007F906F905F904F903F902F900F900BBE91
:101D80000F900FBE0F901F90189521E0F60122874B
:101D9000B7FC8FC0F301E80DF91DEF55FC4F8481AE
:101DA000882309F046C081E090E0042C02C0880F2F
:101DB000991F0A94E2F7BB8DB82BBB8FF301EE0F8E
:101DC000FF1FEE0FFF1FEE0FFF1FE60DF71DE819B7
:101DD000F909E254FC4F868D978D880F991F019762
:101DE00091A380A30CCF892B09F488CFF6018081C1
:101DF0009181181619060CF095C0F701EE0FFF1F20
:101E0000EE0FFF1FEE0FFF1FEE0DFF1DEA19FB097E
:101E1000E254FC4F80819181019791838083848576
:101E2000882309F46BCF8281938101979383828306
:101E300065CFD6018D919C911197208131810196BA
:101E40008217930709F0AFCF8D919C91119713964C
:101E50009C938E9312971A961C92A5CFF60111822D
:101E6000108202811381C401B3010E94C5350E9412
:101E70002834061B170BD60113961C930E9312974A
:101E800023CFF601828193810197938382836681B8
:101E900077818085918520E030E040E85FE30E9413
:101EA0005833D60116966D937D938D939C93199715
:101EB000A6CEF301E80DF91DEF55FC4F8481882370
:101EC00051F0D6018D919C91119722813381019619
:101ED00082179307E9F00894411C511C81E090E0BF
:101EE000042C02C0880F991F0A94E2F70894410855
:101EF0005108BC8DB82BBC8F81E090E0042C02C04F
:101F0000880F991F0A94E2F7EB8DE82BEB8F56CFE1
:101F10008D919C91119713969C938E9312971A967C
:101F20001C92D9CFA98DBA8D6D917D918D919C9187
:101F30000E94C5350E9428349B01F601718360839D
:101F400082819381280F391F3383228356CF4F928A
:101F50005F926F927F928F929F92AF92BF92CF9239
:101F6000DF92EF92FF920F931F93DF93CF9300D0F6
:101F700000D0CDB7DEB7E82ECB01BA01A901980198
:101F80000E94623569837A838B839C83FF24C70117
:101F9000880F991F880F991F8C01000F111F000FC8
:101FA000111F000F111F080F191F0E191F090254CE
:101FB0001C4FF8016189728983899489258536854A
:101FC00047855089C588D688E788F08C0E9462359D
:101FD000A70196010E94623520E030E040E05FE317
:101FE0000E9462359B01AC0169817A818B819C8161
:101FF0000E9462350E94C5354B015C01F801E28008
:10200000F3800E9428346E0D7F1DF8017383628374
:10201000468057806084718461897289838994893C
:102020002585368547855089C588D688E788F08C10
:102030000E946235A70196010E94623520E030E0DF
:1020400040E05FE30E9462359B01AC0169817A81C7
:102050008B819C810E946235A50194010E945733B7
:102060009B01AC01C301B2010E945833F8016683A1
:102070007783808791870F900F900F900F90CF916B
:10208000DF911F910F91FF90EF90DF90CF90BF9065
:10209000AF909F908F907F906F905F904F9008953A
:1020A0004F925F926F927F928F929F92AF92BF9268
:1020B000CF92DF92EF92FF920F931F93DF93CF9314
:1020C00000D000D0CDB7DEB7E82ECB01BA01A90110
:1020D00098010E94623569837A838B839C83FF24F5
:1020E000C701880F991F880F991F8C01000F111FBE
:1020F000000F111F000F111F080F191F0E191F09C4
:1021000002541C4FF801618972898389948925855D
:10211000368547855089C588D688E788F08C0E9427
:102120006235A70196010E94623520E030E044EB61
:1021300053E40E94C0339B01AC0169817A818B8199
:102140009C810E9462350E94C5354B015C01F801FB
:10215000E280F3800E9428346E0D7F1DF8017383A6
:102160006283468057806084718461897289838923
:1021700094892585368547855089C588D688E7881E
:10218000F08C0E946235A70196010E94623520E022
:1021900030E044EB53E40E94C0339B01AC01698101
:1021A0007A818B819C810E946235A50194010E94F5
:1021B00057339B01AC01C301B2010E945833F801AF
:1021C00066837783808791870F900F900F900F9091
:1021D000CF91DF911F910F91FF90EF90DF90CF9003
:1021E000BF90AF909F908F907F906F905F904F9037
:1021F00008954F925F926F927F928F929F92BF92BB
:10220000CF92DF92EF92FF920F931F93CF93DF93C2
:10221000B82E682E77244301880C991C880C991CD1
:10222000F401E60DF71DEF55FC4F8481882309F07A
:10223000B2C08091B100887F8093B1008401000F0B
:10224000111F000F111F000F111F080D191D061976
:10225000170902541C4FF801468C578C618972890A
:10226000838994892585368547855089C588D68890
:10227000E788F08C0E946235A70196010E946235C2
:102280006B017C0181E090E0F801978F868F05C09B
:102290008B2D68E37FEF0E9484048B2D0E94210523
:1022A000C297B0F3C701B6010E94C5350E942D3414
:1022B0008B01C0E0D0E00BC08B2D61E070E00E948C
:1022C00084048B2D0E942105C29720F02196C0170F
:1022D000D10790F3C701B60120E030E040E85EE3AB
:1022E0000E9462350E94C5350E9428349B01AC01D2
:1022F0008B2DB9010E948404C701B60120E030E0B3
:1023000040E45FE30E9462350E94C5350E94283494
:102310009B01AC01285C30408B2DB9010E948404E4
:10232000F401EE0FFF1FEE0FFF1FEE0FFF1FE80D72
:10233000F91DE619F709E254FC4F85E090E0978F0C
:10234000868F05C08B2D61E070E00E9484048B2D88
:102350000E942105C397B0F78401000F111F000FE1
:10236000111F000F111F080D191D0619170902541E
:102370001C4FF801578E468E648175818B2D0E940B
:102380008404F8011182108213821282C3010E9418
:10239000070A0E946F04DF91CF911F910F91FF9068
:1023A000EF90DF90CF90BF909F908F907F906F9035
:1023B0005F904F90089560E070E04AE050E00E9426
:1023C00011376430E0F54091B5035091B603262FE4
:1023D00030E0F901EE0FFF1FEE0FFF1FCF01880F56
:1023E000991F880F991F880F991FE80FF91FE21B8B
:1023F000F30BE254FC4F268D378D00D000D000D077
:10240000EDB7FEB73196ADB7BEB712965C934E935B
:10241000119787E191E093838283358324830E941F
:10242000CF398DB79EB706960FB6F8949EBF0FBEF4
:102430008DBF2091B5033091B603C90108958091F5
:10244000B5039091B60300D000D000D0EDB7FEB731
:102450003196ADB7BEB712969C938E93119780E0DC
:1024600091E093838283648315820E94CF398DB774
:102470009EB706960FB6F8949EBF0FBE8DBF2091F3
:10248000B5033091B603C901089560E070E04AE0F9
:1024900050E00E941137262F643008F042C060914E
:1024A000B5037091B60330E0F901EE0FFF1FEE0F98
:1024B000FF1FCF01880F991F880F991F880F991F41
:1024C000E80FF91FE21BF30BE254FC4F2589368914
:1024D0004789508DADB7BEB718970FB6F894BEBFF9
:1024E0000FBEADBFEDB7FEB7319612967C936E93DB
:1024F00011978AE191E09383828324833583468315
:1025000057830E94CF398DB79EB708960FB6F894BF
:102510009EBF0FBE8DBF2091B5033091B603C90198
:1025200008958091B5039091B60300D000D000D0FB
:10253000EDB7FEB73196ADB7BEB712969C938E93AA
:10254000119780E091E093838283248315820E9417
:10255000CF398DB79EB706960FB6F8949EBF0FBEC3
:102560008DBF2091B5033091B603C901089560E095
:1025700070E04AE050E00E941137262F643008F0E6
:1025800042C06091B5037091B60330E0F901EE0FDF
:10259000FF1FEE0FFF1FCF01880F991F880F991F94
:1025A000880F991FE80FF91FE21BF30BE254FC4F51
:1025B0002189328943895489ADB7BEB718970FB6C0
:1025C000F894BEBF0FBEADBFEDB7FEB73196129601
:1025D0007C936E9311978AE191E0938382832483A5
:1025E0003583468357830E94CF398DB79EB70896AF
:1025F0000FB6F8949EBF0FBE8DBF2091B5033091EA
:10260000B603C90108958091B5039091B60300D037
:1026100000D000D0EDB7FEB73196ADB7BEB7129679
:102620009C938E93119780E091E09383828324831F
:1026300015820E94CF398DB79EB706960FB6F894D3
:102640009EBF0FBE8DBF2091B5033091B603C90167
:10265000089560E070E04AE050E00E941137262FB4
:10266000643008F042C06091B5037091B60330E069
:10267000F901EE0FFF1FEE0FFF1FCF01880F991F0B
:10268000880F991F880F991FE80FF91FE21BF30BA2
:10269000E254FC4F2585368547855089ADB7BEB7D6
:1026A00018970FB6F894BEBF0FBEADBFEDB7FEB71B
:1026B000319612967C936E9311978FE191E09383FC
:1026C000828324833583468357830E94CF398DB715
:1026D0009EB708960FB6F8949EBF0FBE8DBF20918F
:1026E000B5033091B603C90108958091B503909167
:1026F000B60300D000D000D0EDB7FEB73196ADB72D
:10270000BEB712969C938E93119780E091E09383CD
:102710008283248315820E94CF398DB79EB7069697
:102720000FB6F8949EBF0FBE8DBF2091B5033091B8
:10273000B603C901089560E070E04AE050E00E94ED
:1027400011376430E0F54091B5035091B603262F60
:1027500030E0F901EE0FFF1FEE0FFF1FCF01880FD2
:10276000991F880F991F880F991FE80FF91FE21B07
:10277000F30BE254FC4F2481358100D000D000D00F
:10278000EDB7FEB73196ADB7BEB712965C934E93D8
:10279000119787E191E093838283358324830E949C
:1027A000CF398DB79EB706960FB6F8949EBF0FBE71
:1027B0008DBF2091B5033091B603C9010895809172
:1027C000B5039091B60300D000D000D0EDB7FEB7AE
:1027D0003196ADB7BEB712969C938E93119780E059
:1027E00091E093838283648315820E94CF398DB7F1
:1027F0009EB706960FB6F8949EBF0FBE8DBF209170
:10280000B5033091B603C901089560E070E04AE075
:1028100050E00E941137643048F5862F0E94210550
:102820002091B5033091B60300D000D000D0EDB7B1
:10283000FEB73196ADB7BEB712963C932E93119763
:1028400027E131E033832283958384830E94CF394B
:102850008DB79EB706960FB6F8949EBF0FBE8DBF7C
:102860002091B5033091B603C90108958091B50355
:102870009091B60300D000D000D0EDB7FEB73196EE
:10288000ADB7BEB712969C938E93119780E091E0FE
:1028900093838283648315820E94CF398DB79EB75C
:1028A00006960FB6F8949EBF0FBE8DBF2091B5035C
:1028B0003091B603C90108950F93DF93CF9300D0F1
:1028C000CDB7DEB77A83698360E070E04AE050E01C
:1028D0000E941137062F89819A8160E070E04AE0FA
:1028E00050E00E941137043030F4662351F4802FF9
:1028F00060E00E94A7090F900F90CF91DF910F9198
:102900000895802F61E00E94A7090F900F90CF914A
:10291000DF910F91089560E070E04AE050E00E947E
:1029200011376430B8F5262F30E0C901880F991FA0
:10293000880F991FFC01EE0FFF1FEE0FFF1FEE0F18
:10294000FF1FE80FF91FE21BF30BE254FC4F22813B
:102950003381808191812817390771F0E091B503A7
:10296000F091B60381E390E0918380832091B503D9
:102970003091B603C9010895E091B503F091B60313
:1029800080E390E0918380832091B5033091B6037A
:10299000C90108958091B5039091B60300D000D08D
:1029A00000D0EDB7FEB73196ADB7BEB712969C9387
:1029B0008E93119780E091E09383828364831582E4
:1029C0000E94CF398DB79EB706960FB6F8949EBF7A
:1029D0000FBE8DBF2091B5033091B603C901089594
:1029E0002F923F924F925F926F927F928F929F921F
:1029F000AF92BF92DF92EF92FF920F931F93CF930C
:102A0000DF9390E0880F991F8B5B9B4FFC01259112
:102A100034912E5F3F4FF9018491853009F4D6C37C
:102A2000863008F452C0883009F4A5C1893008F016
:102A3000B3C0863009F4D6C2873009F496C220E0CC
:102A400030E090E2A091B602B091B702A20FB31F9E
:102A5000EC911196FC91DF010D900020E9F71197A0
:102A6000AE1BBF0BA83080F48A2FE091B602F09124
:102A7000B702E20FF31F0190F081E02DE80FF11D86
:102A800090838F5F883088F3E091B602F091B702AF
:102A9000E20FF31F0190F081E02D10862E5F3F4F73
:102AA0002830310579F6DF91CF911F910F91FF907A
:102AB000EF90DF90BF90AF909F908F907F906F903E
:102AC0005F904F903F902F900895823009F4E8C2B4
:102AD000833008F4C2C0833009F48AC1843009F01D
:102AE000AECFC0E0D0E00BE711E08091B30290E000
:102AF0000C2E02C0959587950A94E2F780FD38C1A7
:102B000060E270E0A091B602B091B702FE01EE0F54
:102B1000FF1FEE0FFF1FCF01880F991F880F991F0E
:102B2000880F991FE80FF91FEC1BFD0BE254FC4FB7
:102B3000228D338D448D558D8DB79EB70A970FB674
:102B4000F8949EBF0FBE8DBFEDB7FEB73196CE0194
:102B5000880F991FA80FB91F8D919C91ADB7BEB773
:102B600012969C938E9311971383028375836483CB
:102B700026833783408751870E94CF392196EDB74E
:102B8000FEB73A960FB6F894FEBF0FBEEDBFC43045
:102B9000D10509F0AACF53CF8A3009F4E8C38A30AF
:102BA00008F486C38B3009F04ACFE091B602F09169
:102BB000B70220813181C901DC01E4EEF1E089E056
:102BC00001900D928150E1F7E091B602F091B702C9
:102BD00022813381C901DC01EDEEF1E089E0019051
:102BE0000D928150E1F7E091B602F091B702209189
:102BF000B10200D000D000D0ADB7BEB7119684812D
:102C00009581EDB7FEB79283818386EF91E01396AD
:102C10009C938E931297332727FD309515963C93FE
:102C20002E9314970E94CF39E091B602F091B7022B
:102C300026813781C901DC01EBE2F1E089E00190F6
:102C40000D928150E1F72DB73EB72A5F3F4F0FB687
:102C5000F8943EBF0FBE2DBFF2CE882309F408C4FE
:102C6000813009F0ECCEC0E0D0E0EE24FF24E9E4AE
:102C7000AE2EE1E0BE2E7FED872E912C62E5662E12
:102C800061E0762E57EF452E512C42E4242E41E090
:102C9000342E2C2F8091B30290E00C2E02C095951B
:102CA00087950A94E2F780FD5BC030E2D32ECE0117
:102CB000880F991F880F991FDC01AA0FBB1FAA0F4D
:102CC000BB1FAA0FBB1FA80FB91FAC1BBD0BA25483
:102CD000BC4F59968C915997813009F415C18230B7
:102CE00009F4DEC0882391F5E091B602F091B702B5
:102CF0002D913C918DB79EB708970FB6F8949EBF63
:102D00000FBE8DBFADB7BEB71196EE0DFF1D808112
:102D10009181EDB7FEB79283818313963C922E92F8
:102D200012971496DC92149715961C921597179685
:102D30003C932E9316970E94CF392DB73EB7285F4C
:102D40003F4F0FB6F8943EBF0FBE2DBF219622E035
:102D500030E0E20EF31EC430D10509F09ACF6FCEF9
:102D60008091B002882309F4C0C39EE3D92E9FCF7F
:102D70006EE770E0C7CEE091B602F091B702208115
:102D80003181C901DC01E0ECF1E089E001900D92B4
:102D90008150E1F7E091B602F091B70222813381D0
:102DA000C901DC01E9ECF1E089E001900D9281506C
:102DB000E1F7E091B602F091B70224813581C901B3
:102DC000DC01EEEAF1E089E001900D928150E1F73B
:102DD000E091B602F091B70226813781C901DC018A
:102DE000E7EBF1E089E001900D928150E1F727CE09
:102DF000C0E0D0E003E711E08091B30290E00C2E38
:102E000002C0959587950A94E2F780FD46C040E29E
:102E100050E0A091B602B091B702FE01EE0FFF1F85
:102E2000EE0FFF1FCF01880F991F880F991F880F82
:102E3000991FE80FF91FEC1BFD0BE254FC4F268D88
:102E4000378DEDB7FEB738970FB6F894FEBF0FBEBB
:102E5000EDBF3196CE01880F991FA80FB91F8D9134
:102E60009C91ADB7BEB712969C938E931197138326
:102E7000028355834483378326830E94CF3921966A
:102E8000EDB7FEB738960FB6F894FEBF0FBEEDBF94
:102E9000C430D10509F0B0CFD2CD4EE750E0B9CF64
:102EA000E091B602F091B702EE0DFF1D0081118195
:102EB0006D917C91822F0E94BD062DB73EB72C509C
:102EC00030400FB6F8943EBF0FBE2DBFEDB7FEB732
:102ED0003196ADB7BEB712961C930E9311977382BD
:102EE0006282D48215826683778380879187538636
:102EF00042860E94CF39EDB7FEB73C960FB6F894E4
:102F0000FEBF0FBEEDBF22CFE091B602F091B70237
:102F1000EE0DFF1D008111816D917C91822F0E9429
:102F20005A06ADB7BEB71C970FB6F894BEBF0FBE1A
:102F3000ADBFEDB7FEB7319612961C930E93119765
:102F4000B382A282D4821582668377838087918739
:102F5000938682860E94CF39EDB7FEB73C960FB6B6
:102F6000F894FEBF0FBEEDBFF1CEE091B602F09136
:102F7000B70220813181C901DC01ECE9F1E089E08F
:102F800001900D928150E1F7E091B602F091B70205
:102F900022813381C901DC01E5EAF1E089E0019099
:102FA0000D928150E1F7E091B602F091B7022481D1
:102FB0003581C901DC01EEEAF1E089E001900D9272
:102FC0008150E1F7E091B602F091B7022681378196
:102FD000C901DC01E7EBF1E089E001900D9281503D
:102FE000E1F72DCDC0E0D0E005E911E08091B3021A
:102FF00090E00C2E02C0959587950A94E2F780FD2B
:103000004CC060E270E0A091B602B091B702FE0140
:10301000EE0FFF1FEE0FFF1FCF01880F991F880FC4
:10302000991F880F991FE80FF91FEC1BFD0BE25445
:10303000FC4F258936894789508D8DB79EB70A97F1
:103040000FB6F8949EBF0FBE8DBFEDB7FEB7319699
:10305000CE01880F991FA80FB91F8D919C91ADB714
:10306000BEB712969C938E93119713830283758338
:10307000648326833783408751870E94CF39219606
:10308000EDB7FEB73A960FB6F894FEBF0FBEEDBF90
:10309000C430D10509F0AACFD2CC6EE770E0B3CF2F
:1030A000C0E0D0E0EE24FF24ABE5AA2EA1E0BA2ECA
:1030B000F0E68F2EF1E09F2EE5E66E2EE1E07E2E0B
:1030C0007CE6472E71E0572E8091B30290E00C2EE3
:1030D00002C0959587950A94E2F780FD43C060E2AF
:1030E000D62E8E01000F111F000F111FF801EE0FD9
:1030F000FF1FEE0FFF1FEE0FFF1FE00FF11FEC1B76
:10310000FD0BE254FC4F818D882379F1F801EE0F1D
:10311000FF1FEE0FFF1FEE0FFF1FE00FF11FEC1B55
:10312000FD0BE254FC4F818D813009F408C2F80197
:10313000EE0FFF1FEE0FFF1FEE0FFF1FE00FF11F3F
:10314000EC1BFD0BE254FC4F818D823009F428C248
:10315000219682E090E0E80EF91EC430D10509F016
:10316000B3CF6DCC5EE7D52EBCCFE091B602F09127
:10317000B7028DB79EB708970FB6F8949EBF0FBEE3
:103180008DBFADB7BEB71196EE0DFF1D8081918149
:10319000EDB7FEB7928381831396BC92AE921297DD
:1031A0001496DC92149715961C92159717969C927C
:1031B0008E9216970E94CF392DB73EB7285F3F4FAA
:1031C0000FB6F8943EBF0FBE2DBFA0CFC0E0D0E039
:1031D00000E010E05CE8E52E51E0F52E8091B302AE
:1031E00090E00C2E02C0959587950A94E2F780FD39
:1031F0005DC020E2FE01EE0FFF1FEE0FFF1FEC0F80
:10320000FD1FEF55FC4F84818823C1F0E091B60289
:10321000F091B702E00FF11F20813181C901DC017B
:10322000E3E8F1E089E001900D928150E1F7219609
:103230000E5F1F4FC430D10589F601CCE091B60274
:10324000F091B7028DB79EB708970FB6F8949EBF5E
:103250000FBE8DBFADB7BEB71196E00FF11F8081D5
:103260009181EDB7FEB7928381831396FC92EE9223
:10327000129714962C93149715961C9215971796DF
:10328000DC93CE9316970E94CF392DB73EB7285FB7
:103290003F4F0FB6F8943EBF0FBE2DBF21960E5F75
:1032A0001F4FC430D10509F099CFC9CB2EE7A2CF6B
:1032B000C0E0D0E002E411E08091B30290E00C2E77
:1032C00002C0959587950A94E2F780FD48C040E2D8
:1032D00050E0A091B602B091B702FE01EE0FFF1FC1
:1032E000EE0FFF1FCF01880F991F880F991F880FBE
:1032F000991FE80FF91FEC1BFD0BE254FC4F2481D2
:1033000035818DB79EB708970FB6F8949EBF0FBE54
:103310008DBFEDB7FEB73196CE01880F991FA80F6C
:10332000B91F8D919C91ADB7BEB712969C938E93A9
:1033300011971383028355834483378326830E9426
:10334000CF392196EDB7FEB738960FB6F894FEBF89
:103350000FBEEDBFC430D10509F0AECF70CB809168
:10336000B002882309F481C04EE350E0B2CF00E000
:1033700010E0EE24FF24EEEDAE2EE1E0BE2E79ED5E
:10338000872E71E0972E62ED662E61E0762E809199
:10339000B30290E0002E02C0959587950A94E2F75B
:1033A00080FD4EC050E2D52EE801CC0FDD1FCC0FC2
:1033B000DD1FFE01E00FF11FEF55FC4F84818823D4
:1033C00009F041C0FE01EE0FFF1FEE0FFF1FEE0FD1
:1033D000FF1FEC0FFD1FE01BF10BE254FC4F82A11D
:1033E000882309F485C0FE01EE0FFF1FEE0FFF1FBB
:1033F000EE0FFF1FEC0FFD1FE01BF10BE254FC4F23
:1034000082A1813009F424C1FE01EE0FFF1FEE0FEF
:10341000FF1FEE0FFF1FEC0FFD1FE01BF10BE2542F
:10342000FC4F82A1823009F4ECC00F5F1F4F82E095
:1034300090E0E80EF91E0430110509F0A8CFFFCA8C
:103440004EE7D42EB1CFE091B602F091B702EE0D67
:10345000FF1D20813181C901DC01E3E8F1E089E051
:1034600001900D928150E1F7E0CF4EE750E031CF6F
:10347000E091B602F091B70220813181C901DC01EF
:10348000E2E2F1E089E001900D928150E1F7E091F4
:10349000B602F091B70222813381C901DC01EBE26F
:1034A000F1E089E001900D928150E1F7E091B602E0
:1034B000F091B70224813581C901DC01E4E3F1E038
:1034C00089E001900D928150E1F7E091B602F09110
:1034D000B70226813781C901DC01EDE3F1E085E027
:1034E00001900D928150E1F7AACA8EE7D82EDFCB6A
:1034F000E091B602F091B70200D000D000D0ADB795
:10350000BEB71196EE0DFF1D80819181EDB7FEB71C
:103510009283818313967C926E9212971496DC921A
:10352000149715961C920E94CF392DB73EB72A5F8B
:103530003F4F0FB6F8943EBF0FBE2DBF54CFE09162
:10354000B602F091B7028DB79EB708970FB6F89400
:103550009EBF0FBE8DBFADB7BEB71196EE0DFF1D5E
:1035600080819181EDB7FEB7928381831396BC92DF
:10357000AE9212971496DC92149715961C9215979A
:1035800017967C926E9216970E94CF392DB73EB750
:10359000285F3F4F0FB6F8943EBF0FBE2DBFC7CD7B
:1035A000E091B602F091B7028DB79EB708970FB6BB
:1035B000F8949EBF0FBE8DBFADB7BEB71196EE0D8E
:1035C000FF1D80819181EDB7FEB7928381831396B1
:1035D000BC92AE9212971496DC92149715961C9298
:1035E000159717965C924E9216970E94CF392DB779
:1035F0003EB7285F3F4F0FB6F8943EBF0FBE2DBFBA
:10360000A7CDE091B602F091B70200D000D000D073
:10361000ADB7BEB71196EE0DFF1D80819181EDB75C
:10362000FEB7928381831396BC92AE921297149642
:10363000DC92149715961C920E94CF392DB73EB795
:103640002A5F3F4F0FB6F8943EBF0FBE2DBFEDCEA1
:10365000E091B602F091B70200D000D000D0ADB733
:10366000BEB71196EE0DFF1D80819181EDB7FEB7BB
:103670009283818313969C928E9212971496DC9279
:10368000149715961C920E94CF392DB73EB72A5F2A
:103690003F4F0FB6F8943EBF0FBE2DBFB5CE8F92F1
:1036A0009F92AF92BF92CF92DF92EF92FF920F93D1
:1036B0001F93CF93DF93EB016A015901480160E04A
:1036C00070E04AE050E00E941137162F603168F038
:1036D000DF91CF911F910F91FF90EF90DF90CF90EE
:1036E000BF90AF909F908F900895C7016EEF71E0EB
:1036F0000E945939009709F066C0812F90E0FC01C3
:10370000EE0FFF1FEE0FFF1FEE0FFF1F880F991F19
:10371000E80FF91FEF53FD4F1082812F90E0FC015D
:10372000EE0FFF1FEE0FFF1FEE0FFF1F880F991FF9
:10373000E80FF91FEF53FD4F81E08187812F90E063
:10374000FC01EE0FFF1FEE0FFF1FEE0FFF1F880F94
:10375000991FE80FF91FEF53FD4F12821182812F3D
:1037600090E0FC01EE0FFF1FEE0FFF1FEE0FFF1F9B
:10377000880F991FE80FF91FEF53FD4F1482138232
:10378000812F90E0FC01EE0FFF1FEE0FFF1FEE0FE9
:10379000FF1F880F991FE80FF91FEF53FD4F168287
:1037A0001582812F90E0FC01EE0FFF1FEE0FFF1F2F
:1037B000EE0FFF1F880F991FE80FF91FEF53FD4F02
:1037C0001086178285CFCE0160E070E04AE050E0BD
:1037D0000E941137212F30E0F901EE0FFF1FEE0F8D
:1037E000FF1FEE0FFF1F220F331FE20FF31FEF53D8
:1037F000FD4F72836183C60160E070E04AE050E0F3
:103800000E941137212F30E0F901EE0FFF1FEE0F5C
:10381000FF1FEE0FFF1F220F331FE20FF31FEF53A7
:10382000FD4F74836383C50160E070E04AE050E0BF
:103830000E941137212F30E0F901EE0FFF1FEE0F2C
:10384000FF1FEE0FFF1F220F331FE20FF31FEF5377
:10385000FD4F76836583C40160E070E04AE050E08C
:103860000E941137212F30E0F901EE0FFF1FEE0FFC
:10387000FF1FEE0FFF1F220F331FE20FF31FEF5347
:10388000FD4F70876783812F90E0FC01EE0FFF1FD3
:10389000EE0FFF1FEE0FFF1F880F991FE80FF91F94
:1038A000EF53FD4F81E08083C70163E072E00E9427
:1038B0005939009781F4812F90E0FC01EE0FFF1F32
:1038C000EE0FFF1FEE0FFF1F880F991FE80FF91F64
:1038D000EF53FD4F1186C70167E072E00E9459392E
:1038E000009709F0F5CE812F90E0FC01EE0FFF1F4D
:1038F000EE0FFF1FEE0FFF1F880F991FE80FF91F34
:10390000EF53FD4F81E08187E3CE0F93CF93DF9399
:10391000EB0160E070E04AE050E00E941137062FB2
:10392000643008F0B5C0CE016BE072E00E945939F6
:10393000009771F1CE0161E172E00E945939009760
:1039400009F466C0CE0165E172E00E945939009722
:1039500009F05EC0C091B503D091B603202F30E0CE
:10396000F901EE0FFF1FEE0FFF1FCF01880F991F08
:10397000880F991F880F991FE80FF91FE21BF30B9F
:10398000E254FC4F60817181802F0E94BD065DC0B2
:103990004091B5035091B603202F30E0F901EE0FAE
:1039A000FF1FEE0FFF1FCF01880F991F880F991F70
:1039B000880F991FE80FF91FE21BF30BE254FC4F2D
:1039C0002081318100D000D000D0EDB7FEB7319614
:1039D000ADB7BEB712965C934E93119787E191E015
:1039E00093838283358324830E94CF392DB73EB7DA
:1039F0002A5F3F4F0FB6F8943EBF0FBE2DBF2091F8
:103A0000B5033091B603C901DF91CF910F910895AD
:103A1000C091B503D091B603202F30E0F901EE0F2D
:103A2000FF1FEE0FFF1FCF01880F991F880F991FEF
:103A3000880F991FE80FF91FE21BF30BE254FC4FAC
:103A400060817181802F0E945A06ADB7BEB718976A
:103A50000FB6F894BEBF0FBEADBFEDB7FEB731963F
:103A60001296DC93CE9311972FE131E033832283BA
:103A700064837583868397830E94CF392DB73EB7C1
:103A8000285F3F4F0FB6F8943EBF0FBE2DBFB7CF94
:103A90008091B5039091B60300D000D000D0EDB76F
:103AA000FEB73196ADB7BEB712969C938E93119721
:103AB00080E091E093838283048315820E94CF3952
:103AC0002DB73EB72A5F3F4F0FB6F8943EBF0FBEEB
:103AD0002DBF95CFBF92CF92DF92EF92FF920F93BF
:103AE0001F93CF93DF936B01EA0160E070E04AE03F
:103AF00050E00E941137B62E83E08B1550F4DF9111
:103B0000CF911F910F91FF90EF90DF90CF90BF90DA
:103B10000895CE016BE072E00E945939009741F19F
:103B2000CE0161E172E00E9459390097A1F0CE0107
:103B300065E172E00E945939009709F7C6010E94B9
:103B40004038AB01BC018B2D00E010E020E83FE3E2
:103B50000E94A70FD4CFC6010E944038AB01BC0120
:103B60008B2D00E010E020E83FE30E945010DFCFF3
:103B70002B2D30E0C901880F991F880F991F8C01E8
:103B8000000F111F000F111F000F111F080F191F29
:103B9000021B130B02541C4FF801E280F380C60194
:103BA00060E070E04AE050E00E941137E60EF71E38
:103BB000F801F382E282B4CF90E0880F991F8B5B0B
:103BC0009B4FFC0125913491F9016591749180918D
:103BD000B9039091BA030E9442398091B903909140
:103BE000BA0368E172E00E945439BC019093BA03B1
:103BF0008093B903E091BA02F091BB028081918178
:103C00000E94623980E090E06AE172E00E945439DB
:103C1000BC019093BA038093B903E091BA02F0918A
:103C2000BB02828193810E94623920E030E090E201
:103C3000A091BA02B091BB02A20FB31FEC911196F2
:103C4000FC91DF010D900020E9F71197AE1BBF0B2F
:103C5000A03180F48A2FE091BA02F091BB02E20F0A
:103C6000F31F0190F081E02DE80FF11D90838F5F2D
:103C7000803188F3E091BA02F091BB02E20FF31FAA
:103C80000190F081E02D108A2E5F3F4F24303105E6
:103C900079F60895AF92BF92CF92DF92EF92FF92A2
:103CA0000F931F93CF93DF93F89480914C04882354
:103CB00079F490E8A92E78948A2DDF91CF911F9105
:103CC0000F91FF90EF90DF90CF90BF90AF9008954D
:103CD00080914A0490914B046CE172E00E94543947
:103CE0006C0103EC12E080E8A82EBB24E090A40253
:103CF000F090A502F801C591D491FE0165917491EF
:103D0000D7018D919C910E944239E090A402F090DD
:103D1000A502F70160817181C6010E94593900979F
:103D200041F42396FE0194912197FE018491A92EDE
:103D3000B82E0E5F1F4FF3E003301F07D9F6BB20EC
:103D4000C9F011E080E090E06CE172E00E9454392B
:103D5000BC01812F90E0880F991FE091A402F0919F
:103D6000A502E80FF91F808191810E9462391F5FCF
:103D7000B11640F7E0914A04F0914B0480E4DF0172
:103D80001D928A95E9F710924C0495CFFC01908121
:103D9000992351F08091C00085FFFCCF9093C6001D
:103DA000319690819923B1F78091C00085FFFCCFB7
:103DB0008AE08093C600E091B503F091B60380E4F9
:103DC000DF011D928A95E9F70895AF92BF92CF92D5
:103DD000DF92EF92FF920F931F93CF93DF93C0E098
:103DE000D0E071E2C72E72E0D72EE090B503F090DC
:103DF000B603CE01FE01EE0FFF1FEE0FFF1FEE0F09
:103E0000FF1F880F991FE80FF91FEF53FD4F018126
:103E10001281CE01FE01EE0FFF1FEE0FFF1FEE0F0E
:103E2000FF1F880F991FE80FF91FEF53FD4FA38065
:103E3000B480CE01FE01EE0FFF1FEE0FFF1FEE0F4D
:103E4000FF1F880F991FE80FF91FEF53FD4F4581A2
:103E50005681CE01FE01EE0FFF1FEE0FFF1FEE0F8A
:103E6000FF1F880F991FE80FF91FEF53FD4F2781A0
:103E70003085CE01FE01EE0FFF1FEE0FFF1FEE0F8C
:103E8000FF1F880F991FE80FF91FEF53FD4F618542
:103E9000CE01FE01EE0FFF1FEE0FFF1FEE0FFF1F03
:103EA000880F991FE80FF91FEF53FD4F8081ADB7C1
:103EB000BEB752970FB6F894BEBF0FBEADBFEDB7F9
:103EC000FEB731961296FC92EE921197D382C2827F
:103ED000C483D58317830683B186A0865387428720
:103EE0003587248766871786808B118A0E94CF3991
:103EF0008091B5039091B603EDB7FEB772960FB6F9
:103F0000F894FEBF0FBEEDBF0E94C61E2196C031C1
:103F1000D10509F06ACFDF91CF911F910F91FF90EA
:103F2000EF90DF90CF90BF90AF90089560E070E089
:103F30004AE050E00E9411376430A8F5262F30E0A7
:103F4000F901EE0FFF1FEE0FFF1FCF01880F991F22
:103F5000880F991F880F991FE80FF91FE21BF30BB9
:103F6000E254FC4F8385882379F4E091B503F09106
:103F7000B60380E390E0918380838091B5039091B4
:103F8000B6030E94C61E0895E091B503F091B603F2
:103F900081E390E0918380838091B5039091B60393
:103FA0000E94C61E0895A091B503B091B603E6E342
:103FB000F2E083E101900D928150E1F7DECF1F9393
:103FC000CF93DF93EB0160E070E04AE050E00E94A5
:103FD0001137162F6430B8F4CE0160E070E04AE08B
:103FE00050E00E941137812F90E0FC01EE0FFF1F7F
:103FF000EE0FFF1FE80FF91FEF55FC4F6483DF91B1
:10400000CF911F910895A091B503B091B603E6E357
:10401000F2E083E101900D928150E1F78091B503C8
:104020009091B6030E94C61EEACFFF920F931F9392
:10403000CF93DF93EB018A0160E070E04AE050E04B
:104040000E941137F62E83E08F1528F1CE010E94D1
:104050004438EC01C8010E944438AC01C817D907A4
:1040600079F18C179D074CF18F2D90E0FC01EE0F3C
:10407000FF1FEE0FFF1FE80FF91FEF55FC4FD18315
:10408000C0835383428381E08483DF91CF911F916A
:104090000F91FF900895A091B503B091B603E6E3A8
:1040A000F2E083E101900D928150E1F78091B50338
:1040B0009091B6030E94C61EE8CFAE01EC01D4CFAA
:1040C0008F2D90E0FC01EE0FFF1FEE0FFF1FE80F9A
:1040D000F91FEF55FC4F1182108213821282148255
:1040E000DF91CF911F910F91FF9008952F923F92F2
:1040F0004F925F926F927F928F929F92AF92BF92F8
:10410000CF92DF92EF92FF920F931F93DF93CF93A3
:1041100000D000D000D0CDB7DEB77C836B834A01DE
:1041200060E070E04AE050E00E941137643008F02F
:1041300058C0262F30E03A832983220F331F220FE5
:10414000331F3E832D83F90189819A81E80FF91F7E
:10415000EF55FC4F84818823C9F026960FB6F8945A
:10416000DEBF0FBECDBFCF91DF911F910F91FF90AA
:10417000EF90DF90CF90BF90AF909F908F907F9007
:104180006F905F904F903F902F900895C4010E94D0
:1041900040383B014C018B819C8169E472E00E94B4
:1041A0005939009781F5F894ED81FE81EE0FFF1FDC
:1041B000EE0FFF1FEE0FFF1FAD81BE81EA0FFB1F49
:1041C00029813A81E21BF30BE254FC4F148683E011
:1041D00090E0978F868F80819181938382837894FA
:1041E000BCCFA091B503B091B603E6E3F2E083E162
:1041F00001900D928150E1F78091B5039091B60343
:104200000E94C61EAACFED81FE81EE0FFF1FEE0FAA
:10421000FF1FEE0FFF1F8D819E81E80FF91FA981FF
:10422000BA81EA1BFB0BE254FC4FE584F684078558
:104230001089A188B288C388D488258836884788A1
:10424000508CC401B3019F7720E030E04AE754E48A
:104250000E9462353B014C01C801B701A6019501DE
:104260000E946235A20191010E9462359B01AC015E
:10427000C401B3010E94C0330E94C5350E942D3491
:104280004B01672B09F467C0F7E260317F0708F044
:1042900050C08B819C8165E772E00E94593900977C
:1042A000F9F4ED81FE81EE0FFF1FEE0FFF1FEE0F01
:1042B000FF1F2D813E81E20FF31F89819A81E81B48
:1042C000F90BE254FC4F81E08487978E868E8081C3
:1042D00091819383828382819381019693838283E8
:1042E0008B819C8168E772E00E945939009709F040
:1042F00034CFED81FE81EE0FFF1FEE0FFF1FEE0F9B
:10430000FF1FAD81BE81EA0FFB1F29813A81E21BAD
:10431000F30BE254FC4F82E08487978E868E808177
:104320009181938382838281938101979383828396
:1043300014CFA091B503B091B603E2E6F2E083E1B9
:1043400001900D928150E1F78091B5039091B603F1
:104350000E94C61E9ECF8091B5039091B60300D0F7
:1043600000D000D0EDB7FEB73196ADB7BEB712960C
:104370009C938E9311978EE492E0938382831582AF
:1043800014820E94CF398091B5039091B603EDB7A6
:10439000FEB736960FB6F894FEBF0FBEEDBF0E9473
:1043A000C61EDBCE1F93CF93DF93EB0160E070E07E
:1043B0004AE050E00E941137162F6430F0F4CE012D
:1043C0000E9444389C01412F50E0FA01EE0FFF1F7C
:1043D000EE0FFF1FCF01880F991F880F991F880FBD
:1043E000991FE80FF91FE41BF50BE254FC4F378FC0
:1043F000268FDF91CF911F910895A091B503B091C1
:10440000B603E6E3F2E083E101900D928150E1F71B
:104410008091B5039091B6030E94C61EEACF1F9308
:10442000CF93DF93EB0160E070E04AE050E00E9440
:104430001137162F6430F8F4CE010E944038412F16
:1044400050E0FA01EE0FFF1FEE0FFF1F9F01220F3A
:10445000331F220F331F220F331FE20FF31FE41B02
:10446000F50BE254FC4F658B768B878B908FDF9139
:10447000CF911F9108958091B5039091B60300D01C
:1044800000D000D0EDB7FEB73196ADB7BEB71296EB
:104490009C938E93119780E091E0938382831483A1
:1044A00015820E94CF398091B5039091B6032DB744
:1044B0003EB72A5F3F4F0FB6F8943EBF0FBE2DBFE9
:1044C0000E94C61EDF91CF911F9108951F93CF9335
:1044D000DF93EB0160E070E04AE050E00E941137AA
:1044E000162F6430F8F4CE010E944038412F50E07E
:1044F000FA01EE0FFF1FEE0FFF1F9F01220F331F68
:10450000220F331F220F331FE20FF31FE41BF50BA3
:10451000E254FC4F618B728B838B948BDF91CF9134
:104520001F9108958091B5039091B60300D000D0FB
:1045300000D0EDB7FEB73196ADB7BEB712969C93DB
:104540008E93119780E091E0938382831483158288
:104550000E94CF398091B5039091B6032DB73EB735
:104560002A5F3F4F0FB6F8943EBF0FBE2DBF0E948B
:10457000C61EDF91CF911F9108951F93CF93DF93B4
:10458000EB0160E070E04AE050E00E941137162F26
:104590006430F8F4CE010E944038412F50E0FA0117
:1045A000EE0FFF1FEE0FFF1F9F01220F331F220F81
:1045B000331F220F331FE20FF31FE41BF50BE254EE
:1045C000FC4F658776878787908BDF91CF911F910E
:1045D00008958091B5039091B60300D000D000D02B
:1045E000EDB7FEB73196ADB7BEB712969C938E93DA
:1045F000119780E091E093838283148315820E9457
:10460000CF398091B5039091B6032DB73EB72A5F9D
:104610003F4F0FB6F8943EBF0FBE2DBF0E94C61E7F
:10462000DF91CF911F9108951F93CF93DF93EB01FB
:1046300060E070E04AE050E00E941137162F6430CD
:1046400008F5CE0160E070E04AE050E00E941137CA
:10465000412F50E0FA01EE0FFF1FEE0FFF1F9F01E9
:10466000220F331F220F331F220F331FE20FF31FBE
:10467000E41BF50BE254FC4F75836483DF91CF910B
:104680001F9108958091B5039091B60300D000D09A
:1046900000D0EDB7FEB73196ADB7BEB712969C937A
:1046A0008E93119780E091E0938382831483158227
:1046B0000E94CF398091B5039091B6032DB73EB7D4
:1046C0002A5F3F4F0FB6F8943EBF0FBE2DBF0E942A
:1046D000C61EDF91CF911F910895DF92EF92FF9256
:1046E0000F931F93CF93DF93EB018A0160E070E09B
:1046F0004AE050E00E941137D62E83E08D1540F439
:10470000DF91CF911F910F91FF90EF90DF9008956F
:10471000C8016BE072E00E9459390097A1F0C8010E
:1047200061E172E00E945939009791F1C80165E199
:1047300072E00E945939009709F456C08CE792E064
:104740000E94C61EDDCF0D2D10E0CE0160E070E0AE
:104750004AE050E00E941137F801EE0FFF1FEE0F04
:10476000FF1F9F01220F331F220F331F220F331F02
:10477000E20FF31FE01BF10BE254FC4F73836283E3
:10478000DF91CF911F910F91FF90EF90DF900895EF
:104790002D2D30E0F901EE0FFF1FEE0FFF1FCF01AF
:1047A000880F991F880F991F880F991FE80FF91F0D
:1047B000E21BF30BE254FC4F608171818D2D0E944E
:1047C0005A067B018C01CE010E944038A801970156
:1047D0000E945733AB01BC018D2D00E010E020E8B2
:1047E0003FE30E9450108CCF2D2D30E0F901EE0FE9
:1047F000FF1FEE0FFF1FCF01880F991F880F991F12
:10480000880F991FE80FF91FE21BF30BE254FC4FCE
:10481000608171818D2D0E94BD067B018C01CE01CE
:104820000E944038A80197010E945733AB01BC0198
:104830008D2D00E010E020E83FE30E94A70F60CF3D
:1048400020E030E080E090E0E091A402F091A50249
:104850000190F081E02DE80FF91F1082019684315C
:10486000910591F780E090E0E091B402F091B502FB
:10487000E20FF31F0190F081E02DE80FF91F108285
:10488000E091B602F091B702E20FF31F0190F081C0
:10489000E02DE80FF91F108201968930910521F76C
:1048A00080E090E0E091B802F091B902E20FF31FCE
:1048B0000190F081E02DE80FF91F1082E091BA021B
:1048C000F091BB02E20FF31F0190F081E02DE80FA1
:1048D000F91F108201968131910521F7E091BC0208
:1048E000F091BD0280E4DF01982F1D929A95E9F7BF
:1048F000E091B503F091B603DF01982F1D929A95D0
:10490000E9F7E0914A04F0914B04DF011D928A958A
:10491000E9F7E091B903F091BA0388E2DF011D9253
:104920008A95E9F70895F89480914A0490914B0490
:104930002091BC023091BD02DC01F90180E40190BC
:104940000D928150E1F781E080934C04E091BC022C
:10495000F091BD0280E4DF011D928A95E9F7109283
:10496000BF021092BE0278940895DF92EF92FF92F8
:104970000F931F93D82E7A018B01CB01BA0120E04F
:1049800030E040E050E00E94BC338823CCF1C80105
:10499000B70120E030E040E250E40E945E35181696
:1049A000E4F40CE010E18D2D0E943C08E091BB0383
:1049B000F091BC030083E091BB03F091BC03118331
:1049C0006091BB037091BC0342E00E94BC071F9141
:1049D0000F91FF90EF90DF900895C801B70126E690
:1049E00036E64AE952E40E9462350E9496340E94FB
:1049F0002D34062F02950F70162F1295107FD3CFEE
:104A000017FB109517F91095C2CF0F931F93CF93F3
:104A1000DF938C01EB016115710551F0F801819173
:104A20008F0161E00E94D8050E94EF052197B1F740
:104A300080E090E0DF91CF911F910F910895009752
:104A400069F0FC0101900020E9F73197E81BF90BB0
:104A5000BF010E9405259C01C901089520E030E0B6
:104A6000C90108950E941F25089561E00E94D8059C
:104A70000E94EF0580E090E008950F931F93CF937D
:104A8000DF938B018770880F880F880F806460E048
:104A90000E94D8050E94EF05C0E0D0E0F801EC0FBD
:104AA000FD1F808161E00E94D8050E94EF052196DC
:104AB000C830D10599F7DF91CF911F910F910895DB
:104AC000809197038E7F80939703846060E00E94BB
:104AD000D8050E94EF05089588E160E00E94D8059E
:104AE0000E94EF05089580916103982F9160909343
:104AF0006103896060E00E94D8050E94EF05089577
:104B000082E060E00E94D8050E94EF05089581E0F0
:104B100060E00E94D8050E94EF05089580919703F8
:104B2000982F916090939703856060E00E94D8056C
:104B30000E94EF050895809197038D7F80939703DE
:104B4000846060E00E94D8050E94EF0508950F93ED
:104B50001F93CF93DF93609362031092C00281E0B2
:104B600061E00E945D0582E061E00E945D0583E0F6
:104B700061E00E945D0581E060E00E94770583E0CE
:104B800060E00E94770582E060E00E94770524EFF4
:104B900031E044EF51E0CA010197F1F72150304074
:104BA000D1F7C3E9D3E0888161E00E945D05899176
:104BB00060E00E94770583E0C739D807A1F783E05A
:104BC0000E94A905C8EAD1E6CE010197F1F78091CC
:104BD0005104823009F446C082E00E94A90508EA27
:104BE00011E6C8010197F1F782E00E94A905C8010A
:104BF0000197F1F788E00E94A905C8010197F1F734
:104C000088E060E00E94D8050E94EF05C801019786
:104C1000F1F781E060E00E94D8050E94EF05C8012D
:104C20000197F1F786E060E00E94D8050E94EF0549
:104C3000C8010197F1F782E060E00E94D8050E9468
:104C4000EF05C8010197F1F78CE060E00E94D805FC
:104C50000E94EF05C8010197F1F7DF91CF911F91F5
:104C60000F91089588E00E94A905CE010197F1F700
:104C7000B3CF809351048150823018F082E080934A
:104C8000510484E08093930385E08093940386E04D
:104C90008093950387E08093960381E061E00E9412
:104CA0005D0582E061E00E945D0583E061E00E94B5
:104CB0005D0588E28093980380E162E00E94A72569
:104CC0000895809161038D7F80936103886060E027
:104CD0000E94D8050E94EF05089580916103982FE6
:104CE0009460909361038C6060E00E94D8050E94FC
:104CF000EF05089580919703982F92609093970302
:104D0000866060E00E94D8050E94EF0508958CE15E
:104D100060E00E94D8050E94EF050895809161032C
:104D20008E7F80936103886060E00E94D8050E94B6
:104D3000EF05089580916103982F9260909361032D
:104D40008A6060E00E94D8050E94EF050895809176
:104D500061038B7F80936103886060E00E94D805C7
:104D60000E94EF050895DF93CF9300D000D0CDB718
:104D7000DEB7982F809162036817D0F0E0E0F0E092
:104D8000198280E48A8384E18B8384E58C83EC0F31
:104D9000FD1F8181890F806860E00E94D8050E9414
:104DA000EF050F900F900F900F90CF91DF91089526
:104DB000E62FF0E0E5CF8091B202823009F478C0AE
:104DC000833039F0813029F08091AF028093B202B4
:104DD00008958091AE020E94F014A091B402B091A7
:104DE000B502E091B602F091B702608171818D91B8
:104DF0009C910E945939009709F0F2C0A091B40229
:104E0000B091B502E091B602F091B7026281738170
:104E100012968D919C9113970E945939009709F031
:104E2000C2C0A091B402B091B502E091B602F09177
:104E3000B7026481758114968D919C9115970E949B
:104E40005939009709F092C0A091B402B091B5020F
:104E5000E091B602F091B7026681778116968D9146
:104E60009C9117970E945939009709F4ADCF88E0BB
:104E700061E00E94B326E091B602F091B70286810C
:104E800097810E941F25A091B402B091B502E091D4
:104E9000B602F091B7026681778116968D919C914A
:104EA00017970E9462398091AF028093B2020895F1
:104EB0009091AE028091AD02981709F485CF809150
:104EC000AD020E94DC1D80E060E00E94B326E0910C
:104ED000BA02F091BB02808191810E941F25A091AE
:104EE000B802B091B902E091BA02F091BB026081C0
:104EF00071818D919C910E94623980E061E00E94F5
:104F0000B326E091BA02F091BB02828193810E94A4
:104F10001F25A091B802B091B902E091BA02F091B8
:104F2000BB026281738112968D919C9113970E94AE
:104F300062398091AD028093AE0240E050E0E09192
:104F4000B402F091B502E40FF51F20813181C9014F
:104F5000DC01E8E8F2E088E001900D928150E1F791
:104F60004E5F5F4F4A30510551F72ECF80E061E030
:104F70000E94B326E091B602F091B7028481958138
:104F80000E941F25A091B402B091B502E091B60233
:104F9000F091B7026481758114968D919C9115975B
:104FA0000E94623951CF88E060E00E94B326E09110
:104FB000B602F091B702828193810E941F25A091D1
:104FC000B402B091B502E091B602F091B7026281ED
:104FD000738112968D919C9113970E94623921CF13
:104FE00080E060E00E94B326E091B602F091B70243
:104FF000808191810E941F25A091B402B091B502D9
:10500000E091B602F091B702608171818D919C911F
:105010000E946239F3CE6F927F928F929F92AF92ED
:10502000BF92CF92DF92EF92FF920F931F93CF9395
:10503000DF938091AC02882321F480919E03882322
:1050400089F01091AE020091B202023009F4A2C0C0
:105050000130B9F00330A9F01092AC0210929E0317
:1050600010929F03DF91CF911F910F91FF90EF90CE
:10507000DF90CF90BF90AF909F908F907F906F9078
:1050800008950E94BE0A853009F428C1863008F0D0
:1050900072C0833009F436C1843049F48091B30280
:1050A00098E089278093B30283E08093AF020330B6
:1050B00099F60E94E00AB82E882371F28091AE0220
:1050C00090E0880F991F8B5B9B4FFC0125913491D9
:1050D0002E5F3F4FF9018491863009F48BC08730F1
:1050E00008F026C1833009F4C1C2843008F034C10D
:1050F000813009F407C3823009F0AECF20E030E000
:1051000062E08091B30290E0022E02C095958795EF
:105110000A94E2F780FF29C0A901440F551F440FEC
:10512000551FFA01EE0FFF1FEE0FFF1FEE0FFF1FBF
:10513000E40FF51FE21BF30BE254FC4F818D8B0D46
:10514000818F818D87FD76C3FA01EE0FFF1FEE0F71
:10515000FF1FEE0FFF1FE40FF51FE21BF30BE254DE
:10516000FC4F818D83300CF0118E2F5F3F4F243028
:10517000310539F671CF873009F4BAC0873080F134
:10518000883009F094CF8091B00291E08927809314
:10519000B0028DCF0E94E00A992787FD9095212FBC
:1051A000332727FD3095820F931F6CE070E00E943B
:1051B000F93587FDBBC08093AD020E94BE0A8830DE
:1051C00009F4ABC00E94BE0A883009F045CF809137
:1051D000B302882309F440CF83E08093AF023CCF31
:1051E0008091B30292E089278093B30283E0809399
:1051F000AF025DCFEE24FF248091B30290E00E2C2D
:1052000002C0959587950A94E2F780FF5EC01B1453
:105210000CF01BC36701CC0CDD1CCC0CDD1C860123
:10522000000F111F000F111F000F111F0C0D1D1D6E
:105230000E191F0902541C4FF80125893689478928
:10524000508DCA01B9010E945833F801658B768BE5
:10525000878B908FE601CC0FDD1FCC0FDD1FCC0FAD
:10526000DD1FCC0DDD1DCE19DF09C254DC4F6D8969
:105270007E898F89988D20E030E040E85FE30E94CE
:10528000BC3388230CF4D8C2E601CC0FDD1FCC0F51
:10529000DD1FCC0FDD1FCC0DDD1DCE19DF09C25483
:1052A000DC4F6D897E898F89988D20E030E040E069
:1052B00052E40E945E35181644F480E090E0A0E0CD
:1052C000B2E48D8B9E8BAF8BB88F0894E11CF11CE0
:1052D000F4E0EF16F10409F08FCFBECE8091B30257
:1052E00094E089278093B30283E08093AF02DFCEFE
:1052F0008091B30291E089278093B30283E0809389
:10530000AF02D5CE82E08093AF028091AE028F5F74
:105310008093AE021092B002CACE8091B30288236D
:1053200009F050CF81E08093AF024CCF8BE043CFA8
:10533000893009F43EC18A3090F5873009F42DC2D6
:10534000883009F089CE0E94C90B0E94872586E922
:1053500092E00E941F2580CE843009F427C2853058
:1053600009F07ACEC0E0D0E061E0E62EF12C809129
:10537000B30290E00C2E02C0959587950A94E2F74F
:1053800080FDADC02196C430D10589F782E08093BD
:10539000AF028091AE028F5F8093AE025DCE8A3005
:1053A00009F4AFC08B3009F057CE1B140CF0F0C2DB
:1053B0008091B1028F5F8093B1028091B102803100
:1053C00014F01092B1028091B102992787FD909557
:1053D000FC01EE0FFF1FEE0FFF1FEE0FFF1F880FE8
:1053E000991FE80FF91FEF53FD4F8081882301F3C8
:1053F0008091B102992787FD9095FC01EE0FFF1F68
:10540000EE0FFF1FEE0FFF1F880F991FE80FF91F08
:10541000EF53FD4F8185882309F03CC28091B10292
:10542000992787FD9095FC01EE0FFF1FEE0FFF1FE0
:10543000EE0FFF1F880F991FE80FF91FEF53FD4F65
:10544000818192819093C1038093C0038091B102C6
:10545000992787FD9095FC01EE0FFF1FEE0FFF1FB0
:10546000EE0FFF1F880F991FE80FF91FEF53FD4F35
:10547000838194819093E4038093E3038091B1024C
:10548000992787FD9095FC01EE0FFF1FEE0FFF1F80
:10549000EE0FFF1F880F991FE80FF91FEF53FD4F05
:1054A0008581968190930704809306048091B102D0
:1054B000992787FD9095FC01EE0FFF1FEE0FFF1F50
:1054C000EE0FFF1F880F991FE80FF91FEF53FD4FD5
:1054D0008781908590932A0480932904BDCD8C2FD9
:1054E0000E94F9102091B302C7010C2E02C0880F50
:1054F000991F0A94E2F728272093B3020E94DB2623
:1055000041CFC0E0D0E012E04C2F8091B30290E098
:105510000C2E02C0959587950A94E2F780FF43C050
:105520009E01220F331F220F331FF901EC0FFD1FC5
:10553000EF55FC4F8481882309F08ECDF901EE0FE1
:10554000FF1FEE0FFF1FEE0FFF1FE20FF31FEC1BFD
:10555000FD0BE254FC4F82A18B0D82A382A187FD3B
:1055600097C1F901EE0FFF1FEE0FFF1FEE0FFF1F98
:10557000E20FF31FEC1BFD0BE254FC4F82A18330C2
:105580000CF012A2F901EE0FFF1FEE0FFF1FEE0F3E
:10559000FF1FE20FF31FEC1BFD0BE254FC4F62A157
:1055A000842F0E9420072196C430D10509F0ACCF8A
:1055B00053CD6B2D772767FD709584E690E0689F4B
:1055C000A001699F500D789F500D112420E030E01C
:1055D0008091B30290E0022E02C0959587950A94BF
:1055E000E2F780FF20C08091B002882311F1C90149
:1055F000880F991F880F991FFC01EE0FFF1FEE0FF8
:10560000FF1FEE0FFF1FE80FF91FE21BF30BE25421
:10561000FC4F80819181840F951F938382838281C7
:105620009381958384832F5F3F4F2430310581F62A
:1056300013CDC901880F991F880F991FFC01EE0F28
:10564000FF1FEE0FFF1FEE0FFF1FE80FF91FE21BFA
:10565000F30BE254FC4F80819181860F971F938357
:1056600082838281938195838483DDCF20E030E043
:105670006B2D772767FD7095A1E0B0E08091B302B4
:1056800090E0022E02C0959587950A94E2F780FF7C
:1056900032C0A901440F551F440F551FFA01EE0FE8
:1056A000FF1FEE0FFF1FEE0FFF1FE40FF51FE21BA2
:1056B000F30BE254FC4F868D978D860F971F978FC3
:1056C000868F868D978D892B11F4B78FA68FFA015F
:1056D000EE0FFF1FEE0FFF1FEE0FFF1FE40FF51F72
:1056E000E21BF30BE254FC4F868D978D880F991FB8
:1056F000019791A380A32F5F3F4F2430310509F01C
:10570000BDCFAACC8B2C992487FC909484E690E0A2
:10571000889E3001899E700C989E700C1124C0E008
:10572000D0E0AB2CBB24A7FCB094CB2CDB2C80911D
:10573000B30290E00C2E02C0959587950A94E2F78B
:1057400080FF26C0CE01880F991F880F991FFC018A
:10575000EE0FFF1FEE0FFF1FEE0FFF1FE80FF91FE9
:10576000EC1BFD0BE254FC4F818D813009F4F5C038
:10577000823009F4DCC0882359F48091B002882378
:1057800009F42AC182819381860D971D93838283B8
:105790002196C430D10559F65FCC0E94830C0E943B
:1057A000872580E992E00E941F2556CCC0E0D0E01A
:1057B0008B2C992487FC9094A92CB92C8091B3024E
:1057C00090E00C2E02C0959587950A94E2F780FF31
:1057D0002CC0CE01880F991F880F991F8C01000FD4
:1057E000111F000F111F000F111F080F191F0C1B95
:1057F0001D0B02541C4FF801C28CD38CE48CF58C29
:10580000C501B4010E945B3420E030E040E251E485
:105810000E94C0339B01AC01C701B6010E945833FE
:10582000F801628F738F848F958F2196C430D105D4
:1058300029F612CC618F88CC80E090E0A0E8BFE32D
:105840008D8B9E8BAF8BB88F1FCD6701CC0CDD1C71
:10585000CC0CDD1C8601000F111F000F111F000F63
:10586000111F0C0D1D1D0E191F0902541C4FF801AC
:10587000658976898789908D20E030E040E05FE39C
:105880000E946235F801658B768B878B908FE2CC16
:1058900012A367CE8091B102992787FD9095FC01F4
:1058A000EE0FFF1FEE0FFF1FEE0FFF1F880F991F58
:1058B000E80FF91FEF53FD4F8185813009F0CCCB04
:1058C00040E050E0CA01880F991F880F991FDC0142
:1058D000AA0FBB1FAA0FBB1FAA0FBB1FA80FB91F80
:1058E000A41BB50BA254BC4F2D913C9111978091F4
:1058F000B102992787FD9095FC01EE0FFF1FEE0F77
:10590000FF1FE80FF91FE40FF51FEE0FFF1FEF5306
:10591000FD4F81819281820F931F13969C938E93EA
:1059200012974F5F5F4F4430510561F695CBE28C83
:10593000F38C048D158DC601B5010E945B3420E007
:1059400030E040E05EE30E946235AB01BC018C2F89
:10595000980187010E94A70F1BCF8091B002882376
:1059600009F441C0E28CF38C048D158DC601B5019C
:105970000E945B3420E030E040E251E40E94623556
:10598000AB01BC018C2F980187010E94501000CF01
:105990002FE016C08091B102992787FD9095FC01F8
:1059A000EE0FFF1FEE0FFF1FEE0FFF1F880F991F57
:1059B000E80FF91FEF53FD4F8081882309F018CDC0
:1059C0008091B10281508093B1028091B10287FF32
:1059D000E1CF2093B102DECF82819381880D991DA2
:1059E00093838283D5CEE28CF38C048D158DC60112
:1059F000B5010E945B34AB01BC018C2F980187017B
:105A00000E945010C5CEBF92CF92DF92EF92FF92CC
:105A10000F931F93CF93DF9384E190E00E940C36A5
:105A20008093A4029093A502C0E0D0E00091A4026C
:105A30001091A5020C0F1D1F84E190E00E940C360E
:105A4000F801808391832296C431D10579F788E0EB
:105A500090E00E940C369093B5028093B40288E0E7
:105A600090E00E940C369093B7028093B602C0E09B
:105A7000D0E00091B4021091B50289E090E00E945C
:105A80000C360C0F1D1FF801808391830091B60224
:105A90001091B70289E090E00E940C360C0F1D1F98
:105AA000F801808391832296C830D10511F784E0F4
:105AB00090E00E940C369093B9028093B80284E083
:105AC00090E00E940C369093BB028093BA02009142
:105AD000B8021091B90281E190E00E940C36F80101
