:100000000C94CD020C94EA020C94EA020C94EA02DD
:100010000C94EA020C94EA020C94EA020C94EA02B0
:100020000C94EA020C94F61F0C94EA020C94EA0277
:100030000C94EA020C94EA020C94EA020C94EA0290
:100040000C94981F0C94EA020C94EA020C94EA02B5
:100050000C944E1F0C94EA020C94EA020C94EA02EF
:100060000C94EA020C94EA020C94EA020C94EA0260
:100070008D0CC20C0F0D5B0DD90D1A0E980D560E7E
:10008000730B6D0EF10B490CBE13921357137912BB
:100090005D12B412491243130F13F2136614A5260E
:1000A0000028E827DB27CE27C327B827AA27A627BB
:1000B000A22796278A277E27722766275A274E2748
:1000C000422736272A271E2712270427A326EE2693
:1000D000E026D426C026A92611286E616E00696E1E
:1000E000660021020702F201D801C001A7018E01BA
:1000F0006F01530132011301FA00FD000B52756EBE
:1001000020696E7465726E616C0A70726F677261DD
:100110006D000016010A53657420636F6E7374617D
:100120006E740A616E67756C6172207370656564C8
:100130000000350109446566696E65206F70746959
:1001400063616C0A7A65726F20706F736974696F8E
:100150006E00005601084C6F6164206C6173740A74
:10016000636F6E66696775726174696F6E000072A5
:100170000107536176652063757272656E740A6358
:100180006F6E66696775726174696F6E00009101C8
:10019000064368616E6765206D6F746F720A7375D0
:1001A00062737465700000AA010552756E207A654D
:1001B000726F0A63616C6962726174696F6E0000CC
:1001C000C3010453657420737465700A6D756C7493
:1001D00069706C6965720000DB01034368616E67DA
:1001E0006520737465700A776169742074696D6540
:1001F0000000F501024368616E67652073746570E5
:100200000A756E697400000A02014368616E6765D1
:10021000206D6F746F720A706F736974696F6E000E
:10022000002402004D6F746F72204472697665720B
:100230000A2000003E04340429041F0412040504AB
:10024000F803EC03E003D203C403B603A70394034B
:1002500081036F035D034D033D032C031B030A035E
:10026000F902E602D402C702B602A4029302820295
:1002700072027602009E444247524541444F555413
:1002800000008602019D4745544D4F54535441543C
:100290004500009702069C53455450524F47535413
:1002A00045500000A802029B454E4142464F524233
:1002B0005A4F4E450000BA02039A534554464F52D6
:1002C000425A4F4E450000CB02009953544F5041C3
:1002D0004C4C0000D8020098464143544F525952AA
:1002E000455345540000EA020397534554434F4E8B
:1002F000535453504545440000FD02029653455463
:100300005741495454494D4500000E030195474556
:10031000545741495454494D4500001F030294531A
:1003200045545355425354455053000030030193F4
:10033000474554535542535445505300004103021E
:100340009253455446554C4C524F540000510301B2
:100350009147455446554C4C524F5400006103029E
:100360009053455447454152524154494F00007300
:1003700003018F47455447454152524154494F006C
:10038000008503028E5345544F50545A45524F50E6
:100390004F5300009803018D4745544F50545A4520
:1003A000524F504F530000AB03018C474554414E10
:1003B000414C4F470000BA03018B49534D4F5649FA
:1003C0004E470000C803008A4C4F4144434F4E46FD
:1003D0000000D603008953415645434F4E46000066
:1003E000E4030288474554504F530000F00302874E
:1003F000454E41424C450000FC0301865A45524F90
:1004000052554E0000090403854D4F564552454C48
:100410000000160403844D4F56454142530000230B
:100420000401832A49444E00002D0400822A4944D5
:100430004E3F0000380400812A5253540000420409
:100440000080000000000000FFFF0000000000002E
:100450000000010001000000000000000000FFFF9C
:100460000000000000407A10F35A00A0724E1809F4
:100470000010A5D4E80000E87648170000E40B540B
:10048000020000CA9A3B000000E1F50500008096DA
:100490009800000040420F000000A086010000000C
:1004A000102700000000E8030000000064000000C6
:1004B00000000A00000000000100000000002C768F
:1004C000D888DC674F0823DFC1DFAE59E1B1B796AA
:1004D000E5E3E453C63AE651997696E8E6C2842607
:1004E000EB898C9B62ED407C6FFCEFBC9C9F40F2E3
:1004F000BAA56FA5F490055A2AF75C936B6CF9675F
:100500006DC11BFCE0E40D47FEF520E6B500D0ED23
:10051000902E0300943577050080841E080000208B
:100520004E0A000000C80C333333330F986E128329
:100530001141EF8D2114893BE65516CFFEE6DB18FD
:10054000D1844B381BF77C1D901DA4BBE4242032C2
:1005500084725E228100C9F124ECA1E53D274E4161
:100560004E494E495459494E46CDCCCC3D0AD7232D
:100570003C17B7D13877CC2B329595E6241FB14F75
:100580000A000020410000C84200401C4620BCBEBA
:100590004CCA1B0E5AAEC59D740011241FBECFEF6E
:1005A000D0E1DEBFCDBF12E0A0E0B1E0EEE9F2E6BF
:1005B00002C005900D92A839B107D9F714E0A8E957
:1005C000B2E001C01D92AC30B107E1F70E94952561
:1005D0000C944D310C9400009BB19F709BB99BB162
:1005E000807F892B8BB95B9A85E88A95F1F70000AB
:1005F0005B980895CF93DF93E8B190E0AC01440F8E
:10060000551F4F5F5F4F21E030E0042E01C0220FE5
:100610000A94EAF777FD42C020952E2328B977FD8A
:1006200041C061157105B9F1AC01440F551F21E0BE
:1006300030E001C0220F4A95EAF7B22FA22FA09511
:1006400040E050E023E2289FF001299FF00D1124A3
:10065000EE56FC4F88B18B2B88B98DE08A95F1F767
:10066000000088B18A2388B980819181892B71F03B
:1006700080E090E0C7E8D3E12197F1F700C00000E7
:1006800001962081318182179307A0F34F5F5F4F5E
:1006900046175707F9F6DF91CF910895E22BE8B995
:1006A00077FFBFCF719561957109BBCF80919E0295
:1006B000809587FD04C086FF04C086E0089587E02A
:1006C000089585FF02C085E0089584FF02C084E09C
:1006D000089583FF02C083E0089580FD02C08AE28E
:1006E000089580E008956F927F928F929F92AF92CB
:1006F000BF92CF92DF92EF92FF920F931F93CF930F
:10070000DF93C0E0D0E083E2682E95E5892E982C37
:10071000A82C90E4B92EC12CD12C28ECE22E23E495
:10072000F22E40E050E060E870E480E090E0A0E865
:10073000BFE37724739403E010E06C9EF0016D9E9C
:10074000F00D1124EC58FC4F11821082138212829A
:1007500015821482168217821086118612861386DD
:10076000148685869686A786B08AC18AD28AE38A4D
:10077000F48A458B568B678B708F828F938FA48FF3
:10078000B58F718E178F068F268D378D220F331FF1
:100790002150310931A320A312A22196C430D105E2
:1007A00061F61092B3021092B2021092710310928D
:1007B00070031092040410920504109255031092D5
:1007C000540388E0809356031092A1028AE280933A
:1007D000A20292E09093A3021092A4021092A502AA
:1007E0008093A60280E18093A70210929E0210924D
:1007F0009F021092A0021092570310925803109279
:10080000590380E090E0FC01EE0FFF1FEE0FFF1F89
:10081000E80FF91FE65AFC4F1482118210821382EE
:10082000128201968430910571F780E090E041E0FA
:10083000FC01EE0FFF1F9C01220F331F220F331FFD
:10084000220F331FE20FF31FEC54FD4F108241873C
:1008500012821182148213821682158210861782E8
:1008600001968031910521F781E08093B402DF91F8
:10087000CF911F910F91FF90EF90DF90CF90BF909D
:10088000AF909F908F907F906F9008951092C500C9
:1008900085E18093C400E1ECF0E080818869808389
:1008A000089580E480937C0083E880937A008091AF
:1008B0007A00806480937A0080917A0086FDFCCF74
:1008C0008091780090917900089520E030E080E0F8
:1008D00090E0E0919802F09199020190F081E02D72
:1008E000E80FF91F108201968431910591F780E09D
:1008F00090E0E091A802F091A902E20FF31F0190AD
:10090000F081E02DE80FF91F1082E091AA02F0912A
:10091000AB02E20FF31F0190F081E02DE80FF91F09
:10092000108201968930910521F780E090E0E091F6
:10093000AC02F091AD02E20FF31F0190F081E02DC7
:10094000E80FF91F1082E091AE02F091AF02E20FC2
:10095000F31F0190F081E02DE80FF91F108201963E
:100960008131910521F7E091B002F091B10280E46C
:10097000DF01982F1D929A95E9F7E0916E03F091AF
:100980006F03DF01982F1D929A95E9F7E09100041B
:10099000F0910104DF011D928A95E9F7E09172035D
:1009A000F091730388E2DF011D928A95E9F70895BB
:1009B0009091C00095FFFCCF8093C6000895DC01A4
:1009C0002C91222359F0FC0131968091C00085FFC3
:1009D000FCCF2093C60021912111F7CF8091C00058
:1009E00085FFFCCF8AE08093C600E0916E03F09112
:1009F0006F0380E4DF011D928A95E9F7089591B1B4
:100A0000A82FB0E09D012C5F3F4F41E050E0FA017C
:100A100002C0EE0FFF1F2A95E2F79F019E2B91B9AE
:100A20006130C9F092B19E2B92B993E29A9FF00186
:100A30009B9FF00D1124EC58FC4F138697B101C019
:100A4000440F8A95EAF74095492347B987B1209525
:100A5000282327B9089532B1922F9095932392B904
:100A600093E29A9FF0019B9FF00D1124EC58FC4FEC
:100A7000638797B101C0440F8A95EAF7942B97B921
:100A800087B1822B87B9089560E080E00E94FF045F
:100A900060E081E00E94FF0460E082E00E94FF04C9
:100AA00060E083E00E94FF0415BC1092B10008953D
:100AB000E0EBF0E08081826080838DE48093B3007E
:100AC000E0E7F0E08081826080831092B200E1EB89
:100AD000F0E080818560808308956115710511F0D3
:100AE0000C94FA02089593E2899FF0011124EC58C6
:100AF000FC4F80819181860F911D67FD9A959383AC
:100B000082838281938195838483089590917C0070
:100B10008F71907E892B80937C00109255031092E8
:100B20005403809156038823F9F040E080917A00C5
:100B3000806480937A0080917A0086FDFCCF80915A
:100B4000780050917900209154033091550390E042
:100B5000952B820F931F90935503809354034F5FFF
:100B600080915603481710F38091540390915503D8
:100B70006091560370E00E941428CB0108956F9293
:100B80007F929F92AF92BF92CF92DF92EF92FF92AD
:100B90000F931F93CF93DF93982EC82FD0E0FE01C1
:100BA000EE0FFF1FEE0FFF1FEC0FFD1FE65AFC4F6D
:100BB00084818111B8C08091B100887F8093B10099
:100BC00083E28C9F50018D9FB00C1124C5018C587D
:100BD0009C4F5C01FC01068D178D618972898389A8
:100BE00094892585368547855089C588D688E788C4
:100BF000F08C0E94312AA70196010E94312A6B01D4
:100C00007C0181E090E0F501978F868F05C068E355
:100C10007FEF892D0E94FA02892D0E948605C297D6
:100C2000B0F3C701B6010E94942A0E944F295B01CC
:100C3000612C712C0DC061E070E0892D0E94FA02D8
:100C4000892D0E948605C29730F0FFEF6F1A7F0A48
:100C50006A147B0481F720E030E040E85EE3C701DE
:100C6000B6010E94312A0E94942A0E944A296115E5
:100C7000710509F06AC020E030E040E45FE3C7019D
:100C8000B6010E94312A0E94942A0E944A29685C77
:100C900071096115710509F05CC083E28C9FF00158
:100CA0008D9FF00D1124EC58FC4F85E090E0978F5C
:100CB000868F05C061E070E0892D0E94FA02892DBF
:100CC0000E948605C397B0F783E28C9FF0018D9F49
:100CD000F00D1124EC58FC4F178F068F648175813D
:100CE0006115710571F583E28C9FF0018D9FF00D08
:100CF0001124EC58FC4F11821082138212828091D1
:100D0000B00082608093B0008DE48093B300809146
:100D100070008260809370001092B2008091B100E8
:100D200085608093B100DF91CF911F910F91FF906B
:100D3000EF90DF90CF90BF90AF909F907F906F909B
:100D40000895892D0E94FA02CECF892D0E94FA02C1
:100D500092CF892D0E94FA02A0CFAF92BF92CF927C
:100D6000DF92EF92FF920F931F93CF93DF93F8944C
:100D7000C4E7D3E048E1A42E40E0B42E5AE5C52EE6
:100D800053E0D52EE12CF12C00E010E0B801645ABC
:100D90007F4F42E050E0CE0104960E945D2FB701E4
:100DA000645B7F4F44E050E0CE010D960E945D2FC2
:100DB000B701645C7F4F44E050E0CE0141960E9451
:100DC0005D2FB701645D7F4F44E050E0CE01459652
:100DD0000E945D2FB701645E7F4F44E050E0CE017A
:100DE0004A960E945D2F41E050E0B501CE01499640
:100DF0000E945D2FB801605F7F4F42E050E0CE015E
:100E00004E960E945D2FB801685F7F4F42E050E030
:100E1000C6010E945D2FB8016050704042E050E072
:100E2000C60102960E945D2FA3960E5F1F4F84E0BD
:100E3000E80EF11C8FEFA81AB80A85E0C80ED11C85
:100E40000830110509F0A2CF7894DF91CF911F915E
:100E50000F91FF90EF90DF90CF90BF90AF900895EB
:100E60009F92AF92BF92CF92DF92EF92FF920F9339
:100E70001F93CF93DF93F894C4E7D3E07AE5A72ECE
:100E800073E0B72EE12CF12C00E010E0C12CD12C46
:100E90009924939442E050E0B801645A7F4FCE0108
:100EA00004960E944D2F44E050E0B701645B7F4FF1
:100EB000CE010D960E944D2F44E050E0B701645CD6
:100EC0007F4FCE0141960E944D2F44E050E0B70184
:100ED000645D7F4FCE0145960E944D2F44E050E067
:100EE000B701645E7F4FCE014A960E944D2F41E0CC
:100EF00050E0B601685E7F4FCE0149960E944D2FAB
:100F000042E050E0B801605F7F4FCE014E960E94F4
:100F10004D2F42E050E0B801685F7F4FC5010E944D
:100F20004D2F42E050E0B80160507040C50102967C
:100F30000E944D2FF601EE0FFF1FEE0FFF1FEC0D6D
:100F4000FD1DE65AFC4F2081318182819381281753
:100F5000390709F094828FEFC81AD80AA3960E5F5A
:100F60001F4F84E0E80EF11C85E0A80EB11C84E060
:100F7000C816D10409F08ECF7894DF91CF911F91DC
:100F80000F91FF90EF90DF90CF90BF90AF909F9028
:100F90000895CF93C82F5A9A0E94EC028C2F829505
:100FA000807F0E94EC0285EE90E00197F1F700C08F
:100FB0000000CF910895CF93C82F5A980E94EC0259
:100FC0008C2F8295807F0E94EC0281ED90E001974A
:100FD000F1F700C00000CF9108958AB18C6F8AB9F3
:100FE0008BB183708BB92FE58AEE90E02150804061
:100FF0009040E1F700C0000080E30E94EC0287EA25
:1010000091E60197F1F700C000005B9A95E89A9588
:10101000F1F700005B9887E893E10197F1F700C0D2
:1010200000005B9A95E89A95F1F700005B9887E8D5
:1010300093E10197F1F700C0000080E20E94EC020A
:1010400087EA91E60197F1F700C0000088E20E946C
:10105000DB078CE00E94DB0786E00E94DB0781E073
:101060000E94DB078FE097E20197F1F700C00000D4
:10107000089581E00E94DB078FE097E20197F1F786
:1010800000C00000089582E00E94DB078FE097E235
:101090000197F1F700C000000895623081F050F030
:1010A000633029F0643071F480530C94DB0780576F
:1010B0000C94DB07613039F480580C94DB078054C2
:1010C0000C94DB0708950895CF93DF93EC0188819A
:1010D000882331F021960E94C90789918111FBCFA5
:1010E000DF91CF910895EF92FF921F93CF93DF93FB
:1010F00000D0CDB7DEB728E0829FC0011124806404
:1011000069837A830E94DB076981E62E7A81F72E54
:1011100018E0F70181917F010E94C9071150C9F7BA
:101120000F900F90DF91CF911F91FF90EF90089556
:101130004F925F926F927F928F929F92AF92BF92E7
:10114000CF92DF92EF92FF920F931F93CF93DF9393
:1011500000D000D0CDB7DEB7F82ECB01BA01A9017F
:1011600098010E94312A4B015C0183E2F89E8001C4
:1011700011240C581C4FD80151966D917D918D9181
:101180009C9154971D962D913D914D915C91509756
:101190005596CD90DD90ED90FC9058970E94312AA5
:1011A000A70196010E94312A20E030E044EB53E48D
:1011B0000E94E2289B01AC01C501B4010E94312AC2
:1011C0000E94942A6B017C01F801628073800E9466
:1011D0004A29660D771DD80113967C936E9312975A
:1011E00016968D919D910D90BC91A02D89839A8327
:1011F000AB83BC83F80161897289838994892585D1
:10120000368547855089458856886788708C0E9446
:10121000312AA30192010E94312A20E030E044EB00
:1012200053E40E94E2289B01AC01C501B4010E9475
:10123000312AA70196010E9479289B01AC0169819E
:101240007A818B819C810E947A28D80116966D93B1
:101250007D938D939C9319970F900F900F900F9003
:10126000DF91CF911F910F91FF90EF90DF90CF9082
:10127000BF90AF909F908F907F906F905F904F90B6
:1012800008954F925F926F927F928F929F92AF924A
:10129000BF92CF92DF92EF92FF92CF93DF9300D075
:1012A00000D0CDB7DEB793E2899FF0011124EC584E
:1012B000FC4F458456846784708825893689478920
:1012C000508D81889288A388B488882777FD80957F
:1012D000982F29833A834B835C830E947D296B017D
:1012E0007C0129813A814B815C81C301B2010E945A
:1012F000312AA50194010E94312A9B01AC0160E0D2
:1013000070E084EB93E40E94E2289B01AC01C701EA
:10131000B6010E94312A0F900F900F900F90DF912D
:10132000CF91FF90EF90DF90CF90BF90AF909F90C4
:101330008F907F906F905F904F9008954F925F9243
:101340006F927F928F929F92AF92BF92CF92DF92D5
:10135000EF92FF920F931F93CF93DF9300D000D0B3
:10136000CDB7DEB7F82ECB01BA01A90198010E94D2
:10137000312A4B015C0183E2F89E800111240C5854
:101380001C4FD80151966D917D918D919C915497F0
:101390001D962D913D914D915C9150975596CD9014
:1013A000DD90ED90FC9058970E94312AA70196019C
:1013B0000E94312A20E030E040E05FE30E94312AC1
:1013C0009B01AC01C501B4010E94312A0E94942AFC
:1013D0006B017C01F801628073800E944A29660DCE
:1013E000771DD80113967C936E93129716968D9164
:1013F0009D910D90BC91A02D89839A83AB83BC8372
:10140000F8016189728983899489258536854785A4
:101410005089458856886788708C0E94312AA301BC
:1014200092010E94312A20E030E040E05FE30E9418
:10143000312A9B01AC01C501B4010E94312AA701E8
:1014400096010E9479289B01AC0169817A818B8188
:101450009C810E947A28D80116966D937D938D9376
:101460009C9319970F900F900F900F90DF91CF9151
:101470001F910F91FF90EF90DF90CF90BF90AF90B2
:101480009F908F907F906F905F904F9008954F92B4
:101490005F926F927F928F929F92AF92BF92CF9204
:1014A000DF92EF92FF92CF93DF9300D000D0CDB7C1
:1014B000DEB793E2899FF0011124EC58FC4F45847C
:1014C000568467847088258936894789508D81883C
:1014D0009288A388B488882777FD8095982F2983E0
:1014E0003A834B835C830E947D296B017C012981B7
:1014F0003A814B815C81C301B2010E94312AA5016E
:1015000094010E94312A9B01AC0160E070E080E010
:1015100090E40E94E2289B01AC01C701B6010E9441
:10152000312A0F900F900F900F90DF91CF91FF9085
:10153000EF90DF90CF90BF90AF909F908F907F9073
:101540006F905F904F900895F894613011F1A0F082
:10155000623081F493E2899FF0011124EC58FC4F32
:1015600064878081918193838283828193810197B3
:10157000938382837894089593E2899FF0011124E4
:10158000EC58FC4F148680819181938382837894F8
:10159000089593E2899FF0011124EC58FC4F648771
:1015A0008081918193838283828193810196938349
:1015B0008283E0CFE82FF0E0EE0FFF1FEE51FF4FE8
:1015C00085919491FC016591749180917203909141
:1015D00073030E943A2E68E071E08091720390914B
:1015E00073030E944C2E9093730380937203E091D7
:1015F000AE02F091AF02BC01808191810E945A2E0F
:1016000066E071E080E090E00E944C2E90937303BE
:1016100080937203E091AE02F091AF02BC0182812F
:1016200093810E945A2E80E090E030E2E091AE0279
:10163000F091AF02E80FF91FA081B181FD01019087
:101640000020E9F731972E2F2A1B203178F4E09102
:10165000AE02F091AF02E80FF91F0190F081E02D8A
:10166000E20FF11D30832F5F203189F7E091AE0248
:10167000F091AF02E80FF91F0190F081E02D108A80
:1016800002968430910591F608952F923F924F92E1
:101690005F926F927F928F929F92AF92BF92CF9202
:1016A000DF92EF92FF920F931F93CF93DF93CDB70B
:1016B000DEB727970FB6F894DEBF0FBECDBFE82F79
:1016C000F0E0EE0FFF1FEE51FF4F859194910296CF
:1016D000FC01849190E08C309105C8F5FC01E85C38
:1016E000FF4F0C947328E091AA02F091AB02A08105
:1016F000B18189E0E7EAF1E001900D928A95E1F786
:10170000E091AA02F091AB02A281B38189E0E0EB03
:10171000F1E001900D928A95E1F7E091AA02F09133
:10172000AB02A481B58189E0E5E9F1E001900D9279
:101730008A95E1F7E091AA02F091AB02A681B78108
:1017400089E0EEE9F1E001900D928A95E1F780E001
:1017500090E030E2E091AA02F091AB02E80FF91FAD
:10176000A081B181FD0101900020E9F731972E2F72
:101770002A1B283078F4E091AA02F091AB02E80F1E
:10178000F91F0190F081E02DE20FF11D30832F5FF2
:10179000283089F7E091AA02F091AB02E80FF91F17
:1017A0000190F081E02D108602968830910591F627
:1017B00027960FB6F894DEBF0FBECDBFDF91CF9155
:1017C0001F910F91FF90EF90DF90CF90BF90AF905F
:1017D0009F908F907F906F905F904F903F902F9051
:1017E0000895A12CB12C412C512C13E2812E05EC33
:1017F000C02E01E0D02E80ECE82E81E0F82E09EB1F
:1018000011E099E0992E38018091A70290E0042C14
:1018100002C0959587950A94E2F780FFA2C21EE761
:10182000F201EE0FFF1FEE0FFF1FE40DF51DE65A4C
:10183000FC4F84818111D1C2849CF001859CF00D04
:101840001124EC58FC4F82A1882309F47AC3849CAC
:10185000F001859CF00D1124EC58FC4F82A18130E1
:1018600009F4CFC3849CF001859CF00D1124EC5841
:10187000FC4F82A1823009F4ADC3AFEF4A1A5A0A75
:10188000B2E0AB0EB11CE4E04E16510409F0BCCF3F
:101890005ECFE091AA02F091AB02A081B18189E014
:1018A000EBECF1E001900D928A95E1F7E091AA024C
:1018B000F091AB02A281B38189E0E4EDF1E0019007
:1018C0000D928A95E1F72091A502E091AA02F0918C
:1018D000AB02822F992787FD90959F932F938DEDD3
:1018E00091E09F938F9385818F9384818F930E9442
:1018F000CD2EE091AA02F091AB02A681B78189E0DA
:10190000E5EEF1E001900D928A95E1F70F900F90CE
:101910000F900F900F900F901ACFE091AA02F091C4
:10192000AB02A081B18189E0EAE0F1E001900D9283
:101930008A95E1F7E091AA02F091AB02A281B3810E
:1019400089E0E3E1F1E001900D928A95E1F7E09101
:10195000AA02F091AB02A481B58188E0ECE1F1E04C
:1019600001900D928A95E1F7E091AA02F091AB0205
:10197000A681B78185E0E4E2F1E001900D928A95BD
:10198000E1F7E5CE00E010E0212C312C8091A70298
:1019900090E0022C02C0959587950A94E2F780FFAB
:1019A000DDC18091A40281112AC2FEE7FF8393E288
:1019B000929DF001939DF00D1124EC58FC4F818D08
:1019C000813009F41FC2823009F474C281111CC035
:1019D00080819181E091AA02F091AB029F938F9355
:1019E0001F92AF81AF93A9E2B1E0BF93AF93E00F35
:1019F000F11F81818F9380818F930E94CD2E0FB62E
:101A0000F894DEBF0FBECDBF9FEF291A390A0E5FD3
:101A10001F4FA4E02A16310409F0B8CF98CE812CCC
:101A2000912C412C512C43E2742E52E4E52E51E0CE
:101A3000F52E07E411E06CE4A62E61E0B62E73E506
:101A4000C72E71E0D72E8091A70290E0042C02C02F
:101A5000959587950A94E2F780FFA3C12EE7749CC1
:101A6000F001759CF00D1124EC58FC4F818D8823FA
:101A700009F499C1749CF001759CF00D1124EC5887
:101A8000FC4F818D813009F473C2749CF001759C08
:101A9000F00D1124EC58FC4F818D823009F482C284
:101AA000BFEF4B1A5B0AE2E08E0E911CF4E04F167A
:101AB000510449F64CCEC12CD12C33E2F32E0AE569
:101AC00011E08091A70290E00C2C02C095958795BB
:101AD0000A94E2F780FF49C12EE7FC9CF001FD9CCF
:101AE000F00D1124EC58FC4F868D978DE091AA02E1
:101AF000F091AB029F938F931F922F931F930F939D
:101B0000C601880F991FE80FF91F81818F9380818B
:101B10008F930E94CD2E2FEFC21AD20A0FB6F894DF
:101B2000DEBF0FBECDBF94E0C916D10451F60FCE73
:101B3000C12CD12C53E2F52E0CE711E08091A702C5
:101B400090E00C2C02C0959587950A94E2F780FFEF
:101B500026C12EE7FC9CF001FD9CF00D1124EC58F1
:101B6000FC4F85899689A789B08DE091AA02F091F2
:101B7000AB02BF93AF939F938F931F922F931F93AB
:101B80000F93C601880F991FE80FF91F81818F936A
:101B900080818F930E94CD2EBFEFCB1ADB0A0FB648
:101BA000F894DEBF0FBECDBFF4E0CF16D10431F6FE
:101BB000CECDC12CD12CB3E2FB2E02E611E08091F8
:101BC000A70290E00C2C02C0959587950A94E2F745
:101BD00080FFCDC02EE7FC9CF001FD9CF00D112490
:101BE000EC58FC4F828D938DA48DB58DE091AA02A7
:101BF000F091AB02BF93AF939F938F931F922F935C
:101C00001F930F93C601880F991FE80FF91F818159
:101C10008F9380818F930E94CD2EAFEFCA1ADA0A7C
:101C20000FB6F894DEBF0FBECDBFF4E0CF16D104DF
:101C300031F68DCD00E010E0A12CB12C73E7E72E3A
:101C400071E0F72EE9E0DE2E8091A70290E00A2CE9
:101C500002C0959587950A94E2F780FF9EC09EE7A3
:101C6000F501EE0FFF1FEE0FFF1FEA0DFB1DE65AF9
:101C7000FC4F8481E091AA02F091AB02882309F421
:101C800078C0E00FF11FA081B181EAE6F1E08D2D6F
:101C900001900D928A95E1F79FEFA91AB90A0E5F9C
:101CA0001F4FA4E0AA16B10479F651CDE091AA0223
:101CB000F091AB02A081B18189E0E3E8F1E001900D
:101CC0000D928A95E1F7E091AA02F091AB02A28110
:101CD000B38189E0ECE8F1E01CCDC12CD12C33E2DA
:101CE000F32E09E211E08091A70290E00C2C02C0D3
:101CF000959587950A94E2F780FF35C08091A402FC
:101D000081117BC02EE7FC9CF001FD9CF00D11249D
:101D1000EC58FC4F84819581E091AA02F091AB02CE
:101D20009F938F931F922F931F930F93C601880F3A
:101D3000991FE80FF91F81818F9380818F930E94F3
:101D4000CD2E2FEFC21AD20A0FB6F894DEBF0FBE07
:101D5000CDBF94E0C916D10431F6F9CC20E22F832F
:101D600026CE10E25DCD20E2CECF20E2B6CE20E23C
:101D700032CFBF92AF921F929F93FF92EF92E00FEC
:101D8000F11F81818F9380818F930E94CD2E0FB69A
:101D9000F894DEBF0FBECDBF7FCF90E261CF20E2CF
:101DA000D9CE20E25CCEE091AA02F091AB02FF9284
:101DB000EF921F922F931F930F93E80DF91D8181CE
:101DC0008F9380818F932E830E94CD2E0FB6F8942F
:101DD000DEBF0FBECDBF2E814DCEE091AA02F091A5
:101DE000AB02EA0DFB1DA081B181EAE6F1E0892D8D
:101DF00001900D928A95E1F740CD2EE384CF8EE3DA
:101E00008F83D5CD608171814584568467847088C5
:101E1000258936894789508D81889288A388B4881E
:101E2000A091AA02B091AB02BA83A9831F92BFED21
:101E3000BF93882777FD8095982F2E833B834C8313
:101E40005D830E947D296B017C012E813B814C8149
:101E50005D81C301B2010E94312AA50194010E9453
:101E6000312A9B01AC0160E070E084EB93E40E94B6
:101E7000E2289B01AC01C701B6010E94312A9F9361
:101E80008F937F936F931F92EF81EF93A0E3B1E065
:101E9000BF93AF93E981FA81E00FF11F81818F93A6
:101EA00080818F930E94CD2E0FB6F894DEBF0FBEB7
:101EB000CDBFAACD608171814584568467847088C6
:101EC000258936894789508D81889288A388B4886E
:101ED000A091AA02B091AB02BA83A9831F92B7EF77
:101EE000BF93882777FD8095982F2E833B834C8363
:101EF0005D830E947D296B017C012E813B814C8199
:101F00005D81C301B2010E94312AA50194010E94A2
:101F1000312A9B01AC0160E070E080E090E40E9417
:101F2000E2289B01AC01C701B6010E94312A9F93B0
:101F30008F937F936F931F92EF81EF93A9E3B1E0AB
:101F4000A7CFE091AA02F091AB021F921F937F925C
:101F50006F92EA0DFB1D81818F9380818F930E9488
:101F6000CD2E0F900F900F900F900F900F906FCC81
:101F7000E091AA02F091AB02BF92AF921F922F9311
:101F80001F930F93E80DF91D81818F9380818F93AB
:101F90002E830E94CD2E0FB6F894DEBF0FBECDBFAC
:101FA0002E8173CDE091AA02F091AB02DF92CF9225
:101FB0001F922F931F930F93E80DF91D81818F932B
:101FC00080818F930E94CD2E0FB6F894DEBF0FBE96
:101FD000CDBF66CDE091AA02F091AB021F921F9394
:101FE000DF92CF92EA0DFB1D81818F9380818F93C9
:101FF0000E94CD2E0F900F900F900F900F900F908A
:102000003CCCE091AA02F091AB021F921F93FF9289
:10201000EF92EA0DFB1D81818F9380818F930E9447
:10202000CD2E0F900F900F900F900F900F901ACC15
:10203000CF93DF938091A602823009F482C083306F
:1020400049F0813039F08091A3028093A602DF919C
:10205000CF9108958091A2020E94450BA091AA02FF
:10206000B091AB02E091A802F091A9026D917C9130
:10207000808191810E94512E892B09F016C1A09177
:10208000AA02B091AB02E091A802F091A9021296C7
:102090006D917C911397828193810E94512E892B9F
:1020A00009F0E0C0A091AA02B091AB02E091A802B1
:1020B000F091A90214966D917C9115978481958178
:1020C0000E94512E892B09F0AAC0A091AA02B091BA
:1020D000AB02E091A802F091A90216966D917C9155
:1020E0001797868197810E94512E892B09F4ABCFD7
:1020F00088EC0E94DB07E091AA02F091AB02C68156
:10210000D7818881882331F021960E94C90789915F
:102110008111FBCFA091AA02B091AB02E091A8027D
:10212000F091A90216966D917C91179786819781FF
:102130000E945A2E8091A3028093A602DF91CF9134
:1021400008959091A2028091A102981709F47BCF83
:102150008091A1020E94DA0A80E80E94DB07E091E8
:10216000AE02F091AF02C081D1818881882331F025
:1021700021960E94C90789918111FBCFA091AE02DF
:10218000B091AF02E091AC02F091AD026D917C9103
:10219000808191810E945A2E80EC0E94DB07E091A1
:1021A000AE02F091AF02C281D3818881882331F0E1
:1021B00021960E94C90789918111FBCFA091AE029F
:1021C000B091AF02E091AC02F091AD0212966D9128
:1021D0007C911397828193810E945A2E8091A10253
:1021E0008093A20280E090E028E0E091A802F091C4
:1021F000A902E80FF91FA081B181EEEEF1E0322FC4
:1022000001900D923A95E1F702968A30910569F7AF
:102210008091A3028093A602DF91CF91089580EC74
:102220000E94DB07E091AA02F091AB02C481D58144
:102230008881882331F021960E94C90789918111F4
:10224000FBCFA091AA02B091AB02E091A802F0915D
:10225000A90214966D917C911597848195810E94B5
:102260005A2E33CF88E80E94DB07E091AA02F09152
:10227000AB02C281D3818881882331F021960E94EC
:10228000C90789918111FBCFA091AA02B091AB023D
:10229000E091A802F091A90212966D917C9113979A
:1022A000828193810E945A2EFDCE80E80E94DB0736
:1022B000E091AA02F091AB02C081D181888188238C
:1022C00031F021960E94C90789918111FBCFA0911D
:1022D000AA02B091AB02E091A802F091A9026D911F
:1022E0007C91808191810E945A2EC9CE2F923F927B
:1022F0004F925F926F927F928F929F92AF92BF9216
:10230000CF92DF92EF92FF920F931F93CF93DF93C1
:102310008091A002811104C080915903882379F033
:102320002091A202C091A602C23009F445C0DC2F60
:10233000DD7FD130B9F01092A00210925903DF91E5
:10234000CF911F910F91FF90EF90DF90CF90BF90B2
:10235000AF909F908F907F906F905F904F903F9045
:102360002F9008958091A002811164C0C33019F7A5
:10237000F89480915903882309F489C0D0905803B8
:10238000109258037894DD20B1F2E091A202F0E0BF
:10239000EE0FFF1FEE51FF4F859194910296FC01C5
:1023A000849190E0FC013197EB30F10508F0C3CF48
:1023B000EC5BFF4F0C947328F894809159038823A9
:1023C00009F462C08091580310925803992787FD41
:1023D00090957894820F911D27FD9A956CE070E09E
:1023E0000E94282887FD24C08093A1028091A0022A
:1023F000811112C08091A002882309F49CCF0E9411
:102400005603811198CF8091A702882309F493CFB6
:1024100083E08093A3028FCF0E9456038111EACFFD
:102420008091A7028111E6CF81E08093A302E2CFE1
:102430008BE0DACF0E9456038430E1F008F41FC22B
:10244000863071F008F411C2873009F08FCF809187
:10245000A7028D278093A70283E08093A30286CFF3
:102460008091A70292E089278093A70283E080935E
:10247000A3027CCF8091A70298E089278093A702CE
:1024800083E08093A30272CF80E090E0A2CFD12CB2
:1024900079CF0E94AD0681E00E94DB07EFE0F7E212
:1024A0003197F1F700C00000C7EFD1E083E70E9449
:1024B000C90789918111FBCF3ECFC0E0D0E001E098
:1024C00010E08091A70290E00C2E02C095958795B0
:1024D0000A94E2F780FDE9C12196C430D10589F75D
:1024E00082E08093A3028091A2028F5F8093A20278
:1024F00022CFC0E0D0E023E2722E8D2C992487FCFD
:102500009094A92CB92C8091A70290E00C2E02C0C7
:10251000959587950A94E2F780FF21C07C9E800103
:102520007D9E100D11240C581C4FF801C28CD38CC9
:10253000E48CF58CC501B4010E947D2920E030E0D7
:1025400040E251E40E94E2289B01AC01C701B601C0
:102550000E947A28F801628F738F848F958F21965D
:10256000C430D10581F6E7CEE12CF12C13E2809145
:10257000A70290E00E2C02C0959587950A94E2F789
:1025800080FF44C01E9DE0011F9DD00D1124CC583A
:10259000DC4F6D897E898F89988D1D140CF007C2E0
:1025A0009B01AC010E947A286D8B7E8B8F8B988F5C
:1025B0001E9DE0011F9DD00D1124CC58DC4F6D896C
:1025C0007E898F89988D20E030E040E85FE30E94AB
:1025D000DE2887FDE3C11E9DE0011F9DD00D112463
:1025E000CC58DC4F6D897E898F89988D20E030E052
:1025F00040E052E40E942D2A181644F480E090E056
:10260000A0E0B2E48D8B9E8BAF8BB88F8FEFE81A72
:10261000F80A94E0E916F10409F0A9CF8CCE64E63B
:10262000D69E602D1124772767FD709580E090E09D
:10263000A3E24D2D552747FD50952091A70230E08C
:10264000082E02C0359527950A94E2F720FF16C0A0
:102650002091A402A89FF001A99FF00D1124EC582D
:10266000FC4F222309F48FC120813181260F371FAF
:1026700033832283228133813583248301968430FE
:102680009105D9F658CE0E94300781E00E94DB0701
:102690008FE097E20197F1F700C00000CDEFD1E0A5
:1026A0008CE60E94C90789918111FBCF44CE80E05E
:1026B00090E0A3E24D2D552747FD509561E070E075
:1026C0002091A70230E0082E02C0359527950A9484
:1026D000E2F720FF22C0A89FF001A99FF00D11246E
:1026E000EC58FC4F268D378D240F351F378F268FE2
:1026F000268D378D232B11F4778F668FA89FF001DD
:10270000A99FF00D1124EC58FC4F268D378D220F18
:10271000331F2150310931A320A301968430910544
:1027200079F609CE80E090E043E252E02091A702E2
:1027300030E0082E02C0359527950A94E2F720FF75
:1027400018C0489FF001499FF00D1124EC58FC4F30
:10275000218D2D0D218F218D27FD34C1489FF00142
:10276000499FF00D1124EC58FC4F218D23300CF0C3
:10277000118E019684309105C9F6DDCD2D2C3324C0
:1027800027FC3094FD2D24E6F20270011124C0E0F4
:10279000D0E013E2C12E4D2C552447FC5094652CFB
:1027A000752C8091A70290E00C2E02C0959587951C
:1027B0000A94E2F780FF11C0CC9EF001CD9EF00D8F
:1027C0001124EC58FC4F818D813009F463C18230B3
:1027D00009F44AC1882309F43BC12196C430D105CC
:1027E00001F7A9CDC0E0D0E013E202E08C2F2091E8
:1027F000A70230E00C2E02C0359527950A94E2F727
:1028000020FF2EC0FE01EE0FFF1FEE0FFF1FEC0F8B
:10281000FD1FE65AFC4F948191118DCD1C9FF00154
:102820001D9FF00D1124EC58FC4F92A19D0D92A319
:1028300092A197FD0BC11C9FF0011D9FF00D11246B
:10284000EC58FC4F92A193300CF012A21C9FF001A7
:102850001D9FF00D1124EC58FC4F62A10E94A40AA8
:102860002196C430D10511F666CD8091A70294E07F
:1028700089278093A70283E08093A30277CD8823E2
:1028800071F0833009F072CD82E08093A3028091D1
:10289000A2028F5F8093A2021092A40267CD809162
:1028A000A4028D278093A40261CD8C2F0E94BF05C6
:1028B0002091A702C8010C2E01C0880F0A94EAF7E4
:1028C00028272093A7020E94181006CE1D140CF092
:1028D000FBC08091A5028F5F8093A5028091A50225
:1028E000803114F01092A5028091A502992787FDEE
:1028F0009095FC01EE0FFF1F880F991F880F991FFD
:10290000880F991FE80FF91FEC54FD4F8081882331
:1029100001F38091A502992787FD9095FC01EE0FA8
:10292000FF1F880F991F880F991F880F991FE80FA5
:10293000F91FEC54FD4F8185811146C080E090E085
:1029400043E22091A502332727FD3095F901EE0FD0
:10295000FF1FEE0FFF1FE20FF31FE80FF91FEE0F2F
:10296000FF1FEC54FD4F21813281489FF001499FA8
:10297000F00D1124EC58FC4F3383228301968430F0
:102980009105F9F6D8CC20813181240F351F33838E
:102990002283228133813583248370CE80E090E0CE
:1029A000A0E8BFE38D8B9E8BAF8BB88F14CE20E059
:1029B00030E040E05FE30E94312A6D8B7E8B8F8B8D
:1029C000988FF6CD518FCACE8091A502992787FDA9
:1029D0009095FC01EE0FFF1F880F991F880F991F1C
:1029E000880F991FE80FF91FEC54FD4F8185813046
:1029F00009F0A1CC80E090E063E2689FD001699F7C
:102A0000B00D1124AC58BC4F2D913C9111974091C1
:102A1000A502552747FD5095FA01EE0FFF1FEE0F57
:102A2000FF1FE40FF51FE80FF91FEE0FFF1FEC5417
:102A3000FD4F41815281240F351F13963C932E93F5
:102A40001297019684309105C1F675CC02A3F3CE9E
:102A50008091A402882309F45AC0828193818E0D4B
:102A60009F1D93838283B9CE828C938CA48CB58C6A
:102A7000C301B2010E947D2920E030E040E05EE326
:102A80000E94312AAB01BC01950184018C2F0E9468
:102A90009E09A3CE8091A402828C938CA48CB58CC9
:102AA0008823E1F1C301B2010E947D2920E030E0DA
:102AB00040E251E40E94312AAB01BC01950184013E
:102AC0008C2F0E94980889CE2FE015C08091A50216
:102AD000992787FD9095FC01EE0FFF1F880F991F26
:102AE000880F991F880F991FE80FF91FEC54FD4FAD
:102AF000808181110ECF8091A50281508093A50223
:102B00008091A50287FFE2CF2093A502DFCF8281CB
:102B10009381820D931D938382835FCEC301B201A3
:102B20000E947D29AB01BC01950184018C2F0E947C
:102B3000980853CE14B88FEF85B984B5826084BDF0
:102B400088EC87BDEEE6F0E080818260808316BC71
:102B500085B5856085BD08958091A002811102C070
:102B60008AE208950C945603F894809159038823BF
:102B700031F080915803109258037894089580E0C2
:102B800078940895CF93DF93F894C0EBD2E0E88176
:102B9000F981A0910004B091010480E401900D92AC
:102BA0008A95E1F781E080930204E881F98180E46D
:102BB000DF011D928A95E9F71092B3021092B202DA
:102BC0007894DF91CF910895AF92BF92CF92DF9228
:102BD000EF92FF920F931F93CF93DF93F89480911E
:102BE0000204882309F467C08091000490910104D5
:102BF00063E072E00E944C2E6C01E0919802F0912B
:102C0000990200811181C4E3D2E0B12C50E8A52ED5
:102C1000FE01E590F490F70165917491C8010E945E
:102C20003A2EA0919802B09199020D911C91B80191
:102C3000C6010E94512E892B31F4F7013396A490DE
:102C4000F7013296B490229682E0C237D80701F796
:102C5000BB20C9F0C1E063E072E080E090E00E9438
:102C60004C2E2C2F30E0220F331FE0919802F09170
:102C70009902E20FF31FBC01808191810E945A2EBC
:102C8000CF5FBC1640F7E0910004F091010480E4AE
:102C9000DF011D928A95E9F71092020478948A2D3B
:102CA000DF91CF911F910F91FF90EF90DF90CF9028
:102CB000BF90AF90089580E8A82EF0CF3F924F923A
:102CC0005F926F927F928F929F92AF92BF92CF92BC
:102CD000DF92EF92FF920F931F93CF93DF9300D079
:102CE00000D0CDB7DEB78B017A014AE050E060E05A
:102CF00070E00E94042C362E83E0831508F482C015
:102D000068E072E0C7010E94512E892B09F490C03F
:102D10006EE072E0C7010E94512E892B09F162E139
:102D200072E0C7010E94512E892B09F495C085E1FC
:102D300092E00F900F900F900F90DF91CF911F9125
:102D40000F91FF90EF90DF90CF90BF90AF909F904A
:102D50008F907F906F905F904F903F900C94DF0426
:102D600083E2389EF0011124EC58FC4F60817181A0
:102D70004584568467847088258936894789508DB3
:102D800081889288A388B488882777FD8095982FBA
:102D900029833A834B835C830E947D296B017C01EC
:102DA00029813A814B815C81C301B2010E94312AA1
:102DB000A50194010E94312A9B01AC0160E070E002
:102DC00084EB93E40E94E2289B01AC01C701B601A9
:102DD0000E94312A9B01AC01C80129833A834B83AD
:102DE0005C830E94382D29813A814B815C810E944D
:102DF0007928AB01BC0100E010E020E83FE3832D1F
:102E00000E9498080F900F900F900F90DF91CF9134
:102E10001F910F91FF90EF90DF90CF90BF90AF90F8
:102E20009F908F907F906F905F904F903F9008950C
:102E3000E32CF12C4AE050E060E070E0C8010E9411
:102E4000042C23E22E9DF0012F9DF00D1124EC584F
:102E5000FC4F73836283D6CF83E2389EF001112446
:102E6000EC58FC4F6081718145845684678470887A
:102E7000258936894789508D81889288A388B488AE
:102E8000882777FD8095982F29833A834B835C832D
:102E90000E947D296B017C0129813A814B815C81F3
:102EA000C301B2010E94312AA50194010E94312A76
:102EB0009B01AC0160E070E080E090E40E94E228B9
:102EC0009B01AC01C701B6010E94312A9B01AC01F4
:102ED000C80129833A834B835C830E94382D298162
:102EE0003A814B815C810E947928AB01BC0100E0F2
:102EF00010E020E83FE3832D0E949E0983CFAF922C
:102F0000BF92DF92EF92FF920F931F93CF93DF93C5
:102F10007B01EA014AE050E060E070E00E94042C8E
:102F2000D62E83E08D15A8F068E072E0CE010E94F5
:102F3000512E892BC9F16EE072E0CE010E94512E14
:102F4000892BF1F062E172E0CE010E94512E892BB3
:102F500051F0DF91CF911F910F91FF90EF90DF9093
:102F6000BF90AF900895C7010E94382DAB01BC01FE
:102F700000E010E020E83FE38D2D0E949E09E9CF9C
:102F8000C7010E94382DAB01BC0100E010E020E831
:102F90003FE38D2D0E94980862E172E0CE010E940D
:102FA000512E892BB1F6DFCFE3E2DE9E80011124A2
:102FB0000C581C4FF801A280B3804AE050E060E05A
:102FC00070E0C7010E94042C6A0D7B1DF801738319
:102FD00062836EE072E0CE010E94512E892B09F0CF
:102FE000B1CFCECF1F93CF93DF93EB014AE050E0F8
:102FF00060E070E00E94042C162F4AE050E060E090
:1030000070E0CE010E94042C143080F4611107C0DE
:1030100060E0812FDF91CF911F910C94FF0461E05C
:10302000812FDF91CF911F910C94FF04DF91CF91FD
:103030001F9108954F925F926F927F928F929F920D
:10304000AF92BF92CF92DF92EF92FF920F931F93B6
:10305000CF93DF9300D000D0CDB7DEB77B014AE03D
:1030600050E060E070E00E94042C162F643008F0FD
:1030700080C068E072E0C7010E94512E892B09F4DC
:10308000C9C06EE072E0C7010E94512E892B09F47D
:1030900085C062E172E0C7010E94512E892B09F4BC
:1030A00082C083E2189FF0011124EC58FC4F60812C
:1030B000718145845684678470882589368947895B
:1030C000508D81889288A388B48800916E031091F6
:1030D0006F03882777FD8095982F29833A834B8348
:1030E0005C830E947D296B017C0129813A814B819F
:1030F0005C81C301B2010E94312AA50194010E94A2
:10310000312A9B01AC0160E070E084EB93E40E9403
:10311000E2289B01AC01C701B6010E94312A9F93AE
:103120008F937F936F9388E392E09F938F931F9386
:103130000F930E94CD2E0FB6F894DEBF0FBECDBF09
:1031400080916E0390916F030F900F900F900F90EE
:10315000DF91CF911F910F91FF90EF90DF90CF9073
:10316000BF90AF909F908F907F906F905F904F90A7
:10317000089580916E0390916F031F921F9321E237
:1031800032E03F932F939F938F930E94CD2E0F9009
:103190000F900F900F900F900F90D2CF93E2199F46
:1031A000F001112482CF83E2189FF0011124EC5822
:1031B000FC4F6081718145845684678470882589BD
:1031C00036894789508D81889288A388B488009178
:1031D0006E0310916F03882777FD8095982F2983C0
:1031E0003A834B835C830E947D296B017C0129819A
:1031F0003A814B815C81C301B2010E94312AA50151
:1032000094010E94312A9B01AC0160E070E080E0F3
:1032100090E47DCF83E2189FF0011124EC58FC4F1D
:103220002081318180916E0390916F033F932F93A2
:1032300025E332E0A6CF4AE050E060E070E00E9473
:10324000042C643018F583E2689FF0011124EC58D7
:10325000FC4F2281338180819181E0916E03F09156
:103260006F032817390749F081E390E09183808349
:1032700080916E0390916F03089580E390E09183B5
:10328000808380916E0390916F03089580916E0307
:1032900090916F031F926F9321E232E03F932F933F
:1032A0009F938F930E94CD2E0F900F900F900F90B1
:1032B0000F900F9080916E0390916F0308954AE0F4
:1032C00050E060E070E00E94042C6430E0F4862F4F
:1032D0000E94860520916E0330916F039F938F9318
:1032E00085E392E09F938F933F932F930E94CD2E7F
:1032F0000F900F900F900F900F900F9080916E0392
:1033000090916F03089520916E0330916F031F9287
:103310006F9381E292E0E6CF4AE050E060E070E037
:103320000E94042C643008F583E2689FF0011124A8
:10333000EC58FC4F2481358180916E0390916F038E
:103340003F932F9325E332E03F932F939F938F93E7
:103350000E94CD2E0F900F900F900F900F900F9016
:1033600080916E0390916F03089580916E03909108
:103370006F031F926F9321E232E0E6CF1F93CF934A
:10338000DF93EB014AE050E060E070E00E94042C23
:10339000162F643098F44AE050E060E070E0CE010F
:1033A0000E94042C23E2129FF0011124EC58FC4FE0
:1033B00075836483DF91CF911F91089580916E038F
:1033C00090916F031F921F9321E232E03F932F935E
:1033D0009F938F930E94CD2E80916E0390916F03E7
:1033E0000F900F900F900F900F900F90DF91CF9153
:1033F0001F910C94DF044AE050E060E070E00E940E
:10340000042C643038F583E2689FF0011124EC58F5
:10341000FC4F85859685A785B08920916E033091F4
:103420006F03BF93AF939F938F9388E392E09F9333
:103430008F933F932F930E94CD2E8DB79EB7089602
:103440000FB6F8949EBF0FBE8DBF80916E03909112
:103450006F03089580916E0390916F031F926F9395
:1034600021E232E03F932F939F938F930E94CD2EC2
:103470000F900F900F900F900F900F9080916E0310
:1034800090916F0308951F93CF93DF93EB014AE070
:1034900050E060E070E00E94042C162F643088F445
:1034A000CE010E94382D23E2129FF0011124EC5826
:1034B000FC4F658776878787908BDF91CF911F912F
:1034C000089580916E0390916F031F921F9321E2E4
:1034D00032E03F932F939F938F930E94CD2E809144
:1034E0006E0390916F030F900F900F900F900F90BD
:1034F0000F90DF91CF911F910C94DF044AE050E0D0
:1035000060E070E00E94042C643038F583E2689F2C
:10351000F0011124EC58FC4F81899289A389B48968
:1035200020916E0330916F03BF93AF939F938F935E
:103530008EE791E09F938F933F932F930E94CD2E20
:103540008DB79EB708960FB6F8949EBF0FBE8DBF7D
:1035500080916E0390916F03089580916E03909116
:103560006F031F926F9321E232E03F932F939F935B
:103570008F930E94CD2E0F900F900F900F900F9071
:103580000F9080916E0390916F0308951F93CF93D6
:10359000DF93EB014AE050E060E070E00E94042C11
:1035A000162F643088F4CE010E94382D23E2129F3A
:1035B000F0011124EC58FC4F618B728B838B948B40
:1035C000DF91CF911F91089580916E0390916F03C9
:1035D0001F921F9321E232E03F932F939F938F938B
:1035E0000E94CD2E80916E0390916F030F900F90EB
:1035F0000F900F900F900F90DF91CF911F910C942F
:10360000DF044AE050E060E070E00E94042C643087
:1036100038F583E2689FF0011124EC58FC4F85894E
:103620009689A789B08D20916E0330916F03BF9367
:10363000AF939F938F938EE791E09F938F933F93E8
:103640002F930E94CD2E8DB79EB708960FB6F89493
:103650009EBF0FBE8DBF80916E0390916F03089542
:1036600080916E0390916F031F926F9321E232E07D
:103670003F932F939F938F930E94CD2E0F900F9087
:103680000F900F900F900F9080916E0390916F03A9
:1036900008951F93CF93DF93EB014AE050E060E081
:1036A00070E00E94042C162F643088F4CE010E9432
:1036B000382D23E2129FF0011124EC58FC4F658B4A
:1036C000768B878B908FDF91CF911F91089580919A
:1036D0006E0390916F031F921F9321E232E03F939C
:1036E0002F939F938F930E94CD2E80916E03909184
:1036F0006F030F900F900F900F900F900F90DF912E
:10370000CF911F910C94DF044AE050E060E070E03C
:103710000E94042C643008F583E2689FF0011124B4
:10372000EC58FC4F268D378D80916E0390916F037E
:103730003F932F9325E332E03F932F939F938F93F3
:103740000E94CD2E0F900F900F900F900F900F9022
:1037500080916E0390916F03089580916E03909114
:103760006F031F926F9321E232E0E6CF0F931F9316
:10377000CF93DF931F92CDB7DEB78B014AE050E0C5
:1037800060E070E00E94042C643098F4C801698302
:103790000E943C2D698123E2629FF0011124EC58C4
:1037A000FC4F978F868F0F90DF91CF911F910F91D4
:1037B0000895A0916E03B0916F0383E1EBE3F2E013
:1037C00001900D928A95E1F780916E0390916F03BD
:1037D0000F90DF91CF911F910F910C94DF042F92E6
:1037E0003F924F925F926F927F928F929F92AF9291
:1037F000BF92CF92DF92EF92FF920F931F93CF93DE
:10380000DF9300D000D0CDB7DEB78B017A014AE05C
:1038100050E060E070E00E94042C643008F0B7C013
:10382000262E312CF101EE0FFF1FEE0FFF1FE20DD0
:10383000F31DE65AFC4F84818823B9F00F900F9056
:103840000F900F90DF91CF911F910F91FF90EF900C
:10385000DF90CF90BF90AF909F908F907F906F90B0
:103860005F904F903F902F900895C7010E94382D90
:103870006B017C016BEB71E0C8010E94512E892B1A
:1038800009F4D7C083E2829D9001839D300D1124FD
:103890002C583C4FD9011D968D909D90AD90BC90B9
:1038A000509751964D905D906D907C9054975596A1
:1038B0008D919D910D90BC91A02D89839A83AB83AE
:1038C000BC83C701B6019F7720E030E04AE754E4AB
:1038D0000E94312A6B017C01A3019201C501B40150
:1038E0000E94312A29813A814B815C810E94312AD0
:1038F0009B01AC01C701B6010E94E2280E94942AF4
:103900000E944F296B017C01CB01009709F478C01C
:103910006031B7E27B0708F061C068EC71E0C80174
:103920000E94512E892BA9F483E2829DF001839D90
:10393000F00D1124EC58FC4F81E08487D78EC68EA1
:103940008081918193838283828193810196938385
:10395000828367EC71E0C8010E94512E892B09F027
:103960006DCF83E2829DF001839DF00D1124EC5810
:10397000FC4F82E08487D78EC68E808191819383AD
:1039800082838281938101979383828357CFA09111
:103990006E03B0916F0383E1EBE3F2E001900D92CF
:1039A0008A95E1F780916E0390916F030F900F90CD
:1039B0000F900F90DF91CF911F910F91FF90EF909B
:1039C000DF90CF90BF90AF909F908F907F906F903F
:1039D0005F904F903F902F900C94DF04A0916E0366
:1039E000B0916F0383E1E2E6F2E001900D928A95D7
:1039F000E1F780916E0390916F030E94DF048DCFF9
:103A000080916E0390916F031F921F922EE432E01B
:103A10003F932F939F938F930E94CD2E80916E039F
:103A200090916F030F900F900F900F900F900F9049
:103A3000BDCFF89483E2829DF001839DF00D1124A7
:103A4000EC58FC4F148683E090E0978F868F80813E
:103A50009181938382837894F1CEF8940E947303CA
:103A60000E94AD0678940895EF92FF920F931F93F2
:103A7000CF93DF931F92CDB7DEB77B018A014AE077
:103A800050E060E070E00E94042C643068F5C701EB
:103A900069830E943C2D7C01C8010E943C2D6981F4
:103AA000E816F906C9F18E159F05C4F470E0FB0114
:103AB000EE0FFF1FEE0FFF1FE60FF71FE65AFC4F3A
:103AC00091838083F382E28281E084830F90DF918F
:103AD000CF911F910F91FF90EF900895382F292FCC
:103AE000C701E32EF22EE2CFA0916E03B0916F03D7
:103AF00083E1EBE3F2E001900D928A95E1F780918A
:103B00006E0390916F030F90DF91CF911F910F91F2
:103B1000FF90EF900C94DF0470E0FB01EE0FFF1FAD
:103B2000EE0FFF1FE60FF71FE65AFC4F11821082BF
:103B30001382128214820F90DF91CF911F910F9107
:103B4000FF90EF9008951F93CF93DF93EB014AE02E
:103B500050E060E070E00E94042C162F6430B8F44E
:103B60004AE050E060E070E0CE010E94042C812F1A
:103B700090E0FC01EE0FFF1FEE0FFF1FE80FF91F93
:103B8000E65AFC4F6483DF91CF911F910895A09175
:103B90006E03B0916F0383E1EBE3F2E001900D92CD
:103BA0008A95E1F780916E0390916F03DF91CF9139
:103BB0001F910C94DF046F927F928F929F92AF922D
:103BC000BF92CF92DF92EF92FF920F931F93CF930A
:103BD000DF936B01EA0159014AE050E060E070E0D8
:103BE0000E94042C662E2FE0261700F165E772E094
:103BF000C7010E94512E712C892B39F5F301EE0F6C
:103C0000FF1F660C771C660C771C660C771CE60D94
:103C1000F71DEC54FD4F108281E0818712821182E2
:103C2000148213821682158210861782DF91CF913B
:103C30001F910F91FF90EF90DF90CF90BF90AF90CA
:103C40009F908F907F906F9008954AE050E060E0E1
:103C500070E0C6010E94042C4301880C991C660C7C
:103C6000771C660C771C660C771C6401C60CD71C8D
:103C7000F601EC54FD4F6F01728361834AE050E01E
:103C800060E070E0CE010E94042CF601748363832F
:103C90004AE050E060E070E0C5010E94042CF601AB
:103CA000768365834AE050E060E070E0C8010E94DE
:103CB000042CF6017087678381E080836AE772E0F5
:103CC000C7010E94512E892B11F4F60111866EE76F
:103CD00072E0C7010E94512E892B09F0A7CFF40191
:103CE000E60DF71DEC54FD4F81E081879FCF4AE040
:103CF00050E060E070E00E94042C643008F583E23C
:103D0000689FF0011124EC58FC4F8385E0916E030D
:103D1000F0916F0381110AC080E390E0918380836A
:103D200080916E0390916F030C94DF0481E390E027
:103D30009183808380916E0390916F030C94DF04D4
:103D4000A0916E03B0916F0383E1EBE3F2E0019089
:103D50000D928A95E1F780916E0390916F030C9418
:103D6000DF040F931F93CF93DF93C0E0D0E002E80E
:103D700012E08C2F9D2FFC01EE0FFF1F880F991F63
:103D8000880F991F880F991FE80FF91FEC54FD4FFA
:103D900040818C2F9D2FFC01EE0FFF1F880F991F74
:103DA000880F991F880F991FE80FF91FEC54FD4FDA
:103DB00051858C2F9D2FFC01EE0FFF1F880F991F3F
:103DC000880F991F880F991FE80FF91FEC54FD4FBA
:103DD000278130858C2F9D2FFC01EE0FFF1F880F50
:103DE000991F880F991F880F991FE80FF91FEC542E
:103DF000FD4F658176818C2F9D2FFC01EE0FFF1FFB
:103E0000880F991F880F991F880F991FE80FF91FB6
:103E1000EC54FD4FA381B4818C2F9D2FFC01EE0F3C
:103E2000FF1F880F991F880F991F880F991FE80F90
:103E3000F91FEC54FD4F0180F281E02D80916E035B
:103E400090916F031F924F931F925F933F932F9315
:103E50007F936F93BF93AF93FF93EF93DF93CF93D2
:103E60001F930F939F938F930E94CD2E80916E038B
:103E700090916F030E94DF0421968DB79EB7429602
:103E80000FB6F8949EBF0FBE8DBFC031D10509F0AB
:103E900070CFDF91CF911F910F9108951F920F92D4
:103EA0000FB60F9211248F939F93EF93FF938091FE
:103EB000C6009091B20291111CC08D3009F18A3078
:103EC00021F09091B302903420F1E091B002F09192
:103ED000B1028091B302E80FF11D108281E080935E
:103EE000B2028091C00085FFFCCF86E08093C600BF
:103EF00007C08091C00085FFFCCF85E18093C6009C
:103F0000FF91EF919F918F910F900FBE0F901F9097
:103F10001895E091B002F091B1029091B302E90FCF
:103F2000F11D80838091B3028F5F8093B302E8CF4D
:103F30001F920F920FB60F9211248F939F93EF93BE
:103F4000FF9393B18091A002811139C080919F02AB
:103F5000882309F43DC080919E02891709F442C06C
:103F600010929E0210929F02E0919A02F0919B02A1
:103F7000EE0FFF1FEE0FFF1FEF70FF27F0939B0266
:103F8000E0939A02199B05C0E260F0939B02E093D4
:103F90009A021A9B05C0E160F0939B02E0939A029B
:103FA000EE0FFF1FEC5BFB4FE491EE2341F080919D
:103FB00058038E0F8093580381E080935903FF913B
:103FC000EF919F918F910F900FBE0F901F901895BA
:103FD00080919E02891741F290939E0281E0809326
:103FE0009F02C2CF81E08093A002BCCF1F920F92AC
:103FF0000FB60F9211242F923F924F925F926F92C1
:104000007F928F929F92AF92BF92CF92DF92EF9268
:10401000FF920F931F932F933F934F935F936F9351
:104020007F938F939F93AF93BF93EF93FF93CF9320
:10403000DF93CDB7DEB76A97DEBFCDBF9E012F5F9E
:104040003F4F4901CE0141961C01A12CB12CE12C1E
:10405000F12C198E1A8E93E29E9D80019F9D100D6A
:1040600011240C581C4FD8011296CD90DC90139758
:104070008D919C911197C81AD90AF101C192D192E0
:104080001F011D966D917D918D919C915097519638
:104090002D913D914D915C91549755964D905D9029
:1040A0006D907C9058970E94312AA30192010E9442
:1040B000312AD4016D937D938D939D934D01C1144D
:1040C000D10409F449C0F80180A191A1892B09F418
:1040D000F8C080A191A1019791A380A36681778107
:1040E0008085918520E030E040E85FE30E942D2A42
:1040F0001816DCF4D80112968D919C9113970196B5
:1041000013969C938E93129716966D917D918D9137
:104110009C91199720E030E040E85FE30E94792805
:10412000F8016683778380879187F3E2FE9D8001A3
:10413000FF9D100D11240C581C4FD80116966D913F
:104140007D918D919C91199720E030E040E85FEBE4
:104150000E94DE2887FD39C13FEFE31AF30A82E0AF
:10416000A80EB11C94E0E916F10409F074CF88B1EF
:10417000AA8D8A2B88B9B1E2BA95F1F7000088B10F
:10418000E98D8E2B88B9FDE0FA95F1F7000018B89B
:104190009E012F5E3F4F6901CE0101965C0100E058
:1041A00010E023E2922E909E7001919EF00C11245B
:1041B000D701AC58BC4F7D011A968C911A97882371
:1041C00009F44AC0F60180819181181619060CF095
:1041D000A3C06D917C91D5014D905D906D907C90C8
:1041E0006F5F7F4F882777FD8095982F0E947D29EC
:1041F000A30192010E942D2A181694F4F70111824E
:10420000108222803380C301B2010E94942A0E944E
:104210004A29261A370AD70113963C922E921297F2
:10422000909EF001919EF00D1124EC58FC4F80817E
:1042300091810196918380838485882329F08281EE
:104240009381019693838283909EF001919EF00D5D
:104250001124EC58FC4F12860F5F1F4FF4E0AF0E95
:10426000B11C22E0C20ED11C0430110509F09BCF15
:104270006A960FB6F894DEBF0FBECDBFDF91CF9127
:10428000FF91EF91BF91AF919F918F917F916F912E
:104290005F914F913F912F911F910F91FF90EF9060
:1042A000DF90CF90BF90AF909F908F907F906F9056
:1042B0005F904F903F902F900F900FBE0F901F90E8
:1042C000189521E0F8012287F701EE0FFF1FEE0F8E
:1042D000FF1FEE0DFF1DE65AFC4F8481D7FC51C035
:1042E00081113AC081E090E00A2C01C0880F0A9445
:1042F000EAF7B98DB82BB98F23E22E9DF0012F9DDF
:10430000F00D1124EC58FC4F868D978D880F991F66
:10431000019791A380A320CF892B09F495CFFD01AC
:1043200080819181181619060CF071C0909EF001E1
:10433000919EF00D1124EC58FC4F808191810197E2
:10434000918380838485882309F47ECF8281938141
:1043500001979383828378CFD8018D919C91119797
:104360002081318101968217930709F0BBCF8D918F
:104370009C91119713969C938E9312971A961C9268
:10438000B1CF882351F0D8018D919C911197228152
:10439000338101968217930781F1C5010196E1E00F
:1043A000F0E002C0EE0FFF1F8A95E2F7CF01FA8D11
:1043B000F82BFA8F81E090E00A2C01C0880F0A9454
:1043C000EAF7298D282B298F97CFF80182819381D5
:1043D000019793838283668177818085918520E030
:1043E00030E040E85FE30E947A28D80116966D938A
:1043F0007D938D939C931997AFCE8D919C9111973E
:1044000013969C938E9312971A961C92C6CFD50141
:104410006D917D918D919C910E94942A0E944A29D0
:10442000F7017183608322813381260F371F338325
:1044300022837CCFA3E1B0E0E0E2F2E20C943C28DE
:104440007C011B016A01FC0117821682838181FFB6
:1044500066C3BE016F5F7F4F4B01F7019381F1018E
:1044600093FD859193FF81911F01882309F453C324
:10447000853239F493FD859193FF81911F01853237
:1044800039F4B70190E00E949B2E56016501E5CFFB
:1044900010E0512C20E02032A0F48B3269F030F48F
:1044A000803259F0833269F420612CC08D3239F0AA
:1044B000803339F4216026C02260246023C0286044
:1044C00021C027FD27C030ED380F3A3078F426FFA1
:1044D00006C0FAE01F9F300D1124132F13C06AE0AD
:1044E000569E300D1124532E20620CC08E3221F4C2
:1044F00026FD11C3206406C08C3611F4206802C06A
:10450000883641F4F10193FD859193FF81911F015C
:104510008111C1CF9BEB980F933018F42061805E1E
:1045200006C09BE9980F933008F0AAC12F7E26FFA2
:1045300016E02F73722E853621F4F22FF0647F2E51
:1045400008C0863621F4622F6068762E02C01111F1
:10455000115077FE07C01C3348F444244394410EA5
:1045600027E00BC0183030F4212F06C027E04CE3C1
:10457000442E03C027E017E0412C560174E0A70E3B
:10458000B11CF6016081718182819381042DA401A7
:104590000E945A2D6C01098100FF02C003FF06C072
:1045A00071FC07C072FC08C0612C08C03DE2632E9C
:1045B00005C02BE2622E02C090E2692E802F8C7023
:1045C00099F1662011F084E001C083E0851510F0B8
:1045D000512C0BC0581A73FC08C0B70180E290E060
:1045E0000E949B2E5A94C9F7F3CF662029F0B70199
:1045F000862D90E00E949B2E03FD03C00EED10E07F
:1046000002C00AED10E0F72DF0717F2EF8018491C1
:10461000882309F476C271108052B70190E00E949D
:104620009B2E0F5F1F4FF2CF77FE0FC04C0C04FF85
:1046300004C08A81813309F44A94141474F5F8E0B3
:10464000F41578F588E0482E2CC076FC2AC0812F1E
:1046500090E08C159D059CF06CEFC6166FEFD606AA
:1046600074F0772D7068772E0AC0E2E0F0E0EC0F6E
:10467000FD1FE10FF11D8081803319F411501111DC
:10468000F4CF77FE0EC044244394410E812F90E076
:10469000C816D9062CF41C1904C04424439401C044
:1046A00010E077FE07C01C141D043CF496012F5F38
:1046B0003F4F05C025E030E002C021E030E0662039
:1046C00011F02F5F3F4F112331F0412F50E04F5F2A
:1046D0005F4F240F351F452D50E02417350714F484
:1046E000521A01C0512C872D897049F4552039F098
:1046F000B70180E290E00E949B2E5A94F7CF66208B
:1047000029F0B701862D90E00E949B2E73FC09C012
:10471000552039F0B70180E390E00E949B2E5A9417
:10472000F7CF77FE5FC09C2D8D2DD7FE02C090E0A5
:1047300080E0692E782E40E050E0C601841991098E
:104740009D878C87960126193709280D391D812FE1
:1047500090E0EE27FF27E81BF90BFF87EE87FFEFBE
:104760006F167F0669F4B7018EE290E02B8B3A8BCF
:10477000488B598B0E949B2E598948893A892B89ED
:10478000C614D70454F06C857D85661577052CF426
:10479000F901E40FF51F818101C080E371E0671A20
:1047A00071084F5F5F4FEE85FF856E167F066CF0D8
:1047B000B70190E02B8B3A8B488B598B0E949B2E34
:1047C0002B893A8948895989CACF6C147D0439F4F8
:1047D0009A81963318F4953311F404FF81E3B701FD
:1047E00090E04BC08A81813309F00F7EB70190E0E1
:1047F0000E949B2E111105C074FE18C085E490E044
:1048000017C0B7018EE290E00E949B2E82E06624E2
:104810006394680EF401E80FF11D8081B70190E008
:104820000E949B2E115041F3862DF1CF85E690E03A
:10483000B7010E949B2ED7FC05C0C114D10439F4E6
:1048400004FF05C0D194C194D1088DE201C08BE270
:10485000B70190E00E949B2E80E36AE0C616D10467
:104860002CF08F5FFAE0CF1AD108F7CFB70190E0B4
:104870000E949B2EB701C601C0960E949B2E41C18B
:10488000833631F0833779F0833509F058C021C081
:10489000560172E0A70EB11CF6018081898301E008
:1048A00010E0640114C05601F2E0AF0EB11CF60135
:1048B000C080D18026FF03C0612F70E002C06FEF7F
:1048C0007FEFC6012B8B0E94612E8C012B892F77E5
:1048D00015C05601F2E0AF0EB11CF601C080D180C8
:1048E00026FF03C0612F70E002C06FEF7FEFC601AB
:1048F0002B8B0E94412E8C012B892068722E23FD68
:104900001AC0852D90E008171907A8F4B70180E2B6
:1049100090E00E949B2E5A94F4CFF60177FC85918B
:1049200077FE81916F01B70190E00E949B2E51109C
:104930005A94015011090115110579F7E2C0843626
:1049400011F0893651F5560127FF09C0F4E0AF0E8A
:10495000B11CF60160817181828193810AC0F2E00D
:10496000AF0EB11CF60160817181882777FD8095BB
:10497000982F022F0F7697FF08C09095809570951D
:1049800061957F4F8F4F9F4F00682AE030E0A40170
:104990000E94EF2EC82EC8183EC0022F853721F482
:1049A0000F7E2AE030E01DC0097F8F3691F018F4A9
:1049B000883559F0B0C0803719F0883711F0ABC096
:1049C000006104FF09C0046007C024FF08C006603E
:1049D00006C028E030E005C020E130E002C020E160
:1049E00032E0560107FF09C0F4E0AF0EB11CF6013A
:1049F000608171818281938108C0F2E0AF0EB11CA9
:104A0000F6016081718180E090E0A4010E94EF2EA8
:104A1000C82EC8180F7706FF0BC0202F2E7FC11697
:104A200050F404FF0AC002FD08C0202F2E7E05C0EE
:104A3000DC2C202F03C0DC2C01C0D12E24FF0DC0A4
:104A4000FE01EC0DF11D8081803311F4297E09C037
:104A500022FF06C0D394D39404C0822F867809F035
:104A6000D39423FD13C020FF06C01C2DD51418F4C9
:104A7000150D1D19D52CD51468F4B70180E290E00E
:104A80002B8B0E949B2ED3942B89F5CFD51410F439
:104A90005D1801C0512C24FF12C0B70180E390E0E3
:104AA0002B8B0E949B2E2B8922FF17C021FF03C056
:104AB00088E590E002C088E790E0B7010CC0822F43
:104AC000867859F021FD02C080E201C08BE227FD0B
:104AD0008DE2B70190E00E949B2EC11638F4B70119
:104AE00080E390E00E949B2E1150F7CFCA94F4010E
:104AF000EC0DF11D8081B70190E00E949B2EC1104A
:104B0000F5CF552009F4C2CCB70180E290E00E94B5
:104B10009B2E5A94F6CFF7018681978102C08FEFC2
:104B20009FEF6396E2E10C94582884E190E00E94A4
:104B3000DD2A8093980290939902EC01E12CF12CEC
:104B400084E190E00E94DD2ACE0DDF1D99838883E9
:104B500082E0E80EF11C94E1E916F10429F0C0911D
:104B60009802D0919902ECCF88E090E00E94DD2A73
:104B70009093A9028093A80288E090E00E94DD2A29
:104B80009093AB028093AA02C0E0D0E0E090A8022C
:104B9000F090A90289E090E00E94DD2AF701EC0F75
:104BA000FD1F91838083E090AA02F090AB0289E020
:104BB00090E00E94DD2AF701EC0FFD1F91838083B6
:104BC0002296C830D10511F784E090E00E94DD2ADA
:104BD0009093AD028093AC0284E090E00E94DD2AC5
:104BE0009093AF028093AE02C091AC02D091AD021F
:104BF00081E190E00E94DD2A99838883C091AE0212
:104C0000D091AF0281E190E00E94DD2A99838883F0
:104C1000C091AC02D091AD0281E190E00E94DD2A0A
:104C20009B838A83C091AE02D091AF0281E190E074
:104C30000E94DD2A9B838A8380E490E00E94DD2A23
:104C40009093B1028093B00280E490E00E94DD2A4C
:104C500090936F0380936E0380E490E00E94DD2ABE
:104C6000909301048093000488E290E00E94DD2A82
:104C700090937303809372030E94ED0782E00E9479
:104C8000DB078FE097E20197F1F700C0000050E4E6
:104C9000B52E63E8C62E7DE4D72ED5E1C3E20E948F
:104CA00073030E946504B0927C00C0927A008091E8
:104CB0007A00806480937A0080917A0086FDFCCF30
:104CC00020917800309179008091B00082608093CB
:104CD000B000D092B3008091700082608093700029
:104CE0001092B2008091B10085608093B1000E9463
:104CF0009A151092C500D093C4008091C1008869B4
:104D00008093C10000E061E0802F0E94FF040F5FEC
:104D10000430C9F70E9430070E94181078940E944E
:104D200076110E9418108091B202811123C0412F88
:104D300050E0FA01E158F109EE31F10590F4E15B40
:104D4000FF4F0C9473280E942D1DF8940E94440577
:104D5000A6CFE0919802F0919902828193810E94FE
:104D6000771E10E80E9476110E9418108091B202FE
:104D70008823E9F20E94C2150E94E415182FD7CFAC
:104D8000E0919802F0919902E484F58402851385FC
:104D90002085318546815781648175818281938127
:104DA0000E94DB1D10E8DECFE0919802F09199029D
:104DB00064817581828193810E94A31D10E8D2CF06
:104DC000E0919802F0919902468157816481758142
:104DD000828193810E94341D10E8C4CFF89480E052
:104DE00090E0C89FF001C99FF00D1124EC58FC4FD2
:104DF000208131813383228314860196843091058A
:104E000081F7789410E8AECFE0919802F091990282
:104E10004681578164817581828193810E94EF1B55
:104E200010E8A0CFE0919802F09199026481758119
:104E3000828193810E94B61B10E894CFE091980282
:104E4000F0919902828193810E94841B0E94DF0469
:104E500010E888CFE0919802F09199026481758101
:104E6000828193810E94491B10E87CCFE0919802D7
:104E7000F0919902828193810E94011B0E94DF04BC
:104E800010E870CFE0919802F091990264817581E9
:104E9000828193810E94C61A10E864CFE091980243
:104EA000F0919902828193810E947E1A0E94DF0410
:104EB00010E858CFE0919802F091990264817581D1
:104EC000828193810E94431A10E84CCFE0919802AE
:104ED000F0919902828193810E94FB190E94DF0464
:104EE00010E840CFE0919802F091990264817581B9
:104EF000828193810E94BE1910E834CFE09198021C
:104F0000F0919902828193810E948C190E94DF04A2
:104F100010E828CFE0919802F09199028281938164
:104F20000E945F190E94DF0410E81CCFE0919802F4
:104F3000F0919902828193810E941B190E94DF04E3
:104F400010E810CF0E94300710E80CCF0E94AD0689
:104F500010E808CFE0919802F09199026481758180
:104F6000828193810E941A180E94DF0410E8FACE11
:104F7000E0919802F0919902648175818281938118
:104F80000E94F217EECEE0919802F0919902828190
:104F900093810E943C2D0E94BF05E3CEE0919802D0
:104FA000F091990246815781648175818281938154
:104FB0000E947F17D6CEE0919802F0919902468127
:104FC000578164817581828193810E945E16C9CE6A
:104FD000E0919802F0919902A281B381FD010190C4
:104FE0000020E9F73197EA1BFB0B759708F0B9CE63
:104FF00045E150E064E670E0CD010E945D2FB1CE46
:1050000080916E0390916F0345E150E064E670E09B
:105010000E944D2F80916E0390916F030E94DF04D8
:10502000A0CE0E94B11E9DCEAA1BBB1B51E107C0A2
:10503000AA1FBB1FA617B70710F0A61BB70B881F28
:10504000991F5A95A9F780959095BC01CD010895B7
:1050500097FB072E16F4009407D077FD09D00E9425
:10506000142807FC05D03EF4909581959F4F089534
:10507000709561957F4F08952F923F924F925F9266
:105080006F927F928F929F92AF92BF92CF92DF9258
:10509000EF92FF920F931F93CF93DF93CDB7DEB7BD
:1050A000CA1BDB0B0FB6F894DEBF0FBECDBF099451
:1050B0002A88398848885F846E847D848C849B84A8
:1050C000AA84B984C884DF80EE80FD800C811B81B6
:1050D000AA81B981CE0FD11D0FB6F894DEBF0FBEE5
:1050E000CDBFED010895EE0FFF1F0590F491E02D67
:1050F00009945058BB27AA270ED075C166D130F04D
:105100006BD120F031F49F3F11F41EF45BC10EF41B
:10511000E095E7FB51C1E92F77D180F3BA17620719
:1051200073078407950718F071F49EF58FC10EF48C
:10513000E0950B2EBA2FA02D0B01B90190010C01A7
:10514000CA01A0011124FF27591B99F0593F50F4BF
:10515000503E68F11A16F040A22F232F342F442717
:10516000585FF3CF469537952795A795F04053950F
:10517000C9F77EF41F16BA0B620B730B840BBAF0DF
:105180009150A1F0FF0FBB1F661F771F881FC2F74A
:105190000EC0BA0F621F731F841F48F4879577955E
:1051A0006795B795F7959E3F08F0B3CF9395880F15
:1051B00008F09927EE0F979587950895D9D008F4B0
:1051C00081E008950CD00FC107D140F0FED030F03F
:1051D00021F45F3F19F0F0C0511139C1F3C014D16F
:1051E00098F39923C9F35523B1F3951B550BBB27AE
:1051F000AA2762177307840738F09F5F5F4F220F5B
:10520000331F441FAA1FA9F333D00E2E3AF0E0E853
:1052100030D091505040E695001CCAF729D0FE2F9F
:1052200027D0660F771F881FBB1F26173707480731
:10523000AB07B0E809F0BB0B802DBF01FF279358E7
:105240005F4F2AF09E3F510568F0B6C000C15F3F36
:10525000ECF3983EDCF3869577956795B795F795CF
:105260009F5FC9F7880F911D9695879597F90895C7
:10527000E1E0660F771F881FBB1F62177307840763
:10528000BA0720F0621B730B840BBA0BEE1F88F772
:10529000E095089504D06894B111D9C00895BCD0A8
:1052A00088F09F5790F0B92F9927B751A0F0D1F00F
:1052B000660F771F881F991F1AF0BA95C9F712C099
:1052C000B13081F0C3D0B1E00895C0C0672F782F0E
:1052D0008827B85F39F0B93FCCF386957795679505
:1052E000B395D9F73EF490958095709561957F4F71
:1052F0008F4F9F4F0895E89409C097FB3EF4909517
:105300008095709561957F4F8F4F9F4F9923A9F09E
:10531000F92F96E9BB279395F6958795779567952D
:10532000B795F111F8CFFAF4BB0F11F460FF1BC071
:105330006F5F7F4F8F4F9F4F16C0882311F096E904
:1053400011C0772321F09EE8872F762F05C06623B2
:1053500071F096E8862F70E060E02AF09A95660F6B
:10536000771F881FDAF7880F9695879597F9089524
:10537000990F0008550FAA0BE0E8FEEF1616170666
:10538000E807F907C0F012161306E407F50798F0CE
:10539000621B730B840B950B39F40A2661F0232BE7
:1053A000242B252B21F408950A2609F4A140A69563
:1053B0008FEF811D811D089597F99F6780E870E048
:1053C00060E008959FEF80EC089500240A9416167B
:1053D000170618060906089500240A9412161306E3
:1053E000140605060895092E0394000C11F4882371
:1053F00052F0BB0F40F4BF2B11F460FF04C06F5F8D
:105400007F4F8F4F9F4F089557FD9058440F551F62
:1054100059F05F3F71F04795880F97FB991F61F036
:105420009F3F79F087950895121613061406551FAD
:10543000F2CF4695F1DF08C0161617061806991F19
:10544000F1CF86957105610508940895E894BB270E
:1054500066277727CB0197F908958ADF08F48FEF45
:1054600008950BD0C0CFB1DF28F0B6DF18F0952338
:1054700009F0A2CFA7CF1124EACFC6DFA0F3959FF2
:10548000D1F3950F50E0551F629FF001729FBB272B
:10549000F00DB11D639FAA27F00DB11DAA1F649FD7
:1054A0006627B00DA11D661F829F2227B00DA11D8A
:1054B000621F739FB00DA11D621F839FA00D611D10
:1054C000221F749F3327A00D611D231F849F600D31
:1054D000211D822F762F6A2F11249F5750408AF06A
:1054E000E1F088234AF0EE0FFF1FBB1F661F771FF6
:1054F000881F91505040A9F79E3F510570F05CCF36
:10550000A6CF5F3FECF3983EDCF3869577956795E1
:10551000B795F795E7959F5FC1F7FE2B880F911D13
:105520009695879597F9089577DFE0F09E37D8F044
:105530009639B8F49E3848F4672F782F8827985FFB
:10554000F9CF86957795679593959539D0F3B62FD2
:10555000B1706B0F711D811D20F48795779567954C
:10556000939502C01CC073CF882371F4772321F078
:105570009850872B762F07C0662311F499270DC00A
:105580009051862B70E060E02AF09A95660F771FA5
:10559000881FDAF7880F9695879597F908959F3FAA
:1055A00031F0915020F4879577956795B795880FDE
:1055B000911D9695879597F90895CF93DF93823043
:1055C000910510F482E090E0E0910804F091090464
:1055D00020E030E0A0E0B0E0309739F14081518127
:1055E00048175907B8F04817590771F48281938119
:1055F000109729F013969C938E9312972CC090933A
:1056000009048093080427C02115310531F04217A1
:10561000530718F0A901DB0101C0EF019A01BD0198
:10562000DF010280F381E02DD7CF21153105F9F09C
:10563000281B390B2430310580F48A819B81611548
:10564000710521F0FB019383828304C090930904C8
:1056500080930804FE01329644C0FE01E20FF31F5E
:105660008193919322503109398328833AC0209144
:10567000060430910704232B41F42091020130915C
:105680000301309307042093060420910001309118
:1056900001012115310541F42DB73EB740910401B8
:1056A00050910501241B350BE0910604F09107048D
:1056B000E217F307A0F42E1B3F0B2817390778F0E9
:1056C000AC014E5F5F4F2417350748F04E0F5F1F48
:1056D00050930704409306048193919302C0E0E045
:1056E000F0E0CF01DF91CF910895CF93DF93009742
:1056F00009F487C0FC01329713821282C09108041A
:10570000D0910904209781F420813181280F391F1D
:1057100080910604909107048217930779F5F0931E
:105720000704E09306046DC0DE0120E030E0AE1710
:10573000BF0750F412964D915C9113979D0141154E
:10574000510509F1DA01F3CFB383A283408151817E
:10575000840F951F8A179B0771F48D919C91119767
:10576000840F951F02969183808312968D919C9150
:105770001397938382832115310529F4F09309044B
:10578000E09308043EC0D9011396FC93EE93129760
:105790004D915D91A40FB51FEA17FB0779F4808145
:1057A0009181840F951F0296D90111969C938E9337
:1057B0008281938113969C938E931297E0E0F0E0A0
:1057C0008A819B81009719F0FE01EC01F9CFCE018F
:1057D000029628813981820F931F2091060430910F
:1057E00007042817390769F4309729F4109209043F
:1057F0001092080402C013821282D0930704C0934F
:105800000604DF91CF9108952F923F925F926F929D
:105810007F928F929F92AF92BF92CF92DF92EF9240
:10582000FF920F931F93CF93DF938B01EA016115D2
:10583000710521F0DB018C9311969C93209739F030
:105840009E01225031092332310508F0FBC07C0152
:105850006701BFEFCB1ADB0A5601F7016080862D86
:1058600090E00E94322E892B11F07601F1CFFDE2FB
:105870006F120AC0570182E0A80EB11CD701119621
:105880006C90772473940BC0BBE26B1207C0570176
:10589000E2E0AE0EB11CD70111966C90712CCE01D6
:1058A0008F7E892B89F4B0E36B1222C0F5018081D1
:1058B0008F7D883541F56180F2E0AF0EB11C872DF8
:1058C0008260782EC0E1D0E0C830D105F1F04CF410
:1058D000C230D10511F5C12CD12CE12CB0E4FB2E46
:1058E0002FC0CA30D10531F0C031D10521F115C02A
:1058F000209751F7CAE0D0E0ACECCA2EDC2CEC2C9F
:10590000ACE0FA2E1DC02097F9F6C8E0D0E0C12C1B
:10591000D12CE12CF0E1FF2E13C060E070E080E0BC
:1059200090E89E01442737FD4095542F0E941C317A
:1059300069017A0105C0C12CD12CE12CE8E0FE2ED2
:10594000F50160E020E030E0A9014E01AA2497FCB7
:10595000A094BA2C1F0170ED572E560CA9E0A51586
:1059600070F48FEB860D8A3118F499EC592E06C02D
:105970008FE9860D8A3130F589EA582E560C852D2F
:1059800090E08C179D07F4F467FD18C0C216D3068B
:10599000E406F50680F0C501B4010E940C319B01BC
:1059A000AC01250D311D411D511D21303105410531
:1059B000B0E85B0710F06FEF01C061E03196D101F4
:1059C0006C90C8CF872D81700115110571F0662389
:1059D00029F03197D801ED93FC9307C071FE19C0EF
:1059E0003297D801ED93FC9314C067FF12C088234F
:1059F00029F020E030E040E050E804C02FEF3FEF16
:105A00004FEF5FE782E290E090930B0480930A04EB
:105A100016C0882341F050954095309521953F4F11
:105A20004F4F5F4F0CC057FF0AC082E290E0909347
:105A30000B0480930A042FEF3FEF4FEF5FE7B901AC
:105A4000CA0104C060E070E080E090E0DF91CF9197
:105A50001F910F91FF90EF90DF90CF90BF90AF908C
:105A60009F908F907F906F905F903F902F900895C0
:105A7000662777270C947F2FFC0188279927E894C5
:105A800021912032E9F3293010F02E30C8F32B3267
:105A900041F02D3239F4689404C00E94932E820F95
:105AA000911D219120532A30C0F31EF490958195C9
:105AB0009F4F0895283008F027E03327DA01990F27
:105AC000311D87FD916000966105710539F43260E2
:105AD0002E5F3D9330E32A95E1F708959F3F30F024
