:100000000C94D7020C94F4020C94F4020C94F402B5
:100010000C94F4020C94F4020C94F4020C94F40288
:100020000C94F4020C94A3240C94F4020C94F402A7
:100030000C94F4020C94F4020C94F4020C94F40268
:100040000C9444240C94F4020C94F4020C94F402E6
:100050000C94FA230C94F4020C94F4020C94F40221
:100060000C94F4020C94F4020C94F4020C94F40238
:10007000540E890EEE0E3A0FB80FF90F770F3210AB
:100080003D0D4910BA0D100E1A16ED15B315751564
:100090005615D814C21440153B145B16F416EA2DFD
:1000A000EE2D502F3A2F242F102FEF2FD92FCD2F99
:1000B000C12FAD2F992F852F712FC02EAC2E982ECA
:1000C000842E702E5C2E482E342E1E2EE82DAF2D41
:1000D000082EF02ED42E992D042F03306E616E0061
:1000E000696E660023020902F401DA01C201A90166
:1000F00090017101550134011501FC00FF000B5204
:10010000756E20696E7465726E616C0A70726F67CD
:1001100072616D000018010A53657420636F6E737D
:1001200074616E740A616E67756C617220737065BC
:1001300065640000370109446566696E65206F706B
:10014000746963616C0A7A65726F20706F73697489
:10015000696F6E00005801084C6F6164206C617318
:10016000740A636F6E66696775726174696F6E0099
:1001700000740107536176652063757272656E7451
:100180000A636F6E66696775726174696F6E0000ED
:100190009301064368616E6765206D6F746F720A24
:1001A000737562737465700000AC010552756E2042
:1001B0007A65726F0A63616C6962726174696F6EED
:1001C0000000C5010453657420737465700A6D7571
:1001D0006C7469706C6965720000DD0103436861CD
:1001E0006E676520737465700A776169742074693D
:1001F0006D650000F701024368616E6765207374E6
:1002000065700A756E697400000C02014368616EC6
:100210006765206D6F746F720A706F736974696FB0
:100220006E00002602004D6F746F72204472697672
:1002300065720A200000530449043E043404270474
:100240001A040D040104F503E703D903CB03BC032F
:10025000A90396038403720362035203410330032C
:100260001F030E03FB02E902DC02CB02B902A80263
:100270009702870276027A02019F5A45524F5255E1
:100280004E444F4E4500008B02009E44424752456B
:1002900041444F555400009B02019D4745544D4F2A
:1002A0005453544154450000AC02069C53455450ED
:1002B000524F47535445500000BD02029B454E41EA
:1002C00042464F52425A4F4E450000CF02039A53C6
:1002D0004554464F52425A4F4E450000E0020099A5
:1002E00053544F50414C4C0000ED0200984641439E
:1002F000544F525952455345540000FF020397533F
:100300004554434F4E535453504545440000120347
:1003100002965345545741495454494D45000023D2
:100320000301954745545741495454494D450000F0
:10033000340302945345545355425354455053008B
:100340000045030193474554535542535445505378
:1003500000005603029253455446554C4C524F549C
:1003600000006603019147455446554C4C524F548A
:100370000000760302905345544745415252415480
:10038000494F00008803018F474554474541525269
:100390004154494F00009A03028E5345544F505424
:1003A0005A45524F504F530000AD03018D474554FD
:1003B0004F50545A45524F504F530000C003018CC8
:1003C000474554414E414C4F470000CF03018B49F4
:1003D000534D4F56494E470000DD03008A4C4F41B4
:1003E00044434F4E460000EB0300895341564543BA
:1003F0004F4E460000F9030288474554504F5300C2
:100400000005040287454E41424C4500001104019D
:10041000865A45524F52554E00001E0403854D4FDB
:10042000564552454C00002B0403844D4F56454120
:1004300042530000380401832A49444E000042041C
:1004400000822A49444E3F00004D0400812A525345
:1004500054000057040080000000000000FFFF006F
:10046000000000000000000100010000000000008A
:10047000000000FFFF0000000000407A10F35A0067
:10048000A0724E18090010A5D4E80000E8764817BD
:100490000000E40B54020000CA9A3B000000E1F5A2
:1004A00005000080969800000040420F000000A068
:1004B0008601000000102700000000E80300000093
:1004C000006400000000000A0000000000010000BD
:1004D0000000002C76D888DC674F0823DFC1DFAE30
:1004E00059E1B1B796E5E3E453C63AE651997696F9
:1004F000E8E6C28426EB898C9B62ED407C6FFCEFC2
:10050000BC9C9F40F2BAA56FA5F490055A2AF75CEF
:10051000936B6CF9676DC11BFCE0E40D47FEF520A1
:10052000E6B500D0ED902E03009435770500808469
:100530001E080000204E0A000000C80C333333337D
:100540000F986E12831141EF8D2114893BE65516E9
:10055000CFFEE6DB18D1844B381BF77C1D901DA421
:10056000BBE424203284725E228100C9F124ECA114
:10057000E53D274E414E494E495459494E46CDCC52
:10058000CC3D0AD7233C17B7D13877CC2B32959581
:10059000E6241FB14F0A000020410000C84200407D
:1005A0001C4620BCBE4CCA1B0E5AAEC59D741124FD
:1005B0001FBECFEFD0E1DEBFCDBF12E0A0E0B1E0C3
:1005C000E4EFF3E702C005900D92AC39B107D9F71B
:1005D00024E0ACE9B2E001C01D92A434B207E1F717
:1005E0000E94502C0C94F8390C9400000F931F9328
:1005F000CF93DF93E82FC22FB32FA42FF52FCB017A
:1006000098014C2F5B2F6A2F7F2FA0E00E94A13012
:100610000CF454C048B18E2F90E0BC01660F771FD8
:100620006F5F7F4F21E030E001C0220F6A95EAF74B
:100630002095242328B9602F712F77FD53C06115B1
:100640007105B9F1AC01440F551F21E030E001C044
:10065000220F4A95EAF7B22FA22FA09540E050E072
:1006600020E3289FF001299FF00D1124EE55FC4F47
:1006700088B18B2B88B98DE08A95F1F7000088B19D
:100680008A2388B980819181892B71F080E090E084
:10069000C7E8D3E12197F1F700C00000019620815F
:1006A000318182179307A0F34F5F5F4F46175707BB
:1006B000F9F6DF91CF911F910F91089568B18E2FB8
:1006C00090E0AC01440F551F4F5F5F4F21E030E0D9
:1006D00001C0220F4A95EAF7262B28B9602F712F07
:1006E00077FFADCF719561957109A9CF8091A20275
:1006F000809587FD04C086FF04C086E0089587E0EA
:10070000089585FF02C085E0089584FF02C084E05B
:10071000089583FF02C083E0089580FD02C08AE24D
:10072000089580E008954F925F926F927F928F922A
:100730009F92AF92BF92CF92DF92EF92FF920F9370
:100740001F93CF93DF9320E030E010E3B5E58B2ECD
:10075000982CA82CB0E4BB2EC12CD12CC8ECEC2ECC
:10076000C3E4FC2E40E050E060E870E4412C512CE2
:10077000D0E86D2EDFE37D2E01E0C3E0D0E0129FD4
:10078000F001139FF00D1124E858FC4F10821182E4
:10079000128213821482158216821782DF01189644
:1007A000108611961C92119712961C92129713960E
:1007B0001C92139714961C92149715961C921597D9
:1007C00016961C92169717961C92118A108A128AF6
:1007D000138A148A158A168A178A108E818E928E31
:1007E000A38EB48EC58ED68EE78EF0A241A352A3FF
:1007F00063A374A346A257A260A671A605A3D3A7BC
:10080000C2A782A593A5880F991F019795A784A7D2
:1008100016A617A62F5F3F4F2430310509F0AFCF42
:100820001092B7021092B6021092750310927403E0
:1008300010923C0410923D041092590310925803F8
:1008400088E080935A031092A5028AE28093A60260
:1008500092E09093A7021092A8021092A9028093AE
:10086000AA0280E18093AB021092A2021092A3022E
:100870001092A40210925B0310925C0310925D032D
:1008800080E090E0FC01EE0FFF1FEE0FFF1FE80F6E
:10089000F91FE25AFC4F14821182108213821282D5
:1008A00001968430910571F720E030E041E0F901D4
:1008B000EE0FFF1FC901880F991F880F991F880F1E
:1008C000991FE80FF91FE854FD4F108241871282EB
:1008D00011821482138216821582108617822F5F6E
:1008E0003F4F2031310519F781E08093B802DF9145
:1008F000CF911F910F91FF90EF90DF90CF90BF901D
:10090000AF909F908F907F906F905F904F900895E1
:100910001092C50085E18093C400E1ECF0E0808195
:1009200088698083089580E480937C0083E88093C5
:100930007A0080917A00806480937A0080917A00B6
:1009400086FDFCCF8091780090917900089520E099
:1009500030E080E090E0E0919C02F0919D020190F7
:10096000F081E02DE80FF91F108201968431910586
:1009700091F780E090E0E091AC02F091AD02E20FDF
:10098000F31F0190F081E02DE80FF91F1082E09134
:10099000AE02F091AF02E20FF31F0190F081E02D63
:1009A000E80FF91F108201968930910521F780E048
:1009B00090E0E091B002F091B102E20FF31F0190DC
:1009C000F081E02DE80FF91F1082E091B202F09162
:1009D000B302E20FF31F0190F081E02DE80FF91F41
:1009E000108201968131910521F7E091B402F091D6
:1009F000B50280E4DF01982F1D929A95E9F7E09106
:100A00007203F0917303DF01982F1D929A95E9F715
:100A1000E0913804F0913904DF011D928A95E9F7DD
:100A2000E0917603F091770388E2DF011D928A95C9
:100A3000E9F708959091C00095FFFCCF8093C60020
:100A40000895DC012C91222359F0FC0131969091FC
:100A5000C00095FFFCCF2093C60021912111F7CF54
:100A60008091C00085FFFCCF8AE08093C600E091B2
:100A70007203F091730380E4DF011D928A95E9F718
:100A80000895CF93DF93C2E7D3E0A881B98183E1D2
:100A9000E8E0F1E001900D928A95E1F78881998173
:100AA000DF91CF910C9421050C9A149A10928F0328
:100AB00038983C980D9A159A1092BF0339983D9832
:100AC0000E9A169A1092EF033A983E980F9A179A38
:100AD00010921F043B983F9815BC1092B1000895E6
:100AE00091B1A82FB0E0AD014C5F5F4F21E030E045
:100AF000F90102C0EE0FFF1F4A95E2F7AF019E2BEE
:100B000091B992B16130C1F09E2B92B990E39A9F56
:100B1000F0019B9FF00D1124E858FC4F178A97B104
:100B200001C0220F8A95EAF72095292327B987B1BA
:100B30004095482347B908955E2F5095952392B963
:100B400090E39A9FF0019B9FF00D1124E858FC4F11
:100B5000678B97B101C0220F8A95EAF7292B27B935
:100B600087B1482B47B90895E0EBF0E080818260BF
:100B700080838DE48093B300E0E7F0E080818260C1
:100B800080831092B200E1EBF0E080818560808389
:100B90000895EF92FF920F931F93CF93DF93E82E68
:100BA000F22ED32FC42FB52FF62FE72F98014F2DFC
:100BB0005D2F6C2F7B2F8F2F9E2FA0E00E94A130E6
:100BC00049F02F2D3D2F4C2F5B2F6F2F7E2F8E2D19
:100BD0000E94F602DF91CF911F910F91FF90EF904D
:100BE0000895AF92BF92CF92DF92EF92FF920F9350
:100BF0001F93262F30E3839FC0011124FC01E85886
:100C0000FC4FA080B180C280D380E480F580068153
:100C10001781962F990F990B392F492F592F692F2B
:100C2000792F892F0E947A30DF011896208711963C
:100C30003C93119712964C93129713965C931397CB
:100C400014966C93149715967C93159716968C931F
:100C5000169717969C931797308511962C9111979C
:100C600012968C91129713968C91139714968C91DF
:100C7000149715968C91159716968C911697179632
:100C80008C91832F922F918B808B1F910F91FF90CE
:100C9000EF90DF90CF90BF90AF90089590917C003F
:100CA000907E8F71892B80937C0010925903109253
:100CB000580380915A03882301F140E080917A0023
:100CC000806480937A0080917A0086FDFCCF9091B9
:100CD0007800509179002091580330915903892F61
:100CE00090E0952B820F931F9093590380935803A4
:100CF0004F5F80915A03481708F3809158039091F1
:100D0000590360915A0370E00E941530CB01089599
:100D10004F925F926F927F928F929F92AF92BF920B
:100D2000CF92DF92EF92FF920F931F93CF93C82F32
:100D3000A82EB12CF501EE0FFF1FEE0FFF1FEA0DDD
:100D4000FB1DE25AFC4F84818111FBC08091B100F0
:100D5000887F8093B10080E38A9D80018B9D100D78
:100D6000112408581C4FF80182A493A4658D768D38
:100D7000878D90A1218D328D438D548DC1A0D2A03D
:100D8000E3A0F4A00E940733A70196010E94073355
:100D90002B013C0181E090E0F80193A782A70BC0F2
:100DA00008E31FEF2FEF3FEF4FEF5FEF6FEF7FEFA6
:100DB0008C2F0E94F6028C2F0E944E06C29780F361
:100DC000C301B2010E9474330E94CD316B01E12C4A
:100DD000F12C13C001E010E020E030E040E050E0F2
:100DE00060E070E08C2F0E94F6028C2F0E944E066D
:100DF000C29730F0FFEFEF1AFF0AEC14FD0451F731
:100E000020E030E040E85EE3C301B2010E94073316
:100E10000E9474330E9491318901A0E00E94A130A8
:100E200009F0A6C020E030E040E45FE3C301B20176
:100E30000E9407330E9474330E949131285C31096B
:100E40004109510961097109810991098901A0E0EC
:100E50000E94A13009F096C080E38A9DF0018B9D2D
:100E6000F00D1124E858FC4F85E090E093A782A78D
:100E70000BC001E010E020E030E040E050E060E036
:100E800070E08C2F0E94F6028C2F0E944E06C397B2
:100E900080F780E38A9DF0018B9DF00D1124E858C6
:100EA000FC4F93A682A6E088F188EF2DEE0FEE0BA3
:100EB00097014E2F5E2F6E2F7E2F8E2F9E2FA0E03C
:100EC0000E94A13009F04DC080E38A9DF0018B9D06
:100ED000F00D1124E858FC4F108211821282138207
:100EE0001482158216821782DF01189610861196D9
:100EF0001C92119712961C92129713961C9213979C
:100F000014961C92149715961C92159716961C927F
:100F1000169717961C9281E087A78091B000826097
:100F20008093B0008DE48093B30080917000826064
:100F3000809370001092B2008091B1008560809320
:100F4000B100CF911F910F91FF90EF90DF90CF9064
:100F5000BF90AF909F908F907F906F905F904F90D9
:100F6000089587012E2F3E2F8C2F0E94F602ACCFC2
:100F7000242F352F462F572F682F792F8C2F0E9423
:100F8000F60250CF242F352F462F572F682F792F59
:100F90008C2F0E94F60260CF4F925F926F927F92E9
:100FA0008F929F92AF92BF92CF92DF92EF92FF9279
:100FB0000F931F93CF93DF93F894C8E7D3E08CEFA0
:100FC000482E80E0582E98EB892E90E0992E20EB49
:100FD000A22E20E0B22E3EE5E32E33E0F32E48EAC7
:100FE000C42E40E0D42E50EA652E50E0752E00E06D
:100FF00010E042E050E0B201CE0140960E948A39F2
:10100000B80164517F4F44E050E0CE0149960E9400
:101010008A39B80164527F4F44E050E0CE014D96CA
:101020000E948A39B80164537F4F44E050E0CE01FA
:1010300081960E948A39B80164547F4F44E050E0A1
:10104000CE0186960E948A3941E050E0B401CE017B
:1010500085960E948A3942E050E0B501CE018A9619
:101060000E948A3942E050E0B601C7010E948A39E5
:1010700042E050E0B301C70102960E948A39E0962F
:1010800082E0480E511C0C5F1F4F8FEF881A980AA0
:1010900082E0A80EB11C85E0E80EF11C82E0C80ECB
:1010A000D11C82E0680E711C0031110509F0A1CF3E
:1010B000C8EBD2E000E010E04AE050E0B801CE0119
:1010C0000E948A392A96065F1F4F83E0C835D807E9
:1010D00099F77894DF91CF911F910F91FF90EF9046
:1010E000DF90CF90BF90AF909F908F907F906F9048
:1010F0005F904F9008953F924F925F926F927F92D0
:101100008F929F92AF92BF92CF92DF92EF92FF9217
:101110000F931F93CF93DF93F894C8E7D3E09CEF2E
:10112000692E90E0792E20EB822E20E0922E3EE573
:10113000C32E33E0D32E48EAA42E40E0B42E50EA6A
:10114000452E50E0552EE12CF12C00E010E0332428
:10115000339442E050E0B301CE0140960E947A39C8
:1011600044E050E0B70164517F4FCE0149960E94A0
:101170007A3944E050E0B70164527F4FCE014D967A
:101180000E947A3944E050E0B70164537F4FCE01AA
:1011900081960E947A3944E050E0B70164547F4F51
:1011A000CE0186960E947A3941E050E0B801685439
:1011B0007F4FCE0185960E947A3942E050E0B4011B
:1011C000CE018A960E947A3942E050E0B501C6010C
:1011D0000E947A3942E050E0B201C60102960E94B4
:1011E0007A39F801EE0FFF1FEE0FFF1FE00FF11F1E
:1011F000E25AFC4F2081318182819381281739077F
:1012000009F034820F5F1F4FE09682E0680E711C78
:1012100084E0E80EF11C82E0880E911C85E0C80E87
:10122000D11C82E0A80EB11C82E0480E511C043093
:10123000110509F08ECFC8EBD2E000E010E04AE0E3
:1012400050E0B801CE010E947A392A96065F1F4FFE
:1012500083E0C835D80799F77894DF91CF911F9133
:101260000F91FF90EF90DF90CF90BF90AF909F9045
:101270008F907F906F905F904F903F9008955A9A13
:101280009BB19F709BB99BB1282F207F922B9BB95C
:101290005B9A95E89A95F1F700005B989BB19F7077
:1012A0009BB99BB18295807F892B8BB95B9A85E82E
:1012B0008A95F1F700005B9885EE90E00197F1F7D1
:1012C00000C0000008955A989BB19F709BB99BB1D4
:1012D000282F207F922B9BB95B9A95E89A95F1F77E
:1012E00000005B989BB19F709BB99BB18295807FFA
:1012F000892B8BB95B9A85E88A95F1F700005B989A
:1013000081ED90E00197F1F700C0000008958AB1E7
:101310008C6F8AB98BB183708BB92FE58AEE90E020
:10132000215080409040E1F700C000008BB18F70E9
:101330008BB98BB180638BB95B9A25E82A95F1F75D
:1013400000005B9887EA91E60197F1F700C0000082
:101350005B9A95E89A95F1F700005B9887E893E12E
:101360000197F1F700C000005B9A95E89A95F1F7B4
:1013700000005B9887E893E10197F1F700C0000057
:101380008BB18F708BB95D9A5B9A95E89A95F1F75E
:1013900000005B9887EA91E60197F1F700C0000032
:1013A00088E20E9463098CE00E94630986E00E9443
:1013B000630981E00E9463098FE097E20197F1F7EA
:1013C00000C00000089581E00E9463098FE097E269
:1013D0000197F1F700C00000089582E00E946309C0
:1013E0008FE097E20197F1F700C0000008956230A6
:1013F00081F050F0633029F0643071F480530C9424
:10140000630980570C946309613039F480580C9457
:10141000630980540C94630908950895CF93DF9372
:10142000EC018881882331F021960E943F0989913F
:101430008111FBCFDF91CF910895EF92FF920F932F
:101440001F93CF93DF9300D0CDB7DEB728E0829F04
:10145000C0011124806469837A830E9463096981D1
:10146000E62E7A81F72E8701085F1F4FF7018191E1
:101470007F010E943F09E016F106C1F70F900F901F
:10148000DF91CF911F910F91FF90EF9008952F92D0
:101490003F924F925F926F927F928F929F92AF9204
:1014A000BF92CF92DF92EF92FF920F931F93CF9351
:1014B000DF9300D000D0CDB7DEB7282ECB01BA0124
:1014C000A90198010E94073369837A838B839C83E7
:1014D00020E3229EC0011124FC01E858FC4F1F01AB
:1014E000658D768D878D90A1218D328D438D548DA4
:1014F000C1A0D2A0E3A0F4A00E940733A7019601E7
:101500000E94073320E030E044EB53E40E941F3197
:1015100029813A814B815C810E9407330E94743398
:101520002B013C014101F8E08F0E911CF101A084D8
:10153000F401B180C280D380E480F58006811781F8
:101540000E9491310E947A30F1012087F4013183A9
:10155000428353836483758386839783F101658D0A
:10156000768D878D90A1218D328D438D548DC1A0B4
:10157000D2A0E3A0F4A082889388A488B5880E94B2
:101580000733A70196010E94073320E030E044EBC7
:1015900053E40E941F3129813A814B815C810E9472
:1015A0000733A30192010E94AD30A50194010E946E
:1015B000AE30F101628B738B848B958B0F900F9003
:1015C0000F900F90DF91CF911F910F91FF90EF90AF
:1015D000DF90CF90BF90AF909F908F907F906F9053
:1015E0005F904F903F902F900895CF92DF92EF92AF
:1015F000FF92CF93DF93EB0120E3829FC001112480
:10160000FC01E858FC4F618D728D838D948D21A172
:1016100032A143A154A1C58CD68CE78CF0A00E94C6
:101620000733A70196010E9407339B01AC0160E0DC
:1016300070E084EB93E40E941F316B017C01BE01DA
:10164000DD0F880B990B0E9404329B01AC01C7018E
:10165000B6010E940733DF91CF91FF90EF90DF90AA
:10166000CF9008952F923F924F925F926F927F9208
:101670008F929F92AF92BF92CF92DF92EF92FF92A2
:101680000F931F93CF93DF9300D000D0CDB7DEB779
:10169000282ECB01BA01A90198010E940733698362
:1016A0007A838B839C8320E3229EC0011124FC015A
:1016B000E858FC4F1F01658D768D878D90A1218D97
:1016C000328D438D548DC1A0D2A0E3A0F4A00E941E
:1016D0000733A70196010E94073320E030E040E085
:1016E0005FE30E94073329813A814B815C810E942C
:1016F00007330E9474332B013C014101F8E08F0E47
:10170000911CF101A084F401B180C280D380E480F7
:10171000F580068117810E9491310E947A30F10193
:101720002087F401318342835383648375838683E6
:101730009783F101658D768D878D90A1218D328DF6
:10174000438D548DC1A0D2A0E3A0F4A082889388D9
:10175000A488B5880E940733A70196010E94073329
:1017600020E030E040E05FE30E94073329813A81C6
:101770004B815C810E940733A30192010E94AD302E
:10178000A50194010E94AE30F101628B738B848BB2
:10179000958B0F900F900F900F90DF91CF911F912D
:1017A0000F91FF90EF90DF90CF90BF90AF909F9000
:1017B0008F907F906F905F904F903F902F90089503
:1017C000CF92DF92EF92FF92CF93DF93EB0120E372
:1017D000829FC0011124FC01E858FC4F618D728D7D
:1017E000838D948D21A132A143A154A1C58CD68CA7
:1017F000E78CF0A00E940733A70196010E940733EF
:101800009B01AC0160E070E080E090E40E941F3139
:101810006B017C01BE01DD0F880B990B0E94043225
:101820009B01AC01C701B6010E940733DF91CF9144
:10183000FF90EF90DF90CF900895CF93DF93F894CF
:10184000613041F008F459C06230A1F17894DF9121
:10185000CF91089590E3899FF0011124E858FC4F3F
:10186000608F7081618152814381348125819681AD
:101870008781EF012896708769835A834B833C8365
:101880002D839E838F83208539814A815B816C8182
:101890007D818E819F81A1E00E94833020873983E2
:1018A0004A835B836C837D838E839F837894DF91EF
:1018B000CF91089590E3899FF0011124E858FC4FDF
:1018C000608F70816181528143813481258196814D
:1018D0008781EF012896708769835A834B833C8305
:1018E0002D839E838F83208539814A815B816C8122
:1018F0007D818E819F81AFEFCFCF90E3899FF001F3
:101900001124E858FC4F108E70816181528143810F
:101910003481258196818781DF0118967087119621
:101920006C93119712965C93129713964C9313979E
:1019300014963C93149715962C93159716969C9392
:10194000169717968C9382CFE82FF0E0EE0FFF1FCB
:10195000EC51FF4F85919491FC01659174918091B8
:101960007603909177030E94FB366BE171E08091E2
:101970007603909177030E940D37909377038093BD
:101980007603E091B202F091B302BC0180819181B3
:101990000E941B3766E071E080E090E00E940D3706
:1019A0009093770380937603E091B202F091B302B3
:1019B000BC01828193810E941B3780E090E020E28D
:1019C000E091B202F091B302E80FF91FA081B1815A
:1019D000FD0101900020E9F73197EA1BE03178F42E
:1019E000A091B202B091B302A80FB91F0D90BC91A3
:1019F000A02DAE0FB11D2C93EF5FE03189F7E09180
:101A0000B202F091B302E80FF91F0190F081E02DCE
:101A1000108A02968430910599F608952F923F928C
:101A20004F925F926F927F928F929F92AF92BF92EE
:101A3000CF92DF92EF92FF920F931F93CF93DF939A
:101A4000CDB7DEB72C970FB6F894DEBF0FBECDBF73
:101A5000E82FF0E0EE0FFF1FEC51FF4F85919491BE
:101A6000FC013296E4918E2F90E08C309105C8F500
:101A7000FC01E85CFF4F0C943D30E091AE02F09128
:101A8000AF02A081B18189E0EBEBF1E001900D9212
:101A90008A95E1F7E091AE02F091AF02A281B381A5
:101AA00089E0E4ECF1E001900D928A95E1F7E09194
:101AB000AE02F091AF02A481B58189E0E9EAF1E0DC
:101AC00001900D928A95E1F7E091AE02F091AF029C
:101AD000A681B78189E0E2EBF1E001900D928A9551
:101AE000E1F780E090E020E2E091AE02F091AF02F9
:101AF000E80FF91FA081B181FD0101900020E9F7F5
:101B00003197EA1BE83078F4A091AE02B091AF02B1
:101B1000A80FB91F0D90BC91A02DAE0FB11D2C9335
:101B2000EF5FE83089F7E091AE02F091AF02E80F85
:101B3000F91F0190F081E02D108602968830910502
:101B400099F62C960FB6F894DEBF0FBECDBFDF918D
:101B5000CF911F910F91FF90EF90DF90CF90BF90AA
:101B6000AF909F908F907F906F905F904F903F903D
:101B70002F900895A12CB12C412C512C90E3992E3B
:101B800029EDC22E21E0D22E34EDE32E31E0F32EEA
:101B90000DEC11E038018091AB0290E0042C02C002
:101BA000959587950A94E2F780FFB7C21EE7F20188
:101BB000EE0FFF1FEE0FFF1FE40DF51DE25AFC4F65
:101BC00084818111E6C2949CF001959CF00D112452
:101BD000E858FC4F86A5882309F498C3949CF0012B
:101BE000959CF00D1124E858FC4F86A5813009F42E
:101BF000EDC3949CF001959CF00D1124E858FC4F26
:101C000086A5823009F4CBC32FEF421A520A32E084
:101C1000A30EB11C84E04816510409F0BCCF61CF7B
:101C2000E091AE02F091AF02A081B18189E0EFEDC9
:101C3000F1E001900D928A95E1F7E091AE02F0910A
:101C4000AF02A281B38189E0E8EEF1E001900D924C
:101C50008A95E1F78091A902E091AE02F091AF027E
:101C6000282F082E000C330B3F938F9381EF91E0C8
:101C70009F938F9385818F9384818F930E948C375C
:101C8000E091AE02F091AF02A681B78189E0E9EF61
:101C9000F1E001900D928A95E1F70F900F900F906F
:101CA0000F900F900F901DCFE091AE02F091AF0218
:101CB000A081B18189E0EDE1F1E001900D928A957A
:101CC000E1F7E091AE02F091AF02A281B38189E029
:101CD000E6E2F1E001900D928A95E1F7E091AE0223
:101CE000F091AF02A481B58189E0EFE2F1E00190CB
:101CF0000D928A95E1F7E091AE02F091AF02A681D4
:101D0000B78185E0E8E3F1E001900D928A95E1F773
:101D1000E8CE812C912CA12CB12C00E31FEDE4E442
:101D20002E2EE1E03E2EFDE44F2EF1E05F2EADE3DE
:101D30006A2EA1E07A2E8091AB0290E00A2C02C0BC
:101D4000959587950A94E2F780FFE4C18091A802F7
:101D5000811131C22EE72C870A9DF0010B9DF00DF9
:101D60001124E858FC4F85A1813009F427C2823044
:101D700009F47FC2811126C0808191812281338143
:101D80004481558166817781E091AE02F091AF0286
:101D90007F936F935F934F933F932F939F938F9373
:101DA0001F929C859F937F926F92E80DF91D818110
:101DB0008F9380818F930E948C370FB6F894DEBF8B
:101DC0000FBECDBF9FEFA91AB90AE2E08E0E911C9B
:101DD000F4E0AF16B10409F0AECF83CE812C912C84
:101DE000412C512C40E3742E56E5E52E51E0F52EA2
:101DF0000BE511E060E6A62E61E0B62E77E6C72E71
:101E000071E0D72E8091AB0290E0042C02C0959532
:101E100087950A94E2F780FFA0C12EE7749CF00139
:101E2000759CF00D1124E858FC4F85A1882309F416
:101E300096C1749CF001759CF00D1124E858FC4F7C
:101E400085A1813009F479C2749CF001759CF00D74
:101E50001124E858FC4F85A1823009F488C23FEF75
:101E6000431A530A82E0880E911C94E049165104EB
:101E700049F637CEC12CD12C30E3F32E0EE611E01B
:101E80008091AB0290E00C2C02C0959587950A9446
:101E9000E2F780FF46C12EE7FC9CF001FD9CF00DAF
:101EA0001124E858FC4F82A593A5E091AE02F09171
:101EB000AF029F938F931F922F931F930F93C6018F
:101EC000880F991FE80FF91F81818F9380818F936D
:101ED0000E948C37EFEFCE1ADE0A0FB6F894DEBF01
:101EE0000FBECDBF34E0C316D10451F6FACDC12CDC
:101EF000D12C70E3F72E00E911E08091AB0290E065
:101F00000C2C02C0959587950A94E2F780FF23C1B7
:101F10002EE7FC9CF001FD9CF00D1124E858FC4FCD
:101F200081A192A1A3A1B4A1E091AE02F091AF0270
:101F3000BF93AF939F938F931F922F931F930F93F2
:101F4000C601880F991FE80FF91F81818F93808147
:101F50008F930E948C37EFEFCE1ADE0A0FB6F894FB
:101F6000DEBF0FBECDBF34E0C316D10431F6B9CD0C
:101F7000C12CD12C10E3F12E06E711E08091AB02C9
:101F800090E00C2C02C0959587950A94E2F780FFAB
:101F9000CAC02EE7FC9CF001FD9CF00D1124E8580E
:101FA000FC4F86A197A1A0A5B1A5E091AE02F0914A
:101FB000AF02BF93AF939F938F931F922F931F9363
:101FC0000F93C601880F991FE80FF91F81818F9326
:101FD00080818F930E948C378FEFC81AD80A0FB672
:101FE000F894DEBF0FBECDBFF4E0CF16D10431F6BA
:101FF00078CDE12CF12CC12CD12C07E811E0809197
:10200000AB0290E00C2C02C0959587950A94E2F7FC
:1020100080FF9FC09EE7F601EE0FFF1FEE0FFF1F30
:10202000EC0DFD1DE25AFC4F8481E091AE02F0916F
:10203000AF02882309F479C0EE0DFF1DA081B181A4
:1020400089E0EEE7F1E001900D928A95E1F73FEF2C
:10205000C31AD30A82E0E80EF11C94E0C916D10439
:1020600071F63FCDE091AE02F091AF02A081B18157
:1020700089E0E7E9F1E001900D928A95E1F7E091BE
:10208000AE02F091AF02A281B38189E0E0EAF1E013
:102090000ACDC12CD12C50E3F52E0DE311E0809137
:1020A000AB0290E00C2C02C0959587950A94E2F75C
:1020B00080FF35C08091A80281117BC02EE7FC9C77
:1020C000F001FD9CF00D1124E858FC4F80899189A6
:1020D000E091AE02F091AF029F938F931F922F93E6
:1020E0001F930F93C601880F991FE80FF91F818175
:1020F0008F9380818F930E948C378FEFC81AD80AF4
:102100000FB6F894DEBF0FBECDBFF4E0CF16D104FA
:1021100031F6E7CC30E23C871FCE10E248CD20E21A
:10212000CECF20E2B9CE20E235CFDF92CF921F9200
:102130009F931F930F93EE0DFF1D81818F938081DD
:102140008F930E948C370FB6F894DEBF0FBECDBFC1
:102150007ECF90E260CF20E2DCCE20E25FCEE09145
:10216000AE02F091AF02FF92EF921F922F931F9356
:102170000F93E80DF91D81818F9380818F932B87B9
:102180000E948C370FB6F894DEBF0FBECDBF2B85F3
:1021900050CEE091AE02F091AF02EA0DFB1DA0819E
:1021A000B18189E0EEE7F1E001900D928A95E1F7C7
:1021B0002BCD2EE384CF8EE38C87CECD2081298357
:1021C00031813A8382818B8393819C8324812D8307
:1021D00035813E8386818F8397819887618D728D4B
:1021E000838D948D21A132A143A154A1C58CD68C9D
:1021F000E78CF0A0E091AE02F091AF02FA87E98798
:102200001F921F930E940733A70196010E94073374
:102210009B01AC0160E070E084EB93E40E941F310D
:102220006B017C0129813A81B901330F880B990B2D
:102230000E9404329B01AC01C701B6010E94073322
:102240009F938F937F936F931F923C853F933F9211
:102250002F92E985FA85E80DF91D81818F938081A0
:102260008F930E948C370FB6F894DEBF0FBECDBFA0
:10227000A9CD9081998321812A8332813B838381F7
:102280008C8394819D8325812E8336813F83878132
:102290008887618D728D838D948D21A132A143A198
:1022A00054A1C58CD68CE78CF0A0E091AE02F091E1
:1022B000AF02FA87E9871F92F7EFFF930E94073377
:1022C000A70196010E9407339B01AC0160E070E01A
:1022D00080E090E40E941F316B017C0129813A81EA
:1022E000B901330F880B990B0E9404329B01AC019A
:1022F000C701B6010E9407339F938F937F936F931B
:102300001F923C853F935F924F92A3CFE091AE0224
:10231000F091AF021F921F937F926F92EA0DFB1D07
:1023200081818F9380818F930E948C370F900F90C3
:102330000F900F900F900F9051CCE091AE02F09162
:10234000AF02BF92AF921F922F931F930F93E80D8E
:10235000F91D81818F9380818F932B870E948C3709
:102360000FB6F894DEBF0FBECDBF2B856DCDE091CB
:10237000AE02F091AF02DF92CF921F922F931F9384
:102380000F93E80DF91D81818F9380818F930E94B7
:102390008C370FB6F894DEBF0FBECDBF60CDE09195
:1023A000AE02F091AF021F921F93DF92CF92EA0D1F
:1023B000FB1D81818F9380818F930E948C370F90BA
:1023C0000F900F900F900F900F901ECCE091AE02E7
:1023D000F091AF021F921F93FF92EF92EA0DFB1D47
:1023E00081818F9380818F930E948C370F900F9003
:1023F0000F900F900F900F90FCCBCF93DF938091B5
:10240000AA02823009F482C0833049F0813039F069
:102410008091A7028093AA02DF91CF9108958091C5
:10242000A6020E940E0DA091AE02B091AF02E09103
:10243000AC02F091AD026D917C91808191810E94FE
:102440001237892B09F015C1A091AE02B091AF02ED
:10245000E091AC02F091AD0212966D917C911397D0
:10246000828193810E941237892B09F0DFC0A091ED
:10247000AE02B091AF02E091AC02F091AD021496C1
:102480006D917C911597848195810E941237892BDB
:1024900009F0A9C0A091AE02B091AF02E091AC02E8
:1024A000F091AD0216966D917C9117978681978178
:1024B0000E941237892B09F4ABCF88EC0E94630984
:1024C000E091AE02F091AF02C681D7818881882366
:1024D00031F021960E943F0989918111FBCFA09193
:1024E000AE02B091AF02E091AC02F091AD0216964F
:1024F0006D917C911797868197810E941B378091FF
:10250000A7028093AA02DF91CF9108959091A6022D
:102510008091A502981709F47BCF8091A5020E94B3
:10252000A40C80E80E946309E091B202F091B3022A
:10253000C081D1818881882331F021960E943F0992
:1025400089918111FBCFA091B202B091B302E091C9
:10255000B002F091B1026D917C91808191810E94D5
:102560001B3780EC0E946309E091B202F091B30244
:10257000C281D3818881882331F021960E943F094E
:1025800089918111FBCFA091B202B091B302E09189
:10259000B002F091B10212966D917C9113978281F5
:1025A00093810E941B378091A5028093A60280E050
:1025B00090E0E091AC02F091AD02E80FF91FA0812C
:1025C000B18128E0E2E0F2E001900D922A95E1F776
:1025D00002968A30910569F78091A7028093AA023A
:1025E000DF91CF91089580EC0E946309E091AE02E3
:1025F000F091AF02C481D5818881882331F0219682
:102600000E943F0989918111FBCFA091AE02B09148
:10261000AF02E091AC02F091AD0214966D917C9105
:102620001597848195810E941B3734CF88E80E94DA
:102630006309E091AE02F091AF02C281D38188813B
:10264000882331F021960E943F0989918111FBCFA7
:10265000A091AE02B091AF02E091AC02F091AD0258
:1026600012966D917C911397828193810E941B3702
:10267000FECE80E80E946309E091AE02F091AF02C5
:10268000C081D1818881882331F021960E943F0941
:1026900089918111FBCFA091AE02B091AF02E09180
:1026A000AC02F091AD026D917C91808191810E948C
:1026B0001B37CACE2F923F924F925F926F927F92BA
:1026C0008F929F92AF92BF92CF92DF92EF92FF9242
:1026D0000F931F93CF93DF9300D000D000D0CDB7DE
:1026E000DEB78091A402811105C080915D0388232B
:1026F00009F472C02091A6021091AA02123081F151
:10270000113009F485C0133009F062C08091A40231
:10271000811128C5F89480915D03882309F49FC036
:1027200000915C0310925C037894002309F450C07C
:10273000E091A602F0E0EE0FFF1FEC51FF4F8591F4
:102740009491FC013296E4918E2F90E0FC01319738
:10275000EB30F10508F03CC0EC5BFF4F0C943D30D2
:10276000F89480915D03882309F44FC080915C0345
:1027700010925C03082E000C990B7894820F911D27
:1027800027FD9A956CE070E00E94293097FD8BE060
:102790008093A5028091A402882359F00E947603B9
:1027A000811107C08091AB02811103C081E0809349
:1027B000A7028091A402882359F00E947603811118
:1027C00007C08091AB02882319F083E08093A702B1
:1027D0001092A40210925D0326960FB6F894DEBF05
:1027E0000FBECDBFDF91CF911F910F91FF90EF9062
:1027F000DF90CF90BF90AF909F908F907F906F9021
:102800005F904F903F902F90089580E090E0B5CF7B
:102810008091A4028823E1F20E947603843009F1BA
:1028200008F49BC2863071F008F48DC2873081F6BF
:102830009091AB0281E089278093AB0283E0809383
:10284000A70209C09091AB0282E089278093AB0276
:1028500083E08093A702133009F45CCFB9CF00E086
:1028600063CF9091AB0288E089278093AB0283E02D
:102870008093A702F0CF84E6089F802C1124982C27
:10288000990C9908E0E0F0E070E3772E502E550C9B
:102890005508602E8091AB0290E00E2E02C09595F7
:1028A00087950A94E2F780FF67C08091A8027E9E18
:1028B000D0017F9EB00D11249D0128583C4F190175
:1028C000D901882309F471C22C9111963C9111977A
:1028D00012964C91129713965C91139714966C91E3
:1028E000149715967C91159716968C9116971796B6
:1028F0009C9117975401C92CD92CE92CF92C092D3E
:10290000192D0E947A308101085F1F4F18962C9371
:10291000D80111963C93119712964C9312971396E7
:102920005C93139714966C93149715967C93159754
:1029300016968C93169717969C93D10118963C91F6
:10294000D80111962C91119712968C91129713968B
:102950008C91139714968C91149715968C911597CA
:1029600016968C91169717968C91832F922FD101E2
:1029700051969C938E9350973196E430F10509F06F
:1029800089CF26CF0E94CC0781E00E9463098FE0A7
:1029900097E20197F1F700C000000BE012E083E737
:1029A0000E943F09D8018D918D018111F9CF10CF7F
:1029B000812C912CE0E3EE2EF02E8091AB0290E082
:1029C000082C02C0959587950A94E2F780FF4FC0C6
:1029D000E89C8001E99C100D112408581C4FD80177
:1029E00091966D917D918D919C9194971F140CF00F
:1029F00071C29B01AC010E94AE30F80161A372A3C9
:102A000083A394A3E89C8001E99C100D112408582D
:102A10001C4FD80191966D917D918D919C919497C9
:102A200020E030E040E85FE30E941A3187FD48C2B1
:102A3000E89C8001E99C100D112408581C4FD80116
:102A400091966D917D918D919C91949720E030E0CD
:102A500040E052E40E94023318164CF480E090E00B
:102A6000A0E0B2E4F80181A392A3A3A3B4A3FFEF73
:102A70008F1A9F0A24E08216910409F09ECFA8CEF7
:102A80000E947B0881E00E946309EFE0F7E2319742
:102A9000F1F700C0000001E112E08CE60E943F095E
:102AA000D8018D918D018111F9CF92CEE12CF12CBD
:102AB00001E010E08091AB0290E00E2C02C09595F1
:102AC00087950A94E2F780FD5FC13FEFE31AF30AAE
:102AD00084E0E816F10471F782E08093A702809108
:102AE000A6028F5F8093A60273CE812C912C10E3F7
:102AF000C02E000FDD08EE08FF088091AB0290E0C9
:102B0000082C02C0959587950A94E2F780FF23C0B0
:102B1000189DC001199D900D11249C0128583C4F0F
:102B20005901D90196964D905D906D907C90999742
:102B3000C701B6010E94043220E030E040E251E4D7
:102B40000E941F31A30192010E94AE30F50166A3DD
:102B500077A380A791A7FFEF8F1A9F0A24E0821620
:102B6000910459F635CE20E030E060E3A02F000F4D
:102B7000BB0B41E050E08091AB0290E0022E02C01E
:102B8000959587950A94E2F780FF21C0629FF00136
:102B9000639FF00D1124E858FC4F82A593A58A0F7E
:102BA0009B1F93A782A782A593A5892B11F453A7F6
:102BB00042A7629FF001639FF00D1124E858FC4F7B
:102BC00082A593A5880F991F019795A784A72F5FCA
:102BD0003F4F2430310579F6FBCD20E030E040E373
:102BE00052E08091AB0290E0022E02C0959587954D
:102BF0000A94E2F780FF18C0429FF001439FF00D56
:102C00001124E858FC4F85A1800F85A385A187FD7D
:102C100055C1429FF001439FF00D1124E858FC4F2D
:102C200085A183300CF015A22F5F3F4F2430310572
:102C3000C1F6CECD24E60202C001112489839A8315
:102C4000392E330C3308812C912C80E3282E402E12
:102C5000002E000C550866087708102F110F110B75
:102C60000D831E838091AB0290E0082C02C09595E5
:102C700087950A94E2F780FF16C0289CF001299CF2
:102C8000F00D1124DF01A858BC4FBC83AB8395968F
:102C90008C919597813009F443C1823009F426C1A3
:102CA000882309F45EC1BFEF8B1A9B0AE4E08E16FD
:102CB0009104C1F68DCD812C912C10E362E0F62EAB
:102CC000882D2091AB0230E0082C02C03595279565
:102CD0000A94E2F720FF2EC0F401EE0FFF1FEE0F63
:102CE000FF1FE80DF91DE25AFC4F9481911170CD40
:102CF000189DF001199DF00D1124E858FC4F96A580
:102D0000900F96A796A597FD2AC1189DF001199DD1
:102D1000F00D1124E858FC4F96A593300CF016A640
:102D2000189DF001199DF00D1124E858FC4F66A57F
:102D30000E941D0CBFEF8B1A9B0AE4E08E169104D3
:102D400009F0BECF45CD9091AB0284E089278093F6
:102D5000AB0283E08093A7027ECD882371F083309D
:102D600009F036CD82E08093A7028091A6028F5FA2
:102D70008093A6021092A8026ECD9091A80281E0E5
:102D800089278093A80267CD8E2D0E948806209106
:102D9000AB02C8010E2C01C0880F0A94EAF7822703
:102DA0008093AB020E94FD1190CEAC901196BC9026
:102DB00011971296CC9012971396DC901397149655
:102DC000EC9014971596FC90159716960C91169703
:102DD00017961C911797262D352D452D552D652DB0
:102DE000752D852D952D8DCD10160CF074C180910B
:102DF000A9028F5F8093A9028091A902803114F00B
:102E00001092A9028091A902082E000C990BFC01D6
:102E1000EE0FFF1F880F991F880F991F880F991FAA
:102E2000E80FF91FE854FD4F8081882301F380915A
:102E3000A902082E000C990BFC01EE0FFF1F880F52
:102E4000991F880F991F880F991FE80FF91FE854E1
:102E5000FD4F81858111C3C020E030E060E38091A7
:102E6000A902082E000C990BFC01EE0FFF1FEE0FBC
:102E7000FF1FE80FF91FE20FF31FEE0FFF1FE854CB
:102E8000FD4F41815281852F880F880B629FD001B1
:102E9000639FB00D1124A858BC4FFD0138961896B9
:102EA0004C93518382838383848385838683878342
:102EB0002F5F3F4F2430310591F68ACC55A3A9CE20
:102EC00080E090E0A0E8BFE3F80181A392A3A3A370
:102ED000B4A3AECD20E030E040E05FE30E940733D2
:102EE000F80161A372A383A394A38CCDAB81BC81B1
:102EF0009696CD90DD90ED90FC909997C301B2012C
:102F00000E94043220E030E040E05EE30E9407339C
:102F1000AB01BC0197018601882D0E94320BC3CE04
:102F20008091A802882309F4C4C0AB81BC81969625
:102F3000CD90DD90ED90FC909997C301B2010E9475
:102F4000043220E030E040E251E40E940733AB015C
:102F5000BC0197018601882D0E94470AA4CEF6A6DF
:102F6000D4CE8091A802882309F4D8C01896EB81AA
:102F7000FC81208511963C91119712964C911297E5
:102F800013965C91139714966C91149715967C91F7
:102F9000159716968C91169717969C911797A9805E
:102FA000BA80C32CD32CE32CF32C032D132D0E94B9
:102FB0007A30208711963C93119712964C93129772
:102FC00013965C93139714966C93149715967C93B1
:102FD000159716968C93169717969C9364CE8091AE
:102FE000A902082E000C990BFC01EE0FFF1F880FA1
:102FF000991F880F991F880F991FE80FF91FE85430
:10300000FD4F8185813009F0E3CB612C712C40E3C9
:10301000942E969CF001979CF00D1124E858FC4FDB
:10302000A080B180C280D380E480F58006811781C2
:103030008091A902082E000C990BDC01AA0FBB1F7E
:10304000AA0FBB1FA80FB91FA60DB71DAA0FBB1F44
:10305000A854BD4F11964D915C911297952F990FE1
:10306000990B9A01492F592F692F792F892F0E9487
:103070007A30DF011896208711963C9311971296AB
:103080004C93129713965C93139714966C93149722
:1030900015967C93159716968C93169717969C9376
:1030A000FFEF6F1A7F0A24E06216710409F0B1CFB6
:1030B0008FCBEB81FC81C6A0D7A0E0A4F1A4C30113
:1030C000B2010E940432AB01BC0197018601882D38
:1030D0000E94470AE8CD2FE015C08091A902082E72
:1030E000000C990BFC01EE0FFF1F880F991F880F32
:1030F000991F880F991FE80FF91FE854FD4F808131
:10310000811195CE8091A90281508093A90280916E
:10311000A90287FFE2CF2093A902DFCFAB81BC8158
:103120001896EB81FC81A0841196BC9011971296A1
:10313000CC9012971396DC9013971496EC901497FA
:103140001596FC90159716960C91169717961C914C
:1031500017972D813E81432F532F632F732F832F7A
:10316000932F25CF0E947603843009F47ACB48F060
:10317000863009F467CB08F4E6CD873009F458CBE4
:10318000C9CA882309F4F9CD833009F4EBCDC2CA4A
:1031900014B88FEF85B984B5826084BD80E587BDA2
:1031A000EEE6F0E080818260808316BC85B58560A4
:1031B00085BD08958091A402811102C08AE208951C
:1031C0000C947603F89480915D03882331F080910C
:1031D0005C0310925C037894089580E078940895DD
:1031E000CF93DF93F894C4EBD2E04881598188E310
:1031F00094E0FC01A081B18120E4FA0101900D92DC
:103200002A95E1F721E0DC0112962C93E881F981FF
:1032100080E4DF011D928A95E9F71B821A82789477
:10322000DF91CF9108958F929F92AF92BF92CF92EC
:10323000DF92EF92FF920F931F93CF93DF93F89457
:1032400080913A04882309F46BC0809138049091EE
:10325000390467E172E00E940D376C01E0919C0235
:10326000F0919D02A080B180C6E3D2E036E7E32E64
:1032700032E0F32E812C40E8942EFE01059114914A
:10328000F80165917491C5010E94FB36E0919C02A2
:10329000F0919D02A080B180B501C6010E94123755
:1032A000892B29F4F80133969490319784902296D3
:1032B000EC16FD0611F78820C9F0C1E067E172E065
:1032C00080E090E00E940D37EC2FF0E0EE0FFF1F42
:1032D00020919C0230919D02E20FF31FBC0180817E
:1032E00091810E941B37CF5F8C1640F7E091380424
:1032F000F091390480E4DF011D928A95E9F710927C
:103300003A047894892DDF91CF911F910F91FF900E
:10331000EF90DF90CF90BF90AF909F908F900895E7
:1033200080E8982EEECF7F928F929F92AF92BF92BD
:10333000EF92FF920F931F93CF93DF93CDB7DEB73A
:103340002C970FB6F894DEBF0FBECDBF7B018A016C
:103350004AE050E060E070E00E94E234762E23E024
:10336000261708F44BC06CE172E0C8010E941237C6
:10337000892B29F162E272E0C8010E941237892B81
:1033800009F4A7C066E272E0C8010E941237892BD7
:1033900009F446C089E292E02C960FB6F894DEBF9D
:1033A0000FBECDBFDF91CF911F910F91FF90EF9096
:1033B000BF90AF909F908F907F900C942105072D28
:1033C00010E04AE050E060E070E0C7010E94E234A3
:1033D000872F880F880B20E3209FD001219FB00DFD
:1033E0001124A858BC4FFD01389618966C93718330
:1033F0008283838384838583868387832C960FB619
:10340000F894DEBF0FBECDBFDF91CF911F910F911A
:10341000FF90EF90BF90AF909F908F907F90089516
:1034200030E3739EF0011124E858FC4F80818983BA
:1034300021812A8332813B8383818C8324812D8364
:1034400035813E8386818F8327812887618D728DA8
:10345000838D948D21A132A143A154A1858C968C9A
:10346000A78CB0A00E940733A50194010E940733E6
:103470009B01AC0160E070E080E090E40E941F31AD
:103480004B015C0129813A81B901330F880B990BFB
:103490000E9404329B01AC01C501B4010E940733B4
:1034A0009B01AC01C70129873A874B875C870E9443
:1034B000F83529853A854B855C850E94AD30AB0196
:1034C000BC0100E010E020E83FE3872D0E94320BB2
:1034D00095CF30E3739EF0011124E858FC4F8081B2
:1034E000898321812A8332813B8383818C83248158
:1034F0002D8335813E8386818F8327812887618D47
:10350000728D838D948D21A132A143A154A1858C0C
:10351000968CA78CB0A00E940733A50194010E944D
:1035200007339B01AC0160E070E084EB93E40E9400
:103530001F314B015C0129813A81B901330F880B9E
:10354000990B0E9404329B01AC01C501B4010E9499
:1035500007339B01AC01C70129873A874B875C87FA
:103560000E94F83529853A854B855C850E94AD30EF
:10357000AB01BC0100E010E020E83FE3872D0E9492
:10358000470A3CCF3F924F925F926F927F928F9209
:103590009F92AF92BF92CF92DF92EF92FF920F93E2
:1035A0001F93CF93DF933B01EA014AE050E060E0D4
:1035B00070E00E94E234962E23E02617F0F06CE1D2
:1035C00072E0CE010E941237892B09F449C062E2F1
:1035D00072E0CE010E941237892B09F47EC066E2A8
:1035E00072E0CE010E941237892B31F165E372E05F
:1035F000CE010E941237892B91F0DF91CF911F915C
:103600000F91FF90EF90DF90CF90BF90AF909F9081
:103610008F907F906F905F904F903F900895C3017F
:103620000E94F835AB01BC0100E010E020E83FE368
:10363000892D0E94320BE1CFC3010E94F835AB0106
:10364000BC0100E010E020E83FE3892D0E94320B2E
:1036500065E372E0CE010E941237892B71F6DFCF4D
:103660004AE050E060E070E0C3010E94E23420E3F1
:10367000929ED0011124A858BC4FFD01389618968F
:10368000AC901897B1805280838004811581468068
:1036900037806B017C01FF0CCC08DC2C76019B0190
:1036A000AC016C2D7C2D8C2D9C2DC52CD82C78013B
:1036B000042D132D0E947A3018962C933183428367
:1036C0005383648375838683978362E272E0CE01BD
:1036D0000E941237892B09F082CFC3010E94F8356E
:1036E000AB01BC0100E010E020E83FE3892D0E941F
:1036F000470A66E272E0CE010E941237892B09F078
:1037000075CF9ACF0F931F93CF938B014AE050E070
:1037100060E070E00E94E234C62F4AE050E060E0D2
:1037200070E0C8010E94E234C43068F5662379F184
:1037300041B16C2F70E09B012C5F3F4F81E090E026
:10374000FC0102C0EE0FFF1F2A95E2F79F01342F04
:10375000322B31B932B1422F4095342332B930E3A4
:10376000369FF001379FF00D1124E858FC4F31E0EF
:10377000378B37B101C0880FCA95EAF7832B87B919
:1037800087B1282B27B9CF911F910F91089560E041
:103790008C2FCF911F910F910C9470054F925F92D7
:1037A0006F927F928F929F92AF92BF92CF92DF9251
:1037B000EF92FF92CF93DF937B014AE050E060E00D
:1037C00070E00E94E234C62F643008F079C06CE1EA
:1037D00072E0C7010E941237892B09F424C162E20A
:1037E00072E0C7010E941237892B09F47EC066E29D
:1037F00072E0C7010E941237892B09F4C5C090E31B
:10380000C99FF0011124E858FC4F4080518062802C
:10381000738084809580A680B780618D728D838D42
:10382000948D21A132A143A154A1C58CD68CE78CE3
:10383000F0A0C0917203D09173030E940733A701D7
:1038400096010E9407339B01AC0160E070E084EBBD
:1038500093E40E941F316B017C01B201550C880B6F
:10386000990B0E9404329B01AC01C701B6010E9472
:1038700007339F938F937F936F9380E592E09F939D
:103880008F93DF93CF930E948C378DB79EB70896A6
:103890000FB6F8949EBF0FBE8DBF809172039091BA
:1038A0007303DF91CF91FF90EF90DF90CF90BF90A7
:1038B000AF909F908F907F906F905F904F90089502
:1038C00080917203909173031F92CF9329E332E0AA
:1038D0003F932F939F938F930E948C370F900F905D
:1038E0000F900F900F900F90D8CF90E3C99FF001E9
:1038F0001124E858FC4F408051806280738084809E
:103900009580A680B780618D728D838D948D21A165
:1039100032A143A154A1C58CD68CE78CF0A0C091F4
:103920007203D09173030E940733A70196010E948E
:1039300007339B01AC0160E070E084EB93E40E94EC
:103940001F316B017C01B201550C880B990B0E9451
:1039500004329B01AC01C701B6010E9407339F935B
:103960008F937F936F9380E592E09F938F93DF9384
:10397000CF930E948C378DB79EB708960FB6F894F8
:103980009EBF0FBE8DBF89CF90E3C99FF001112468
:10399000E858FC4F4080518062807380848095801D
:1039A000A680B780618D728D838D948D21A132A107
:1039B00043A154A1C58CD68CE78CF0A0C0917203B2
:1039C000D09173030E940733A70196010E94073329
:1039D0009B01AC0160E070E080E090E40E941F3148
:1039E0006B017C01B201550C880B990B0E940432CB
:1039F0009B01AC01C701B6010E9407339F938F93CF
:103A00007F936F9380E592E09F938F93DF93CF93A3
:103A10000E948C378DB79EB708960FB6F8949EBF5C
:103A20000FBE8DBF3ACF80E3C89FF0011124E85844
:103A3000FC4F208131814281538164817581A6814F
:103A4000E7818091720390917303EF93AF937F931B
:103A50006F935F934F933F932F932DE432E03F9307
:103A60002F939F938F930E948C378DB79EB70C96A0
:103A70000FB6F8949EBF0FBE8DBF0FCFAF92BF920F
:103A8000CF92DF92EF92FF920F931F934AE050E0A4
:103A900060E070E00E94E234643008F042C080E3ED
:103AA000689FF0011124E858FC4FDF01189620852B
:103AB00011963C91119712964C91129713965C9126
:103AC000139714966C91149715967C9115971696EA
:103AD0008C91169717969C91A080B180C280D3805C
:103AE000E480F58006811781E0917203F091730301
:103AF0000E94983089F081E390E0918380838091E7
:103B00007203909173031F910F91FF90EF90DF90DC
:103B1000CF90BF90AF90089580E390E09183808331
:103B2000EECF80917203909173031F926F9329E3FC
:103B300032E03F932F939F938F930E948C370F9087
:103B40000F900F900F900F900F90D9CF4AE050E058
:103B500060E070E00E94E2346430E0F4862F0E945E
:103B60004E0620917203309173039F938F938DE4DF
:103B700092E09F938F933F932F930E948C370F90E7
:103B80000F900F900F900F900F9080917203909173
:103B90007303089580917203909173031F926F9342
:103BA00029E332E03F932F939F938F930E948C37AA
:103BB0000F900F900F900F900F900F9080917203C5
:103BC0009091730308954AE050E060E070E00E9435
:103BD000E234643008F580E3689FF0011124E8586E
:103BE000FC4F2089318980917203909173033F9338
:103BF0002F932DE432E03F932F939F938F930E9456
:103C00008C370F900F900F900F900F900F90809126
:103C100072039091730308958091720390917303DE
:103C20001F926F9329E332E0E6CF0F931F93CF9358
:103C30008B014AE050E060E070E00E94E234C62F61
:103C4000643098F44AE050E060E070E0C8010E94FF
:103C5000E23420E3C29FF0011124E858FC4F718B3D
:103C6000608BCF911F910F91089580917203909175
:103C700073031F92CF9329E332E03F932F939F93D7
:103C80008F930E948C3780917203909173030F90F1
:103C90000F900F900F900F900F90CF911F910F9159
:103CA0000C9421054AE050E060E070E00E94E234AC
:103CB000643038F580E3689FF0011124E858FC4F28
:103CC000818D928DA38DB48D2091720330917303F9
:103CD000BF93AF939F938F9380E592E09F938F93D1
:103CE0003F932F930E948C378DB79EB708960FB6DF
:103CF000F8949EBF0FBE8DBF8091720390917303A5
:103D0000089580917203909173031F926F9329E33A
:103D100032E03F932F939F938F930E948C370F90A5
:103D20000F900F900F900F900F90809172039091D1
:103D3000730308950F931F93CF938B014AE050E0D4
:103D400060E070E00E94E234C62F643088F4C8015D
:103D50000E94F83520E3C29FF0011124E858FC4F7F
:103D6000618F728F838F948FCF911F910F910895E0
:103D700080917203909173031F92CF9329E332E0F5
:103D80003F932F939F938F930E948C378091720360
:103D9000909173030F900F900F900F900F900F90D2
:103DA000CF911F910F910C9421054AE050E060E003
:103DB00070E00E94E234643038F580E3689FF001DF
:103DC0001124E858FC4F858D968DA78DB0A12091C8
:103DD000720330917303BF93AF939F938F9382E9E4
:103DE00091E09F938F933F932F930E948C378DB7D1
:103DF0009EB708960FB6F8949EBF0FBE8DBF8091F8
:103E000072039091730308958091720390917303EC
:103E10001F926F9329E332E03F932F939F938F93E9
:103E20000E948C370F900F900F900F900F900F9073
:103E3000809172039091730308950F931F93CF9312
:103E40008B014AE050E060E070E00E94E234C62F4F
:103E5000643088F4C8010E94F83520E3C29FF00165
:103E60001124E858FC4F658F768F878F90A3CF91F0
:103E70001F910F91089580917203909173031F9287
:103E8000CF9329E332E03F932F939F938F930E9428
:103E90008C3780917203909173030F900F900F9065
:103EA0000F900F900F90CF911F910F910C942105BF
:103EB0004AE050E060E070E00E94E234643038F59F
:103EC00080E3689FF0011124E858FC4F81A192A182
:103ED000A3A1B4A12091720330917303BF93AF9358
:103EE0009F938F9382E991E09F938F933F932F93BA
:103EF0000E948C378DB79EB708960FB6F8949EBF78
:103F00000FBE8DBF809172039091730308958091CD
:103F10007203909173031F926F9329E332E03F93F2
:103F20002F939F938F930E948C370F900F900F9039
:103F30000F900F900F9080917203909173030895EA
:103F40000F931F93CF938B014AE050E060E070E045
:103F50000E94E234C62F643088F4C8010E94F8350C
:103F600020E3C29FF0011124E858FC4F61A372A323
:103F700083A394A3CF911F910F9108958091720311
:103F8000909173031F92CF9329E332E03F932F93D5
:103F90009F938F930E948C3780917203909173034B
:103FA0000F900F900F900F900F900F90CF911F9147
:103FB0000F910C9421054AE050E060E070E00E940F
:103FC000E234643008F580E3689FF0011124E8587A
:103FD000FC4F22A533A580917203909173033F9308
:103FE0002F932DE432E03F932F939F938F930E9462
:103FF0008C370F900F900F900F900F900F90809133
:1040000072039091730308958091720390917303EA
:104010001F926F9329E332E0E6CF0F931F93CF9364
:10402000DF931F92CDB7DEB78B014AE050E060E02E
:1040300070E00E94E234643098F4C80169830E9401
:10404000FC35698120E3629FF0011124E858FC4FA0
:1040500093A782A70F90DF91CF911F910F910895A1
:104060000F90DF91CF911F910F910C9441052F92EA
:104070003F924F925F926F927F928F929F92AF92F8
:10408000BF92CF92DF92EF92FF920F931F93CF9345
:10409000DF9300D000D0CDB7DEB78B017A014AE0C4
:1040A00050E060E070E00E94E234643008F02CC11F
:1040B000262E312CF101EE0FFF1FEE0FFF1FE20D38
:1040C000F31DE25AFC4F84818823B9F00F900F90C2
:1040D0000F900F90DF91CF911F910F91FF90EF9074
:1040E000DF90CF90BF90AF909F908F907F906F9018
:1040F0005F904F903F902F900895C7010E94F83530
:104100006B017C016FEC71E0C8010E941237892BB2
:1041100009F4CBC080E3829DF001839DF00D112452
:104120009F0128583C4FD90159968D909D90AD9094
:10413000BC905C975D964D905D906D907C90909753
:1041400091968D919D910D90BC91A02D89839A831C
:10415000AB83BC83C701B6019F7720E030E04AE71C
:1041600054E40E9407336B017C01A3019201C50155
:10417000B4010E94073329813A814B815C810E94FE
:1041800007339B01AC01C701B6010E941F310E9499
:1041900074330E94CD314B015C01CB01892B09F4B2
:1041A000ECC06031774208F0D6C06CED71E0C80118
:1041B0000E941237892BC1F520E3229DC001239D67
:1041C000900D1124FC01E858FC4F7F0181E0808FA5
:1041D00093A682A6708161815281438134812581B9
:1041E000968187813896D70118967C9318976183BA
:1041F00052834383348325839683878318962C9137
:104200003181428153816481758186819781A1E0EA
:104210000E948330D70118962C93318342835383B5
:1042200064837583868397836BED71E0C8010E9478
:104230001237892B09F04ACF20E3229DC001239D2C
:10424000900D11248C0108581C4F82E0F801808FDA
:1042500093A682A670816181528143813481258138
:10426000968187813896D80118967C931897618338
:1042700052834383348325839683878318962C91B6
:104280003181428153816481758186819781AFEF4D
:104290000E948330D80118962C9331834283538334
:1042A000648375838683978311CFF89480E3829D1E
:1042B000F001839DF00D1124E858FC4F108E83E02F
:1042C00090E093A782A770816181528143813481FC
:1042D000258196818781DF011896708711966C93EE
:1042E000119712965C93129713964C93139714960A
:1042F0003C93149715962C93159716969C931697A6
:1043000017968C937894E2CEA0917203B0917303C8
:1043100083E1E8E0F1E001900D928A95E1F7809168
:104320007203909173030F900F900F900F90DF9195
:10433000CF911F910F91FF90EF90DF90CF90BF90A2
:10434000AF909F908F907F906F905F904F903F9035
:104350002F900C942105A0917203B091730383E117
:10436000E7E6F2E001900D928A95E1F78091720301
:10437000909173030E94210518CF80917203909150
:1043800073031F921F9223E532E03F932F939F9375
:104390008F930E948C3780917203909173030F90DA
:1043A0000F900F900F900F900F90BDCFF8940E9438
:1043B00093030E94CC0778940895EF92FF920F9395
:1043C0001F93CF93DF931F92CDB7DEB77B018A0196
:1043D0004AE050E060E070E00E94E234643070F542
:1043E000C70169830E94FC357C01C8010E94FC352D
:1043F0006981E816F90659F18E159F05CCF070E039
:10440000FB01EE0FFF1FEE0FFF1F6E0F7F1FFB0163
:10441000E25AFC4FF182E0829383828381E08483BD
:104420000F90DF91CF911F910F91FF90EF90089522
:104430003E2D2F2D7C01832F922FE1CF0F90DF9106
:10444000CF911F910F91FF90EF900C94410570E078
:10445000FB01EE0FFF1FEE0FFF1F6E0F7F1FFB0113
:10446000E25AFC4F118210821382128214820F9042
:10447000DF91CF911F910F91FF90EF9008950F93CF
:104480001F93CF938B014AE050E060E070E00E9400
:10449000E234C62F6430C0F44AE050E060E070E0DF
:1044A000C8010E94E2348C2F90E0FC01EE0FFF1F48
:1044B000EE0FFF1F8E0F9F1FFC01E25AFC4F64831B
:1044C000CF911F910F910895CF911F910F910C944F
:1044D00041056F927F928F929F92AF92BF92CF923F
:1044E000DF92EF92FF920F931F93CF93DF936B01B5
:1044F000EA0159014AE050E060E070E00E94E234D5
:10450000662E4FE0461708F16AE772E0C7010E9485
:104510001237892B49F5662D70E0FB01EE0FFF1F66
:10452000660F771F660F771F660F771FE60FF71F5F
:10453000E854FD4F108281E081871282118214823B
:1045400013821682158210861782DF91CF911F91F8
:104550000F91FF90EF90DF90CF90BF90AF909F9022
:104560008F907F906F900895712C4AE050E060E04A
:1045700070E0C6010E94E2344301880C991C660C6D
:10458000771C660C771C660C771C9401260D371D72
:10459000F901E854FD4F6F01728361834AE050E0F6
:1045A00060E070E0CE010E94E234F6017483638320
:1045B0004AE050E060E070E0C5010E94E234F6019C
:1045C000768365834AE050E060E070E0C8010E94B5
:1045D000E234F6017087678381E080836FE772E0E1
:1045E000C7010E941237892B11F4F601118663E886
:1045F00072E0C7010E941237892B09F0A6CFF4019F
:10460000E60DF71DE854FD4F81E081879ECF4AE01B
:1046100050E060E070E00E94E234643008F580E32E
:10462000689FF0011124E858FC4F8789E0917203DC
:10463000F091730381110AC080E390E0918380833D
:1046400080917203909173030C94210581E390E0B3
:104650009183808380917203909173030C94210560
:104660000C9441050F931F93CF93DF93C0E0D0E0EC
:1046700007E812E08C2F9D2FFC01EE0FFF1F880F23
:10468000991F880F991F880F991FE80FF91FE85489
:10469000FD4F70818C2F9D2FFC01EE0FFF1F880FA7
:1046A000991F880F991F880F991FE80FF91FE85469
:1046B000FD4F61858C2F9D2FFC01EE0FFF1F880F92
:1046C000991F880F991F880F991FE80FF91FE85449
:1046D000FD4F478150858C2F9D2FFC01EE0FFF1F52
:1046E000880F991F880F991F880F991FE80FF91FCE
:1046F000E854FD4F258136818C2F9D2FFC01EE0F54
:10470000FF1F880F991F880F991F880F991FE80FA7
:10471000F91FE854FD4FA381B4818C2F9D2FFC011C
:10472000EE0FFF1F880F991F880F991F880F991F81
:10473000E80FF91FE854FD4F0180F281E02D8091D0
:104740007203909173031F927F931F926F935F93F5
:104750004F933F932F93BF93AF93FF93EF93DF93C9
:10476000CF931F930F939F938F930E948C378091C9
:104770007203909173030E94210521968DB79EB715
:1047800042960FB6F8949EBF0FBE8DBFC031D105C3
:1047900009F070CFDF91CF911F910F9108954AE0FA
:1047A00050E060E070E00E94E234643008F580E39D
:1047B000689FF0011124E858FC4F87A5E09172032F
:1047C000F091730381110AC080E390E091838083AC
:1047D00080917203909173030C94210581E390E022
:1047E0009183808380917203909173030C942105CF
:1047F0000C9441051F920F920FB60F9211248F93C4
:104800009F93EF93FF938091C6009091B602911110
:104810001CC08D3009F18A3021F09091B70290349C
:1048200020F1E091B402F091B5028091B702E80F57
:10483000F11D108281E08093B6028091C00085FF57
:10484000FCCF86E08093C60007C08091C00085FF42
:10485000FCCF85E18093C600FF91EF919F918F91EE
:104860000F900FBE0F901F901895E091B402F09139
:10487000B5029091B702E90FF11D80838091B702D4
:104880008F5F8093B702E8CF1F920F920FB60F92FF
:1048900011248F939F93EF93FF9393B18091A40280
:1048A00081113AC08091A302882309F43EC080910F
:1048B000A202981709F443C01092A2021092A30218
:1048C000E0919E02F0919F02EE0FFF1FEE0FFF1F7F
:1048D000EF70FF27F0939F02E0939E02199B05C0A3
:1048E000E260F0939F02E0939E021A9B05C0E16094
:1048F000F0939F02E0939E02EE0FFF1FE75AFB4FDB
:104900008491882349F0E49180915C03E80FE0935F
:104910005C0381E080935D03FF91EF919F918F9104
:104920000F900FBE0F901F9018958091A2029817BC
:1049300039F29093A20281E08093A302C1CF81E07B
:104940008093A402BBCF1F920F920FB60F92112437
:104950002F923F924F925F926F927F928F929F928F
:10496000AF92BF92CF92DF92EF92FF920F931F937D
:104970002F933F934F935F936F937F938F939F9367
:10498000AF93BF93EF93FF93CF93DF93CDB7DEB792
:10499000C254D109DEBFCDBF9E012F5F3F4F3BAF59
:1049A0002AAFCE0181969DAF8CAF9CAB8BAB1AAA80
:1049B00019AA412C512C19AE1EAE21965FAE4EAEF7
:1049C000219723963FAF2EAF239700E3402E2196E9
:1049D0002EAC3FAC2197429CC001439C900D11240A
:1049E0009C0128583C4F4901390138E0630E711C85
:1049F000D40118962C911897F3013181428153818B
:104A00006481758186819781AC901196BC901197D5
:104A10001296CC9012971396DC9013971496EC9004
:104A200014971596FC90159716960C911697179655
:104A30001C910E948F3059016A017B018C012396E1
:104A4000AEADBFAD23972C931196BC9211971296E1
:104A50004C9312971396DC92139714966C931497B9
:104A60001596FC92159716968C93169717961C938D
:104A7000179718962396BFAFAEAF2397F401618DB9
:104A8000728D838D948D258D368D478D50A121A0FB
:104A900032A043A054A02DAA3EAA4FAA58AE0E940D
:104AA0000733A20191010E940733EBA9FCA961938E
:104AB000719381939193FCABEBAB9501A601B70188
:104AC000C801A0E00E94A13009F470C0D4019C96F6
:104AD0008D919C919D97892B09F4B4C19C968D91E1
:104AE0009C919D9701979D969C938E939C9752962F
:104AF0006D917D918D919C91559720E030E040E83B
:104B00005FE30E9402331816ACF5F4012085D3014F
:104B100011963C91119712964C91129713965C91B5
:104B2000139714966C91149715967C911597169679
:104B30008C91169717969C91A1E00E948330208754
:104B4000F301318342835383648375838683978320
:104B5000D40152966D917D918D919C91559720E055
:104B600030E040E85FE30E94AD30F401628B738B6C
:104B7000848B958B10E3412E21962EAC3FAC219770
:104B8000429C8001439C100D112408581C4FD801F1
:104B900052966D917D918D919C91559720E030E0DA
:104BA00040E85FEB0E941A3187FD85C221968EADE9
:104BB0009FAD2197019621969FAF8EAF2197A9A90E
:104BC000BAA91296BAABA9AB049709F0FECE88B188
:104BD0002EAC822988B921E22A95F1F7000088B12C
:104BE00029AC822988B92DE02A95F1F7000018B880
:104BF000612C712C80E3382E4AAC5BAC3BAA2CAC08
:104C00003DAC3BA9369DC001379D900D1124DC01C0
:104C1000A858BC4F4D0156968C91882309F4DAC0F0
:104C2000F201D080E180F28003811481B581C680D9
:104C3000B7802D2D3E2D4F2D502F612F7B2F8C2D8A
:104C40009B2DA0E00E94A13009F00CF43AC1D401E0
:104C50002C9111963C91119712964C9112971396A4
:104C60005C91139714966C91149715967C911597F7
:104C700016968C91169717969C91F101C080D18061
:104C8000E280F380A1E00E9483300E94FC31A70102
:104C900096010E94023318160CF050C0D4011C92E9
:104CA00011961C92119712961C92129713961C92B1
:104CB000139714961C92149715961C921597169696
:104CC0001C92169717961C921797F4013896FAAB18
:104CD000E9AB1896AC90B180B281BDAB0381148171
:104CE000E581E9AFA9A9BAA91696BC91BAAFE9A91D
:104CF000FAA9F781FCAFC701B6010E9474330E9484
:104D00009131F22FE32F6A017B01DC0195014DA95E
:104D1000502F612F79AD8AAD9CADAF2EBE2E8D0187
:104D20000E948F30D40118962C93E9A9FAA93183F7
:104D30004283538364837583868397832BA9269D3F
:104D4000F001279DF00D1124E858FC4F208131819E
:104D5000428153816481758186819781A1E00E949F
:104D600083302083318342835383648375838683B6
:104D70009783808D882329F18F01085F1F4F20853D
:104D8000D80111963C91119712964C911297139657
:104D90005C91139714966C91149715967C911597C6
:104DA00016968C91169717969C91A1E00E948330DD
:104DB0002087F8013183428353836483758386831C
:104DC00097832BA9269DF001279DF00D1124E8580B
:104DD000FC4F168A3FEF631A730A44E0240E311C1D
:104DE00088E0480E511C94E06916710409F009CF5F
:104DF000CE5BDF4F0FB6F894DEBF0FBECDBFDF91A5
:104E0000CF91FF91EF91BF91AF919F918F917F9142
:104E10006F915F914F913F912F911F910F91FF9053
:104E2000EF90DF90CF90BF90AF909F908F907F904A
:104E30006F905F904F903F902F900F900FBE0F900C
:104E40001F901895E1E0D4015696EC939501A601C8
:104E5000B701C801A0E02196EEADFFAD2197EE0F9E
:104E6000FF1FEE0FFF1F0E94A1300CF4D7C0219648
:104E70004EAC5FAC2197E40DF51DE25AFC4F8481E6
:104E8000811182C081E090E009A802C0880F991FBB
:104E90000A94E2F729AC282A29AE20E321964EACE9
:104EA0005FAC2197249DF001259DF00D1124E85859
:104EB000FC4F82A593A5880F991F019795A784A7FA
:104EC00075CE2D2D3E2D4F2D502F612F7B2F8C2DEC
:104ED0009B2DA0E00E94A13009F473CFD4012C9146
:104EE00011963C91119712964C91129713965C91E2
:104EF000139714966C91149715967C9115971696A6
:104F00008C91169717969C91A0E00E94A13009F011
:104F10000CF41EC1BBA9B69DF001B79DF00D112484
:104F2000E858FC4F20813181428153816481758131
:104F300086819781AFEF0E94833020833183428343
:104F400053836483758386839783808D882309F4D4
:104F500038CF8F01085F1F4F2085D80111963C91F3
:104F6000119712964C91129713965C911397149681
:104F70006C91149715967C91159716968C911697AF
:104F800017969C91AFEF12CFD4012C9111963C91C2
:104F9000119712964C91129713965C911397149651
:104FA0006C91149715967C91159716968C9116977F
:104FB00017969C910190F081E02DA1E00E94833032
:104FC0001F2F110F110B5F01C12ED12EE12EF12EDB
:104FD000012F0E94983009F055CFF4017081618152
:104FE0005281438134812581968187817087D301E5
:104FF00011966C93119712965C93129713964C939B
:10500000139714963C93149715962C931597169610
:105010009C93169717968C93168A34CF21962EACB4
:105020003FAC2197E20DF31DE25AFC4F84818823A7
:1050300049F1D4012C9111963C91119712964C9103
:10504000129713965C91139714966C91149715967A
:105050007C91159716968C91169717969C910280C5
:10506000F381E02DA1E00E9483301F2F110F110B5F
:105070005F01C12ED12EE12EF12E012F0E9498301A
:1050800009F445C089A99AA90196E1E0F0E002C0BF
:10509000EE0FFF1F8A95E2F72EAC2E2A2EAE81E08E
:1050A00090E009A802C0880F991F0A94E2F739AC72
:1050B000382A39AEF2CEF8013896D80118962C91DC
:1050C0003181428153816481758186819781AFEFFF
:1050D0000E948330D80118962C931897318342830D
:1050E0005383648375838683978352966D917D91F4
:1050F0008D919C91559720E030E040E85FE30E945D
:10510000AE30F801628B738B848B958B4FCDF4019D
:1051100070816181528143813481258196818781AB
:105120007087D30111966C93119712965C93129726
:1051300013964C93139714963C93149715962C93AF
:10514000159716969C93169717968C93168A9ACF56
:10515000F10160817181828193810E9474330E9488
:105160009131D4012C9311963C93119712964C9344
:10517000129713965C93139714966C931497159645
:105180007C93159716968C93169717969C93179762
:10519000F40138961896AC901897B180C280D380ED
:1051A000E480F580068117810E947A3018962C934E
:1051B0003183428353836483758386839783AACE26
:1051C000A1E1B0E0E6EEF8E20C9443307C013B0153
:1051D0006A01FC0117821682838181FF37C39E0119
:1051E0002F5F3F4F4901F7019381F30193FD8591B3
:1051F00093FF81913F01882309F424C3853239F458
:1052000093FD859193FF81913F01853239F4B70178
:1052100090E00E945C3756016501E5CF10E0312C2B
:1052200020E02032A0F48B3269F030F4803259F063
:10523000833269F420612CC08D3239F0803339F427
:10524000216026C02260246023C0286021C027FD81
:1052500027C030ED380F3A3078F426FF06C0FAE068
:105260001F9F300D1124132F13C08AE0389E300D7C
:105270001124332E20620CC08E3221F426FDE2C2AE
:10528000206406C08C3611F4206802C0883641F4D0
:10529000F30193FD859193FF81913F018111C1CF6E
:1052A0009BEB980F933018F42061805E06C09BE959
:1052B000980F933008F066C12F7E26FF16E02F73FB
:1052C000522E853619F42064522E08C0863621F4F9
:1052D000922F9068592E02C01111115057FE07C02D
:1052E0001C3350F422242394210E27E00BC01830E5
:1052F00038F027E017E005C027E09CE3292E02C024
:10530000212F212C5601E4E0AE0EB11CF601608184
:10531000718182819381022DA4010E941A366C0151
:1053200029812C8720FF02C023FF06C051FC06C044
:1053300052FE06C000E205C00DE203C00BE201C050
:1053400000E08C858C7019F001115DC29EC257FE81
:1053500010C02C0C2C8524FF04C08A81813309F4F1
:105360002A94121474F538E0321578F588E0282E66
:105370002CC056FC2AC0812F90E08C159D059CF016
:105380008CEFC8168FEFD80674F0952D9068592EC3
:105390000AC0E2E0F0E0EC0FFD1FE10FF11D80819B
:1053A000803319F411501111F4CF57FE0EC022248E
:1053B0002394210E812F90E0C816D9062CF41C19D5
:1053C00004C02224239401C010E057FE06C01C1420
:1053D0001D0434F4C601019605C085E090E002C0CA
:1053E00081E090E001110196112331F0212F30E08E
:1053F0002F5F3F4F820F931F232D30E082179307BB
:1054000014F4381A01C0312C852D897049F43320E9
:1054100039F0B70180E290E00E945C373A94F7CF10
:10542000002329F0B701802F90E00E945C3753FCE5
:1054300009C0332039F0B70180E390E00E945C3767
:105440003A94F7CF57FE4DC02601D7FE02C0412C3B
:10545000512CC6010196841995099401280F391F12
:105460003E872D87960122193109388B2F87012F0E
:1054700010E01195019511093FEF4316530629F4E9
:10548000B7018EE290E00E945C37C414D5044CF062
:105490002F8538892415350524F4ED85FE85808116
:1054A00001C080E3F1E04F1A51082D853E852F5F42
:1054B0003F4F3E872D87401651062CF0B70190E0F4
:1054C0000E945C37D9CFC414D50441F49A81963335
:1054D00020F4953319F43C8534FF81E3B70190E063
:1054E0004EC08A81813319F02C852F7E2C87B7011D
:1054F00090E00E945C37111105C054FC18C085E68D
:1055000090E017C0B7018EE290E00E945C371E5F0A
:1055100082E001E0080FF401E80FF11D8081B7017E
:1055200090E00E945C37802F0113F3CFE6CF85E433
:1055300090E0B7010E945C37D7FC06C0C114D104CB
:1055400041F43C8534FF05C0D194C194D1088DE26B
:1055500001C08BE2B70190E00E945C3780E3EAE093
:10556000CE16D1042CF08F5F9AE0C91AD108F7CF7C
:10557000B70190E00E945C37B701C601C0960E9457
:105580005C3756C1833631F0833779F0833509F0C3
:1055900058C021C05601F2E0AF0EB11CF601808167
:1055A000898301E010E0640114C05601F2E0AF0EFF
:1055B000B11CF601C080D18026FF03C0612F70E0CE
:1055C00002C06FEF7FEFC601298B0E9422378C014A
:1055D00029892F7715C05601F2E0AF0EB11CF601F4
:1055E000C080D18026FF03C0612F70E002C06FEF42
:1055F0007FEFC601298B0E9402378C012989206820
:10560000522E23FD1AC0832D90E008171907A8F425
:10561000B70180E290E00E945C373A94F4CFF60143
:1056200057FC859157FE81916F01B70190E00E9470
:105630005C3731103A94015011090115110579F7C1
:10564000F7C0843611F0893659F5560127FF09C095
:10565000F4E0AF0EB11CF60160817181828193810B
:105660000AC0F2E0AF0EB11CF60160817181072E15
:10567000000C880B990B2F76522E97FF09C090953E
:105680008095709561957F4F8F4F9F4F2068522E68
:105690002AE030E0A4010E94AE37C82EC8183FC0EF
:1056A000022F853721F40F7E2AE030E01DC0097FEC
:1056B0008F3691F018F4883559F0C4C0803719F04E
:1056C000883711F0BFC0006104FF09C0046007C043
:1056D00024FF08C0066006C028E030E005C020E1D5
:1056E00030E002C020E132E0560107FF09C0F4E0DB
:1056F000AF0EB11CF601608171818281938108C077
:10570000F2E0AF0EB11CF6016081718180E090E0A3
:10571000A4010E94AE37C82EC8180F77502E56FE2F
:105720000BC0052D0E7FC11650F454FE0AC052FC6A
:1057300008C0052D0E7E05C0DC2C052D03C0DC2C19
:1057400001C0D12E04FF0DC0FE01EC0DF11D8081C2
:10575000803311F4097E09C002FF06C0D394D394AC
:1057600004C0802F867809F0D39403FD11C000FF98
:1057700006C0D31488F43C0C132D1D190EC0D3148D
:1057800060F4B70180E290E00E945C37D394F7CFD9
:10579000D31418F43D1802C01C2D312C04FF10C086
:1057A000B70180E390E00E945C3702FF17C001FD63
:1057B00003C088E790E002C088E590E0B7010CC024
:1057C000802F867859F001FF02C08BE201C080E291
:1057D00007FD8DE2B70190E00E945C37C11638F4F6
:1057E000B70180E390E00E945C371150F7CFCA9474
:1057F000F401EC0DF11D8081B70190E00E945C374F
:10580000C110F5CF15C0F4E0F31560F584E0381A47
:1058100053FE1FC0011127C03C8533FF2AC00CED89
:1058200010E0852D8071582EF8018491811124C0DB
:10583000332009F4F1CCB70180E290E00E945C379C
:105840003A94F6CFF7018681978126C08FEF9FEFBC
:1058500023C0B70180E290E00E945C373A94311097
:10586000F8CFD8CF312CB701802F90E00E945C3761
:10587000D3CF00EE10E0D5CF51108052B70190E0A9
:105880000E945C370F5F1F4FCFCF23E0231510F42A
:1058900083E0BDCF312CC0CF6196E2E10C945F3044
:1058A00084E190E00E94C13380939C0290939D021A
:1058B000EC01E12CF12C84E190E00E94C133CE0D8B
:1058C000DF1D9983888362E0E60EF11C74E1E71620
:1058D000F10429F0C0919C02D0919D02ECCF88E0A8
:1058E00090E00E94C1339093AD028093AC0288E0B7
:1058F00090E00E94C1339093AF028093AE02C0E06B
:10590000D0E0E090AC02F090AD0289E090E00E941F
:10591000C133F701EC0FFD1F91838083E090AE024D
:10592000F090AF0289E090E00E94C133F701EC0FE4
:10593000FD1F918380832296C830D10511F784E042
:1059400090E00E94C1339093B1028093B00284E052
:1059500090E00E94C1339093B3028093B202C09151
:10596000B002D091B10281E190E00E94C1339983ED
:105970008883C091B202D091B30281E190E00E948D
:10598000C13399838883C091B002D091B10281E183
:1059900090E00E94C1339B838A83C091B202D09170
:1059A000B30281E190E00E94C1339B838A8380E44B
:1059B00090E00E94C1339093B5028093B40280E4DA
:1059C00090E00E94C133909373038093720380E44C
:1059D00090E00E94C133909339048093380488E2A8
:1059E00090E00E94C13390937703809376030E94E6
:1059F000870982E00E9463098FE097E20197F1F73F
:105A000000C0000080E4982E93E8A92E2DE4B22E69
:105A100088248A9430E5732E45E1642ECC24C39407
:105A2000D12CC0E3D1E00E9493030E94A70490927E
:105A30007C00A0927A0080917A00806480937A0042
:105A400080917A0086FDFCCF80917800909179005A
:105A50008091B00082608093B000B092B3008091DA
:105A600070008260809370001092B2008091B1004B
:105A700085608093B10014B885B884B5826084BD18
:105A800077BC80916E00826080936E0016BC85B5F5
:105A9000856085BD1092C5006092C4008091C100F0
:105AA00088698093C10080E090E041B19C012C5F47
:105AB0003F4FB60102C0660F771F2A95E2F79B01A0
:105AC000342F322B31B932B1422F4095342332B9C1
:105AD000C89FF001C99FF00D1124E858FC4FD78BE7
