:100000000C9466030C94332B0C9485030C94850399
:100010000C9485030C9485030C9485030C94850340
:100020000C9485030C94250D0C9485030C94850386
:100030000C9485030C9485030C9485030C94850320
:100040000C94D70A0C9485030C9485030C948503B7
:100050000C94890A0C9485030C9485030C948503F5
:100060000C9485030C9485030C9485030C948503F0
:100070000C9485030C9485030C9485030C948503E0
:100080000C9485030C9485030C9485037817B5179D
:10009000381892185619921B051B5D1BB616F516DB
:1000A000FC18F41B4E1CAE19081A721AC81A3B171A
:1000B000213D103DF83CEB3CDE3CD33CC83CBB3C16
:1000C000B83CB13CA63C9B3C903C853C7A3C6F3CA8
:1000D000643C593C4E3C433C383C2D3C203C1A3C53
:1000E000DB3BCE3BC33BB03BA73BA43B953B8A3BB2
:1000F0007F3B743B693B5E3B253D00000000FFFFFA
:1001000000000000000000000100010000000000ED
:1001100000000000FFFF0000000000001A01008046
:100120002A5253540000200100812A49444E3F00C6
:10013000002A0100822A49444E0000350101834D06
:100140004F564541425300003F0103844D4F5645F1
:1001500052454C00004C0103855A45524F52554EB2
:10016000000059010186454E41424C4500006601A0
:100170000287474554504F53000072010288534193
:100180005645434F4E4600007E0100894C4F414486
:10019000434F4E4600008C01008A49534D4F56494B
:1001A0004E4700009A01018B474554414E414C4F48
:1001B000470000A801018C4745545A45524F504F03
:1001C000530000B701018D5345545A45524F504FCB
:1001D000530000C701028E474554474541525241E2
:1001E00054494F0000D701018F53455447454152B0
:1001F000524154494F0000E9010290474554465589
:100200004C4C524F540000FB01019153455446554C
:100210004C4C524F5400000B020292474554535528
:1002200042535445505300001B020193534554530D
:100230005542535445505300002C020294474554F4
:100240005741495454494D4500003D0201955345DD
:10025000545741495454494D4500004E02029653AB
:100260004554434F4E5354535045454400005F029C
:100270000397464143544F52595245534554000049
:100280007202009853544F50414C4C0000840200BD
:1002900099534554464F52425A4F4E4500009102E1
:1002A000039A454E4142464F52425A4F4E45000036
:1002B000A202029B53455450524F4753544550009D
:1002C00000B402069C4745544D4F54535441544585
:1002D0000000C502019D444247524541444F5554D8
:1002E0000000D602009E4C45440000E602049F47F1
:1002F0004554435552520000EF0201A05345544368
:100300005552520000FC0202A14745544445434166
:10031000590000090301A253455444454341590083
:1003200000170302A34953434F4E0000250301A4C5
:10033000444953504C41590000300301A51C01268B
:100340000131013B014801550162016E017A0188CA
:10035000019601A401B301C301D301E501F701072F
:10036000021702280239024A025B026E0280028DE5
:10037000029E02B002C102D202E202EB02F80205C2
:1003800003130321032C0339034C4B2D496E737463
:1003900072756D656E74730A534D43343234320096
:1003A000008903004368616E6765206D6F746F722A
:1003B0000A706F736974696F6E0000A4030153655E
:1003C0007420737465700A6D756C7469706C6965FE
:1003D000720000BE03024368616E67652073746536
:1003E000700A756E69740000D6030352756E206939
:1003F0006E7465726E616C0A70726F6772616D0007
:1004000000EB030452756E20776974680A636F6E9F
:100410007374616E74207370656564000004040574
:10042000446566696E65207A65726F0A706F7369DC
:1004300074696F6E000020040652756E207A657232
:100440006F0A63616C6962726174696F6E00003972
:100450000407456E7465720A73657474696E677318
:10046000206D656E75000052040820202020202099
:10047000202020202020202020200A202020202092
:10048000202020202020202020202000006A040995
:10049000536574206D6F746F720A676561722072A4
:1004A0006174696F000090040A5365742073746569
:1004B0007073207065720A66756C6C20726F74615F
:1004C00074696F6E0000A9040B4368616E67652054
:1004D0006D6F746F720A737562737465700000C912
:1004E000040C4368616E6765206D6F746F720A63F8
:1004F000757272656E740000E2040D5365742063BA
:10050000757272656E740A6465636179206D6F64DB
:10051000650000FB040E4368616E676520737465B7
:10052000700A776169742074696D65000016050FA3
:10053000536176652063757272656E740A636F6EBF
:1005400066696775726174696F6E00003005104CE2
:100550006F6164206C6173740A636F6E666967759E
:10056000726174696F6E00004F0511A103BB03D364
:1005700003E80301041D0436044F0467048D04A638
:1005800004C604DF04F80413052D054C0568056E48
:10059000616E00696E660000407A10F35A00A07226
:1005A0004E18090010A5D4E80000E87648170000AE
:1005B000E40B54020000CA9A3B000000E1F505007C
:1005C0000080969800000040420F000000A08601C5
:1005D000000000102700000000E803000000006495
:1005E00000000000000A0000000000010000000000
:1005F000002C76D888DC674F0823DFC1DFAE59E1D5
:10060000B1B796E5E3E453C63AE651997696E8E643
:10061000C28426EB898C9B62ED407C6FFCEFBC9C16
:100620009F40F2BAA56FA5F490055A2AF75C936B28
:100630006CF9676DC11BFCE0E40D47FEF520E6B5E3
:1006400000D0ED902E0300943577050080841E08BD
:100650000000204E0A000000C80C333333330F98DB
:100660006E12831141EF8D2114893BE65516CFFEA2
:10067000E6DB18D1844B381BF77C1D901DA4BBE42E
:1006800024203284725E228100C9F124ECA1E53D70
:1006900027494E46494E4954594E414ECDCCCC3D4A
:1006A0000AD7233C17B7D13877CC2B329595E6245F
:1006B0001FB14F0A000020410000C84200401C4604
:1006C00020BCBE4CCA1B0E5AAEC59D7411241FBE61
:1006D000CFEFD0E4DEBFCDBF13E0A0E0B1E0EEE7A6
:1006E000FAE900E00BBF02C007900D92A832B107F3
:1006F000D9F714E0A8E2B3E001C01D92AC3FB10706
:10070000E1F70E942B3A0C943D4D0C9400002F927F
:100710003F924F925F926F927F928F929F92AF9291
:10072000BF92CF92DF92EF92FF920F931F9340E020
:1007300050E00F2EF0E06F2EF0E07F2EF0E08F2ED5
:10074000F0E09F2EF02D0F2EF0E02F2EF0E03F2E48
:10075000F0E44F2EF0E45F2EF02D0F2EF0E0AF2EE0
:10076000F0E0BF2EF0E8CF2EF0E4DF2EF02D0F2EBC
:10077000F0E0EF2EF0E0FF2EF0E80F2FFFE31F2F49
:10078000F02D63E070E0FA01EE0FFF1FEE0FFF1F88
:10079000EE0FFF1FCF01880F991F880F991FE80FD9
:1007A000F91FE25BFB4F11821082FA01EE0FFF1F6F
:1007B000EE0FFF1FCF01880F991F880F991FE80FB9
:1007C000F91FEE0FFF1FE05BFB4F11821082CA0181
:1007D000FA01EE0FFF1FEE0FFF1FEE0FFF1F880F36
:1007E000991FE80FF91FEE0FFF1FEE0FFF1FEE5AC4
:1007F000FB4F11821082FA01EE0FFF1FEE0FFF1F59
:10080000EE0FFF1FCF01880F991F880F991FE80F68
:10081000F91FE25BFB4F6682778280869186FA0140
:10082000EE0FFF1FEE0FFF1FEE0FFF1FCF01880F10
:10083000991F880F991FE80FF91FE25BFB4F128683
:10084000FA01EE0FFF1FEE0FFF1FEE0FFF1FCF018C
:10085000880F991F880F991FE80FF91FE25BFB4F64
:100860001386FA01EE0FFF1FEE0FFF1FEE0FFF1FA3
:10087000CF01880F991F880F991FE80FF91FE25BBE
:10088000FB4F1486FA01EE0FFF1FEE0FFF1FEE0F56
:10089000FF1FCF01880F991F880F991FE80FF91FBD
:1008A000E25BFB4F258636864786508AFA01EE0FBB
:1008B000FF1FEE0FFF1FEE0FFF1FCF01880F991FC5
:1008C000880F991FE80FF91FE25BFB4F80E090E073
:1008D000A8ECB3E4818B928BA38BB48BFA01EE0F5F
:1008E000FF1FEE0FFF1FEE0FFF1FCF01880F991F95
:1008F000880F991FE80FF91FE25BFB4FA58AB68AA4
:10090000C78AD08EFA01EE0FFF1FEE0FFF1FEE0F0A
:10091000FF1FCF01880F991F880F991FE80FF91F3C
:10092000E25BFB4FE28EF38E048F158FFA01EE0F20
:10093000FF1FEE0FFF1FEE0FFF1FCF01880F991F44
:10094000880F991FE80FF91FE25BFB4F91E0918F31
:10095000FA01EE0FFF1FEE0FFF1FEE0FFF1FCF017B
:10096000880F991F880F991FE80FF91FE25BFB4F53
:10097000778F668FFA01EE0FFF1FEE0FFF1FEE0F4E
:10098000FF1FCF01880F991F880F991FE80FF91FCC
:10099000E25BFB4F268D378D220F331F21503040F5
:1009A000FA01EE0FFF1FEE0FFF1FEE0FFF1FCF012B
:1009B000880F991F880F991FE80FF91FE25BFB4F03
:1009C00031A320A3FA01EE0FFF1FEE0FFF1FEE0F62
:1009D000FF1FCF01880F991F880F991FE80FF91F7C
:1009E000E25BFB4F12A2FA01EE0FFF1FEE0FFF1F9B
:1009F000EE0FFF1FCF01880F991F880F991FE80F77
:100A0000F91FE25BFB4FE3A2F4A205A316A3FA01D0
:100A1000EE0FFF1FEE0FFF1FEE0FFF1FCF01880F1E
:100A2000991F880F991FE80FF91FE25BFB4F17A270
:100A30004F5F5F4F4430510509F0A5CE10924F0330
:100A400010924E0310924804109247041092F3043F
:100A50001092F40410922A041092290428E02093A2
:100A60002B0410923D039AE290933E0382E0809320
:100A70003F0310924003109241039093420380E1A0
:100A80008093430310923A0310923B0310923C036D
:100A900010922C0410922D0410922E0410922F0408
:100AA0001092300410924D041092350410923204CA
:100AB00010923104109234041092330410923A04CC
:100AC00010923704109236041092390410923804B0
:100AD00010923F0410923C0410923B0410923E048A
:100AE00010923D041092440410924104109240046C
:100AF00010924304109242048FE080932E031092D0
:100B00002F0310923003109231038093320310921E
:100B1000330320933403809335038093360310927C
:100B20003703109238031092390320E030E041E09F
:100B3000C901F901EE0FFF1FEE0FFF1FEE0FFF1FA0
:100B4000880F991FE80FF91FEF5AFC4F1082C90157
:100B5000F901EE0FFF1FEE0FFF1FEE0FFF1F880FB3
:100B6000991FE80FF91FEF5AFC4F4187C901F9019E
:100B7000EE0FFF1FEE0FFF1FEE0FFF1F880F991FD5
:100B8000E80FF91FEF5AFC4F12821182C901F901D7
:100B9000EE0FFF1FEE0FFF1FEE0FFF1F880F991FB5
:100BA000E80FF91FEF5AFC4F14821382C901F901B3
:100BB000EE0FFF1FEE0FFF1FEE0FFF1F880F991F95
:100BC000E80FF91FEF5AFC4F16821582C901F9018F
:100BD000EE0FFF1FEE0FFF1FEE0FFF1F880F991F75
:100BE000E80FF91FEF5AFC4F108617822F5F3F4F17
:100BF0002031310509F09CCF81E0809351031F9192
:100C00000F91FF90EF90DF90CF90BF90AF909F90AB
:100C10008F907F906F905F904F903F902F900895AE
:100C20001092C50085E18093C400E1ECF0E0808182
:100C3000886980830895982F8091C00085FFFCCF3C
:100C40009093C6000895E0EBF0E08081826080839D
:100C50008DE48093B300E0E7F0E0808182608083E0
:100C60001092B200E1EBF0E080818560808308950E
:100C7000FF920F931F936115710509F458C077FD1A
:100C80005AC042B1E82FF0E09F01220F331F2F5FBF
:100C90003F4F81E090E002C0880F991F2A95E2F74C
:100CA0008095842382B977FD59C0161617060CF07B
:100CB0003EC0EE0FFF1F81E090E00E2E02C0880FB5
:100CC000991F0A94E2F7182F082F0095A0E0B0E0D2
:100CD000CF01880F991F880F991F5DE0F52EFC0149
:100CE000EE0FFF1FEE0FFF1FE80FF91FE459FB4F38
:100CF00048E853E182B1812B82B98F2D8A95F1F7B3
:100D000082B1802382B980819181892B61F020E0BA
:100D100030E0CA010197F1F72F5F3F4F8081918149
:100D200028173907B0F31196A617B7071CF31F91C0
:100D30000F91FF90089542B1E82FF0E09F01220F3C
:100D4000331F2F5F3F4F81E090E002C0880F991F53
:100D50002A95E2F7482B42B977FFA7CF70956195A6
:100D60007F4FA3CFAEE4B4E0E82FF0E0EE0FFF1F1B
:100D7000EE0FFF1FEE0FFF1F9F01220F331F220FE9
:100D8000331FE20FF31FEA0FFB1F40815181460F13
:100D9000571FE82FF0E0EE0FFF1FEE0FFF1F9F0120
:100DA000220F331F220F331FE20FF31F3196EE0F76
:100DB000FF1FEA0FFB1F51834083E82FF0E0EE0F87
:100DC000FF1FEE0FFF1F9F01220F331F220F331F44
:100DD000E20FF31F3196EE0FFF1FEA0FFB1F40815A
:100DE0005181282F30E0C901880F991F880F991F62
:100DF000880F991F220F331F820F931F0196880FB0
:100E0000991F880F991FA80FB91F11965C934E93D5
:100E1000089590917C008F71907E892B80937C0047
:100E200010922A041092290480912B04882311F136
:100E300060E080917A00806480937A0080917A00EB
:100E400086FDFCCF809178002091790040912904A3
:100E500050912A04322F20E090E0822B932B840FB4
:100E6000951F90932A04809329046F5F80912B042F
:100E70006817F8F28091290490912A0460912B045C
:100E800070E00E94C846CB010895823011F1833092
:100E900078F08330A9F18430D9F0A0E0B0E0E3E04D
:100EA000F0E0AD50BC4F4C93ED50FC4F40830895A3
:100EB0008823D1F0813089F76A5FA62FB0E0FD0169
:100EC0003396AD50BC4F4C93ED50FC4F408308958A
:100ED000685EA62FB0E0FD013396AD50BC4F4C9339
:100EE000ED50FC4F40830895645FA62FB0E0FD01F4
:100EF0003396AD50BC4F4C93ED50FC4F408308955A
:100F0000625EA62FB0E0FD013396AD50BC4F4C930E
:100F1000ED50FC4F408308956FE270E032E4FB0136
:100F2000ED50FC4F8081482F50E027E00FC0469ADB
:100F30004798832F8A95F1F7479A832F8A95F1F77F
:100F400088B18F7388B921502F3F61F0CA01022EFA
:100F500002C0959587950A94E2F780FDE8CF88B1A5
:100F600088B9E6CF615070408FEF6F3F7807B9F6D0
:100F70000895FF920F931F93F82E70E06F5F7F4FDD
:100F80008B01000F111F060F171F025D1C4FF80188
:100F9000408162E00E944507F80141818F2D61E0A8
:100FA0000E944507F80142818F2D60E00E944507AD
:100FB0001F910F91FF900895CF93DF93C0E0D0E091
:100FC000FE01EE0FFF1FEE0FFF1FEE0FFF1FCF0101
:100FD000880F991F880F991FE80FF91FE25BFB4FDD
:100FE00083858823E9F08091430390E00C2E02C0B2
:100FF000959587950A94E2F780FF0DC08C2F61E0EC
:101000000E94B9072196C430D105D1F60E948C0701
:10101000DF91CF9108958C2F60E00E94B907F2CF45
:101020008C2F62E00E94B907EDCF40912E0384E03F
:1010300062E00E94450740912F0384E061E00E9436
:1010400045074091300384E060E00E9445070E941C
:10105000DC0708952F923F924F925F926F927F929A
:101060008F929F92AF92BF92CF92DF92EF92FF92B8
:101070000F931F93482FAEE4B4E0E82FF0E0EE0F9B
:10108000FF1FEE0FFF1FEE0FFF1F9F01220F331FE9
:10109000220F331FE20FF31FEA0FFB1F2584368454
:1010A00047845088E82FF0E0EE0FFF1FEE0FFF1F80
:1010B000EE0FFF1F9F01220F331F220F331FE20F7E
:1010C000F31FEA0FFB1F658876888788908C242F92
:1010D00030E0220F331F220F331F220F331FA901CD
:1010E000440F551F440F551F240F351FA20FB31F68
:1010F0005196ED90FD900D911C915497882777FDA6
:101100008095982F0E943E455B016C01C201B101A0
:10111000A40193010E944546A80197010E944546FB
:101120009B01AC0160E070E084EB93E40E94A34477
:101130009B01AC01C601B5010E9445461F910F916C
:10114000FF90EF90DF90CF90BF90AF909F908F90E7
:101150007F906F905F904F903F902F9008952F92C7
:101160003F924F925F926F927F928F929F92AF9237
:10117000BF92CF92DF92EF92FF920F931F93AEE454
:10118000B4E0E82FF0E0EE0FFF1FEE0FFF1FEE0FB1
:10119000FF1F9F01220F331F220F331FE20FF31F88
:1011A000EA0FFB1F2584368447845088E82FF0E03F
:1011B000EE0FFF1FEE0FFF1FEE0FFF1F9F01220F0D
:1011C000331F220F331FE20FF31FEA0FFB1F658847
:1011D00076888788908C282F30E0220F331F220FCB
:1011E000331F220F331FA901440F551F440F551FF2
:1011F000240F351FA20FB31F5196ED90FD900D9156
:101200001C915497882777FD8095982F0E943E4522
:101210005B016C01C201B101A40193010E9445462A
:10122000A80197010E9445469B01AC0160E070E077
:1012300080E090E40E94A3449B01AC01C601B5018B
:101240000E9445461F910F91FF90EF90DF90CF9045
:10125000BF90AF909F908F907F906F905F904F90D6
:101260003F902F900895482FF894613009F43DC0C5
:10127000613008F088C0E82FF0E0EE0FFF1FEE0F9E
:10128000FF1FEE0FFF1FCF01880F991F880F991FB7
:10129000E80FF91FE25BFB4F1486E42FF0E0EE0F3E
:1012A000FF1FEE0FFF1FEE0FFF1FCF01880F991FCB
:1012B000880F991FE80FF91FE25BFB4F20813181F6
:1012C000E42FF0E0EE0FFF1FEE0FFF1FCF01880F9E
:1012D000991F880F991FE80FF91FEE0FFF1FE05BA2
:1012E000FB4F3183208378940895E82FF0E0EE0FD0
:1012F000FF1FEE0FFF1FEE0FFF1FCF01880F991F7B
:10130000880F991FE80FF91FE25BFB4F6487E42FFA
:10131000F0E0EE0FFF1FEE0FFF1FEE0FFF1FCF01DC
:10132000880F991F880F991FE80FF91FE25BFB4F89
:1013300020813181E42FF0E0EE0FFF1FEE0FFF1F41
:10134000CF01880F991F880F991FE80FF91FEE0F23
:10135000FF1FE05BFB4F31832083E42FF0E0EE0FB3
:10136000FF1FEE0FFF1FCF01880F991F880F991FD6
:10137000E80FF91FEE0FFF1FE05BFB4F208131816B
:101380002F5F3F4F9DCF623009F0ADCFE82FF0E0E7
:10139000EE0FFF1FEE0FFF1FEE0FFF1FCF01880F95
:1013A000991F880F991FE80FF91FE25BFB4F6487B5
:1013B000E42FF0E0EE0FFF1FEE0FFF1FEE0FFF1FF9
:1013C000CF01880F991F880F991FE80FF91FE25B63
:1013D000FB4F20813181E42FF0E0EE0FFF1FEE0F75
:1013E000FF1FCF01880F991F880F991FE80FF91F62
:1013F000EE0FFF1FE05BFB4F31832083E42FF0E013
:10140000EE0FFF1FEE0FFF1FCF01880F991F880FF0
:10141000991FE80FF91FEE0FFF1FE05BFB4F2081C4
:101420003181215030404CCF813061F0813030F03B
:10143000823051F0833021F080E0089582E40895F5
:1014400088E4089584E4089586E40895813061F085
:10145000813030F0823051F0833021F080E0089507
:1014600082E108958CE9089584E108958AE9089558
:10147000282F22952F708295807F282B30E0C9017C
:1014800083739070880F991F880F991F2C7C307080
:101490003595279535952795822B282F30E0C90162
:1014A00085759070880F991F2A7A30703595279529
:1014B000822B089580E0089580913C038823A1F059
:1014C00090913A0380912F04882361F497FD10C016
:1014D00096FD0CC095FD0EC094FD0EC093FF04C098
:1014E00083E0089588E008958AE2089586E00895EB
:1014F00087E0089585E0089584E00895F894809148
:101500002E04882321F080912D0410922D047894CC
:1015100008951F920F920FB60F920BB60F921124DF
:101520008F939F93EF93FF939091C60080914E030A
:101530008823E1F49D3009F19A3021F080914F0326
:10154000803430F1E0914C03F0914D0380914F03D2
:10155000E80FF11D108281E080934E038091C0005E
:1015600085FFFCCF86E08093C60007C08091C00055
:1015700085FFFCCF85E18093C600FF91EF919F919D
:101580008F910F900BBE0F900FBE0F901F9018956C
:10159000E0914C03F0914D0380914F03E80FF11D52
:1015A000908380914F038F5F80934F03E6CF1F920C
:1015B0000F920FB60F920BB60F9211248F93EF93E9
:1015C000FF9386B1809583FF3AC0809130048823D1
:1015D00009F440C0E0912A03F0912B03EE0FFF1FA6
:1015E000EE0FFF1FEF70F070F0932B03E0932A03D0
:1015F000359B05C0E260F0932B03E0932A03349BF4
:1016000005C0E160F0932B03E0932A03EE0FFF1F68
:10161000E650FF4FE491EE2341F080912D04E80F56
:10162000E0932D0481E080932E04FF91EF918F9140
:101630000F900BBE0F900FBE0F901F9018958091CA
:101640003004813039F680932F0410923004809357
:101650003C03C0CF81E080933004BCCF7F928F9257
:101660009F92AF92BF92CF92DF92EF92FF920F9331
:101670001F93CF93DF93F894CC24DD2488249924FE
:10168000AA24BB2477247394C601880F991F86016E
:10169000000F111F000F111F000F111F800F911F4E
:1016A000880F991F880F991FB4016D5C7F4F8E5A68
:1016B0009B4F42E050E00E94414B7801EE0CFF1C32
:1016C000EE0CFF1CE00EF11EB501655C7F4FC701FB
:1016D000855A9B4F44E050E00E94414BB501655B49
:1016E0007F4FC701815A9B4F44E050E00E94414B1D
:1016F000B501655A7F4FC7018D599B4F44E050E0BB
:101700000E94414BB50165597F4FC70188599B4FD6
:1017100044E050E00E94414BB50165587F4FC7013E
:101720008F589B4F44E050E00E94414BB6016557F3
:101730007F4FC7018B589B4F41E050E00E94414BC7
:10174000B60161577F4FC70189599B4F41E050E077
:101750000E94414BB4016D567F4FC70184599B4F86
:1017600042E050E00E94414B8601000F111F000F24
:10177000111F0C0D1D1DE801CF5CDB4FB401655638
:101780007F4FCE0142E050E00E94414BB4016D55C5
:101790007F4FC8018D5C9B4F42E050E00E94414B5F
:1017A000288139818A819B812817390709F07C8239
:1017B0000894C11CD11C82E090E0880E991E84E040
:1017C00090E0A80EB91E94E0C916D10409F05CCFD0
:1017D000C0E0D0E08E01000F111F0C0F1D1FBE01D5
:1017E00065557F4FC801825D9C4F41E050E00E94EB
:1017F000414BBE0161557F4FC801815D9C4F41E067
:1018000050E00E94414BBE016D547F4FC801805D86
:101810009C4F41E050E00E94414B2196C330D105DE
:10182000C9F6C0E0D0E0BE0169547F4FCE018F5AA7
:101830009C4F4AE050E00E94414B2A96C03AD105A5
:1018400091F77894DF91CF911F910F91FF90EF90D6
:10185000DF90CF90BF90AF909F908F907F90089532
:10186000AF92BF92CF92DF92EF92FF920F931F93AE
:10187000CF93DF93F894C0E0D0E0AA24BB24CC241B
:10188000DD24CE01880F991F8E01000F111F000F5C
:10189000111F000F111F800F911F880F991F880FB4
:1018A000991FB5016D5C7F4F8E5A9B4F42E050E00F
:1018B0000E94514B7801EE0CFF1CEE0CFF1CE00E59
:1018C000F11EB601655C7F4FC701855A9B4F44E00E
:1018D00050E00E94514BB601655B7F4FC701815AB2
:1018E0009B4F44E050E00E94514BB601655A7F4F38
:1018F000C7018D599B4F44E050E00E94514BB60107
:1019000065597F4FC70188599B4F44E050E00E94C2
:10191000514BB60165587F4FC7018F589B4F44E02C
:1019200050E00E94514BBE0165577F4FC7018B5855
:101930009B4F41E050E00E94514BBE0161577F4FE9
:10194000C70189599B4F41E050E00E94514BB501BE
:101950006D567F4FC70184599B4F42E050E00E9473
:10196000514B8E01000F111F000F111F0C0F1D1F77
:10197000B50165567F4FC8018F5C9B4F42E050E038
:101980000E94514BB5016D557F4FC8018D5C9B4F37
:1019900042E050E00E94514B219682E090E0A80E78
:1019A000B91E84E090E0C80ED91EC430D10509F0FC
:1019B00068CFC0E0D0E08E01000F111F0C0F1D1F7B
:1019C000BE0165557F4FC801825D9C4F41E050E0EC
:1019D0000E94514BBE0161557F4FC801815D9C4FF4
:1019E00041E050E00E94514BBE016D547F4FC80151
:1019F000805D9C4F41E050E00E94514B2196C330E6
:101A0000D105C9F6C0E0D0E0BE0169547F4FCE01D8
:101A10008F5A9C4F4AE050E00E94514B2A96C03AA0
:101A2000D10591F77894DF91CF911F910F91FF909D
:101A3000EF90DF90CF90BF90AF900895F8940E9400
:101A400087030E94300C789408951F920F920FB66E
:101A50000F920BB60F9211242F923F924F925F92EA
:101A60006F927F928F929F92AF92BF92CF92DF92AE
:101A7000EF92FF920F931F932F933F934F935F9398
:101A80006F937F938F939F93AF93BF93EF93FF9346
:101A9000DF93CF93CDB7DEB7A097DEBFCDBF9E015A
:101AA000275F3F4F3C8F2B8F3A8F298F18A21F8EB5
:101AB000662477241E8E1D8E2301440C551C440C75
:101AC000551C4201880C991C880C991C840C951C8F
:101AD000880C991C80E594E0880E991ED401AD9085
:101AE000BC901301220C331C220C331C220C331C1F
:101AF0006101CC0CDD1CCC0CDD1CC20CD31CEEE453
:101B0000F4E0CE0EDF1ED6018D919C911197A81A9C
:101B1000B90AE1E0F0E0EC0FFD1F2D8D3E8DE20FE4
:101B2000F31FB182A0821D966D917D918D919C9144
:101B3000509751962D913D914D915C9154975596AA
:101B4000ED90FD900D911C9158970E944546A8017B
:101B500097010E944546A98DBA8D6D937D938D9313
:101B60009C931397A114B10409F44CC0F60180A111
:101B700091A1892B09F469C180A191A1019791A339
:101B800080A3668177818085918520E030E040E800
:101B90005FE30E9441461816D4F4D4018D919C91C4
:101BA0001197019611969C938E93F6016681778129
:101BB0008085918520E030E040E85FE30E943A4470
:101BC000D60116966D937D938D939C931997610121
:101BD000CC0CDD1CCC0CDD1CC20CD31CEEE4F4E000
:101BE000CE0EDF1ED60116966D917D918D919C9142
:101BF000199720E030E040E85FEB0E949F44882383
:101C00000CF40CC20894611C711C2D8D3E8D2E5F4E
:101C10003F4F3E8F2D8F898D9A8D04969A8F898F95
:101C200094E06916710409F047CF82B1A8A1A82BEE
:101C3000A2B996E0892F8A95F1F782B1BF8D8B2BDF
:101C400082B98DE08A95F1F782B1B095B823B2B927
:101C50009A95F1F712B83E010894611C711CCC24CE
:101C6000DD24EC2C5D2CF601EE0FFF1FEE0FFF1FA5
:101C7000EE0FFF1FCF01880F991F880F991FE80FE4
:101C8000F91FE25BFB4F8285882309F4A4C0F301AE
:101C900080819181181619060CF001C1F601EE0F32
:101CA000FF1FEE0FFF1FEE0FFF1FCF01880F991FC1
:101CB000880F991FE80FF91FE25BFB4F608171816C
:101CC000AB8DBC8D8D909D90AD90BC906F5F7F4F24
:101CD000882777FD8095982F0E943E45A5019401A5
:101CE0000E94414618160CF45AC1EE2DF52DEE0F48
:101CF000FF1FEE0FFF1FEE0FFF1FCF01880F991F71
:101D0000880F991FE80FF91FE25BFB4F208131819B
:101D10002F5F3F4FEE2DF52DEE0FFF1FEE0FFF1F34
:101D2000EE0FFF1FCF01880F991F880F991FE80F33
:101D3000F91FE25BFB4F31832083EE2DF52DEE0F73
:101D4000FF1FEE0FFF1FEE0FFF1FCF01880F991F20
:101D5000880F991FE80FF91FE25BFB4F84858823EA
:101D600041F1EE2DF52DEE0FFF1FEE0FFF1FCF01FE
:101D7000880F991F880F991FE80FF91FEE0FFF1F9B
:101D8000E05BFB4F208131812F5F3F4FEE2DF52D22
:101D9000EE0FFF1FEE0FFF1FCF01880F991F880F57
:101DA000991FE80FF91FEE0FFF1FE05BFB4F318318
:101DB0002083EE2DF52DEE0FFF1FEE0FFF1FEE0F10
:101DC000FF1FCF01880F991F880F991FE80FF91F78
:101DD000E25BFB4F12860894C11CD11C2B8D3C8DFD
:101DE0002C5F3F4F3C8F2B8F82E090E0680E791E76
:101DF00094E0C916D10409F034CFA096DEBFCDBF60
:101E0000CF91DF91FF91EF91BF91AF919F918F9112
:101E10007F916F915F914F913F912F911F910F9102
:101E2000FF90EF90DF90CF90BF90AF909F908F90FA
:101E30007F906F905F904F903F902F900F900BBED0
:101E40000F900FBE0F901F90189521E0F60122878A
:101E5000B7FC07C1F201E60DF71DEF5CFB4F848173
:101E6000882309F088C081E090E00D8C02C0880FC3
:101E7000991F0A94E2F7FF8DF82BFF8FF101EE0F07
:101E8000FF1FEE0FFF1FE20DF31DE25BFB4F868D80
:101E9000978D880F991F019791A380A3B3CE892BAB
:101EA00009F487CFF601EE0FFF1FEE0FFF1FEE0FB5
:101EB000FF1FCF01880F991F880F991FE80FF91F87
:101EC000E25BFB4F80819181181619060CF0FDC072
:101ED000EE2DF52DEE0FFF1FEE0FFF1FEE0FFF1F74
:101EE000CF01880F991F880F991FE80FF91FE25B38
:101EF000FB4F2081318121503040EE2DF52DEE0F2A
:101F0000FF1FEE0FFF1FEE0FFF1FCF01880F991F5E
:101F1000880F991FE80FF91FE25BFB4F3183208385
:101F2000EE2DF52DEE0FFF1FEE0FFF1FEE0FFF1F23
:101F3000CF01880F991F880F991FE80FF91FE25BE7
:101F4000FB4F8485882309F434CFEE2DF52DEE0F59
:101F5000FF1FEE0FFF1FCF01880F991F880F991FDA
:101F6000E80FF91FEE0FFF1FE05BFB4F208131816F
:101F7000215030400BCFD6018D919C91119720813B
:101F8000318101968217930709F06DCF8D919C9155
:101F90001197F401918380831A961C926FCFF601FA
:101FA000EE0FFF1FEE0FFF1FEE0FFF1FCF01880F79
:101FB000991F880F991FE80FF91FE25BFB4F1182F1
:101FC0001082F601EE0FFF1FEE0FFF1FCF01880FEB
:101FD000991F880F991FE80FF91FEE0FFF1FE05B95
:101FE000FB4F00811181C501B4010E94A8460E94E7
:101FF0000B45061B170BF601EE0FFF1FEE0FFF1F21
:10200000CF01880F991F880F991FE80FF91FEE0F56
:10201000FF1FE05BFB4F1183008367CEF201EE0FE1
:10202000FF1FEE0FFF1FE40DF51DEE0FFF1FE05B1E
:10203000FB4F80819181019791838083F6016681B6
:1020400077818085918520E030E040E85FE30E9461
:102050003B44D60116966D937D938D939C9319976F
:10206000D1CDF201E60DF71DEF5CFB4F8481882393
:1020700009F52D8D3E8D2F5F3F4F3E8F2D8F81E0D7
:1020800090E00D8C02C0880F991F0A94E2F721504E
:1020900030403E8F2D8F38A1382B38A381E090E05F
:1020A0000D8C02C0880F991F0A94E2F7AF8DA82B00
:1020B000AF8FE4CED6018D919C911197228133810F
:1020C000019682179307A9F661CFEB8DFC8D608195
:1020D0007181828193810E94A8460E940B45AB01C9
:1020E000F601EE0FFF1FEE0FFF1FEE0FFF1F9F0108
:1020F000220F331F220F331FE20FF31FE25BFB4F50
:1021000071836083F601EE0FFF1FEE0FFF1FCF01FB
:10211000880F991F880F991FE80FF91FEE0FFF1FF7
:10212000E05BFB4F80819181480F591FF601EE0F54
:10213000FF1FEE0FFF1FCF01880F991F880F991FF8
:10214000E80FF91FEE0FFF1FE05BFB4F5183408349
:10215000BFCE2F923F924F925F926F927F928F925B
:102160009F92BF92CF92DF92EF92FF920F931F93B5
:10217000DF93CF9300D000D0CDB7DEB7B82ECB0120
:10218000BA01A90198010E94454669837A838B832D
:102190009C83EEE4CE2EE4E0DE2EEB2DF0E0EE0F9D
:1021A000FF1FEE0FFF1FEE0FFF1FCF01880F991FBC
:1021B000880F991FE80FF91FEC0DFD1D61897289C9
:1021C00083899489EB2DF0E0EE0FFF1FEE0FFF1FC8
:1021D000EE0FFF1F9F01220F331F220F331FE20F4D
:1021E000F31FEC0DFD1D2585368547855089EB2DA8
:1021F000F0E0EE0FFF1FEE0FFF1FEE0FFF1FDF01DE
:10220000AA0FBB1FAA0FBB1FEA0FFB1FEC0DFD1D82
:10221000E588F6880789108D0E944546A801970138
:102220000E94454620E030E040E05FE30E944546E2
:102230009B01AC0169817A818B819C810E9445461A
:102240000E94A8461B012C01EB2DF0E0EE0FFF1FB2
:10225000EE0FFF1FCF01880F991F880F991FE80FFE
:10226000F91F3196EE0FFF1FEC0DFD1D008111814E
:10227000C201B1010E940B45600F711FEB2DF0E010
:10228000EE0FFF1FEE0FFF1F9F01220F331F220FC4
:10229000331FE20FF31F3196EE0FFF1FEC0DFD1DF4
:1022A00071836083EB2DF0E0EE0FFF1FEE0FFF1F39
:1022B000EE0FFF1FCF01880F991F880F991FE80F9E
:1022C000F91FEC0DFD1D6680778080849184EB2DD5
:1022D000F0E0EE0FFF1FEE0FFF1FEE0FFF1FCF010D
:1022E000880F991F880F991FE80FF91FEC0DFD1D2E
:1022F0006189728983899489EB2DF0E0EE0FFF1FCD
:10230000EE0FFF1FEE0FFF1F9F01220F331F220F43
:10231000331FE20FF31FEC0DFD1D25853685478524
:102320005089EB2DF0E0EE0FFF1FEE0FFF1FEE0FB9
:10233000FF1FDF01AA0FBB1FAA0FBB1FEA0FFB1F66
:10234000EC0DFD1DE588F6880789108D0E94454635
:10235000A80197010E94454620E030E040E05FE39D
:102360000E9445469B01AC0169817A818B819C81E9
:102370000E944546A20191010E943A449B01AC0192
:10238000C401B3010E943B442B2D30E0220F331FC8
:10239000220F331F220F331FA901440F551F440F73
:1023A000551F240F351FC20ED31EF6016683778397
:1023B000808791870F900F900F900F90CF91DF91B2
:1023C0001F910F91FF90EF90DF90CF90BF909F9063
:1023D0008F907F906F905F904F903F902F900895D7
:1023E0002F923F924F925F926F927F928F929F9225
:1023F000BF92CF92DF92EF92FF920F931F93DF93E2
:10240000CF9300D000D0CDB7DEB7B82ECB01BA0144
:10241000A90198010E94454669837A838B839C8336
:10242000EEE4CE2EE4E0DE2EEB2DF0E0EE0FFF1F0B
:10243000EE0FFF1FEE0FFF1FCF01880F991F880FB0
:10244000991FE80FF91FEC0DFD1D618972898389C1
:102450009489EB2DF0E0EE0FFF1FEE0FFF1FEE0F44
:10246000FF1F9F01220F331F220F331FE20FF31FA5
:10247000EC0DFD1D2585368547855089EB2DF0E057
:10248000EE0FFF1FEE0FFF1FEE0FFF1FDF01AA0F62
:10249000BB1FAA0FBB1FEA0FFB1FEC0DFD1DE5883C
:1024A000F6880789108D0E944546A80197010E9471
:1024B000454620E030E044EB53E40E94A3449B01F6
:1024C000AC0169817A818B819C810E9445460E9482
:1024D000A8461B012C01EB2DF0E0EE0FFF1FEE0FC5
:1024E000FF1FCF01880F991F880F991FE80FF91F51
:1024F0003196EE0FFF1FEC0DFD1D00811181C20111
:10250000B1010E940B45600F711FEB2DF0E0EE0F43
:10251000FF1FEE0FFF1F9F01220F331F220F331FDC
:10252000E20FF31F3196EE0FFF1FEC0DFD1D7183BF
:102530006083EB2DF0E0EE0FFF1FEE0FFF1FEE0F9D
:10254000FF1FCF01880F991F880F991FE80FF91FF0
:10255000EC0DFD1D6680778080849184EB2DF0E08A
:10256000EE0FFF1FEE0FFF1FEE0FFF1FCF01880FB3
:10257000991F880F991FE80FF91FEC0DFD1D618948
:10258000728983899489EB2DF0E0EE0FFF1FEE0F27
:10259000FF1FEE0FFF1F9F01220F331F220F331F5C
:1025A000E20FF31FEC0DFD1D25853685478550890B
:1025B000EB2DF0E0EE0FFF1FEE0FFF1FEE0FFF1FE2
:1025C000DF01AA0FBB1FAA0FBB1FEA0FFB1FEC0DF9
:1025D000FD1DE588F6880789108D0E944546A801F3
:1025E00097010E94454620E030E044EB53E40E940E
:1025F000A3449B01AC0169817A818B819C810E94FB
:102600004546A20191010E943A449B01AC01C401DC
:10261000B3010E943B442B2D30E0220F331F220FC9
:10262000331F220F331FA901440F551F440F551F9D
:10263000240F351FC20ED31EF60166837783808771
:1026400091870F900F900F900F90CF91DF911F9176
:102650000F91FF90EF90DF90CF90BF909F908F9061
:102660007F906F905F904F903F902F90089560E023
:1026700070E04AE050E00E94F4476430D8F54091A1
:10268000450450914604E62FF0E0EE0FFF1FEE0FD9
:10269000FF1FEE0FFF1FCF01880F991F880F991F93
:1026A000E80FF91FE25BFB4F27A100D000D000D05C
:1026B000EDB7FEB73196ADB7BEB712965C934E93A9
:1026C000119787E191E093838283332727FD30952B
:1026D000358324830E94B24A8DB79EB706960FB603
:1026E000F8949EBF0FBE8DBF2091450430914604E3
:1026F000C9010895809145049091460400D000D00E
:1027000000D0EDB7FEB73196ADB7BEB712969C9329
:102710008E93119780E091E0938382836483158286
:102720000E94B24A8DB79EB706960FB6F8949EBF28
:102730000FBE8DBF2091450430914604C901089514
:1027400060E070E04AE050E00E94F4476430C8F571
:102750004091450450914604E62FF0E0EE0FFF1F34
:10276000EE0FFF1FEE0FFF1FCF01880F991F880F7D
:10277000991FE80FF91FE25BFB4F268D378D00D0C4
:1027800000D000D0EDB7FEB73196ADB7BEB7129608
:102790005C934E93119787E191E093838283358315
:1027A00024830E94B24A8DB79EB706960FB6F8945E
:1027B0009EBF0FBE8DBF2091450430914604C901D4
:1027C0000895809145049091460400D000D000D037
:1027D000EDB7FEB73196ADB7BEB712969C938E9308
:1027E000119780E091E093838283648315820E9435
:1027F000B24A8DB79EB706960FB6F8949EBF0FBE2D
:102800008DBF2091450430914604C901089560E0D0
:1028100070E04AE050E00E94F447262F643008F050
:1028200040C06091450470914604E22FF0E0EE0F45
:10283000FF1FEE0FFF1FEE0FFF1FCF01880F991F25
:10284000880F991FE80FF91FE25BFB4F2589368936
:102850004789508DADB7BEB718970FB6F894BEBF75
:102860000FBEADBFEDB7FEB7319612967C936E9357
:1028700011978AE191E09383828324833583468391
:1028800057830E94B24A8DB79EB708960FB6F89448
:102890009EBF0FBE8DBF2091450430914604C901F3
:1028A0000895809145049091460400D000D000D056
:1028B000EDB7FEB73196ADB7BEB712969C938E9327
:1028C000119780E091E093838283248315820E9494
:1028D000B24A8DB79EB706960FB6F8949EBF0FBE4C
:1028E0008DBF2091450430914604C901089560E0F0
:1028F00070E04AE050E00E94F447262F643008F070
:1029000040C06091450470914604E22FF0E0EE0F64
:10291000FF1FEE0FFF1FEE0FFF1FCF01880F991F44
:10292000880F991FE80FF91FE25BFB4F218932895D
:1029300043895489ADB7BEB718970FB6F894BEBF98
:102940000FBEADBFEDB7FEB7319612967C936E9376
:1029500011978AE191E093838283248335834683B0
:1029600057830E94B24A8DB79EB708960FB6F89467
:102970009EBF0FBE8DBF2091450430914604C90112
:102980000895809145049091460400D000D000D075
:10299000EDB7FEB73196ADB7BEB712969C938E9346
:1029A000119780E091E093838283248315820E94B3
:1029B000B24A8DB79EB706960FB6F8949EBF0FBE6B
:1029C0008DBF2091450430914604C901089560E00F
:1029D00070E04AE050E00E94F447262F643008F08F
:1029E00040C06091450470914604E22FF0E0EE0F84
:1029F000FF1FEE0FFF1FEE0FFF1FCF01880F991F64
:102A0000880F991FE80FF91FE25BFB4F258536857C
:102A100047855089ADB7BEB718970FB6F894BEBFBB
:102A20000FBEADBFEDB7FEB7319612967C936E9395
:102A300011978FE191E093838283248335834683CA
:102A400057830E94B24A8DB79EB708960FB6F89486
:102A50009EBF0FBE8DBF2091450430914604C90131
:102A60000895809145049091460400D000D000D094
:102A7000EDB7FEB73196ADB7BEB712969C938E9365
:102A8000119780E091E093838283248315820E94D2
:102A9000B24A8DB79EB706960FB6F8949EBF0FBE8A
:102AA0008DBF2091450430914604C901089560E02E
:102AB00070E04AE050E00E94F4476430D8F540915D
:102AC000450450914604862F90E0FC01EE0FFF1F55
:102AD000EE0FFF1FEE0FFF1F880F991FE80FF91F62
:102AE000EE0FFF1FEE0FFF1FEE5AFB4F20813181CB
:102AF00000D000D000D0EDB7FEB73196ADB7BEB76D
:102B000012965C934E93119787E191E093838283B1
:102B1000358324830E94B24A8DB79EB706960FB6BE
:102B2000F8949EBF0FBE8DBF20914504309146049E
:102B3000C9010895809145049091460400D000D0C9
:102B400000D0EDB7FEB73196ADB7BEB712969C93E5
:102B50008E93119780E091E0938382836483158242
:102B60000E94B24A8DB79EB706960FB6F8949EBFE4
:102B70000FBE8DBF2091450430914604C9010895D0
:102B800060E070E04AE050E00E94F447643048F5AD
:102B9000862F0E940907209145043091460400D0F9
:102BA00000D000D0EDB7FEB73196ADB7BEB71296E4
:102BB0003C932E93119727E131E033832283958351
:102BC00084830E94B24A8DB79EB706960FB6F894DA
:102BD0009EBF0FBE8DBF2091450430914604C901B0
:102BE0000895809145049091460400D000D000D013
:102BF000EDB7FEB73196ADB7BEB712969C938E93E4
:102C0000119780E091E093838283648315820E9410
:102C1000B24A8DB79EB706960FB6F8949EBF0FBE08
:102C20008DBF2091450430914604C901089560E0AC
:102C300070E04AE050E00E94F447643008F045C07C
:102C4000E62FF0E0EE0FFF1FEE0FFF1FCF01880F02
:102C5000991F880F991FE80FF91FEE0FFF1FE05B08
:102C6000FB4F20813181E62FF0E0EE0FFF1FEE0FCA
:102C7000FF1FEE0FFF1FCF01880F991F880F991FAD
:102C8000E80FF91FE25BFB4F80819181281739071C
:102C900071F0E0914504F091460481E390E0918366
:102CA00080832091450430914604C9010895E09144
:102CB0004504F091460480E390E091838083209165
:102CC000450430914604C9010895809145049091CE
:102CD000460400D000D000D0EDB7FEB73196ADB7B6
:102CE000BEB712969C938E93119780E091E09383E8
:102CF0008283648315820E94B24A8DB79EB706967E
:102D00000FB6F8949EBF0FBE8DBF20914504309141
:102D10004604C90108952F923F924F925F926F929D
:102D20007F928F929F92AF92BF92DF92EF92FF922B
:102D30000F931F93CF93DF9390E0880F991F8559CE
:102D40009A4FFC01259134912E5F3F4FF9018491F8
:102D5000E82FF0E0E231F10508F047C0EA5BFF4FF1
:102D6000EE0FFF1F0590F491E02D0994E0914603CA
:102D7000F091470320813181C901DC01E0E2F2E0FA
:102D800089E001900D928150E1F7E0914603F091C6
:102D9000470322813381C901DC01E0E2F2E089E0EE
:102DA00001900D928150E1F7E0914603F0914703C5
:102DB00024813581C901DC01E0E2F2E089E0019083
:102DC0000D928150E1F7E0914603F091470326818F
:102DD0003781C901DC01E0E2F2E089E001900D9267
:102DE0008150E1F785E08093420320E030E090E2FB
:102DF000A0914603B0914703A20FB31FEC91119627
:102E0000FC91DF010D900020E9F71197AE1BBF0B7D
:102E1000A83080F48A2FE0914603F0914703E20F37
:102E2000F31F0190F081E02DE80FF11D90838F5F7B
:102E3000883088F3E0914603F0914703E20FF31FD7
:102E40000190F081E02D10862E5F3F4F2830310534
:102E500079F6DF91CF911F910F91FF90EF90DF9066
:102E6000BF90AF909F908F907F906F905F904F90AA
:102E70003F902F900895E0914603F0914703208101
:102E80003181C901DC01E2ECF1E089E001900D92B1
:102E90008150E1F7E0914603F091470322813381AD
:102EA000C901DC01EBECF1E089E001900D92815069
:102EB000E1F7E0914603F091470324813581C90190
:102EC000DC01E0EBF1E089E001900D928150E1F747
:102ED000E0914603F091470326813781C901DC0167
:102EE000E9EBF1E089E001900D928150E1F77DCFAF
:102EF000E0914603F091470320813181C901DC0153
:102F0000E2E2F1E089E001900D928150E1F7E09179
:102F10004603F091470322813381C901DC01EBE2D2
:102F2000F1E089E001900D928150E1F7E0914603D4
:102F3000F091470324813581C901DC01E4E3F1E02C
:102F400089E001900D928150E1F7E0914603F09104
:102F5000470326813781C901DC01EDE3F1E087E019
:102F600001900D928150E1F740CFC0E0D0E0EE2417
:102F7000FF24BBE4AB2EB1E0BB2EAFED8A2E912C2B
:102F8000F4E56F2EF1E07F2EE7EF4E2E512C74E426
:102F9000272E71E0372E4C2F809143039E0190E045
:102FA0000C2E02C0959587950A94E2F780FDE9C43E
:102FB00060E2D62EF901EE0FFF1FEE0FFF1FEE0F9E
:102FC000FF1FCF01880F991F880F991FE80FF91F66
:102FD000E25BFB4F818D813009F4EAC5823009F450
:102FE000A0C58823D9F5A0914603B0914703F90104
:102FF000EE0FFF1FEE0FFF1FEE0FFF1FCF01880F19
:10300000991F880F991FE80FF91FE25BFB4F208182
:1030100031818DB79EB708970FB6F8949EBF0FBE4B
:103020008DBFEDB7FEB73196AE0DBF1D8D919C9152
:10303000ADB7BEB712969C938E93119733822282BE
:10304000D4821582378326830E94B24AEDB7FEB739
:1030500038960FB6F894FEBF0FBEEDBF219622E062
:1030600030E0E20EF31EC430D10509F094CFBDCE9E
:10307000C0E0D0E00DE711E0809143039E0190E0B5
:103080000C2E02C0959587950A94E2F780FD81C4C5
:1030900060E270E0A0914603B0914703F901EE0FA2
:1030A000FF1FEE0FFF1FEE0FFF1FCF01880F991FAD
:1030B000880F991FE80FF91FE25BFB4F228D338DBC
:1030C000448D558D8DB79EB70A970FB6F8949EBF65
:1030D0000FBE8DBFEDB7FEB73196CE01880F991F99
:1030E000A80FB91F8D919C91ADB7BEB712969C9356
:1030F0008E931197138302837583648326833783AA
:10310000408751870E94B24A2196EDB7FEB73A96A2
:103110000FB6F894FEBF0FBEEDBFC430D10509F065
:10312000ABCF63CEC0E0D0E000E010E09DE5A92E7B
:1031300091E0B92E82E6882E81E0982EB7E66B2EBC
:10314000B1E07B2EAEE64A2EA1E05A2E80914303D9
:10315000FC2EED2E90E00C2E02C0959587950A94DA
:10316000E2F780FDF5C3F0E2DF2EEF2DFE2DEE0F2E
:10317000FF1FEE0FFF1FEE0FFF1FCF01880F991FDC
:10318000880F991FE80FF91FE25BFB4F818D8823A1
:1031900009F493C4EF2DFE2DEE0FFF1FEE0FFF1F5E
:1031A000EE0FFF1FCF01880F991F880F991FE80F9F
:1031B000F91FE25BFB4F818D813009F4FDC5EF2DD6
:1031C000FE2DEE0FFF1FEE0FFF1FEE0FFF1FCF01B3
:1031D000880F991F880F991FE80FF91FE25BFB4FBB
:1031E000818D823009F4B7C521960E5F1F4FC43020
:1031F000D10509F0ABCFF9CDC0E0D0E009E012E095
:10320000809143039E0190E00C2E02C09595879516
:103210000A94E2F780FDAAC360E270E0A091460341
:10322000B0914703F901EE0FFF1FEE0FFF1FEE0FE6
:10323000FF1FCF01880F991F880F991FE80FF91FF3
:10324000E25BFB4F25853685478550898DB79EB754
:103250000A970FB6F8949EBF0FBE8DBFEDB7FEB7AD
:103260003196CE01880F991FA80FB91F8D919C919F
:10327000ADB7BEB712969C938E93119713830283BA
:103280007583648326833783408751870E94B24ABF
:103290002196EDB7FEB73A960FB6F894FEBF0FBE73
:1032A000EDBFC430D10509F0ABCF9FCDE09146030F
:1032B000F091470320813181C901DC01E6EEF1E0A4
:1032C00089E001900D928150E1F7E0914603F09181
:1032D000470322813381C901DC01EFEEF1E089E08F
:1032E00001900D928150E1F7E0914603F091470380
:1032F0002091410300D000D000D0ADB7BEB71196E9
:1033000084819581EDB7FEB79283818388EF91E048
:1033100013969C938E931297332727FD309515961D
:103320003C932E9314970E94B24AE0914603F09189
:10333000470326813781C901DC01EBE2F1E089E036
:1033400001900D928150E1F72DB73EB72A5F3F4FB4
:103350000FB6F8943EBF0FBE2DBF47CDC0E0D0E002
:1033600000E012E0809143039E0190E00C2E02C029
:10337000959587950A94E2F780FD55C360E270E069
:10338000A0914603B0914703F901EE0FFF1FEE0F26
:10339000FF1FEE0FFF1FCF01880F991F880F991F86
:1033A000E80FF91FE25BFB4F23A134A145A156A111
:1033B0008DB79EB70A970FB6F8949EBF0FBE8DBF0C
:1033C000EDB7FEB73196CE01880F991FA80FB91F30
:1033D0008D919C91ADB7BEB712969C938E93119729
:1033E00013830283758364832683378340875187E1
:1033F0000E94B24A2196EDB7FEB73A960FB6F894FE
:10340000FEBF0FBEEDBFC430D10509F0ABCFEDCC90
:10341000C0E0D0E000E010E05DE5A52E51E0B52E63
:1034200040E1842E42E0942E35E1632E32E0732E8B
:103430002AE1422E22E0522E80914303FC2EED2EF3
:1034400090E00C2E02C0959587950A94E2F780FDD6
:1034500095C290E2D92EEF2DFE2DEE0FFF1FEE0F3D
:10346000FF1FEE0FFF1FCF01880F991F880F991FB5
:10347000E80FF91FE25BFB4F87A1882309F4EBC239
:10348000EF2DFE2DEE0FFF1FEE0FFF1FEE0FFF1FA4
:10349000CF01880F991F880F991FE80FF91FE25B72
:1034A000FB4F87A1813009F425C4EF2DFE2DEE0FCF
:1034B000FF1FEE0FFF1FEE0FFF1FCF01880F991F99
:1034C000880F991FE80FF91FE25BFB4F87A182303D
:1034D00009F4DFC321960E5F1F4FC430D10509F0F8
:1034E000ABCF83CCC0E0D0E005E711E0809143038F
:1034F0009E0190E00C2E02C0959587950A94E2F704
:1035000080FD94C240E250E0A0914603B091470391
:10351000F901EE0FFF1FEE0FFF1FEE0FFF1FCF0190
:10352000880F991F880F991FE80FF91FE25BFB4F67
:10353000268D378D8DB79EB708970FB6F8949EBF2E
:103540000FBE8DBFEDB7FEB73196CE01880F991F24
:10355000A80FB91F8D919C91ADB7BEB712969C93E1
:103560008E93119713830283558344833783268375
:103570000E94B24A2196EDB7FEB738960FB6F8947E
:10358000FEBF0FBEEDBFC430D10509F0AFCF2DCCCB
:10359000E0914603F091470320813181C901DC01AC
:1035A000EEE9F1E089E001900D928150E1F7E091C0
:1035B0004603F091470322813381C901DC01E7EA28
:1035C000F1E089E001900D928150E1F7E09146032E
:1035D000F091470324813581C901DC01E0EBF1E082
:1035E00089E001900D928150E1F7E0914603F0915E
:1035F000470326813781C901DC01E9EBF1E089E06D
:1036000001900D928150E1F7F0CBC0E0D0E004E4EE
:1036100011E0809143039E0190E00C2E02C095952D
:1036200087950A94E2F780FD99C140E250E0A091AD
:103630004603B0914703C901F901EE0FFF1FEE0FDA
:10364000FF1FEE0FFF1F880F991FE80FF91FEE0FE6
:10365000FF1FEE0FFF1FEE5AFB4F208131818DB708
:103660009EB708970FB6F8949EBF0FBE8DBFEDB7FB
:10367000FEB73196CE01880F991FA80FB91F8D9103
:103680009C91ADB7BEB712969C938E9311971383FE
:10369000028355834483378326830E94B24A21964E
:1036A000EDB7FEB738960FB6F894FEBF0FBEEDBF6C
:1036B000C430D10509F0ADCF98CB40E050E000E038
:1036C00010E07EE8E72E71E0F72E8091430390E052
:1036D000042E02C0959587950A94E2F780FD96C165
:1036E00020E2FA01EE0FFF1FEE0FFF1FE40FF51FA0
:1036F000EF5CFB4F8481882309F44EC1E0914603BF
:10370000F0914703E00FF11F20813181C901DC01F5
:10371000E5E8F1E089E001900D928150E1F7EA01DE
:1037200021966CC1C0E0D0E0EE24FF2490EEA92EDB
:1037300091E0B92E8BED882E81E0982E04ED602E5D
:1037400001E0702E8091430390E00C2E02C095950D
:1037500087950A94E2F780FD5BC110E2D12EFE014D
:10376000EE0FFF1FEE0FFF1FEC0FFD1FEF5CFB4F77
:103770008481882309F05DC18E01000F111F000FA5
:10378000111F000F111FF801EE0FFF1FEE0FFF1F9B
:10379000E00FF11FE25BFB4F82A1882309F452C2C4
:1037A000F801EE0FFF1FEE0FFF1FE00FF11FE25BAE
:1037B000FB4F82A1813009F457C3F801EE0FFF1FC0
:1037C000EE0FFF1FE00FF11FE25BFB4F82A1823083
:1037D00009F423C3219682E090E0E80EF91EC4307C
:1037E000D10509F0AFCF01CBC0E0D0E007E911E08F
:1037F000809143039E0190E00C2E02C09595879521
:103800000A94E2F780FD07C160E270E0A0914603F0
:10381000B0914703F901EE0FFF1FEE0FFF1FEE0FF0
:10382000FF1FCF01880F991F880F991FE80FF91FFD
:10383000E25BFB4F21893289438954898DB79EB75A
:103840000A970FB6F8949EBF0FBE8DBFEDB7FEB7B7
:103850003196CE01880F991FA80FB91F8D919C91A9
:10386000ADB7BEB712969C938E93119713830283C4
:103870007583648326833783408751870E94B24AC9
:103880002196EDB7FEB73A960FB6F894FEBF0FBE7D
:10389000EDBFC430D10509F0ABCFA7CAC0E0D0E07E
:1038A00007E911E0809143039E0190E00C2E02C0D5
:1038B000959587950A94E2F780FD4DC060E270E02F
:1038C000A0914603B0914703F901EE0FFF1FEE0FE1
:1038D000FF1FEE0FFF1FCF01880F991F880F991F41
:1038E000E80FF91FE25BFB4F258936894789508D28
:1038F0008DB79EB70A970FB6F8949EBF0FBE8DBFC7
:10390000EDB7FEB73196CE01880F991FA80FB91FEA
:103910008D919C91ADB7BEB712969C938E931197E3
:10392000138302837583648326833783408751879B
:103930000E94B24A2196EDB7FEB73A960FB6F894B8
:10394000FEBF0FBEEDBFC430D10509F0ABCF4DCAED
:10395000EEE7DE2E0ACC6EE770E0B2CF8091400336
:10396000882309F4DBC04EE350E061CE8091400330
:10397000882309F461C16EE370E050CC8EE7D82E45
:103980006ACD80914003882309F40FC15EE3D52EF0
:1039900011CB6EE770E07ECBE0914603F0914703D8
:1039A0008DB79EB708970FB6F8949EBF0FBE8DBF18
:1039B000ADB7BEB71196E00FF11F80819181EDB7D1
:1039C000FEB7928381831396FC92EE92129714961F
:1039D0002C93149715961C921597EA012196179629
:1039E000DC93CE9316970E94B24A2DB73EB7285F5C
:1039F0003F4F0FB6F8943EBF0FBE2DBFAE010E5F16
:103A00001F4FC430D10509F060CEEFC92EE769CE53
:103A1000BEE7DB2EA4CE80914003882309F40FC1BA
:103A20006EE370E0F3CE6EE770E0AACC4EE750E0B4
:103A30006BCDE0914603F0914703EE0DFF1D208111
:103A40003181C901DC01E5E8F1E089E001900D92E6
:103A50008150E1F7BFCEE0914603F09147032DB7C7
:103A60003EB7285030400FB6F8943EBF0FBE2DBF72
:103A7000ADB7BEB71196E00FF11F80819181EDB710
:103A8000FEB7928381831396BC92AE9212971496DE
:103A9000DC92149715961C92159717969C928E920D
:103AA00016970E94B24A2DB73EB7285F3F4F0FB618
:103AB000F8943EBF0FBE2DBFE3CCE0914603F091DA
:103AC00047038DB79EB708970FB6F8949EBF0FBEF9
:103AD0008DBFADB7BEB71196E00FF11F8081918108
:103AE000EDB7FEB7928381831396BC92AE92129784
:103AF0001496DC92149715961C92159717969C9223
:103B00008E9216970E94B24A2DB73EB7285F3F4F5C
:103B10000FB6F8943EBF0FBE2DBF3CCB4EE750E032
:103B200086CDE0914603F0914703EE0DFF1D008125
:103B30001181F901EE0FFF1FEE0FFF1FEE0FFF1FA8
:103B4000CF01880F991F880F991FE80FF91FE25BBB
:103B5000FB4F60817181842F0E94AF082DB73EB763
:103B60002C5030400FB6F8943EBF0FBE2DBFEDB7BE
:103B7000FEB73196ADB7BEB712961C930E93119750
:103B800073826282D482158266837783808791876D
:103B9000538642860E94B24AEDB7FEB73C960FB6F6
:103BA000F894FEBF0FBEEDBF59CA9EE7D92E02CAD8
:103BB000E0914603F0914703EE0DFF1D0081118156
:103BC000F901EE0FFF1FEE0FFF1FEE0FFF1FCF01DA
:103BD000880F991F880F991FE80FF91FE25BFB4FB1
:103BE00060817181842F0E942A082DB73EB72C5026
:103BF00030400FB6F8943EBF0FBE2DBFEDB7FEB7F5
:103C00003196ADB7BEB712961C930E931197B3823F
:103C1000A282D48215826683778380879187938678
:103C200082860E94B24AEDB7FEB73C960FB6F89472
:103C3000FEBF0FBEEDBF12CA6EE770E0EFCA6EE7BF
:103C400070E0E4CDE0914603F091470300D000D04E
:103C500000D0ADB7BEB71196EE0DFF1D80819181EA
:103C6000EDB7FEB79283818313967C926E92129782
:103C70001496DC92149715961C920E94B24A2DB7A6
:103C80003EB72A5F3F4F0FB6F8943EBF0FBE2DBF21
:103C900087CDE0914603F09147038DB79EB7089713
:103CA0000FB6F8949EBF0FBE8DBFADB7BEB71196CD
:103CB000E00FF11F80819181EDB7FEB79283818380
:103CC0001396BC92AE9212971496DC9214971596A6
:103CD0001C92159717965C924E9216970E94B24AC4
:103CE0002DB73EB7285F3F4F0FB6F8943EBF0FBECB
:103CF0002DBFF0CBE0914603F09147038DB79EB7FF
:103D000008970FB6F8949EBF0FBE8DBFADB7BEB774
:103D10001196E00FF11F80819181EDB7FEB792837C
:103D200081831396BC92AE9212971496DC921497EC
:103D300015961C92159717967C926E9216970E9474
:103D4000B24A2DB73EB7285F3F4F0FB6F8943EBF3B
:103D50000FBE2DBFAACBE0914603F09147038DB76C
:103D60009EB708970FB6F8949EBF0FBE8DBFADB734
:103D7000BEB71196E00FF11F80819181EDB7FEB7BC
:103D8000928381831396BC92AE9212971496DC9222
:103D9000149715961C92159717965C924E9216974B
:103DA0000E94B24A2DB73EB7285F3F4F0FB6F89436
:103DB0003EBF0FBE2DBF18CAE0914603F0914703E6
:103DC0008DB79EB708970FB6F8949EBF0FBE8DBFF4
:103DD000ADB7BEB71196E00FF11F80819181EDB7AD
:103DE000FEB7928381831396BC92AE92129714967B
:103DF000DC92149715961C92159717967C926E92EA
:103E000016970E94B24A2DB73EB7285F3F4F0FB6B4
:103E1000F8943EBF0FBE2DBFD2C9E0914603F0918A
:103E2000470300D000D000D0ADB7BEB71196EE0D5D
:103E3000FF1D80819181EDB7FEB792838183139638
:103E4000BC92AE9212971496DC92149715961C921F
:103E50000E94B24A2DB73EB72A5F3F4F0FB6F89483
:103E60003EBF0FBE2DBFB6CCE0914603F091470395
:103E700000D000D000D0ADB7BEB71196EE0DFF1D3B
:103E800080819181EDB7FEB79283818313969C92D6
:103E90008E9212971496DC92149715961C920E949B
:103EA000B24A2DB73EB72A5F3F4F0FB6F8943EBFD8
:103EB0000FBE2DBF82CC8F929F92AF92BF92CF92B6
:103EC000DF92EF92FF920F931F93CF93DF93EB015B
:103ED0006A015901480160E070E04AE050E00E9448
:103EE000F447162F603168F0DF91CF911F910F9149
:103EF000FF90EF90DF90CF90BF90AF909F908F900A
:103F00000895C70169E272E00E943C4A009709F0F7
:103F100066C0812F90E0FC01EE0FFF1FEE0FFF1F28
:103F2000EE0FFF1F880F991FE80FF91FEF5AFC4F84
:103F30001082812F90E0FC01EE0FFF1FEE0FFF1F9C
:103F4000EE0FFF1F880F991FE80FF91FEF5AFC4F64
:103F500081E08187812F90E0FC01EE0FFF1FEE0FC3
:103F6000FF1FEE0FFF1F880F991FE80FF91FEF5A71
:103F7000FC4F12821182812F90E0FC01EE0FFF1F97
:103F8000EE0FFF1FEE0FFF1F880F991FE80FF91F9D
:103F9000EF5AFC4F14821382812F90E0FC01EE0F48
:103FA000FF1FEE0FFF1FEE0FFF1F880F991FE80F77
:103FB000F91FEF5AFC4F16821582812F90E0FC0109
:103FC000EE0FFF1FEE0FFF1FEE0FFF1F880F991F51
:103FD000E80FF91FEF5AFC4F1086178285CFCE01EC
:103FE00060E070E04AE050E00E94F447212F30E0AA
:103FF000F901EE0FFF1FEE0FFF1FEE0FFF1F220F45
:10400000331FE20FF31FEF5AFC4F72836183C60127
:1040100060E070E04AE050E00E94F447212F30E079
:10402000F901EE0FFF1FEE0FFF1FEE0FFF1F220F14
:10403000331FE20FF31FEF5AFC4F74836383C501F4
:1040400060E070E04AE050E00E94F447212F30E049
:10405000F901EE0FFF1FEE0FFF1FEE0FFF1F220FE4
:10406000331FE20FF31FEF5AFC4F76836583C401C1
:1040700060E070E04AE050E00E94F447212F30E019
:10408000F901EE0FFF1FEE0FFF1FEE0FFF1F220FB4
:10409000331FE20FF31FEF5AFC4F70876783812FA6
:1040A00090E0FC01EE0FFF1FEE0FFF1FEE0FFF1F52
:1040B000880F991FE80FF91FEF5AFC4F81E08083AA
:1040C000C7016EE272E00E943C4A009781F4812FA2
:1040D00090E0FC01EE0FFF1FEE0FFF1FEE0FFF1F22
:1040E000880F991FE80FF91FEF5AFC4F1186C7017F
:1040F00062E372E00E943C4A009709F0F5CE812FFE
:1041000090E0FC01EE0FFF1FEE0FFF1FEE0FFF1FF1
:10411000880F991FE80FF91FEF5AFC4F81E0818744
:10412000E3CE0F93CF93DF93EB0160E070E04AE0C2
:1041300050E00E94F447062F643008F0ACC0CE0176
:1041400066E372E00E943C4A009759F1CE016CE3AD
:1041500072E00E943C4A009709F460C0CE0160E41E
:1041600072E00E943C4A009709F058C0C091450493
:10417000D0914604E02FF0E0EE0FFF1FEE0FFF1F7F
:10418000EE0FFF1FCF01880F991F880F991FE80FAF
:10419000F91FE25BFB4F60817181802F0E94AF08A5
:1041A00057C04091450450914604E02FF0E0EE0FD7
:1041B000FF1FEE0FFF1FEE0FFF1FCF01880F991F8C
:1041C000880F991FE80FF91FE25BFB4F20813181B7
:1041D00000D000D000D0EDB7FEB73196ADB7BEB776
:1041E00012965C934E93119787E191E093838283BB
:1041F000358324830E94B24A2DB73EB72A5F3F4FD2
:104200000FB6F8943EBF0FBE2DBF209145043091EC
:104210004604C901DF91CF910F910895C0914504E3
:10422000D0914604E02FF0E0EE0FFF1FEE0FFF1FCE
:10423000EE0FFF1FCF01880F991F880F991FE80FFE
:10424000F91FE25BFB4F60817181802F0E942A0879
:10425000ADB7BEB718970FB6F894BEBF0FBEADBFCF
:10426000EDB7FEB731961296DC93CE9311972FE1FE
:1042700031E03383228364837583868397830E942E
:10428000B24A2DB73EB7285F3F4F0FB6F8943EBFF6
:104290000FBE2DBFBACF809145049091460400D047
:1042A00000D000D0EDB7FEB73196ADB7BEB71296CD
:1042B0009C938E93119780E091E093838283048393
:1042C00015820E94B24A2DB73EB72A5F3F4F0FB604
:1042D000F8943EBF0FBE2DBF98CF90E0880F991F76
:1042E00085599A4FFC0125913491F901659174919A
:1042F0008091490490914A040E94254A8091490482
:1043000090914A0463E472E00E94374ABC019093A2
:104310004A0480934904E0914A03F0914B03808161
:1043200091810E94454A80E090E065E472E00E943D
:10433000374ABC0190934A0480934904E0914A03B0
:10434000F0914B03828193810E94454A20E030E046
:1043500090E2A0914A03B0914B03A20FB31FEC91DE
:104360001196FC91DF010D900020E9F71197AE1B2B
:10437000BF0BA03180F48A2FE0914A03F0914B03E8
:10438000E20FF31F0190F081E02DE80FF11D908303
:104390008F5F803188F3E0914A03F0914B03E20F85
:1043A000F31F0190F081E02D108A2E5F3F4F2430E3
:1043B000310579F60895AF92BF92CF92DF92EF92D6
:1043C000FF920F931F93CF93DF93F8948091F004A3
:1043D000882379F4B0E8AB2E78948A2DDF91CF91C1
:1043E0001F910F91FF90EF90DF90CF90BF90AF9013
:1043F00008958091EE049091EF0467E472E00E94CA
:10440000374A6C010DE313E0A0E8AA2EBB24E0902C
:104410002803F0902903F801C591D491FE0165911C
:104420007491D7018D919C910E94254AE0902803B8
:10443000F0902903F70160817181C6010E943C4A16
:10444000009741F42396FE0194912197FE018491F7
:10445000A92EB82E0E5F1F4FF3E009381F07D9F6BB
:10446000BB20C9F011E080E090E067E472E00E94B8
:10447000374ABC01812F90E0880F991FE0912803F3
:10448000F0912903E80FF91F808191810E94454A2C
:104490001F5FB11640F7E091EE04F091EF0480E465
:1044A000DF011D928A95E9F71092F00495CFFC0187
:1044B0009081992351F08091C00085FFFCCF9093AB
:1044C000C600319690819923B1F78091C00085FF95
:1044D000FCCF8AE08093C600E0914504F091460449
:1044E00080E4DF011D928A95E9F7089560E070E0AD
:1044F0004AE050E00E94F447633078F46623F9F014
:10450000613041F181E00E94D23F0E94FF3E209144
:10451000450430914604C9010895A0914504B09125
:104520004604ECE4F2E08AE101900D928150E1F75B
:1045300080914504909146040E945722E8CF0E9442
:104540000C3F81E00E94D23F209145043091460407
:10455000C901089580E00E94D23F0E94FF3E209151
:10456000450430914604C9010895AF92BF92CF929D
:10457000DF92EF92FF920F931F937B016A01590123
:1045800060E070E04AE050E00E94F447062FC70167
:1045900060E070E04AE050E00E94F447E62EC60179
:1045A00060E070E04AE050E00E94F447F62EC5015A
:1045B00060E070E04AE050E00E94F44710E0F8014B
:1045C000EE0FFF1FE00FF11FE25DFC4FE082F18272
:1045D000628380914504909146042081318142811B
:1045E0006DB77EB76C5070400FB6F8947EBF0FBEAB
:1045F0006DBFEDB7FEB73196ADB7BEB712969C93BF
:104600008E93119786E692E09383828315830483C9
:104610002683178230871186428713860E94B24A0A
:1046200080914504909146042DB73EB7245F3F4FDB
:104630000FB6F8943EBF0FBE2DBF0E9457220E94B6
:1046400015081F910F91FF90EF90DF90CF90BF90D2
:10465000AF900895AF92BF92CF92DF92EF92FF9208
:104660000F931F93CF93DF93C0E0D0E070E8C72E85
:1046700072E0D72EE0904504F0904604CE01FE0192
:10468000EE0FFF1FEE0FFF1FEE0FFF1F880F991F8A
:10469000E80FF91FEF5AFC4F01811281CE01FE0194
:1046A000EE0FFF1FEE0FFF1FEE0FFF1F880F991F6A
:1046B000E80FF91FEF5AFC4FA380B480CE01FE0132
:1046C000EE0FFF1FEE0FFF1FEE0FFF1F880F991F4A
:1046D000E80FF91FEF5AFC4F45815681CE01FE01CC
:1046E000EE0FFF1FEE0FFF1FEE0FFF1F880F991F2A
:1046F000E80FF91FEF5AFC4F27813085CE01FE01EC
:10470000EE0FFF1FEE0FFF1FEE0FFF1F880F991F09
:10471000E80FF91FEF5AFC4F6185CE01FE01EE0F45
:10472000FF1FEE0FFF1FEE0FFF1F880F991FE80FEF
:10473000F91FEF5AFC4F8081ADB7BEB752970FB645
:10474000F894BEBF0FBEADBFEDB7FEB7319612965F
:10475000FC92EE921197D382C282C483D5831783D1
:104760000683B186A086538742873587248766876C
:104770001786808B118A0E94B24A809145049091DD
:104780004604EDB7FEB772960FB6F894FEBF0FBEA3
:10479000EDBF0E9457222196C031D10509F06ACFA2
:1047A000DF91CF911F910F91FF90EF90DF90CF900D
:1047B000BF90AF90089560E070E04AE050E00E9442
:1047C000F447643090F5E62FF0E0EE0FFF1FEE0F98
:1047D000FF1FEE0FFF1FCF01880F991F880F991F32
:1047E000E80FF91FE25BFB4F8385882379F4E091A2
:1047F0004504F091460480E390E0918380838091AA
:104800004504909146040E9457220895E091450482
:10481000F091460481E390E0918380838091450488
:10482000909146040E9457220895A0914504B091AA
:104830004604E5E9F2E083E101900D928150E1F751
:10484000DECF1F93CF93DF93EB0160E070E04AE08F
:1048500050E00E94F447162F6430B8F4CE0160E0B7
:1048600070E04AE050E00E94F447812F90E0FC01A4
:10487000EE0FFF1FEE0FFF1FE80FF91FEF5CFB4F5E
:104880006483DF91CF911F910895A0914504B09169
:104890004604E5E9F2E083E101900D928150E1F7F1
:1048A00080914504909146040E945722EACFFF92DE
:1048B0000F931F93CF93DF93EB018A0160E070E0C9
:1048C0004AE050E00E94F447F62E83E08F1528F16D
:1048D000CE010E942749EC01C8010E942749AC0182
:1048E000C817D90779F18C179D074CF18F2D90E0EF
:1048F000FC01EE0FFF1FEE0FFF1FE80FF91FEF5C2B
:10490000FB4FD183C0835383428381E08483DF9153
:10491000CF911F910F91FF900895A0914504B09100
:104920004604E5E9F2E083E101900D928150E1F760
:1049300080914504909146040E945722E8CFAE0131
:10494000EC01D4CF8F2D90E0FC01EE0FFF1FEE0F96
:10495000FF1FE80FF91FEF5CFB4F118210821382DB
:1049600012821482DF91CF911F910F91FF900895D1
:104970002F923F924F925F926F927F928F929F926F
:10498000AF92BF92CF92DF92EF92FF920F931F935D
:10499000DF93CF9300D000D000D0CDB7DEB77A83BD
:1049A00069838A0160E070E04AE050E00E94F447C9
:1049B000643008F062C0E62EFF249701220F331FF7
:1049C000220F331F3C832B83F901EE0DFF1DEF5C9B
:1049D000FB4F84818823C9F026960FB6F894DEBF7A
:1049E0000FBECDBFCF91DF911F910F91FF90EF9040
:1049F000DF90CF90BF90AF909F908F907F906F90FF
:104A00005F904F903F902F900895C8010E942349D6
:104A10003B014C0189819A8168EA72E00E943C4A1C
:104A2000009709F03CC0F894C701880F991F880FC0
:104A3000991F880F991FFC01EE0FFF1FEE0FFF1F3C
:104A4000E80FF91FE25BFB4F148683E090E0978F3D
:104A5000868F80819181EB81FC81EE0FFF1FEE0F2D
:104A6000FF1FAB81BC81EA0FFB1FEE0FFF1FE05B56
:104A7000FB4F918380837894AFCFA0914504B09190
:104A80004604E5E9F2E083E101900D928150E1F7FF
:104A900080914504909146040E9457229DCFF701D2
:104AA000EE0FFF1FEE0FFF1FEE0FFF1FFE83ED83C4
:104AB000EE0FFF1FEE0FFF1F2D813E81E20FF31F50
:104AC000E25BFB4FE584F68407851089A188B288F4
:104AD000C388D488258836884788508CC401B301A0
:104AE0009F7720E030E04AE754E40E9445463B01CE
:104AF0004C01C801B701A60195010E944546A201DB
:104B000091010E9445469B01AC01C401B3010E9482
:104B1000A3440E94A8460E9410458B01672B09F40C
:104B200077C037E26031730708F060C089819A81ED
:104B300064ED72E00E943C4A009739F5ED81FE81F8
:104B4000EE0FFF1FEE0FFF1F8D819E81E80FF91FF3
:104B5000E25BFB4F81E08487178F068F8081918114
:104B6000EB81FC81EE0FFF1FEE0FFF1FAB81BC81BD
:104B7000EA0FFB1FEE0FFF1FE05BFB4F918380836B
:104B80008081918101969183808389819A8167EDEB
:104B900072E00E943C4A009709F01ECFED81FE8131
:104BA000EE0FFF1FEE0FFF1F2D813E81E20FF31F5F
:104BB000E25BFB4F82E08487178F068F80819181B3
:104BC000EB81FC81EE0FFF1FEE0FFF1FAB81BC815D
:104BD000EA0FFB1FEE0FFF1FE05BFB4F918380830B
:104BE00080819181019791838083F6CEA0914504C5
:104BF000B0914604E1ECF2E083E101900D92815026
:104C0000E1F780914504909146040E9457228ECF8F
:104C1000A0914504B0914604EDEAF2E084E10190F0
:104C20000D928150E1F734CF1F93CF93DF93EB01C7
:104C300060E070E04AE050E00E94F447162F6430D4
:104C4000D8F4CE010E9427499C01E12FF0E0EE0F3D
:104C5000FF1FEE0FFF1FEE0FFF1FCF01880F991FE1
:104C6000880F991FE80FF91FE25BFB4F378F268FE4
:104C7000DF91CF911F910895A0914504B091460412
:104C8000E5E9F2E083E101900D928150E1F7809136
:104C90004504909146040E945722EACF1F93CF9378
:104CA000DF93EB0160E070E04AE050E00E94F447DF
:104CB000162F6430E0F4CE010E942349E12FF0E08A
:104CC000EE0FFF1FEE0FFF1FEE0FFF1F9F01220FC2
:104CD000331F220F331FE20FF31FE25BFB4F618B89
:104CE000728B838B948BDF91CF911F91089580916C
:104CF00045049091460400D000D000D0EDB7FEB737
:104D00003196ADB7BEB712969C938E93119780E003
:104D100091E093838283148315820E94B24A80912A
:104D20004504909146042DB73EB72A5F3F4F0FB61A
:104D3000F8943EBF0FBE2DBF0E945722DF91CF9146
:104D40001F9108951F93CF93DF93EB0160E070E014
:104D50004AE050E00E94F447162F6430E0F4CE01A0
:104D60000E942349E12FF0E0EE0FFF1FEE0FFF1F1F
:104D7000EE0FFF1F9F01220F331F220F331FE20F81
:104D8000F31FE25BFB4F658776878787908BDF9108
:104D9000CF911F910895809145049091460400D0D1
:104DA00000D000D0EDB7FEB73196ADB7BEB71296C2
:104DB0009C938E93119780E091E093838283148378
:104DC00015820E94B24A80914504909146042DB705
:104DD0003EB72A5F3F4F0FB6F8943EBF0FBE2DBFC0
:104DE0000E945722DF91CF911F9108951F93CF9377
:104DF000DF93EB0160E070E04AE050E00E94F4478E
:104E0000162F643000F5CE0160E070E04AE050E01B
:104E10000E94F447212F30E0F901EE0FFF1FEE0F43
:104E2000FF1FEE0FFF1F220F331FE20FF31FEE0FC6
:104E3000FF1FEE0FFF1FEE5AFB4F71836083DF9160
:104E4000CF911F910895809145049091460400D020
:104E500000D000D0EDB7FEB73196ADB7BEB7129611
:104E60009C938E93119780E091E0938382831483C7
:104E700015820E94B24A80914504909146042DB754
:104E80003EB72A5F3F4F0FB6F8943EBF0FBE2DBF0F
:104E90000E945722DF91CF911F910895FF920F93A7
:104EA0001F93CF93DF93EB018A0160E070E04AE04B
:104EB00050E00E94F447F62E83E08F1530F4DF9126
:104EC000CF911F910F91FF900895C80166E372E0A2
:104ED0000E943C4A0097A9F0C8016CE372E00E946E
:104EE0003C4A009709F442C0C80160E472E00E94A5
:104EF0003C4A009709F447C08BED92E00E9457228C
:104F0000DECFEF2DF0E0EE0FFF1FEE0FFF1FCF0102
:104F1000880F991F880F991FE80FF91FEE0FFF1FC9
:104F2000E05BFB4F00811181CE0160E070E04AE060
:104F300050E00E94F447060F171FEF2DF0E0EE0F30
:104F4000FF1FEE0FFF1FCF01880F991F880F991FBA
:104F5000E80FF91FEE0FFF1FE05BFB4F118300838B
:104F6000DF91CF911F910F91FF900895CE010E9484
:104F70002349AB01BC018F2D00E010E020E83FE3A6
:104F80000E94F0119CCFCE010E942349AB01BC01CD
:104F90008F2D00E010E020E83FE30E94A9108FCFA2
:104FA000DF92EF92FF920F931F93CF93DF93EB016A
:104FB0008A0160E070E04AE050E00E94F447D62E9B
:104FC00083E08D1540F4DF91CF911F910F91FF90F9
:104FD000EF90DF900895C80166E372E00E943C4ABA
:104FE0000097A1F0C8016CE372E00E943C4A009770
:104FF00079F1C80160E472E00E943C4A009709F42C
:1050000050C08BED92E00E945722DDCFCE0160E0D0
:1050100070E04AE050E00E94F447ED2DF0E0EE0F22
:10502000FF1FEE0FFF1F9F01220F331F220F331FA1
:10503000E20FF31FEE0FFF1FE05BFB4F71836083F6
:10504000DF91CF911F910F91FF90EF90DF90089526
:10505000ED2DF0E0EE0FFF1FEE0FFF1FEE0FFF1F15
:10506000CF01880F991F880F991FE80FF91FE25B86
:10507000FB4F608171818D2D0E942A087B018C017C
:10508000CE010E942349A80197010E943A44AB0136
:10509000BC018D2D00E010E020E83FE30E94F011FC
:1050A00092CFED2DF0E0EE0FFF1FEE0FFF1FEE0F82
:1050B000FF1FCF01880F991F880F991FE80FF91F55
:1050C000E25BFB4F608171818D2D0E94AF087B01F7
:1050D0008C01CE010E942349A80197010E943A4405
:1050E000AB01BC018D2D00E010E020E83FE30E9401
:1050F000A91069CF20E030E080E090E0E091280343
:10510000F09129030190F081E02DE80FF91F108242
:1051100001968431910591F780E090E0E09144039D
:10512000F0914503E20FF31F0190F081E02DE80FAD
:10513000F91F1082E0914603F0914703E20FF31F3D
:105140000190F081E02DE80FF91F1082019689305F
:10515000910521F780E090E0E0914803F091490348
:10516000E20FF31F0190F081E02DE80FF91F10828C
:10517000E0914A03F0914B03E20FF31F0190F0819D
:10518000E02DE80FF91F108201968131910521F77A
:10519000E0914C03F0914D0380E4DF01982F1D92C4
:1051A0009A95E9F7E0914504F0914604DF01982FC4
:1051B0001D929A95E9F7E091EE04F091EF04DF017A
:1051C0001D928A95E9F7E0914904F0914A0488E23A
:1051D000DF011D928A95E9F70895F8948091EE0415
:1051E0009091EF0420914C0330914D03DC01F901C3
:1051F00080E401900D928150E1F781E08093F0040A
:10520000E0914C03F0914D0380E4DF011D928A95FB
:10521000E9F710924F0310924E03789408950E947C
:10522000260A60914B0470914C0442E00E94494070
:10523000E0914B04F0914C04A0914B04B0914C04CC
:10524000708160E011962C9130E0622B732B729587
:1052500062956F7067277F70672770E080E090E04D
:105260000E943C4526E636E64AE952E40E94A34401
:10527000089560E070E04AE050E00E94F447643036
:1052800078F5862F0E940F2920914504309146041D
:10529000ADB7BEB718970FB6F894BEBF0FBEADBF7F
:1052A000EDB7FEB7319612963C932E9311972FE1EE
:1052B00031E03383228364837583868397830E94DE
:1052C000B24A4DB75EB7485F5F4F0FB6F8945EBF06
:1052D0000FBE4DBF2091450430914604C901089589
:1052E000809145049091460400D000D000D0EDB7E5
:1052F000FEB73196ADB7BEB712969C938E931197B9
:1053000080E091E093838283648315820E94B24A95
:105310004DB75EB74A5F5F4F0FB6F8945EBF0FBEE2
:105320004DBF2091450430914604C9010895DF9294
:10533000EF92FF920F931F93D82E7A018B01CB012E
:10534000BA0120E030E040E050E00E949F44882312
:1053500034F1C801B70120E030E040E250E40E949F
:1053600041461816FCF40CE010E18D2D0E94260A2F
:10537000E0914B04F0914C040083E0914B04F091D8
:105380004C04118360914B0470914C0442E00E94E4
:105390001C401F910F91FF90EF90DF90089500E067
:1053A00010E0E3CFC801B70126E636E64AE952E449
:1053B0000E9445460E9479450E941045062F02959D
:1053C0000F70162F1295107FD0CF1F93CF93DF93BE
:1053D000EB0160E070E04AE050E00E94F447162FD5
:1053E0006430A0F5CE010E942349E12FF0E0EE0FDA
:1053F000FF1FEE0FFF1FEE0FFF1F9F01220F331F36
:10540000220F331FE20FF31FE25BFB4F63A374A372
:1054100085A396A3E12FF0E0EE0FFF1FEE0FFF1F15
:10542000EE0FFF1FCF01880F991F880F991FE80FFC
:10543000F91FE25BFB4F43A154A165A176A1812F27
:105440000E949729DF91CF911F9108958091450483
:105450009091460400D000D000D0EDB7FEB7319651
:10546000ADB7BEB712969C938E93119780E091E0F2
:1054700093838283148315820E94B24A80914504EB
:10548000909146042DB73EB72A5F3F4F0FB6F89470
:105490003EBF0FBE2DBF0E945722DF91CF911F91BB
:1054A00008950E94260AE0914B04F0914C0410826A
:1054B000E0914B04F0914C04118260914B04709187
:1054C0004C0442E00E941C400895F894E0914B0483
:1054D000F0914C046083E0914B04F0914C044183C3
:1054E00060914B0470914C0442E00E941C407894FF
:1054F00008950F931F93182FF894E0914B04F091A7
:105500004C048AE08083E0914B04F0914C0480E2EB
:10551000818360914B0470914C04812F42E00E9482
:105520001C40E0914B04F0914C041082E0914B043C
:10553000F0914C04118260914B0470914C04812FC6
:1055400042E00E941C40E0914B04F0914C0481E049
:105550008083E0914B04F0914C048FEF8183609144
:105560004B0470914C04812F42E00E941C40E0915A
:105570004B04F0914C0485E08083E0914B04F09162
:105580004C048DE1818360914B0470914C04812F18
:1055900042E00E941C40E0914B04F0914C0487E0F3
:1055A0008083E0914B04F0914C0403E0018360910F
:1055B0004B0470914C04812F42E00E941C40E0910A
:1055C0004B04F0914C0489E08083E0914B04F0910E
:1055D0004C04018360914B0470914C04812F42E094
:1055E0000E941C40E0914B04F0914C0482E18083C6
:1055F000E0914B04F0914C0488E7818360914B0467
:1056000070914C04812F42E00E941C4078941F91BD
:105610000F9108950F931F93082F162FF8940E944F
:10562000EE3F0E941840802F0E94FA3F0E941840CF
:10563000812F0E94FA3F0E9418400E94EE3F0E9474
:105640001840802F81600E94FA3F0E9418400E94FB
:105650000E40182F0E9418400E94F63F7894812F28
:105660001F910F9108951F920F920FB60F920BB6D4
:105670000F9211242F933F934F935F936F937F93D8
:105680008F939F93AF93BF93EF93FF9380E468E072
:105690000E940A2B982F80913C03882329F4909331
:1056A0003A0381E080933C03FF91EF91BF91AF916A
:1056B0009F918F917F916F915F914F913F912F912A
:1056C0000F900BBE0F900FBE0F901F90189588B1D2
:1056D000886388B980E465E042E20E94652A80E43C
:1056E00060E04FEF0E94652A80E461E04FEF0E9486
:1056F000652A80E462E048EF0E94652A80E463E066
:1057000043E00E94652A80E464E040E00E94652A4C
:1057100080E466E04FEF0E94652A80E469E00E9421
:105720000A2BE9E6F0E0808183608083E89A84B503
:10573000826084BD88E287BDEEE6F0E08081826011
:10574000808316BC85B5856085BD08951F93162F8F
:105750000E94140A63E10E940A2B21E030E002C09B
:10576000220F331F1A95E2F7822309F081E01F917F
:1057700008951F9360E070E04AE050E00E94F44713
:10578000162F643020F5862F65E00E94A62B882313
:1057900079F4E0914504F091460481E390E091832F
:1057A00080832091450430914604C9011F910895DA
:1057B000812F66E00E94A62B882359F3E0914504CF
:1057C000F091460480E390E091838083EACF80915A
:1057D00045049091460400D000D000D0EDB7FEB74C
:1057E0003196ADB7BEB712969C938E93119780E019
:1057F00091E093838283148315820E94B24A8DB70D
:105800009EB706960FB6F8949EBF0FBE8DBF20912F
:10581000450430914604C9011F9108951F930E94C9
:10582000140A182F62E10E940A2B482F4062812F30
:1058300062E10E94652A80E197E20197F1F71F91EA
:1058400008951F930E94140A182F62E10E940A2BE8
:10585000482F4F7D812F62E10E94652A1F91089594
:105860000F931F930E94140A082F62E10E940A2BD3
:10587000182F1F7B802F62E1412F0E94652A106440
:10588000802F62E1412F0E94652A1F910F91089598
:105890002F923F924F925F926F927F928F929F9240
:1058A000BF92CF92DF92EF92FF920F931F93CF930D
:1058B000DF93B82E882E99242401440C551C440CE7
:1058C000551CF201E80DF91DEF5CFB4F8481882324
:1058D00009F0C8C08091B100887F8093B100340185
:1058E000660C771C660C771C660C771C8301000F16
:1058F000111F000F111F060D171D025B1B4FF80132
:10590000268C378C618972898389948925853685AF
:1059100047855089C588D688E788F08C0E9445461F
:10592000A70196010E9445466B017C0181E090E051
:10593000F801978F868F05C08B2D68E37FEF0E945B
:1059400038068B2D64E00E94A62B8823A9F7C70197
:10595000B6010E94A8460E9410458B01C0E0D0E02D
:105960000CC08B2D61E070E00E9438068B2D64E046
:105970000E94A62B882321F42196C017D10788F313
:10598000C701B60120E030E040E85EE30E944546F2
:105990000E94A8460E940B459B01AC018B2DB901CA
:1059A0000E943806C701B60120E030E040E45FE322
:1059B0000E9445460E94A8460E940B459B01AC01EF
:1059C000285C30408B2DB9010E943806F301EE0FA0
:1059D000FF1FEE0FFF1FE60DF71DE25BFB4F85E09B
:1059E00090E0978F868F05C08B2D61E070E00E945C
:1059F00038068B2D64E00E94A62B8823A9F383012F
:105A0000000F111F000F111F060D171D025B1B4F0A
:105A1000F801378E268E880C991C860C971C880CF2
:105A2000991C880C991C82E594E0880E991EF4015B
:105A3000608171818B2D0E943806F80111821082DD
:105A4000F201EE0FFF1FEE0FFF1FE40DF51DEE0F2D
:105A5000FF1FE05BFB4F118210828B2D0E94302CC8
:105A60000E942306DF91CF911F910F91FF90EF903D
:105A7000DF90CF90BF909F908F907F906F905F90BE
:105A80004F903F902F900895FF920F931F93F62E03
:105A90000E94140A182F62E10E940A2B082F812FFE
:105AA00060E00E940A2B91E0F916A9F092E0F91645
:105AB000B9F00F7E3FEEF32EF822812F62E1402FE6
:105AC0000E94652A812F60E04F2D0E94652A1F9158
:105AD0000F91FF90089500615FEEF52EF822EDCF53
