:100000000C94B6020C94D3020C94D3020C94D30239
:100010000C94D3020C94D3020C94D3020C94D3020C
:100020000C94D3020C94E11A0C94D3020C94D302D6
:100030000C94D3020C94D3020C94D3020C94D302EC
:100040000C94831A0C94D3020C94D3020C94D30214
:100050000C942C1A0C94D3020C94D3020C94D3025B
:100060000C94D3020C94D3020C94D3020C94D302BC
:10007000300B650BE90B350C720CB30C1B0DE60C49
:100080005C0DAA0AE70AA410161016109B10911016
:1000900087107D10731016101610161016101610FB
:1000A0001610161016101610161016101610161020
:1000B0001610161016101610161016101610161010
:1000C0001610161016101610161016101610161000
:1000D000161016101610161016101610FC0FCD1153
:1000E000A711731138112411D910D610D310AB10E9
:1000F000161270217C218D22752268225B225022EB
:10010000452238223522322227221C2211220622A1
:10011000FB21F021E521DA21CF21C421B921AE2133
:10012000A121762180216E616E00696E6600520207
:10013000380223020902F101D801BF01A0018401A4
:100140006301440147010A53657420636F6E737441
:10015000616E740A616E67756C617220737065659B
:10016000640000660109446566696E65206F7074FD
:100170006963616C0A7A65726F20706F7369746964
:100180006F6E00008701084C6F6164206C617374AE
:100190000A636F6E66696775726174696F6E0000DD
:1001A000A30107536176652063757272656E740AE8
:1001B000636F6E66696775726174696F6E0000C205
:1001C00001064368616E6765206D6F746F720A7314
:1001D0007562737465700000DB010552756E207ADC
:1001E00065726F0A63616C6962726174696F6E0037
:1001F00000F4010453657420737465700A6D756CA6
:100200007469706C69657200000C02034368616E6A
:10021000676520737465700A776169742074696D0D
:100220006500002602024368616E6765207374658D
:10023000700A756E697400003B02014368616E6765
:1002400065206D6F746F720A706F736974696F6E79
:1002500000005502004D6F746F722044726976651C
:10026000720A20000010040604FB03F103E403D724
:1002700003CA03BE03B203A403960388037903668B
:1002800003530341032F031F030F03FE02ED02DCA0
:1002900002CB02B802A60299029D02009953544F64
:1002A00050414C4C0000AA020098464143544F5222
:1002B0005952455345540000BC02039753455443DB
:1002C0004F4E535453504545440000CF02029653BD
:1002D00045545741495454494D450000E0020195A9
:1002E0004745545741495454494D450000F10202D5
:1002F0009453455453554253544550530000020300
:1003000001934745545355425354455053000013ED
:1003100003029253455446554C4C524F540000230F
:1003200003019147455446554C4C524F54000033FD
:1003300003029053455447454152524154494F009E
:10034000004503018F4745544745415252415449A6
:100350004F00005703028E5345544F50545A455294
:100360004F504F5300006A03018D4745544F50547E
:100370005A45524F504F5300007D03018C4745545E
:10038000414E414C4F4700008C03018B49534D4F68
:1003900056494E4700009A03008A4C4F4144434F50
:1003A0004E460000A803008953415645434F4E4630
:1003B0000000B6030288474554504F530000C20363
:1003C0000287454E41424C450000CE0301865A4506
:1003D000524F52554E0000DB0303854D4F56455298
:1003E000454C0000E80303844D4F564541425300FD
:1003F00000F50301832A49444E0000FF0300822ACE
:1004000049444E3F00000A0400812A525354000020
:1004100014040080000000000000FFFF0000000046
:1004200000000000010001000000000000000000CA
:10043000FFFF0000000000407A10F35A00A0724E47
:1004400018090010A5D4E80000E87648170000E479
:100450000B54020000CA9A3B000000E1F5050000C1
:1004600080969800000040420F000000A086010026
:100470000000102700000000E803000000006400F6
:10048000000000000A000000000001000000000061
:100490002C76D888DC674F0823DFC1DFAE59E1B185
:1004A000B796E5E3E453C63AE651997696E8E6C294
:1004B0008426EB898C9B62ED407C6FFCEFBC9C9F9B
:1004C00040F2BAA56FA5F490055A2AF75C936B6CBD
:1004D000F9676DC11BFCE0E40D47FEF520E6B500B1
:1004E000D0ED902E0300943577050080841E08001F
:1004F00000204E0A000000C80C333333330F986ECF
:1005000012831141EF8D2114893BE65516CFFEE68B
:10051000DB18D1844B381BF77C1D901DA4BBE42451
:10052000203284725E228100C9F124ECA1E53D27CE
:100530004E414E494E495459494E46CDCCCC3D0AC8
:10054000D7233C17B7D13877CC2B329595E6241FAB
:10055000B14F0A000020410000C84200401C462064
:10056000BCBE4CCA1B0E5AAEC59D740011241FBEE2
:10057000CFEFD0E1DEBFCDBF12E0A0E0B1E0E4EC10
:10058000F7E502C005900D92A036B107D9F713E048
:10059000A0E6B2E001C01D92AB31B107E1F70E94C5
:1005A0002C200C94E02B0C9400009BB19F709BB905
:1005B0009BB1807F892B8BB95B9A85E88A95F1F78F
:1005C00000005B980895CF93DF93E8B190E0AC0111
:1005D000440F551F4F5F5F4F21E030E0042E01C0F4
:1005E000220F0A94EAF777FD42C020952E2328B9FE
:1005F00077FD41C061157105B9F1AC01440F551F7C
:1006000021E030E001C0220F4A95EAF7B22FA22F75
:10061000A09540E050E023E2289FF001299FF00DD3
:100620001124EB55FD4F88B18B2B88B98DE08A954D
:10063000F1F7000088B18A2388B980819181892BE4
:1006400071F080E090E0C7E8D3E12197F1F700C0B6
:10065000000001962081318182179307A0F34F5F3C
:100660005F4F46175707F9F6DF91CF910895E22BB8
:10067000E8B977FFBFCF719561957109BBCF8091C4
:100680006602809587FD04C086FF04C086E0089559
:1006900087E0089585FF02C085E0089584FF02C0C9
:1006A00084E0089583FF02C083E0089580FD02C0C6
:1006B0008AE2089580E008956F927F928F929F92D0
:1006C000AF92BF92CF92DF92EF92FF920F931F9360
:1006D000CF93DF9320E030E043E2642E55E5852E92
:1006E000982CA82C50E4B52EC12CD12C68ECE62E09
:1006F00063E4F62E40E050E060E870E480E090E0D3
:10070000A0E8BFE37724739403E010E0629EF00159
:10071000639EF00D1124E957FD4F11821082138260
:100720001282158214821682178210861186128612
:100730001386148685869686A786B08AC18AD28A51
:10074000E38AF48A458B568B678B708F828F938FE9
:10075000A48FB58F718E178F068FC68DD78DD1A3BD
:10076000C0A312A22F5F3F4F2430310579F6E091EC
:100770007702F091780280E390E091838083109279
:100780007A0210927902E0918102F09182029183C3
:1007900080831092840210928302109213031092AD
:1007A000140310927C0210927B0288E080937D02F9
:1007B000109269028AE280936A0292E090936B023F
:1007C00010926C0280936D0210926E02109266027B
:1007D000109267021092680210927E0210927F02BD
:1007E00010928002DF91CF911F910F91FF90EF90B7
:1007F000DF90CF90BF90AF909F908F907F906F9041
:1008000008951092C50085E18093C400E1ECF0E00A
:10081000808188698083089580E480937C0083E8E8
:1008200080937A0080917A00806480937A0080912E
:100830007A0086FDFCCF8091780090917900089530
:100840009091C00095FFFCCF8093C6000895FC01F5
:100850002081222351F031968091C00085FFFCCF8A
:100860002093C60021912111F7CF8091C00085FF10
:10087000FCCF8AE08093C600089591B1482F50E0E4
:10088000FA01349621E030E00E2E01C0220F0A94C6
:10089000EAF7922B91B900006130D9F092B1922B16
:1008A00092B993E2949FF001959FF00D1124E957BE
:1008B000FD4F138697B141E050E001C0440F8A9587
:1008C000EAF74095492347B987B12095282327B9EE
:1008D000089532B1922F9095932392B993E2949F09
:1008E000F001959FF00D1124E957FD4F638797B1F3
:1008F00041E050E001C0440F8A95EAF7942B97B984
:1009000087B1822B87B9089560E080E00E943D04A2
:1009100060E081E00E943D0460E082E00E943D04CE
:1009200060E083E00E943D0415BC1092B100089580
:10093000E0EBF0E080818260808383E78093B30006
:10094000E0E7F0E08081826080831092B200E1EB0A
:10095000F0E080818560808308956115710511F054
:100960000C94E302089593E2899FF0011124E95762
:10097000FD4F80819181860F911D67FD9A9593832C
:1009800082838281938195838483089590917C00F2
:100990008F71907E892B80937C0010927C02109244
:1009A0007B0280917D02882321F140E080917A00D2
:1009B000806480937A0080917A0086FF05C00000F1
:1009C00080917A0086FDFBCF80917800509179006C
:1009D00020917B0230917C0290E0952B820F931F37
:1009E00090937C0280937B024F5F80917D02481739
:1009F000E8F280917B0290917C0260917D0270E030
:100A00000E949E22CB0108956F927F929F92AF9297
:100A1000BF92CF92DF92EF92FF920F931F93CF93EB
:100A2000DF93982E8091B100887F8093B100C92D0B
:100A3000D0E083E2989E50011124F501E957FD4F63
:100A40005F01068D178D6189728983899489258557
:100A5000368547855089C588D688E788F08C0E94FE
:100A6000BB24A70196010E94BB246B017C0181E09D
:100A700090E0F501978F868F05C068E37FEF892DA1
:100A80000E94E302892D0E94C604C297B0F3C701F9
:100A9000B6010E941E250E94D9235B01612C712C96
:100AA0000DC061E070E0892D0E94E302892D0E9453
:100AB000C604C29730F0FFEF6F1A7F0A6A147B04F6
:100AC00081F720E030E040E85EE3C701B6010E9414
:100AD000BB240E941E250E94D4236115710509F0D4
:100AE0006DC020E030E040E45FE3C701B6010E9442
:100AF000BB240E941E250E94D423685C71096115E5
:100B0000710509F057C083E28C9FF0018D9FF00DB5
:100B10001124E957FD4F85E090E0978F868F05C03F
:100B200061E070E0892D0E94E302892D0E94C604D5
:100B3000C397B0F783E28C9FF0018D9FF00D1124D5
:100B4000E957FD4F178F068F648175816115710517
:100B500019F0892D0E94E30283E28C9FF0018D9FA2
:100B6000F00D1124E957FD4F118210821382128279
:100B70008091B00082608093B00083E78093B300DF
:100B8000809170008260809370001092B20080911A
:100B9000B10085608093B100DF91CF911F910F91DB
:100BA000FF90EF90DF90CF90BF90AF909F907F909D
:100BB0006F900895892D0E94E302A5CF892D0E9490
:100BC000E3028FCFCF92DF92EF92FF920F931F93AA
:100BD000CF93DF93F894CBE8D2E078E0C72E70E0B3
:100BE000D72E00E010E0E12CF12CB701645B7F4FC1
:100BF00042E050E0CE010E94F029B801645C7F4FD2
:100C000044E050E0CE0109960E94F029B801645DED
:100C10007F4F44E050E0CE010D960E94F029B801CC
:100C2000645E7F4F44E050E0CE0141960E94F0297F
:100C3000B801645F7F4F44E050E0CE0146960E94C9
:100C4000F02941E050E0B601CE0145960E94F0291E
:100C5000B7016050704042E050E0CE014A960E94D9
:100C6000F029A39682E0E80EF11C0C5F1F4F8FEF76
:100C7000C81AD80A88E0E816F10409F0B6CF7894CB
:100C8000DF91CF911F910F91FF90EF90DF90CF9068
:100C90000895CF92DF92EF92FF920F931F93CF931D
:100CA000DF93F894CBE8D2E0E8E0CE2EE0E0DE2E51
:100CB00000E010E0E12CF12CB701645B7F4F42E0D3
:100CC00050E0CE010E94E029B801645C7F4F44E00F
:100CD00050E0CE0109960E94E029B801645D7F4F83
:100CE00044E050E0CE010D960E94E029B801645E18
:100CF0007F4F44E050E0CE0141960E94E029B801C8
:100D0000645F7F4F44E050E0CE0146960E94E029A8
:100D100041E050E0B601CE0145960E94E029B701BE
:100D20006050704042E050E0CE014A960E94E029B7
:100D3000A39682E0E80EF11C0C5F1F4F8FEFC81ADC
:100D4000D80A88E0E816F10409F0B6CF7894DF916C
:100D5000CF911F910F91FF90EF90DF90CF9008956A
:100D6000CF93C82F5A9A0E94D5028C2F8295807FEC
:100D70000E94D50285EE90E00197F1F700C00000D7
:100D8000CF910895CF93C82F5A980E94D5028C2FE7
:100D90008295807F0E94D50281ED90E00197F1F766
:100DA00000C00000CF9108958AB18C6F8AB98BB1D1
:100DB00083708BB92FE58AEE90E0215080409040FF
:100DC000E1F700C0000080E30E94D50287EA91E6C7
:100DD0000197F1F700C000005B9A95E89A95F1F74A
:100DE00000005B9887E893E10197F1F700C00000ED
:100DF0005B9A95E89A95F1F700005B9887E893E194
:100E00000197F1F700C0000080E20E94D50287EA56
:100E100091E60197F1F700C0000088E20E94C20647
:100E20008CE00E94C20686E00E94C20681E00E9419
:100E3000C2068FE097E20197F1F700C00000089525
:100E400081E00E94C2068FE097E20197F1F700C0AF
:100E50000000089582E00E94C2068FE097E20197A9
:100E6000F1F700C000000895623081F050F0633067
:100E700029F0643071F480530C94C20680570C94AE
:100E8000C206613039F480580C94C20680540C9428
:100E9000C20608950895CF93DF93EC0188818823DB
:100EA00031F021960E94B00689918111FBCFDF912C
:100EB000CF910895EF92FF921F93CF93DF9300D0CD
:100EC000CDB7DEB728E0829FC0011124806469831A
:100ED0007A830E94C2066981E62E7A81F72E18E095
:100EE000F70181917F010E94B0061150C9F70F9060
:100EF0000F90DF91CF911F91FF90EF9008954F9247
:100F00005F926F927F928F929F92AF92BF92CF9299
:100F1000DF92EF92FF920F931F93CF93DF9300D056
:100F200000D0CDB7DEB7F82ECB01BA01A9019801E8
:100F30000E94BB244B015C0183E2F89E80011124D6
:100F400009571D4FD80151966D917D918D919C91BE
:100F500054971D962D913D914D915C9150975596CA
:100F6000CD90DD90ED90FC9058970E94BB24A70196
:100F700096010E94BB2420E030E044EB53E40E9441
:100F80006C239B01AC01C501B4010E94BB240E94EB
:100F90001E256B017C01F801628073800E94D423BE
:100FA000660D771DD80113967C936E931297169653
:100FB0008D919D910D90BC91A02D89839A83AB83D7
:100FC000BC83F80161897289838994892585368576
:100FD00047855089458856886788708C0E94BB2455
:100FE000A30192010E94BB2420E030E044EB53E4D3
:100FF0000E946C239B01AC01C501B4010E94BB247B
:10100000A70196010E9403239B01AC0169817A81AB
:101010008B819C810E940423D80116966D937D9349
:101020008D939C9319970F900F900F900F90DF91D5
:10103000CF911F910F91FF90EF90DF90CF90BF90D5
:10104000AF909F908F907F906F905F904F9008959A
:101050004F925F926F927F928F929F92AF92BF92C8
:10106000CF92DF92EF92FF92CF93DF9300D000D028
:10107000CDB7DEB793E2899FF0011124E957FD4F08
:101080004584568467847088258936894789508DC0
:1010900081889288A388B488882777FD8095982FC7
:1010A00029833A834B835C830E9407246B017C0174
:1010B00029813A814B815C81C301B2010E94BB242A
:1010C000A50194010E94BB249B01AC0160E070E08B
:1010D00084EB93E40E946C239B01AC01C701B60131
:1010E0000E94BB240F900F900F900F90DF91CF9133
:1010F000FF90EF90DF90CF90BF90AF909F908F9038
:101100007F906F905F904F9008954F925F926F9293
:101110007F928F929F92AF92BF92CF92DF92EF9287
:10112000FF920F931F93CF93DF9300D000D0CDB7E2
:10113000DEB7F82ECB01BA01A90198010E94BB24A9
:101140004B015C0183E2F89E8001112409571D4F79
:10115000D80151966D917D918D919C9154971D96DA
:101160002D913D914D915C9150975596CD90DD908C
:10117000ED90FC9058970E94BB24A70196010E9415
:10118000BB2420E030E040E05FE30E94BB249B01F1
:10119000AC01C501B4010E94BB240E941E256B0155
:1011A0007C01F801628073800E94D423660D771D54
:1011B000D80113967C936E93129716968D919D91FC
:1011C0000D90BC91A02D89839A83AB83BC83F801D9
:1011D00061897289838994892585368547855089F7
:1011E000458856886788708C0E94BB24A3019201B1
:1011F0000E94BB2420E030E040E05FE30E94BB247B
:101200009B01AC01C501B4010E94BB24A70196015A
:101210000E9403239B01AC0169817A818B819C81AF
:101220000E940423D80116966D937D938D939C9311
:1012300019970F900F900F900F90DF91CF911F9102
:101240000F91FF90EF90DF90CF90BF90AF909F9065
:101250008F907F906F905F904F9008954F925F9224
:101260006F927F928F929F92AF92BF92CF92DF92B6
:10127000EF92FF92CF93DF9300D000D0CDB7DEB7CF
:1012800093E2899FF0011124E957FD4F458456846C
:1012900067847088258936894789508D818892882E
:1012A000A388B488882777FD8095982F29833A836F
:1012B0004B835C830E9407246B017C0129813A8166
:1012C0004B815C81C301B2010E94BB24A501940142
:1012D0000E94BB249B01AC0160E070E080E090E4E0
:1012E0000E946C239B01AC01C701B6010E94BB2484
:1012F0000F900F900F900F90DF91CF91FF90EF9094
:10130000DF90CF90BF90AF909F908F907F906F9025
:101310005F904F900895F894613029F1B8F06230F1
:1013200019F000007894089593E2899FF001112448
:10133000E957FD4F64878081918193838283828105
:1013400093810197938382837894089593E2899F90
:10135000F0011124E957FD4F148680819181938318
:1013600082837894089593E2899FF0011124E957CC
:10137000FD4F6487808191819383828382819381F1
:1013800001969383828378940895E82FF0E0EE0F1E
:10139000FF1FE25DFE4F85919491FC016591749170
:1013A00080918502909186020E94CD286AE871E0C2
:1013B00080918502909186020E94DF289093860298
:1013C00080938502E0917502F0917602BC018081E4
:1013D00091810E94ED2866E071E080E090E00E943B
:1013E000DF289093860280938502E0917502F09148
:1013F0007602BC01828193810E94ED2880E090E01A
:1014000030E2E0917502F0917602E80FF91FA081B9
:10141000B181FD0101900020E9F731972E2F2A1BA1
:10142000203178F4E0917502F0917602E80FF91F0F
:101430000190F081E02DE20FF11D30832F5F20310C
:1014400089F7E0917502F0917602E80FF91F01909B
:10145000F081E02D108A02968430910591F608956E
:101460002F923F924F925F926F927F928F929F92B4
:10147000AF92BF92CF92DF92EF92FF920F931F93A2
:10148000CF93DF93CDB7DEB727970FB6F894DEBFC3
:101490000FBECDBFE82FF0E0EE0FFF1FE25DFE4F65
:1014A000859194910296FC01849190E08B30910596
:1014B00008F44BC0000080E090E030E2E09171025F
:1014C000F0917202E80FF91FA081B181FD01019036
:1014D0000020E9F731972E2F2A1B283078F4E0916D
:1014E0007102F0917202E80FF91F0190F081E02D76
:1014F000E20FF11D30832F5F283089F7E0917102F0
:10150000F0917202E80FF91F0190F081E02D108632
:1015100002968830910591F627960FB6F894DEBFB3
:101520000FBECDBFDF91CF911F910F91FF90EF9034
:10153000DF90CF90BF90AF909F908F907F906F90F3
:101540005F904F903F902F900895FC01E85CFF4F13
:101550000C94FD22C12CD12C33E2F32E0DE212E0CB
:1015600080916E0290E00C2C02C0959587950A94AC
:10157000E2F780FFBDC22EE7FC9CF001FD9CF00D60
:101580001124E957FD4F84819581E0917102F0911A
:1015900072029F938F931F922F931F930F93C601F5
:1015A000880F991FE80FF91F81818F9380818F9396
:1015B0000E9460292FEFC21AD20A0FB6F894DEBF3C
:1015C0000FBECDBF94E0C916D10451F674CFA12C43
:1015D000B12C412C512CB3E29B2E03E312E08AE3A1
:1015E000C82E82E0D82E9FE3E92E92E0F92E380132
:1015F00080916E0290E0042C02C0959587950A9424
:10160000E2F780FF73C21EE7949CF001959CF00DF9
:101610001124E957FD4F82A1882309F48FC2949CBD
:10162000F001959CF00D1124E957FD4F82A1813006
:1016300009F4FFC2949CF001959CF00D1124E95728
:10164000FD4F82A1823009F43DC3AFEF4A1A5A0A16
:10165000B2E0AB0EB11CE4E04E16510449F62BCFBC
:10166000E0917102F0917202A081B18189E0ECE811
:10167000F1E001900D928A95E1F7E0917102F0910D
:101680007202A281B38189E0E5E9F1E001900D9257
:101690008A95E1F7E0917102F0917202A481B5811F
:1016A00088E0EEE9F1E001900D928A95E1F7E09192
:1016B0007102F0917202A681B78185E0E8E0F1E065
:1016C00001900D928A95E1F7F6CE00E010E0212C12
:1016D000312C80916E0290E0022C02C09595879586
:1016E0000A94E2F780FFFFC1FEE7FF8343E2429DD9
:1016F000F001439DF00D1124E957FD4F818D81309C
:1017000009F450C208F431C2823009F057C0608138
:101710007181458456846784708825893689478914
:10172000508D81889288A388B488A0917102B0916D
:101730007202BA83A9831F92B7EFBF93882777FD00
:101740008095982F2E833B834C835D830E940724D2
:101750006B017C012E813B814C815D81C301B20113
:101760000E94BB24A50194010E94BB249B01AC01F3
:1017700060E070E080E090E40E946C239B01AC018B
:10178000C701B6010E94BB249F938F937F936F93F1
:101790001F92EF81EF93A6EBB1E0BF93AF93E98186
:1017A000FA81E00FF11F81818F9380818F930E94D6
:1017B00060290FB6F894DEBF0FBECDBF9FEF291A88
:1017C000390A0E5F1F4FA4E02A16310409F081CFB9
:1017D00072CE812C912C412C512C13E2712E0FEBE7
:1017E000E02E01E0F02E04EC11E089ECA82E81E05F
:1017F000B82E90EDC92E91E0D92E80916E0290E026
:10180000042C02C0959587950A94E2F780FF72C177
:101810002EE7749CF001759CF00D1124E957FD4FE3
:10182000818D882309F470C1749CF001759CF00DC2
:101830001124E957FD4F818D813009F429C2749C30
:10184000F001759CF00D1124E957FD4F818D823018
:1018500009F406C2BFEF4B1A5B0AE2E08E0E911C40
:10186000F4E04F16510449F626CEC12CD12CB3E238
:10187000FB2E07ED11E080916E0290E00C2C02C06F
:10188000959587950A94E2F780FF36C12EE7FC9C78
:10189000F001FD9CF00D1124E957FD4F868D978DC9
:1018A000E0917102F09172029F938F931F922F9398
:1018B0001F930F93C601880F991FE80FF91F8181AD
:1018C0008F9380818F930E9460292FEFC21AD20AD2
:1018D0000FB6F894DEBF0FBECDBF94E0C916D10499
:1018E00051F6E9CDC12CD12CE3E2FE2E0FED11E033
:1018F00080916E0290E00C2C02C0959587950A9419
:10190000E2F780FFFBC02EE7FC9CF001FD9CF00D90
:101910001124E957FD4F828D938DA48DB58DE091F3
:101920007102F0917202BF93AF939F938F931F92B6
:101930002F931F930F93C601880F991FE80FF91F6C
:1019400081818F9380818F930E946029AFEFCA1AA3
:10195000DA0A0FB6F894DEBF0FBECDBFF4E0CF16A3
:10196000D10431F6A8CDE12CF12C07EE11E08091E5
:101970006E02970190E00E2C02C0959587950A940F
:10198000E2F780FFBDC08EE7E0917102F091720234
:101990003F932F931F928F931F930F93C701880F2D
:1019A000991FE80FF91F81818F9380818F930E9487
:1019B00060292FEFE21AF20A0FB6F894DEBF0FBECD
:1019C000CDBF94E0E916F10491F675CDE091710276
:1019D000F0917202A081B18189E0E7EFF1E001901E
:1019E0000D928A95E1F7E0917102F0917202A28165
:1019F000B38189E0E0E0F2E001900D928A95E1F791
:101A0000E0917102F0917202A481B58189E0E9E070
:101A1000F2E001900D928A95E1F7E0917102F09168
:101A20007202A681B78189E0E2E1F2E001900D92B5
:101A30008A95E1F740CDC12CD12C53E2F52E00EF71
:101A400011E080916E0290E00C2C02C09595879574
:101A50000A94E2F780FF56C02EE7FC9CF001FD9C43
:101A6000F00D1124E957FD4F85899689A789B08D1E
:101A7000E0917102F0917202BF93AF939F938F93A5
:101A80001F922F931F930F93C601880F991FE80F82
:101A9000F91F81818F9380818F930E946029AFEF1E
:101AA000CA1ADA0A0FB6F894DEBF0FBECDBFF4E053
:101AB000CF16D10431F6FFCCE0917102F0917202A1
:101AC000A081B18189E0EBE1F2E001900D928A956D
:101AD000E1F7E0917102F0917202A281B38189E095
:101AE000E4E2F2E089CF20E22F8300CE10E28CCD39
:101AF00020E242CD20E28DCE20E2C9CE20E204CF0A
:101B000080E242CF20E2A9CFE0917102F09172020F
:101B1000FF92EF921F922F931F930F93E80DF91DE1
:101B200081818F9380818F932E830E9460290FB6CD
:101B3000F894DEBF0FBECDBF2E8176CEE09171024C
:101B4000F09172021F921F937F926F92EA0DFB1D1C
:101B500081818F9380818F930E9460290F900F90D5
:101B60000F900F900F900F905ACD80819181E0914E
:101B70007102F09172029F938F931F928F818F93C6
:101B8000A6EAB1E0BF93AF93E00FF11F81818F937D
:101B900080818F930E9460290FB6F894DEBF0FBE3C
:101BA000CDBF0CCE60817181458456846784708876
:101BB000258936894789508D81889288A388B48881
:101BC000A0917102B0917202BA83A9831F92BFEDF6
:101BD000BF93882777FD8095982F2E833B834C8376
:101BE0005D830E9407246B017C012E813B814C8127
:101BF0005D81C301B2010E94BB24A50194010E9432
:101C0000BB249B01AC0160E070E084EB93E40E9494
:101C10006C239B01AC01C701B6010E94BB249F93BA
:101C20008F937F936F931F92EF81EF93ADEAB1E0B3
:101C3000B4CDE0917102F09172021F921F93DF9276
:101C4000CF92EA0DFB1D81818F9380818F930E943B
:101C500060290F900F900F900F900F900F90EACC8B
:101C6000E0917102F0917202DF92CF921F922F9356
:101C70001F930F93E80DF91D81818F9380818F93BE
:101C80000E9460290FB6F894DEBF0FBECDBFE2CD33
:101C9000E0917102F0917202BF92AF921F922F9366
:101CA0001F930F93E80DF91D81818F9380818F938E
:101CB0002E830E9460290FB6F894DEBF0FBECDBF01
:101CC0002E81BDCDE0917102F09172021F921F939F
:101CD000FF92EF92EA0DFB1D81818F9380818F939C
:101CE0000E9460290F900F900F900F900F900F900F
:101CF000ACCCCF93DF9380916D02823009F483C026
:101D0000833051F0813041F0000080916B0280936C
:101D10006D02DF91CF91089580916A020E94300A8E
:101D2000A0917102B0917202E0916F02F091700285
:101D30006D917C91808191810E94E428892B09F02A
:101D400016C1A0917102B0917202E0916F02F09100
:101D5000700212966D917C911397828193810E94FB
:101D6000E428892B09F0E0C0A0917102B0917202C1
:101D7000E0916F02F091700214966D917C9115972D
:101D8000848195810E94E428892B09F0AAC0A09142
:101D90007102B0917202E0916F02F091700216969A
:101DA0006D917C911797868197810E94E428892BF9
:101DB00009F4ABCF88EC0E94C206E0917102F09169
:101DC0007202C681D7818881882331F021960E94D2
:101DD000B00689918111FBCFA0917102B09172027E
:101DE000E0916F02F091700216966D917C911797B9
:101DF000868197810E94ED2880916B0280936D020D
:101E0000DF91CF91089590916A02809169029817AD
:101E100009F47BCF809169020E94C50980E80E9485
:101E2000C206E0917502F0917602C081D18188816D
:101E3000882331F021960E94B00689918111FBCF51
:101E4000A0917502B0917602E0917302F091740254
:101E50006D917C91808191810E94ED2880EC0E949F
:101E6000C206E0917502F0917602C281D381888129
:101E7000882331F021960E94B00689918111FBCF11
:101E8000A0917502B0917602E0917302F091740214
:101E900012966D917C911397828193810E94ED2817
:101EA0008091690280936A0280E090E028E0E091EE
:101EB0006F02F0917002E80FF91FA081B181E5E493
:101EC000F2E0322F01900D923A95E1F702968A30B6
:101ED000910569F780916B0280936D02DF91CF913C
:101EE000089580EC0E94C206E0917102F0917202A6
:101EF000C481D5818881882331F021960E94B00663
:101F000089918111FBCFA0917102B0917202E09191
:101F10006F02F091700214966D917C9115978481F7
:101F200095810E94ED2833CF88E80E94C206E09197
:101F30007102F0917202C281D3818881882331F0CD
:101F400021960E94B00689918111FBCFA091710268
:101F5000B0917202E0916F02F091700212966D9151
:101F60007C911397828193810E94ED28FDCE80E8B9
:101F70000E94C206E0917102F0917202C081D1818B
:101F80008881882331F021960E94B00689918111C1
:101F9000FBCFA0917102B0917202E0916F02F091BB
:101FA00070026D917C91808191810E94ED28C9CE53
:101FB0003F924F925F926F927F928F929F92AF92D9
:101FC000BF92CF92DF92EF92FF920F931F93CF9326
:101FD000DF9380916802811104C080918002882380
:101FE00079F020916A02C0916D02C23009F43FC0BD
:101FF0008C2F8D7F8130B1F0109268021092800298
:10200000DF91CF911F910F91FF90EF90DF90CF90D4
:10201000BF90AF909F908F907F906F905F904F9008
:102020003F9008958091680281114AC00000C3303A
:1020300019F7809180028823F9F2F89420917F02A9
:1020400010927F0278942223B9F2E0916A02F0E0C4
:10205000EE0FFF1FE25DFE4F859194910296FC0109
:10206000849190E08B309105C8F10000C5CF80913C
:10207000800281111BC080E090E0820F911D27FD3E
:102080009A956BE070E00E94B22287FD25C0809394
:10209000690280916802882309F4AECF0E943F0351
:1020A0008111AACF81E080936B02A6CFF894809132
:1020B0007F0210927F027894992787FD9095DDCF5B
:1020C0000E943F0390E08B32910508F0AFCFFC01F6
:1020D000ED5BFF4F0C94FD228AE0D9CFFC01E25961
:1020E000FF4F0C94FD2280916E0291E0892780932E
:1020F0006E0283E080936B029ACF80916E0292E031
:10210000892780936E0283E080936B0290CF809149
:102110006E0294E0892780936E0283E080936B02C5
:1021200086CF80916E0298E0892780936E0283E0CB
:1021300080936B027CCF82E080936B0280916A0275
:102140008F5F80936A0273CF80916C0291E0892740
:1021500080936C026CCF80E090E043E2822E992461
:1021600087FC909420916E0230E0082E02C03595D5
:1021700027950A94E2F720FF11C0489FF001499F7C
:10218000F00D1124E957FD4F20813181280D391DB3
:1021900033832283228133813583248301968430E3
:1021A000910501F729CF0E94490626CF0E94E2053A
:1021B00023CFC0E0D0E043E2742E822E992487FC26
:1021C0009094A92CB92C80916E0290E00C2E02C044
:1021D000959587950A94E2F780FF30C07C9E800138
:1021E0007D9E100D112409571D4FF801C588D68812
:1021F000E788F08CC501B4010E9407249B01AC0163
:10220000C701B6010E940423F801658B768B878B8A
:10221000908F00007C9E80017D9E100D1124095737
:102220001D4FF801658976898789908D20E030E01F
:1022300040E85FE30E94682387FD3BC12196C430DC
:10224000D10509F0C0CFD8CEC0E0D0E001E010E069
:1022500080916E0290E00C2E02C0959587950A94AD
:10226000E2F780FD15C12196C430D10589F7C4CEAF
:10227000C0E0D0E053E2752E822E992487FC909422
:10228000A92CB92C80916E0290E00C2E02C095957D
:1022900087950A94E2F780FF21C07C9E80017D9E95
:1022A000100D112409571D4FF801C28CD38CE48CFA
:1022B000F58CC501B4010E94072420E030E040E223
:1022C00051E40E946C239B01AC01C701B6010E943E
:1022D0000423F801628F738F848F958F2196C43009
:1022E000D10581F689CE80E090E063E2822E9924C8
:1022F00087FC909441E050E020916E0230E0082E7F
:1023000002C0359527950A94E2F720FF1BC0689F0D
:10231000F001699FF00D1124E957FD4F268D378D8F
:10232000280D391D378F268F0000689FF001699FA7
:10233000F00D1124E957FD4F268D378D232B11F415
:10234000578F468F019684309105B1F655CE80E0C7
:1023500090E043E262E051E020916E0230E0082E0E
:1023600002C0359527950A94E2F720FF11C0489FD7
:10237000F001499FF00D1124E957FD4F218D2130C7
:1023800009F4A3C008F49FC0223009F0C5C0118E23
:1023900001968430910501F72FCEE22EFF24E7FC51
:1023A000F094F4E62F02E0011124C12CD12C63E259
:1023B000362E822E992487FC9094A92CB92C8091DA
:1023C0006E0290E00C2C02C0959587950A94E2F776
:1023D00080FF24C03C9CF0013D9CF00D1124E95786
:1023E000FD4F818D813009F47DC008F470C08230CA
:1023F000A9F4428C538C648C758CC501B4010E9485
:10240000072420E030E040E05EE30E94BB24AB0103
:10241000BC01930182018C2D0E9485082FEFC21A06
:10242000D20A34E0C316D10451F6E6CDC0E0D0E0C4
:1024300013E232E0F32E01E08C2F20916E0230E0A7
:102440000C2E02C0359527950A94E2F720FF1BC099
:102450001C9FF0011D9FF00D1124E957FD4F92A123
:10246000913009F45DC008F459C0923009F05AC0A7
:1024700012A21C9FF0011D9FF00D1124E957FD4F82
:1024800062A10E948B092196C430D105A9F6B4CD72
:102490008C2F0E94040520916E02C8010C2E01C0F1
:1024A000880F0A94EAF7282720936E020E94790E7B
:1024B000DACE80E090E0A0E8BFE3F801858B968B50
:1024C000A78BB08FBBCE518F63CF618F61CF8091CF
:1024D0006C02882349F1828193818C0F9D1F938325
:1024E00082839CCF80916C02428C538C648C758C5F
:1024F000882309F1C501B4010E94072420E030E0DF
:1025000040E251E40E94BB24AB01BC019301820173
:102510008C2D0E947F0782CF00003ACF02A3A9CF63
:10252000F2A2A7CF0000A5CF828193818E0D9F1DBF
:102530009383828373CFC501B4010E940724AB014A
:10254000BC01930182018C2D0E947F0767CF14B8D4
:102550008FEF85B984B5826084BD88EC87BDEEE6D7
:10256000F0E080818260808316BC85B5856085BD82
:10257000089580916802811102C08AE208950C9446
:102580003F0380918002882339F0F89480917F0284
:1025900010927F027894089580E00895EF92FF9260
:1025A0000F931F93CF93DF9320E030E080E090E023
:1025B000E0916002F0916102E20FF31F0190F0815F
:1025C000E02DE80FF91F108201968431910581F703
:1025D0002E5F3F4F2C30310549F7809179028111F0
:1025E0000AC0E0E8FE2E8F2DDF91CF911F910F9151
:1025F000FF90EF90089580917702909178026DE4BA
:1026000072E00E94DF289093780280937702C5E6FB
:10261000D2E0E12CA0E8FA2EFE0105911491F80118
:102620006591749180917702909178020E94C428FC
:10263000892B31F4F8013396F490F8013296E49046
:10264000229682E0C939D80739F71E1424F5C1E073
:102650006DE472E080E090E00E94DF2890937802C1
:102660008093770260917702709178022C2F332744
:1026700027FD309521503048220F331FA091600272
:10268000B0916102A20FB31F8D919C910E94ED2821
:10269000CF5FEC16ECF6E0917702F091780280E3E0
:1026A00090E09183808310927A02109279028F2DAC
:1026B000DF91CF911F910F91FF90EF9008952F928E
:1026C0003F924F925F926F927F928F929F92AF92C2
:1026D000BF92CF92DF92EF92FF920F931F93CF930F
:1026E000DF93CDB7DEB727970FB6F894DEBF0FBEE6
:1026F000CDBF1B015F834E834AE050E060E070E095
:102700000E948E2669836430D0F462E572E08E8187
:102710009F810E94E428892B09F4DCC068E572E0FF
:102720008E819F810E94E428892B09F475C06CE595
:1027300072E08E819F810E94E428892BC9F0279640
:102740000FB6F894DEBF0FBECDBFDF91CF911F91C2
:102750000F91FF90EF90DF90CF90BF90AF909F9040
:102760008F907F906F905F904F903F902F90089543
:102770008981B3E28B9FF0011124E957FD4F6081FD
:102780007181458456846784708825893689478994
:10279000508D81889288A388B488882777FD80959A
:1027A000982F2A833B834C835D830E9407246B010F
:1027B0007C012A813B814C815D81C301B2010E9471
:1027C000BB24A50194010E94BB249B01AC0160E0E5
:1027D00070E080E090E40E946C239B01AC01C70193
:1027E000B6010E94BB249B01AC01C1012A833B833B
:1027F0004C835D830E94C2272A813B814C815D818D
:102800000E940323AB01BC0100E010E020E83FE39D
:1028100089810E94850893CFA98193E2A99FF00145
:102820001124E957FD4F8081918145845684678446
:102830007088258936894789508D81889288A38838
:10284000B488BC01882777FD8095982F2A833B8325
:102850004C835D830E9407246B017C012A813B81AC
:102860004C815D81C301B2010E94BB24A50194018A
:102870000E94BB249B01AC0160E070E084EB93E418
:102880000E946C239B01AC01C701B6010E94BB24CE
:102890009B01AC01C1012A833B834C835D830E9471
:1028A000C2272A813B814C815D810E940323AB01B9
:1028B000BC0100E010E020E83FE389810E947F072F
:1028C0006CE572E08E819F810E94E428892B09F0DB
:1028D00036CF4ECF8981E82EF12C4AE050E060E0FF
:1028E00070E0C1010E948E2623E22E9DF0012F9DF3
:1028F000F00D1124E957FD4F7383628368E572E0A0
:102900008E819F810E94E428892B09F010CF84CF0B
:10291000AF92BF92CF92DF92FF920F931F93CF930C
:10292000DF935B01EA014AE050E060E070E00E9462
:102930008E26F62E83E08F15B0F062E572E0CE01B0
:102940000E94E428892B09F443C068E572E0CE01B7
:102950000E94E428892B19F16CE572E0CE010E94F7
:10296000E428892B51F0DF91CF911F910F91FF90B7
:10297000DF90CF90BF90AF900895E0916002F0910A
:102980006102828193810E94C227AB01BC0100E0F9
:1029900010E020E83FE38F2D0E948508E4CFE0910E
:1029A0006002F0916102828193810E94C227AB0193
:1029B000BC0100E010E020E83FE38F2D0E947F077C
:1029C0006CE572E0CE010E94E428892B61F6D5CF38
:1029D000E3E2FE9E8001112409571D4FF801C280D9
:1029E000D3804AE050E060E070E0C5010E948E268E
:1029F0006C0D7D1DF8017383628368E572E0CE0182
:102A00000E94E428892B09F0A7CFC9CF1F93CF9349
:102A1000DF93EB014AE050E060E070E00E948E2618
:102A2000162F4AE050E060E070E0CE010E948E2652
:102A3000143080F4611107C060E0812FDF91CF91E5
:102A40001F910C943D0461E0812FDF91CF911F9184
:102A50000C943D04DF91CF911F9108954F925F92A6
:102A60006F927F928F929F92AF92BF92CF92DF929E
:102A7000EF92FF920F931F93CF93DF9300D000D07C
:102A8000CDB7DEB77B014AE050E060E070E00E9425
:102A90008E26162F643008F080C062E572E0C70110
:102AA0000E94E428892B09F4D7C068E572E0C701C9
:102AB0000E94E428892B09F485C06CE572E0C70107
:102AC0000E94E428892B09F482C083E2189FF00158
:102AD0001124E957FD4F60817181458456846784D4
:102AE0007088258936894789508D81889288A38886
:102AF000B4880091810210918202882777FD809529
:102B0000982F29833A834B835C830E9407246B01AF
:102B10007C0129813A814B815C81C301B2010E9411
:102B2000BB24A50194010E94BB249B01AC0160E081
:102B300070E084EB93E40E946C239B01AC01C7011D
:102B4000B6010E94BB249F938F937F936F9380E382
:102B500091E09F938F931F930F930E9460290FB66C
:102B6000F894DEBF0FBECDBF8091810290918202AA
:102B70000F900F900F900F90DF91CF911F910F91B9
:102B8000FF90EF90DF90CF90BF90AF909F908F908D
:102B90007F906F905F904F90089580918102909107
:102BA00082021F921F932EE031E03F932F939F9359
:102BB0008F930E9460290F900F900F900F900F90AD
:102BC0000F90D2CF93E2199FF001112482CF83E2BC
:102BD000189FF0011124E957FD4F608171814584F0
:102BE000568467847088258936894789508D818805
:102BF0009288A388B488009181021091820288276C
:102C000077FD8095982F29833A834B835C830E94BC
:102C100007246B017C0129813A814B815C81C301CE
:102C2000B2010E94BB24A50194010E94BB249B0118
:102C3000AC0160E070E080E090E40E946C239B01B6
:102C4000AC01C701B6010E94BB249F938F937F9371
:102C50006F9388E391E07DCF83E2189FF001112408
:102C6000E957FD4F2081318180918102909182024C
:102C70003F932F9326E231E098CF4AE050E060E0A6
:102C800070E00E948E26643018F583E2689FF001A0
:102C90001124E957FD4F2281338180819181E09198
:102CA0008102F09182022817390749F081E390E010
:102CB000918380838091810290918202089580E3C4
:102CC00090E09183808380918102909182020895A7
:102CD00080918102909182021F926F932EE031E0E9
:102CE0003F932F939F938F930E9460290F900F9093
:102CF0000F900F900F900F9080918102909182021F
:102D000008954AE050E060E070E00E948E26643052
:102D1000E0F4862F0E94C604209181023091820245
:102D20009F938F938FE391E09F938F933F932F9384
:102D30000E9460290F900F900F900F900F900F90AE
:102D400080918102909182020895209181023091B8
:102D500082021F926F938EE091E0E6CF4AE050E04E
:102D600060E070E00E948E26643008F583E2689F80
:102D7000F0011124E957FD4F2481358180918102B2
:102D8000909182023F932F9326E231E03F932F935D
:102D90009F938F930E9460290F900F900F900F9038
:102DA0000F900F90809181029091820208958091FE
:102DB0008102909182021F926F932EE031E0E6CF64
:102DC0001F93CF93DF93EB014AE050E060E070E0A7
:102DD0000E948E26162F643098F44AE050E060E09E
:102DE00070E0CE010E948E2623E2129FF001112492
:102DF000E957FD4F75836483DF91CF911F9108954B
:102E000080918102909182021F921F932EE031E007
:102E10003F932F939F938F930E946029809181020B
:102E2000909182020F900F900F900F900F900F9043
:102E3000DF91CF911F910C9427044AE050E060E0AD
:102E400070E00E948E26643038F583E2689FF001BE
:102E50001124E957FD4F85859685A785B089209176
:102E6000810230918202BF93AF939F938F9383E44B
:102E700091E09F938F933F932F930E9460298DB78A
:102E80009EB708960FB6F8949EBF0FBE8DBF809177
:102E90008102909182020895809181029091820234
:102EA0001F926F932EE031E03F932F939F938F9368
:102EB0000E9460290F900F900F900F900F900F902D
:102EC000809181029091820208950F931F93CF9376
:102ED000DF938B014AE050E060E070E00E948E26B4
:102EE000C62F6430A8F4C8010E94C227D0E00E9417
:102EF000D42323E22C9FF0012D9FF00D1124E957DC
:102F0000FD4F75836483DF91CF911F910F910895D9
:102F100080918102909182021F92CF932EE031E046
:102F20003F932F939F938F930E94602980918102FA
:102F3000909182020F900F900F900F900F900F9032
:102F4000DF91CF911F910F910C9427044AE050E03C
:102F500060E070E00E948E26643038F583E2689F5E
:102F6000F0011124E957FD4F81899289A389B48921
:102F70002091810230918202BF93AF939F938F93F0
:102F800087E491E09F938F933F932F930E94602952
:102F90008DB79EB708960FB6F8949EBF0FBE8DBF33
:102FA0008091810290918202089580918102909196
:102FB00082021F926F932EE031E03F932F939F93F5
:102FC0008F930E9460290F900F900F900F900F9099
:102FD0000F90809181029091820208951F93CF9368
:102FE000DF93EB014AE050E060E070E00E948E2643
:102FF000162F643088F4CE010E94C22723E2129F6C
:10300000F0011124E957FD4F618B728B838B948BF8
:10301000DF91CF911F91089580918102909182025A
:103020001F921F932EE031E03F932F939F938F9336
:103030000E94602980918102909182020F900F90EE
:103040000F900F900F900F90DF91CF911F910C94E4
:1030500027044AE050E060E070E00E948E26643071
:1030600038F583E2689FF0011124E957FD4F858907
:103070009689A789B08D2091810230918202BF93F9
:10308000AF939F938F9387E491E09F938F933F93A8
:103090002F930E9460298DB79EB708960FB6F894BB
:1030A0009EBF0FBE8DBF80918102909182020895D4
:1030B00080918102909182021F926F932EE031E005
:1030C0003F932F939F938F930E9460290F900F90AF
:1030D0000F900F900F900F9080918102909182023B
:1030E00008951F93CF93DF93EB014AE050E060E037
:1030F00070E00E948E26162F643088F4CE010E9464
:10310000C22723E2129FF0011124E957FD4F658B7E
:10311000768B878B908FDF91CF911F91089580914F
:103120008102909182021F921F932EE031E03F9323
:103130002F939F938F930E94602980918102909199
:1031400082020F900F900F900F900F900F90DF91D1
:10315000CF911F910C9427044AE050E060E070E0AA
:103160000E948E26643008F583E2689FF0011124E6
:10317000E957FD4F268D378D809181029091820213
:103180003F932F932FE331E03F932F939F938F93A0
:103190000E9460290F900F900F900F900F900F904A
:1031A0008091810290918202089580918102909194
:1031B00082021F926F932EE031E0E6CF1F93CF93F0
:1031C000DF93EB014AE050E060E070E00E948E2661
:1031D000162F643088F4CE010E94C2270E94D923A2
:1031E00023E2129FF0011124E957FD4F778F668F7C
:1031F000DF91CF911F910895A0918102B091820239
:1032000083E1EDE4F1E001900D928A95E1F7809180
:10321000810290918202DF91CF911F910C9427043B
:103220002F923F924F925F926F927F928F929F92D6
:10323000AF92BF92CF92DF92EF92FF920F931F93C4
:10324000CF93DF9300D000D0CDB7DEB71B018A014A
:103250004AE050E060E070E00E948E26B62E23E047
:10326000261708F4B1C0C8010E94C2276B017C0177
:1032700065E372E0C1010E94E428892B09F47CC057
:103280000B2D10E093E2B99E9001112429573D4F78
:10329000D9011D968D909D90AD90BC905097519600
:1032A0004D905D906D907C90549755968D919D9129
:1032B0000D90BC91A02D89839A83AB83BC83C701F9
:1032C000B6019F7720E030E04AE754E40E94BB2437
:1032D0006B017C01A3019201C501B4010E94BB24D2
:1032E00029813A814B815C810E94BB249B01AC0106
:1032F000C701B6010E946C230E941E250E94D9239B
:103300006B017C01CB01009709F497C06031B7E2F3
:103310007B0708F080C062E472E0C1010E94E428EB
:10332000892B89F483E2809FF001819FF00D1124A5
:10333000E957FD4F81E08487D78EC68E82819381C5
:1033400001969383828361E472E0C1010E94E428C4
:10335000892B19F583E2809FF001819FF00D1124E4
:10336000E957FD4F82E08487D78EC68E8281938194
:1033700001979383828311C0F89483E2B89EF00191
:103380001124E957FD4F148683E090E0978F868FD4
:10339000808191819383828378940F900F900F9016
:1033A0000F90DF91CF911F910F91FF90EF90DF90E1
:1033B000CF90BF90AF909F908F907F906F905F90D5
:1033C0004F903F902F900895A0918102B09182027A
:1033D00083E1EDE4F1E001900D928A95E1F78091AF
:1033E0008102909182020F900F900F900F90DF91C9
:1033F000CF911F910F91FF90EF90DF90CF90BF90F2
:10340000AF909F908F907F906F905F904F903F9084
:103410002F900C942704A0918102B091820283E145
:10342000E6E7F1E001900D928A95E1F78091810243
:10343000909182020E9427046ECFA0918102B091E8
:10344000820284E1E1E6F1E0C6CFF8940E945C03D9
:103450000E94E205789408951F920F920FB60F9282
:1034600011248F939F93EF93FF938091C6009091C7
:10347000790291112DC08D3011F18A3021F0909197
:103480007A02903488F1E0917702F091780280918D
:103490007A02E80FF11D108281E080937902109288
:1034A0007A028091C00085FFFCCF86E08093C60041
:1034B0008091C00085FFFCCF8AE08093C600FF9119
:1034C000EF919F918F910F900FBE0F901F901895C5
:1034D0008091C00085FFFCCF85E18093C60080917C
:1034E000C00085FFFCCFE8CFE0917702F091780231
:1034F00090917A02E90FF11D808380917A028F5FAB
:1035000080937A02DCCF1F920F920FB60F92112494
:103510008F939F93EF93FF9393B1809168028111F2
:1035200039C080916702882309F43DC0809166020A
:10353000891709F442C01092660210926702E09166
:103540006202F0916302EE0FFF1FEE0FFF1FEF709C
:10355000FF27F0936302E0936202199B05C0E260CB
:10356000F0936302E09362021A9B05C0E160F0935E
:103570006302E0936202EE0FFF1FEA5EFB4FE491ED
:10358000EE2341F080917F028E0F80937F0281E0D5
:1035900080938002FF91EF919F918F910F900FBECA
:1035A0000F901F90189580916602891741F29093B1
:1035B000660281E080936702C2CF81E08093680257
:1035C000BCCF1F920F920FB60F9211242F923F92F1
:1035D0004F925F926F927F928F929F92AF92BF9223
:1035E000CF92DF92EF92FF920F931F932F933F930F
:1035F0004F935F936F937F938F939F93AF93BF93FB
:10360000EF93FF93CF93DF93CDB7DEB72997DEBF5C
:10361000CDBFE7E8F2E065857685878590892189C9
:10362000328943895489C588D688E788F08C0E94FE
:10363000BB24A70196010E94BB242B013C019E01E3
:103640002F5F3F4F5901C12CD12CE12CF12C812C43
:10365000198633E2932E22242394312C9E9C8001E0
:103660009F9C100D112409571D4FF80182819381F1
:1036700020813181821B930BF501819391935F012E
:10368000009709F440C0F80120A131A1232B09F4CF
:10369000E7C080A191A1019791A380A36681778162
:1036A0008085918520E030E040E85FE30E94B72408
:1036B0001816ACF4F801828193810196938382837A
:1036C000668177818085918520E030E040E85FE386
:1036D0000E940323F80166837783808791879E9CED
:1036E00080019F9C100D112409571D4FF801668120
:1036F00077818085918520E030E040E85FEB0E9493
:10370000682387FD08C12FEFE21AF20A32E0C30EE8
:10371000D11C84E0E816F10409F0A0CF88B19985A6
:10372000892B88B9E1E2EA95F1F7000088B1882990
:1037300088B9FDE0FA95F1F7000018B89E012F5FF7
:103740003F4F690100E010E023E2B22EB09E70010D
:10375000B19EF00C1124C70189579D4F7C01FC01DB
:103760008285882309F44AC0F60180819181181668
:1037700019060CF08DC0F70160817181882777FDF3
:103780008095982F0E94072420E030E040E85FE316
:103790000E9404239B01AC01C301B2010E94682373
:1037A00087FF10C0F7011182108282809380C301CD
:1037B000B2010E941E250E94D423861A970AF7019F
:1037C00093828282B09EF001B19EF00D1124E957E0
:1037D000FD4F808191810196918380838485882328
:1037E00029F082819381019693838283B09EF001B8
:1037F000B19EF00D1124E957FD4F12860F5F1F4F48
:10380000F2E0CF0ED11C0430110509F09FCF2996AC
:103810000FB6F894DEBF0FBECDBFDF91CF91FF9101
:10382000EF91BF91AF919F918F917F916F915F9138
:103830004F913F912F911F910F91FF90EF90DF904B
:10384000CF90BF90AF909F908F907F906F905F9040
:103850004F903F902F900F900FBE0F901F90189594
:1038600021E0F801228797FD42C0C1010C2C01C064
:10387000880F0A94EAF7882A9E9CF0019F9CF00D1D
:103880001124E957FD4F868D978D91A380A33BCFDF
:10389000892B09F4ABCFF70160817181882777FD0F
:1038A0008095982F0E94072420E030E040E85FE3F5
:1038B0000E94032320E030E0A9010E94682387FDD5
:1038C00040C0B09EF001B19EF00D1124E957FD4FAC
:1038D000808191810197918380838485882309F475
:1038E00085CF828193810197938382837FCFC601A5
:1038F0000196F10102C0EE0FFF1F8A95E2F7CF019A
:10390000F985F82BF987C1010C2C01C0880F0A94A6
:10391000EAF7882AB1CFF8018281938101979383D6
:103920008283668177818085918520E030E040E860
:103930005FE30E940423F801668377838087918781
:10394000E2CEC301B2010E941E250E94D423F701DA
:103950007183608322813381260F371F3383228353
:10396000B0CFA3E1B0E0E7EBFCE10C94C6227C0110
:103970001B016A01FC0117821682838181FF66C3E5
:10398000BE016F5F7F4F4B01F7019381F10193FD02
:10399000859193FF81911F01882309F453C38532D8
:1039A00039F493FD859193FF81911F01853239F49C
:1039B000B70190E00E942E2956016501E5CF10E085
:1039C000512C20E02032A0F48B3269F030F48032A8
:1039D00059F0833269F420612CC08D3239F0803384
:1039E00039F4216026C02260246023C0286021C0F1
:1039F00027FD27C030ED380F3A3078F426FF06C097
:103A0000FAE01F9F300D1124132F13C06AE0569E59
:103A1000300D1124532E20620CC08E3221F426FD6D
:103A200011C3206406C08C3611F4206802C08836A9
:103A300041F4F10193FD859193FF81911F01811163
:103A4000C1CF9BEB980F933018F42061805E06C0C5
:103A50009BE9980F933008F0AAC12F7E26FF16E04D
:103A60002F73722E853621F4F22FF0647F2E08C05A
:103A7000863621F4622F6068762E02C01111115033
:103A800077FE07C01C3348F444244394410E27E0DA
:103A90000BC0183030F4212F06C027E04CE3442E31
:103AA00003C027E017E0412C560174E0A70EB11CBB
:103AB000F6016081718182819381042DA4010E94AD
:103AC000E4276C01098100FF02C003FF06C071FCFE
:103AD00007C072FC08C0612C08C03DE2632E05C01F
:103AE0002BE2622E02C090E2692E802F8C7099F139
:103AF000662011F084E001C083E0851510F0512CA0
:103B00000BC0581A73FC08C0B70180E290E00E9415
:103B10002E295A94C9F7F3CF662029F0B701862DD4
:103B200090E00E942E2903FD03C00AE211E002C0CA
:103B300006E211E0F72DF0717F2EF80184918823C1
:103B400009F476C271108052B70190E00E942E29CC
:103B50000F5F1F4FF2CF77FE0FC04C0C04FF04C065
:103B60008A81813309F44A94141474F5F8E0F41549
:103B700078F588E0482E2CC076FC2AC0812F90E092
:103B80008C159D059CF06CEFC6166FEFD60674F091
:103B9000772D7068772E0AC0E2E0F0E0EC0FFD1F91
:103BA000E10FF11D8081803319F411501111F4CF10
:103BB00077FE0EC044244394410E812F90E0C81636
:103BC000D9062CF41C1904C04424439401C010E00D
:103BD00077FE07C01C141D043CF496012F5F3F4F75
:103BE00005C025E030E002C021E030E0662011F0A1
:103BF0002F5F3F4F112331F0412F50E04F5F5F4F58
:103C0000240F351F452D50E02417350714F4521AA0
:103C100001C0512C872D897049F4552039F0B70126
:103C200080E290E00E942E295A94F7CF662029F076
:103C3000B701862D90E00E942E2973FC09C0552003
:103C400039F0B70180E390E00E942E295A94F7CF13
:103C500077FE5FC09C2D8D2DD7FE02C090E080E0E6
:103C6000692E782E40E050E0C601841991099D87A5
:103C70008C87960126193709280D391D812F90E070
:103C8000EE27FF27E81BF90BFF87EE87FFEF6F1684
:103C90007F0669F4B7018EE290E02B8B3A8B488B5C
:103CA000598B0E942E29598948893A892B89C61433
:103CB000D70454F06C857D85661577052CF4F901E1
:103CC000E40FF51F818101C080E371E0671A71087C
:103CD0004F5F5F4FEE85FF856E167F066CF0B70174
:103CE00090E02B8B3A8B488B598B0E942E292B8985
:103CF0003A8948895989CACF6C147D0439F49A816C
:103D0000963318F4953311F404FF81E3B70190E082
:103D10004BC08A81813309F00F7EB70190E00E9489
:103D20002E29111105C074FE18C085E490E017C05B
:103D3000B7018EE290E00E942E2982E0662463940F
:103D4000680EF401E80FF11D8081B70190E00E9438
:103D50002E29115041F3862DF1CF85E690E0B70171
:103D60000E942E29D7FC05C0C114D10439F404FFE8
:103D700005C0D194C194D1088DE201C08BE2B70196
:103D800090E00E942E2980E36AE0C616D1042CF050
:103D90008F5FFAE0CF1AD108F7CFB70190E00E9409
:103DA0002E29B701C601C0960E942E2941C1833633
:103DB00031F0833779F0833509F058C021C05601BE
:103DC00072E0A70EB11CF6018081898301E010E04A
:103DD000640114C05601F2E0AF0EB11CF601C080C0
:103DE000D18026FF03C0612F70E002C06FEF7FEF2C
:103DF000C6012B8B0E94F4288C012B892F7715C0CC
:103E00005601F2E0AF0EB11CF601C080D18026FF52
:103E100003C0612F70E002C06FEF7FEFC6012B8BF4
:103E20000E94D4288C012B892068722E23FD1AC091
:103E3000852D90E008171907A8F4B70180E290E0FB
:103E40000E942E295A94F4CFF60177FC859177FED3
:103E500081916F01B70190E00E942E2951105A9470
:103E6000015011090115110579F7E2C0843611F0EE
:103E7000893651F5560127FF09C0F4E0AF0EB11C99
:103E8000F60160817181828193810AC0F2E0AF0EF8
:103E9000B11CF60160817181882777FD8095982F8C
:103EA000022F0F7697FF08C09095809570956195C9
:103EB0007F4F8F4F9F4F00682AE030E0A4010E949F
:103EC0008229C82EC8183EC0022F853721F40F7EE4
:103ED0002AE030E01DC0097F8F3691F018F4883554
:103EE00059F0B0C0803719F0883711F0ABC00061CD
:103EF00004FF09C0046007C024FF08C0066006C0B4
:103F000028E030E005C020E130E002C020E132E0EE
:103F1000560107FF09C0F4E0AF0EB11CF601608145
:103F200071818281938108C0F2E0AF0EB11CF6016D
:103F30006081718180E090E0A4010E948229C82EF6
:103F4000C8180F7706FF0BC0202F2E7FC11650F424
:103F500004FF0AC002FD08C0202F2E7E05C0DC2C05
:103F6000202F03C0DC2C01C0D12E24FF0DC0FE0188
:103F7000EC0DF11D8081803311F4297E09C022FFF0
:103F800006C0D394D39404C0822F867809F0D394CA
:103F900023FD13C020FF06C01C2DD51418F4150DE9
:103FA0001D19D52CD51468F4B70180E290E02B8B55
:103FB0000E942E29D3942B89F5CFD51410F45D18C7
:103FC00001C0512C24FF12C0B70180E390E02B8B7D
:103FD0000E942E292B8922FF17C021FF03C088E5EC
:103FE00090E002C088E790E0B7010CC0822F86788D
:103FF00059F021FD02C080E201C08BE227FD8DE275
:10400000B70190E00E942E29C11638F4B70180E371
:1040100090E00E942E291150F7CFCA94F401EC0DC4
:10402000F11D8081B70190E00E942E29C110F5CFCB
:10403000552009F4C2CCB70180E290E00E942E29FD
:104040005A94F6CFF7018681978102C08FEF9FEFD8
:104050006396E2E10C94E2228CE090E00E946725F6
:1040600080936002909361028C01C0E0D0E084E113
:1040700090E00E946725F801EC0FFD1F918380837B
:1040800080E090E0E0916002F0916102EC0FFD1F92
:104090000190F081E02DE80FF91F10820196843124
:1040A000910581F72296CC30D10529F0009160026C
:1040B00010916102DCCF88E090E00E946725909328
:1040C000700280936F0288E090E00E9467259093D1
:1040D000720280937102C0E0D0E000916F021091F3
:1040E000700289E090E00E946725F801EC0FFD1F47
:1040F00091838083009171021091720289E090E0B7
:104100000E946725F801EC0FFD1F9183808380E0FA
:1041100090E0E0916F02F0917002EC0FFD1F0190B2
:10412000F081E02DE80FF91F1082E0917102F0910B
:104130007202EC0FFD1F0190F081E02DE80FF91FD6
:10414000108201968930910521F72296C830D10559
:1041500021F684E090E00E9467259093740280939A
:10416000730284E090E00E9467259093760280932A
:104170007502C0E0D0E0009173021091740281E1F9
:1041800090E00E946725F801EC0FFD1F918380836A
:10419000009175021091760281E190E00E946725FE
:1041A000F801EC0FFD1F9183808380E090E0E091A7
:1041B0007302F0917402EC0FFD1F0190F081E02D6D
:1041C000E80FF91F1082E0917502F0917602EC0F72
:1041D000FD1F0190F081E02DE80FF91F108201967C
:1041E0008131910521F72296C430D10521F680E472
:1041F00090E00E946725909378028093770280E494
:1042000090E00E9467259093820280938102109231
:10421000C50085E18093C4008091C10088698093C6
:10422000C10088E290E00E94672580938502909308
:1042300086029C0180E090E004C0209185023091CC
:104240008602F901E80FF91F108201968832910564
:10425000A1F710E4D3E8C3E70E945C030E94D406F0
:1042600010937C00D0937A0080917A0080648093D0
:104270007A0080917A0086FDFCCF80917800909141
:1042800079008091B00082608093B000C093B30049
:10429000809170008260809370001092B2008091D3
:1042A000B10085608093B1000E94A71200E061E038
:1042B000802F0E943D040F5F0430C9F70E94490619
:1042C0000E94790E78940E94D80F0E94790E0E9465
:1042D000CE1290E0FC01E058F109EA31F10510F04E
:1042E0000000F1CFE758FF4F0C94FD22F8940E9494
:1042F0005C030E94E2057894F8940E948404ACCF99
:10430000809187029091880290938A02809389021B
:104310008091AA029091AB029093AD028093AC027F
:104320008091CD029091CE029093D0028093CF02E3
:104330008091F0029091F1029093F3028093F20247
:10434000C2CFE0916002F0916102448155816281A7
:104350007381808191810E941019B5CFE091600234
:10436000F091610262817381808191810E94DE18E7
:10437000AACFE0916002F0916102808191810E9458
:10438000AC180E9427049FCFE0916002F091610277
:1043900062817381808191810E94711894CFE09134
:1043A0006002F0916102808191810E9429180E942F
:1043B000270489CFE0916002F091610262817381EC
:1043C000808191810E94EE177ECFE0916002F09192
:1043D0006102808191810E94A6170E94270473CFF9
:1043E000E0916002F091610262817381808191812C
:1043F0000E94651768CFE0916002F09161028081B0
:1044000091810E941D170E9427045DCFE0916002F8
:10441000F091610262817381808191810E94E01636
:1044200052CFE0916002F0916102808191810E94FF
:10443000AE160E94270447CFE0916002F09161021E
:10444000808191810E9481160E9427043CCFE091D7
:104450006002F0916102808191810E943D160E946C
:10446000270431CF0E9449062ECF0E94E2052BCFB0
:10447000E0916002F091610262817381808191819B
:104480000E942E150E9427041ECFE0916002F09139
:10449000610262817381808191810E94061513CF30
:1044A000E0916002F0916102808191810E94C627B3
:1044B0000E94040508CFE0916002F09161024481FE
:1044C000558162817381808191810E948814FBCE25
:1044D000E0916002F09161024481558162817381B3
:1044E000808191810E945F13EECEE0916002F09195
:1044F0006102A081B181FD0101900020E9F73197AF
:10450000EA1BFB0B759708F0DECE45E150E064E551
:1045100070E0CD010E94F029D6CE80918102909169
:10452000820245E150E064E570E00E94E02980915C
:104530008102909182020E942704C5CEAA1BBB1B58
:1045400051E107C0AA1FBB1FA617B70710F0A61B93
:10455000B70B881F991F5A95A9F780959095BC01B4
:10456000CD01089597FB072E16F4009407D077FD30
:1045700009D00E949E2207FC05D03EF490958195BB
:104580009F4F0895709561957F4F08952F923F92A8
:104590004F925F926F927F928F929F92AF92BF9253
:1045A000CF92DF92EF92FF920F931F93CF93DF93FF
:1045B000CDB7DEB7CA1BDB0B0FB6F894DEBF0FBE5C
:1045C000CDBF09942A88398848885F846E847D84A9
:1045D0008C849B84AA84B984C884DF80EE80FD80AB
:1045E0000C811B81AA81B981CE0FD11D0FB6F89421
:1045F000DEBF0FBECDBFED010895EE0FFF1F05908A
:10460000F491E02D09945058BB27AA270ED075C10C
:1046100066D130F06BD120F031F49F3F11F41EF4DD
:104620005BC10EF4E095E7FB51C1E92F77D180F330
:10463000BA17620773078407950718F071F49EF59F
:104640008FC10EF4E0950B2EBA2FA02D0B01B901EE
:1046500090010C01CA01A0011124FF27591B99F0F8
:10466000593F50F4503E68F11A16F040A22F232F04
:10467000342F4427585FF3CF469537952795A79554
:10468000F0405395C9F77EF41F16BA0B620B730BFB
:10469000840BBAF09150A1F0FF0FBB1F661F771F6C
:1046A000881FC2F70EC0BA0F621F731F841F48F421
:1046B000879577956795B795F7959E3F08F0B3CFA7
:1046C0009395880F08F09927EE0F97958795089591
:1046D000D9D008F481E008950CD00FC107D140F083
:1046E000FED030F021F45F3F19F0F0C0511139C114
:1046F000F3C014D198F39923C9F35523B1F3951B53
:10470000550BBB27AA2762177307840738F09F5FF2
:104710005F4F220F331F441FAA1FA9F333D00E2E61
:104720003AF0E0E830D091505040E695001CCAF7CE
:1047300029D0FE2F27D0660F771F881FBB1F261793
:1047400037074807AB07B0E809F0BB0B802DBF0166
:10475000FF2793585F4F2AF09E3F510568F0B6C07F
:1047600000C15F3FECF3983EDCF386957795679543
:10477000B795F7959F5FC9F7880F911D9695879517
:1047800097F90895E1E0660F771F881FBB1F621736
:1047900073078407BA0720F0621B730B840BBA0BF4
:1047A000EE1F88F7E095089504D06894B111D9C040
:1047B0000895BCD088F09F5790F0B92F9927B75132
:1047C000A0F0D1F0660F771F881F991F1AF0BA95D5
:1047D000C9F712C0B13081F0C3D0B1E00895C0C0B4
:1047E000672F782F8827B85F39F0B93FCCF38695CB
:1047F00077956795B395D9F73EF490958095709528
:1048000061957F4F8F4F9F4F0895E89409C097FBA4
:104810003EF490958095709561957F4F8F4F9F4F97
:104820009923A9F0F92F96E9BB279395F6958795DB
:1048300077956795B795F111F8CFFAF4BB0F11F49E
:1048400060FF1BC06F5F7F4F8F4F9F4F16C0882345
:1048500011F096E911C0772321F09EE8872F762F7B
:1048600005C0662371F096E8862F70E060E02AF0BC
:104870009A95660F771F881FDAF7880F96958795A8
:1048800097F90895990F0008550FAA0BE0E8FEEF7D
:1048900016161706E807F907C0F012161306E40704
:1048A000F50798F0621B730B840B950B39F40A26FD
:1048B00061F0232B242B252B21F408950A2609F4DB
:1048C000A140A6958FEF811D811D089597F99F67DF
:1048D00080E870E060E008959FEF80EC0895002488
:1048E0000A941616170618060906089500240A9455
:1048F00012161306140605060895092E0394000CDB
:1049000011F4882352F0BB0F40F4BF2B11F460FF69
:1049100004C06F5F7F4F8F4F9F4F089557FD905892
:10492000440F551F59F05F3F71F04795880F97FB73
:10493000991F61F09F3F79F087950895121613062D
:104940001406551FF2CF4695F1DF08C0161617065C
:104950001806991FF1CF8695710561050894089591
:10496000E894BB2766277727CB0197F908958ADF5C
:1049700008F48FEF08950BD0C0CFB1DF28F0B6DF79
:1049800018F0952309F0A2CFA7CF1124EACFC6DFF4
:10499000A0F3959FD1F3950F50E0551F629FF00152
:1049A000729FBB27F00DB11D639FAA27F00DB11DAB
:1049B000AA1F649F6627B00DA11D661F829F222734
:1049C000B00DA11D621F739FB00DA11D621F839FBB
:1049D000A00D611D221F749F3327A00D611D231F91
:1049E000849F600D211D822F762F6A2F11249F57DF
:1049F00050408AF0E1F088234AF0EE0FFF1FBB1F02
:104A0000661F771F881F91505040A9F79E3F5105A0
:104A100070F05CCFA6CF5F3FECF3983EDCF3869559
:104A200077956795B795F795E7959F5FC1F7FE2B4B
:104A3000880F911D9695879597F9089577DFE0F097
:104A40009E37D8F09639B8F49E3848F4672F782FFF
:104A50008827985FF9CF86957795679593959539CF
:104A6000D0F3B62FB1706B0F711D811D20F48795A7
:104A700077956795939502C01CC073CF882371F416
:104A8000772321F09850872B762F07C0662311F4E7
:104A900099270DC09051862B70E060E02AF09A951E
:104AA000660F771F881FDAF7880F9695879597F915
:104AB00008959F3F31F0915020F487957795679541
:104AC000B795880F911D9695879597F90895CF937F
:104AD000DF938230910510F482E090E0E0911703BB
:104AE000F091180320E030E0A0E0B0E0309739F119
:104AF0004081518148175907B8F04817590771F498
:104B000082819381109729F013969C938E9312972C
:104B10002CC0909318038093170327C021153105EB
:104B200031F04217530718F0A901DB0101C0EF0172
:104B30009A01BD01DF010280F381E02DD7CF21155D
:104B40003105F9F0281B390B2430310580F48A81B6
:104B50009B816115710521F0FB019383828304C061
:104B60009093180380931703FE01329644C0FE0110
:104B7000E20FF31F819391932250310939832883E7
:104B80003AC02091150330911603232B41F4209154
:104B900002013091030130931603209315032091F5
:104BA0000001309101012115310541F42DB73EB7C7
:104BB0004091040150910501241B350BE091150330
:104BC000F0911603E217F307A0F42E1B3F0B2817F2
:104BD000390778F0AC014E5F5F4F2417350748F076
:104BE0004E0F5F1F509316034093150381939193CB
:104BF00002C0E0E0F0E0CF01DF91CF910895CF93C4
:104C0000DF93009709F487C0FC0132971382128268
:104C1000C0911703D0911803209781F4208131812E
:104C2000280F391F8091150390911603821793075F
:104C300079F5F0931603E09315036DC0DE0120E0D3
:104C400030E0AE17BF0750F412964D915C91139768
:104C50009D014115510509F1DA01F3CFB383A28318
:104C600040815181840F951F8A179B0771F48D91A4
:104C70009C911197840F951F0296918380831296C1
:104C80008D919C911397938382832115310529F48B
:104C9000F0931803E09317033EC0D9011396FC93D9
:104CA000EE9312974D915D91A40FB51FEA17FB0784
:104CB00079F480819181840F951F0296D901119614
:104CC0009C938E938281938113969C938E931297DB
:104CD000E0E0F0E08A819B81009719F0FE01EC0191
:104CE000F9CFCE01029628813981820F931F20913E
:104CF0001503309116032817390769F4309729F402
:104D0000109218031092170302C013821282D093DC
:104D10001603C0931503DF91CF9108952F923F9210
:104D20005F926F927F928F929F92AF92BF92CF923B
:104D3000DF92EF92FF920F931F93CF93DF938B013C
:104D4000EA016115710521F0DB018C9311969C93AA
:104D5000209739F09E01225031092332310508F0A5
:104D6000FBC07C016701BFEFCB1ADB0A5601F701DC
:104D70006080862D90E00E94BC28892B11F076017E
:104D8000F1CFFDE26F120AC0570182E0A80EB11CFC
:104D9000D70111966C90772473940BC0BBE26B1211
:104DA00007C05701E2E0AE0EB11CD70111966C901E
:104DB000712CCE018F7E892B89F4B0E36B1222C057
:104DC000F50180818F7D883541F56180F2E0AF0E7D
:104DD000B11C872D8260782EC0E1D0E0C830D105AB
:104DE000F1F04CF4C230D10511F5C12CD12CE12CDD
:104DF000B0E4FB2E2FC0CA30D10531F0C031D1054F
:104E000021F115C0209751F7CAE0D0E0ACECCA2ED2
:104E1000DC2CEC2CACE0FA2E1DC02097F9F6C8E093
:104E2000D0E0C12CD12CE12CF0E1FF2E13C060E0CA
:104E300070E080E090E89E01442737FD4095542FB4
:104E40000E94AF2B69017A0105C0C12CD12CE12C45
:104E5000E8E0FE2EF50160E020E030E0A9014E011F
:104E6000AA2497FCA094BA2C1F0170ED572E560C63
:104E7000A9E0A51570F48FEB860D8A3118F499EC32
:104E8000592E06C08FE9860D8A3130F589EA582EF1
:104E9000560C852D90E08C179D07F4F467FD18C023
:104EA000C216D306E406F50680F0C501B4010E94DF
:104EB0009F2B9B01AC01250D311D411D511D213042
:104EC00031054105B0E85B0710F06FEF01C061E00C
:104ED0003196D1016C90C8CF872D817001151105D5
:104EE00071F0662329F03197D801ED93FC9307C048
:104EF00071FE19C03297D801ED93FC9314C067FF7F
:104F000012C0882329F020E030E040E050E804C0DF
:104F10002FEF3FEF4FEF5FE782E290E090931A03AD
:104F20008093190316C0882341F050954095309521
:104F300021953F4F4F4F5F4F0CC057FF0AC082E291
:104F400090E090931A03809319032FEF3FEF4FEFF8
:104F50005FE7B901CA0104C060E070E080E090E062
:104F6000DF91CF911F910F91FF90EF90DF90CF9045
:104F7000BF90AF909F908F907F906F905F903F9089
:104F80002F900895662777270C94122AFC01882712
:104F90009927E89421912032E9F3293010F02E303E
:104FA000C8F32B3241F02D3239F4689404C00E94CA
:104FB0002629820F911D219120532A30C0F31EF41F
:104FC000909581959F4F0895283008F027E033276A
:104FD000DA01990F311D87FD916000966105710519
:104FE00039F432602E5F3D9330E32A95E1F708955E
:104FF0009F3F30F080387105610509F03C5F3C5FF0
:105000003D93913008F08068911DDF93CF931F93FB
:105010000F93FF92EF92192F987F9695E92F96950F
:105020009695E90FFF27E057FB4F99273327EE248A
:10503000FF24A701E70105900894079428F4360F90
:10504000E71EF81E491F511D660F771F881F991F05
:105050000694A1F70590079428F4E70EF81E491F5F
:10506000561FC11D770F881F991F661F0694A1F751
:105070000590079428F4F80E491F561FC71FD11D2D
:10508000880F991F661F771F0694A1F70590079454
:1050900020F4490F561FC71FD81F990F661F771F8F
:1050A000881F0694A9F784911095177041F0D69542
:1050B000C79557954795F794E7941A95C1F7E6E396
:1050C000F4E068941590159135916591959105904E
:1050D0007FE27395E118F10A430B560BC90BD00917
:1050E000C0F7E10CF11E431F561FC91FD01D7EF4EF
:1050F000703311F48A95E6CFE894015030F0080F30
:105100000AF40027021708F4202F2395022F7A3380
:1051100028F079E37D932A95E9F710C07D932A95CD
:1051200089F6069497956795379517951794E11822
:10513000F10A430B560BC90BD00998F023957E91C9
:1051400073957A3308F070E37C932013B8F77E915F
:1051500070617D9330F0839571E37D9370E32A95C0
:10516000E1F71124EF90FF900F911F91CF91DF9104
:10517000992787FD909508959111BBC2803219F04F
:1051800089508550D0F70895FB01DC018D91059081
:1051900080190110D9F3990B0895FB01DC010590EA
:1051A0000D920020E1F70895FC01059061507040D8
:1051B0000110D8F7809590958E0F9F1F089544E6B3
:1051C00052E00E94FF280895FB01DC018D910190BF
:1051D00080190110D9F3990B0895FB01DC010190AE
:1051E0000D920020E1F70895FC016150704001909C
:1051F0000110D8F7809590958E0F9F1F0895FA01A2
:10520000A191B081009719F41097E1F0CD01DC0174
:10521000CD010D90002011F4C00113C0FB012191BC
:10522000222319F02015D9F7F3CFFB012191201586
:1052300019F41E92119606C02223C1F70D9000208A
:10524000A1F7D001FA01A193B08308957AE0979F66
:10525000902D879F802D910D112408950F931F93FA
:10526000CF93DF93182F092FEB018B8181FD03C0B2
:105270008FEF9FEF20C082FF10C04E815F812C8195
:105280003D81421753077CF4E881F9819F012F5F2C
:105290003F4F39832883108306C0E885F985812F25
:1052A0000995892B29F72E813F812F5F3F4F3F833F
:1052B0002E83812F902FDF91CF911F910F91089511
:1052C000AEE0B0E0E6E6F9E20C94D4220D891E8946
:1052D00086E08C831A8309838FEF9FE79E838D83FB
:1052E000AE01475E5F4F6F89788DCE0101960E94B7
:1052F000B11CEF81F885E00FF11F10822E96E4E0DB
:105300000C94F022FA01AA27283051F1203181F1C2
:10531000E8946F936E7F6E5F7F4F8F4F9F4FAF4FBD
:10532000B1E03ED0B4E03CD0670F781F891F9A1FD0
:10533000A11D680F791F8A1F911DA11D6A0F711D84
:10534000811D911DA11D20D009F468943F912AE090
:10535000269F11243019305D3193DEF6CF01089578
:10536000462F4770405D4193B3E00FD0C9F7F6CFA9
:10537000462F4F70405D4A3318F0495D31FD405271
:10538000419302D0A9F7EACFB4E0A6959795879507
:1053900077956795BA95C9F70097610571050895E6
:1053A0009B01AC010A2E0694579547953795279592
:1053B000BA95C9F7620F731F841F951FA01D08952A
:1053C000DC01CB01FC01F999FECF06C0F2BDE1BDC5
:1053D000F89A319600B40D9241505040B8F70895B4
:1053E000DC01A40FB51F4150504048F0CB01840FA1
:1053F000951F2E910E94012A41505040D0F70895E8
:10540000262FF999FECF92BD81BDF89A019700B47D
:10541000021639F01FBA20BD0FB6F894FA9AF99A1D
:105420000FBE0895A0E0B0E0E8E1FAE20C94C822D3
:105430008B016115710521F0DB018C9311969C9312
:10544000EC015E01BFEFAB1ABB0A7501C8808C2D61
:1054500090E00E94BC28892B11F0E501F2CFEDE22B
:10546000CE1208C07E01F2E0EF0EF11CC980DD24EF
:10547000D39409C02BE2C21205C07E0142E0E40EC3
:10548000F11CC980D12CE701219743E050E068E38B
:1054900075E0CE010E947C2B892BD1F4E701229686
:1054A00045E050E063E375E0CE010E947C2B892B40
:1054B00011F4E70127960115110519F0D801CD93D4
:1054C000DC93D11008C160E070E080E89FE70CC178
:1054D00043E050E060E375E0CE010E947C2B892B15
:1054E00059F40115110509F4FBC0B2E0EB0EF11CF3
:1054F000F801F182E082F4C0F70160E070E0CB01D6
:10550000C0E0D0E07F01A0EDAA2EAC0C29E02A1566
:1055100030F14D2D4260B42E2D2D2870D2FE04C0E6
:10552000211125C0219623C021112197A5E0B0E0CB
:105530009B01AC010E94942B660F771F881F991F57
:105540006A0D711D811D911D6839A9E97A078A07C5
:10555000A9E19A0760F0BD2DB660BB2E08C02EEF02
:10556000A2120AC0D3FC50C04D2D4860B42E319613
:10557000D701CC90DB2CC6CF2C2D2F7D253409F004
:1055800043C0A081AD3241F4BD2DB061DB2E7F015F
:1055900022E0E20EF11C0CC07F01AB3231F04FEF84
:1055A000E41AF40A21E030E006C0A2E0EA0EF11CA1
:1055B000A18122E030E0A053AA3018F0E21AF30AE9
:1055C00023C0F70120E030E02038BCE03B075CF46A
:1055D000A901440F551F440F551F240F351F220FDB
:1055E000331F2A0F311DAF014F5F5F4F7A01A0813A
:1055F000A053AA3010F4FA01E7CFD4FE03C03195CE
:1056000021953109C20FD31FD1FE09C00115110523
:1056100031F0E1E0EE1AF108D801ED92FC920E941F
:1056200005242D2D2370233019F06B017C0106C059
:105630006B017C01F7FAF094F7F8F09420E030E089
:10564000A901C701B6010E946823882309F440C05C
:10565000D7FF06C0D195C195D1090FE415E002C06E
:1056600007E615E04801B8E18B1A910890E2A92EEF
:10567000B12CF8014590559065907490CA15DB05E2
:105680005CF0A3019201C701B6010E94BB246B012B
:105690007C01CA19DB09F2CF04501109B594A79413
:1056A0000815190531F78E2D880F8F2D881F8F3F14
:1056B00049F020E030E0A901C701B6010E9468234B
:1056C000811106C082E290E090931A03809319033F
:1056D000C701B60109C060E070E080E89FEF04C038
:1056E00060E070E080EC9FE7CDB7DEB7E0E10C94BE
:1056F000E422992788270895FB01DC01415050409E
:1057000088F08D9181341CF08B350CF4805E6591AE
:1057100061341CF06B350CF4605E861B611171F313
:10572000990B0895881BFCCF0E94D12BA59F900D4B
:10573000B49F900DA49F800D911D11240895DB014D
:105740008F939F930E94942BBF91AF91A29F800D46
:10575000911DA39F900DB29F900D11240895A1E279
:105760001A2EAA1BBB1BFD010DC0AA1FBB1FEE1FDB
:10577000FF1FA217B307E407F50720F0A21BB30B26
:10578000E40BF50B661F771F881F991F1A9469F7A2
:1057900060957095809590959B01AC01BD01CF01FE
:1057A0000895A29FB001B39FC001A39F700D811DFA
:1057B0001124911DB29F700D811D1124911D08951A
:0457C000F894FFCF8B
:1057C40000001B032000000076312E3000006572BB
:1057D400723A20756E6B6E6F776E206D6F746F7298
:1057E4003A202564000025642073746570730000FA
:1057F4002566206465670000256620706900002521
:1058040064000025660000252E3066000065727273
:105814003A20756E6B6E6F776E206D6F746F7200C9
:10582400006572723A2074696D6520746F6F20731D
:10583400686F727400006572723A2074696D652035
:10584400746F6F206C6F6E6700000A00332E50492E
:105854002020556E00692053747574742E005665AB
:105864007273696F6E002563256473740025632564
:105874002E31662563002563252E33662563007368
:10588400746570002563257300646567726565003F
:1058940072616469616E0025632564206D7300255F
:1058A40063252E3166780025634D6F7420256400CE
:1058B4002563252E3066005361766520616C6C008B
:1058C4002063757272656E7400636F6E66696775C6
:1058D40072006174696F6E732020004C6F616420E4
:1058E400616C6C002073617665642020002563255B
:1058F400647300256353544F5000256343570025B8
:1059040063434357006E6F207465787400202C3B0A
:105914000900737465707300646567007069000042
:00000001FF
