:100000000C94BB020C94D8020C94D8020C94D80225
:100010000C94D8020C94D8020C94D8020C94D802F8
:100020000C94D8020C94641B0C94D8020C94D80243
:100030000C94D8020C94D8020C94D8020C94D802D8
:100040000C94061B0C94D8020C94D8020C94D80281
:100050000C94AF1A0C94D8020C94D8020C94D802C9
:100060000C94D8020C94D8020C94D8020C94D802A8
:10007000350B6A0BEE0B3A0C770CF90CB80C610DD2
:100080002C0DA20DAF0AEC0AEC105E105E10E3100E
:10009000D910CF10C510BB105E105E105E105E1040
:1000A0005E105E105E105E105E105E105E105E10E0
:1000B0005E105E105E105E105E105E105E105E10D0
:1000C0005E105E105E105E105E105E105E105E10C0
:1000D0005E105E105E105E105E105E105E104410CA
:1000E0001512A0116C11DA11C611901221111E11F6
:1000F0001B11F3105E12F321FF21EF22D722CA2237
:10010000BD22B222A7229A229722942289227E22FD
:10011000732268225D22522247223C22312226226B
:100120001B2210220322F9216E616E00696E6600A7
:100130006C0252023D0223020B02F201DC01C301F8
:10014000A4018801670148014B010B5365742063CA
:100150006F6E7374616E740A616E67756C61722084
:10016000737065656400006A010A446566696E65BE
:10017000206F70746963616C0A7A65726F20706FAA
:10018000736974696F6E00008B01094C6F616420A4
:100190006C6173740A636F6E666967757261746906
:1001A0006F6E0000A7010853617665206375727257
:1001B000656E740A636F6E66696775726174696FE4
:1001C0006E0000C601074368616E6765206D6F743D
:1001D0006F720A737562737465700000DF01064305
:1001E00068616E676520676561720A726174696F24
:1001F0000000F5010552756E207A65726F0A636121
:100200006C6962726174696F6E00000E020453655E
:100210007420737465700A6D756C7469706C6965AF
:100220007200002602034368616E6765207374657F
:10023000700A776169742074696D6500004002027C
:100240004368616E676520737465700A756E6974C2
:1002500000005502014368616E6765206D6F746F21
:10026000720A706F736974696F6E00006F02004DDF
:100270006F746F72204472697665720A2000001BE9
:100280000411040604FC03EF03E203D503C903BD14
:1002900003AF03A1039303840371035E034C033A8A
:1002A000032A031A030903F802E702D602C302B1C4
:1002B00002B5020098464143544F525952455345A6
:1002C000540000C7020397534554434F4E535453B1
:1002D000504545440000DA020296534554574149BF
:1002E0005454494D450000EB020195474554574190
:1002F000495454494D450000FC020294534554535F
:100300005542535445505300000D03019347455443
:10031000535542535445505300001E030292534517
:100320005446554C4C524F5400002E030191474502
:100330005446554C4C524F5400003E0302905345D6
:100340005447454152524154494F00005003018FD8
:1003500047455447454152524154494F00006203BA
:10036000028E5345544F50545A45524F504F5300EC
:10037000007503018D4745544F50545A45524F5014
:100380004F5300008803018C474554414E414C4F68
:100390004700009703018B49534D4F56494E470084
:1003A00000A503008A4C4F4144434F4E460000B322
:1003B00003008953415645434F4E460000C1030296
:1003C00088474554504F530000CD030287454E41A6
:1003D000424C450000D90301865A45524F52554EB2
:1003E0000000E60303854D4F564552454C0000F38F
:1003F0000303844D4F5645414253000000040183DE
:100400002A49444E00000A0400822A49444E3F0013
:1004100000150400812A52535400001F040080007C
:100420000000000000FFFF000000000000000001CD
:100430000001000000000000000000FFFF000000BD
:100440000000407A10F35A00A0724E18090010A55F
:10045000D4E80000E87648170000E40B54020000DE
:10046000CA9A3B000000E1F5050000809698000064
:100470000040420F000000A086010000001027008D
:10048000000000E803000000006400000000000A13
:1004900000000000000100000000002C76D888DC7D
:1004A000674F0823DFC1DFAE59E1B1B796E5E3E45A
:1004B00053C63AE651997696E8E6C28426EB898CD3
:1004C0009B62ED407C6FFCEFBC9C9F40F2BAA56F35
:1004D000A5F490055A2AF75C936B6CF9676DC11B04
:1004E000FCE0E40D47FEF520E6B500D0ED902E03CC
:1004F00000943577050080841E080000204E0A0015
:100500000000C80C333333330F986E12831141EF60
:100510008D2114893BE65516CFFEE6DB18D1844BBE
:10052000381BF77C1D901DA4BBE424203284725E2E
:10053000228100C9F124ECA1E53D274E414E494EF0
:10054000495459494E46CDCCCC3D0AD7233C17B728
:10055000D13877CC2B329595E6241FB14F0A000095
:1005600020410000C84200401C4620BCBE4CCA1BB3
:100570000E5AAEC59D7411241FBECFEFD0E1DEBF71
:10058000CDBF12E0A0E0B1E0E8E8F8E502C00590D8
:100590000D92A636B107D9F713E0A6E6B2E001C086
:1005A0001D92A132B107E1F70E94AF200C94422CBA
:1005B0000C9400009BB19F709BB99BB1807F892BED
:1005C0008BB95B9A85E88A95F1F700005B980895EE
:1005D000CF93DF93E8B190E0AC01440F551F4F5F1C
:1005E0005F4F21E030E0042E01C0220F0A94EAF7A9
:1005F00077FD42C020952E2328B977FD41C06115B3
:100600007105B9F1AC01440F551F21E030E001C084
:10061000220F4A95EAF7B22FA22FA09540E050E0B2
:1006200023E2289FF001299FF00D1124E555FD4F8D
:1006300088B18B2B88B98DE08A95F1F7000088B1DD
:100640008A2388B980819181892B71F080E090E0C4
:10065000C7E8D3E12197F1F700C00000019620819F
:10066000318182179307A0F34F5F5F4F46175707FB
:10067000F9F6DF91CF910895E22BE8B977FFBFCF6C
:10068000719561957109BBCF80916C02809587FD52
:1006900004C086FF04C086E0089587E0089585FFC2
:1006A00002C085E0089584FF02C084E0089583FFBE
:1006B00002C083E0089580FD02C08AE2089580E0D0
:1006C00008956F927F928F929F92AF92BF92CF9236
:1006D000DF92EF92FF920F931F93CF93DF9320E06F
:1006E00030E043E2642E55E5852E982CA82C50E48A
:1006F000B52EC12CD12C68ECE62E63E4F62E40E03A
:1007000050E060E870E480E090E0A0E8BFE3772488
:10071000739403E010E0629EF001639EF00D1124DB
:10072000E357FD4F118210821382128215821482C8
:100730001682178210861186128613861486858685
:100740009686A786B08AC18AD28AE38AF48A458BC4
:10075000568B678B708F828F938FA48FB58F718E1E
:10076000178F068FC68DD78DD1A3C0A312A22F5F7E
:100770003F4F2430310579F6E0917D02F0917E0201
:1007800080E390E0918380831092800210927F0238
:10079000E0918702F09188029183808310928A020F
:1007A000109289021092190310921A031092820279
:1007B0001092810288E08093830210926F028AE295
:1007C0008093700292E09093710210927202809373
:1007D00073021092740210926C0210926D021092C9
:1007E0006E02109284021092850210928602DF91AE
:1007F000CF911F910F91FF90EF90DF90CF90BF901E
:10080000AF909F908F907F906F9008951092C50049
:1008100085E18093C400E1ECF0E080818869808309
:10082000089580E480937C0083E880937A0080912F
:100830007A00806480937A0080917A0086FDFCCFF4
:10084000809178009091790008959091C00095FF73
:10085000FCCF8093C6000895FC012081222351F033
:1008600031968091C00085FFFCCF2093C600219176
:100870002111F7CF8091C00085FFFCCF8AE08093E3
:10088000C600089591B1482F50E0FA01349621E056
:1008900030E00E2E01C0220F0A94EAF7922B91B994
:1008A00000006130D9F092B1922B92B993E2949FFB
:1008B000F001959FF00D1124E357FD4F138697B17A
:1008C00041E050E001C0440F8A95EAF74095492382
:1008D00047B987B12095282327B9089532B1922FBF
:1008E0009095932392B993E2949FF001959FF00D18
:1008F0001124E357FD4F638797B141E050E001C0F9
:10090000440F8A95EAF7942B97B987B1822B87B960
:10091000089560E080E00E94420460E081E00E946F
:10092000420460E082E00E94420460E083E00E94B2
:10093000420415BC1092B1000895E0EBF0E0808114
:100940008260808383E78093B300E0E7F0E08081FA
:10095000826080831092B200E1EBF0E080818560DC
:10096000808308956115710511F00C94E8020895D3
:1009700093E2899FF0011124E357FD4F808191811B
:10098000860F911D67FD9A9593838283828193815F
:1009900095838483089590917C008F71907E892B3C
:1009A00080937C00109282021092810280918302D7
:1009B000882321F140E080917A00806480937A005E
:1009C00080917A0086FF05C0000080917A0086FD44
:1009D000FBCF809178005091790020918102309175
:1009E000820290E0952B820F931F90938202809356
:1009F00081024F5F809183024817E8F28091810263
:100A0000909182026091830270E00E940023CB01EA
:100A100008956F927F929F92AF92BF92CF92DF9292
:100A2000EF92FF920F931F93CF93DF93982E8091B5
:100A3000B100887F8093B100C92DD0E083E2989EF9
:100A400050011124F501E357FD4F5F01068D178D0D
:100A5000618972898389948925853685478550897E
:100A6000C588D688E788F08C0E941D25A7019601CD
:100A70000E941D256B017C0181E090E0F501978FBC
:100A8000868F05C068E37FEF892D0E94E802892DDB
:100A90000E94CB04C297B0F3C701B6010E94802523
:100AA0000E943B245B01612C712C0DC061E070E061
:100AB000892D0E94E802892D0E94CB04C29730F054
:100AC000FFEF6F1A7F0A6A147B0481F720E030E0A1
:100AD00040E85EE3C701B6010E941D250E94802503
:100AE0000E9436246115710509F06DC020E030E0E8
:100AF00040E45FE3C701B6010E941D250E948025E6
:100B00000E943624685C71096115710509F057C0AF
:100B100083E28C9FF0018D9FF00D1124E357FD4F70
:100B200085E090E0978F868F05C061E070E0892DA9
:100B30000E94E802892D0E94CB04C397B0F783E29C
:100B40008C9FF0018D9FF00D1124E357FD4F178FFF
:100B5000068F648175816115710519F0892D0E94D8
:100B6000E80283E28C9FF0018D9FF00D1124E35782
:100B7000FD4F11821082138212828091B000826038
:100B80008093B00083E78093B3008091700082600F
:100B9000809370001092B2008091B10085608093C4
:100BA000B100DF91CF911F910F91FF90EF90DF90F7
:100BB000CF90BF90AF909F907F906F900895892DB8
:100BC0000E94E802A5CF892D0E94E8028FCFCF9224
:100BD000DF92EF92FF920F931F93CF93DF93F894DE
:100BE000C1E9D2E078E0C72E70E0D72E00E010E037
:100BF000E12CF12CB701645B7F4F42E050E0CE0165
:100C00000E94522AB801645C7F4F44E050E0CE015C
:100C100009960E94522AB801645D7F4F44E050E07B
:100C2000CE010D960E94522AB801645E7F4F44E0C7
:100C300050E0CE0141960E94522AB801645F7F4F76
:100C400044E050E0CE0146960E94522A41E050E036
:100C5000B601CE0145960E94522AB70160507040FD
:100C600042E050E0CE014A960E94522AA39682E0CA
:100C7000E80EF11C0C5F1F4F8FEFC81AD80A88E0EE
:100C8000E816F10409F0B6CF7894DF91CF911F9167
:100C90000F91FF90EF90DF90CF900895CF92DF9269
:100CA000EF92FF920F931F93CF93DF93F894C1E9D4
:100CB000D2E0E8E0CE2EE0E0DE2E00E010E0E12C15
:100CC000F12CB701645B7F4F42E050E0CE010E94FF
:100CD000422AB801645C7F4F44E050E0CE0109969F
:100CE0000E94422AB801645D7F4F44E050E0CE018B
:100CF0000D960E94422AB801645E7F4F44E050E0A6
:100D0000CE0141960E94422AB801645F7F4F44E0C1
:100D100050E0CE0146960E94422A41E050E0B601E2
:100D2000CE0145960E94422AB7016050704042E0D1
:100D300050E0CE014A960E94422AA39682E0E80E35
:100D4000F11C0C5F1F4F8FEFC81AD80A88E0E81615
:100D5000F10409F0B6CF7894DF91CF911F910F91F4
:100D6000FF90EF90DF90CF900895CF93C82F5A9ABD
:100D70000E94DA028C2F8295807F0E94DA0285EE33
:100D800090E00197F1F700C00000CF910895CF9354
:100D9000C82F5A980E94DA028C2F8295807F0E9479
:100DA000DA0281ED90E00197F1F700C00000CF91E9
:100DB00008958AB18C6F8AB98BB183708BB92FE596
:100DC0008AEE90E0215080409040E1F700C00000A2
:100DD00080E30E94DA0287EA91E60197F1F700C00A
:100DE00000005B9A95E89A95F1F700005B9887E818
:100DF00093E10197F1F700C000005B9A95E89A959E
:100E0000F1F700005B9887E893E10197F1F700C0E4
:100E1000000080E20E94DA0287EA91E60197F1F78A
:100E200000C0000088E20E94C7068CE00E94C7064E
:100E300086E00E94C70681E00E94C7068FE097E225
:100E40000197F1F700C00000089581E00E94C706F5
:100E50008FE097E20197F1F700C00000089582E06B
:100E60000E94C7068FE097E20197F1F700C00000EB
:100E70000895623081F050F0633029F0643071F4ED
:100E800080530C94C70680570C94C706613039F420
:100E900080580C94C70680540C94C7060895089592
:100EA000CF93DF93EC018881882331F021960E9453
:100EB000B50689918111FBCFDF91CF910895EF9213
:100EC000FF921F93CF93DF9300D0CDB7DEB728E01A
:100ED000829FC0011124806469837A830E94C706BF
:100EE0006981E62E7A81F72E18E0F70181917F0162
:100EF0000E94B5061150C9F70F900F90DF91CF9166
:100F00001F91FF90EF9008954F925F926F927F92A2
:100F10008F929F92AF92BF92CF92DF92EF92FF9209
:100F20000F931F93CF93DF9300D000D0CDB7DEB7E0
:100F3000F82ECB01BA01A90198010E941D254B0191
:100F40005C0183E2F89E8001112403571D4FD801F4
:100F500051966D917D918D919C9154971D962D91F7
:100F60003D914D915C9150975596CD90DD90ED90CF
:100F7000FC9058970E941D25A70196010E941D25EF
:100F800020E030E044EB53E40E94CE239B01AC010F
:100F9000C501B4010E941D250E9480256B017C01C2
:100FA000F801628073800E943624660D771DD80197
:100FB00013967C936E93129716968D919D910D903A
:100FC000BC91A02D89839A83AB83BC83F80161898E
:100FD0007289838994892585368547855089458816
:100FE00056886788708C0E941D25A30192010E947B
:100FF0001D2520E030E044EB53E40E94CE239B010A
:10100000AC01C501B4010E941D25A70196010E94F3
:1010100065239B01AC0169817A818B819C810E944F
:101020006623D80116966D937D938D939C931997A3
:101030000F900F900F900F90DF91CF911F910F9114
:10104000FF90EF90DF90CF90BF90AF909F908F90E8
:101050007F906F905F904F9008954F925F926F9244
:101060007F928F929F92AF92BF92CF92DF92EF9238
:10107000FF92CF93DF9300D000D0CDB7DEB793E2DD
:10108000899FF0011124E357FD4F458456846784FE
:101090007088258936894789508D81889288A388F0
:1010A000B488882777FD8095982F29833A834B83CE
:1010B0005C830E9469246B017C0129813A814B8108
:1010C0005C81C301B2010E941D25A50194010E940B
:1010D0001D259B01AC0160E070E084EB93E40E946D
:1010E000CE239B01AC01C701B6010E941D250F90C4
:1010F0000F900F900F90DF91CF91FF90EF90DF90C6
:10110000CF90BF90AF909F908F907F906F905F90A7
:101110004F9008954F925F926F927F928F929F921D
:10112000AF92BF92CF92DF92EF92FF920F931F93F5
:10113000CF93DF9300D000D0CDB7DEB7F82ECB0130
:10114000BA01A90198010E941D254B015C0183E2AF
:10115000F89E8001112403571D4FD80151966D91BF
:101160007D918D919C9154971D962D913D914D911E
:101170005C9150975596CD90DD90ED90FC905897EE
:101180000E941D25A70196010E941D2520E030E048
:1011900040E05FE30E941D259B01AC01C501B40145
:1011A0000E941D250E9480256B017C01F801628050
:1011B00073800E943624660D771DD80113967C93A8
:1011C0006E93129716968D919D910D90BC91A02DC6
:1011D00089839A83AB83BC83F8016189728983898F
:1011E000948925853685478550894588568867883E
:1011F000708C0E941D25A30192010E941D2520E0F4
:1012000030E040E05FE30E941D259B01AC01C50179
:10121000B4010E941D25A70196010E9465239B0130
:10122000AC0169817A818B819C810E946623D801FF
:1012300016966D937D938D939C9319970F900F90B5
:101240000F900F90DF91CF911F910F91FF90EF9032
:10125000DF90CF90BF90AF909F908F907F906F90D6
:101260005F904F9008954F925F926F927F928F920E
:101270009F92AF92BF92CF92DF92EF92FF92CF9365
:10128000DF9300D000D0CDB7DEB793E2899FF001A5
:101290001124E357FD4F458456846784708825895F
:1012A00036894789508D81889288A388B488882799
:1012B00077FD8095982F29833A834B835C830E9426
:1012C00069246B017C0129813A814B815C81C301D6
:1012D000B2010E941D25A50194010E941D259B01BC
:1012E000AC0160E070E080E090E40E94CE239B01BE
:1012F000AC01C701B6010E941D250F900F900F9001
:101300000F90DF91CF91FF90EF90DF90CF90BF9043
:10131000AF909F908F907F906F905F904F900895C7
:10132000F894613029F1B8F0623019F00000789437
:10133000089593E2899FF0011124E357FD4F6487DC
:1013400080819181938382838281938101979383AA
:1013500082837894089593E2899FF0011124E357E2
:10136000FD4F1486808191819383828378940895C0
:1013700093E2899FF0011124E357FD4F6487808138
:101380009181938382838281938101969383828367
:1013900078940895E82FF0E0EE0FFF1FE05DFE4F18
:1013A00085919491FC016591749180918B0290914B
:1013B0008C020E942F296AE871E080918B02909143
:1013C0008C020E94412990938C0280938B02E091C1
:1013D0007B02F0917C02BC01808191810E944F29A7
:1013E00066E071E080E090E00E94412990938C02D9
:1013F00080938B02E0917B02F0917C02BC018281A0
:1014000093810E944F2980E090E030E2E0917B02DE
:10141000F0917C02E80FF91FA081B181FD010190DC
:101420000020E9F731972E2F2A1B203178F4E09124
:101430007B02F0917C02E80FF91F0190F081E02D12
:10144000E20FF11D30832F5F203189F7E0917B029D
:10145000F0917C02E80FF91F0190F081E02D108AD5
:1014600002968430910591F608952F923F924F9203
:101470005F926F927F928F929F92AF92BF92CF9224
:10148000DF92EF92FF920F931F93CF93DF93CDB72D
:10149000DEB727970FB6F894DEBF0FBECDBFE82F9B
:1014A000F0E0EE0FFF1FE05DFE4F859194910296F4
:1014B000FC01849190E08C30910508F44BC0000051
:1014C00080E090E030E2E0917702F0917802E80F5E
:1014D000F91FA081B181FD0101900020E9F731974A
:1014E0002E2F2A1B283078F4E0917702F0917802B1
:1014F000E80FF91F0190F081E02DE20FF11D30831C
:101500002F5F283089F7E0917702F0917802E80F99
:10151000F91F0190F081E02D108602968830910528
:1015200091F627960FB6F894DEBF0FBECDBFDF91C0
:10153000CF911F910F91FF90EF90DF90CF90BF90D0
:10154000AF909F908F907F906F905F904F903F9063
:101550002F900895FC01E85CFF4F0C945F23C12C91
:10156000D12C33E2F32E04E312E08091740290E078
:101570000C2C02C0959587950A94E2F780FFFEC275
:101580002EE7FC9CF001FD9CF00D1124E357FD4F6C
:1015900084819581E0917702F09178029F938F93F7
:1015A0001F922F931F930F93C601880F991FE80F67
:1015B000F91F81818F9380818F930E94C229AFEFA1
:1015C000CA1ADA0A0FB6F894DEBF0FBECDBFF4E038
:1015D000CF16D10451F674CFA12CB12C412C512C33
:1015E000B3E29B2E0AE312E081E4C82E82E0D82EFB
:1015F00096E4E92E92E0F92E38018091740290E091
:10160000042C02C0959587950A94E2F780FFB8C232
:101610001EE7949CF001959CF00D1124E357FD4FBB
:1016200082A1882309F4B8C2949CF001959CF00D26
:101630001124E357FD4F82A1813009F442C3949CE9
:10164000F001959CF00D1124E357FD4F82A18230EB
:1016500009F480C32FEF421A520A42E0A40EB11CD3
:1016600084E04816510449F62BCFE0917702F091BF
:101670007802A081B18189E0ECE8F1E001900D925F
:101680008A95E1F7E0917702F0917802A281B38127
:1016900089E0E5E9F1E001900D928A95E1F7E091AA
:1016A0007702F0917802A481B58188E0EEE9F1E05B
:1016B00001900D928A95E1F7E0917702F09178021E
:1016C000A681B78185E0E8E0F1E001900D928A956E
:1016D000E1F7F6CE00E010E0212C312C809174026D
:1016E00090E0022C02C0959587950A94E2F780FF5E
:1016F00042C2FEE7FF8343E2429DF001439DF00DAD
:101700001124E357FD4F818D813009F493C208F411
:1017100074C2823009F057C060817181458456845B
:1017200067847088258936894789508D8188928899
:10173000A388B488A0917702B0917802BA83A98374
:101740001F92B7EFBF93882777FD8095982F2E8340
:101750003B834C835D830E9469246B017C012E8155
:101760003B814C815D81C301B2010E941D25A50111
:1017700094010E941D259B01AC0160E070E080E0B7
:1017800090E40E94CE239B01AC01C701B6010E94E8
:101790001D259F938F937F936F931F92EF81EF93FC
:1017A000A6EBB1E0BF93AF93E981FA81E00FF11F9F
:1017B00081818F9380818F930E94C2290FB6F89404
:1017C000DEBF0FBECDBF9FEF291A390A0E5F1F4F34
:1017D000A4E02A16310409F081CF72CE812C912C1D
:1017E000412C512C43E2742E5FEBE52E51E0F52E97
:1017F00004EC11E069ECA62E61E0B62E70EDC72E68
:1018000071E0D72E8091740290E0042C02C095956F
:1018100087950A94E2F780FFB9C12EE7749CF00126
:10182000759CF00D1124E357FD4F818D882309F439
:10183000CAC1749CF001759CF00D1124E357FD4F53
:10184000818D813009F46CC2749CF001759CF00D9F
:101850001124E357FD4F818D823009F449C2BFEF57
:101860004B1A5B0AE2E08E0E911CF4E04F16510415
:1018700049F626CEC12CD12C33E2F32E07ED11E030
:101880008091740290E00C2C02C0959587950A9483
:10189000E2F780FF77C12EE7FC9CF001FD9CF00D84
:1018A0001124E357FD4F868D978DE0917702F091DB
:1018B00078029F938F931F922F931F930F93C601CC
:1018C000880F991FE80FF91F81818F9380818F9373
:1018D0000E94C2292FEFC21AD20A0FB6F894DEBFB7
:1018E0000FBECDBF94E0C916D10451F6E9CDC12C8D
:1018F000D12C13E2F12E0FED11E08091740290E0F3
:101900000C2C02C0959587950A94E2F780FF31C1AF
:101910002EE7FC9CF001FD9CF00D1124E357FD4FD8
:10192000828D938DA48DB58DE0917702F091780230
:10193000BF93AF939F938F931F922F931F930F93F8
:10194000C601880F991FE80FF91F81818F9380814D
:101950008F930E94C229AFEFCA1ADA0A0FB6F89421
:10196000DEBF0FBECDBFF4E0CF16D10431F6A8CD57
:10197000C12CD12C73E2F72E00EF11E0809174029C
:1019800090E00C2C02C0959587950A94E2F780FFB1
:10199000FBC02EE7FC9CF001FD9CF00D1124E357E9
:1019A000FD4F85859685A785B089E0917702F091F6
:1019B0007802BF93AF939F938F931F922F931F93A0
:1019C0000F93C601880F991FE80FF91F81818F932C
:1019D00080818F930E94C229AFEFCA1ADA0A0FB62C
:1019E000F894DEBF0FBECDBFF4E0CF16D10431F6C0
:1019F00067CDE12CF12C07EE11E080917402970184
:101A000090E00E2C02C0959587950A94E2F780FF2E
:101A1000BFC08EE7E0917702F09178023F932F9359
:101A20001F928F931F930F93C701880F991FE80F81
:101A3000F91F81818F9380818F930E94C2292FEF9C
:101A4000E21AF20A0FB6F894DEBF0FBECDBF94E0E3
:101A5000E916F10491F634CDE0917702F091780225
:101A6000A081B18189E0EEEFF1E001900D928A95BD
:101A7000E1F7E0917702F0917802A281B38189E0E9
:101A8000E7E0F2E001900D928A95E1F7E0917702AC
:101A9000F0917802A481B58189E0E0E1F2E0019063
:101AA0000D928A95E1F7E0917702F0917802A68194
:101AB000B78189E0E9E1F2E001900D928A95E1F7C2
:101AC000FFCCC12CD12C53E2F52E07EF11E0809111
:101AD000740290E00C2C02C0959587950A94E2F769
:101AE00080FF58C02EE7FC9CF001FD9CF00D1124F6
:101AF000E357FD4F85899689A789B08DE0917702DC
:101B0000F0917802BF93AF939F938F931F922F937F
:101B10001F930F93C601880F991FE80FF91F81814A
:101B20008F9380818F930E94C2292FEFC21AD20A0D
:101B30000FB6F894DEBF0FBECDBF94E0C916D10436
:101B400031F6BECCE0917702F0917802A081B181AC
:101B500089E0E2E2F2E001900D928A95E1F7E091EE
:101B60007702F0917802A281B38189E0EBE2F2E0A2
:101B700089CF20E2CECE20E22F83BDCD20E201CD61
:101B800010E247CD20E288CE20E204CF20E246CE0C
:101B900080E240CF20E2A7CFE0917702F091780277
:101BA0001F921F937F926F92EA0DFB1D81818F938D
:101BB00080818F930E94C2290F900F900F900F90F9
:101BC0000F900F9031CDE0917702F0917802FF9263
:101BD000EF921F922F931F930F93E80DF91D8181B0
:101BE0008F9380818F932E830E94C2290FB6F89421
:101BF000DEBF0FBECDBF2E811CCE80819181E091D2
:101C00007702F09178029F938F931F928F818F9329
:101C1000A6EAB1E0BF93AF93E00FF11F81818F93EC
:101C200080818F930E94C2290FB6F894DEBF0FBE49
:101C3000CDBFC9CD60817181458456846784708829
:101C4000258936894789508D81889288A388B488F0
:101C5000A0917702B0917802BA83A9831F92BFED59
:101C6000BF93882777FD8095982F2E833B834C83E5
:101C70005D830E9469246B017C012E813B814C8134
:101C80005D81C301B2010E941D25A50194010E943E
:101C90001D259B01AC0160E070E084EB93E40E94A1
:101CA000CE239B01AC01C701B6010E941D259F9365
:101CB0008F937F936F931F92EF81EF93ADEAB1E023
:101CC00071CDE0917702F09178021F921F93DF921D
:101CD000CF92EA0DFB1D81818F9380818F930E94AB
:101CE000C2290F900F900F900F900F900F90A7CCDC
:101CF000E0917702F0917802DF92CF921F922F93BA
:101D00001F930F93E80DF91D81818F9380818F932D
:101D10000E94C2290FB6F894DEBF0FBECDBF9FCD83
:101D2000E0917702F0917802BF92AF921F922F93C9
:101D30001F930F93E80DF91D81818F9380818F93FD
:101D40002E830E94C2290FB6F894DEBF0FBECDBF0E
:101D50002E817ACDE0917702F09178021F921F9345
:101D6000FF92EF92EA0DFB1D81818F9380818F930B
:101D70000E94C2290F900F900F900F900F900F901C
:101D800069CCCF93DF9380917302823009F483C0D2
:101D9000833051F0813041F00000809171028093D6
:101DA0007302DF91CF910895809170020E94350AED
:101DB000A0917702B0917802E0917502F0917602DD
:101DC0006D917C91808191810E944629892B09F037
:101DD00016C1A0917702B0917802E0917502F0915E
:101DE000760212966D917C911397828193810E9465
:101DF0004629892B09F0E0C0A0917702B0917802C2
:101E0000E0917502F091760214966D917C91159790
:101E1000848195810E944629892B09F0AAC0A0914E
:101E20007702B0917802E0917502F09176021696F1
:101E30006D917C911797868197810E944629892B05
:101E400009F4ABCF88EC0E94C706E0917702F091CD
:101E50007802C681D7818881882331F021960E943B
:101E6000B50689918111FBCFA0917702B0917802DC
:101E7000E0917502F091760216966D917C9117971C
:101E8000868197810E944F2980917102809373020D
:101E9000DF91CF9108959091700280916F02981711
:101EA00009F47BCF80916F020E94CA0980E80E94EA
:101EB000C706E0917B02F0917C02C081D1818881CC
:101EC000882331F021960E94B50689918111FBCFBC
:101ED000A0917B02B0917C02E0917902F0917A02AC
:101EE0006D917C91808191810E944F2980EC0E94AC
:101EF000C706E0917B02F0917C02C281D381888188
:101F0000882331F021960E94B50689918111FBCF7B
:101F1000A0917B02B0917C02E0917902F0917A026B
:101F200012966D917C911397828193810E944F2923
:101F300080916F028093700280E090E028E0E09151
:101F40007502F0917602E80FF91FA081B181ECE4EF
:101F5000F2E0322F01900D923A95E1F702968A3025
:101F6000910569F78091710280937302DF91CF919F
:101F7000089580EC0E94C706E0917702F091780204
:101F8000C481D5818881882331F021960E94B506CD
:101F900089918111FBCFA0917702B0917802E091F5
:101FA0007502F091760214966D917C91159784815B
:101FB00095810E944F2933CF88E80E94C706E0919F
:101FC0007702F0917802C281D3818881882331F031
:101FD00021960E94B50689918111FBCFA0917702CD
:101FE000B0917802E0917502F091760212966D91AF
:101FF0007C911397828193810E944F29FDCE80E8C6
:102000000E94C706E0917702F0917802C081D181E9
:102010008881882331F021960E94B506899181112B
:10202000FBCFA0917702B0917802E0917502F09118
:1020300076026D917C91808191810E944F29C9CE59
:102040003F924F925F926F927F928F929F92AF9248
:10205000BF92CF92DF92EF92FF920F931F93CF9395
:10206000DF9380916E02811104C0809186028823E3
:1020700079F020917002C0917302C23009F43FC020
:102080008C2F8D7F8130B1F010926E0210928602FB
:10209000DF91CF911F910F91FF90EF90DF90CF9044
:1020A000BF90AF909F908F907F906F905F904F9078
:1020B0003F90089580916E0281114AC00000C330A4
:1020C00019F7809186028823F9F2F894209185020D
:1020D0001092850278942223B9F2E0917002F0E028
:1020E000EE0FFF1FE05DFE4F859194910296FC017B
:1020F000849190E08C309105C8F10000C5CF8091AB
:10210000860281111BC080E090E0820F911D27FDA7
:102110009A956CE070E00E94142387FD25C080939F
:102120006F0280916E02882309F4AECF0E944403AF
:102130008111AACF81E080937102A6CFF89480919B
:102140008502109285027894992787FD9095DDCFBE
:102150000E94440390E08B32910508F0AFCFFC0160
:10216000EC5BFF4F0C945F238BE0D9CFFC01E1596E
:10217000FF4F0C945F238091740291E08927809334
:10218000740283E0809371029ACF8091740292E08E
:1021900089278093740283E08093710290CF8091AD
:1021A000740294E089278093740283E08093710223
:1021B00086CF8091740298E089278093740283E02F
:1021C000809371027CCF82E08093710280917002D3
:1021D0008F5F8093700273CF8091720291E08927A4
:1021E000809372026CCF80E090E043E2822E9924CB
:1021F00087FC90942091740230E0082E02C035953F
:1022000027950A94E2F720FF11C0489FF001499FEB
:10221000F00D1124E357FD4F20813181280D391D28
:102220003383228322813381358324830196843052
:10223000910501F729CF0E944E0626CF0E94E7059F
:1022400023CFC0E0D0E013E2712E822E992487FCC8
:102250009094A92CB92C8091740290E00C2E02C0AD
:10226000959587950A94E2F780FF30C07C9E8001A7
:102270007D9E100D112403571D4FF801C588D68887
:10228000E788F08CC501B4010E9469249B01AC0170
:10229000C701B6010E946623F801658B768B878B98
:1022A000908F00007C9E80017D9E100D11240357AD
:1022B0001D4FF801658976898789908D20E030E08F
:1022C00040E85FE30E94CA2387FD76C12196C430AF
:1022D000D10509F0C0CFD8CE80E090E063E2822E35
:1022E000992487FC909441E050E02091740230E002
:1022F000082E02C0359527950A94E2F720FF1BC0EF
:10230000689FF001699FF00D1124E357FD4F268D62
:10231000378D280D391D378F268F0000689FF001FB
:10232000699FF00D1124E357FD4F268D378D232B28
:1023300011F4578F468F019684309105B1F6A4CEE3
:1023400080E090E043E262E051E02091740230E0EE
:10235000082E02C0359527950A94E2F720FF11C098
:10236000489FF001499FF00D1124E357FD4F218D47
:10237000213009F435C108F431C1223009F026C1F9
:10238000118E01968430910501F77ECEC0E0D0E039
:1023900001E010E08091740290E00C2E02C095954F
:1023A00087950A94E2F780FDF6C02196C430D105E6
:1023B00089F76ACEC0E0D0E083E2782E822E99249D
:1023C00087FC9094A92CB92C8091740290E00C2E7B
:1023D00002C0959587950A94E2F780FF21C07C9E04
:1023E00080017D9E100D112403571D4FF801C28CF2
:1023F000D38CE48CF58CC501B4010E94692420E0E3
:1024000030E040E251E40E94CE239B01AC01C701C1
:10241000B6010E946623F801628F738F848F958FB7
:102420002196C430D10581F62FCEE22EFF24E7FCA1
:10243000F094F4E62F02E0011124C12CD12C93E298
:10244000392E822E992487FC9094A92CB92C809146
:10245000740290E00C2C02C0959587950A94E2F7DF
:1024600080FF24C03C9CF0013D9CF00D1124E357FB
:10247000FD4F818D813009F4C0C008F4B3C08230B3
:10248000A9F4428C538C648C758CC501B4010E94F4
:10249000692420E030E040E05EE30E941D25AB01AE
:1024A000BC01930182018C2D0E948A082FEFC21A71
:1024B000D20A34E0C316D10451F6E6CDC0E0D0E034
:1024C00013E2B2E0FB2E01E08C2F2091740230E089
:1024D0000C2E02C0359527950A94E2F720FF1BC009
:1024E0001C9FF0011D9FF00D1124E357FD4F92A199
:1024F000913009F471C008F46DC0923009F068C0E1
:1025000012A21C9FF0011D9FF00D1124E357FD4FF7
:1025100062A10E9490092196C430D105A9F6B4CDDC
:10252000C0E0D0E003E2702E822E992487FC9094C4
:10253000A92CB92C8091740290E00C2E02C09595C4
:1025400087950A94E2F780FF21C07C9E80017D9EE2
:10255000100D112403571D4FF801C584D684E7845C
:10256000F088C501B4010E94692420E030E048EC05
:1025700052E40E94CE239B01AC01C701B6010E9428
:102580006623F801658776878787908B2196C4300C
:10259000D10581F679CD8C2F0E9409052091740216
:1025A000C8010C2E01C0880F0A94EAF7282720934F
:1025B00074020E94C10EF9CE80E090E0A0E8BFE373
:1025C000F801858B968BA78BB08F80CE0000D9CE7B
:1025D000000097CF02A395CFF2A293CF518FD1CE17
:1025E000618FCFCE80917202882309F1828193811D
:1025F0008C0F9D1F9383828359CF80917202428CEE
:10260000538C648C758C8823C9F0C501B4010E9479
:10261000692420E030E040E251E40E941D25AB0136
:10262000BC01930182018C2D0E9484073FCF8281DF
:1026300093818E0D9F1D9383828338CFC501B40192
:102640000E946924AB01BC01930182018C2D0E9480
:1026500084072CCF14B88FEF85B984B5826084BD10
:1026600088EC87BDEEE6F0E080818260808316BC56
:1026700085B5856085BD089580916E02811102C087
:102680008AE208950C94440380918602882339F0ED
:10269000F89480918502109285027894089580E0E4
:1026A0000895EF92FF920F931F93CF93DF9320E053
:1026B00030E080E090E0E0916602F0916702E20F86
:1026C000F31F0190F081E02DE80FF91F10820196B1
:1026D0008431910581F72E5F3F4F2C30310549F74A
:1026E00080917F0281110AC040E8F42E8F2DDF9186
:1026F000CF911F910F91FF90EF90089580917D02EF
:1027000090917E0264E572E00E94412990937E02DE
:1027100080937D02CFE7D2E0E12C60E8F62EFE0147
:1027200005911491F8016591749180917D029091C9
:102730007E020E942629892B31F4F8013396F49009
:10274000F8013296E490229682E0C13BD80739F72F
:102750001E1424F5C1E064E572E080E090E00E9480
:10276000412990937E0280937D0260917D02709159
:102770007E022C2F332727FD309521503048220F21
:10278000331FA0916602B0916702A20FB31F8D9113
:102790009C910E944F29CF5FEC16ECF6E0917D02F0
:1027A000F0917E0280E390E091838083109280021A
:1027B00010927F028F2DDF91CF911F910F91FF908B
:1027C000EF9008952F923F924F925F926F927F9277
:1027D0008F929F92AF92BF92CF92DF92EF92FF9231
:1027E0000F931F93CF93DF93CDB7DEB727970FB625
:1027F000F894DEBF0FBECDBF1B015F834E834AE05E
:1028000050E060E070E00E94F02669836430D0F40C
:1028100069E572E08E819F810E944629892B09F427
:10282000DCC06FE572E08E819F810E944629892B72
:1028300009F475C063E672E08E819F810E9446298B
:10284000892BC9F027960FB6F894DEBF0FBECDBF17
:10285000DF91CF911F910F91FF90EF90DF90CF907C
:10286000BF90AF909F908F907F906F905F904F90B0
:102870003F902F9008958981B3E28B9FF00111243E
:10288000E357FD4F60817181458456846784708869
:10289000258936894789508D81889288A388B48894
:1028A000882777FD8095982F2A833B834C835D830F
:1028B0000E9469246B017C012A813B814C815D81EE
:1028C000C301B2010E941D25A50194010E941D258E
:1028D0009B01AC0160E070E080E090E40E94CE23B8
:1028E0009B01AC01C701B6010E941D259B01AC01F3
:1028F000C1012A833B834C835D830E9424282A8163
:102900003B814C815D810E946523AB01BC0100E0ED
:1029100010E020E83FE389810E948A0893CFA981D3
:1029200093E2A99FF0011124E357FD4F808191812B
:102930004584568467847088258936894789508DF7
:1029400081889288A388B488BC01882777FD809508
:10295000982F2A833B834C835D830E9469246B01FB
:102960007C012A813B814C815D81C301B2010E94BF
:102970001D25A50194010E941D259B01AC0160E06D
:1029800070E084EB93E40E94CE239B01AC01C7016D
:10299000B6010E941D259B01AC01C1012A833B8326
:1029A0004C835D830E9424282A813B814C815D8178
:1029B0000E946523AB01BC0100E010E020E83FE38A
:1029C00089810E94840763E672E08E819F810E9464
:1029D0004629892B09F036CF4ECF8981E82EF12C7C
:1029E0004AE050E060E070E0C1010E94F02623E27E
:1029F0002E9DF0012F9DF00D1124E357FD4F7383A1
:102A000062836FE572E08E819F810E944629892B47
:102A100009F010CF84CFAF92BF92CF92DF92FF9296
:102A20000F931F93CF93DF935B01EA014AE050E0DD
:102A300060E070E00E94F026F62E83E08F15B0F083
:102A400069E572E0CE010E944629892B09F443C052
:102A50006FE572E0CE010E944629892B19F163E6E9
:102A600072E0CE010E944629892B51F0DF91CF916F
:102A70001F910F91FF90DF90CF90BF90AF9008957E
:102A8000E0916602F0916702828193810E9424287E
:102A9000AB01BC0100E010E020E83FE38F2D0E9475
:102AA0008A08E4CFE0916602F09167028281938107
:102AB0000E942428AB01BC0100E010E020E83FE3C5
:102AC0008F2D0E94840763E672E0CE010E944629A2
:102AD000892B61F6D5CFE3E2FE9E800111240357D6
:102AE0001D4FF801C280D3804AE050E060E070E002
:102AF000C5010E94F0266C0D7D1DF8017383628371
:102B00006FE572E0CE010E944629892B09F0A7CF1C
:102B1000C9CF1F93CF93DF93EB014AE050E060E011
:102B200070E00E94F026162F4AE050E060E070E06E
:102B3000CE010E94F026143080F4611107C060E0DD
:102B4000812FDF91CF911F910C94420461E0812F7E
:102B5000DF91CF911F910C944204DF91CF911F918F
:102B600008954F925F926F927F928F929F92AF9251
:102B7000BF92CF92DF92EF92FF920F931F93CF936A
:102B8000DF9300D000D0CDB7DEB77B014AE050E044
:102B900060E070E00E94F026162F643008F080C0DC
:102BA00069E572E0C7010E944629892B09F4D7C064
:102BB0006FE572E0C7010E944629892B09F485C0A0
:102BC00063E672E0C7010E944629892B09F482C09E
:102BD00083E2189FF0011124E357FD4F608171815A
:102BE0004584568467847088258936894789508D45
:102BF00081889288A388B488009187021091880206
:102C0000882777FD8095982F29833A834B835C83AF
:102C10000E9469246B017C0129813A814B815C818E
:102C2000C301B2010E941D25A50194010E941D252A
:102C30009B01AC0160E070E084EB93E40E94CE2342
:102C40009B01AC01C701B6010E941D259F938F9384
:102C50007F936F9380E391E09F938F931F930F93E4
:102C60000E94C2290FB6F894DEBF0FBECDBF80917F
:102C70008702909188020F900F900F900F90DF9134
:102C8000CF911F910F91FF90EF90DF90CF90BF9069
:102C9000AF909F908F907F906F905F904F9008952E
:102CA00080918702909188021F921F932EE031E05D
:102CB0003F932F939F938F930E94C2290F900F9061
:102CC0000F900F900F900F90D2CF93E2199FF001C9
:102CD000112482CF83E2189FF0011124E357FD4FA6
:102CE000608171814584568467847088258936891E
:102CF0004789508D81889288A388B4880091870283
:102D000010918802882777FD8095982F29833A8330
:102D10004B835C830E9469246B017C0129813A8189
:102D20004B815C81C301B2010E941D25A501940164
:102D30000E941D259B01AC0160E070E080E090E402
:102D40000E94CE239B01AC01C701B6010E941D2544
:102D50009F938F937F936F9388E391E07DCF83E27E
:102D6000189FF0011124E357FD4F2081318180919C
:102D70008702909188023F932F9326E231E098CF0B
:102D80004AE050E060E070E00E94F026643018F500
:102D900083E2689FF0011124E357FD4F22813381C4
:102DA00080819181E0918702F0918802281739078C
:102DB00049F081E390E09183808380918702909134
:102DC0008802089580E390E0918380838091870258
:102DD00090918802089580918702909188021F92B5
:102DE0006F932EE031E03F932F939F938F930E9438
:102DF000C2290F900F900F900F900F900F9080911D
:102E000087029091880208954AE050E060E070E007
:102E10000E94F0266430E0F4862F0E94CB042091BB
:102E20008702309188029F938F938FE391E09F9365
:102E30008F933F932F930E94C2290F900F900F9072
:102E40000F900F900F9080918702909188020895C3
:102E500020918702309188021F926F938EE091E05B
:102E6000E6CF4AE050E060E070E00E94F026643077
:102E700008F583E2689FF0011124E357FD4F248198
:102E8000358180918702909188023F932F9326E2AB
:102E900031E03F932F939F938F930E94C2290F900D
:102EA0000F900F900F900F900F908091870290914C
:102EB0008802089580918702909188021F926F93F3
:102EC0002EE031E0E6CF1F93CF93DF93EB014AE092
:102ED00050E060E070E00E94F026162F643098F415
:102EE0004AE050E060E070E0CE010E94F02623E26C
:102EF000129FF0011124E357FD4F75836483DF9126
:102F0000CF911F91089580918702909188021F921E
:102F10001F932EE031E03F932F939F938F930E9456
:102F2000C22980918702909188020F900F900F9094
:102F30000F900F900F90DF91CF911F910C942C0464
:102F40004AE050E060E070E00E94F026643038F51E
:102F500083E2689FF0011124E357FD4F8585968534
:102F6000A785B0892091870230918802BF93AF93E3
:102F70009F938F9383E491E09F938F933F932F933D
:102F80000E94C2298DB79EB708960FB6F8949EBFCF
:102F90000FBE8DBF80918702909188020895809125
:102FA0008702909188021F926F932EE031E03F9349
:102FB0002F939F938F930E94C2290F900F900F9091
:102FC0000F900F900F908091870290918802089542
:102FD0000F931F93CF93DF938B014AE050E060E0A3
:102FE00070E00E94F026C62F6430A8F4C8010E9449
:102FF0002428D0E00E94362423E22C9FF0012D9F4C
:10300000F00D1124E357FD4F75836483DF91CF9159
:103010001F910F91089580918702909188021F92CD
:10302000CF932EE031E03F932F939F938F930E9495
:10303000C22980918702909188020F900F900F9083
:103040000F900F900F90DF91CF911F910F910C94E3
:103050002C044AE050E060E070E00E94F02664300A
:1030600038F583E2689FF0011124E357FD4F818911
:103070009289A389B4892091870230918802BF93F5
:10308000AF939F938F9387E491E09F938F933F93A8
:103090002F930E94C2298DB79EB708960FB6F89459
:1030A0009EBF0FBE8DBF80918702909188020895C8
:1030B00080918702909188021F926F932EE031E0F9
:1030C0003F932F939F938F930E94C2290F900F904D
:1030D0000F900F900F900F9080918702909188022F
:1030E00008951F93CF93DF93EB014AE050E060E037
:1030F00070E00E94F026162F643088F4CE010E9402
:10310000242823E2129FF0011124E357FD4F618B25
:10311000728B838B948BDF91CF911F910895809157
:103120008702909188021F921F932EE031E03F9317
:103130002F939F938F930E94C22980918702909131
:1031400088020F900F900F900F900F900F90DF91CB
:10315000CF911F910C942C044AE050E060E070E0A5
:103160000E94F026643038F583E2689FF001112454
:10317000E357FD4F85899689A789B08D20918702F5
:1031800030918802BF93AF939F938F9387E491E030
:103190009F938F933F932F930E94C2298DB79EB721
:1031A00008960FB6F8949EBF0FBE8DBF8091870220
:1031B00090918802089580918702909188021F92D1
:1031C0006F932EE031E03F932F939F938F930E9454
:1031D000C2290F900F900F900F900F900F90809139
:1031E00087029091880208951F93CF93DF93EB019C
:1031F0004AE050E060E070E00E94F026162F643054
:1032000088F4CE010E94242823E2129FF0011124A9
:10321000E357FD4F658B768B878B908FDF91CF9136
:103220001F91089580918702909188021F921F93A9
:103230002EE031E03F932F939F938F930E94C229FA
:1032400080918702909188020F900F900F900F90BD
:103250000F900F90DF91CF911F910C942C044AE0B6
:1032600050E060E070E00E94F026643008F583E2F0
:10327000689FF0011124E357FD4F268D378D809113
:103280008702909188023F932F932FE331E03F9381
:103290002F939F938F930E94C2290F900F900F90AE
:1032A0000F900F900F90809187029091880208955F
:1032B00080918702909188021F926F932EE031E0F7
:1032C000E6CF1F93CF93DF93EB014AE050E060E03D
:1032D00070E00E94F026162F643088F4CE010E9420
:1032E00024280E943B2423E2129FF0011124E3577B
:1032F000FD4F778F668FDF91CF911F910895A09139
:103300008702B091880283E1EDE4F1E001900D9233
:103310008A95E1F78091870290918802DF91CF91A1
:103320001F910C942C042F923F924F925F926F92B8
:103330007F928F929F92AF92BF92CF92DF92EF9245
:10334000FF920F931F93CF93DF9300D000D0CDB7A0
:10335000DEB71B018A014AE050E060E070E00E94A5
:10336000F026B62E23E0261708F4B1C0C8010E944B
:1033700024286B017C016CE372E0C1010E944629A4
:10338000892B09F47CC00B2D10E093E2B99E9001CB
:10339000112423573D4FD9011D968D909D90AD90DE
:1033A000BC90509751964D905D906D907C90549745
:1033B00055968D919D910D90BC91A02D89839A83F6
:1033C000AB83BC83C701B6019F7720E030E04AE7BA
:1033D00054E40E941D256B017C01A3019201C501EB
:1033E000B4010E941D2529813A814B815C810E9494
:1033F0001D259B01AC01C701B6010E94CE230E948E
:1034000080250E943B246B017C01CB01009709F4CD
:1034100097C06031B7E27B0708F080C069E472E0D2
:10342000C1010E944629892B89F483E2809FF00123
:10343000819FF00D1124E357FD4F81E08487D78EE3
:10344000C68E8281938101969383828368E472E0C1
:10345000C1010E944629892B19F583E2809FF00162
:10346000819FF00D1124E357FD4F82E08487D78EB2
:10347000C68E8281938101979383828311C0F894D1
:1034800083E2B89EF0011124E357FD4F148683E0D8
:1034900090E0978F868F8081918193838283789447
:1034A0000F900F900F900F90DF91CF911F910F9180
:1034B000FF90EF90DF90CF90BF90AF909F908F9054
:1034C0007F906F905F904F903F902F900895A091C4
:1034D0008702B091880283E1EDE4F1E001900D9262
:1034E0008A95E1F780918702909188020F900F9062
:1034F0000F900F90DF91CF911F910F91FF90EF9060
:10350000DF90CF90BF90AF909F908F907F906F9003
:103510005F904F903F902F900C942C04A0918702C5
:10352000B091880283E1E6E7F1E001900D928A957F
:10353000E1F780918702909188020E942C046ECF5F
:10354000A0918702B091880284E1E1E6F1E0C6CF64
:10355000F8940E9461030E94E705789408951F92F1
:103560000F920FB60F9211248F939F93EF93FF93B7
:103570008091C60090917F0291112DC08D3011F184
:103580008A3021F090918002903488F1E0917D02A0
:10359000F0917E0280918002E80FF11D108281E09F
:1035A00080937F02109280028091C00085FFFCCF43
:1035B00086E08093C6008091C00085FFFCCF8AE042
:1035C0008093C600FF91EF919F918F910F900FBE56
:1035D0000F901F9018958091C00085FFFCCF85E16A
:1035E0008093C6008091C00085FFFCCFE8CFE091BA
:1035F0007D02F0917E0290918002E90FF11D80839F
:10360000809180028F5F80938002DCCF1F920F92A7
:103610000FB60F9211248F939F93EF93FF9393B163
:1036200080916E02811139C080916D02882309F466
:103630003DC080916C02891709F442C010926C025F
:1036400010926D02E0916802F0916902EE0FFF1F87
:10365000EE0FFF1FEF70FF27F0936902E0936802FF
:10366000199B05C0E260F0936902E09368021A9B1F
:1036700005C0E160F0936902E0936802EE0FFF1F5E
:10368000EF5DFB4FE491EE2341F0809185028E0FB8
:103690008093850281E080938602FF91EF919F9154
:1036A0008F910F900FBE0F901F90189580916C0214
:1036B000891741F290936C0281E080936D02C2CF32
:1036C00081E080936E02BCCF1F920F920FB60F92D3
:1036D00011242F923F924F925F926F927F928F921E
:1036E0009F92AF92BF92CF92DF92EF92FF920F9391
:1036F0001F932F933F934F935F936F937F938F937A
:103700009F93AF93BF93EF93FF93CF93DF93CDB787
:10371000DEB72997DEBFCDBFEDE8F2E0658576859F
:10372000878590892189328943895489C588D688BB
:10373000E788F08C0E941D25A70196010E941D2597
:103740002B013C019E012F5F3F4F5901C12CD12C11
:10375000E12CF12C812C198633E2932E2224239420
:10376000312C9E9C80019F9C100D112403571D4FEE
:10377000F8018281938120813181821B930BF501B5
:10378000819391935F01009709F440C0F80120A153
:1037900031A1232B09F4E7C080A191A1019791A346
:1037A00080A3668177818085918520E030E040E8C4
:1037B0005FE30E9419251816ACF4F8018281938109
:1037C000019693838283668177818085918520E04D
:1037D00030E040E85FE30E946523F8016683778369
:1037E000808791879E9C80019F9C100D1124035718
:1037F0001D4FF801668177818085918520E030E05A
:1038000040E85FEB0E94CA2387FD08C12FEFE21A50
:10381000F20A32E0C30ED11C84E0E816F10409F08C
:10382000A0CF88B19985892B88B9E1E2EA95F1F7B3
:10383000000088B1882988B9FDE0FA95F1F7000009
:1038400018B89E012F5F3F4F690100E010E023E2AE
:10385000B22EB09E7001B19EF00C1124C7018357A7
:103860009D4F7C01FC018285882309F44AC0F60142
:1038700080819181181619060CF08DC0F7016081C6
:103880007181882777FD8095982F0E94692420E018
:1038900030E040E85FE30E9466239B01AC01C30176
:1038A000B2010E94CA2387FF10C0F7011182108263
:1038B00082809380C301B2010E9480250E94362439
:1038C000861A970AF70193828282B09EF001B19E18
:1038D000F00D1124E357FD4F808191810196918372
:1038E00080838485882329F0828193810196938344
:1038F0008283B09EF001B19EF00D1124E357FD4F7D
:1039000012860F5F1F4FF2E0CF0ED11C043011055D
:1039100009F09FCF29960FB6F894DEBF0FBECDBF3A
:10392000DF91CF91FF91EF91BF91AF919F918F91D7
:103930007F916F915F914F913F912F911F910F91C7
:10394000FF90EF90DF90CF90BF90AF909F908F90BF
:103950007F906F905F904F903F902F900F900FBE91
:103960000F901F90189521E0F801228797FD42C023
:10397000C1010C2C01C0880F0A94EAF7882A9E9C8A
:10398000F0019F9CF00D1124E357FD4F868D978D1C
:1039900091A380A33BCF892B09F4ABCFF7016081C2
:1039A0007181882777FD8095982F0E94692420E0F7
:1039B00030E040E85FE30E94652320E030E0A901A9
:1039C0000E94CA2387FD40C0B09EF001B19EF00D59
:1039D0001124E357FD4F808191810197918380836A
:1039E0008485882309F485CF82819381019793830D
:1039F00082837FCFC6010196F10102C0EE0FFF1F47
:103A00008A95E2F7CF01F985F82BF987C1010C2CD3
:103A100001C0880F0A94EAF7882AB1CFF8018281A1
:103A200093810197938382836681778180859185D5
:103A300020E030E040E85FE30E946623F8016683FF
:103A4000778380879187E2CEC301B2010E948025EF
:103A50000E943624F7017183608322813381260F0F
:103A6000371F33832283B0CFA3E1B0E0EAE3FDE167
:103A70000C9428237C011B016A01FC011782168229
:103A8000838181FF66C3BE016F5F7F4F4B01F701EA
:103A90009381F10193FD859193FF81911F0188230B
:103AA00009F453C3853239F493FD859193FF8191D5
:103AB0001F01853239F4B70190E00E949029560128
:103AC0006501E5CF10E0512C20E02032A0F48B32CC
:103AD00069F030F4803259F0833269F420612CC0EF
:103AE0008D3239F0803339F4216026C022602460A1
:103AF00023C0286021C027FD27C030ED380F3A30A1
:103B000078F426FF06C0FAE01F9F300D1124132F12
:103B100013C06AE0569E300D1124532E20620CC053
:103B20008E3221F426FD11C3206406C08C3611F4B8
:103B3000206802C0883641F4F10193FD859193FF1E
:103B400081911F018111C1CF9BEB980F933018F425
:103B50002061805E06C09BE9980F933008F0AAC1EF
:103B60002F7E26FF16E02F73722E853621F4F22F5A
:103B7000F0647F2E08C0863621F4622F6068762EAE
:103B800002C01111115077FE07C01C3348F44424C1
:103B90004394410E27E00BC0183030F4212F06C0AB
:103BA00027E04CE3442E03C027E017E0412C5601E8
:103BB00074E0A70EB11CF60160817181828193814E
:103BC000042DA4010E9446286C01098100FF02C057
:103BD00003FF06C071FC07C072FC08C0612C08C05E
:103BE0003DE2632E05C02BE2622E02C090E2692EF8
:103BF000802F8C7099F1662011F084E001C083E081
:103C0000851510F0512C0BC0581A73FC08C0B70171
:103C100080E290E00E9490295A94C9F7F3CF662081
:103C200029F0B701862D90E00E94902903FD03C082
:103C30000CE211E002C008E211E0F72DF0717F2ED6
:103C4000F8018491882309F476C271108052B7017B
:103C500090E00E9490290F5F1F4FF2CF77FE0FC0B8
:103C60004C0C04FF04C08A81813309F44A94141473
:103C700074F5F8E0F41578F588E0482E2CC076FC51
:103C80002AC0812F90E08C159D059CF06CEFC61624
:103C90006FEFD60674F0772D7068772E0AC0E2E0D9
:103CA000F0E0EC0FFD1FE10FF11D8081803319F46E
:103CB00011501111F4CF77FE0EC044244394410EED
:103CC000812F90E0C816D9062CF41C1904C0442496
:103CD000439401C010E077FE07C01C141D043CF49F
:103CE00096012F5F3F4F05C025E030E002C021E084
:103CF00030E0662011F02F5F3F4F112331F0412F4C
:103D000050E04F5F5F4F240F351F452D50E02417C3
:103D1000350714F4521A01C0512C872D897049F4CB
:103D2000552039F0B70180E290E00E9490295A9422
:103D3000F7CF662029F0B701862D90E00E949029E8
:103D400073FC09C0552039F0B70180E390E00E9470
:103D500090295A94F7CF77FE5FC09C2D8D2DD7FE0A
:103D600002C090E080E0692E782E40E050E0C6016D
:103D7000841991099D878C87960126193709280D8A
:103D8000391D812F90E0EE27FF27E81BF90BFF87F5
:103D9000EE87FFEF6F167F0669F4B7018EE290E0C1
:103DA0002B8B3A8B488B598B0E94902959894889D3
:103DB0003A892B89C614D70454F06C857D85661525
:103DC00077052CF4F901E40FF51F818101C080E330
:103DD00071E0671A71084F5F5F4FEE85FF856E16C1
:103DE0007F066CF0B70190E02B8B3A8B488B598B98
:103DF0000E9490292B893A8948895989CACF6C1425
:103E00007D0439F49A81963318F4953311F404FF44
:103E100081E3B70190E04BC08A81813309F00F7EC6
:103E2000B70190E00E949029111105C074FE18C0DE
:103E300085E490E017C0B7018EE290E00E949029DF
:103E400082E066246394680EF401E80FF11D80811E
:103E5000B70190E00E949029115041F3862DF1CFD7
:103E600085E690E0B7010E949029D7FC05C0C114F7
:103E7000D10439F404FF05C0D194C194D1088DE276
:103E800001C08BE2B70190E00E94902980E36AE0D4
:103E9000C616D1042CF08F5FFAE0CF1AD108F7CF05
:103EA000B70190E00E949029B701C601C0960E9418
:103EB000902941C1833631F0833779F0833509F099
:103EC00058C021C0560172E0A70EB11CF6018081D6
:103ED000898301E010E0640114C05601F2E0AF0EE6
:103EE000B11CF601C080D18026FF03C0612F70E0B5
:103EF00002C06FEF7FEFC6012B8B0E9456298C0109
:103F00002B892F7715C05601F2E0AF0EB11CF601D8
:103F1000C080D18026FF03C0612F70E002C06FEF28
:103F20007FEFC6012B8B0E9436298C012B892068DC
:103F3000722E23FD1AC0852D90E008171907A8F4EA
:103F4000B70180E290E00E9490295A94F4CFF601E4
:103F500077FC859177FE81916F01B70190E00E9417
:103F6000902951105A94015011090115110579F742
:103F7000E2C0843611F0893651F5560127FF09C099
:103F8000F4E0AF0EB11CF6016081718182819381F2
:103F90000AC0F2E0AF0EB11CF60160817181882782
:103FA00077FD8095982F022F0F7697FF08C0909588
:103FB0008095709561957F4F8F4F9F4F00682AE0E5
:103FC00030E0A4010E94E429C82EC8183EC0022F88
:103FD000853721F40F7E2AE030E01DC0097F8F363F
:103FE00091F018F4883559F0B0C0803719F088374F
:103FF00011F0ABC0006104FF09C0046007C024FFDA
:1040000008C0066006C028E030E005C020E130E0CE
:1040100002C020E132E0560107FF09C0F4E0AF0E14
:10402000B11CF601608171818281938108C0F2E048
:10403000AF0EB11CF6016081718180E090E0A401B7
:104040000E94E429C82EC8180F7706FF0BC0202F46
:104050002E7FC11650F404FF0AC002FD08C0202FB5
:104060002E7E05C0DC2C202F03C0DC2C01C0D12EFD
:1040700024FF0DC0FE01EC0DF11D8081803311F491
:10408000297E09C022FF06C0D394D39404C0822F96
:10409000867809F0D39423FD13C020FF06C01C2DA1
:1040A000D51418F4150D1D19D52CD51468F4B701C5
:1040B00080E290E02B8B0E949029D3942B89F5CF3E
:1040C000D51410F45D1801C0512C24FF12C0B701A3
:1040D00080E390E02B8B0E9490292B8922FF17C050
:1040E00021FF03C088E590E002C088E790E0B701B7
:1040F0000CC0822F867859F021FD02C080E201C0F9
:104100008BE227FD8DE2B70190E00E949029C11655
:1041100038F4B70180E390E00E9490291150F7CF66
:10412000CA94F401EC0DF11D8081B70190E00E946A
:104130009029C110F5CF552009F4C2CCB70180E217
:1041400090E00E9490295A94F6CFF70186819781DA
:1041500002C08FEF9FEF6396E2E10C9444238CE062
:1041600090E00E94C92580936602909367028C01BB
:10417000C0E0D0E084E190E00E94C925F801EC0F96
:10418000FD1F9183808380E090E0E0916602F091D2
:104190006702EC0FFD1F0190F081E02DE80FF91F81
:1041A000108201968431910581F72296CC30D10599
:1041B00029F00091660210916702DCCF88E090E060
:1041C0000E94C925909376028093750288E090E062
:1041D0000E94C9259093780280937702C0E0D0E0D6
:1041E000009175021091760289E090E00E94C92545
:1041F000F801EC0FFD1F91838083009177021091ED
:10420000780289E090E00E94C925F801EC0FFD1FBB
:104210009183808380E090E0E0917502F0917602D6
:10422000EC0FFD1F0190F081E02DE80FF91F1082C7
:10423000E0917702F0917802EC0FFD1F0190F08180
:10424000E02DE80FF91F108201968930910521F7C2
:104250002296C830D10521F684E090E00E94C9255D
:1042600090937A028093790284E090E00E94C925BD
:1042700090937C0280937B02C0E0D0E000917902B1
:1042800010917A0281E190E00E94C925F801EC0FBB
:10429000FD1F9183808300917B0210917C0281E15C
:1042A00090E00E94C925F801EC0FFD1F91838083E7
:1042B00080E090E0E0917902F0917A02EC0FFD1F2E
:1042C0000190F081E02DE80FF91F1082E0917B0250
:1042D000F0917C02EC0FFD1F0190F081E02DE80FC2
:1042E000F91F108201968131910521F72296C43081
:1042F000D10521F680E490E00E94C92590937E02CA
:1043000080937D0280E490E00E94C925909388020A
:10431000809387021092C50085E18093C40080914C
:10432000C10088698093C10088E290E00E94C9259D
:1043300080938B0290938C029C0180E090E004C0FB
:1043400020918B0230918C02F901E80FF91F108245
:10435000019688329105A1F710E4D3E8C3E70E94E3
:1043600061030E94D90610937C00D0937A0080915B
:104370007A00806480937A0080917A0086FDFCCF79
:1043800080917800909179008091B0008260809354
:10439000B000C093B3008091700082608093700081
:1043A0001092B2008091B10085608093B1000E94AC
:1043B0002A1300E061E0802F0E9442040F5F043066
:1043C000C9F70E944E060E94C10E78940E942010E8
:1043D0000E94C10E0E94511390E0FC01E058F109C7
:1043E000E931F10510F00000F1CFE558FF4F0C94D2
:1043F0005F23F8940E9461030E94E7057894F89483
:104400000E948904ACCFE0916602F091670244817A
:10441000558162817381808191810E949319D6CFE9
:10442000E0916602F09167026281738180819181DF
:104430000E946119CBCFE0916602F0916702808102
:1044400091810E942F190E942C04C0CFE091660236
:10445000F091670262817381808191810E94F418DA
:10446000B5CFE0916602F0916702808191810E9450
:10447000AC180E942C04AACFE0916602F09167026A
:1044800062817381808191810E9471189FCFE09138
:104490006602F0916702808191810E9429180E9432
:1044A0002C0494CFE0916602F091670262817381DF
:1044B000808191810E94E81789CFE0916602F09196
:1044C0006702808191810E94A0170E942C047ECFF8
:1044D000E0916602F091670262817381808191812F
:1044E0000E94631773CFE0916602F09167028081AA
:1044F00091810E9431170E942C0468CFE0916602DE
:10450000F0916702808191810E9404170E942C041F
:104510005DCFE0916602F0916702808191810E94F7
:10452000C0160E942C0452CF0E944E064FCF0E940C
:10453000E7054CCFE0916602F091670262817381DA
:10454000808191810E94B1150E942C043FCFE0919F
:104550006602F091670262817381808191810E947D
:10456000891534CFE0916602F091670280819181D4
:104570000E9428280E94090529CFE0916602F09147
:1045800067024481558162817381808191810E949B
:104590000B151CCFE0916602F091670244815581B2
:1045A00062817381808191810E94E2130FCFE0913B
:1045B0006602F0916702A081B181FD0101900020A7
:1045C000E9F73197EA1BFB0B759708F0FFCE45E141
:1045D00050E064E570E0CD010E94522AF7CE809150
:1045E00087029091880245E150E064E570E00E9406
:1045F000422A80918702909188020E942C04E6CE84
:10460000AA1BBB1B51E107C0AA1FBB1FA617B707F8
:1046100010F0A61BB70B881F991F5A95A9F7809514
:104620009095BC01CD01089597FB072E16F40094D8
:1046300007D077FD09D00E94002307FC05D03EF487
:10464000909581959F4F0895709561957F4F08953E
:104650002F923F924F925F926F927F928F929F9292
:10466000AF92BF92CF92DF92EF92FF920F931F9380
:10467000CF93DF93CDB7DEB7CA1BDB0B0FB6F89431
:10468000DEBF0FBECDBF09942A88398848885F8471
:104690006E847D848C849B84AA84B984C884DF80E2
:1046A000EE80FD800C811B81AA81B981CE0FD11DC6
:1046B0000FB6F894DEBF0FBECDBFED010895EE0F2B
:1046C000FF1F0590F491E02D09945058BB27AA27AD
:1046D0000ED075C166D130F06BD120F031F49F3F20
:1046E00011F41EF45BC10EF4E095E7FB51C1E92F14
:1046F00077D180F3BA17620773078407950718F01C
:1047000071F49EF58FC10EF4E0950B2EBA2FA02DFB
:104710000B01B90190010C01CA01A0011124FF276E
:10472000591B99F0593F50F4503E68F11A16F04069
:10473000A22F232F342F4427585FF3CF4695379568
:104740002795A795F0405395C9F77EF41F16BA0B2D
:10475000620B730B840BBAF09150A1F0FF0FBB1FDB
:10476000661F771F881FC2F70EC0BA0F621F731F24
:10477000841F48F4879577956795B795F7959E3F81
:1047800008F0B3CF9395880F08F09927EE0F97950F
:1047900087950895D9D008F481E008950CD00FC111
:1047A00007D140F0FED030F021F45F3F19F0F0C0A7
:1047B000511139C1F3C014D198F39923C9F355238A
:1047C000B1F3951B550BBB27AA2762177307840704
:1047D00038F09F5F5F4F220F331F441FAA1FA9F3BA
:1047E00033D00E2E3AF0E0E830D091505040E695AC
:1047F000001CCAF729D0FE2F27D0660F771F881F0D
:10480000BB1F261737074807AB07B0E809F0BB0BFB
:10481000802DBF01FF2793585F4F2AF09E3F51051F
:1048200068F0B6C000C15F3FECF3983EDCF38695BC
:1048300077956795B795F7959F5FC9F7880F911D95
:104840009695879597F90895E1E0660F771F881F81
:10485000BB1F621773078407BA0720F0621B730B34
:10486000840BBA0BEE1F88F7E095089504D0689486
:10487000B111D9C00895BCD088F09F5790F0B92FDE
:104880009927B751A0F0D1F0660F771F881F991FA5
:104890001AF0BA95C9F712C0B13081F0C3D0B1E0B7
:1048A0000895C0C0672F782F8827B85F39F0B93FC7
:1048B000CCF3869577956795B395D9F73EF49095A7
:1048C0008095709561957F4F8F4F9F4F0895E89425
:1048D00009C097FB3EF490958095709561957F4F48
:1048E0008F4F9F4F9923A9F0F92F96E9BB279395F6
:1048F000F695879577956795B795F111F8CFFAF406
:10490000BB0F11F460FF1BC06F5F7F4F8F4F9F4F36
:1049100016C0882311F096E911C0772321F09EE894
:10492000872F762F05C0662371F096E8862F70E0FA
:1049300060E02AF09A95660F771F881FDAF7880FD4
:104940009695879597F90895990F0008550FAA0B2A
:10495000E0E8FEEF16161706E807F907C0F0121692
:104960001306E407F50798F0621B730B840B950B95
:1049700039F40A2661F0232B242B252B21F40895EA
:104980000A2609F4A140A6958FEF811D811D089587
:1049900097F99F6780E870E060E008959FEF80ECF2
:1049A000089500240A941616170618060906089595
:1049B00000240A9412161306140605060895092EFB
:1049C0000394000C11F4882352F0BB0F40F4BF2B6A
:1049D00011F460FF04C06F5F7F4F8F4F9F4F0895AA
:1049E00057FD9058440F551F59F05F3F71F04795A0
:1049F000880F97FB991F61F09F3F79F08795089585
:104A0000121613061406551FF2CF4695F1DF08C0A3
:104A1000161617061806991FF1CF869571056105C0
:104A200008940895E894BB2766277727CB0197F968
:104A300008958ADF08F48FEF08950BD0C0CFB1DF5F
:104A400028F0B6DF18F0952309F0A2CFA7CF1124E4
:104A5000EACFC6DFA0F3959FD1F3950F50E0551F25
:104A6000629FF001729FBB27F00DB11D639FAA27C3
:104A7000F00DB11DAA1F649F6627B00DA11D661F12
:104A8000829F2227B00DA11D621F739FB00DA11D33
:104A9000621F839FA00D611D221F749F3327A00DED
:104AA000611D231F849F600D211D822F762F6A2F89
:104AB00011249F5750408AF0E1F088234AF0EE0F0E
:104AC000FF1FBB1F661F771F881F91505040A9F71B
:104AD0009E3F510570F05CCFA6CF5F3FECF3983E50
:104AE000DCF3869577956795B795F795E7959F5F82
:104AF000C1F7FE2B880F911D9695879597F908951C
:104B000077DFE0F09E37D8F09639B8F49E3848F455
:104B1000672F782F8827985FF9CF869577956795C7
:104B200093959539D0F3B62FB1706B0F711D811D20
:104B300020F4879577956795939502C01CC073CF35
:104B4000882371F4772321F09850872B762F07C0A4
:104B5000662311F499270DC09051862B70E060E018
:104B60002AF09A95660F771F881FDAF7880F9695B7
:104B7000879597F908959F3F31F0915020F48795DC
:104B800077956795B795880F911D9695879597F9B5
:104B90000895CF93DF938230910510F482E090E086
:104BA000E0911D03F0911E0320E030E0A0E0B0E0B2
:104BB000309739F14081518148175907B8F04817AB
:104BC000590771F482819381109729F013969C9371
:104BD0008E9312972CC090931E0380931D0327C0C1
:104BE0002115310531F04217530718F0A901DB01F7
:104BF00001C0EF019A01BD01DF010280F381E02DC8
:104C0000D7CF21153105F9F0281B390B2430310598
:104C100080F48A819B816115710521F0FB019383EA
:104C2000828304C090931E0380931D03FE0132967D
:104C300044C0FE01E20FF31F81939193225031098A
:104C4000398328833AC020911B0330911C03232B06
:104C500041F4209102013091030130931C03209311
:104C60001B0320910001309101012115310541F410
:104C70002DB73EB74091040150910501241B350B1F
:104C8000E0911B03F0911C03E217F307A0F42E1B25
:104C90003F0B2817390778F0AC014E5F5F4F2417A0
:104CA000350748F04E0F5F1F50931C0340931B03C2
:104CB0008193919302C0E0E0F0E0CF01DF91CF91CA
:104CC0000895CF93DF93009709F487C0FC013297D2
:104CD00013821282C0911D03D0911E03209781F48C
:104CE00020813181280F391F80911B0390911C0373
:104CF0008217930779F5F0931C03E0931B036DC0B3
:104D0000DE0120E030E0AE17BF0750F412964D915F
:104D10005C9113979D014115510509F1DA01F3CF1B
:104D2000B383A28340815181840F951F8A179B070B
:104D300071F48D919C911197840F951F0296918328
:104D4000808312968D919C91139793838283211572
:104D5000310529F4F0931E03E0931D033EC0D901F1
:104D60001396FC93EE9312974D915D91A40FB51F8E
:104D7000EA17FB0779F480819181840F951F0296D1
:104D8000D90111969C938E938281938113969C9363
:104D90008E931297E0E0F0E08A819B81009719F0F2
:104DA000FE01EC01F9CFCE01029628813981820FF4
:104DB000931F20911B0330911C032817390769F4B6
:104DC000309729F410921E0310921D0302C0138223
:104DD0001282D0931C03C0931B03DF91CF910895DF
:104DE0002F923F925F926F927F928F929F92AF929B
:104DF000BF92CF92DF92EF92FF920F931F93CF93C8
:104E0000DF938B01EA016115710521F0DB018C93C1
:104E100011969C93209739F09E012250310923323C
:104E2000310508F0FBC07C016701BFEFCB1ADB0A3C
:104E30005601F7016080862D90E00E941E29892B83
:104E400011F07601F1CFFDE26F120AC0570182E046
:104E5000A80EB11CD70111966C90772473940BC0E7
:104E6000BBE26B1207C05701E2E0AE0EB11CD701E6
:104E700011966C90712CCE018F7E892B89F4B0E352
:104E80006B1222C0F50180818F7D883541F56180EC
:104E9000F2E0AF0EB11C872D8260782EC0E1D0E029
:104EA000C830D105F1F04CF4C230D10511F5C12C58
:104EB000D12CE12CB0E4FB2E2FC0CA30D10531F04B
:104EC000C031D10521F115C0209751F7CAE0D0E0DB
:104ED000ACECCA2EDC2CEC2CACE0FA2E1DC02097DA
:104EE000F9F6C8E0D0E0C12CD12CE12CF0E1FF2E86
:104EF00013C060E070E080E090E89E01442737FD39
:104F00004095542F0E94112C69017A0105C0C12CD3
:104F1000D12CE12CE8E0FE2EF50160E020E030E04D
:104F2000A9014E01AA2497FCA094BA2C1F0170ED90
:104F3000572E560CA9E0A51570F48FEB860D8A311B
:104F400018F499EC592E06C08FE9860D8A3130F598
:104F500089EA582E560C852D90E08C179D07F4F4A5
:104F600067FD18C0C216D306E406F50680F0C50139
:104F7000B4010E94012C9B01AC01250D311D411D86
:104F8000511D213031054105B0E85B0710F06FEF8E
:104F900001C061E03196D1016C90C8CF872D81703E
:104FA0000115110571F0662329F03197D801ED93B1
:104FB000FC9307C071FE19C03297D801ED93FC93A2
:104FC00014C067FF12C0882329F020E030E040E0E1
:104FD00050E804C02FEF3FEF4FEF5FE782E290E031
:104FE0009093200380931F0316C0882341F05095AF
:104FF0004095309521953F4F4F4F5F4F0CC057FF65
:105000000AC082E290E09093200380931F032FEF69
:105010003FEF4FEF5FE7B901CA0104C060E070E005
:1050200080E090E0DF91CF911F910F91FF90EF9082
:10503000DF90CF90BF90AF909F908F907F906F90B8
:105040005F903F902F900895662777270C94742ADD
:10505000FC0188279927E89421912032E9F329302F
:1050600010F02E30C8F32B3241F02D3239F4689411
:1050700004C00E948829820F911D219120532A305B
:10508000C0F31EF4909581959F4F0895283008F045
:1050900027E03327DA01990F311D87FD91600096D3
:1050A0006105710539F432602E5F3D9330E32A9536
:1050B000E1F708959F3F30F080387105610509F0F0
:1050C0003C5F3C5F3D93913008F08068911DDF9319
:1050D000CF931F930F93FF92EF92192F987F96957E
:1050E000E92F96959695E90FFF27E556FB4F9927EF
:1050F0003327EE24FF24A701E701059008940794C5
:1051000028F4360FE71EF81E491F511D660F771F42
:10511000881F991F0694A1F70590079428F4E70EBD
:10512000F81E491F561FC11D770F881F991F661F44
:105130000694A1F70590079428F4F80E491F561F0E
:10514000C71FD11D880F991F661F771F0694A1F7EF
:105150000590079420F4490F561FC71FD81F990FB9
:10516000661F771F881F0694A9F784911095177002
:1051700041F0D695C79557954795F794E7941A95BA
:10518000C1F7E1E4F4E068941590159135916591CB
:10519000959105907FE27395E118F10A430B560B48
:1051A000C90BD009C0F7E10CF11E431F561FC91FE0
:1051B000D01D7EF4703311F48A95E6CFE894015047
:1051C00030F0080F0AF40027021708F4202F239567
:1051D000022F7A3328F079E37D932A95E9F710C0FE
:1051E0007D932A9589F60694979567953795179537
:1051F0001794E118F10A430B560BC90BD00998F02C
:1052000023957E9173957A3308F070E37C93201395
:10521000B8F77E9170617D9330F0839571E37D9353
:1052200070E32A95E1F71124EF90FF900F911F9101
:10523000CF91DF91992787FD909508959111BBC279
:10524000803219F089508550D0F70895FB01DC01B8
:105250008D91059080190110D9F3990B0895FB01E8
:10526000DC0105900D920020E1F70895FC01059006
:10527000615070400110D8F7809590958E0F9F1F58
:1052800008954AE652E00E9461290895FB01DC017D
:105290008D91019080190110D9F3990B0895FB01AC
:1052A000DC0101900D920020E1F70895FC016150AE
:1052B000704001900110D8F7809590958E0F9F1F38
:1052C0000895FA01A191B081009719F41097E1F0C7
:1052D000CD01DC01CD010D90002011F4C00113C0FF
:1052E000FB012191222319F02015D9F7F3CFFB01FF
:1052F0002191201519F41E92119606C02223C1F7A0
:105300000D900020A1F7D001FA01A193B083089578
:105310007AE0979F902D879F802D910D11240895FD
:105320000F931F93CF93DF93182F092FEB018B81DE
:1053300081FD03C08FEF9FEF20C082FF10C04E8120
:105340005F812C813D81421753077CF4E881F9810C
:105350009F012F5F3F4F39832883108306C0E88564
:10536000F985812F0995892B29F72E813F812F5FA0
:105370003F4F3F832E83812F902FDF91CF911F913D
:105380000F910895AEE0B0E0E8ECF9E20C9436231A
:105390000D891E8986E08C831A8309838FEF9FE72E
:1053A0009E838D83AE01475E5F4F6F89788DCE01FE
:1053B00001960E94341DEF81F885E00FF11F1082E5
:1053C0002E96E4E00C945223FA01AA27283051F1DA
:1053D000203181F1E8946F936E7F6E5F7F4F8F4F26
:1053E0009F4FAF4FB1E03ED0B4E03CD0670F781F85
:1053F000891F9A1FA11D680F791F8A1F911DA11D6A
:105400006A0F711D811D911DA11D20D009F46894A2
:105410003F912AE0269F11243019305D3193DEF64A
:10542000CF010895462F4770405D4193B3E00FD000
:10543000C9F7F6CF462F4F70405D4A3318F0495DEB
:1054400031FD4052419302D0A9F7EACFB4E0A695CE
:105450009795879577956795BA95C9F700976105F0
:10546000710508959B01AC010A2E06945795479546
:1054700037952795BA95C9F7620F731F841F951F3B
:10548000A01D0895DC01CB01FC01F999FECF06C0F7
:10549000F2BDE1BDF89A319600B40D9241505040F2
:1054A000B8F70895DC01A40FB51F4150504048F0F3
:1054B000CB01840F951F2E910E94632A41505040CA
:1054C000D0F70895262FF999FECF92BD81BDF89AA5
:1054D000019700B4021639F01FBA20BD0FB6F89438
:1054E000FA9AF99A0FBE0895A0E0B0E0EAE7FAE26E
:1054F0000C942A238B016115710521F0DB018C933B
:1055000011969C93EC015E01BFEFAB1ABB0A7501CB
:10551000C8808C2D90E00E941E29892B11F0E50196
:10552000F2CFEDE2CE1208C07E01F2E0EF0EF11CE8
:10553000C980DD24D39409C02BE2C21205C07E01CC
:1055400042E0E40EF11CC980D12CE701219743E031
:1055500050E063E475E0CE010E94DE2B892BD1F48C
:10556000E701229645E050E06EE375E0CE010E942F
:10557000DE2B892B11F4E70127960115110519F08F
:10558000D801CD93DC93D11008C160E070E080E8D1
:105590009FE70CC143E050E06BE375E0CE010E9451
:1055A000DE2B892B59F40115110509F4FBC0B2E07B
:1055B000EB0EF11CF801F182E082F4C0F70160E02B
:1055C00070E0CB01C0E0D0E07F01A0EDAA2EAC0CD2
:1055D00029E02A1530F14D2D4260B42E2D2D287072
:1055E000D2FE04C0211125C0219623C0211121978C
:1055F000A5E0B0E09B01AC010E94F62B660F771F7F
:10560000881F991F6A0D711D811D911D6839A9E9B7
:105610007A078A07A9E19A0760F0BD2DB660BB2E14
:1056200008C02EEFA2120AC0D3FC50C04D2D486016
:10563000B42E3196D701CC90DB2CC6CF2C2D2F7DEC
:10564000253409F043C0A081AD3241F4BD2DB061D5
:10565000DB2E7F0122E0E20EF11C0CC07F01AB3299
:1056600031F04FEFE41AF40A21E030E006C0A2E086
:10567000EA0EF11CA18122E030E0A053AA3018F01C
:10568000E21AF30A23C0F70120E030E02038BCE042
:105690003B075CF4A901440F551F440F551F240F0D
:1056A000351F220F331F2A0F311DAF014F5F5F4F90
:1056B0007A01A081A053AA3010F4FA01E7CFD4FEFA
:1056C00003C0319521953109C20FD31FD1FE09C006
:1056D0000115110531F0E1E0EE1AF108D801ED9263
:1056E000FC920E9467242D2D2370233019F06B014A
:1056F0007C0106C06B017C01F7FAF094F7F8F09496
:1057000020E030E0A901C701B6010E94CA23882326
:1057100009F440C0D7FF06C0D195C195D1090AE56B
:1057200015E002C002E715E04801B8E18B1A9108C4
:1057300090E2A92EB12CF801459055906590749097
:10574000CA15DB055CF0A3019201C701B6010E94F6
:105750001D256B017C01CA19DB09F2CF0450110928
:10576000B594A7940815190531F78E2D880F8F2D44
:10577000881F8F3F49F020E030E0A901C701B60142
:105780000E94CA23811106C082E290E09093200318
:1057900080931F03C701B60109C060E070E080E894
:1057A0009FEF04C060E070E080EC9FE7CDB7DEB70C
:1057B000E0E10C944623992788270895FB01DC013A
:1057C0004150504088F08D9181341CF08B350CF4A1
:1057D000805E659161341CF06B350CF4605E861B55
:1057E000611171F3990B0895881BFCCF0E94332C33
:1057F000A59F900DB49F900DA49F800D911D112425
:105800000895DB018F939F930E94F62BBF91AF9178
:10581000A29F800D911DA39F900DB29F900D11240A
:105820000895A1E21A2EAA1BBB1BFD010DC0AA1FE1
:10583000BB1FEE1FFF1FA217B307E407F50720F0F9
:10584000A21BB30BE40BF50B661F771F881F991F74
:105850001A9469F760957095809590959B01AC01BD
:10586000BD01CF010895A29FB001B39FC001A39FC6
:10587000700D811D1124911DB29F700D811D112489
:08588000911D0895F894FFCF7B
:10588800000021032000000076312E3000006572F0
:10589800723A20756E6B6E6F776E206D6F746F72D3
:1058A8003A20256400002564207374657073000035
:1058B800256620646567000025662070690000255C
:1058C80064000025660000252E30660000657272AF
:1058D8003A20756E6B6E6F776E206D6F746F720005
:1058E800006572723A2074696D6520746F6F207359
:1058F800686F727400006572723A2074696D652071
:10590800746F6F206C6F6E6700000A00332E504969
:105918002020556E00692053747574742E005665E6
:105928007273696F6E00256325647374002563259F
:105938002E31662563002563252E336625630073A3
:10594800746570002563257300646567726565007A
:1059580072616469616E0025632564206D7300259A
:1059680063252E3166780025634D6F742025640009
:105978002563252E3266002563252E306600536187
:10598800766520616C6C002063757272656E7400B8
:10599800636F6E6669677572006174696F6E7320F4
:1059A80020004C6F616420616C6C00207361766527
:1059B80064202000256325647300256353544F50E9
:1059C8000025634357002563434357006E6F2074D7
:1059D80065787400202C3B0900737465707300644B
:0659E80065670070690014
:00000001FF
